{"bytecode":"60806040523480156200001157600080fd5b5060405162002679380380620026798339810160408190526200003491620000de565b6200003f3362000071565b600980546001600160a01b039384166001600160a01b0319918216179091556016805492909316911617905562000116565b600080546001600160a01b038381166001600160a01b0319831681178455604051919092169283917f8be0079c531659141344cd1fd0a4f28419497f9722a3daafe3b4186f6b6457e09190a35050565b80516001600160a01b0381168114620000d957600080fd5b919050565b60008060408385031215620000f257600080fd5b620000fd83620000c1565b91506200010d60208401620000c1565b90509250929050565b61255380620001266000396000f3fe608060405234801561001057600080fd5b50600436106103425760003560e01c8063715018a6116101b8578063b379bc6a11610104578063e4c78422116100a2578063f2fde38b1161007c578063f2fde38b14610781578063fb27b0ed14610794578063fd5e6dd1146107a7578063fe833831146107ba57600080fd5b8063e4c7842214610733578063f08aae8114610746578063f1c5d6c21461075957600080fd5b8063c98a6c49116100de578063c98a6c49146106e7578063cd32e792146106fa578063dc0d3dff1461070d578063dd5b84671461072057600080fd5b8063b379bc6a1461069e578063b83e0234146106be578063c071cf83146106de57600080fd5b80638da5cb5b116101715780639f20f62d1161014b5780639f20f62d1461062a578063a4abf26114610655578063af3f5e2214610668578063b195558c1461067b57600080fd5b80638da5cb5b146105fe57806396bb1fef1461060f57806398d5fdca1461062257600080fd5b8063715018a61461058a5780637737721b1461059257806379f27c9e146105a557806384d269ad146105b8578063877dd39d146105cb5780638b20c4c2146105de57600080fd5b80633e47d6f311610292578063630b8a8a1161023057806366b987181161020a57806366b98718146105245780636b3dd9e2146105375780636e5b6b28146105575780636f4a2a2f1461056a57600080fd5b8063630b8a8a146104eb5780636323085c146104fe578063635ab2f71461051157600080fd5b80635d9902501161026c5780635d990250146104aa5780635e5f2e26146104bd5780635eb186f8146104d057806360ab5852146104e357600080fd5b80633e47d6f314610464578063409ed87e146104845780635084be371461049757600080fd5b806319d9caa9116102ff57806327cd08a9116102d957806327cd08a91461040057806329161a0014610413578063383cae1d1461043e5780633d8c3cdd1461045157600080fd5b806319d9caa9146103a3578063276b11da146103ac57806327927b3e146103bf57600080fd5b806308b7d7911461034757806309bc33a7146103635780630bea440d1461036b5780630d8e6e2c146103805780630e53fecb14610388578063171e44ea14610390575b600080fd5b61035060125481565b6040519081526020015b60405180910390f35b6103506107da565b61037e610379366004612102565b610817565b005b6103506109ee565b61037e610a61565b61037e61039e36600461212e565b610b84565b610350600e5481565b6103506103ba366004612150565b610c00565b6103e86103cd36600461212e565b6005602052600090815260409020546001600160a01b031681565b6040516001600160a01b03909116815260200161035a565b6103e861040e36600461217a565b610c87565b610350610421366004612150565b600160209081526000928352604080842090915290825290205481565b6016546103e8906001600160a01b031681565b61035061045f366004612150565b610cb1565b61035061047236600461212e565b60136020526000908152604090205481565b61037e61049236600461217a565b610d4a565b61037e6104a536600461217a565b610f08565b61037e6104b8366004612102565b610f37565b6103e86104cb36600461217a565b611212565b6009546103e8906001600160a01b031681565b61037e611222565b61037e6104f936600461212e565b61131f565b61035061050c366004612150565b61139b565b61037e61051f366004612193565b6113f5565b61037e61053236600461212e565b61149c565b61035061054536600461212e565b60116020526000908152604090205481565b61035061056536600461217a565b6114e8565b61035061057836600461212e565b600d6020526000908152604090205481565b61037e61151c565b6103506105a0366004612150565b611552565b61037e6105b336600461212e565b611582565b61037e6105c6366004612102565b6116ca565b61037e6105d9366004612150565b61183e565b6103506105ec36600461212e565b600f6020526000908152604090205481565b6000546001600160a01b03166103e8565b61037e61061d36600461212e565b611896565b610350611946565b610350610638366004612150565b600b60209081526000928352604080842090915290825290205481565b61037e61066336600461217a565b6119dd565b61035061067636600461212e565b611a46565b61068e61068936600461212e565b611b04565b604051901515815260200161035a565b6103506106ac36600461212e565b60176020526000908152604090205481565b6103506106cc36600461212e565b60046020526000908152604090205481565b61035060185481565b61037e6106f536600461212e565b611b6e565b61037e610708366004612193565b611c9e565b6103e861071b36600461217a565b611cfb565b61068e61072e36600461212e565b611d0b565b61035061074136600461212e565b611d6c565b6103e861075436600461217a565b611e0c565b61076c61076736600461212e565b611e1c565b6040805192835260208301919091520161035a565b61037e61078f36600461212e565b611f1d565b600a546103e8906001600160a01b031681565b6103e86107b536600461217a565b611fb5565b6103506107c836600461212e565b600c6020526000908152604090205481565b60006802b5e3af16b1880000816107ef611946565b9050670de0b6b3a76400008161080582856121d3565b61080f91906121f2565b935050505090565b600082116108405760405162461bcd60e51b815260040161083790612214565b60405180910390fd5b61084981611d0b565b6108955760405162461bcd60e51b815260206004820152601e60248201527f546f6b656e2069732063757272656e746c79206e6f7420616c6c6f77656400006044820152606401610837565b6040516323b872dd60e01b8152336004820152306024820152604481018390526001600160a01b038216906323b872dd906064016020604051808303816000875af11580156108e8573d6000803e3d6000fd5b505050506040513d601f19601f8201168201806040525081019061090c919061224b565b506109173382611fc5565b6001600160a01b038116600090815260016020908152604080832033845290915290205461094690839061226d565b6001600160a01b03821660009081526001602090815260408083203380855290835281842094909455600290915290204290556109839082611552565b33600090815260036020908152604080832093909355600490522054600114156109ea57600780546001810182556000919091527fa66cc928b5edb82af9bd49922954155ab7b0942694bea4ce44661d9a8736c6880180546001600160a01b031916331790555b5050565b6016546040805163054fd4d560e41b815290516000926001600160a01b0316916354fd4d509160048083019260209291908290030181865afa158015610a38573d6000803e3d6000fd5b505050506040513d601f19601f82011682018060405250810190610a5c9190612285565b905090565b336000908152600f602090815260408083205460119092528220549091610a88828461229e565b90506000606484601254610a9c91906121d3565b610aa691906121f2565b90506000610ab4848361229e565b905060008511610ac357600080fd5b60008111610ad057600080fd5b848410610adc57600080fd5b600a5460405163a9059cbb60e01b8152336004820152602481018390526001600160a01b039091169063a9059cbb906044016020604051808303816000875af1158015610b2d573d6000803e3d6000fd5b505050506040513d601f19601f82011682018060405250810190610b51919061224b565b5033600090815260116020526040902054610b6d90829061226d565b336000908152601160205260409020555050505050565b6000546001600160a01b03163314610bae5760405162461bcd60e51b8152600401610837906122b5565b600880546001810182556000919091527ff3f7a9fe364faab93b216da50a3214154f22a0a2b415b23a84c8169e8b636ee30180546001600160a01b0319166001600160a01b0392909216919091179055565b6001600160a01b038216600090815260046020526040812054610c2557506000610c81565b600080610c3184611e1c565b9092509050610c4181600a6123ce565b6001600160a01b038086166000908152600160209081526040808320938a1683529290522054610c729084906121d3565b610c7c91906121f2565b925050505b92915050565b60158181548110610c9757600080fd5b6000918252602090912001546001600160a01b0316905081565b6001600160a01b03808316600081815260026020908152604080832054948616835260018252808320938352929052908120549091600a914290846064610cf883876121d3565b610d0291906121f2565b90506000610d1362080520836121f2565b90506000603c610d23878761229e565b610d2d91906121f2565b90506000610d3b83836121d3565b9b9a5050505050505050505050565b336000908152600f602090815260408083205460119092528220549091610d71828461229e565b90506000606484601254610d8591906121d3565b610d8f91906121f2565b90506000610d9d848361229e565b905060008111610dac57600080fd5b80861115610db957600080fd5b848410610dc557600080fd5b60008611610de55760405162461bcd60e51b815260040161083790612214565b85831015610e4a5760405162461bcd60e51b815260206004820152602c60248201527f596f7520646f6e2774206861766520656e6f756768207075726368617365642060448201526b746f6b656e73206c6566742160a01b6064820152608401610837565b84610e55878661226d565b10610e5f57600080fd5b600a5460405163a9059cbb60e01b8152336004820152602481018890526001600160a01b039091169063a9059cbb906044016020604051808303816000875af1158015610eb0573d6000803e3d6000fd5b505050506040513d601f19601f82011682018060405250810190610ed4919061224b565b5033600090815260116020526040902054610ef090879061226d565b33600090815260116020526040902055505050505050565b6000546001600160a01b03163314610f325760405162461bcd60e51b8152600401610837906122b5565b601055565b60008211610f575760405162461bcd60e51b815260040161083790612214565b610f6081611b04565b610fac5760405162461bcd60e51b815260206004820152601e60248201527f546f6b656e2069732063757272656e746c79206e6f7420616c6c6f77656400006044820152606401610837565b6040516323b872dd60e01b8152336004820152306024820152604481018390526001600160a01b038216906323b872dd906064016020604051808303816000875af1158015610fff573d6000803e3d6000fd5b505050506040513d601f19601f82011682018060405250810190611023919061224b565b506040516370a0823160e01b8152306004820152670de0b6b3a7640000906001600160a01b038316906370a0823190602401602060405180830381865afa158015611072573d6000803e3d6000fd5b505050506040513d601f19601f820116820180604052508101906110969190612285565b6110a091906121f2565b6018556110ad3382612030565b6001600160a01b0381166000908152600b602090815260408083203384529091529020546110dc90839061226d565b6001600160a01b0382166000908152600b6020908152604080832033845290915290205560105461110d90836121d3565b336000908152600f6020526040902054611127919061226d565b336000908152600f60209081526040808320939093556001600160a01b0384168252600c9052205461115a90839061226d565b6001600160a01b0382166000908152600c6020908152604080832093909355600d9052205461118a90839061226d565b6001600160a01b0382166000908152600d6020526040902055600e546111b190839061226d565b600e5533600090815260176020526040902054600114156109ea57601480546001810182556000919091527fce6d7b5282bd9a3661ae061feed1dbda4e52ab073b1f9285be6e155d9c38d4ec0180546001600160a01b031916331790555050565b60088181548110610c9757600080fd5b6000546001600160a01b0316331461124c5760405162461bcd60e51b8152600401610837906122b5565b60005b60075481101561131c5760006007828154811061126e5761126e6123da565b60009182526020822001546001600160a01b0316915061128d82611a46565b60095460405163a9059cbb60e01b81526001600160a01b0385811660048301526024820184905292935091169063a9059cbb906044016020604051808303816000875af11580156112e2573d6000803e3d6000fd5b505050506040513d601f19601f82011682018060405250810190611306919061224b565b5050508080611314906123f0565b91505061124f565b50565b6000546001600160a01b031633146113495760405162461bcd60e51b8152600401610837906122b5565b601580546001810182556000919091527f55f448fdea98c4d29eb340757ef0a66cd03dbb9538908a6a81d96026b71ec4750180546001600160a01b0319166001600160a01b0392909216919091179055565b6001600160a01b0381166000908152600f6020908152604080832054601190925282205460125483906064906113d29085906121d3565b6113dc91906121f2565b905060006113ea838361229e565b979650505050505050565b6000546001600160a01b0316331461141f5760405162461bcd60e51b8152600401610837906122b5565b6040516323b872dd60e01b8152336004820152306024820152604481018290526001600160a01b038316906323b872dd906064015b6020604051808303816000875af1158015611473573d6000803e3d6000fd5b505050506040513d601f19601f82011682018060405250810190611497919061224b565b505050565b6000546001600160a01b031633146114c65760405162461bcd60e51b8152600401610837906122b5565b600a80546001600160a01b0319166001600160a01b0392909216919091179055565b6000806114f3611946565b90506000670de0b6b3a764000061150a85846121d3565b61151491906121f2565b949350505050565b6000546001600160a01b031633146115465760405162461bcd60e51b8152600401610837906122b5565b611550600061209b565b565b60008061155f8484610cb1565b6001600160a01b038516600090815260036020526040902054611514919061226d565b6000546001600160a01b031633146115ac5760405162461bcd60e51b8152600401610837906122b5565b6001600160a01b0381166000818152600c60205260409081902054905163a9059cbb60e01b81523360048201526024810182905290919063a9059cbb906044016020604051808303816000875af115801561160b573d6000803e3d6000fd5b505050506040513d601f19601f8201168201806040525081019061162f919061224b565b506040516370a0823160e01b8152306004820152670de0b6b3a7640000906001600160a01b038416906370a0823190602401602060405180830381865afa15801561167e573d6000803e3d6000fd5b505050506040513d601f19601f820116820180604052508101906116a29190612285565b6116ac91906121f2565b601855506001600160a01b03166000908152600c6020526040812055565b6001600160a01b03811660009081526001602090815260408083203384529091529020548261170b5760405162461bcd60e51b815260040161083790612214565b828110156117675760405162461bcd60e51b815260206004820152602360248201527f596f7520646f6e2774206861766520656e6f756768207374616b656420746f6b604482015262656e7360e81b6064820152608401610837565b60405163a9059cbb60e01b8152336004820152602481018490526001600160a01b0383169063a9059cbb906044016020604051808303816000875af11580156117b4573d6000803e3d6000fd5b505050506040513d601f19601f820116820180604052508101906117d8919061224b565b506117e3838261229e565b6001600160a01b0383166000908152600160209081526040808320338452909152902081905561149757336000908152600460205260409020546118299060019061229e565b33600090815260046020526040902055505050565b6000546001600160a01b031633146118685760405162461bcd60e51b8152600401610837906122b5565b6001600160a01b03918216600090815260056020526040902080546001600160a01b03191691909216179055565b60006118a23383611552565b9050600081116118b157600080fd5b60405163a9059cbb60e01b8152336004820152602481018290526001600160a01b0383169063a9059cbb906044016020604051808303816000875af11580156118fe573d6000803e3d6000fd5b505050506040513d601f19601f82011682018060405250810190611922919061224b565b50503360009081526003602090815260408083208390556002909152902042905550565b600080601660009054906101000a90046001600160a01b03166001600160a01b031663feaf968c6040518163ffffffff1660e01b815260040160a060405180830381865afa15801561199c573d6000803e3d6000fd5b505050506040513d601f19601f820116820180604052508101906119c09190612425565b505050915050806402540be4006119d79190612475565b91505090565b6000546001600160a01b03163314611a075760405162461bcd60e51b8152600401610837906122b5565b60656012541115611a1757600080fd5b606581601254611a27919061226d565b1115611a3257600080fd5b80601254611a40919061226d565b60125550565b6001600160a01b0381166000908152600460205260408120548190611aa15760405162461bcd60e51b81526020600482015260116024820152704e6f20746f6b656e73207374616b65642160781b6044820152606401610837565b60005b600854811015611afd57611adf8460088381548110611ac557611ac56123da565b6000918252602090912001546001600160a01b0316610c00565b611ae9908361226d565b915080611af5816123f0565b915050611aa4565b5092915050565b6000805b601554811015611b6557826001600160a01b031660158281548110611b2f57611b2f6123da565b6000918252602090912001546001600160a01b03161415611b535750600192915050565b80611b5d816123f0565b915050611b08565b50600092915050565b6001600160a01b038116600090815260016020908152604080832033845290915290205480611bdf5760405162461bcd60e51b815260206004820152601b60248201527f5374616b696e672062616c616e63652063616e6e6f74206265203000000000006044820152606401610837565b60405163a9059cbb60e01b8152336004820152602481018290526001600160a01b0383169063a9059cbb906044016020604051808303816000875af1158015611c2c573d6000803e3d6000fd5b505050506040513d601f19601f82011682018060405250810190611c50919061224b565b506001600160a01b03821660009081526001602081815260408084203385528252808420849055600490915290912054611c8a919061229e565b336000908152600460205260409020555050565b6000546001600160a01b03163314611cc85760405162461bcd60e51b8152600401610837906122b5565b60405163a9059cbb60e01b8152336004820152602481018290526001600160a01b0383169063a9059cbb90604401611454565b60068181548110610c9757600080fd5b6000805b600854811015611b6557826001600160a01b031660088281548110611d3657611d366123da565b6000918252602090912001546001600160a01b03161415611d5a5750600192915050565b80611d64816123f0565b915050611d0f565b600080546001600160a01b03163314611d975760405162461bcd60e51b8152600401610837906122b5565b6040516370a0823160e01b81523060048201526001600160a01b038316906370a0823190602401602060405180830381865afa158015611ddb573d6000803e3d6000fd5b505050506040513d601f19601f82011682018060405250810190611dff9190612285565b601881905590505b919050565b60148181548110610c9757600080fd5b6001600160a01b03808216600090815260056020526040808220548151633fabe5a360e21b815291519293849391169182918491839163feaf968c9160048082019260a0929091908290030181865afa158015611e7d573d6000803e3d6000fd5b505050506040513d601f19601f82011682018060405250810190611ea19190612425565b5050509150506000826001600160a01b031663313ce5676040518163ffffffff1660e01b8152600401602060405180830381865afa158015611ee7573d6000803e3d6000fd5b505050506040513d601f19601f82011682018060405250810190611f0b91906124fa565b919760ff909216965090945050505050565b6000546001600160a01b03163314611f475760405162461bcd60e51b8152600401610837906122b5565b6001600160a01b038116611fac5760405162461bcd60e51b815260206004820152602660248201527f4f776e61626c653a206e6577206f776e657220697320746865207a65726f206160448201526564647265737360d01b6064820152608401610837565b61131c8161209b565b60078181548110610c9757600080fd5b6001600160a01b038082166000908152600160209081526040808320938616835292905220546109ea576001600160a01b03821660009081526004602052604090205461201390600161226d565b6001600160a01b0383166000908152600460205260409020555050565b6001600160a01b038082166000908152600b60209081526040808320938616835292905220546109ea576001600160a01b03821660009081526017602052604090205461207e90600161226d565b6001600160a01b0383166000908152601760205260409020555050565b600080546001600160a01b038381166001600160a01b0319831681178455604051919092169283917f8be0079c531659141344cd1fd0a4f28419497f9722a3daafe3b4186f6b6457e09190a35050565b80356001600160a01b0381168114611e0757600080fd5b6000806040838503121561211557600080fd5b82359150612125602084016120eb565b90509250929050565b60006020828403121561214057600080fd5b612149826120eb565b9392505050565b6000806040838503121561216357600080fd5b61216c836120eb565b9150612125602084016120eb565b60006020828403121561218c57600080fd5b5035919050565b600080604083850312156121a657600080fd5b6121af836120eb565b946020939093013593505050565b634e487b7160e01b600052601160045260246000fd5b60008160001904831182151516156121ed576121ed6121bd565b500290565b60008261220f57634e487b7160e01b600052601260045260246000fd5b500490565b6020808252601a908201527f416d6f756e74206d757374206265206d6f7265207468616e2030000000000000604082015260600190565b60006020828403121561225d57600080fd5b8151801515811461214957600080fd5b60008219821115612280576122806121bd565b500190565b60006020828403121561229757600080fd5b5051919050565b6000828210156122b0576122b06121bd565b500390565b6020808252818101527f4f776e61626c653a2063616c6c6572206973206e6f7420746865206f776e6572604082015260600190565b600181815b8085111561232557816000190482111561230b5761230b6121bd565b8085161561231857918102915b93841c93908002906122ef565b509250929050565b60008261233c57506001610c81565b8161234957506000610c81565b816001811461235f576002811461236957612385565b6001915050610c81565b60ff84111561237a5761237a6121bd565b50506001821b610c81565b5060208310610133831016604e8410600b84101617156123a8575081810a610c81565b6123b283836122ea565b80600019048211156123c6576123c66121bd565b029392505050565b6000612149838361232d565b634e487b7160e01b600052603260045260246000fd5b6000600019821415612404576124046121bd565b5060010190565b805169ffffffffffffffffffff81168114611e0757600080fd5b600080600080600060a0868803121561243d57600080fd5b6124468661240b565b94506020860151935060408601519250606086015191506124696080870161240b565b90509295509295909350565b60006001600160ff1b038184138284138082168684048611161561249b5761249b6121bd565b600160ff1b60008712828116878305891216156124ba576124ba6121bd565b600087129250878205871284841616156124d6576124d66121bd565b878505871281841616156124ec576124ec6121bd565b505050929093029392505050565b60006020828403121561250c57600080fd5b815160ff8116811461214957600080fdfea2646970667358221220d4872e3a5b7beb1041c50fc40a390b9adca2b2805994164677b03e28df18ed8e64736f6c634300080b0033","bytecodeSha1":"debec95b459be1a292d8376c4d47926e1b2c8d22","type":"contract","abi":[{"inputs":[{"internalType":"address","name":"_dappTokenAddress","type":"address"},{"internalType":"address","name":"_priceFeed","type":"address"}],"stateMutability":"nonpayable","type":"constructor","name":"constructor"},{"anonymous":false,"inputs":[{"indexed":true,"internalType":"address","name":"previousOwner","type":"address"},{"indexed":true,"internalType":"address","name":"newOwner","type":"address"}],"name":"OwnershipTransferred","type":"event"},{"inputs":[{"internalType":"address","name":"_token","type":"address"}],"name":"addAllowedTokens","outputs":[],"stateMutability":"nonpayable","type":"function"},{"inputs":[{"internalType":"address","name":"_token","type":"address"}],"name":"addPreSaleAllowedTokens","outputs":[],"stateMutability":"nonpayable","type":"function"},{"inputs":[{"internalType":"address","name":"","type":"address"}],"name":"addressToAmountFunded","outputs":[{"internalType":"uint256","name":"","type":"uint256"}],"stateMutability":"view","type":"function"},{"inputs":[{"internalType":"uint256","name":"","type":"uint256"}],"name":"allowedTokens","outputs":[{"internalType":"address","name":"","type":"address"}],"stateMutability":"view","type":"function"},{"inputs":[{"internalType":"address","name":"_user","type":"address"},{"internalType":"address","name":"_token","type":"address"}],"name":"calculateStakingRewards","outputs":[{"internalType":"uint256","name":"","type":"uint256"}],"stateMutability":"view","type":"function"},{"inputs":[],"name":"claimAllPreSaletokens","outputs":[],"stateMutability":"nonpayable","type":"function"},{"inputs":[{"internalType":"uint256","name":"_amount","type":"uint256"}],"name":"claimPreSaleTokens","outputs":[],"stateMutability":"nonpayable","type":"function"},{"inputs":[{"internalType":"address","name":"_token","type":"address"}],"name":"claimStakingRewards","outputs":[],"stateMutability":"nonpayable","type":"function"},{"inputs":[{"internalType":"address","name":"","type":"address"}],"name":"collectedPreSaleFunds","outputs":[{"internalType":"uint256","name":"","type":"uint256"}],"stateMutability":"view","type":"function"},{"inputs":[],"name":"dappToken","outputs":[{"internalType":"contract IERC20","name":"","type":"address"}],"stateMutability":"view","type":"function"},{"inputs":[{"internalType":"uint256","name":"","type":"uint256"}],"name":"funders","outputs":[{"internalType":"address","name":"","type":"address"}],"stateMutability":"view","type":"function"},{"inputs":[{"internalType":"address","name":"_token","type":"address"},{"internalType":"address","name":"_sender","type":"address"}],"name":"getAvailablePreSaleTokensToWithdraw","outputs":[{"internalType":"uint256","name":"","type":"uint256"}],"stateMutability":"view","type":"function"},{"inputs":[{"internalType":"address","name":"_sender","type":"address"},{"internalType":"address","name":"_token","type":"address"}],"name":"getAvailableStakingRewards","outputs":[{"internalType":"uint256","name":"","type":"uint256"}],"stateMutability":"view","type":"function"},{"inputs":[{"internalType":"uint256","name":"ethAmount","type":"uint256"}],"name":"getConversionRate","outputs":[{"internalType":"uint256","name":"","type":"uint256"}],"stateMutability":"view","type":"function"},{"inputs":[],"name":"getEntranceFee","outputs":[{"internalType":"uint256","name":"","type":"uint256"}],"stateMutability":"view","type":"function"},{"inputs":[],"name":"getPrice","outputs":[{"internalType":"uint256","name":"","type":"uint256"}],"stateMutability":"view","type":"function"},{"inputs":[{"internalType":"address","name":"_token","type":"address"}],"name":"getSingleTokenAllPreSaleBalance","outputs":[{"internalType":"uint256","name":"","type":"uint256"}],"stateMutability":"nonpayable","type":"function"},{"inputs":[{"internalType":"address","name":"_token","type":"address"}],"name":"getTokenValue","outputs":[{"internalType":"uint256","name":"","type":"uint256"},{"internalType":"uint256","name":"","type":"uint256"}],"stateMutability":"view","type":"function"},{"inputs":[{"internalType":"address","name":"_user","type":"address"},{"internalType":"address","name":"_token","type":"address"}],"name":"getUserSingleTokenValue","outputs":[{"internalType":"uint256","name":"","type":"uint256"}],"stateMutability":"view","type":"function"},{"inputs":[{"internalType":"address","name":"_user","type":"address"}],"name":"getUserTotalValue","outputs":[{"internalType":"uint256","name":"","type":"uint256"}],"stateMutability":"view","type":"function"},{"inputs":[],"name":"getVersion","outputs":[{"internalType":"uint256","name":"","type":"uint256"}],"stateMutability":"view","type":"function"},{"inputs":[{"internalType":"uint256","name":"_percentageAmount","type":"uint256"}],"name":"issuePreSaleTokensToWithdrawPercentage","outputs":[],"stateMutability":"nonpayable","type":"function"},{"inputs":[],"name":"issueTokens","outputs":[],"stateMutability":"nonpayable","type":"function"},{"inputs":[{"internalType":"address","name":"_token","type":"address"},{"internalType":"uint256","name":"_amount","type":"uint256"}],"name":"manageDepositOwnerFunds","outputs":[],"stateMutability":"nonpayable","type":"function"},{"inputs":[{"internalType":"address","name":"_token","type":"address"},{"internalType":"uint256","name":"_amount","type":"uint256"}],"name":"manageWithdrawOwnerFunds","outputs":[],"stateMutability":"nonpayable","type":"function"},{"inputs":[],"name":"owner","outputs":[{"internalType":"address","name":"","type":"address"}],"stateMutability":"view","type":"function"},{"inputs":[],"name":"percentageWithdrawAllowed","outputs":[{"internalType":"uint256","name":"","type":"uint256"}],"stateMutability":"view","type":"function"},{"inputs":[{"internalType":"uint256","name":"","type":"uint256"}],"name":"preSaleAllowedTokens","outputs":[{"internalType":"address","name":"","type":"address"}],"stateMutability":"view","type":"function"},{"inputs":[{"internalType":"uint256","name":"_amount","type":"uint256"},{"internalType":"address","name":"_token","type":"address"}],"name":"preSaleFund","outputs":[],"stateMutability":"nonpayable","type":"function"},{"inputs":[{"internalType":"uint256","name":"","type":"uint256"}],"name":"preSaleFunders","outputs":[{"internalType":"address","name":"","type":"address"}],"stateMutability":"view","type":"function"},{"inputs":[],"name":"preSaleTokenAddress","outputs":[{"internalType":"contract IERC20","name":"","type":"address"}],"stateMutability":"view","type":"function"},{"inputs":[{"internalType":"address","name":"_token","type":"address"}],"name":"preSaleTokenIsAllowed","outputs":[{"internalType":"bool","name":"","type":"bool"}],"stateMutability":"nonpayable","type":"function"},{"inputs":[],"name":"priceFeedA","outputs":[{"internalType":"contract AggregatorV3Interface","name":"","type":"address"}],"stateMutability":"view","type":"function"},{"inputs":[{"internalType":"address","name":"","type":"address"},{"internalType":"address","name":"","type":"address"}],"name":"purchasedBalance","outputs":[{"internalType":"uint256","name":"","type":"uint256"}],"stateMutability":"view","type":"function"},{"inputs":[],"name":"renounceOwnership","outputs":[],"stateMutability":"nonpayable","type":"function"},{"inputs":[{"internalType":"address","name":"_token","type":"address"},{"internalType":"address","name":"_priceFeed","type":"address"}],"name":"setPriceFeedContract","outputs":[],"stateMutability":"nonpayable","type":"function"},{"inputs":[],"name":"singleTokenAllPreSaleBalance","outputs":[{"internalType":"uint256","name":"","type":"uint256"}],"stateMutability":"view","type":"function"},{"inputs":[{"internalType":"uint256","name":"_amount","type":"uint256"},{"internalType":"address","name":"_token","type":"address"}],"name":"stakeTokens","outputs":[],"stateMutability":"nonpayable","type":"function"},{"inputs":[{"internalType":"uint256","name":"","type":"uint256"}],"name":"stakers","outputs":[{"internalType":"address","name":"","type":"address"}],"stateMutability":"view","type":"function"},{"inputs":[{"internalType":"address","name":"","type":"address"},{"internalType":"address","name":"","type":"address"}],"name":"stakingBalance","outputs":[{"internalType":"uint256","name":"","type":"uint256"}],"stateMutability":"view","type":"function"},{"inputs":[{"internalType":"address","name":"_token","type":"address"}],"name":"tokenIsAllowed","outputs":[{"internalType":"bool","name":"","type":"bool"}],"stateMutability":"nonpayable","type":"function"},{"inputs":[{"internalType":"address","name":"","type":"address"}],"name":"tokenPriceFeedMapping","outputs":[{"internalType":"address","name":"","type":"address"}],"stateMutability":"view","type":"function"},{"inputs":[{"internalType":"address","name":"","type":"address"}],"name":"totalCollectionOfPreSaleFunds","outputs":[{"internalType":"uint256","name":"","type":"uint256"}],"stateMutability":"view","type":"function"},{"inputs":[],"name":"totalCollectionOfPreSaleFundsAllTokens","outputs":[{"internalType":"uint256","name":"","type":"uint256"}],"stateMutability":"view","type":"function"},{"inputs":[{"internalType":"address","name":"","type":"address"}],"name":"totalPurchasedPreSaleTokens","outputs":[{"internalType":"uint256","name":"","type":"uint256"}],"stateMutability":"view","type":"function"},{"inputs":[{"internalType":"address","name":"","type":"address"}],"name":"totalWithdrawnPreSaleTokens","outputs":[{"internalType":"uint256","name":"","type":"uint256"}],"stateMutability":"view","type":"function"},{"inputs":[{"internalType":"address","name":"newOwner","type":"address"}],"name":"transferOwnership","outputs":[],"stateMutability":"nonpayable","type":"function"},{"inputs":[{"internalType":"address","name":"","type":"address"}],"name":"uniquePreSaleTokensStaked","outputs":[{"internalType":"uint256","name":"","type":"uint256"}],"stateMutability":"view","type":"function"},{"inputs":[{"internalType":"address","name":"","type":"address"}],"name":"uniqueTokensStaked","outputs":[{"internalType":"uint256","name":"","type":"uint256"}],"stateMutability":"view","type":"function"},{"inputs":[{"internalType":"address","name":"_token","type":"address"}],"name":"unstakeAllTokens","outputs":[],"stateMutability":"nonpayable","type":"function"},{"inputs":[{"internalType":"uint256","name":"_amount","type":"uint256"},{"internalType":"address","name":"_token","type":"address"}],"name":"unstakeTokens","outputs":[],"stateMutability":"nonpayable","type":"function"},{"inputs":[{"internalType":"address","name":"_preSaleTokenAddress","type":"address"}],"name":"updatePreSaleTokenAddress","outputs":[],"stateMutability":"nonpayable","type":"function"},{"inputs":[{"internalType":"uint256","name":"_times","type":"uint256"}],"name":"updateTimes","outputs":[],"stateMutability":"nonpayable","type":"function"},{"inputs":[{"internalType":"address","name":"_token","type":"address"}],"name":"withdrawPreSaleCollectedFund","outputs":[],"stateMutability":"nonpayable","type":"function"}],"compiler":{"version":"0.8.11+commit.d7f03943","evm_version":"istanbul","optimizer":{"enabled":true,"runs":200}},"contractName":"TokenFarm","language":"Solidity","natspec":{"methods":{"owner()":{"details":"Returns the address of the current owner."},"renounceOwnership()":{"details":"Leaves the contract without owner. It will not be possible to call `onlyOwner` functions anymore. Can only be called by the current owner. NOTE: Renouncing ownership will leave the contract without an owner, thereby removing any functionality that is only available to the owner."},"transferOwnership(address)":{"details":"Transfers ownership of the contract to a new account (`newOwner`). Can only be called by the current owner."}},"kind":"dev","version":1},"opcodes":"PUSH1 0x80 PUSH1 0x40 MSTORE CALLVALUE DUP1 ISZERO PUSH2 0x10 JUMPI PUSH1 0x0 DUP1 REVERT JUMPDEST POP PUSH1 0x4 CALLDATASIZE LT PUSH2 0x342 JUMPI PUSH1 0x0 CALLDATALOAD PUSH1 0xE0 SHR DUP1 PUSH4 0x715018A6 GT PUSH2 0x1B8 JUMPI DUP1 PUSH4 0xB379BC6A GT PUSH2 0x104 JUMPI DUP1 PUSH4 0xE4C78422 GT PUSH2 0xA2 JUMPI DUP1 PUSH4 0xF2FDE38B GT PUSH2 0x7C JUMPI DUP1 PUSH4 0xF2FDE38B EQ PUSH2 0x781 JUMPI DUP1 PUSH4 0xFB27B0ED EQ PUSH2 0x794 JUMPI DUP1 PUSH4 0xFD5E6DD1 EQ PUSH2 0x7A7 JUMPI DUP1 PUSH4 0xFE833831 EQ PUSH2 0x7BA JUMPI PUSH1 0x0 DUP1 REVERT JUMPDEST DUP1 PUSH4 0xE4C78422 EQ PUSH2 0x733 JUMPI DUP1 PUSH4 0xF08AAE81 EQ PUSH2 0x746 JUMPI DUP1 PUSH4 0xF1C5D6C2 EQ PUSH2 0x759 JUMPI PUSH1 0x0 DUP1 REVERT JUMPDEST DUP1 PUSH4 0xC98A6C49 GT PUSH2 0xDE JUMPI DUP1 PUSH4 0xC98A6C49 EQ PUSH2 0x6E7 JUMPI DUP1 PUSH4 0xCD32E792 EQ PUSH2 0x6FA JUMPI DUP1 PUSH4 0xDC0D3DFF EQ PUSH2 0x70D JUMPI DUP1 PUSH4 0xDD5B8467 EQ PUSH2 0x720 JUMPI PUSH1 0x0 DUP1 REVERT JUMPDEST DUP1 PUSH4 0xB379BC6A EQ PUSH2 0x69E JUMPI DUP1 PUSH4 0xB83E0234 EQ PUSH2 0x6BE JUMPI DUP1 PUSH4 0xC071CF83 EQ PUSH2 0x6DE JUMPI PUSH1 0x0 DUP1 REVERT JUMPDEST DUP1 PUSH4 0x8DA5CB5B GT PUSH2 0x171 JUMPI DUP1 PUSH4 0x9F20F62D GT PUSH2 0x14B JUMPI DUP1 PUSH4 0x9F20F62D EQ PUSH2 0x62A JUMPI DUP1 PUSH4 0xA4ABF261 EQ PUSH2 0x655 JUMPI DUP1 PUSH4 0xAF3F5E22 EQ PUSH2 0x668 JUMPI DUP1 PUSH4 0xB195558C EQ PUSH2 0x67B JUMPI PUSH1 0x0 DUP1 REVERT JUMPDEST DUP1 PUSH4 0x8DA5CB5B EQ PUSH2 0x5FE JUMPI DUP1 PUSH4 0x96BB1FEF EQ PUSH2 0x60F JUMPI DUP1 PUSH4 0x98D5FDCA EQ PUSH2 0x622 JUMPI PUSH1 0x0 DUP1 REVERT JUMPDEST DUP1 PUSH4 0x715018A6 EQ PUSH2 0x58A JUMPI DUP1 PUSH4 0x7737721B EQ PUSH2 0x592 JUMPI DUP1 PUSH4 0x79F27C9E EQ PUSH2 0x5A5 JUMPI DUP1 PUSH4 0x84D269AD EQ PUSH2 0x5B8 JUMPI DUP1 PUSH4 0x877DD39D EQ PUSH2 0x5CB JUMPI DUP1 PUSH4 0x8B20C4C2 EQ PUSH2 0x5DE JUMPI PUSH1 0x0 DUP1 REVERT JUMPDEST DUP1 PUSH4 0x3E47D6F3 GT PUSH2 0x292 JUMPI DUP1 PUSH4 0x630B8A8A GT PUSH2 0x230 JUMPI DUP1 PUSH4 0x66B98718 GT PUSH2 0x20A JUMPI DUP1 PUSH4 0x66B98718 EQ PUSH2 0x524 JUMPI DUP1 PUSH4 0x6B3DD9E2 EQ PUSH2 0x537 JUMPI DUP1 PUSH4 0x6E5B6B28 EQ PUSH2 0x557 JUMPI DUP1 PUSH4 0x6F4A2A2F EQ PUSH2 0x56A JUMPI PUSH1 0x0 DUP1 REVERT JUMPDEST DUP1 PUSH4 0x630B8A8A EQ PUSH2 0x4EB JUMPI DUP1 PUSH4 0x6323085C EQ PUSH2 0x4FE JUMPI DUP1 PUSH4 0x635AB2F7 EQ PUSH2 0x511 JUMPI PUSH1 0x0 DUP1 REVERT JUMPDEST DUP1 PUSH4 0x5D990250 GT PUSH2 0x26C JUMPI DUP1 PUSH4 0x5D990250 EQ PUSH2 0x4AA JUMPI DUP1 PUSH4 0x5E5F2E26 EQ PUSH2 0x4BD JUMPI DUP1 PUSH4 0x5EB186F8 EQ PUSH2 0x4D0 JUMPI DUP1 PUSH4 0x60AB5852 EQ PUSH2 0x4E3 JUMPI PUSH1 0x0 DUP1 REVERT JUMPDEST DUP1 PUSH4 0x3E47D6F3 EQ PUSH2 0x464 JUMPI DUP1 PUSH4 0x409ED87E EQ PUSH2 0x484 JUMPI DUP1 PUSH4 0x5084BE37 EQ PUSH2 0x497 JUMPI PUSH1 0x0 DUP1 REVERT JUMPDEST DUP1 PUSH4 0x19D9CAA9 GT PUSH2 0x2FF JUMPI DUP1 PUSH4 0x27CD08A9 GT PUSH2 0x2D9 JUMPI DUP1 PUSH4 0x27CD08A9 EQ PUSH2 0x400 JUMPI DUP1 PUSH4 0x29161A00 EQ PUSH2 0x413 JUMPI DUP1 PUSH4 0x383CAE1D EQ PUSH2 0x43E JUMPI DUP1 PUSH4 0x3D8C3CDD EQ PUSH2 0x451 JUMPI PUSH1 0x0 DUP1 REVERT JUMPDEST DUP1 PUSH4 0x19D9CAA9 EQ PUSH2 0x3A3 JUMPI DUP1 PUSH4 0x276B11DA EQ PUSH2 0x3AC JUMPI DUP1 PUSH4 0x27927B3E EQ PUSH2 0x3BF JUMPI PUSH1 0x0 DUP1 REVERT JUMPDEST DUP1 PUSH4 0x8B7D791 EQ PUSH2 0x347 JUMPI DUP1 PUSH4 0x9BC33A7 EQ PUSH2 0x363 JUMPI DUP1 PUSH4 0xBEA440D EQ PUSH2 0x36B JUMPI DUP1 PUSH4 0xD8E6E2C EQ PUSH2 0x380 JUMPI DUP1 PUSH4 0xE53FECB EQ PUSH2 0x388 JUMPI DUP1 PUSH4 0x171E44EA EQ PUSH2 0x390 JUMPI JUMPDEST PUSH1 0x0 DUP1 REVERT JUMPDEST PUSH2 0x350 PUSH1 0x12 SLOAD DUP2 JUMP JUMPDEST PUSH1 0x40 MLOAD SWAP1 DUP2 MSTORE PUSH1 0x20 ADD JUMPDEST PUSH1 0x40 MLOAD DUP1 SWAP2 SUB SWAP1 RETURN JUMPDEST PUSH2 0x350 PUSH2 0x7DA JUMP JUMPDEST PUSH2 0x37E PUSH2 0x379 CALLDATASIZE PUSH1 0x4 PUSH2 0x2102 JUMP JUMPDEST PUSH2 0x817 JUMP JUMPDEST STOP JUMPDEST PUSH2 0x350 PUSH2 0x9EE JUMP JUMPDEST PUSH2 0x37E PUSH2 0xA61 JUMP JUMPDEST PUSH2 0x37E PUSH2 0x39E CALLDATASIZE PUSH1 0x4 PUSH2 0x212E JUMP JUMPDEST PUSH2 0xB84 JUMP JUMPDEST PUSH2 0x350 PUSH1 0xE SLOAD DUP2 JUMP JUMPDEST PUSH2 0x350 PUSH2 0x3BA CALLDATASIZE PUSH1 0x4 PUSH2 0x2150 JUMP JUMPDEST PUSH2 0xC00 JUMP JUMPDEST PUSH2 0x3E8 PUSH2 0x3CD CALLDATASIZE PUSH1 0x4 PUSH2 0x212E JUMP JUMPDEST PUSH1 0x5 PUSH1 0x20 MSTORE PUSH1 0x0 SWAP1 DUP2 MSTORE PUSH1 0x40 SWAP1 KECCAK256 SLOAD PUSH1 0x1 PUSH1 0x1 PUSH1 0xA0 SHL SUB AND DUP2 JUMP JUMPDEST PUSH1 0x40 MLOAD PUSH1 0x1 PUSH1 0x1 PUSH1 0xA0 SHL SUB SWAP1 SWAP2 AND DUP2 MSTORE PUSH1 0x20 ADD PUSH2 0x35A JUMP JUMPDEST PUSH2 0x3E8 PUSH2 0x40E CALLDATASIZE PUSH1 0x4 PUSH2 0x217A JUMP JUMPDEST PUSH2 0xC87 JUMP JUMPDEST PUSH2 0x350 PUSH2 0x421 CALLDATASIZE PUSH1 0x4 PUSH2 0x2150 JUMP JUMPDEST PUSH1 0x1 PUSH1 0x20 SWAP1 DUP2 MSTORE PUSH1 0x0 SWAP3 DUP4 MSTORE PUSH1 0x40 DUP1 DUP5 KECCAK256 SWAP1 SWAP2 MSTORE SWAP1 DUP3 MSTORE SWAP1 KECCAK256 SLOAD DUP2 JUMP JUMPDEST PUSH1 0x16 SLOAD PUSH2 0x3E8 SWAP1 PUSH1 0x1 PUSH1 0x1 PUSH1 0xA0 SHL SUB AND DUP2 JUMP JUMPDEST PUSH2 0x350 PUSH2 0x45F CALLDATASIZE PUSH1 0x4 PUSH2 0x2150 JUMP JUMPDEST PUSH2 0xCB1 JUMP JUMPDEST PUSH2 0x350 PUSH2 0x472 CALLDATASIZE PUSH1 0x4 PUSH2 0x212E JUMP JUMPDEST PUSH1 0x13 PUSH1 0x20 MSTORE PUSH1 0x0 SWAP1 DUP2 MSTORE PUSH1 0x40 SWAP1 KECCAK256 SLOAD DUP2 JUMP JUMPDEST PUSH2 0x37E PUSH2 0x492 CALLDATASIZE PUSH1 0x4 PUSH2 0x217A JUMP JUMPDEST PUSH2 0xD4A JUMP JUMPDEST PUSH2 0x37E PUSH2 0x4A5 CALLDATASIZE PUSH1 0x4 PUSH2 0x217A JUMP JUMPDEST PUSH2 0xF08 JUMP JUMPDEST PUSH2 0x37E PUSH2 0x4B8 CALLDATASIZE PUSH1 0x4 PUSH2 0x2102 JUMP JUMPDEST PUSH2 0xF37 JUMP JUMPDEST PUSH2 0x3E8 PUSH2 0x4CB CALLDATASIZE PUSH1 0x4 PUSH2 0x217A JUMP JUMPDEST PUSH2 0x1212 JUMP JUMPDEST PUSH1 0x9 SLOAD PUSH2 0x3E8 SWAP1 PUSH1 0x1 PUSH1 0x1 PUSH1 0xA0 SHL SUB AND DUP2 JUMP JUMPDEST PUSH2 0x37E PUSH2 0x1222 JUMP JUMPDEST PUSH2 0x37E PUSH2 0x4F9 CALLDATASIZE PUSH1 0x4 PUSH2 0x212E JUMP JUMPDEST PUSH2 0x131F JUMP JUMPDEST PUSH2 0x350 PUSH2 0x50C CALLDATASIZE PUSH1 0x4 PUSH2 0x2150 JUMP JUMPDEST PUSH2 0x139B JUMP JUMPDEST PUSH2 0x37E PUSH2 0x51F CALLDATASIZE PUSH1 0x4 PUSH2 0x2193 JUMP JUMPDEST PUSH2 0x13F5 JUMP JUMPDEST PUSH2 0x37E PUSH2 0x532 CALLDATASIZE PUSH1 0x4 PUSH2 0x212E JUMP JUMPDEST PUSH2 0x149C JUMP JUMPDEST PUSH2 0x350 PUSH2 0x545 CALLDATASIZE PUSH1 0x4 PUSH2 0x212E JUMP JUMPDEST PUSH1 0x11 PUSH1 0x20 MSTORE PUSH1 0x0 SWAP1 DUP2 MSTORE PUSH1 0x40 SWAP1 KECCAK256 SLOAD DUP2 JUMP JUMPDEST PUSH2 0x350 PUSH2 0x565 CALLDATASIZE PUSH1 0x4 PUSH2 0x217A JUMP JUMPDEST PUSH2 0x14E8 JUMP JUMPDEST PUSH2 0x350 PUSH2 0x578 CALLDATASIZE PUSH1 0x4 PUSH2 0x212E JUMP JUMPDEST PUSH1 0xD PUSH1 0x20 MSTORE PUSH1 0x0 SWAP1 DUP2 MSTORE PUSH1 0x40 SWAP1 KECCAK256 SLOAD DUP2 JUMP JUMPDEST PUSH2 0x37E PUSH2 0x151C JUMP JUMPDEST PUSH2 0x350 PUSH2 0x5A0 CALLDATASIZE PUSH1 0x4 PUSH2 0x2150 JUMP JUMPDEST PUSH2 0x1552 JUMP JUMPDEST PUSH2 0x37E PUSH2 0x5B3 CALLDATASIZE PUSH1 0x4 PUSH2 0x212E JUMP JUMPDEST PUSH2 0x1582 JUMP JUMPDEST PUSH2 0x37E PUSH2 0x5C6 CALLDATASIZE PUSH1 0x4 PUSH2 0x2102 JUMP JUMPDEST PUSH2 0x16CA JUMP JUMPDEST PUSH2 0x37E PUSH2 0x5D9 CALLDATASIZE PUSH1 0x4 PUSH2 0x2150 JUMP JUMPDEST PUSH2 0x183E JUMP JUMPDEST PUSH2 0x350 PUSH2 0x5EC CALLDATASIZE PUSH1 0x4 PUSH2 0x212E JUMP JUMPDEST PUSH1 0xF PUSH1 0x20 MSTORE PUSH1 0x0 SWAP1 DUP2 MSTORE PUSH1 0x40 SWAP1 KECCAK256 SLOAD DUP2 JUMP JUMPDEST PUSH1 0x0 SLOAD PUSH1 0x1 PUSH1 0x1 PUSH1 0xA0 SHL SUB AND PUSH2 0x3E8 JUMP JUMPDEST PUSH2 0x37E PUSH2 0x61D CALLDATASIZE PUSH1 0x4 PUSH2 0x212E JUMP JUMPDEST PUSH2 0x1896 JUMP JUMPDEST PUSH2 0x350 PUSH2 0x1946 JUMP JUMPDEST PUSH2 0x350 PUSH2 0x638 CALLDATASIZE PUSH1 0x4 PUSH2 0x2150 JUMP JUMPDEST PUSH1 0xB PUSH1 0x20 SWAP1 DUP2 MSTORE PUSH1 0x0 SWAP3 DUP4 MSTORE PUSH1 0x40 DUP1 DUP5 KECCAK256 SWAP1 SWAP2 MSTORE SWAP1 DUP3 MSTORE SWAP1 KECCAK256 SLOAD DUP2 JUMP JUMPDEST PUSH2 0x37E PUSH2 0x663 CALLDATASIZE PUSH1 0x4 PUSH2 0x217A JUMP JUMPDEST PUSH2 0x19DD JUMP JUMPDEST PUSH2 0x350 PUSH2 0x676 CALLDATASIZE PUSH1 0x4 PUSH2 0x212E JUMP JUMPDEST PUSH2 0x1A46 JUMP JUMPDEST PUSH2 0x68E PUSH2 0x689 CALLDATASIZE PUSH1 0x4 PUSH2 0x212E JUMP JUMPDEST PUSH2 0x1B04 JUMP JUMPDEST PUSH1 0x40 MLOAD SWAP1 ISZERO ISZERO DUP2 MSTORE PUSH1 0x20 ADD PUSH2 0x35A JUMP JUMPDEST PUSH2 0x350 PUSH2 0x6AC CALLDATASIZE PUSH1 0x4 PUSH2 0x212E JUMP JUMPDEST PUSH1 0x17 PUSH1 0x20 MSTORE PUSH1 0x0 SWAP1 DUP2 MSTORE PUSH1 0x40 SWAP1 KECCAK256 SLOAD DUP2 JUMP JUMPDEST PUSH2 0x350 PUSH2 0x6CC CALLDATASIZE PUSH1 0x4 PUSH2 0x212E JUMP JUMPDEST PUSH1 0x4 PUSH1 0x20 MSTORE PUSH1 0x0 SWAP1 DUP2 MSTORE PUSH1 0x40 SWAP1 KECCAK256 SLOAD DUP2 JUMP JUMPDEST PUSH2 0x350 PUSH1 0x18 SLOAD DUP2 JUMP JUMPDEST PUSH2 0x37E PUSH2 0x6F5 CALLDATASIZE PUSH1 0x4 PUSH2 0x212E JUMP JUMPDEST PUSH2 0x1B6E JUMP JUMPDEST PUSH2 0x37E PUSH2 0x708 CALLDATASIZE PUSH1 0x4 PUSH2 0x2193 JUMP JUMPDEST PUSH2 0x1C9E JUMP JUMPDEST PUSH2 0x3E8 PUSH2 0x71B CALLDATASIZE PUSH1 0x4 PUSH2 0x217A JUMP JUMPDEST PUSH2 0x1CFB JUMP JUMPDEST PUSH2 0x68E PUSH2 0x72E CALLDATASIZE PUSH1 0x4 PUSH2 0x212E JUMP JUMPDEST PUSH2 0x1D0B JUMP JUMPDEST PUSH2 0x350 PUSH2 0x741 CALLDATASIZE PUSH1 0x4 PUSH2 0x212E JUMP JUMPDEST PUSH2 0x1D6C JUMP JUMPDEST PUSH2 0x3E8 PUSH2 0x754 CALLDATASIZE PUSH1 0x4 PUSH2 0x217A JUMP JUMPDEST PUSH2 0x1E0C JUMP JUMPDEST PUSH2 0x76C PUSH2 0x767 CALLDATASIZE PUSH1 0x4 PUSH2 0x212E JUMP JUMPDEST PUSH2 0x1E1C JUMP JUMPDEST PUSH1 0x40 DUP1 MLOAD SWAP3 DUP4 MSTORE PUSH1 0x20 DUP4 ADD SWAP2 SWAP1 SWAP2 MSTORE ADD PUSH2 0x35A JUMP JUMPDEST PUSH2 0x37E PUSH2 0x78F CALLDATASIZE PUSH1 0x4 PUSH2 0x212E JUMP JUMPDEST PUSH2 0x1F1D JUMP JUMPDEST PUSH1 0xA SLOAD PUSH2 0x3E8 SWAP1 PUSH1 0x1 PUSH1 0x1 PUSH1 0xA0 SHL SUB AND DUP2 JUMP JUMPDEST PUSH2 0x3E8 PUSH2 0x7B5 CALLDATASIZE PUSH1 0x4 PUSH2 0x217A JUMP JUMPDEST PUSH2 0x1FB5 JUMP JUMPDEST PUSH2 0x350 PUSH2 0x7C8 CALLDATASIZE PUSH1 0x4 PUSH2 0x212E JUMP JUMPDEST PUSH1 0xC PUSH1 0x20 MSTORE PUSH1 0x0 SWAP1 DUP2 MSTORE PUSH1 0x40 SWAP1 KECCAK256 SLOAD DUP2 JUMP JUMPDEST PUSH1 0x0 PUSH9 0x2B5E3AF16B1880000 DUP2 PUSH2 0x7EF PUSH2 0x1946 JUMP JUMPDEST SWAP1 POP PUSH8 0xDE0B6B3A7640000 DUP2 PUSH2 0x805 DUP3 DUP6 PUSH2 0x21D3 JUMP JUMPDEST PUSH2 0x80F SWAP2 SWAP1 PUSH2 0x21F2 JUMP JUMPDEST SWAP4 POP POP POP POP SWAP1 JUMP JUMPDEST PUSH1 0x0 DUP3 GT PUSH2 0x840 JUMPI PUSH1 0x40 MLOAD PUSH3 0x461BCD PUSH1 0xE5 SHL DUP2 MSTORE PUSH1 0x4 ADD PUSH2 0x837 SWAP1 PUSH2 0x2214 JUMP JUMPDEST PUSH1 0x40 MLOAD DUP1 SWAP2 SUB SWAP1 REVERT JUMPDEST PUSH2 0x849 DUP2 PUSH2 0x1D0B JUMP JUMPDEST PUSH2 0x895 JUMPI PUSH1 0x40 MLOAD PUSH3 0x461BCD PUSH1 0xE5 SHL DUP2 MSTORE PUSH1 0x20 PUSH1 0x4 DUP3 ADD MSTORE PUSH1 0x1E PUSH1 0x24 DUP3 ADD MSTORE PUSH32 0x546F6B656E2069732063757272656E746C79206E6F7420616C6C6F7765640000 PUSH1 0x44 DUP3 ADD MSTORE PUSH1 0x64 ADD PUSH2 0x837 JUMP JUMPDEST PUSH1 0x40 MLOAD PUSH4 0x23B872DD PUSH1 0xE0 SHL DUP2 MSTORE CALLER PUSH1 0x4 DUP3 ADD MSTORE ADDRESS PUSH1 0x24 DUP3 ADD MSTORE PUSH1 0x44 DUP2 ADD DUP4 SWAP1 MSTORE PUSH1 0x1 PUSH1 0x1 PUSH1 0xA0 SHL SUB DUP3 AND SWAP1 PUSH4 0x23B872DD SWAP1 PUSH1 0x64 ADD PUSH1 0x20 PUSH1 0x40 MLOAD DUP1 DUP4 SUB DUP2 PUSH1 0x0 DUP8 GAS CALL ISZERO DUP1 ISZERO PUSH2 0x8E8 JUMPI RETURNDATASIZE PUSH1 0x0 DUP1 RETURNDATACOPY RETURNDATASIZE PUSH1 0x0 REVERT JUMPDEST POP POP POP POP PUSH1 0x40 MLOAD RETURNDATASIZE PUSH1 0x1F NOT PUSH1 0x1F DUP3 ADD AND DUP3 ADD DUP1 PUSH1 0x40 MSTORE POP DUP2 ADD SWAP1 PUSH2 0x90C SWAP2 SWAP1 PUSH2 0x224B JUMP JUMPDEST POP PUSH2 0x917 CALLER DUP3 PUSH2 0x1FC5 JUMP JUMPDEST PUSH1 0x1 PUSH1 0x1 PUSH1 0xA0 SHL SUB DUP2 AND PUSH1 0x0 SWAP1 DUP2 MSTORE PUSH1 0x1 PUSH1 0x20 SWAP1 DUP2 MSTORE PUSH1 0x40 DUP1 DUP4 KECCAK256 CALLER DUP5 MSTORE SWAP1 SWAP2 MSTORE SWAP1 KECCAK256 SLOAD PUSH2 0x946 SWAP1 DUP4 SWAP1 PUSH2 0x226D JUMP JUMPDEST PUSH1 0x1 PUSH1 0x1 PUSH1 0xA0 SHL SUB DUP3 AND PUSH1 0x0 SWAP1 DUP2 MSTORE PUSH1 0x1 PUSH1 0x20 SWAP1 DUP2 MSTORE PUSH1 0x40 DUP1 DUP4 KECCAK256 CALLER DUP1 DUP6 MSTORE SWAP1 DUP4 MSTORE DUP2 DUP5 KECCAK256 SWAP5 SWAP1 SWAP5 SSTORE PUSH1 0x2 SWAP1 SWAP2 MSTORE SWAP1 KECCAK256 TIMESTAMP SWAP1 SSTORE PUSH2 0x983 SWAP1 DUP3 PUSH2 0x1552 JUMP JUMPDEST CALLER PUSH1 0x0 SWAP1 DUP2 MSTORE PUSH1 0x3 PUSH1 0x20 SWAP1 DUP2 MSTORE PUSH1 0x40 DUP1 DUP4 KECCAK256 SWAP4 SWAP1 SWAP4 SSTORE PUSH1 0x4 SWAP1 MSTORE KECCAK256 SLOAD PUSH1 0x1 EQ ISZERO PUSH2 0x9EA JUMPI PUSH1 0x7 DUP1 SLOAD PUSH1 0x1 DUP2 ADD DUP3 SSTORE PUSH1 0x0 SWAP2 SWAP1 SWAP2 MSTORE PUSH32 0xA66CC928B5EDB82AF9BD49922954155AB7B0942694BEA4CE44661D9A8736C688 ADD DUP1 SLOAD PUSH1 0x1 PUSH1 0x1 PUSH1 0xA0 SHL SUB NOT AND CALLER OR SWAP1 SSTORE JUMPDEST POP POP JUMP JUMPDEST PUSH1 0x16 SLOAD PUSH1 0x40 DUP1 MLOAD PUSH4 0x54FD4D5 PUSH1 0xE4 SHL DUP2 MSTORE SWAP1 MLOAD PUSH1 0x0 SWAP3 PUSH1 0x1 PUSH1 0x1 PUSH1 0xA0 SHL SUB AND SWAP2 PUSH4 0x54FD4D50 SWAP2 PUSH1 0x4 DUP1 DUP4 ADD SWAP3 PUSH1 0x20 SWAP3 SWAP2 SWAP1 DUP3 SWAP1 SUB ADD DUP2 DUP7 GAS STATICCALL ISZERO DUP1 ISZERO PUSH2 0xA38 JUMPI RETURNDATASIZE PUSH1 0x0 DUP1 RETURNDATACOPY RETURNDATASIZE PUSH1 0x0 REVERT JUMPDEST POP POP POP POP PUSH1 0x40 MLOAD RETURNDATASIZE PUSH1 0x1F NOT PUSH1 0x1F DUP3 ADD AND DUP3 ADD DUP1 PUSH1 0x40 MSTORE POP DUP2 ADD SWAP1 PUSH2 0xA5C SWAP2 SWAP1 PUSH2 0x2285 JUMP JUMPDEST SWAP1 POP SWAP1 JUMP JUMPDEST CALLER PUSH1 0x0 SWAP1 DUP2 MSTORE PUSH1 0xF PUSH1 0x20 SWAP1 DUP2 MSTORE PUSH1 0x40 DUP1 DUP4 KECCAK256 SLOAD PUSH1 0x11 SWAP1 SWAP3 MSTORE DUP3 KECCAK256 SLOAD SWAP1 SWAP2 PUSH2 0xA88 DUP3 DUP5 PUSH2 0x229E JUMP JUMPDEST SWAP1 POP PUSH1 0x0 PUSH1 0x64 DUP5 PUSH1 0x12 SLOAD PUSH2 0xA9C SWAP2 SWAP1 PUSH2 0x21D3 JUMP JUMPDEST PUSH2 0xAA6 SWAP2 SWAP1 PUSH2 0x21F2 JUMP JUMPDEST SWAP1 POP PUSH1 0x0 PUSH2 0xAB4 DUP5 DUP4 PUSH2 0x229E JUMP JUMPDEST SWAP1 POP PUSH1 0x0 DUP6 GT PUSH2 0xAC3 JUMPI PUSH1 0x0 DUP1 REVERT JUMPDEST PUSH1 0x0 DUP2 GT PUSH2 0xAD0 JUMPI PUSH1 0x0 DUP1 REVERT JUMPDEST DUP5 DUP5 LT PUSH2 0xADC JUMPI PUSH1 0x0 DUP1 REVERT JUMPDEST PUSH1 0xA SLOAD PUSH1 0x40 MLOAD PUSH4 0xA9059CBB PUSH1 0xE0 SHL DUP2 MSTORE CALLER PUSH1 0x4 DUP3 ADD MSTORE PUSH1 0x24 DUP2 ADD DUP4 SWAP1 MSTORE PUSH1 0x1 PUSH1 0x1 PUSH1 0xA0 SHL SUB SWAP1 SWAP2 AND SWAP1 PUSH4 0xA9059CBB SWAP1 PUSH1 0x44 ADD PUSH1 0x20 PUSH1 0x40 MLOAD DUP1 DUP4 SUB DUP2 PUSH1 0x0 DUP8 GAS CALL ISZERO DUP1 ISZERO PUSH2 0xB2D JUMPI RETURNDATASIZE PUSH1 0x0 DUP1 RETURNDATACOPY RETURNDATASIZE PUSH1 0x0 REVERT JUMPDEST POP POP POP POP PUSH1 0x40 MLOAD RETURNDATASIZE PUSH1 0x1F NOT PUSH1 0x1F DUP3 ADD AND DUP3 ADD DUP1 PUSH1 0x40 MSTORE POP DUP2 ADD SWAP1 PUSH2 0xB51 SWAP2 SWAP1 PUSH2 0x224B JUMP JUMPDEST POP CALLER PUSH1 0x0 SWAP1 DUP2 MSTORE PUSH1 0x11 PUSH1 0x20 MSTORE PUSH1 0x40 SWAP1 KECCAK256 SLOAD PUSH2 0xB6D SWAP1 DUP3 SWAP1 PUSH2 0x226D JUMP JUMPDEST CALLER PUSH1 0x0 SWAP1 DUP2 MSTORE PUSH1 0x11 PUSH1 0x20 MSTORE PUSH1 0x40 SWAP1 KECCAK256 SSTORE POP POP POP POP POP JUMP JUMPDEST PUSH1 0x0 SLOAD PUSH1 0x1 PUSH1 0x1 PUSH1 0xA0 SHL SUB AND CALLER EQ PUSH2 0xBAE JUMPI PUSH1 0x40 MLOAD PUSH3 0x461BCD PUSH1 0xE5 SHL DUP2 MSTORE PUSH1 0x4 ADD PUSH2 0x837 SWAP1 PUSH2 0x22B5 JUMP JUMPDEST PUSH1 0x8 DUP1 SLOAD PUSH1 0x1 DUP2 ADD DUP3 SSTORE PUSH1 0x0 SWAP2 SWAP1 SWAP2 MSTORE PUSH32 0xF3F7A9FE364FAAB93B216DA50A3214154F22A0A2B415B23A84C8169E8B636EE3 ADD DUP1 SLOAD PUSH1 0x1 PUSH1 0x1 PUSH1 0xA0 SHL SUB NOT AND PUSH1 0x1 PUSH1 0x1 PUSH1 0xA0 SHL SUB SWAP3 SWAP1 SWAP3 AND SWAP2 SWAP1 SWAP2 OR SWAP1 SSTORE JUMP JUMPDEST PUSH1 0x1 PUSH1 0x1 PUSH1 0xA0 SHL SUB DUP3 AND PUSH1 0x0 SWAP1 DUP2 MSTORE PUSH1 0x4 PUSH1 0x20 MSTORE PUSH1 0x40 DUP2 KECCAK256 SLOAD PUSH2 0xC25 JUMPI POP PUSH1 0x0 PUSH2 0xC81 JUMP JUMPDEST PUSH1 0x0 DUP1 PUSH2 0xC31 DUP5 PUSH2 0x1E1C JUMP JUMPDEST SWAP1 SWAP3 POP SWAP1 POP PUSH2 0xC41 DUP2 PUSH1 0xA PUSH2 0x23CE JUMP JUMPDEST PUSH1 0x1 PUSH1 0x1 PUSH1 0xA0 SHL SUB DUP1 DUP7 AND PUSH1 0x0 SWAP1 DUP2 MSTORE PUSH1 0x1 PUSH1 0x20 SWAP1 DUP2 MSTORE PUSH1 0x40 DUP1 DUP4 KECCAK256 SWAP4 DUP11 AND DUP4 MSTORE SWAP3 SWAP1 MSTORE KECCAK256 SLOAD PUSH2 0xC72 SWAP1 DUP5 SWAP1 PUSH2 0x21D3 JUMP JUMPDEST PUSH2 0xC7C SWAP2 SWAP1 PUSH2 0x21F2 JUMP JUMPDEST SWAP3 POP POP POP JUMPDEST SWAP3 SWAP2 POP POP JUMP JUMPDEST PUSH1 0x15 DUP2 DUP2 SLOAD DUP2 LT PUSH2 0xC97 JUMPI PUSH1 0x0 DUP1 REVERT JUMPDEST PUSH1 0x0 SWAP2 DUP3 MSTORE PUSH1 0x20 SWAP1 SWAP2 KECCAK256 ADD SLOAD PUSH1 0x1 PUSH1 0x1 PUSH1 0xA0 SHL SUB AND SWAP1 POP DUP2 JUMP JUMPDEST PUSH1 0x1 PUSH1 0x1 PUSH1 0xA0 SHL SUB DUP1 DUP4 AND PUSH1 0x0 DUP2 DUP2 MSTORE PUSH1 0x2 PUSH1 0x20 SWAP1 DUP2 MSTORE PUSH1 0x40 DUP1 DUP4 KECCAK256 SLOAD SWAP5 DUP7 AND DUP4 MSTORE PUSH1 0x1 DUP3 MSTORE DUP1 DUP4 KECCAK256 SWAP4 DUP4 MSTORE SWAP3 SWAP1 MSTORE SWAP1 DUP2 KECCAK256 SLOAD SWAP1 SWAP2 PUSH1 0xA SWAP2 TIMESTAMP SWAP1 DUP5 PUSH1 0x64 PUSH2 0xCF8 DUP4 DUP8 PUSH2 0x21D3 JUMP JUMPDEST PUSH2 0xD02 SWAP2 SWAP1 PUSH2 0x21F2 JUMP JUMPDEST SWAP1 POP PUSH1 0x0 PUSH2 0xD13 PUSH3 0x80520 DUP4 PUSH2 0x21F2 JUMP JUMPDEST SWAP1 POP PUSH1 0x0 PUSH1 0x3C PUSH2 0xD23 DUP8 DUP8 PUSH2 0x229E JUMP JUMPDEST PUSH2 0xD2D SWAP2 SWAP1 PUSH2 0x21F2 JUMP JUMPDEST SWAP1 POP PUSH1 0x0 PUSH2 0xD3B DUP4 DUP4 PUSH2 0x21D3 JUMP JUMPDEST SWAP12 SWAP11 POP POP POP POP POP POP POP POP POP POP POP JUMP JUMPDEST CALLER PUSH1 0x0 SWAP1 DUP2 MSTORE PUSH1 0xF PUSH1 0x20 SWAP1 DUP2 MSTORE PUSH1 0x40 DUP1 DUP4 KECCAK256 SLOAD PUSH1 0x11 SWAP1 SWAP3 MSTORE DUP3 KECCAK256 SLOAD SWAP1 SWAP2 PUSH2 0xD71 DUP3 DUP5 PUSH2 0x229E JUMP JUMPDEST SWAP1 POP PUSH1 0x0 PUSH1 0x64 DUP5 PUSH1 0x12 SLOAD PUSH2 0xD85 SWAP2 SWAP1 PUSH2 0x21D3 JUMP JUMPDEST PUSH2 0xD8F SWAP2 SWAP1 PUSH2 0x21F2 JUMP JUMPDEST SWAP1 POP PUSH1 0x0 PUSH2 0xD9D DUP5 DUP4 PUSH2 0x229E JUMP JUMPDEST SWAP1 POP PUSH1 0x0 DUP2 GT PUSH2 0xDAC JUMPI PUSH1 0x0 DUP1 REVERT JUMPDEST DUP1 DUP7 GT ISZERO PUSH2 0xDB9 JUMPI PUSH1 0x0 DUP1 REVERT JUMPDEST DUP5 DUP5 LT PUSH2 0xDC5 JUMPI PUSH1 0x0 DUP1 REVERT JUMPDEST PUSH1 0x0 DUP7 GT PUSH2 0xDE5 JUMPI PUSH1 0x40 MLOAD PUSH3 0x461BCD PUSH1 0xE5 SHL DUP2 MSTORE PUSH1 0x4 ADD PUSH2 0x837 SWAP1 PUSH2 0x2214 JUMP JUMPDEST DUP6 DUP4 LT ISZERO PUSH2 0xE4A JUMPI PUSH1 0x40 MLOAD PUSH3 0x461BCD PUSH1 0xE5 SHL DUP2 MSTORE PUSH1 0x20 PUSH1 0x4 DUP3 ADD MSTORE PUSH1 0x2C PUSH1 0x24 DUP3 ADD MSTORE PUSH32 0x596F7520646F6E2774206861766520656E6F7567682070757263686173656420 PUSH1 0x44 DUP3 ADD MSTORE PUSH12 0x746F6B656E73206C65667421 PUSH1 0xA0 SHL PUSH1 0x64 DUP3 ADD MSTORE PUSH1 0x84 ADD PUSH2 0x837 JUMP JUMPDEST DUP5 PUSH2 0xE55 DUP8 DUP7 PUSH2 0x226D JUMP JUMPDEST LT PUSH2 0xE5F JUMPI PUSH1 0x0 DUP1 REVERT JUMPDEST PUSH1 0xA SLOAD PUSH1 0x40 MLOAD PUSH4 0xA9059CBB PUSH1 0xE0 SHL DUP2 MSTORE CALLER PUSH1 0x4 DUP3 ADD MSTORE PUSH1 0x24 DUP2 ADD DUP9 SWAP1 MSTORE PUSH1 0x1 PUSH1 0x1 PUSH1 0xA0 SHL SUB SWAP1 SWAP2 AND SWAP1 PUSH4 0xA9059CBB SWAP1 PUSH1 0x44 ADD PUSH1 0x20 PUSH1 0x40 MLOAD DUP1 DUP4 SUB DUP2 PUSH1 0x0 DUP8 GAS CALL ISZERO DUP1 ISZERO PUSH2 0xEB0 JUMPI RETURNDATASIZE PUSH1 0x0 DUP1 RETURNDATACOPY RETURNDATASIZE PUSH1 0x0 REVERT JUMPDEST POP POP POP POP PUSH1 0x40 MLOAD RETURNDATASIZE PUSH1 0x1F NOT PUSH1 0x1F DUP3 ADD AND DUP3 ADD DUP1 PUSH1 0x40 MSTORE POP DUP2 ADD SWAP1 PUSH2 0xED4 SWAP2 SWAP1 PUSH2 0x224B JUMP JUMPDEST POP CALLER PUSH1 0x0 SWAP1 DUP2 MSTORE PUSH1 0x11 PUSH1 0x20 MSTORE PUSH1 0x40 SWAP1 KECCAK256 SLOAD PUSH2 0xEF0 SWAP1 DUP8 SWAP1 PUSH2 0x226D JUMP JUMPDEST CALLER PUSH1 0x0 SWAP1 DUP2 MSTORE PUSH1 0x11 PUSH1 0x20 MSTORE PUSH1 0x40 SWAP1 KECCAK256 SSTORE POP POP POP POP POP POP JUMP JUMPDEST PUSH1 0x0 SLOAD PUSH1 0x1 PUSH1 0x1 PUSH1 0xA0 SHL SUB AND CALLER EQ PUSH2 0xF32 JUMPI PUSH1 0x40 MLOAD PUSH3 0x461BCD PUSH1 0xE5 SHL DUP2 MSTORE PUSH1 0x4 ADD PUSH2 0x837 SWAP1 PUSH2 0x22B5 JUMP JUMPDEST PUSH1 0x10 SSTORE JUMP JUMPDEST PUSH1 0x0 DUP3 GT PUSH2 0xF57 JUMPI PUSH1 0x40 MLOAD PUSH3 0x461BCD PUSH1 0xE5 SHL DUP2 MSTORE PUSH1 0x4 ADD PUSH2 0x837 SWAP1 PUSH2 0x2214 JUMP JUMPDEST PUSH2 0xF60 DUP2 PUSH2 0x1B04 JUMP JUMPDEST PUSH2 0xFAC JUMPI PUSH1 0x40 MLOAD PUSH3 0x461BCD PUSH1 0xE5 SHL DUP2 MSTORE PUSH1 0x20 PUSH1 0x4 DUP3 ADD MSTORE PUSH1 0x1E PUSH1 0x24 DUP3 ADD MSTORE PUSH32 0x546F6B656E2069732063757272656E746C79206E6F7420616C6C6F7765640000 PUSH1 0x44 DUP3 ADD MSTORE PUSH1 0x64 ADD PUSH2 0x837 JUMP JUMPDEST PUSH1 0x40 MLOAD PUSH4 0x23B872DD PUSH1 0xE0 SHL DUP2 MSTORE CALLER PUSH1 0x4 DUP3 ADD MSTORE ADDRESS PUSH1 0x24 DUP3 ADD MSTORE PUSH1 0x44 DUP2 ADD DUP4 SWAP1 MSTORE PUSH1 0x1 PUSH1 0x1 PUSH1 0xA0 SHL SUB DUP3 AND SWAP1 PUSH4 0x23B872DD SWAP1 PUSH1 0x64 ADD PUSH1 0x20 PUSH1 0x40 MLOAD DUP1 DUP4 SUB DUP2 PUSH1 0x0 DUP8 GAS CALL ISZERO DUP1 ISZERO PUSH2 0xFFF JUMPI RETURNDATASIZE PUSH1 0x0 DUP1 RETURNDATACOPY RETURNDATASIZE PUSH1 0x0 REVERT JUMPDEST POP POP POP POP PUSH1 0x40 MLOAD RETURNDATASIZE PUSH1 0x1F NOT PUSH1 0x1F DUP3 ADD AND DUP3 ADD DUP1 PUSH1 0x40 MSTORE POP DUP2 ADD SWAP1 PUSH2 0x1023 SWAP2 SWAP1 PUSH2 0x224B JUMP JUMPDEST POP PUSH1 0x40 MLOAD PUSH4 0x70A08231 PUSH1 0xE0 SHL DUP2 MSTORE ADDRESS PUSH1 0x4 DUP3 ADD MSTORE PUSH8 0xDE0B6B3A7640000 SWAP1 PUSH1 0x1 PUSH1 0x1 PUSH1 0xA0 SHL SUB DUP4 AND SWAP1 PUSH4 0x70A08231 SWAP1 PUSH1 0x24 ADD PUSH1 0x20 PUSH1 0x40 MLOAD DUP1 DUP4 SUB DUP2 DUP7 GAS STATICCALL ISZERO DUP1 ISZERO PUSH2 0x1072 JUMPI RETURNDATASIZE PUSH1 0x0 DUP1 RETURNDATACOPY RETURNDATASIZE PUSH1 0x0 REVERT JUMPDEST POP POP POP POP PUSH1 0x40 MLOAD RETURNDATASIZE PUSH1 0x1F NOT PUSH1 0x1F DUP3 ADD AND DUP3 ADD DUP1 PUSH1 0x40 MSTORE POP DUP2 ADD SWAP1 PUSH2 0x1096 SWAP2 SWAP1 PUSH2 0x2285 JUMP JUMPDEST PUSH2 0x10A0 SWAP2 SWAP1 PUSH2 0x21F2 JUMP JUMPDEST PUSH1 0x18 SSTORE PUSH2 0x10AD CALLER DUP3 PUSH2 0x2030 JUMP JUMPDEST PUSH1 0x1 PUSH1 0x1 PUSH1 0xA0 SHL SUB DUP2 AND PUSH1 0x0 SWAP1 DUP2 MSTORE PUSH1 0xB PUSH1 0x20 SWAP1 DUP2 MSTORE PUSH1 0x40 DUP1 DUP4 KECCAK256 CALLER DUP5 MSTORE SWAP1 SWAP2 MSTORE SWAP1 KECCAK256 SLOAD PUSH2 0x10DC SWAP1 DUP4 SWAP1 PUSH2 0x226D JUMP JUMPDEST PUSH1 0x1 PUSH1 0x1 PUSH1 0xA0 SHL SUB DUP3 AND PUSH1 0x0 SWAP1 DUP2 MSTORE PUSH1 0xB PUSH1 0x20 SWAP1 DUP2 MSTORE PUSH1 0x40 DUP1 DUP4 KECCAK256 CALLER DUP5 MSTORE SWAP1 SWAP2 MSTORE SWAP1 KECCAK256 SSTORE PUSH1 0x10 SLOAD PUSH2 0x110D SWAP1 DUP4 PUSH2 0x21D3 JUMP JUMPDEST CALLER PUSH1 0x0 SWAP1 DUP2 MSTORE PUSH1 0xF PUSH1 0x20 MSTORE PUSH1 0x40 SWAP1 KECCAK256 SLOAD PUSH2 0x1127 SWAP2 SWAP1 PUSH2 0x226D JUMP JUMPDEST CALLER PUSH1 0x0 SWAP1 DUP2 MSTORE PUSH1 0xF PUSH1 0x20 SWAP1 DUP2 MSTORE PUSH1 0x40 DUP1 DUP4 KECCAK256 SWAP4 SWAP1 SWAP4 SSTORE PUSH1 0x1 PUSH1 0x1 PUSH1 0xA0 SHL SUB DUP5 AND DUP3 MSTORE PUSH1 0xC SWAP1 MSTORE KECCAK256 SLOAD PUSH2 0x115A SWAP1 DUP4 SWAP1 PUSH2 0x226D JUMP JUMPDEST PUSH1 0x1 PUSH1 0x1 PUSH1 0xA0 SHL SUB DUP3 AND PUSH1 0x0 SWAP1 DUP2 MSTORE PUSH1 0xC PUSH1 0x20 SWAP1 DUP2 MSTORE PUSH1 0x40 DUP1 DUP4 KECCAK256 SWAP4 SWAP1 SWAP4 SSTORE PUSH1 0xD SWAP1 MSTORE KECCAK256 SLOAD PUSH2 0x118A SWAP1 DUP4 SWAP1 PUSH2 0x226D JUMP JUMPDEST PUSH1 0x1 PUSH1 0x1 PUSH1 0xA0 SHL SUB DUP3 AND PUSH1 0x0 SWAP1 DUP2 MSTORE PUSH1 0xD PUSH1 0x20 MSTORE PUSH1 0x40 SWAP1 KECCAK256 SSTORE PUSH1 0xE SLOAD PUSH2 0x11B1 SWAP1 DUP4 SWAP1 PUSH2 0x226D JUMP JUMPDEST PUSH1 0xE SSTORE CALLER PUSH1 0x0 SWAP1 DUP2 MSTORE PUSH1 0x17 PUSH1 0x20 MSTORE PUSH1 0x40 SWAP1 KECCAK256 SLOAD PUSH1 0x1 EQ ISZERO PUSH2 0x9EA JUMPI PUSH1 0x14 DUP1 SLOAD PUSH1 0x1 DUP2 ADD DUP3 SSTORE PUSH1 0x0 SWAP2 SWAP1 SWAP2 MSTORE PUSH32 0xCE6D7B5282BD9A3661AE061FEED1DBDA4E52AB073B1F9285BE6E155D9C38D4EC ADD DUP1 SLOAD PUSH1 0x1 PUSH1 0x1 PUSH1 0xA0 SHL SUB NOT AND CALLER OR SWAP1 SSTORE POP POP JUMP JUMPDEST PUSH1 0x8 DUP2 DUP2 SLOAD DUP2 LT PUSH2 0xC97 JUMPI PUSH1 0x0 DUP1 REVERT JUMPDEST PUSH1 0x0 SLOAD PUSH1 0x1 PUSH1 0x1 PUSH1 0xA0 SHL SUB AND CALLER EQ PUSH2 0x124C JUMPI PUSH1 0x40 MLOAD PUSH3 0x461BCD PUSH1 0xE5 SHL DUP2 MSTORE PUSH1 0x4 ADD PUSH2 0x837 SWAP1 PUSH2 0x22B5 JUMP JUMPDEST PUSH1 0x0 JUMPDEST PUSH1 0x7 SLOAD DUP2 LT ISZERO PUSH2 0x131C JUMPI PUSH1 0x0 PUSH1 0x7 DUP3 DUP2 SLOAD DUP2 LT PUSH2 0x126E JUMPI PUSH2 0x126E PUSH2 0x23DA JUMP JUMPDEST PUSH1 0x0 SWAP2 DUP3 MSTORE PUSH1 0x20 DUP3 KECCAK256 ADD SLOAD PUSH1 0x1 PUSH1 0x1 PUSH1 0xA0 SHL SUB AND SWAP2 POP PUSH2 0x128D DUP3 PUSH2 0x1A46 JUMP JUMPDEST PUSH1 0x9 SLOAD PUSH1 0x40 MLOAD PUSH4 0xA9059CBB PUSH1 0xE0 SHL DUP2 MSTORE PUSH1 0x1 PUSH1 0x1 PUSH1 0xA0 SHL SUB DUP6 DUP2 AND PUSH1 0x4 DUP4 ADD MSTORE PUSH1 0x24 DUP3 ADD DUP5 SWAP1 MSTORE SWAP3 SWAP4 POP SWAP2 AND SWAP1 PUSH4 0xA9059CBB SWAP1 PUSH1 0x44 ADD PUSH1 0x20 PUSH1 0x40 MLOAD DUP1 DUP4 SUB DUP2 PUSH1 0x0 DUP8 GAS CALL ISZERO DUP1 ISZERO PUSH2 0x12E2 JUMPI RETURNDATASIZE PUSH1 0x0 DUP1 RETURNDATACOPY RETURNDATASIZE PUSH1 0x0 REVERT JUMPDEST POP POP POP POP PUSH1 0x40 MLOAD RETURNDATASIZE PUSH1 0x1F NOT PUSH1 0x1F DUP3 ADD AND DUP3 ADD DUP1 PUSH1 0x40 MSTORE POP DUP2 ADD SWAP1 PUSH2 0x1306 SWAP2 SWAP1 PUSH2 0x224B JUMP JUMPDEST POP POP POP DUP1 DUP1 PUSH2 0x1314 SWAP1 PUSH2 0x23F0 JUMP JUMPDEST SWAP2 POP POP PUSH2 0x124F JUMP JUMPDEST POP JUMP JUMPDEST PUSH1 0x0 SLOAD PUSH1 0x1 PUSH1 0x1 PUSH1 0xA0 SHL SUB AND CALLER EQ PUSH2 0x1349 JUMPI PUSH1 0x40 MLOAD PUSH3 0x461BCD PUSH1 0xE5 SHL DUP2 MSTORE PUSH1 0x4 ADD PUSH2 0x837 SWAP1 PUSH2 0x22B5 JUMP JUMPDEST PUSH1 0x15 DUP1 SLOAD PUSH1 0x1 DUP2 ADD DUP3 SSTORE PUSH1 0x0 SWAP2 SWAP1 SWAP2 MSTORE PUSH32 0x55F448FDEA98C4D29EB340757EF0A66CD03DBB9538908A6A81D96026B71EC475 ADD DUP1 SLOAD PUSH1 0x1 PUSH1 0x1 PUSH1 0xA0 SHL SUB NOT AND PUSH1 0x1 PUSH1 0x1 PUSH1 0xA0 SHL SUB SWAP3 SWAP1 SWAP3 AND SWAP2 SWAP1 SWAP2 OR SWAP1 SSTORE JUMP JUMPDEST PUSH1 0x1 PUSH1 0x1 PUSH1 0xA0 SHL SUB DUP2 AND PUSH1 0x0 SWAP1 DUP2 MSTORE PUSH1 0xF PUSH1 0x20 SWAP1 DUP2 MSTORE PUSH1 0x40 DUP1 DUP4 KECCAK256 SLOAD PUSH1 0x11 SWAP1 SWAP3 MSTORE DUP3 KECCAK256 SLOAD PUSH1 0x12 SLOAD DUP4 SWAP1 PUSH1 0x64 SWAP1 PUSH2 0x13D2 SWAP1 DUP6 SWAP1 PUSH2 0x21D3 JUMP JUMPDEST PUSH2 0x13DC SWAP2 SWAP1 PUSH2 0x21F2 JUMP JUMPDEST SWAP1 POP PUSH1 0x0 PUSH2 0x13EA DUP4 DUP4 PUSH2 0x229E JUMP JUMPDEST SWAP8 SWAP7 POP POP POP POP POP POP POP JUMP JUMPDEST PUSH1 0x0 SLOAD PUSH1 0x1 PUSH1 0x1 PUSH1 0xA0 SHL SUB AND CALLER EQ PUSH2 0x141F JUMPI PUSH1 0x40 MLOAD PUSH3 0x461BCD PUSH1 0xE5 SHL DUP2 MSTORE PUSH1 0x4 ADD PUSH2 0x837 SWAP1 PUSH2 0x22B5 JUMP JUMPDEST PUSH1 0x40 MLOAD PUSH4 0x23B872DD PUSH1 0xE0 SHL DUP2 MSTORE CALLER PUSH1 0x4 DUP3 ADD MSTORE ADDRESS PUSH1 0x24 DUP3 ADD MSTORE PUSH1 0x44 DUP2 ADD DUP3 SWAP1 MSTORE PUSH1 0x1 PUSH1 0x1 PUSH1 0xA0 SHL SUB DUP4 AND SWAP1 PUSH4 0x23B872DD SWAP1 PUSH1 0x64 ADD JUMPDEST PUSH1 0x20 PUSH1 0x40 MLOAD DUP1 DUP4 SUB DUP2 PUSH1 0x0 DUP8 GAS CALL ISZERO DUP1 ISZERO PUSH2 0x1473 JUMPI RETURNDATASIZE PUSH1 0x0 DUP1 RETURNDATACOPY RETURNDATASIZE PUSH1 0x0 REVERT JUMPDEST POP POP POP POP PUSH1 0x40 MLOAD RETURNDATASIZE PUSH1 0x1F NOT PUSH1 0x1F DUP3 ADD AND DUP3 ADD DUP1 PUSH1 0x40 MSTORE POP DUP2 ADD SWAP1 PUSH2 0x1497 SWAP2 SWAP1 PUSH2 0x224B JUMP JUMPDEST POP POP POP JUMP JUMPDEST PUSH1 0x0 SLOAD PUSH1 0x1 PUSH1 0x1 PUSH1 0xA0 SHL SUB AND CALLER EQ PUSH2 0x14C6 JUMPI PUSH1 0x40 MLOAD PUSH3 0x461BCD PUSH1 0xE5 SHL DUP2 MSTORE PUSH1 0x4 ADD PUSH2 0x837 SWAP1 PUSH2 0x22B5 JUMP JUMPDEST PUSH1 0xA DUP1 SLOAD PUSH1 0x1 PUSH1 0x1 PUSH1 0xA0 SHL SUB NOT AND PUSH1 0x1 PUSH1 0x1 PUSH1 0xA0 SHL SUB SWAP3 SWAP1 SWAP3 AND SWAP2 SWAP1 SWAP2 OR SWAP1 SSTORE JUMP JUMPDEST PUSH1 0x0 DUP1 PUSH2 0x14F3 PUSH2 0x1946 JUMP JUMPDEST SWAP1 POP PUSH1 0x0 PUSH8 0xDE0B6B3A7640000 PUSH2 0x150A DUP6 DUP5 PUSH2 0x21D3 JUMP JUMPDEST PUSH2 0x1514 SWAP2 SWAP1 PUSH2 0x21F2 JUMP JUMPDEST SWAP5 SWAP4 POP POP POP POP JUMP JUMPDEST PUSH1 0x0 SLOAD PUSH1 0x1 PUSH1 0x1 PUSH1 0xA0 SHL SUB AND CALLER EQ PUSH2 0x1546 JUMPI PUSH1 0x40 MLOAD PUSH3 0x461BCD PUSH1 0xE5 SHL DUP2 MSTORE PUSH1 0x4 ADD PUSH2 0x837 SWAP1 PUSH2 0x22B5 JUMP JUMPDEST PUSH2 0x1550 PUSH1 0x0 PUSH2 0x209B JUMP JUMPDEST JUMP JUMPDEST PUSH1 0x0 DUP1 PUSH2 0x155F DUP5 DUP5 PUSH2 0xCB1 JUMP JUMPDEST PUSH1 0x1 PUSH1 0x1 PUSH1 0xA0 SHL SUB DUP6 AND PUSH1 0x0 SWAP1 DUP2 MSTORE PUSH1 0x3 PUSH1 0x20 MSTORE PUSH1 0x40 SWAP1 KECCAK256 SLOAD PUSH2 0x1514 SWAP2 SWAP1 PUSH2 0x226D JUMP JUMPDEST PUSH1 0x0 SLOAD PUSH1 0x1 PUSH1 0x1 PUSH1 0xA0 SHL SUB AND CALLER EQ PUSH2 0x15AC JUMPI PUSH1 0x40 MLOAD PUSH3 0x461BCD PUSH1 0xE5 SHL DUP2 MSTORE PUSH1 0x4 ADD PUSH2 0x837 SWAP1 PUSH2 0x22B5 JUMP JUMPDEST PUSH1 0x1 PUSH1 0x1 PUSH1 0xA0 SHL SUB DUP2 AND PUSH1 0x0 DUP2 DUP2 MSTORE PUSH1 0xC PUSH1 0x20 MSTORE PUSH1 0x40 SWAP1 DUP2 SWAP1 KECCAK256 SLOAD SWAP1 MLOAD PUSH4 0xA9059CBB PUSH1 0xE0 SHL DUP2 MSTORE CALLER PUSH1 0x4 DUP3 ADD MSTORE PUSH1 0x24 DUP2 ADD DUP3 SWAP1 MSTORE SWAP1 SWAP2 SWAP1 PUSH4 0xA9059CBB SWAP1 PUSH1 0x44 ADD PUSH1 0x20 PUSH1 0x40 MLOAD DUP1 DUP4 SUB DUP2 PUSH1 0x0 DUP8 GAS CALL ISZERO DUP1 ISZERO PUSH2 0x160B JUMPI RETURNDATASIZE PUSH1 0x0 DUP1 RETURNDATACOPY RETURNDATASIZE PUSH1 0x0 REVERT JUMPDEST POP POP POP POP PUSH1 0x40 MLOAD RETURNDATASIZE PUSH1 0x1F NOT PUSH1 0x1F DUP3 ADD AND DUP3 ADD DUP1 PUSH1 0x40 MSTORE POP DUP2 ADD SWAP1 PUSH2 0x162F SWAP2 SWAP1 PUSH2 0x224B JUMP JUMPDEST POP PUSH1 0x40 MLOAD PUSH4 0x70A08231 PUSH1 0xE0 SHL DUP2 MSTORE ADDRESS PUSH1 0x4 DUP3 ADD MSTORE PUSH8 0xDE0B6B3A7640000 SWAP1 PUSH1 0x1 PUSH1 0x1 PUSH1 0xA0 SHL SUB DUP5 AND SWAP1 PUSH4 0x70A08231 SWAP1 PUSH1 0x24 ADD PUSH1 0x20 PUSH1 0x40 MLOAD DUP1 DUP4 SUB DUP2 DUP7 GAS STATICCALL ISZERO DUP1 ISZERO PUSH2 0x167E JUMPI RETURNDATASIZE PUSH1 0x0 DUP1 RETURNDATACOPY RETURNDATASIZE PUSH1 0x0 REVERT JUMPDEST POP POP POP POP PUSH1 0x40 MLOAD RETURNDATASIZE PUSH1 0x1F NOT PUSH1 0x1F DUP3 ADD AND DUP3 ADD DUP1 PUSH1 0x40 MSTORE POP DUP2 ADD SWAP1 PUSH2 0x16A2 SWAP2 SWAP1 PUSH2 0x2285 JUMP JUMPDEST PUSH2 0x16AC SWAP2 SWAP1 PUSH2 0x21F2 JUMP JUMPDEST PUSH1 0x18 SSTORE POP PUSH1 0x1 PUSH1 0x1 PUSH1 0xA0 SHL SUB AND PUSH1 0x0 SWAP1 DUP2 MSTORE PUSH1 0xC PUSH1 0x20 MSTORE PUSH1 0x40 DUP2 KECCAK256 SSTORE JUMP JUMPDEST PUSH1 0x1 PUSH1 0x1 PUSH1 0xA0 SHL SUB DUP2 AND PUSH1 0x0 SWAP1 DUP2 MSTORE PUSH1 0x1 PUSH1 0x20 SWAP1 DUP2 MSTORE PUSH1 0x40 DUP1 DUP4 KECCAK256 CALLER DUP5 MSTORE SWAP1 SWAP2 MSTORE SWAP1 KECCAK256 SLOAD DUP3 PUSH2 0x170B JUMPI PUSH1 0x40 MLOAD PUSH3 0x461BCD PUSH1 0xE5 SHL DUP2 MSTORE PUSH1 0x4 ADD PUSH2 0x837 SWAP1 PUSH2 0x2214 JUMP JUMPDEST DUP3 DUP2 LT ISZERO PUSH2 0x1767 JUMPI PUSH1 0x40 MLOAD PUSH3 0x461BCD PUSH1 0xE5 SHL DUP2 MSTORE PUSH1 0x20 PUSH1 0x4 DUP3 ADD MSTORE PUSH1 0x23 PUSH1 0x24 DUP3 ADD MSTORE PUSH32 0x596F7520646F6E2774206861766520656E6F756768207374616B656420746F6B PUSH1 0x44 DUP3 ADD MSTORE PUSH3 0x656E73 PUSH1 0xE8 SHL PUSH1 0x64 DUP3 ADD MSTORE PUSH1 0x84 ADD PUSH2 0x837 JUMP JUMPDEST PUSH1 0x40 MLOAD PUSH4 0xA9059CBB PUSH1 0xE0 SHL DUP2 MSTORE CALLER PUSH1 0x4 DUP3 ADD MSTORE PUSH1 0x24 DUP2 ADD DUP5 SWAP1 MSTORE PUSH1 0x1 PUSH1 0x1 PUSH1 0xA0 SHL SUB DUP4 AND SWAP1 PUSH4 0xA9059CBB SWAP1 PUSH1 0x44 ADD PUSH1 0x20 PUSH1 0x40 MLOAD DUP1 DUP4 SUB DUP2 PUSH1 0x0 DUP8 GAS CALL ISZERO DUP1 ISZERO PUSH2 0x17B4 JUMPI RETURNDATASIZE PUSH1 0x0 DUP1 RETURNDATACOPY RETURNDATASIZE PUSH1 0x0 REVERT JUMPDEST POP POP POP POP PUSH1 0x40 MLOAD RETURNDATASIZE PUSH1 0x1F NOT PUSH1 0x1F DUP3 ADD AND DUP3 ADD DUP1 PUSH1 0x40 MSTORE POP DUP2 ADD SWAP1 PUSH2 0x17D8 SWAP2 SWAP1 PUSH2 0x224B JUMP JUMPDEST POP PUSH2 0x17E3 DUP4 DUP3 PUSH2 0x229E JUMP JUMPDEST PUSH1 0x1 PUSH1 0x1 PUSH1 0xA0 SHL SUB DUP4 AND PUSH1 0x0 SWAP1 DUP2 MSTORE PUSH1 0x1 PUSH1 0x20 SWAP1 DUP2 MSTORE PUSH1 0x40 DUP1 DUP4 KECCAK256 CALLER DUP5 MSTORE SWAP1 SWAP2 MSTORE SWAP1 KECCAK256 DUP2 SWAP1 SSTORE PUSH2 0x1497 JUMPI CALLER PUSH1 0x0 SWAP1 DUP2 MSTORE PUSH1 0x4 PUSH1 0x20 MSTORE PUSH1 0x40 SWAP1 KECCAK256 SLOAD PUSH2 0x1829 SWAP1 PUSH1 0x1 SWAP1 PUSH2 0x229E JUMP JUMPDEST CALLER PUSH1 0x0 SWAP1 DUP2 MSTORE PUSH1 0x4 PUSH1 0x20 MSTORE PUSH1 0x40 SWAP1 KECCAK256 SSTORE POP POP POP JUMP JUMPDEST PUSH1 0x0 SLOAD PUSH1 0x1 PUSH1 0x1 PUSH1 0xA0 SHL SUB AND CALLER EQ PUSH2 0x1868 JUMPI PUSH1 0x40 MLOAD PUSH3 0x461BCD PUSH1 0xE5 SHL DUP2 MSTORE PUSH1 0x4 ADD PUSH2 0x837 SWAP1 PUSH2 0x22B5 JUMP JUMPDEST PUSH1 0x1 PUSH1 0x1 PUSH1 0xA0 SHL SUB SWAP2 DUP3 AND PUSH1 0x0 SWAP1 DUP2 MSTORE PUSH1 0x5 PUSH1 0x20 MSTORE PUSH1 0x40 SWAP1 KECCAK256 DUP1 SLOAD PUSH1 0x1 PUSH1 0x1 PUSH1 0xA0 SHL SUB NOT AND SWAP2 SWAP1 SWAP3 AND OR SWAP1 SSTORE JUMP JUMPDEST PUSH1 0x0 PUSH2 0x18A2 CALLER DUP4 PUSH2 0x1552 JUMP JUMPDEST SWAP1 POP PUSH1 0x0 DUP2 GT PUSH2 0x18B1 JUMPI PUSH1 0x0 DUP1 REVERT JUMPDEST PUSH1 0x40 MLOAD PUSH4 0xA9059CBB PUSH1 0xE0 SHL DUP2 MSTORE CALLER PUSH1 0x4 DUP3 ADD MSTORE PUSH1 0x24 DUP2 ADD DUP3 SWAP1 MSTORE PUSH1 0x1 PUSH1 0x1 PUSH1 0xA0 SHL SUB DUP4 AND SWAP1 PUSH4 0xA9059CBB SWAP1 PUSH1 0x44 ADD PUSH1 0x20 PUSH1 0x40 MLOAD DUP1 DUP4 SUB DUP2 PUSH1 0x0 DUP8 GAS CALL ISZERO DUP1 ISZERO PUSH2 0x18FE JUMPI RETURNDATASIZE PUSH1 0x0 DUP1 RETURNDATACOPY RETURNDATASIZE PUSH1 0x0 REVERT JUMPDEST POP POP POP POP PUSH1 0x40 MLOAD RETURNDATASIZE PUSH1 0x1F NOT PUSH1 0x1F DUP3 ADD AND DUP3 ADD DUP1 PUSH1 0x40 MSTORE POP DUP2 ADD SWAP1 PUSH2 0x1922 SWAP2 SWAP1 PUSH2 0x224B JUMP JUMPDEST POP POP CALLER PUSH1 0x0 SWAP1 DUP2 MSTORE PUSH1 0x3 PUSH1 0x20 SWAP1 DUP2 MSTORE PUSH1 0x40 DUP1 DUP4 KECCAK256 DUP4 SWAP1 SSTORE PUSH1 0x2 SWAP1 SWAP2 MSTORE SWAP1 KECCAK256 TIMESTAMP SWAP1 SSTORE POP JUMP JUMPDEST PUSH1 0x0 DUP1 PUSH1 0x16 PUSH1 0x0 SWAP1 SLOAD SWAP1 PUSH2 0x100 EXP SWAP1 DIV PUSH1 0x1 PUSH1 0x1 PUSH1 0xA0 SHL SUB AND PUSH1 0x1 PUSH1 0x1 PUSH1 0xA0 SHL SUB AND PUSH4 0xFEAF968C PUSH1 0x40 MLOAD DUP2 PUSH4 0xFFFFFFFF AND PUSH1 0xE0 SHL DUP2 MSTORE PUSH1 0x4 ADD PUSH1 0xA0 PUSH1 0x40 MLOAD DUP1 DUP4 SUB DUP2 DUP7 GAS STATICCALL ISZERO DUP1 ISZERO PUSH2 0x199C JUMPI RETURNDATASIZE PUSH1 0x0 DUP1 RETURNDATACOPY RETURNDATASIZE PUSH1 0x0 REVERT JUMPDEST POP POP POP POP PUSH1 0x40 MLOAD RETURNDATASIZE PUSH1 0x1F NOT PUSH1 0x1F DUP3 ADD AND DUP3 ADD DUP1 PUSH1 0x40 MSTORE POP DUP2 ADD SWAP1 PUSH2 0x19C0 SWAP2 SWAP1 PUSH2 0x2425 JUMP JUMPDEST POP POP POP SWAP2 POP POP DUP1 PUSH5 0x2540BE400 PUSH2 0x19D7 SWAP2 SWAP1 PUSH2 0x2475 JUMP JUMPDEST SWAP2 POP POP SWAP1 JUMP JUMPDEST PUSH1 0x0 SLOAD PUSH1 0x1 PUSH1 0x1 PUSH1 0xA0 SHL SUB AND CALLER EQ PUSH2 0x1A07 JUMPI PUSH1 0x40 MLOAD PUSH3 0x461BCD PUSH1 0xE5 SHL DUP2 MSTORE PUSH1 0x4 ADD PUSH2 0x837 SWAP1 PUSH2 0x22B5 JUMP JUMPDEST PUSH1 0x65 PUSH1 0x12 SLOAD GT ISZERO PUSH2 0x1A17 JUMPI PUSH1 0x0 DUP1 REVERT JUMPDEST PUSH1 0x65 DUP2 PUSH1 0x12 SLOAD PUSH2 0x1A27 SWAP2 SWAP1 PUSH2 0x226D JUMP JUMPDEST GT ISZERO PUSH2 0x1A32 JUMPI PUSH1 0x0 DUP1 REVERT JUMPDEST DUP1 PUSH1 0x12 SLOAD PUSH2 0x1A40 SWAP2 SWAP1 PUSH2 0x226D JUMP JUMPDEST PUSH1 0x12 SSTORE POP JUMP JUMPDEST PUSH1 0x1 PUSH1 0x1 PUSH1 0xA0 SHL SUB DUP2 AND PUSH1 0x0 SWAP1 DUP2 MSTORE PUSH1 0x4 PUSH1 0x20 MSTORE PUSH1 0x40 DUP2 KECCAK256 SLOAD DUP2 SWAP1 PUSH2 0x1AA1 JUMPI PUSH1 0x40 MLOAD PUSH3 0x461BCD PUSH1 0xE5 SHL DUP2 MSTORE PUSH1 0x20 PUSH1 0x4 DUP3 ADD MSTORE PUSH1 0x11 PUSH1 0x24 DUP3 ADD MSTORE PUSH17 0x4E6F20746F6B656E73207374616B656421 PUSH1 0x78 SHL PUSH1 0x44 DUP3 ADD MSTORE PUSH1 0x64 ADD PUSH2 0x837 JUMP JUMPDEST PUSH1 0x0 JUMPDEST PUSH1 0x8 SLOAD DUP2 LT ISZERO PUSH2 0x1AFD JUMPI PUSH2 0x1ADF DUP5 PUSH1 0x8 DUP4 DUP2 SLOAD DUP2 LT PUSH2 0x1AC5 JUMPI PUSH2 0x1AC5 PUSH2 0x23DA JUMP JUMPDEST PUSH1 0x0 SWAP2 DUP3 MSTORE PUSH1 0x20 SWAP1 SWAP2 KECCAK256 ADD SLOAD PUSH1 0x1 PUSH1 0x1 PUSH1 0xA0 SHL SUB AND PUSH2 0xC00 JUMP JUMPDEST PUSH2 0x1AE9 SWAP1 DUP4 PUSH2 0x226D JUMP JUMPDEST SWAP2 POP DUP1 PUSH2 0x1AF5 DUP2 PUSH2 0x23F0 JUMP JUMPDEST SWAP2 POP POP PUSH2 0x1AA4 JUMP JUMPDEST POP SWAP3 SWAP2 POP POP JUMP JUMPDEST PUSH1 0x0 DUP1 JUMPDEST PUSH1 0x15 SLOAD DUP2 LT ISZERO PUSH2 0x1B65 JUMPI DUP3 PUSH1 0x1 PUSH1 0x1 PUSH1 0xA0 SHL SUB AND PUSH1 0x15 DUP3 DUP2 SLOAD DUP2 LT PUSH2 0x1B2F JUMPI PUSH2 0x1B2F PUSH2 0x23DA JUMP JUMPDEST PUSH1 0x0 SWAP2 DUP3 MSTORE PUSH1 0x20 SWAP1 SWAP2 KECCAK256 ADD SLOAD PUSH1 0x1 PUSH1 0x1 PUSH1 0xA0 SHL SUB AND EQ ISZERO PUSH2 0x1B53 JUMPI POP PUSH1 0x1 SWAP3 SWAP2 POP POP JUMP JUMPDEST DUP1 PUSH2 0x1B5D DUP2 PUSH2 0x23F0 JUMP JUMPDEST SWAP2 POP POP PUSH2 0x1B08 JUMP JUMPDEST POP PUSH1 0x0 SWAP3 SWAP2 POP POP JUMP JUMPDEST PUSH1 0x1 PUSH1 0x1 PUSH1 0xA0 SHL SUB DUP2 AND PUSH1 0x0 SWAP1 DUP2 MSTORE PUSH1 0x1 PUSH1 0x20 SWAP1 DUP2 MSTORE PUSH1 0x40 DUP1 DUP4 KECCAK256 CALLER DUP5 MSTORE SWAP1 SWAP2 MSTORE SWAP1 KECCAK256 SLOAD DUP1 PUSH2 0x1BDF JUMPI PUSH1 0x40 MLOAD PUSH3 0x461BCD PUSH1 0xE5 SHL DUP2 MSTORE PUSH1 0x20 PUSH1 0x4 DUP3 ADD MSTORE PUSH1 0x1B PUSH1 0x24 DUP3 ADD MSTORE PUSH32 0x5374616B696E672062616C616E63652063616E6E6F7420626520300000000000 PUSH1 0x44 DUP3 ADD MSTORE PUSH1 0x64 ADD PUSH2 0x837 JUMP JUMPDEST PUSH1 0x40 MLOAD PUSH4 0xA9059CBB PUSH1 0xE0 SHL DUP2 MSTORE CALLER PUSH1 0x4 DUP3 ADD MSTORE PUSH1 0x24 DUP2 ADD DUP3 SWAP1 MSTORE PUSH1 0x1 PUSH1 0x1 PUSH1 0xA0 SHL SUB DUP4 AND SWAP1 PUSH4 0xA9059CBB SWAP1 PUSH1 0x44 ADD PUSH1 0x20 PUSH1 0x40 MLOAD DUP1 DUP4 SUB DUP2 PUSH1 0x0 DUP8 GAS CALL ISZERO DUP1 ISZERO PUSH2 0x1C2C JUMPI RETURNDATASIZE PUSH1 0x0 DUP1 RETURNDATACOPY RETURNDATASIZE PUSH1 0x0 REVERT JUMPDEST POP POP POP POP PUSH1 0x40 MLOAD RETURNDATASIZE PUSH1 0x1F NOT PUSH1 0x1F DUP3 ADD AND DUP3 ADD DUP1 PUSH1 0x40 MSTORE POP DUP2 ADD SWAP1 PUSH2 0x1C50 SWAP2 SWAP1 PUSH2 0x224B JUMP JUMPDEST POP PUSH1 0x1 PUSH1 0x1 PUSH1 0xA0 SHL SUB DUP3 AND PUSH1 0x0 SWAP1 DUP2 MSTORE PUSH1 0x1 PUSH1 0x20 DUP2 DUP2 MSTORE PUSH1 0x40 DUP1 DUP5 KECCAK256 CALLER DUP6 MSTORE DUP3 MSTORE DUP1 DUP5 KECCAK256 DUP5 SWAP1 SSTORE PUSH1 0x4 SWAP1 SWAP2 MSTORE SWAP1 SWAP2 KECCAK256 SLOAD PUSH2 0x1C8A SWAP2 SWAP1 PUSH2 0x229E JUMP JUMPDEST CALLER PUSH1 0x0 SWAP1 DUP2 MSTORE PUSH1 0x4 PUSH1 0x20 MSTORE PUSH1 0x40 SWAP1 KECCAK256 SSTORE POP POP JUMP JUMPDEST PUSH1 0x0 SLOAD PUSH1 0x1 PUSH1 0x1 PUSH1 0xA0 SHL SUB AND CALLER EQ PUSH2 0x1CC8 JUMPI PUSH1 0x40 MLOAD PUSH3 0x461BCD PUSH1 0xE5 SHL DUP2 MSTORE PUSH1 0x4 ADD PUSH2 0x837 SWAP1 PUSH2 0x22B5 JUMP JUMPDEST PUSH1 0x40 MLOAD PUSH4 0xA9059CBB PUSH1 0xE0 SHL DUP2 MSTORE CALLER PUSH1 0x4 DUP3 ADD MSTORE PUSH1 0x24 DUP2 ADD DUP3 SWAP1 MSTORE PUSH1 0x1 PUSH1 0x1 PUSH1 0xA0 SHL SUB DUP4 AND SWAP1 PUSH4 0xA9059CBB SWAP1 PUSH1 0x44 ADD PUSH2 0x1454 JUMP JUMPDEST PUSH1 0x6 DUP2 DUP2 SLOAD DUP2 LT PUSH2 0xC97 JUMPI PUSH1 0x0 DUP1 REVERT JUMPDEST PUSH1 0x0 DUP1 JUMPDEST PUSH1 0x8 SLOAD DUP2 LT ISZERO PUSH2 0x1B65 JUMPI DUP3 PUSH1 0x1 PUSH1 0x1 PUSH1 0xA0 SHL SUB AND PUSH1 0x8 DUP3 DUP2 SLOAD DUP2 LT PUSH2 0x1D36 JUMPI PUSH2 0x1D36 PUSH2 0x23DA JUMP JUMPDEST PUSH1 0x0 SWAP2 DUP3 MSTORE PUSH1 0x20 SWAP1 SWAP2 KECCAK256 ADD SLOAD PUSH1 0x1 PUSH1 0x1 PUSH1 0xA0 SHL SUB AND EQ ISZERO PUSH2 0x1D5A JUMPI POP PUSH1 0x1 SWAP3 SWAP2 POP POP JUMP JUMPDEST DUP1 PUSH2 0x1D64 DUP2 PUSH2 0x23F0 JUMP JUMPDEST SWAP2 POP POP PUSH2 0x1D0F JUMP JUMPDEST PUSH1 0x0 DUP1 SLOAD PUSH1 0x1 PUSH1 0x1 PUSH1 0xA0 SHL SUB AND CALLER EQ PUSH2 0x1D97 JUMPI PUSH1 0x40 MLOAD PUSH3 0x461BCD PUSH1 0xE5 SHL DUP2 MSTORE PUSH1 0x4 ADD PUSH2 0x837 SWAP1 PUSH2 0x22B5 JUMP JUMPDEST PUSH1 0x40 MLOAD PUSH4 0x70A08231 PUSH1 0xE0 SHL DUP2 MSTORE ADDRESS PUSH1 0x4 DUP3 ADD MSTORE PUSH1 0x1 PUSH1 0x1 PUSH1 0xA0 SHL SUB DUP4 AND SWAP1 PUSH4 0x70A08231 SWAP1 PUSH1 0x24 ADD PUSH1 0x20 PUSH1 0x40 MLOAD DUP1 DUP4 SUB DUP2 DUP7 GAS STATICCALL ISZERO DUP1 ISZERO PUSH2 0x1DDB JUMPI RETURNDATASIZE PUSH1 0x0 DUP1 RETURNDATACOPY RETURNDATASIZE PUSH1 0x0 REVERT JUMPDEST POP POP POP POP PUSH1 0x40 MLOAD RETURNDATASIZE PUSH1 0x1F NOT PUSH1 0x1F DUP3 ADD AND DUP3 ADD DUP1 PUSH1 0x40 MSTORE POP DUP2 ADD SWAP1 PUSH2 0x1DFF SWAP2 SWAP1 PUSH2 0x2285 JUMP JUMPDEST PUSH1 0x18 DUP2 SWAP1 SSTORE SWAP1 POP JUMPDEST SWAP2 SWAP1 POP JUMP JUMPDEST PUSH1 0x14 DUP2 DUP2 SLOAD DUP2 LT PUSH2 0xC97 JUMPI PUSH1 0x0 DUP1 REVERT JUMPDEST PUSH1 0x1 PUSH1 0x1 PUSH1 0xA0 SHL SUB DUP1 DUP3 AND PUSH1 0x0 SWAP1 DUP2 MSTORE PUSH1 0x5 PUSH1 0x20 MSTORE PUSH1 0x40 DUP1 DUP3 KECCAK256 SLOAD DUP2 MLOAD PUSH4 0x3FABE5A3 PUSH1 0xE2 SHL DUP2 MSTORE SWAP2 MLOAD SWAP3 SWAP4 DUP5 SWAP4 SWAP2 AND SWAP2 DUP3 SWAP2 DUP5 SWAP2 DUP4 SWAP2 PUSH4 0xFEAF968C SWAP2 PUSH1 0x4 DUP1 DUP3 ADD SWAP3 PUSH1 0xA0 SWAP3 SWAP1 SWAP2 SWAP1 DUP3 SWAP1 SUB ADD DUP2 DUP7 GAS STATICCALL ISZERO DUP1 ISZERO PUSH2 0x1E7D JUMPI RETURNDATASIZE PUSH1 0x0 DUP1 RETURNDATACOPY RETURNDATASIZE PUSH1 0x0 REVERT JUMPDEST POP POP POP POP PUSH1 0x40 MLOAD RETURNDATASIZE PUSH1 0x1F NOT PUSH1 0x1F DUP3 ADD AND DUP3 ADD DUP1 PUSH1 0x40 MSTORE POP DUP2 ADD SWAP1 PUSH2 0x1EA1 SWAP2 SWAP1 PUSH2 0x2425 JUMP JUMPDEST POP POP POP SWAP2 POP POP PUSH1 0x0 DUP3 PUSH1 0x1 PUSH1 0x1 PUSH1 0xA0 SHL SUB AND PUSH4 0x313CE567 PUSH1 0x40 MLOAD DUP2 PUSH4 0xFFFFFFFF AND PUSH1 0xE0 SHL DUP2 MSTORE PUSH1 0x4 ADD PUSH1 0x20 PUSH1 0x40 MLOAD DUP1 DUP4 SUB DUP2 DUP7 GAS STATICCALL ISZERO DUP1 ISZERO PUSH2 0x1EE7 JUMPI RETURNDATASIZE PUSH1 0x0 DUP1 RETURNDATACOPY RETURNDATASIZE PUSH1 0x0 REVERT JUMPDEST POP POP POP POP PUSH1 0x40 MLOAD RETURNDATASIZE PUSH1 0x1F NOT PUSH1 0x1F DUP3 ADD AND DUP3 ADD DUP1 PUSH1 0x40 MSTORE POP DUP2 ADD SWAP1 PUSH2 0x1F0B SWAP2 SWAP1 PUSH2 0x24FA JUMP JUMPDEST SWAP2 SWAP8 PUSH1 0xFF SWAP1 SWAP3 AND SWAP7 POP SWAP1 SWAP5 POP POP POP POP POP JUMP JUMPDEST PUSH1 0x0 SLOAD PUSH1 0x1 PUSH1 0x1 PUSH1 0xA0 SHL SUB AND CALLER EQ PUSH2 0x1F47 JUMPI PUSH1 0x40 MLOAD PUSH3 0x461BCD PUSH1 0xE5 SHL DUP2 MSTORE PUSH1 0x4 ADD PUSH2 0x837 SWAP1 PUSH2 0x22B5 JUMP JUMPDEST PUSH1 0x1 PUSH1 0x1 PUSH1 0xA0 SHL SUB DUP2 AND PUSH2 0x1FAC JUMPI PUSH1 0x40 MLOAD PUSH3 0x461BCD PUSH1 0xE5 SHL DUP2 MSTORE PUSH1 0x20 PUSH1 0x4 DUP3 ADD MSTORE PUSH1 0x26 PUSH1 0x24 DUP3 ADD MSTORE PUSH32 0x4F776E61626C653A206E6577206F776E657220697320746865207A65726F2061 PUSH1 0x44 DUP3 ADD MSTORE PUSH6 0x646472657373 PUSH1 0xD0 SHL PUSH1 0x64 DUP3 ADD MSTORE PUSH1 0x84 ADD PUSH2 0x837 JUMP JUMPDEST PUSH2 0x131C DUP2 PUSH2 0x209B JUMP JUMPDEST PUSH1 0x7 DUP2 DUP2 SLOAD DUP2 LT PUSH2 0xC97 JUMPI PUSH1 0x0 DUP1 REVERT JUMPDEST PUSH1 0x1 PUSH1 0x1 PUSH1 0xA0 SHL SUB DUP1 DUP3 AND PUSH1 0x0 SWAP1 DUP2 MSTORE PUSH1 0x1 PUSH1 0x20 SWAP1 DUP2 MSTORE PUSH1 0x40 DUP1 DUP4 KECCAK256 SWAP4 DUP7 AND DUP4 MSTORE SWAP3 SWAP1 MSTORE KECCAK256 SLOAD PUSH2 0x9EA JUMPI PUSH1 0x1 PUSH1 0x1 PUSH1 0xA0 SHL SUB DUP3 AND PUSH1 0x0 SWAP1 DUP2 MSTORE PUSH1 0x4 PUSH1 0x20 MSTORE PUSH1 0x40 SWAP1 KECCAK256 SLOAD PUSH2 0x2013 SWAP1 PUSH1 0x1 PUSH2 0x226D JUMP JUMPDEST PUSH1 0x1 PUSH1 0x1 PUSH1 0xA0 SHL SUB DUP4 AND PUSH1 0x0 SWAP1 DUP2 MSTORE PUSH1 0x4 PUSH1 0x20 MSTORE PUSH1 0x40 SWAP1 KECCAK256 SSTORE POP POP JUMP JUMPDEST PUSH1 0x1 PUSH1 0x1 PUSH1 0xA0 SHL SUB DUP1 DUP3 AND PUSH1 0x0 SWAP1 DUP2 MSTORE PUSH1 0xB PUSH1 0x20 SWAP1 DUP2 MSTORE PUSH1 0x40 DUP1 DUP4 KECCAK256 SWAP4 DUP7 AND DUP4 MSTORE SWAP3 SWAP1 MSTORE KECCAK256 SLOAD PUSH2 0x9EA JUMPI PUSH1 0x1 PUSH1 0x1 PUSH1 0xA0 SHL SUB DUP3 AND PUSH1 0x0 SWAP1 DUP2 MSTORE PUSH1 0x17 PUSH1 0x20 MSTORE PUSH1 0x40 SWAP1 KECCAK256 SLOAD PUSH2 0x207E SWAP1 PUSH1 0x1 PUSH2 0x226D JUMP JUMPDEST PUSH1 0x1 PUSH1 0x1 PUSH1 0xA0 SHL SUB DUP4 AND PUSH1 0x0 SWAP1 DUP2 MSTORE PUSH1 0x17 PUSH1 0x20 MSTORE PUSH1 0x40 SWAP1 KECCAK256 SSTORE POP POP JUMP JUMPDEST PUSH1 0x0 DUP1 SLOAD PUSH1 0x1 PUSH1 0x1 PUSH1 0xA0 SHL SUB DUP4 DUP2 AND PUSH1 0x1 PUSH1 0x1 PUSH1 0xA0 SHL SUB NOT DUP4 AND DUP2 OR DUP5 SSTORE PUSH1 0x40 MLOAD SWAP2 SWAP1 SWAP3 AND SWAP3 DUP4 SWAP2 PUSH32 0x8BE0079C531659141344CD1FD0A4F28419497F9722A3DAAFE3B4186F6B6457E0 SWAP2 SWAP1 LOG3 POP POP JUMP JUMPDEST DUP1 CALLDATALOAD PUSH1 0x1 PUSH1 0x1 PUSH1 0xA0 SHL SUB DUP2 AND DUP2 EQ PUSH2 0x1E07 JUMPI PUSH1 0x0 DUP1 REVERT JUMPDEST PUSH1 0x0 DUP1 PUSH1 0x40 DUP4 DUP6 SUB SLT ISZERO PUSH2 0x2115 JUMPI PUSH1 0x0 DUP1 REVERT JUMPDEST DUP3 CALLDATALOAD SWAP2 POP PUSH2 0x2125 PUSH1 0x20 DUP5 ADD PUSH2 0x20EB JUMP JUMPDEST SWAP1 POP SWAP3 POP SWAP3 SWAP1 POP JUMP JUMPDEST PUSH1 0x0 PUSH1 0x20 DUP3 DUP5 SUB SLT ISZERO PUSH2 0x2140 JUMPI PUSH1 0x0 DUP1 REVERT JUMPDEST PUSH2 0x2149 DUP3 PUSH2 0x20EB JUMP JUMPDEST SWAP4 SWAP3 POP POP POP JUMP JUMPDEST PUSH1 0x0 DUP1 PUSH1 0x40 DUP4 DUP6 SUB SLT ISZERO PUSH2 0x2163 JUMPI PUSH1 0x0 DUP1 REVERT JUMPDEST PUSH2 0x216C DUP4 PUSH2 0x20EB JUMP JUMPDEST SWAP2 POP PUSH2 0x2125 PUSH1 0x20 DUP5 ADD PUSH2 0x20EB JUMP JUMPDEST PUSH1 0x0 PUSH1 0x20 DUP3 DUP5 SUB SLT ISZERO PUSH2 0x218C JUMPI PUSH1 0x0 DUP1 REVERT JUMPDEST POP CALLDATALOAD SWAP2 SWAP1 POP JUMP JUMPDEST PUSH1 0x0 DUP1 PUSH1 0x40 DUP4 DUP6 SUB SLT ISZERO PUSH2 0x21A6 JUMPI PUSH1 0x0 DUP1 REVERT JUMPDEST PUSH2 0x21AF DUP4 PUSH2 0x20EB JUMP JUMPDEST SWAP5 PUSH1 0x20 SWAP4 SWAP1 SWAP4 ADD CALLDATALOAD SWAP4 POP POP POP JUMP JUMPDEST PUSH4 0x4E487B71 PUSH1 0xE0 SHL PUSH1 0x0 MSTORE PUSH1 0x11 PUSH1 0x4 MSTORE PUSH1 0x24 PUSH1 0x0 REVERT JUMPDEST PUSH1 0x0 DUP2 PUSH1 0x0 NOT DIV DUP4 GT DUP3 ISZERO ISZERO AND ISZERO PUSH2 0x21ED JUMPI PUSH2 0x21ED PUSH2 0x21BD JUMP JUMPDEST POP MUL SWAP1 JUMP JUMPDEST PUSH1 0x0 DUP3 PUSH2 0x220F JUMPI PUSH4 0x4E487B71 PUSH1 0xE0 SHL PUSH1 0x0 MSTORE PUSH1 0x12 PUSH1 0x4 MSTORE PUSH1 0x24 PUSH1 0x0 REVERT JUMPDEST POP DIV SWAP1 JUMP JUMPDEST PUSH1 0x20 DUP1 DUP3 MSTORE PUSH1 0x1A SWAP1 DUP3 ADD MSTORE PUSH32 0x416D6F756E74206D757374206265206D6F7265207468616E2030000000000000 PUSH1 0x40 DUP3 ADD MSTORE PUSH1 0x60 ADD SWAP1 JUMP JUMPDEST PUSH1 0x0 PUSH1 0x20 DUP3 DUP5 SUB SLT ISZERO PUSH2 0x225D JUMPI PUSH1 0x0 DUP1 REVERT JUMPDEST DUP2 MLOAD DUP1 ISZERO ISZERO DUP2 EQ PUSH2 0x2149 JUMPI PUSH1 0x0 DUP1 REVERT JUMPDEST PUSH1 0x0 DUP3 NOT DUP3 GT ISZERO PUSH2 0x2280 JUMPI PUSH2 0x2280 PUSH2 0x21BD JUMP JUMPDEST POP ADD SWAP1 JUMP JUMPDEST PUSH1 0x0 PUSH1 0x20 DUP3 DUP5 SUB SLT ISZERO PUSH2 0x2297 JUMPI PUSH1 0x0 DUP1 REVERT JUMPDEST POP MLOAD SWAP2 SWAP1 POP JUMP JUMPDEST PUSH1 0x0 DUP3 DUP3 LT ISZERO PUSH2 0x22B0 JUMPI PUSH2 0x22B0 PUSH2 0x21BD JUMP JUMPDEST POP SUB SWAP1 JUMP JUMPDEST PUSH1 0x20 DUP1 DUP3 MSTORE DUP2 DUP2 ADD MSTORE PUSH32 0x4F776E61626C653A2063616C6C6572206973206E6F7420746865206F776E6572 PUSH1 0x40 DUP3 ADD MSTORE PUSH1 0x60 ADD SWAP1 JUMP JUMPDEST PUSH1 0x1 DUP2 DUP2 JUMPDEST DUP1 DUP6 GT ISZERO PUSH2 0x2325 JUMPI DUP2 PUSH1 0x0 NOT DIV DUP3 GT ISZERO PUSH2 0x230B JUMPI PUSH2 0x230B PUSH2 0x21BD JUMP JUMPDEST DUP1 DUP6 AND ISZERO PUSH2 0x2318 JUMPI SWAP2 DUP2 MUL SWAP2 JUMPDEST SWAP4 DUP5 SHR SWAP4 SWAP1 DUP1 MUL SWAP1 PUSH2 0x22EF JUMP JUMPDEST POP SWAP3 POP SWAP3 SWAP1 POP JUMP JUMPDEST PUSH1 0x0 DUP3 PUSH2 0x233C JUMPI POP PUSH1 0x1 PUSH2 0xC81 JUMP JUMPDEST DUP2 PUSH2 0x2349 JUMPI POP PUSH1 0x0 PUSH2 0xC81 JUMP JUMPDEST DUP2 PUSH1 0x1 DUP2 EQ PUSH2 0x235F JUMPI PUSH1 0x2 DUP2 EQ PUSH2 0x2369 JUMPI PUSH2 0x2385 JUMP JUMPDEST PUSH1 0x1 SWAP2 POP POP PUSH2 0xC81 JUMP JUMPDEST PUSH1 0xFF DUP5 GT ISZERO PUSH2 0x237A JUMPI PUSH2 0x237A PUSH2 0x21BD JUMP JUMPDEST POP POP PUSH1 0x1 DUP3 SHL PUSH2 0xC81 JUMP JUMPDEST POP PUSH1 0x20 DUP4 LT PUSH2 0x133 DUP4 LT AND PUSH1 0x4E DUP5 LT PUSH1 0xB DUP5 LT AND OR ISZERO PUSH2 0x23A8 JUMPI POP DUP2 DUP2 EXP PUSH2 0xC81 JUMP JUMPDEST PUSH2 0x23B2 DUP4 DUP4 PUSH2 0x22EA JUMP JUMPDEST DUP1 PUSH1 0x0 NOT DIV DUP3 GT ISZERO PUSH2 0x23C6 JUMPI PUSH2 0x23C6 PUSH2 0x21BD JUMP JUMPDEST MUL SWAP4 SWAP3 POP POP POP JUMP JUMPDEST PUSH1 0x0 PUSH2 0x2149 DUP4 DUP4 PUSH2 0x232D JUMP JUMPDEST PUSH4 0x4E487B71 PUSH1 0xE0 SHL PUSH1 0x0 MSTORE PUSH1 0x32 PUSH1 0x4 MSTORE PUSH1 0x24 PUSH1 0x0 REVERT JUMPDEST PUSH1 0x0 PUSH1 0x0 NOT DUP3 EQ ISZERO PUSH2 0x2404 JUMPI PUSH2 0x2404 PUSH2 0x21BD JUMP JUMPDEST POP PUSH1 0x1 ADD SWAP1 JUMP JUMPDEST DUP1 MLOAD PUSH10 0xFFFFFFFFFFFFFFFFFFFF DUP2 AND DUP2 EQ PUSH2 0x1E07 JUMPI PUSH1 0x0 DUP1 REVERT JUMPDEST PUSH1 0x0 DUP1 PUSH1 0x0 DUP1 PUSH1 0x0 PUSH1 0xA0 DUP7 DUP9 SUB SLT ISZERO PUSH2 0x243D JUMPI PUSH1 0x0 DUP1 REVERT JUMPDEST PUSH2 0x2446 DUP7 PUSH2 0x240B JUMP JUMPDEST SWAP5 POP PUSH1 0x20 DUP7 ADD MLOAD SWAP4 POP PUSH1 0x40 DUP7 ADD MLOAD SWAP3 POP PUSH1 0x60 DUP7 ADD MLOAD SWAP2 POP PUSH2 0x2469 PUSH1 0x80 DUP8 ADD PUSH2 0x240B JUMP JUMPDEST SWAP1 POP SWAP3 SWAP6 POP SWAP3 SWAP6 SWAP1 SWAP4 POP JUMP JUMPDEST PUSH1 0x0 PUSH1 0x1 PUSH1 0x1 PUSH1 0xFF SHL SUB DUP2 DUP5 SGT DUP3 DUP5 SGT DUP1 DUP3 AND DUP7 DUP5 DIV DUP7 GT AND ISZERO PUSH2 0x249B JUMPI PUSH2 0x249B PUSH2 0x21BD JUMP JUMPDEST PUSH1 0x1 PUSH1 0xFF SHL PUSH1 0x0 DUP8 SLT DUP3 DUP2 AND DUP8 DUP4 SDIV DUP10 SLT AND ISZERO PUSH2 0x24BA JUMPI PUSH2 0x24BA PUSH2 0x21BD JUMP JUMPDEST PUSH1 0x0 DUP8 SLT SWAP3 POP DUP8 DUP3 SDIV DUP8 SLT DUP5 DUP5 AND AND ISZERO PUSH2 0x24D6 JUMPI PUSH2 0x24D6 PUSH2 0x21BD JUMP JUMPDEST DUP8 DUP6 SDIV DUP8 SLT DUP2 DUP5 AND AND ISZERO PUSH2 0x24EC JUMPI PUSH2 0x24EC PUSH2 0x21BD JUMP JUMPDEST POP POP POP SWAP3 SWAP1 SWAP4 MUL SWAP4 SWAP3 POP POP POP JUMP JUMPDEST PUSH1 0x0 PUSH1 0x20 DUP3 DUP5 SUB SLT ISZERO PUSH2 0x250C JUMPI PUSH1 0x0 DUP1 REVERT JUMPDEST DUP2 MLOAD PUSH1 0xFF DUP2 AND DUP2 EQ PUSH2 0x2149 JUMPI PUSH1 0x0 DUP1 REVERT INVALID LOG2 PUSH5 0x6970667358 0x22 SLT KECCAK256 0xD4 DUP8 0x2E GASPRICE JUMPDEST PUSH28 0xEB1041C50FC40A390B9ADCA2B2805994164677B03E28DF18ED8E6473 PUSH16 0x6C634300080B00330000000000000000 ","sha1":"5b9ca5ebd3db675539ea6775ff3c65f2c1020fcc","source":"// SPDX-License-Identifier: MIT\npragma solidity ^0.8.0;\n\nimport \"@openzeppelin/contracts/access/Ownable.sol\";\nimport \"@openzeppelin/contracts/token/ERC20/IERC20.sol\";\nimport \"@openzeppelin/contracts/utils/math/SafeMath.sol\";\nimport \"@chainlink/contracts/src/v0.8/interfaces/AggregatorV3Interface.sol\";\n\ncontract TokenFarm is Ownable {\n    using SafeMath for uint256;\n\n    // mapping token address -> staker address -> amount\n    mapping(address => mapping(address => uint256)) public stakingBalance;\n    mapping(address => uint256) stakingTimeStamp;\n    mapping(address => uint256) stakingRewards;\n\n    mapping(address => uint256) public uniqueTokensStaked;\n    mapping(address => address) public tokenPriceFeedMapping;\n    address[] public funders;\n\n    address[] public stakers;\n    address[] public allowedTokens;\n    IERC20 public dappToken;\n    IERC20 public preSaleTokenAddress;\n\n    // --------------------------------\n    // pre-sale amount Balance\n    // address public owner;\n    mapping(address => mapping(address => uint256)) public purchasedBalance;\n    mapping(address => uint256) public collectedPreSaleFunds;\n    mapping(address => uint256) public totalCollectionOfPreSaleFunds;\n    uint256 public totalCollectionOfPreSaleFundsAllTokens;\n\n    mapping(address => uint256) public totalPurchasedPreSaleTokens;\n    uint256 private TIMES;\n    // mapping(address => mapping(address => uint256))\n    //     public preSaleTokensAvailableToWithdraw;\n\n    mapping(address => uint256) public totalWithdrawnPreSaleTokens;\n\n    uint256 public percentageWithdrawAllowed;\n\n    // mapping(address => mapping(address => uint256))\n    //     public preSaleTokensLeftToWithdraw;\n\n    mapping(address => uint256) public addressToAmountFunded;\n    address[] public preSaleFunders;\n    address[] public preSaleAllowedTokens;\n    AggregatorV3Interface public priceFeedA;\n    mapping(address => uint256) public uniquePreSaleTokensStaked;\n    uint256 public singleTokenAllPreSaleBalance;\n\n    // -------------------------------\n    //    address[] public receivingAllowedTokens;\n\n    // stakeTokens - DONE!\n    // unStakeTokens - DONE\n    // issueTokens - DONE!\n    // addAllowedTokens - DONE!\n    // getEthValue - DONE!\n\n    // 100 ETH 1:1 for every 1 ETH, we give 1 DappToken\n    // 50 ETH and 50 DAI staked, and we want to give a reward of 1 DAPP / 1 DAI\n    constructor(address _dappTokenAddress, address _priceFeed) public {\n        dappToken = IERC20(_dappTokenAddress);\n        // owner = msg.sender;\n        priceFeedA = AggregatorV3Interface(_priceFeed);\n    }\n\n    function getVersion() public view returns (uint256) {\n        return priceFeedA.version();\n    }\n\n    function addPreSaleAllowedTokens(address _token) public onlyOwner {\n        preSaleAllowedTokens.push(_token);\n    }\n\n    function updateTimes(uint256 _times) public onlyOwner {\n        TIMES = _times;\n    }\n\n    function updatePreSaleTokenAddress(address _preSaleTokenAddress)\n        public\n        onlyOwner\n    {\n        preSaleTokenAddress = IERC20(_preSaleTokenAddress);\n    }\n\n    function preSaleFund(uint256 _amount, address _token) public {\n        // uint256 minimumUSD = 1 * (10**18);\n        // require(\n        //     getConversionRate(_amount) >= minimumUSD,\n        //     \"You need to spend more Eth!\"\n        // );\n        require(_amount > 0, \"Amount must be more than 0\");\n        require(\n            preSaleTokenIsAllowed(_token),\n            \"Token is currently not allowed\"\n        );\n        IERC20(_token).transferFrom(msg.sender, address(this), _amount);\n        singleTokenAllPreSaleBalance =\n            (IERC20(_token).balanceOf(address(this))) /\n            1000000000000000000;\n\n        updateUniquePreSaleTokensStaked(msg.sender, _token);\n        purchasedBalance[_token][msg.sender] =\n            purchasedBalance[_token][msg.sender] +\n            _amount;\n        totalPurchasedPreSaleTokens[msg.sender] =\n            totalPurchasedPreSaleTokens[msg.sender] +\n            (_amount * TIMES);\n\n        collectedPreSaleFunds[_token] = collectedPreSaleFunds[_token] + _amount;\n        totalCollectionOfPreSaleFunds[_token] =\n            totalCollectionOfPreSaleFunds[_token] +\n            _amount;\n        totalCollectionOfPreSaleFundsAllTokens =\n            totalCollectionOfPreSaleFundsAllTokens +\n            _amount;\n\n        if (uniquePreSaleTokensStaked[msg.sender] == 1) {\n            preSaleFunders.push(msg.sender);\n        }\n\n        // addressToAmountFunded[msg.sender] += msg.value;\n        // preSaleFunders.push(msg.sender);\n    }\n\n    function getSingleTokenAllPreSaleBalance(address _token)\n        public\n        onlyOwner\n        returns (uint256)\n    {\n        singleTokenAllPreSaleBalance = IERC20(_token).balanceOf(address(this));\n        return singleTokenAllPreSaleBalance;\n    }\n\n    function claimAllPreSaletokens() public {\n        uint256 totalPurchased = totalPurchasedPreSaleTokens[msg.sender];\n        uint256 totalWithdrawn = totalWithdrawnPreSaleTokens[msg.sender];\n        uint256 balance = (totalPurchased - totalWithdrawn);\n        uint256 allowedToWithdraw = (percentageWithdrawAllowed *\n            totalPurchased) / 100;\n        uint256 availableToWithdraw = (allowedToWithdraw - totalWithdrawn);\n\n        require(totalPurchased > 0);\n        require(availableToWithdraw > 0);\n        require(totalWithdrawn < totalPurchased);\n\n        IERC20(preSaleTokenAddress).transfer(msg.sender, availableToWithdraw);\n        totalWithdrawnPreSaleTokens[msg.sender] =\n            totalWithdrawnPreSaleTokens[msg.sender] +\n            availableToWithdraw;\n    }\n\n    function claimPreSaleTokens(uint256 _amount) public {\n        uint256 totalPurchased = totalPurchasedPreSaleTokens[msg.sender];\n        uint256 totalWithdrawn = totalWithdrawnPreSaleTokens[msg.sender];\n        uint256 balance = (totalPurchased - totalWithdrawn);\n        uint256 allowedToWithdraw = (percentageWithdrawAllowed *\n            totalPurchased) / 100;\n        uint256 availableToWithdraw = (allowedToWithdraw - totalWithdrawn);\n\n        require(availableToWithdraw > 0);\n        require(_amount <= availableToWithdraw);\n        require(totalWithdrawn < totalPurchased);\n        require(_amount > 0, \"Amount must be more than 0\");\n        require(\n            balance >= _amount,\n            \"You don't have enough purchased tokens left!\"\n        );\n        require((totalWithdrawn + _amount) < totalPurchased);\n\n        IERC20(preSaleTokenAddress).transfer(msg.sender, _amount);\n        totalWithdrawnPreSaleTokens[msg.sender] =\n            totalWithdrawnPreSaleTokens[msg.sender] +\n            _amount;\n\n        // Removing: preSaleTokensAvailableToWithdraw is a changing value when\n        // we update the percentageWithdrawAllowed it will change\n\n        // preSaleTokensAvailableToWithdraw[_token][msg.sender] =\n        //     availableToWithdraw -\n        //     _amount;\n    }\n\n    function issuePreSaleTokensToWithdrawPercentage(uint256 _percentageAmount)\n        public\n        onlyOwner\n    {\n        require(percentageWithdrawAllowed <= 101);\n        require((percentageWithdrawAllowed + _percentageAmount) <= 101);\n        percentageWithdrawAllowed =\n            percentageWithdrawAllowed +\n            _percentageAmount;\n    }\n\n    function getAvailablePreSaleTokensToWithdraw(\n        address _token,\n        address _sender\n    ) public view returns (uint256) {\n        uint256 totalPurchased = totalPurchasedPreSaleTokens[_sender];\n        uint256 totalWithdrawn = totalWithdrawnPreSaleTokens[_sender];\n        // uint256 balance = (totalPurchased - totalWithdrawn);\n        uint256 allowedToWithdraw = (percentageWithdrawAllowed *\n            totalPurchased) / 100;\n        uint256 availableToWithdraw = (allowedToWithdraw - totalWithdrawn);\n\n        // preSaleTokensLeftToWithdraw[_token][msg.sender] = availableToWithdraw;\n        return availableToWithdraw;\n    }\n\n    function withdrawPreSaleCollectedFund(address _token) public onlyOwner {\n        // uint256 balance = purchasedBalance[_token][msg.sender];\n        // uint256 balance = (IERC20(_token).balanceOf(address(this)));\n        uint256 collectedFunds = collectedPreSaleFunds[_token];\n        // require(balance > 0, \"Staking balance cannot be 0\");\n        IERC20(_token).transfer(msg.sender, collectedFunds);\n        singleTokenAllPreSaleBalance =\n            (IERC20(_token).balanceOf(address(this))) /\n            1000000000000000000;\n\n        collectedPreSaleFunds[_token] = 0;\n    }\n\n    function manageWithdrawOwnerFunds(address _token, uint256 _amount)\n        public\n        onlyOwner\n    {\n        IERC20(_token).transfer(msg.sender, _amount);\n    }\n\n    function manageDepositOwnerFunds(address _token, uint256 _amount)\n        public\n        onlyOwner\n    {\n        IERC20(_token).transferFrom(msg.sender, address(this), _amount);\n    }\n\n    // function stakeTokens(uint256 _amount, address _token) public {\n    //     // what tokens can they stake?\n    //     // how much can they stake?\n    //     require(_amount > 0, \"Amount must be more than 0\");\n    //     require(tokenIsAllowed(_token), \"Token is currently not allowed\");\n    //     // transferFrom\n    //     IERC20(_token).transferFrom(msg.sender, address(this), _amount);\n    //     updateUniqueTokensStaked(msg.sender, _token);\n    //     stakingBalance[_token][msg.sender] =\n    //         stakingBalance[_token][msg.sender] +\n    //         _amount;\n    //     if (uniqueTokensStaked[msg.sender] == 1) {\n    //         stakers.push(msg.sender);\n    //     }\n    // }\n\n    function preSaleTokenIsAllowed(address _token) public returns (bool) {\n        for (\n            uint256 preSaleAllowedTokensIndex = 0;\n            preSaleAllowedTokensIndex < preSaleAllowedTokens.length;\n            preSaleAllowedTokensIndex++\n        ) {\n            if (preSaleAllowedTokens[preSaleAllowedTokensIndex] == _token) {\n                return true;\n            }\n        }\n        return false;\n    }\n\n    function getConversionRate(uint256 ethAmount)\n        public\n        view\n        returns (uint256)\n    {\n        // use function \"getTokenValue()\" instead of \"getPrice()\"\n\n        uint256 ethPrice = getPrice();\n        uint256 ethAmountInUsd = (ethPrice * ethAmount) / 1000000000000000000;\n        return ethAmountInUsd;\n    }\n\n    function getPrice() public view returns (uint256) {\n        (, int256 answer, , , ) = priceFeedA.latestRoundData();\n        return uint256(answer * 10000000000);\n    }\n\n    function getEntranceFee() public view returns (uint256) {\n        //minimumUSD\n        uint256 minimumUSD = 50 * 10**18;\n        uint256 price = getPrice();\n        uint256 precision = 1 * 10**18;\n        return (minimumUSD * precision) / price;\n    }\n\n    function updateUniquePreSaleTokensStaked(address _user, address _token)\n        internal\n    {\n        if (purchasedBalance[_token][_user] <= 0) {\n            uniquePreSaleTokensStaked[_user] =\n                uniquePreSaleTokensStaked[_user] +\n                1;\n        }\n    }\n\n    // --------------------------------------------\n\n    function setPriceFeedContract(address _token, address _priceFeed)\n        public\n        onlyOwner\n    {\n        tokenPriceFeedMapping[_token] = _priceFeed;\n    }\n\n    function issueTokens() public onlyOwner {\n        // Issue tokens to all stakers\n        for (\n            uint256 stakersIndex = 0;\n            stakersIndex < stakers.length;\n            stakersIndex++\n        ) {\n            address recipient = stakers[stakersIndex];\n            uint256 userTotalValue = getUserTotalValue(recipient);\n            // send them a token reward\n            // based on their total value locked\n            // dappToken.transfer(recipient, )\n            dappToken.transfer(recipient, userTotalValue);\n        }\n    }\n\n    function getUserTotalValue(address _user) public view returns (uint256) {\n        uint256 totalValue = 0;\n        require(uniqueTokensStaked[_user] > 0, \"No tokens staked!\");\n        for (\n            uint256 allowedTokensIndex = 0;\n            allowedTokensIndex < allowedTokens.length;\n            allowedTokensIndex++\n        ) {\n            totalValue =\n                totalValue +\n                getUserSingleTokenValue(\n                    _user,\n                    allowedTokens[allowedTokensIndex]\n                );\n        }\n        return totalValue;\n    }\n\n    function getUserSingleTokenValue(address _user, address _token)\n        public\n        view\n        returns (uint256)\n    {\n        // if staked 1 ETH -> $2000\n        // 2000 dapp token\n        // if staked 200 DAI -> $200\n        // 200 dapp token\n        if (uniqueTokensStaked[_user] <= 0) {\n            return 0;\n        }\n        // price of the  token * stakingBalance[_token][_user]\n        (uint256 price, uint256 decimals) = getTokenValue(_token);\n        return // 10 ETH\n        // ETH/USD\n        ((stakingBalance[_token][_user] * price) / (10**decimals));\n    }\n\n    function getTokenValue(address _token)\n        public\n        view\n        returns (uint256, uint256)\n    {\n        // priceFeedAddress\n        address priceFeedAddress = tokenPriceFeedMapping[_token];\n        AggregatorV3Interface priceFeed = AggregatorV3Interface(\n            priceFeedAddress\n        );\n        (, int256 price, , , ) = priceFeed.latestRoundData();\n        uint256 decimals = uint256(priceFeed.decimals());\n        return (uint256(price), decimals);\n    }\n\n    function calculateStakingRewards(address _user, address _token)\n        public\n        view\n        returns (uint256)\n    {\n        uint256 API = 10;\n        uint256 userTimeStamp = stakingTimeStamp[_user];\n        uint256 currentTime = block.timestamp;\n        uint256 userStakingBalance = stakingBalance[_token][_user];\n\n        uint256 totalRewardsPerYear = (API * userStakingBalance) / 100;\n        uint256 totalRewardsPerMinute = totalRewardsPerYear / 525600;\n\n        uint256 stakedTimeInMinutes = ((currentTime - userTimeStamp) / 60);\n        uint256 rewards = stakedTimeInMinutes * totalRewardsPerMinute;\n\n        return rewards;\n    }\n\n    function getAvailableStakingRewards(address _sender, address _token)\n        public\n        view\n        returns (uint256)\n    {\n        uint256 totalRewards = (stakingRewards[_sender] +\n            calculateStakingRewards(_sender, _token));\n\n        return totalRewards;\n    }\n\n    function claimStakingRewards(address _token) public {\n        uint256 userTotalRewards = getAvailableStakingRewards(\n            msg.sender,\n            _token\n        );\n        require(userTotalRewards > 0);\n        IERC20(_token).transfer(msg.sender, userTotalRewards);\n        stakingRewards[msg.sender] = 0;\n        stakingTimeStamp[msg.sender] = block.timestamp;\n    }\n\n    function stakeTokens(uint256 _amount, address _token) public {\n        // what tokens can they stake?\n        // how much can they stake?\n        require(_amount > 0, \"Amount must be more than 0\");\n        require(tokenIsAllowed(_token), \"Token is currently not allowed\");\n        // transferFrom\n        IERC20(_token).transferFrom(msg.sender, address(this), _amount);\n        updateUniqueTokensStaked(msg.sender, _token);\n        stakingBalance[_token][msg.sender] =\n            stakingBalance[_token][msg.sender] +\n            _amount;\n\n        // stakingRewards[msg.sender] = (stakingRewards[msg.sender] +\n        //     calculateStakingRewards(msg.sender, _token));\n        stakingTimeStamp[msg.sender] = block.timestamp;\n\n        stakingRewards[msg.sender] = getAvailableStakingRewards(\n            msg.sender,\n            _token\n        );\n        if (uniqueTokensStaked[msg.sender] == 1) {\n            stakers.push(msg.sender);\n        }\n    }\n\n    function unstakeTokens(uint256 _amount, address _token) public {\n        uint256 balance = stakingBalance[_token][msg.sender];\n        require(_amount > 0, \"Amount must be more than 0\");\n        require(balance >= _amount, \"You don't have enough staked tokens\");\n        IERC20(_token).transfer(msg.sender, _amount);\n        stakingBalance[_token][msg.sender] = balance - _amount;\n        if (stakingBalance[_token][msg.sender] <= 0) {\n            uniqueTokensStaked[msg.sender] = uniqueTokensStaked[msg.sender] - 1;\n        }\n        // if (uniqueTokensStaked[msg.sender] == 0) {\n        //     for (\n        //         uint256 stakersIndex = 0;\n        //         stakersIndex < stakers.length;\n        //         stakersIndex++\n        //     ) {\n        //         address recipient = stakers[stakersIndex];\n        //         if (msg.sender == recipient) {\n        //             // stakers.splice(stakersIndex, 1); this part is not working\n        //         }\n        //     }\n        // }\n    }\n\n    function unstakeAllTokens(address _token) public {\n        uint256 balance = stakingBalance[_token][msg.sender];\n        require(balance > 0, \"Staking balance cannot be 0\");\n        IERC20(_token).transfer(msg.sender, balance);\n        stakingBalance[_token][msg.sender] = 0;\n        uniqueTokensStaked[msg.sender] = uniqueTokensStaked[msg.sender] - 1;\n    }\n\n    function updateUniqueTokensStaked(address _user, address _token) internal {\n        if (stakingBalance[_token][_user] <= 0) {\n            uniqueTokensStaked[_user] = uniqueTokensStaked[_user] + 1;\n        }\n    }\n\n    function addAllowedTokens(address _token) public onlyOwner {\n        allowedTokens.push(_token);\n    }\n\n    function tokenIsAllowed(address _token) public returns (bool) {\n        for (\n            uint256 allowedTokensIndex = 0;\n            allowedTokensIndex < allowedTokens.length;\n            allowedTokensIndex++\n        ) {\n            if (allowedTokens[allowedTokensIndex] == _token) {\n                return true;\n            }\n        }\n        return false;\n    }\n}\n","sourcePath":"contracts/TokenFarm.sol","deployment":{"address":"0x14ED36f7e59d3853358eCcf53716f4Abe1e82cd1","chainid":"42","blockHeight":30254346}}