{"abi":[{"inputs":[{"internalType":"address","name":"_dappTokenAddress","type":"address"},{"internalType":"address","name":"_priceFeed","type":"address"}],"stateMutability":"nonpayable","type":"constructor","name":"constructor"},{"anonymous":false,"inputs":[{"indexed":true,"internalType":"address","name":"previousOwner","type":"address"},{"indexed":true,"internalType":"address","name":"newOwner","type":"address"}],"name":"OwnershipTransferred","type":"event"},{"inputs":[],"name":"APY","outputs":[{"internalType":"uint256","name":"","type":"uint256"}],"stateMutability":"view","type":"function"},{"inputs":[{"internalType":"uint256","name":"","type":"uint256"}],"name":"TIMESeachPreSale","outputs":[{"internalType":"uint256","name":"","type":"uint256"}],"stateMutability":"view","type":"function"},{"inputs":[{"internalType":"address","name":"_token","type":"address"}],"name":"addAllowedTokens","outputs":[],"stateMutability":"nonpayable","type":"function"},{"inputs":[{"internalType":"address","name":"_token","type":"address"}],"name":"addPreSaleAllowedTokens","outputs":[],"stateMutability":"nonpayable","type":"function"},{"inputs":[{"internalType":"address","name":"","type":"address"}],"name":"addressToAmountFunded","outputs":[{"internalType":"uint256","name":"","type":"uint256"}],"stateMutability":"view","type":"function"},{"inputs":[{"internalType":"uint256","name":"","type":"uint256"}],"name":"allowedTokens","outputs":[{"internalType":"address","name":"","type":"address"}],"stateMutability":"view","type":"function"},{"inputs":[],"name":"amountPeopleLeftInWithdrawFees","outputs":[{"internalType":"uint256","name":"","type":"uint256"}],"stateMutability":"view","type":"function"},{"inputs":[{"internalType":"address","name":"_user","type":"address"},{"internalType":"address","name":"_token","type":"address"}],"name":"calculateStakingRewards","outputs":[{"internalType":"uint256","name":"","type":"uint256"}],"stateMutability":"view","type":"function"},{"inputs":[{"internalType":"uint256","name":"_number","type":"uint256"}],"name":"changeBaseNumberStakingLevel","outputs":[],"stateMutability":"nonpayable","type":"function"},{"inputs":[{"internalType":"uint256","name":"_level","type":"uint256"},{"internalType":"uint256","name":"_weight","type":"uint256"}],"name":"changeStakingLevelToWeight","outputs":[],"stateMutability":"nonpayable","type":"function"},{"inputs":[],"name":"claimAllPreSaletokens","outputs":[],"stateMutability":"nonpayable","type":"function"},{"inputs":[{"internalType":"uint256","name":"_preSaleNumber","type":"uint256"}],"name":"claimAllTokensEachPreSale","outputs":[],"stateMutability":"nonpayable","type":"function"},{"inputs":[{"internalType":"uint256","name":"_amount","type":"uint256"}],"name":"claimPreSaleTokens","outputs":[],"stateMutability":"nonpayable","type":"function"},{"inputs":[{"internalType":"address","name":"_token","type":"address"}],"name":"claimStakingRewards","outputs":[],"stateMutability":"nonpayable","type":"function"},{"inputs":[{"internalType":"uint256","name":"_preSaleNumber","type":"uint256"},{"internalType":"uint256","name":"_amount","type":"uint256"}],"name":"claimTokensEachPreSale","outputs":[],"stateMutability":"nonpayable","type":"function"},{"inputs":[{"internalType":"uint256","name":"","type":"uint256"}],"name":"claimTokensEachPreSaleStatus","outputs":[{"internalType":"bool","name":"","type":"bool"}],"stateMutability":"view","type":"function"},{"inputs":[{"internalType":"address","name":"","type":"address"}],"name":"collectedPreSaleFunds","outputs":[{"internalType":"uint256","name":"","type":"uint256"}],"stateMutability":"view","type":"function"},{"inputs":[{"internalType":"uint256","name":"","type":"uint256"},{"internalType":"address","name":"","type":"address"}],"name":"collectedPreSaleFundsEachPreSale","outputs":[{"internalType":"uint256","name":"","type":"uint256"}],"stateMutability":"view","type":"function"},{"inputs":[],"name":"dappToken","outputs":[{"internalType":"contract IERC20","name":"","type":"address"}],"stateMutability":"view","type":"function"},{"inputs":[{"internalType":"uint256","name":"","type":"uint256"}],"name":"funders","outputs":[{"internalType":"address","name":"","type":"address"}],"stateMutability":"view","type":"function"},{"inputs":[{"internalType":"address","name":"_sender","type":"address"},{"internalType":"address","name":"_token","type":"address"},{"internalType":"uint256","name":"_preSaleNumber","type":"uint256"}],"name":"getAllocatedPreSaleAmount","outputs":[{"internalType":"uint256","name":"","type":"uint256"}],"stateMutability":"view","type":"function"},{"inputs":[{"internalType":"address","name":"_token","type":"address"},{"internalType":"address","name":"_sender","type":"address"}],"name":"getAvailablePreSaleTokensToWithdraw","outputs":[{"internalType":"uint256","name":"","type":"uint256"}],"stateMutability":"view","type":"function"},{"inputs":[{"internalType":"address","name":"_token","type":"address"},{"internalType":"address","name":"_sender","type":"address"},{"internalType":"uint256","name":"_preSaleNumber","type":"uint256"}],"name":"getAvailablePreSaleTokensToWithdrawEachPreSale","outputs":[{"internalType":"uint256","name":"","type":"uint256"}],"stateMutability":"view","type":"function"},{"inputs":[{"internalType":"address","name":"_sender","type":"address"},{"internalType":"address","name":"_token","type":"address"}],"name":"getAvailableStakingRewards","outputs":[{"internalType":"uint256","name":"","type":"uint256"}],"stateMutability":"view","type":"function"},{"inputs":[{"internalType":"uint256","name":"ethAmount","type":"uint256"}],"name":"getConversionRate","outputs":[{"internalType":"uint256","name":"","type":"uint256"}],"stateMutability":"view","type":"function"},{"inputs":[],"name":"getEntranceFee","outputs":[{"internalType":"uint256","name":"","type":"uint256"}],"stateMutability":"view","type":"function"},{"inputs":[{"internalType":"address","name":"_sender","type":"address"},{"internalType":"address","name":"_token","type":"address"},{"internalType":"uint256","name":"_preSaleNumber","type":"uint256"}],"name":"getHowMuchMoreUserCanPurchaseEachPreSale","outputs":[{"internalType":"uint256","name":"","type":"uint256"}],"stateMutability":"view","type":"function"},{"inputs":[],"name":"getPrice","outputs":[{"internalType":"uint256","name":"","type":"uint256"}],"stateMutability":"view","type":"function"},{"inputs":[{"internalType":"address","name":"_token","type":"address"}],"name":"getSingleTokenAllPreSaleBalance","outputs":[{"internalType":"uint256","name":"","type":"uint256"}],"stateMutability":"nonpayable","type":"function"},{"inputs":[{"internalType":"address","name":"_sender","type":"address"},{"internalType":"address","name":"_token","type":"address"}],"name":"getStakingLevel","outputs":[{"internalType":"uint256","name":"","type":"uint256"}],"stateMutability":"view","type":"function"},{"inputs":[{"internalType":"address","name":"_token","type":"address"}],"name":"getTokenValue","outputs":[{"internalType":"uint256","name":"","type":"uint256"},{"internalType":"uint256","name":"","type":"uint256"}],"stateMutability":"view","type":"function"},{"inputs":[{"internalType":"address","name":"_user","type":"address"},{"internalType":"address","name":"_token","type":"address"}],"name":"getUserSingleTokenValue","outputs":[{"internalType":"uint256","name":"","type":"uint256"}],"stateMutability":"view","type":"function"},{"inputs":[{"internalType":"address","name":"_user","type":"address"}],"name":"getUserTotalValue","outputs":[{"internalType":"uint256","name":"","type":"uint256"}],"stateMutability":"view","type":"function"},{"inputs":[],"name":"getVersion","outputs":[{"internalType":"uint256","name":"","type":"uint256"}],"stateMutability":"view","type":"function"},{"inputs":[{"internalType":"uint256","name":"_percentageAmount","type":"uint256"}],"name":"issuePreSaleTokensToWithdrawPercentage","outputs":[],"stateMutability":"nonpayable","type":"function"},{"inputs":[],"name":"issueTokens","outputs":[],"stateMutability":"nonpayable","type":"function"},{"inputs":[{"internalType":"address","name":"_token","type":"address"},{"internalType":"uint256","name":"_amount","type":"uint256"}],"name":"manageDepositOwnerFunds","outputs":[],"stateMutability":"nonpayable","type":"function"},{"inputs":[{"internalType":"address","name":"_token","type":"address"},{"internalType":"uint256","name":"_amount","type":"uint256"}],"name":"manageWithdrawOwnerFunds","outputs":[],"stateMutability":"nonpayable","type":"function"},{"inputs":[{"internalType":"uint256","name":"_preSaleNumber","type":"uint256"},{"internalType":"uint256","name":"_percentageAmount","type":"uint256"}],"name":"manuallySetPercentageWithdrawAllowedEachPreSale","outputs":[],"stateMutability":"nonpayable","type":"function"},{"inputs":[],"name":"owner","outputs":[{"internalType":"address","name":"","type":"address"}],"stateMutability":"view","type":"function"},{"inputs":[{"internalType":"uint256","name":"_preSaleNumber","type":"uint256"},{"internalType":"address","name":"_token","type":"address"}],"name":"participateInPreSaleAllocation","outputs":[],"stateMutability":"nonpayable","type":"function"},{"inputs":[{"internalType":"uint256","name":"","type":"uint256"}],"name":"participateInPreSaleAllocationStatus","outputs":[{"internalType":"bool","name":"","type":"bool"}],"stateMutability":"view","type":"function"},{"inputs":[],"name":"percentageWithdrawAllowed","outputs":[{"internalType":"uint256","name":"","type":"uint256"}],"stateMutability":"view","type":"function"},{"inputs":[{"internalType":"uint256","name":"","type":"uint256"}],"name":"percentageWithdrawAllowedEachPreSale","outputs":[{"internalType":"uint256","name":"","type":"uint256"}],"stateMutability":"view","type":"function"},{"inputs":[{"internalType":"uint256","name":"","type":"uint256"}],"name":"preSaleAllocationStatus","outputs":[{"internalType":"bool","name":"","type":"bool"}],"stateMutability":"view","type":"function"},{"inputs":[{"internalType":"uint256","name":"","type":"uint256"}],"name":"preSaleAllowedTokens","outputs":[{"internalType":"address","name":"","type":"address"}],"stateMutability":"view","type":"function"},{"inputs":[{"internalType":"uint256","name":"_amount","type":"uint256"},{"internalType":"address","name":"_token","type":"address"}],"name":"preSaleFund","outputs":[],"stateMutability":"nonpayable","type":"function"},{"inputs":[{"internalType":"uint256","name":"_amount","type":"uint256"},{"internalType":"address","name":"_token","type":"address"},{"internalType":"address","name":"_busdToken","type":"address"},{"internalType":"uint256","name":"_preSaleNumber","type":"uint256"}],"name":"preSaleFundEachPreSaleNumber","outputs":[],"stateMutability":"nonpayable","type":"function"},{"inputs":[{"internalType":"uint256","name":"","type":"uint256"}],"name":"preSaleFundEachPreSaleNumberStatus","outputs":[{"internalType":"bool","name":"","type":"bool"}],"stateMutability":"view","type":"function"},{"inputs":[{"internalType":"uint256","name":"_amount","type":"uint256"},{"internalType":"address","name":"_token","type":"address"},{"internalType":"address","name":"_busdToken","type":"address"},{"internalType":"uint256","name":"_preSaleNumber","type":"uint256"}],"name":"preSaleFundEachPreSaleNumberWithoutStaking","outputs":[],"stateMutability":"nonpayable","type":"function"},{"inputs":[{"internalType":"uint256","name":"","type":"uint256"}],"name":"preSaleFundEachPreSaleNumberWithoutStakingStatus","outputs":[{"internalType":"bool","name":"","type":"bool"}],"stateMutability":"view","type":"function"},{"inputs":[{"internalType":"uint256","name":"_amount","type":"uint256"},{"internalType":"address","name":"_token","type":"address"},{"internalType":"address","name":"_busdToken","type":"address"},{"internalType":"uint256","name":"_preSaleNumber","type":"uint256"}],"name":"preSaleFundFCFSEachPreSaleNumber","outputs":[],"stateMutability":"nonpayable","type":"function"},{"inputs":[{"internalType":"uint256","name":"","type":"uint256"}],"name":"preSaleFundFCFSEachPreSaleNumberStatus","outputs":[{"internalType":"bool","name":"","type":"bool"}],"stateMutability":"view","type":"function"},{"inputs":[{"internalType":"uint256","name":"","type":"uint256"}],"name":"preSaleFunders","outputs":[{"internalType":"address","name":"","type":"address"}],"stateMutability":"view","type":"function"},{"inputs":[{"internalType":"uint256","name":"","type":"uint256"},{"internalType":"uint256","name":"","type":"uint256"}],"name":"preSaleFundersEachPreSale","outputs":[{"internalType":"address","name":"","type":"address"}],"stateMutability":"view","type":"function"},{"inputs":[{"internalType":"address","name":"","type":"address"}],"name":"preSaleParticipantsStatus","outputs":[{"internalType":"bool","name":"","type":"bool"}],"stateMutability":"view","type":"function"},{"inputs":[],"name":"preSaleTokenAddress","outputs":[{"internalType":"contract IERC20","name":"","type":"address"}],"stateMutability":"view","type":"function"},{"inputs":[{"internalType":"uint256","name":"","type":"uint256"}],"name":"preSaleTokenAddressEachPreSale","outputs":[{"internalType":"contract IERC20","name":"","type":"address"}],"stateMutability":"view","type":"function"},{"inputs":[{"internalType":"address","name":"_token","type":"address"}],"name":"preSaleTokenIsAllowed","outputs":[{"internalType":"bool","name":"","type":"bool"}],"stateMutability":"nonpayable","type":"function"},{"inputs":[],"name":"priceFeedA","outputs":[{"internalType":"contract AggregatorV3Interface","name":"","type":"address"}],"stateMutability":"view","type":"function"},{"inputs":[{"internalType":"address","name":"","type":"address"},{"internalType":"address","name":"","type":"address"}],"name":"purchasedBalance","outputs":[{"internalType":"uint256","name":"","type":"uint256"}],"stateMutability":"view","type":"function"},{"inputs":[{"internalType":"uint256","name":"","type":"uint256"},{"internalType":"address","name":"","type":"address"}],"name":"purchasedBalanceEachPreSale","outputs":[{"internalType":"uint256","name":"","type":"uint256"}],"stateMutability":"view","type":"function"},{"inputs":[],"name":"renounceOwnership","outputs":[],"stateMutability":"nonpayable","type":"function"},{"inputs":[{"internalType":"uint256","name":"_APY","type":"uint256"}],"name":"setAPY","outputs":[],"stateMutability":"nonpayable","type":"function"},{"inputs":[{"internalType":"uint256","name":"_preSaleNumber","type":"uint256"},{"internalType":"bool","name":"_status","type":"bool"}],"name":"setClaimTokensEachPreSaleStatus","outputs":[],"stateMutability":"nonpayable","type":"function"},{"inputs":[{"internalType":"uint256","name":"_number","type":"uint256"},{"internalType":"bool","name":"_status","type":"bool"}],"name":"setParticipateInPreSaleAllocationStatus","outputs":[],"stateMutability":"nonpayable","type":"function"},{"inputs":[{"internalType":"uint256","name":"_preSaleNumber","type":"uint256"},{"internalType":"uint256","name":"_percentageAmount","type":"uint256"}],"name":"setPercentageWithdrawAllowedEachPreSale","outputs":[],"stateMutability":"nonpayable","type":"function"},{"inputs":[{"internalType":"uint256","name":"_number","type":"uint256"},{"internalType":"bool","name":"_status","type":"bool"}],"name":"setPreSaleAllocationStatus","outputs":[],"stateMutability":"nonpayable","type":"function"},{"inputs":[{"internalType":"uint256","name":"_preSaleNumber","type":"uint256"},{"internalType":"bool","name":"_status","type":"bool"}],"name":"setPreSaleFundEachPreSaleNumberStatus","outputs":[],"stateMutability":"nonpayable","type":"function"},{"inputs":[{"internalType":"uint256","name":"_preSaleNumber","type":"uint256"},{"internalType":"bool","name":"_status","type":"bool"}],"name":"setPreSaleFundEachPreSaleNumberWithoutStakingStatus","outputs":[],"stateMutability":"nonpayable","type":"function"},{"inputs":[{"internalType":"uint256","name":"_preSaleNumber","type":"uint256"},{"internalType":"bool","name":"_status","type":"bool"}],"name":"setPreSaleFundFCFSEachPreSaleNumberStatus","outputs":[],"stateMutability":"nonpayable","type":"function"},{"inputs":[{"internalType":"address","name":"_token","type":"address"},{"internalType":"address","name":"_priceFeed","type":"address"}],"name":"setPriceFeedContract","outputs":[],"stateMutability":"nonpayable","type":"function"},{"inputs":[{"internalType":"uint256","name":"_preSaleNumber","type":"uint256"},{"internalType":"uint256","name":"_amount","type":"uint256"}],"name":"setTotalAmountToCollectForThisPreSale","outputs":[],"stateMutability":"nonpayable","type":"function"},{"inputs":[],"name":"singleTokenAllPreSaleBalance","outputs":[{"internalType":"uint256","name":"","type":"uint256"}],"stateMutability":"view","type":"function"},{"inputs":[{"internalType":"uint256","name":"_amount","type":"uint256"},{"internalType":"address","name":"_token","type":"address"}],"name":"stakeTokens","outputs":[],"stateMutability":"nonpayable","type":"function"},{"inputs":[{"internalType":"uint256","name":"","type":"uint256"}],"name":"stakers","outputs":[{"internalType":"address","name":"","type":"address"}],"stateMutability":"view","type":"function"},{"inputs":[{"internalType":"address","name":"","type":"address"},{"internalType":"address","name":"","type":"address"}],"name":"stakingBalance","outputs":[{"internalType":"uint256","name":"","type":"uint256"}],"stateMutability":"view","type":"function"},{"inputs":[{"internalType":"uint256","name":"","type":"uint256"}],"name":"stakingLevelToWeight","outputs":[{"internalType":"uint256","name":"","type":"uint256"}],"stateMutability":"view","type":"function"},{"inputs":[{"internalType":"uint256","name":"","type":"uint256"},{"internalType":"uint256","name":"","type":"uint256"}],"name":"stakingLevelUserCounter","outputs":[{"internalType":"uint256","name":"","type":"uint256"}],"stateMutability":"view","type":"function"},{"inputs":[{"internalType":"address","name":"","type":"address"}],"name":"stakingTimeToWithdraw","outputs":[{"internalType":"uint256","name":"","type":"uint256"}],"stateMutability":"view","type":"function"},{"inputs":[{"internalType":"address","name":"_token","type":"address"}],"name":"tokenIsAllowed","outputs":[{"internalType":"bool","name":"","type":"bool"}],"stateMutability":"nonpayable","type":"function"},{"inputs":[{"internalType":"address","name":"","type":"address"}],"name":"tokenPriceFeedMapping","outputs":[{"internalType":"address","name":"","type":"address"}],"stateMutability":"view","type":"function"},{"inputs":[{"internalType":"uint256","name":"","type":"uint256"}],"name":"totalAmountToCollectForThisPreSale","outputs":[{"internalType":"uint256","name":"","type":"uint256"}],"stateMutability":"view","type":"function"},{"inputs":[{"internalType":"address","name":"","type":"address"}],"name":"totalCollectionOfPreSaleFunds","outputs":[{"internalType":"uint256","name":"","type":"uint256"}],"stateMutability":"view","type":"function"},{"inputs":[],"name":"totalCollectionOfPreSaleFundsAllTokens","outputs":[{"internalType":"uint256","name":"","type":"uint256"}],"stateMutability":"view","type":"function"},{"inputs":[{"internalType":"uint256","name":"","type":"uint256"},{"internalType":"address","name":"","type":"address"}],"name":"totalCollectionOfPreSaleFundsEachPreSale","outputs":[{"internalType":"uint256","name":"","type":"uint256"}],"stateMutability":"view","type":"function"},{"inputs":[{"internalType":"address","name":"","type":"address"}],"name":"totalPurchasedPreSaleTokens","outputs":[{"internalType":"uint256","name":"","type":"uint256"}],"stateMutability":"view","type":"function"},{"inputs":[{"internalType":"uint256","name":"","type":"uint256"},{"internalType":"address","name":"","type":"address"}],"name":"totalPurchasedPreSaleTokensEachPreSale","outputs":[{"internalType":"uint256","name":"","type":"uint256"}],"stateMutability":"view","type":"function"},{"inputs":[],"name":"totalTokensStaked","outputs":[{"internalType":"uint256","name":"","type":"uint256"}],"stateMutability":"view","type":"function"},{"inputs":[{"internalType":"address","name":"","type":"address"}],"name":"totalWithdrawnPreSaleTokens","outputs":[{"internalType":"uint256","name":"","type":"uint256"}],"stateMutability":"view","type":"function"},{"inputs":[{"internalType":"uint256","name":"","type":"uint256"},{"internalType":"address","name":"","type":"address"}],"name":"totalWithdrawnPreSaleTokensEachPreSale","outputs":[{"internalType":"uint256","name":"","type":"uint256"}],"stateMutability":"view","type":"function"},{"inputs":[{"internalType":"address","name":"newOwner","type":"address"}],"name":"transferOwnership","outputs":[],"stateMutability":"nonpayable","type":"function"},{"inputs":[{"internalType":"address","name":"","type":"address"}],"name":"uniquePreSaleTokensPurchased","outputs":[{"internalType":"uint256","name":"","type":"uint256"}],"stateMutability":"view","type":"function"},{"inputs":[{"internalType":"address","name":"","type":"address"}],"name":"uniquePreSaleTokensStaked","outputs":[{"internalType":"uint256","name":"","type":"uint256"}],"stateMutability":"view","type":"function"},{"inputs":[],"name":"uniqueTokenStakers","outputs":[{"internalType":"uint256","name":"","type":"uint256"}],"stateMutability":"view","type":"function"},{"inputs":[{"internalType":"address","name":"","type":"address"}],"name":"uniqueTokensStaked","outputs":[{"internalType":"uint256","name":"","type":"uint256"}],"stateMutability":"view","type":"function"},{"inputs":[{"internalType":"address","name":"_token","type":"address"}],"name":"unstakeAllTokens","outputs":[],"stateMutability":"nonpayable","type":"function"},{"inputs":[{"internalType":"uint256","name":"_amount","type":"uint256"},{"internalType":"address","name":"_token","type":"address"}],"name":"unstakeTokens","outputs":[],"stateMutability":"nonpayable","type":"function"},{"inputs":[{"internalType":"address","name":"_preSaleTokenAddress","type":"address"}],"name":"updatePreSaleTokenAddress","outputs":[],"stateMutability":"nonpayable","type":"function"},{"inputs":[{"internalType":"uint256","name":"_preSaleNumber","type":"uint256"},{"internalType":"address","name":"_preSaleTokenAddress","type":"address"}],"name":"updatePreSaleTokenAddressEachPreSale","outputs":[],"stateMutability":"nonpayable","type":"function"},{"inputs":[{"internalType":"uint256","name":"_times","type":"uint256"}],"name":"updateTimes","outputs":[],"stateMutability":"nonpayable","type":"function"},{"inputs":[{"internalType":"uint256","name":"_preSaleNumber","type":"uint256"},{"internalType":"uint256","name":"_times","type":"uint256"}],"name":"updateTimesEachPreSale","outputs":[],"stateMutability":"nonpayable","type":"function"},{"inputs":[{"internalType":"address","name":"","type":"address"}],"name":"whenParticipatedThatLevel","outputs":[{"internalType":"uint256","name":"","type":"uint256"}],"stateMutability":"view","type":"function"},{"inputs":[{"internalType":"address","name":"_token","type":"address"}],"name":"withdrawAmountPeopleLeftInWithdrawFees","outputs":[],"stateMutability":"nonpayable","type":"function"},{"inputs":[{"internalType":"uint256","name":"_preSaleNumber","type":"uint256"},{"internalType":"address","name":"_busdToken","type":"address"}],"name":"withdrawCollectedFundEachPreSale","outputs":[],"stateMutability":"nonpayable","type":"function"},{"inputs":[{"internalType":"address","name":"_token","type":"address"}],"name":"withdrawPreSaleCollectedFund","outputs":[],"stateMutability":"nonpayable","type":"function"}],"bytecode":"6080604052600a6001556105dc6020553480156200001c57600080fd5b50604051620056ad380380620056ad8339810160408190526200003f916200050b565b6200004a336200049e565b600e80546001600160a01b039384166001600160a01b031991821617909155601b8054929093169116179055601e602081905260007f65ce8396b736f5da9d881cc6fbcb11ef9721292dc41ec8c40879fd9edea5744d81905560017f873299c6a6c39b8b92f01922bb622df4a3236ea2876aac2da76f6c092cf7e98f5560027f8a1ea6ccfdf9f988bdc16303c81231f9b192785454b34880c28e5c30362354c55560037f4bbb14a9b8bdd7baf7e45936eef68b1d3b69ec665e4d3d9f22d086627a2b08805560047f2eca6469c5988648711d819e241e59ec9e94a879e5d491ce337260f9e75414125560057f86d72ecda2f02015d839a182675ed983893a479e8f4279fb5498fd7244fa5dfe5560067f3b995de482df97a2c9d456eaddef4a2d8e37e8b7ceaa84df3200ae34890448f35560077f07e07990268d552e861c3b3b30762ae1d401e128d88dcdc061f5fba57e7ac9f85560087f8dd77d38164a78ad615ed6f87db5c81e75803d1677bf75ecfbbe3c73b83871415560097f2fcdb860d99ada637bba31889280ce2d4217586b5da61641dd5742bcbb7aa46a55600a7f4150be2f2e4ca26ea4353f7f6543634639cb7af12002f06e7614303d57e128f955600f7fe065eaad7f40a2cd4bc1efc6f4344c19df9fe636b15760bd5961fc0e3be3cc285560147fc2cdcac6815e8dba5c073d2c4a622d2de1453a902e3ebd096b6c8686d03a6e515560197f4dfc35b27a2a15eb38750f68a286ed8b8346956ebe7227ceb2dd7dd5c373ac26557fb967cce98cabd8d1f7aeda98d36c0158d6775cfe7c62f16953241eb7720ce15b9190915560237f32abc6767b4a526ba081342d89c77eb5e415f12f68af45f1f8433a1280ad46885560287fdbd8d1ccee8c6d7be969746c1fe539d14d7943a9f704f7aeaac79295156a980055602d7f218a762fb5580fc51401a5fc690f183f97f4e4b89e9cfcd822ba18577f9210fc5560327f1a1586bd60010e5250bec70a13f10b57a516d531e2e13f8e06bc6444e08990d555603c7f17f6e9bae84339b87dec02358cd3c31ef1652c5c381cc3e5ccf667ac2322cd235560467f57f7e17d109c663c1b21f4419ef762bc64baea1b8a757f23e8ca6984e62d52d25560507ffce0de9d50a3d1acf6fc25d06cc116ec2bfb69af108c962cc29b045e83164d0d55605a7f1a4cc25510354c589bd7946b3dc2275b971564533a277044a7363966a283b0dc5560647fa4ec8c329519c7dcf531f6496ed5d60fa1ccb9710ce24cab0ef13e1ee263334f55606e7f5f90b9a2fb0d3c15f43274ee5caf6dd9bd9f976b15cf11617fde6e8e8fe15c9b5560787f45768a1322d624d68f3a4861f29d212d4f45fa493b346276b7199d716f4cb86f5560827fe958f81d8b8dd448a0753719ffaa76d7252ff37e1c61af328234250c9c7863ae55608c7fa735894fb4ad4eed679d05ff9f9934abb52e44e0cb86a50d1e8ff15c308aba0e55601c905260967ff1de1e01c421a3570903cc3ce14bc5911c7c246bd5b6523c814df713c8f04b9b5562000543565b600080546001600160a01b038381166001600160a01b0319831681178455604051919092169283917f8be0079c531659141344cd1fd0a4f28419497f9722a3daafe3b4186f6b6457e09190a35050565b80516001600160a01b03811681146200050657600080fd5b919050565b600080604083850312156200051f57600080fd5b6200052a83620004ee565b91506200053a60208401620004ee565b90509250929050565b61515a80620005536000396000f3fe608060405234801561001057600080fd5b506004361061063e5760003560e01c80637ab36cdb11610336578063c98a6c49116101c3578063ee1107011161010f578063f5d9f006116100ad578063fb4854aa11610087578063fb4854aa14610f92578063fd5e6dd114610fb5578063fe0a9e0014610fc8578063fe83383114610fdb57600080fd5b8063f5d9f00614610f59578063fa95cf8214610f6c578063fb27b0ed14610f7f57600080fd5b8063f1c5d6c2116100e9578063f1c5d6c214610ee8578063f1da907e14610f10578063f23e542314610f33578063f2fde38b14610f4657600080fd5b8063ee11070114610eac578063ef8bd30514610ecc578063f08aae8114610ed557600080fd5b8063dbd940091161017c578063e245339611610156578063e245339614610e3b578063e354e1c214610e5b578063e4c7842214610e86578063eace7e2314610e9957600080fd5b8063dbd9400914610dea578063dc0d3dff14610e15578063dd5b846714610e2857600080fd5b8063c98a6c4914610d6a578063ca97fc2914610d7d578063ccd35bb214610d86578063cd32e79214610d99578063ce05ea6614610dac578063dba586f214610dd757600080fd5b8063a4abf26111610282578063b379bc6a1161023b578063b83e023411610215578063b83e023414610d1b578063bde63a9214610d3b578063c071cf8314610d4e578063c8846cdb14610d5757600080fd5b8063b379bc6a14610cd5578063b57eff1014610cf5578063b75b098814610d0857600080fd5b8063a4abf26114610c4d578063af3f5e2214610c60578063b0e31b2d14610c73578063b115070214610c7c578063b195558c14610c9f578063b2e8778114610cb257600080fd5b80638da5cb5b116102ef57806398d5fdca116102c957806398d5fdca14610bfe5780639b67f4be14610c065780639f20f62d14610c19578063a307bb0c14610c4457600080fd5b80638da5cb5b14610baf5780638dcb654b14610bc057806396bb1fef14610beb57600080fd5b80637ab36cdb14610b1057806384d269ad14610b33578063850fb31114610b46578063877dd39d14610b695780638a757ec214610b7c5780638b20c4c214610b8f57600080fd5b8063409ed87e116104cf5780636323085c1161041b5780636f8da993116103b95780637737721b116103935780637737721b14610ac457806377a4cfe814610ad7578063799e93e814610aea57806379f27c9e14610afd57600080fd5b80636f8da99314610a76578063715018a614610aa95780637290b3ad14610ab157600080fd5b80636b06a625116103f55780636b06a625146109fa5780636b3dd9e214610a235780636e5b6b2814610a435780636f4a2a2f14610a5657600080fd5b80636323085c146109c1578063635ab2f7146109d457806366b98718146109e757600080fd5b80635d2dd17b116104885780635eb186f8116104625780635eb186f8146109735780635fbae1c71461098657806360ab5852146109a6578063630b8a8a146109ae57600080fd5b80635d2dd17b1461093a5780635d9902501461094d5780635e5f2e261461096057600080fd5b8063409ed87e146108bb57806341a7a45e146108ce57806349d96193146108e15780635084be37146108f4578063544cd5ec14610907578063587287881461091a57600080fd5b806324f45e671161058e5780632b996e68116105475780633d6217a6116105215780633d6217a6146108555780633d8c3cdd146108755780633dbee808146108885780633e47d6f31461089b57600080fd5b80632b996e681461080f5780632fbb9ca61461082f578063383cae1d1461084257600080fd5b806324f45e671461074a578063264c44ff1461075d578063276b11da1461077d57806327927b3e1461079057806327cd08a9146107d157806329161a00146107e457600080fd5b80630d8e6e2c116105fb578063171e44ea116105d5578063171e44ea1461070857806319d9caa91461071b5780632029dd7714610724578063218334fe1461073757600080fd5b80630d8e6e2c146106e55780630e53fecb146106ed5780631286df5b146106f557600080fd5b8063055588851461064357806307c54e081461068157806308846db11461069657806308b7d791146106c157806309bc33a7146106ca5780630bea440d146106d2575b600080fd5b61066e610651366004614b6e565b602e60209081526000928352604080842090915290825290205481565b6040519081526020015b60405180910390f35b61069461068f366004614b9a565b610ffb565b005b61066e6106a4366004614b9a565b602160209081526000928352604080842090915290825290205481565b61066e60175481565b61066e611040565b6106946106e0366004614b6e565b61107d565b61066e611232565b6106946112a5565b610694610703366004614b6e565b6113c8565b610694610716366004614bbc565b6114a4565b61066e60135481565b610694610732366004614bec565b611520565b610694610745366004614b9a565b61156a565b610694610758366004614c1c565b611748565b61066e61076b366004614c1c565b60246020526000908152604090205481565b61066e61078b366004614c35565b611777565b6107b961079e366004614bbc565b6008602052600090815260409020546001600160a01b031681565b6040516001600160a01b039091168152602001610678565b6107b96107df366004614c1c565b6117fe565b61066e6107f2366004614c35565b600260209081526000928352604080842090915290825290205481565b61066e61081d366004614c1c565b601e6020526000908152604090205481565b61069461083d366004614b6e565b611828565b601b546107b9906001600160a01b031681565b61066e610863366004614bbc565b60236020526000908152604090205481565b61066e610883366004614c35565b611880565b610694610896366004614bbc565b61191d565b61066e6108a9366004614bbc565b60186020526000908152604090205481565b6106946108c9366004614c1c565b6119c2565b6106946108dc366004614bec565b611b3b565b6106946108ef366004614c5f565b611b85565b610694610902366004614c1c565b611eaf565b610694610915366004614b9a565b611ede565b61066e610928366004614c1c565b60326020526000908152604090205481565b610694610948366004614bec565b611f1a565b61069461095b366004614b6e565b611f64565b6107b961096e366004614c1c565b61220b565b600e546107b9906001600160a01b031681565b61066e610994366004614c1c565b602c6020526000908152604090205481565b61069461221b565b6106946109bc366004614bbc565b612315565b61066e6109cf366004614c35565b612391565b6106946109e2366004614ca3565b6123eb565b6106946109f5366004614bbc565b61248d565b6107b9610a08366004614c1c565b6033602052600090815260409020546001600160a01b031681565b61066e610a31366004614bbc565b60166020526000908152604090205481565b61066e610a51366004614c1c565b6124d9565b61066e610a64366004614bbc565b60126020526000908152604090205481565b610a99610a84366004614c1c565b60296020526000908152604090205460ff1681565b6040519015158152602001610678565b61069461250d565b610694610abf366004614b6e565b612543565b61066e610ad2366004614c35565b61261f565b61066e610ae5366004614c35565b61264f565b61066e610af8366004614ccd565b612faa565b610694610b0b366004614bbc565b612ff3565b610a99610b1e366004614c1c565b60276020526000908152604090205460ff1681565b610694610b41366004614b6e565b61313b565b610a99610b54366004614bbc565b60226020526000908152604090205460ff1681565b610694610b77366004614c35565b6134b1565b610694610b8a366004614c1c565b613509565b61066e610b9d366004614bbc565b60146020526000908152604090205481565b6000546001600160a01b03166107b9565b61066e610bce366004614b6e565b602a60209081526000928352604080842090915290825290205481565b610694610bf9366004614bbc565b613538565b61066e6135e8565b610694610c14366004614bec565b61367f565b61066e610c27366004614c35565b601060209081526000928352604080842090915290825290205481565b61066e60065481565b610694610c5b366004614c1c565b6136c9565b61066e610c6e366004614bbc565b613732565b61066e600b5481565b610a99610c8a366004614c1c565b60266020526000908152604090205460ff1681565b610a99610cad366004614bbc565b6137f0565b610a99610cc0366004614c1c565b601f6020526000908152604090205460ff1681565b61066e610ce3366004614bbc565b601c6020526000908152604090205481565b610694610d03366004614bec565b61385a565b610694610d16366004614c5f565b6138a4565b61066e610d29366004614bbc565b60076020526000908152604090205481565b610694610d49366004614b9a565b613b62565b61066e601d5481565b610694610d65366004614b9a565b613b9e565b610694610d78366004614bbc565b613bda565b61066e600a5481565b610694610d94366004614b9a565b613eea565b610694610da7366004614ca3565b613f44565b61066e610dba366004614b6e565b603160209081526000928352604080842090915290825290205481565b610694610de5366004614c5f565b613f9c565b61066e610df8366004614b6e565b602d60209081526000928352604080842090915290825290205481565b6107b9610e23366004614c1c565b6142fc565b610a99610e36366004614bbc565b61430c565b61066e610e49366004614bbc565b60056020526000908152604090205481565b61066e610e69366004614b6e565b603060209081526000928352604080842090915290825290205481565b61066e610e94366004614bbc565b61436d565b61066e610ea7366004614ccd565b61440d565b61066e610eba366004614bbc565b602b6020526000908152604090205481565b61066e60015481565b6107b9610ee3366004614c1c565b61451a565b610efb610ef6366004614bbc565b61452a565b60408051928352602083019190915201610678565b610a99610f1e366004614c1c565b60286020526000908152604090205460ff1681565b610694610f41366004614c1c565b61462b565b610694610f54366004614bbc565b6147b3565b61066e610f67366004614ccd565b61484b565b610694610f7a366004614bec565b6148c7565b600f546107b9906001600160a01b031681565b610a99610fa0366004614c1c565b60256020526000908152604090205460ff1681565b6107b9610fc3366004614c1c565b614911565b6107b9610fd6366004614b9a565b614921565b61066e610fe9366004614bbc565b60116020526000908152604090205481565b6000546001600160a01b0316331461102e5760405162461bcd60e51b815260040161102590614d09565b60405180910390fd5b6000918252601e602052604090912055565b60006802b5e3af16b1880000816110556135e8565b9050670de0b6b3a76400008161106b8285614d54565b6110759190614d73565b935050505090565b6000821161109d5760405162461bcd60e51b815260040161102590614d95565b6110a68161430c565b6110c25760405162461bcd60e51b815260040161102590614dcc565b6040516323b872dd60e01b81526001600160a01b038216906323b872dd906110f290339030908790600401614e03565b6020604051808303816000875af1158015611111573d6000803e3d6000fd5b505050506040513d601f19601f820116820180604052508101906111359190614e27565b506111403382614959565b61114a33826149c4565b81600b546111589190614e44565b600b55611165338261261f565b3360008181526004602090815260408083209490945560038152838220429081905560058252848320556001600160a01b0385168252600281528382209282529190915220546111b6908390614e44565b6001600160a01b03821660009081526002602090815260408083203384528252808320939093556007905220546001141561122e57600c80546001810182556000919091527fdf6966c971051c3d54ec59162606531493a51404a002842f56009d7e5cf4a8c70180546001600160a01b031916331790555b5050565b601b546040805163054fd4d560e41b815290516000926001600160a01b0316916354fd4d509160048083019260209291908290030181865afa15801561127c573d6000803e3d6000fd5b505050506040513d601f19601f820116820180604052508101906112a09190614e5c565b905090565b33600090815260146020908152604080832054601690925282205490916112cc8284614e75565b905060006064846017546112e09190614d54565b6112ea9190614d73565b905060006112f88483614e75565b90506000851161130757600080fd5b6000811161131457600080fd5b84841061132057600080fd5b600f5460405163a9059cbb60e01b81526001600160a01b039091169063a9059cbb906113529033908590600401614e8c565b6020604051808303816000875af1158015611371573d6000803e3d6000fd5b505050506040513d601f19601f820116820180604052508101906113959190614e27565b50336000908152601660205260409020546113b1908290614e44565b336000908152601660205260409020555050505050565b6000546001600160a01b031633146113f25760405162461bcd60e51b815260040161102590614d09565b6000828152602d602090815260408083206001600160a01b03851680855292529182902054915163a9059cbb60e01b815263a9059cbb906114399033908590600401614e8c565b6020604051808303816000875af1158015611458573d6000803e3d6000fd5b505050506040513d601f19601f8201168201806040525081019061147c9190614e27565b50506000918252602d602090815260408084206001600160a01b039093168452919052812055565b6000546001600160a01b031633146114ce5760405162461bcd60e51b815260040161102590614d09565b600d80546001810182556000919091527fd7b6990105719101dabeb77144f2a3385c8033acd3af97e9423a695e81ad1eb50180546001600160a01b0319166001600160a01b0392909216919091179055565b6000546001600160a01b0316331461154a5760405162461bcd60e51b815260040161102590614d09565b600091825260286020526040909120805460ff1916911515919091179055565b60008281526029602052604090205460ff16151560011461158a57600080fd5b6000828152603060209081526040808320338085529083528184205486855260318452828520918552925282205490916115c48284614e75565b600086815260326020526040812054919250906064906115e5908690614d54565b6115ef9190614d73565b905060006115fd8483614e75565b90506000811161160c57600080fd5b8086111561161957600080fd5b84841061162557600080fd5b600086116116455760405162461bcd60e51b815260040161102590614d95565b858310156116655760405162461bcd60e51b815260040161102590614ea5565b846116708786614e44565b1061167a57600080fd5b6000878152603360205260409081902054905163a9059cbb60e01b81526001600160a01b039091169063a9059cbb906116b99033908a90600401614e8c565b6020604051808303816000875af11580156116d8573d6000803e3d6000fd5b505050506040513d601f19601f820116820180604052508101906116fc9190614e27565b506000878152603160209081526040808320338452909152902054611722908790614e44565b6000978852603160209081526040808a20338b5290915290972096909655505050505050565b6000546001600160a01b031633146117725760405162461bcd60e51b815260040161102590614d09565b600155565b6001600160a01b03821660009081526007602052604081205461179c575060006117f8565b6000806117a88461452a565b90925090506117b881600a614fd5565b6001600160a01b038086166000908152600260209081526040808320938a16835292905220546117e9908490614d54565b6117f39190614d73565b925050505b92915050565b601a818154811061180e57600080fd5b6000918252602090912001546001600160a01b0316905081565b6000546001600160a01b031633146118525760405162461bcd60e51b815260040161102590614d09565b60009182526033602052604090912080546001600160a01b0319166001600160a01b03909216919091179055565b6001600160a01b038083166000818152600360209081526040808320549486168352600282528083209383529290529081205460015491929142919084906064906118cc908490614d54565b6118d69190614d73565b905060006118e76208052083614d73565b90506000603c6118f78787614e75565b6119019190614d73565b9050600061190f8383614d54565b9a9950505050505050505050565b6000546001600160a01b031633146119475760405162461bcd60e51b815260040161102590614d09565b60065460405163a9059cbb60e01b81526001600160a01b0383169163a9059cbb91611976913391600401614e8c565b6020604051808303816000875af1158015611995573d6000803e3d6000fd5b505050506040513d601f19601f820116820180604052508101906119b99190614e27565b50506000600655565b33600090815260146020908152604080832054601690925282205490916119e98284614e75565b905060006064846017546119fd9190614d54565b611a079190614d73565b90506000611a158483614e75565b905060008111611a2457600080fd5b80861115611a3157600080fd5b848410611a3d57600080fd5b60008611611a5d5760405162461bcd60e51b815260040161102590614d95565b85831015611a7d5760405162461bcd60e51b815260040161102590614ea5565b84611a888786614e44565b10611a9257600080fd5b600f5460405163a9059cbb60e01b81526001600160a01b039091169063a9059cbb90611ac49033908a90600401614e8c565b6020604051808303816000875af1158015611ae3573d6000803e3d6000fd5b505050506040513d601f19601f82011682018060405250810190611b079190614e27565b5033600090815260166020526040902054611b23908790614e44565b33600090815260166020526040902055505050505050565b6000546001600160a01b03163314611b655760405162461bcd60e51b815260040161102590614d09565b600091825260256020526040909120805460ff1916911515919091179055565b60008181526027602052604090205460ff161515600114611ba557600080fd5b6001600160a01b0383166000908152600260209081526040808320338452909152902054685150ae84a8cdf000001115611bde57600080fd5b6000611bea338561264f565b11611bf457600080fd5b600081815260246020526040902054611c0c57600080fd5b60008411611c2c5760405162461bcd60e51b815260040161102590614d95565b611c35826137f0565b611c515760405162461bcd60e51b815260040161102590614dcc565b600081815260246020908152604080832054602e83528184206001600160a01b03871685529092529091205410611c8757600080fd5b600081815260246020908152604080832054602e83528184206001600160a01b038716855290925290912054611cbe908690614e44565b1115611cc957600080fd5b6000611cd633858461440d565b905060008111611ce557600080fd5b3360008181526005602052604090819020429055516323b872dd60e01b81526001600160a01b038516916323b872dd91611d26919030908a90600401614e03565b6020604051808303816000875af1158015611d45573d6000803e3d6000fd5b505050506040513d601f19601f82011682018060405250810190611d699190614e27565b50611d743383614a03565b6000828152602a60209081526040808320338452909152902054611d99908690614e44565b6000838152602a60209081526040808320338452825280832093909355848252602c90522054611dc99086614d54565b6000838152603060209081526040808320338452909152902054611ded9190614e44565b6000838152603060209081526040808320338452825280832093909355848252602d81528282206001600160a01b038716835290522054611e2f908690614e44565b6000838152602d602090815260408083206001600160a01b03881680855290835281842094909455858352602e82528083209383529290522054611e74908690614e44565b6000838152602e602090815260408083206001600160a01b0388168452909152902055601354611ea5908690614e44565b6013555050505050565b6000546001600160a01b03163314611ed95760405162461bcd60e51b815260040161102590614d09565b601555565b6000546001600160a01b03163314611f085760405162461bcd60e51b815260040161102590614d09565b60009182526032602052604090912055565b6000546001600160a01b03163314611f445760405162461bcd60e51b815260040161102590614d09565b600091825260276020526040909120805460ff1916911515919091179055565b60008211611f845760405162461bcd60e51b815260040161102590614d95565b611f8d816137f0565b611fa95760405162461bcd60e51b815260040161102590614dcc565b6040516323b872dd60e01b81526001600160a01b038216906323b872dd90611fd990339030908790600401614e03565b6020604051808303816000875af1158015611ff8573d6000803e3d6000fd5b505050506040513d601f19601f8201168201806040525081019061201c9190614e27565b506040516370a0823160e01b8152306004820152670de0b6b3a7640000906001600160a01b038316906370a0823190602401602060405180830381865afa15801561206b573d6000803e3d6000fd5b505050506040513d601f19601f8201168201806040525081019061208f9190614e5c565b6120999190614d73565b601d556120a63382614a9c565b6001600160a01b03811660009081526010602090815260408083203384529091529020546120d5908390614e44565b6001600160a01b03821660009081526010602090815260408083203384529091529020556015546121069083614d54565b336000908152601460205260409020546121209190614e44565b336000908152601460209081526040808320939093556001600160a01b0384168252601190522054612153908390614e44565b6001600160a01b038216600090815260116020908152604080832093909355601290522054612183908390614e44565b6001600160a01b0382166000908152601260205260409020556013546121aa908390614e44565b601355336000908152601c60205260409020546001141561122e57601980546001810182556000919091527f944998273e477b495144fb8794c914197f3ccb46be2900f4698fd0ef743c96950180546001600160a01b031916331790555050565b600d818154811061180e57600080fd5b6000546001600160a01b031633146122455760405162461bcd60e51b815260040161102590614d09565b60005b600c54811015612312576000600c828154811061226757612267614fe1565b60009182526020822001546001600160a01b0316915061228682613732565b600e5460405163a9059cbb60e01b81529192506001600160a01b03169063a9059cbb906122b99085908590600401614e8c565b6020604051808303816000875af11580156122d8573d6000803e3d6000fd5b505050506040513d601f19601f820116820180604052508101906122fc9190614e27565b505050808061230a90614ff7565b915050612248565b50565b6000546001600160a01b0316331461233f5760405162461bcd60e51b815260040161102590614d09565b601a80546001810182556000919091527f057c384a7d1c54f3a1b2e5e67b2617b8224fdfd1ea7234eea573a6ff665ff63e0180546001600160a01b0319166001600160a01b0392909216919091179055565b6001600160a01b038116600090815260146020908152604080832054601690925282205460175483906064906123c8908590614d54565b6123d29190614d73565b905060006123e08383614e75565b979650505050505050565b6000546001600160a01b031633146124155760405162461bcd60e51b815260040161102590614d09565b6040516323b872dd60e01b81526001600160a01b038316906323b872dd9061244590339030908690600401614e03565b6020604051808303816000875af1158015612464573d6000803e3d6000fd5b505050506040513d601f19601f820116820180604052508101906124889190614e27565b505050565b6000546001600160a01b031633146124b75760405162461bcd60e51b815260040161102590614d09565b600f80546001600160a01b0319166001600160a01b0392909216919091179055565b6000806124e46135e8565b90506000670de0b6b3a76400006124fb8584614d54565b6125059190614d73565b949350505050565b6000546001600160a01b031633146125375760405162461bcd60e51b815260040161102590614d09565b6125416000614b07565b565b6000828152601f602052604090205460ff16151560011461256357600080fd5b6001600160a01b0381166000908152600260209081526040808320338452909152902054685150ae84a8cdf00000111561259c57600080fd5b60006125a8338361264f565b116125b257600080fd5b60006125be338361264f565b60008481526021602090815260408083208484529091529020549091506125e6906001614e44565b60009384526021602090815260408086208487528252808620929092553385526023815281852092909255600590915290912042905550565b60008061262c8484611880565b6001600160a01b0385166000908152600460205260409020546125059190614e44565b6020546000908190612662906096614d54565b61267490670de0b6b3a7640000614d54565b6001600160a01b03808516600090815260026020908152604080832093891683529290522054106126a95750601c90506117f8565b6020546126b790608c614d54565b6126c990670de0b6b3a7640000614d54565b6001600160a01b03808516600090815260026020908152604080832093891683529290522054106126fe5750601b90506117f8565b60205461270c906082614d54565b61271e90670de0b6b3a7640000614d54565b6001600160a01b03808516600090815260026020908152604080832093891683529290522054106127535750601a90506117f8565b602054612761906078614d54565b61277390670de0b6b3a7640000614d54565b6001600160a01b03808516600090815260026020908152604080832093891683529290522054106127a85750601990506117f8565b6020546127b690606e614d54565b6127c890670de0b6b3a7640000614d54565b6001600160a01b03808516600090815260026020908152604080832093891683529290522054106127fd5750601890506117f8565b60205461280b906064614d54565b61281d90670de0b6b3a7640000614d54565b6001600160a01b03808516600090815260026020908152604080832093891683529290522054106128525750601790506117f8565b60205461286090605a614d54565b61287290670de0b6b3a7640000614d54565b6001600160a01b03808516600090815260026020908152604080832093891683529290522054106128a75750601690506117f8565b6020546128b5906050614d54565b6128c790670de0b6b3a7640000614d54565b6001600160a01b03808516600090815260026020908152604080832093891683529290522054106128fc5750601590506117f8565b60205461290a906046614d54565b61291c90670de0b6b3a7640000614d54565b6001600160a01b03808516600090815260026020908152604080832093891683529290522054106129515750601490506117f8565b60205461295f90603c614d54565b61297190670de0b6b3a7640000614d54565b6001600160a01b03808516600090815260026020908152604080832093891683529290522054106129a65750601390506117f8565b6020546129b4906032614d54565b6129c690670de0b6b3a7640000614d54565b6001600160a01b03808516600090815260026020908152604080832093891683529290522054106129fb5750601290506117f8565b602054612a0990602d614d54565b612a1b90670de0b6b3a7640000614d54565b6001600160a01b0380851660009081526002602090815260408083209389168352929052205410612a505750601190506117f8565b602054612a5e906028614d54565b612a7090670de0b6b3a7640000614d54565b6001600160a01b0380851660009081526002602090815260408083209389168352929052205410612aa55750601090506117f8565b602054612ab3906023614d54565b612ac590670de0b6b3a7640000614d54565b6001600160a01b0380851660009081526002602090815260408083209389168352929052205410612afa5750600f90506117f8565b602054612b0890601e614d54565b612b1a90670de0b6b3a7640000614d54565b6001600160a01b0380851660009081526002602090815260408083209389168352929052205410612b4f5750600e90506117f8565b602054612b5d906019614d54565b612b6f90670de0b6b3a7640000614d54565b6001600160a01b0380851660009081526002602090815260408083209389168352929052205410612ba45750600d90506117f8565b602054612bb2906014614d54565b612bc490670de0b6b3a7640000614d54565b6001600160a01b0380851660009081526002602090815260408083209389168352929052205410612bf95750600c90506117f8565b602054612c0790600f614d54565b612c1990670de0b6b3a7640000614d54565b6001600160a01b0380851660009081526002602090815260408083209389168352929052205410612c4e5750600b90506117f8565b602054612c5c90600a614d54565b612c6e90670de0b6b3a7640000614d54565b6001600160a01b0380851660009081526002602090815260408083209389168352929052205410612ca35750600a90506117f8565b602054612cb1906009614d54565b612cc390670de0b6b3a7640000614d54565b6001600160a01b0380851660009081526002602090815260408083209389168352929052205410612cf85750600990506117f8565b602054612d06906008614d54565b612d1890670de0b6b3a7640000614d54565b6001600160a01b0380851660009081526002602090815260408083209389168352929052205410612d4d5750600890506117f8565b602054612d5b906007614d54565b612d6d90670de0b6b3a7640000614d54565b6001600160a01b0380851660009081526002602090815260408083209389168352929052205410612da25750600790506117f8565b602054612db0906006614d54565b612dc290670de0b6b3a7640000614d54565b6001600160a01b0380851660009081526002602090815260408083209389168352929052205410612df75750600690506117f8565b602054612e05906005614d54565b612e1790670de0b6b3a7640000614d54565b6001600160a01b0380851660009081526002602090815260408083209389168352929052205410612e4c5750600590506117f8565b602054612e5a906004614d54565b612e6c90670de0b6b3a7640000614d54565b6001600160a01b0380851660009081526002602090815260408083209389168352929052205410612ea15750600490506117f8565b602054612eaf906003614d54565b612ec190670de0b6b3a7640000614d54565b6001600160a01b0380851660009081526002602090815260408083209389168352929052205410612ef65750600390506117f8565b602054612f04906002614d54565b612f1690670de0b6b3a7640000614d54565b6001600160a01b0380851660009081526002602090815260408083209389168352929052205410612f4b5750600290506117f8565b602054612f59906001614d54565b612f6b90670de0b6b3a7640000614d54565b6001600160a01b0380851660009081526002602090815260408083209389168352929052205410612fa05750600190506117f8565b50600090506117f8565b600080612fb885858561440d565b6000848152602a602090815260408083206001600160a01b038a16845290915281205491925090612fe99083614e75565b9695505050505050565b6000546001600160a01b0316331461301d5760405162461bcd60e51b815260040161102590614d09565b6001600160a01b0381166000818152601160205260409081902054905163a9059cbb60e01b815290919063a9059cbb9061305d9033908590600401614e8c565b6020604051808303816000875af115801561307c573d6000803e3d6000fd5b505050506040513d601f19601f820116820180604052508101906130a09190614e27565b506040516370a0823160e01b8152306004820152670de0b6b3a7640000906001600160a01b038416906370a0823190602401602060405180830381865afa1580156130ef573d6000803e3d6000fd5b505050506040513d601f19601f820116820180604052508101906131139190614e5c565b61311d9190614d73565b601d55506001600160a01b0316600090815260116020526040812055565b6001600160a01b03811660009081526002602090815260408083203384529091529020548261317c5760405162461bcd60e51b815260040161102590614d95565b828110156131d85760405162461bcd60e51b815260206004820152602360248201527f596f7520646f6e2774206861766520656e6f756768207374616b656420746f6b604482015262656e7360e81b6064820152608401611025565b6131e18261430c565b6131fd5760405162461bcd60e51b815260040161102590614dcc565b33600090815260056020526040902054429061321c906249d400614e44565b81101561336a57336000908152600560205260409020546132409062375f00614e44565b81101561335b5733600090815260056020526040902054613264906224ea00614e44565b81101561334c57336000908152600560205260409020546132889062127500614e44565b81101561333d576000606461329e86604b614d54565b6132a89190614d73565b60405163a9059cbb60e01b81529091506001600160a01b0385169063a9059cbb906132d99033908590600401614e8c565b6020604051808303816000875af11580156132f8573d6000803e3d6000fd5b505050506040513d601f19601f8201168201806040525081019061331c9190614e27565b506133278186614e75565b6006546133349190614e44565b600655506133dd565b6000606461329e866055614d54565b6000606461329e86605a614d54565b6000606461329e86605f614d54565b60405163a9059cbb60e01b81526001600160a01b0384169063a9059cbb906133989033908890600401614e8c565b6020604051808303816000875af11580156133b7573d6000803e3d6000fd5b505050506040513d601f19601f820116820180604052508101906133db9190614e27565b505b6133e7338461261f565b33600090815260046020908152604080832093909355600390522042905561340f8483614e75565b6001600160a01b0384166000908152600260209081526040808320338452909152902055600b54613441908590614e75565b600b556001600160a01b03831660009081526002602090815260408083203384529091529020546134ab576001600a5461347b9190614e75565b600a553360009081526007602052604090205461349a90600190614e75565b336000908152600760205260409020555b50505050565b6000546001600160a01b031633146134db5760405162461bcd60e51b815260040161102590614d09565b6001600160a01b03918216600090815260086020526040902080546001600160a01b03191691909216179055565b6000546001600160a01b031633146135335760405162461bcd60e51b815260040161102590614d09565b602055565b6000613544338361261f565b90506000811161355357600080fd5b60405163a9059cbb60e01b81526001600160a01b0383169063a9059cbb906135819033908590600401614e8c565b6020604051808303816000875af11580156135a0573d6000803e3d6000fd5b505050506040513d601f19601f820116820180604052508101906135c49190614e27565b50503360009081526004602090815260408083208390556003909152902042905550565b600080601b60009054906101000a90046001600160a01b03166001600160a01b031663feaf968c6040518163ffffffff1660e01b815260040160a060405180830381865afa15801561363e573d6000803e3d6000fd5b505050506040513d601f19601f82011682018060405250810190613662919061502c565b505050915050806402540be400613679919061507c565b91505090565b6000546001600160a01b031633146136a95760405162461bcd60e51b815260040161102590614d09565b600091825260266020526040909120805460ff1916911515919091179055565b6000546001600160a01b031633146136f35760405162461bcd60e51b815260040161102590614d09565b6065601754111561370357600080fd5b6065816017546137139190614e44565b111561371e57600080fd5b8060175461372c9190614e44565b60175550565b6001600160a01b038116600090815260076020526040812054819061378d5760405162461bcd60e51b81526020600482015260116024820152704e6f20746f6b656e73207374616b65642160781b6044820152606401611025565b60005b600d548110156137e9576137cb84600d83815481106137b1576137b1614fe1565b6000918252602090912001546001600160a01b0316611777565b6137d59083614e44565b9150806137e181614ff7565b915050613790565b5092915050565b6000805b601a5481101561385157826001600160a01b0316601a828154811061381b5761381b614fe1565b6000918252602090912001546001600160a01b0316141561383f5750600192915050565b8061384981614ff7565b9150506137f4565b50600092915050565b6000546001600160a01b031633146138845760405162461bcd60e51b815260040161102590614d09565b6000918252601f6020526040909120805460ff1916911515919091179055565b60008181526028602052604090205460ff1615156001146138c457600080fd5b6000818152602460205260409020546138dc57600080fd5b600084116138fc5760405162461bcd60e51b815260040161102590614d95565b613905826137f0565b6139215760405162461bcd60e51b815260040161102590614dcc565b600081815260246020908152604080832054602e83528184206001600160a01b0387168552909252909120541061395757600080fd5b600081815260246020908152604080832054602e83528184206001600160a01b03871685529092529091205461398e908690614e44565b111561399957600080fd5b3360008181526005602052604090819020429055516323b872dd60e01b81526001600160a01b038416916323b872dd916139da919030908990600401614e03565b6020604051808303816000875af11580156139f9573d6000803e3d6000fd5b505050506040513d601f19601f82011682018060405250810190613a1d9190614e27565b50613a283382614a03565b6000818152602a60209081526040808320338452909152902054613a4d908590614e44565b6000828152602a60209081526040808320338452825280832093909355838252602c90522054613a7d9085614d54565b6000828152603060209081526040808320338452909152902054613aa19190614e44565b6000828152603060209081526040808320338452825280832093909355838252602d81528282206001600160a01b038616835290522054613ae3908590614e44565b6000828152602d602090815260408083206001600160a01b03871680855290835281842094909455848352602e82528083209383529290522054613b28908590614e44565b6000828152602e602090815260408083206001600160a01b0387168452909152902055601354613b59908590614e44565b60135550505050565b6000546001600160a01b03163314613b8c5760405162461bcd60e51b815260040161102590614d09565b60009182526024602052604090912055565b6000546001600160a01b03163314613bc85760405162461bcd60e51b815260040161102590614d09565b6000918252602c602052604090912055565b6001600160a01b038116600090815260026020908152604080832033845290915290205480613c4b5760405162461bcd60e51b815260206004820152601b60248201527f5374616b696e672062616c616e63652063616e6e6f74206265203000000000006044820152606401611025565b613c548261430c565b613c705760405162461bcd60e51b815260040161102590614dcc565b336000908152600560205260409020544290613c8f906249d400614e44565b811015613ddd5733600090815260056020526040902054613cb39062375f00614e44565b811015613dce5733600090815260056020526040902054613cd7906224ea00614e44565b811015613dbf5733600090815260056020526040902054613cfb9062127500614e44565b811015613db05760006064613d1184604b614d54565b613d1b9190614d73565b60405163a9059cbb60e01b81529091506001600160a01b0385169063a9059cbb90613d4c9033908590600401614e8c565b6020604051808303816000875af1158015613d6b573d6000803e3d6000fd5b505050506040513d601f19601f82011682018060405250810190613d8f9190614e27565b50613d9a8184614e75565b600654613da79190614e44565b60065550613e50565b60006064613d11846055614d54565b60006064613d1184605a614d54565b60006064613d1184605f614d54565b60405163a9059cbb60e01b81526001600160a01b0384169063a9059cbb90613e0b9033908690600401614e8c565b6020604051808303816000875af1158015613e2a573d6000803e3d6000fd5b505050506040513d601f19601f82011682018060405250810190613e4e9190614e27565b505b613e5a338461261f565b336000908152600460209081526040808320939093556003905220429055600b54613e86908390614e75565b600b556001600160a01b038316600090815260026020908152604080832033845282528083208390556007909152902054613ec390600190614e75565b33600090815260076020526040902055600a54613ee290600190614e75565b600a55505050565b6000546001600160a01b03163314613f145760405162461bcd60e51b815260040161102590614d09565b600082815260326020526040902054613f2e908290614e44565b6000928352603260205260409092209190915550565b6000546001600160a01b03163314613f6e5760405162461bcd60e51b815260040161102590614d09565b60405163a9059cbb60e01b81526001600160a01b0383169063a9059cbb906124459033908590600401614e8c565b60008181526026602052604090205460ff161515600114613fbc57600080fd5b6001600160a01b0383166000908152600260209081526040808320338452909152902054685150ae84a8cdf000001115613ff557600080fd5b6000614001338561264f565b1161400b57600080fd5b60008181526024602052604090205461402357600080fd5b600084116140435760405162461bcd60e51b815260040161102590614d95565b61404c826137f0565b6140685760405162461bcd60e51b815260040161102590614dcc565b600081815260246020908152604080832054602e83528184206001600160a01b0387168552909252909120541061409e57600080fd5b600081815260246020908152604080832054602e83528184206001600160a01b0387168552909252909120546140d5908690614e44565b11156140e057600080fd5b60006140ed33858461440d565b6000838152602a60209081526040808320338452909152812054919250906141159083614e75565b90506000811161412457600080fd5b8086111561413157600080fd5b3360008181526005602052604090819020429055516323b872dd60e01b81526001600160a01b038616916323b872dd91614172919030908b90600401614e03565b6020604051808303816000875af1158015614191573d6000803e3d6000fd5b505050506040513d601f19601f820116820180604052508101906141b59190614e27565b506141c03384614a03565b6000838152602a602090815260408083203384529091529020546141e5908790614e44565b6000848152602a60209081526040808320338452825280832093909355858252602c905220546142159087614d54565b60008481526030602090815260408083203384529091529020546142399190614e44565b6000848152603060209081526040808320338452825280832093909355858252602d81528282206001600160a01b03881683529052205461427b908790614e44565b6000848152602d602090815260408083206001600160a01b03891680855290835281842094909455868352602e825280832093835292905220546142c0908790614e44565b6000848152602e602090815260408083206001600160a01b03891684529091529020556013546142f1908790614e44565b601355505050505050565b6009818154811061180e57600080fd5b6000805b600d5481101561385157826001600160a01b0316600d828154811061433757614337614fe1565b6000918252602090912001546001600160a01b0316141561435b5750600192915050565b8061436581614ff7565b915050614310565b600080546001600160a01b031633146143985760405162461bcd60e51b815260040161102590614d09565b6040516370a0823160e01b81523060048201526001600160a01b038316906370a0823190602401602060405180830381865afa1580156143dc573d6000803e3d6000fd5b505050506040513d601f19601f820116820180604052508101906144009190614e5c565b601d81905590505b919050565b60008181526025602052604081205460ff16151560011461442d57600080fd5b60008281526024602052604090205461444557600080fd5b600060015b601d8110156144a1576000848152602160209081526040808320848452825280832054601e90925282205461447f9190614d54565b905061448b8184614e44565b925050808061449990614ff7565b91505061444a565b506000838152602460205260408120546144bc908390614d73565b6001600160a01b03871660009081526023602090815260408083205488845260218352818420818552835281842054601e9093529083205493945092909182856145068285614d54565b6145109190614d54565b61190f9190614d73565b6019818154811061180e57600080fd5b6001600160a01b03808216600090815260086020526040808220548151633fabe5a360e21b815291519293849391169182918491839163feaf968c9160048082019260a0929091908290030181865afa15801561458b573d6000803e3d6000fd5b505050506040513d601f19601f820116820180604052508101906145af919061502c565b5050509150506000826001600160a01b031663313ce5676040518163ffffffff1660e01b8152600401602060405180830381865afa1580156145f5573d6000803e3d6000fd5b505050506040513d601f19601f820116820180604052508101906146199190615101565b919760ff909216965090945050505050565b60008181526029602052604090205460ff16151560011461464b57600080fd5b6000818152603060209081526040808320338085529083528184205485855260318452828520918552925282205490916146858284614e75565b600085815260326020526040812054919250906064906146a6908690614d54565b6146b09190614d73565b905060006146be8483614e75565b9050600085116146cd57600080fd5b600081116146da57600080fd5b8484106146e657600080fd5b6000868152603360205260409081902054905163a9059cbb60e01b81526001600160a01b039091169063a9059cbb906147259033908590600401614e8c565b6020604051808303816000875af1158015614744573d6000803e3d6000fd5b505050506040513d601f19601f820116820180604052508101906147689190614e27565b50600086815260316020908152604080832033845290915290205461478e908290614e44565b6000968752603160209081526040808920338a52909152909620959095555050505050565b6000546001600160a01b031633146147dd5760405162461bcd60e51b815260040161102590614d09565b6001600160a01b0381166148425760405162461bcd60e51b815260206004820152602660248201527f4f776e61626c653a206e6577206f776e657220697320746865207a65726f206160448201526564647265737360d01b6064820152608401611025565b61231281614b07565b60008181526030602090815260408083206001600160a01b03861680855290835281842054858552603184528285209185529083528184205485855260329093529083205490919083906064906148a3908590614d54565b6148ad9190614d73565b905060006148bb8383614e75565b98975050505050505050565b6000546001600160a01b031633146148f15760405162461bcd60e51b815260040161102590614d09565b600091825260296020526040909120805460ff1916911515919091179055565b600c818154811061180e57600080fd5b602f602052816000526040600020818154811061493d57600080fd5b6000918252602090912001546001600160a01b03169150829050565b6001600160a01b0380821660009081526002602090815260408083209386168352929052205461122e576001600160a01b0382166000908152600760205260409020546149a7906001614e44565b6001600160a01b0383166000908152600760205260409020555050565b6001600160a01b0380821660009081526002602090815260408083209386168352929052205461122e57600a546149fc906001614e44565b600a555050565b6000818152602a602090815260408083206001600160a01b038616845290915290205461122e576001600160a01b0382166000908152602b6020526040902054614a4e906001614e44565b6001600160a01b03929092166000818152602b6020908152604080832095909555928152602f83529283208054600181018255908452919092200180546001600160a01b0319169091179055565b6001600160a01b0380821660009081526010602090815260408083209386168352929052205461122e576001600160a01b0382166000908152601c6020526040902054614aea906001614e44565b6001600160a01b0383166000908152601c60205260409020555050565b600080546001600160a01b038381166001600160a01b0319831681178455604051919092169283917f8be0079c531659141344cd1fd0a4f28419497f9722a3daafe3b4186f6b6457e09190a35050565b80356001600160a01b038116811461440857600080fd5b60008060408385031215614b8157600080fd5b82359150614b9160208401614b57565b90509250929050565b60008060408385031215614bad57600080fd5b50508035926020909101359150565b600060208284031215614bce57600080fd5b614bd782614b57565b9392505050565b801515811461231257600080fd5b60008060408385031215614bff57600080fd5b823591506020830135614c1181614bde565b809150509250929050565b600060208284031215614c2e57600080fd5b5035919050565b60008060408385031215614c4857600080fd5b614c5183614b57565b9150614b9160208401614b57565b60008060008060808587031215614c7557600080fd5b84359350614c8560208601614b57565b9250614c9360408601614b57565b9396929550929360600135925050565b60008060408385031215614cb657600080fd5b614cbf83614b57565b946020939093013593505050565b600080600060608486031215614ce257600080fd5b614ceb84614b57565b9250614cf960208501614b57565b9150604084013590509250925092565b6020808252818101527f4f776e61626c653a2063616c6c6572206973206e6f7420746865206f776e6572604082015260600190565b634e487b7160e01b600052601160045260246000fd5b6000816000190483118215151615614d6e57614d6e614d3e565b500290565b600082614d9057634e487b7160e01b600052601260045260246000fd5b500490565b6020808252601a908201527f416d6f756e74206d757374206265206d6f7265207468616e2030000000000000604082015260600190565b6020808252601e908201527f546f6b656e2069732063757272656e746c79206e6f7420616c6c6f7765640000604082015260600190565b6001600160a01b039384168152919092166020820152604081019190915260600190565b600060208284031215614e3957600080fd5b8151614bd781614bde565b60008219821115614e5757614e57614d3e565b500190565b600060208284031215614e6e57600080fd5b5051919050565b600082821015614e8757614e87614d3e565b500390565b6001600160a01b03929092168252602082015260400190565b6020808252602c908201527f596f7520646f6e2774206861766520656e6f756768207075726368617365642060408201526b746f6b656e73206c6566742160a01b606082015260800190565b600181815b80851115614f2c578160001904821115614f1257614f12614d3e565b80851615614f1f57918102915b93841c9390800290614ef6565b509250929050565b600082614f43575060016117f8565b81614f50575060006117f8565b8160018114614f665760028114614f7057614f8c565b60019150506117f8565b60ff841115614f8157614f81614d3e565b50506001821b6117f8565b5060208310610133831016604e8410600b8410161715614faf575081810a6117f8565b614fb98383614ef1565b8060001904821115614fcd57614fcd614d3e565b029392505050565b6000614bd78383614f34565b634e487b7160e01b600052603260045260246000fd5b600060001982141561500b5761500b614d3e565b5060010190565b805169ffffffffffffffffffff8116811461440857600080fd5b600080600080600060a0868803121561504457600080fd5b61504d86615012565b945060208601519350604086015192506060860151915061507060808701615012565b90509295509295909350565b60006001600160ff1b03818413828413808216868404861116156150a2576150a2614d3e565b600160ff1b60008712828116878305891216156150c1576150c1614d3e565b600087129250878205871284841616156150dd576150dd614d3e565b878505871281841616156150f3576150f3614d3e565b505050929093029392505050565b60006020828403121561511357600080fd5b815160ff81168114614bd757600080fdfea26469706673582212205a64aeb882dc25afd802edf364fb4f4b1e96d519443d2b8c94383daaf78b29fa64736f6c634300080b0033","bytecodeSha1":"e00887ae4c29c080aad38bdd4dd13fe7ea147da3","compiler":{"evm_version":"istanbul","optimizer":{"enabled":true,"runs":200},"version":"0.8.11+commit.d7f03943"},"contractName":"TokenFarm","language":"Solidity","natspec":{"kind":"dev","methods":{"owner()":{"details":"Returns the address of the current owner."},"renounceOwnership()":{"details":"Leaves the contract without owner. It will not be possible to call `onlyOwner` functions anymore. Can only be called by the current owner. NOTE: Renouncing ownership will leave the contract without an owner, thereby removing any functionality that is only available to the owner."},"transferOwnership(address)":{"details":"Transfers ownership of the contract to a new account (`newOwner`). Can only be called by the current owner."}},"version":1},"opcodes":"PUSH1 0x80 PUSH1 0x40 MSTORE CALLVALUE DUP1 ISZERO PUSH2 0x10 JUMPI PUSH1 0x0 DUP1 REVERT JUMPDEST POP PUSH1 0x4 CALLDATASIZE LT PUSH2 0x63E JUMPI PUSH1 0x0 CALLDATALOAD PUSH1 0xE0 SHR DUP1 PUSH4 0x7AB36CDB GT PUSH2 0x336 JUMPI DUP1 PUSH4 0xC98A6C49 GT PUSH2 0x1C3 JUMPI DUP1 PUSH4 0xEE110701 GT PUSH2 0x10F JUMPI DUP1 PUSH4 0xF5D9F006 GT PUSH2 0xAD JUMPI DUP1 PUSH4 0xFB4854AA GT PUSH2 0x87 JUMPI DUP1 PUSH4 0xFB4854AA EQ PUSH2 0xF92 JUMPI DUP1 PUSH4 0xFD5E6DD1 EQ PUSH2 0xFB5 JUMPI DUP1 PUSH4 0xFE0A9E00 EQ PUSH2 0xFC8 JUMPI DUP1 PUSH4 0xFE833831 EQ PUSH2 0xFDB JUMPI PUSH1 0x0 DUP1 REVERT JUMPDEST DUP1 PUSH4 0xF5D9F006 EQ PUSH2 0xF59 JUMPI DUP1 PUSH4 0xFA95CF82 EQ PUSH2 0xF6C JUMPI DUP1 PUSH4 0xFB27B0ED EQ PUSH2 0xF7F JUMPI PUSH1 0x0 DUP1 REVERT JUMPDEST DUP1 PUSH4 0xF1C5D6C2 GT PUSH2 0xE9 JUMPI DUP1 PUSH4 0xF1C5D6C2 EQ PUSH2 0xEE8 JUMPI DUP1 PUSH4 0xF1DA907E EQ PUSH2 0xF10 JUMPI DUP1 PUSH4 0xF23E5423 EQ PUSH2 0xF33 JUMPI DUP1 PUSH4 0xF2FDE38B EQ PUSH2 0xF46 JUMPI PUSH1 0x0 DUP1 REVERT JUMPDEST DUP1 PUSH4 0xEE110701 EQ PUSH2 0xEAC JUMPI DUP1 PUSH4 0xEF8BD305 EQ PUSH2 0xECC JUMPI DUP1 PUSH4 0xF08AAE81 EQ PUSH2 0xED5 JUMPI PUSH1 0x0 DUP1 REVERT JUMPDEST DUP1 PUSH4 0xDBD94009 GT PUSH2 0x17C JUMPI DUP1 PUSH4 0xE2453396 GT PUSH2 0x156 JUMPI DUP1 PUSH4 0xE2453396 EQ PUSH2 0xE3B JUMPI DUP1 PUSH4 0xE354E1C2 EQ PUSH2 0xE5B JUMPI DUP1 PUSH4 0xE4C78422 EQ PUSH2 0xE86 JUMPI DUP1 PUSH4 0xEACE7E23 EQ PUSH2 0xE99 JUMPI PUSH1 0x0 DUP1 REVERT JUMPDEST DUP1 PUSH4 0xDBD94009 EQ PUSH2 0xDEA JUMPI DUP1 PUSH4 0xDC0D3DFF EQ PUSH2 0xE15 JUMPI DUP1 PUSH4 0xDD5B8467 EQ PUSH2 0xE28 JUMPI PUSH1 0x0 DUP1 REVERT JUMPDEST DUP1 PUSH4 0xC98A6C49 EQ PUSH2 0xD6A JUMPI DUP1 PUSH4 0xCA97FC29 EQ PUSH2 0xD7D JUMPI DUP1 PUSH4 0xCCD35BB2 EQ PUSH2 0xD86 JUMPI DUP1 PUSH4 0xCD32E792 EQ PUSH2 0xD99 JUMPI DUP1 PUSH4 0xCE05EA66 EQ PUSH2 0xDAC JUMPI DUP1 PUSH4 0xDBA586F2 EQ PUSH2 0xDD7 JUMPI PUSH1 0x0 DUP1 REVERT JUMPDEST DUP1 PUSH4 0xA4ABF261 GT PUSH2 0x282 JUMPI DUP1 PUSH4 0xB379BC6A GT PUSH2 0x23B JUMPI DUP1 PUSH4 0xB83E0234 GT PUSH2 0x215 JUMPI DUP1 PUSH4 0xB83E0234 EQ PUSH2 0xD1B JUMPI DUP1 PUSH4 0xBDE63A92 EQ PUSH2 0xD3B JUMPI DUP1 PUSH4 0xC071CF83 EQ PUSH2 0xD4E JUMPI DUP1 PUSH4 0xC8846CDB EQ PUSH2 0xD57 JUMPI PUSH1 0x0 DUP1 REVERT JUMPDEST DUP1 PUSH4 0xB379BC6A EQ PUSH2 0xCD5 JUMPI DUP1 PUSH4 0xB57EFF10 EQ PUSH2 0xCF5 JUMPI DUP1 PUSH4 0xB75B0988 EQ PUSH2 0xD08 JUMPI PUSH1 0x0 DUP1 REVERT JUMPDEST DUP1 PUSH4 0xA4ABF261 EQ PUSH2 0xC4D JUMPI DUP1 PUSH4 0xAF3F5E22 EQ PUSH2 0xC60 JUMPI DUP1 PUSH4 0xB0E31B2D EQ PUSH2 0xC73 JUMPI DUP1 PUSH4 0xB1150702 EQ PUSH2 0xC7C JUMPI DUP1 PUSH4 0xB195558C EQ PUSH2 0xC9F JUMPI DUP1 PUSH4 0xB2E87781 EQ PUSH2 0xCB2 JUMPI PUSH1 0x0 DUP1 REVERT JUMPDEST DUP1 PUSH4 0x8DA5CB5B GT PUSH2 0x2EF JUMPI DUP1 PUSH4 0x98D5FDCA GT PUSH2 0x2C9 JUMPI DUP1 PUSH4 0x98D5FDCA EQ PUSH2 0xBFE JUMPI DUP1 PUSH4 0x9B67F4BE EQ PUSH2 0xC06 JUMPI DUP1 PUSH4 0x9F20F62D EQ PUSH2 0xC19 JUMPI DUP1 PUSH4 0xA307BB0C EQ PUSH2 0xC44 JUMPI PUSH1 0x0 DUP1 REVERT JUMPDEST DUP1 PUSH4 0x8DA5CB5B EQ PUSH2 0xBAF JUMPI DUP1 PUSH4 0x8DCB654B EQ PUSH2 0xBC0 JUMPI DUP1 PUSH4 0x96BB1FEF EQ PUSH2 0xBEB JUMPI PUSH1 0x0 DUP1 REVERT JUMPDEST DUP1 PUSH4 0x7AB36CDB EQ PUSH2 0xB10 JUMPI DUP1 PUSH4 0x84D269AD EQ PUSH2 0xB33 JUMPI DUP1 PUSH4 0x850FB311 EQ PUSH2 0xB46 JUMPI DUP1 PUSH4 0x877DD39D EQ PUSH2 0xB69 JUMPI DUP1 PUSH4 0x8A757EC2 EQ PUSH2 0xB7C JUMPI DUP1 PUSH4 0x8B20C4C2 EQ PUSH2 0xB8F JUMPI PUSH1 0x0 DUP1 REVERT JUMPDEST DUP1 PUSH4 0x409ED87E GT PUSH2 0x4CF JUMPI DUP1 PUSH4 0x6323085C GT PUSH2 0x41B JUMPI DUP1 PUSH4 0x6F8DA993 GT PUSH2 0x3B9 JUMPI DUP1 PUSH4 0x7737721B GT PUSH2 0x393 JUMPI DUP1 PUSH4 0x7737721B EQ PUSH2 0xAC4 JUMPI DUP1 PUSH4 0x77A4CFE8 EQ PUSH2 0xAD7 JUMPI DUP1 PUSH4 0x799E93E8 EQ PUSH2 0xAEA JUMPI DUP1 PUSH4 0x79F27C9E EQ PUSH2 0xAFD JUMPI PUSH1 0x0 DUP1 REVERT JUMPDEST DUP1 PUSH4 0x6F8DA993 EQ PUSH2 0xA76 JUMPI DUP1 PUSH4 0x715018A6 EQ PUSH2 0xAA9 JUMPI DUP1 PUSH4 0x7290B3AD EQ PUSH2 0xAB1 JUMPI PUSH1 0x0 DUP1 REVERT JUMPDEST DUP1 PUSH4 0x6B06A625 GT PUSH2 0x3F5 JUMPI DUP1 PUSH4 0x6B06A625 EQ PUSH2 0x9FA JUMPI DUP1 PUSH4 0x6B3DD9E2 EQ PUSH2 0xA23 JUMPI DUP1 PUSH4 0x6E5B6B28 EQ PUSH2 0xA43 JUMPI DUP1 PUSH4 0x6F4A2A2F EQ PUSH2 0xA56 JUMPI PUSH1 0x0 DUP1 REVERT JUMPDEST DUP1 PUSH4 0x6323085C EQ PUSH2 0x9C1 JUMPI DUP1 PUSH4 0x635AB2F7 EQ PUSH2 0x9D4 JUMPI DUP1 PUSH4 0x66B98718 EQ PUSH2 0x9E7 JUMPI PUSH1 0x0 DUP1 REVERT JUMPDEST DUP1 PUSH4 0x5D2DD17B GT PUSH2 0x488 JUMPI DUP1 PUSH4 0x5EB186F8 GT PUSH2 0x462 JUMPI DUP1 PUSH4 0x5EB186F8 EQ PUSH2 0x973 JUMPI DUP1 PUSH4 0x5FBAE1C7 EQ PUSH2 0x986 JUMPI DUP1 PUSH4 0x60AB5852 EQ PUSH2 0x9A6 JUMPI DUP1 PUSH4 0x630B8A8A EQ PUSH2 0x9AE JUMPI PUSH1 0x0 DUP1 REVERT JUMPDEST DUP1 PUSH4 0x5D2DD17B EQ PUSH2 0x93A JUMPI DUP1 PUSH4 0x5D990250 EQ PUSH2 0x94D JUMPI DUP1 PUSH4 0x5E5F2E26 EQ PUSH2 0x960 JUMPI PUSH1 0x0 DUP1 REVERT JUMPDEST DUP1 PUSH4 0x409ED87E EQ PUSH2 0x8BB JUMPI DUP1 PUSH4 0x41A7A45E EQ PUSH2 0x8CE JUMPI DUP1 PUSH4 0x49D96193 EQ PUSH2 0x8E1 JUMPI DUP1 PUSH4 0x5084BE37 EQ PUSH2 0x8F4 JUMPI DUP1 PUSH4 0x544CD5EC EQ PUSH2 0x907 JUMPI DUP1 PUSH4 0x58728788 EQ PUSH2 0x91A JUMPI PUSH1 0x0 DUP1 REVERT JUMPDEST DUP1 PUSH4 0x24F45E67 GT PUSH2 0x58E JUMPI DUP1 PUSH4 0x2B996E68 GT PUSH2 0x547 JUMPI DUP1 PUSH4 0x3D6217A6 GT PUSH2 0x521 JUMPI DUP1 PUSH4 0x3D6217A6 EQ PUSH2 0x855 JUMPI DUP1 PUSH4 0x3D8C3CDD EQ PUSH2 0x875 JUMPI DUP1 PUSH4 0x3DBEE808 EQ PUSH2 0x888 JUMPI DUP1 PUSH4 0x3E47D6F3 EQ PUSH2 0x89B JUMPI PUSH1 0x0 DUP1 REVERT JUMPDEST DUP1 PUSH4 0x2B996E68 EQ PUSH2 0x80F JUMPI DUP1 PUSH4 0x2FBB9CA6 EQ PUSH2 0x82F JUMPI DUP1 PUSH4 0x383CAE1D EQ PUSH2 0x842 JUMPI PUSH1 0x0 DUP1 REVERT JUMPDEST DUP1 PUSH4 0x24F45E67 EQ PUSH2 0x74A JUMPI DUP1 PUSH4 0x264C44FF EQ PUSH2 0x75D JUMPI DUP1 PUSH4 0x276B11DA EQ PUSH2 0x77D JUMPI DUP1 PUSH4 0x27927B3E EQ PUSH2 0x790 JUMPI DUP1 PUSH4 0x27CD08A9 EQ PUSH2 0x7D1 JUMPI DUP1 PUSH4 0x29161A00 EQ PUSH2 0x7E4 JUMPI PUSH1 0x0 DUP1 REVERT JUMPDEST DUP1 PUSH4 0xD8E6E2C GT PUSH2 0x5FB JUMPI DUP1 PUSH4 0x171E44EA GT PUSH2 0x5D5 JUMPI DUP1 PUSH4 0x171E44EA EQ PUSH2 0x708 JUMPI DUP1 PUSH4 0x19D9CAA9 EQ PUSH2 0x71B JUMPI DUP1 PUSH4 0x2029DD77 EQ PUSH2 0x724 JUMPI DUP1 PUSH4 0x218334FE EQ PUSH2 0x737 JUMPI PUSH1 0x0 DUP1 REVERT JUMPDEST DUP1 PUSH4 0xD8E6E2C EQ PUSH2 0x6E5 JUMPI DUP1 PUSH4 0xE53FECB EQ PUSH2 0x6ED JUMPI DUP1 PUSH4 0x1286DF5B EQ PUSH2 0x6F5 JUMPI PUSH1 0x0 DUP1 REVERT JUMPDEST DUP1 PUSH4 0x5558885 EQ PUSH2 0x643 JUMPI DUP1 PUSH4 0x7C54E08 EQ PUSH2 0x681 JUMPI DUP1 PUSH4 0x8846DB1 EQ PUSH2 0x696 JUMPI DUP1 PUSH4 0x8B7D791 EQ PUSH2 0x6C1 JUMPI DUP1 PUSH4 0x9BC33A7 EQ PUSH2 0x6CA JUMPI DUP1 PUSH4 0xBEA440D EQ PUSH2 0x6D2 JUMPI JUMPDEST PUSH1 0x0 DUP1 REVERT JUMPDEST PUSH2 0x66E PUSH2 0x651 CALLDATASIZE PUSH1 0x4 PUSH2 0x4B6E JUMP JUMPDEST PUSH1 0x2E PUSH1 0x20 SWAP1 DUP2 MSTORE PUSH1 0x0 SWAP3 DUP4 MSTORE PUSH1 0x40 DUP1 DUP5 KECCAK256 SWAP1 SWAP2 MSTORE SWAP1 DUP3 MSTORE SWAP1 KECCAK256 SLOAD DUP2 JUMP JUMPDEST PUSH1 0x40 MLOAD SWAP1 DUP2 MSTORE PUSH1 0x20 ADD JUMPDEST PUSH1 0x40 MLOAD DUP1 SWAP2 SUB SWAP1 RETURN JUMPDEST PUSH2 0x694 PUSH2 0x68F CALLDATASIZE PUSH1 0x4 PUSH2 0x4B9A JUMP JUMPDEST PUSH2 0xFFB JUMP JUMPDEST STOP JUMPDEST PUSH2 0x66E PUSH2 0x6A4 CALLDATASIZE PUSH1 0x4 PUSH2 0x4B9A JUMP JUMPDEST PUSH1 0x21 PUSH1 0x20 SWAP1 DUP2 MSTORE PUSH1 0x0 SWAP3 DUP4 MSTORE PUSH1 0x40 DUP1 DUP5 KECCAK256 SWAP1 SWAP2 MSTORE SWAP1 DUP3 MSTORE SWAP1 KECCAK256 SLOAD DUP2 JUMP JUMPDEST PUSH2 0x66E PUSH1 0x17 SLOAD DUP2 JUMP JUMPDEST PUSH2 0x66E PUSH2 0x1040 JUMP JUMPDEST PUSH2 0x694 PUSH2 0x6E0 CALLDATASIZE PUSH1 0x4 PUSH2 0x4B6E JUMP JUMPDEST PUSH2 0x107D JUMP JUMPDEST PUSH2 0x66E PUSH2 0x1232 JUMP JUMPDEST PUSH2 0x694 PUSH2 0x12A5 JUMP JUMPDEST PUSH2 0x694 PUSH2 0x703 CALLDATASIZE PUSH1 0x4 PUSH2 0x4B6E JUMP JUMPDEST PUSH2 0x13C8 JUMP JUMPDEST PUSH2 0x694 PUSH2 0x716 CALLDATASIZE PUSH1 0x4 PUSH2 0x4BBC JUMP JUMPDEST PUSH2 0x14A4 JUMP JUMPDEST PUSH2 0x66E PUSH1 0x13 SLOAD DUP2 JUMP JUMPDEST PUSH2 0x694 PUSH2 0x732 CALLDATASIZE PUSH1 0x4 PUSH2 0x4BEC JUMP JUMPDEST PUSH2 0x1520 JUMP JUMPDEST PUSH2 0x694 PUSH2 0x745 CALLDATASIZE PUSH1 0x4 PUSH2 0x4B9A JUMP JUMPDEST PUSH2 0x156A JUMP JUMPDEST PUSH2 0x694 PUSH2 0x758 CALLDATASIZE PUSH1 0x4 PUSH2 0x4C1C JUMP JUMPDEST PUSH2 0x1748 JUMP JUMPDEST PUSH2 0x66E PUSH2 0x76B CALLDATASIZE PUSH1 0x4 PUSH2 0x4C1C JUMP JUMPDEST PUSH1 0x24 PUSH1 0x20 MSTORE PUSH1 0x0 SWAP1 DUP2 MSTORE PUSH1 0x40 SWAP1 KECCAK256 SLOAD DUP2 JUMP JUMPDEST PUSH2 0x66E PUSH2 0x78B CALLDATASIZE PUSH1 0x4 PUSH2 0x4C35 JUMP JUMPDEST PUSH2 0x1777 JUMP JUMPDEST PUSH2 0x7B9 PUSH2 0x79E CALLDATASIZE PUSH1 0x4 PUSH2 0x4BBC JUMP JUMPDEST PUSH1 0x8 PUSH1 0x20 MSTORE PUSH1 0x0 SWAP1 DUP2 MSTORE PUSH1 0x40 SWAP1 KECCAK256 SLOAD PUSH1 0x1 PUSH1 0x1 PUSH1 0xA0 SHL SUB AND DUP2 JUMP JUMPDEST PUSH1 0x40 MLOAD PUSH1 0x1 PUSH1 0x1 PUSH1 0xA0 SHL SUB SWAP1 SWAP2 AND DUP2 MSTORE PUSH1 0x20 ADD PUSH2 0x678 JUMP JUMPDEST PUSH2 0x7B9 PUSH2 0x7DF CALLDATASIZE PUSH1 0x4 PUSH2 0x4C1C JUMP JUMPDEST PUSH2 0x17FE JUMP JUMPDEST PUSH2 0x66E PUSH2 0x7F2 CALLDATASIZE PUSH1 0x4 PUSH2 0x4C35 JUMP JUMPDEST PUSH1 0x2 PUSH1 0x20 SWAP1 DUP2 MSTORE PUSH1 0x0 SWAP3 DUP4 MSTORE PUSH1 0x40 DUP1 DUP5 KECCAK256 SWAP1 SWAP2 MSTORE SWAP1 DUP3 MSTORE SWAP1 KECCAK256 SLOAD DUP2 JUMP JUMPDEST PUSH2 0x66E PUSH2 0x81D CALLDATASIZE PUSH1 0x4 PUSH2 0x4C1C JUMP JUMPDEST PUSH1 0x1E PUSH1 0x20 MSTORE PUSH1 0x0 SWAP1 DUP2 MSTORE PUSH1 0x40 SWAP1 KECCAK256 SLOAD DUP2 JUMP JUMPDEST PUSH2 0x694 PUSH2 0x83D CALLDATASIZE PUSH1 0x4 PUSH2 0x4B6E JUMP JUMPDEST PUSH2 0x1828 JUMP JUMPDEST PUSH1 0x1B SLOAD PUSH2 0x7B9 SWAP1 PUSH1 0x1 PUSH1 0x1 PUSH1 0xA0 SHL SUB AND DUP2 JUMP JUMPDEST PUSH2 0x66E PUSH2 0x863 CALLDATASIZE PUSH1 0x4 PUSH2 0x4BBC JUMP JUMPDEST PUSH1 0x23 PUSH1 0x20 MSTORE PUSH1 0x0 SWAP1 DUP2 MSTORE PUSH1 0x40 SWAP1 KECCAK256 SLOAD DUP2 JUMP JUMPDEST PUSH2 0x66E PUSH2 0x883 CALLDATASIZE PUSH1 0x4 PUSH2 0x4C35 JUMP JUMPDEST PUSH2 0x1880 JUMP JUMPDEST PUSH2 0x694 PUSH2 0x896 CALLDATASIZE PUSH1 0x4 PUSH2 0x4BBC JUMP JUMPDEST PUSH2 0x191D JUMP JUMPDEST PUSH2 0x66E PUSH2 0x8A9 CALLDATASIZE PUSH1 0x4 PUSH2 0x4BBC JUMP JUMPDEST PUSH1 0x18 PUSH1 0x20 MSTORE PUSH1 0x0 SWAP1 DUP2 MSTORE PUSH1 0x40 SWAP1 KECCAK256 SLOAD DUP2 JUMP JUMPDEST PUSH2 0x694 PUSH2 0x8C9 CALLDATASIZE PUSH1 0x4 PUSH2 0x4C1C JUMP JUMPDEST PUSH2 0x19C2 JUMP JUMPDEST PUSH2 0x694 PUSH2 0x8DC CALLDATASIZE PUSH1 0x4 PUSH2 0x4BEC JUMP JUMPDEST PUSH2 0x1B3B JUMP JUMPDEST PUSH2 0x694 PUSH2 0x8EF CALLDATASIZE PUSH1 0x4 PUSH2 0x4C5F JUMP JUMPDEST PUSH2 0x1B85 JUMP JUMPDEST PUSH2 0x694 PUSH2 0x902 CALLDATASIZE PUSH1 0x4 PUSH2 0x4C1C JUMP JUMPDEST PUSH2 0x1EAF JUMP JUMPDEST PUSH2 0x694 PUSH2 0x915 CALLDATASIZE PUSH1 0x4 PUSH2 0x4B9A JUMP JUMPDEST PUSH2 0x1EDE JUMP JUMPDEST PUSH2 0x66E PUSH2 0x928 CALLDATASIZE PUSH1 0x4 PUSH2 0x4C1C JUMP JUMPDEST PUSH1 0x32 PUSH1 0x20 MSTORE PUSH1 0x0 SWAP1 DUP2 MSTORE PUSH1 0x40 SWAP1 KECCAK256 SLOAD DUP2 JUMP JUMPDEST PUSH2 0x694 PUSH2 0x948 CALLDATASIZE PUSH1 0x4 PUSH2 0x4BEC JUMP JUMPDEST PUSH2 0x1F1A JUMP JUMPDEST PUSH2 0x694 PUSH2 0x95B CALLDATASIZE PUSH1 0x4 PUSH2 0x4B6E JUMP JUMPDEST PUSH2 0x1F64 JUMP JUMPDEST PUSH2 0x7B9 PUSH2 0x96E CALLDATASIZE PUSH1 0x4 PUSH2 0x4C1C JUMP JUMPDEST PUSH2 0x220B JUMP JUMPDEST PUSH1 0xE SLOAD PUSH2 0x7B9 SWAP1 PUSH1 0x1 PUSH1 0x1 PUSH1 0xA0 SHL SUB AND DUP2 JUMP JUMPDEST PUSH2 0x66E PUSH2 0x994 CALLDATASIZE PUSH1 0x4 PUSH2 0x4C1C JUMP JUMPDEST PUSH1 0x2C PUSH1 0x20 MSTORE PUSH1 0x0 SWAP1 DUP2 MSTORE PUSH1 0x40 SWAP1 KECCAK256 SLOAD DUP2 JUMP JUMPDEST PUSH2 0x694 PUSH2 0x221B JUMP JUMPDEST PUSH2 0x694 PUSH2 0x9BC CALLDATASIZE PUSH1 0x4 PUSH2 0x4BBC JUMP JUMPDEST PUSH2 0x2315 JUMP JUMPDEST PUSH2 0x66E PUSH2 0x9CF CALLDATASIZE PUSH1 0x4 PUSH2 0x4C35 JUMP JUMPDEST PUSH2 0x2391 JUMP JUMPDEST PUSH2 0x694 PUSH2 0x9E2 CALLDATASIZE PUSH1 0x4 PUSH2 0x4CA3 JUMP JUMPDEST PUSH2 0x23EB JUMP JUMPDEST PUSH2 0x694 PUSH2 0x9F5 CALLDATASIZE PUSH1 0x4 PUSH2 0x4BBC JUMP JUMPDEST PUSH2 0x248D JUMP JUMPDEST PUSH2 0x7B9 PUSH2 0xA08 CALLDATASIZE PUSH1 0x4 PUSH2 0x4C1C JUMP JUMPDEST PUSH1 0x33 PUSH1 0x20 MSTORE PUSH1 0x0 SWAP1 DUP2 MSTORE PUSH1 0x40 SWAP1 KECCAK256 SLOAD PUSH1 0x1 PUSH1 0x1 PUSH1 0xA0 SHL SUB AND DUP2 JUMP JUMPDEST PUSH2 0x66E PUSH2 0xA31 CALLDATASIZE PUSH1 0x4 PUSH2 0x4BBC JUMP JUMPDEST PUSH1 0x16 PUSH1 0x20 MSTORE PUSH1 0x0 SWAP1 DUP2 MSTORE PUSH1 0x40 SWAP1 KECCAK256 SLOAD DUP2 JUMP JUMPDEST PUSH2 0x66E PUSH2 0xA51 CALLDATASIZE PUSH1 0x4 PUSH2 0x4C1C JUMP JUMPDEST PUSH2 0x24D9 JUMP JUMPDEST PUSH2 0x66E PUSH2 0xA64 CALLDATASIZE PUSH1 0x4 PUSH2 0x4BBC JUMP JUMPDEST PUSH1 0x12 PUSH1 0x20 MSTORE PUSH1 0x0 SWAP1 DUP2 MSTORE PUSH1 0x40 SWAP1 KECCAK256 SLOAD DUP2 JUMP JUMPDEST PUSH2 0xA99 PUSH2 0xA84 CALLDATASIZE PUSH1 0x4 PUSH2 0x4C1C JUMP JUMPDEST PUSH1 0x29 PUSH1 0x20 MSTORE PUSH1 0x0 SWAP1 DUP2 MSTORE PUSH1 0x40 SWAP1 KECCAK256 SLOAD PUSH1 0xFF AND DUP2 JUMP JUMPDEST PUSH1 0x40 MLOAD SWAP1 ISZERO ISZERO DUP2 MSTORE PUSH1 0x20 ADD PUSH2 0x678 JUMP JUMPDEST PUSH2 0x694 PUSH2 0x250D JUMP JUMPDEST PUSH2 0x694 PUSH2 0xABF CALLDATASIZE PUSH1 0x4 PUSH2 0x4B6E JUMP JUMPDEST PUSH2 0x2543 JUMP JUMPDEST PUSH2 0x66E PUSH2 0xAD2 CALLDATASIZE PUSH1 0x4 PUSH2 0x4C35 JUMP JUMPDEST PUSH2 0x261F JUMP JUMPDEST PUSH2 0x66E PUSH2 0xAE5 CALLDATASIZE PUSH1 0x4 PUSH2 0x4C35 JUMP JUMPDEST PUSH2 0x264F JUMP JUMPDEST PUSH2 0x66E PUSH2 0xAF8 CALLDATASIZE PUSH1 0x4 PUSH2 0x4CCD JUMP JUMPDEST PUSH2 0x2FAA JUMP JUMPDEST PUSH2 0x694 PUSH2 0xB0B CALLDATASIZE PUSH1 0x4 PUSH2 0x4BBC JUMP JUMPDEST PUSH2 0x2FF3 JUMP JUMPDEST PUSH2 0xA99 PUSH2 0xB1E CALLDATASIZE PUSH1 0x4 PUSH2 0x4C1C JUMP JUMPDEST PUSH1 0x27 PUSH1 0x20 MSTORE PUSH1 0x0 SWAP1 DUP2 MSTORE PUSH1 0x40 SWAP1 KECCAK256 SLOAD PUSH1 0xFF AND DUP2 JUMP JUMPDEST PUSH2 0x694 PUSH2 0xB41 CALLDATASIZE PUSH1 0x4 PUSH2 0x4B6E JUMP JUMPDEST PUSH2 0x313B JUMP JUMPDEST PUSH2 0xA99 PUSH2 0xB54 CALLDATASIZE PUSH1 0x4 PUSH2 0x4BBC JUMP JUMPDEST PUSH1 0x22 PUSH1 0x20 MSTORE PUSH1 0x0 SWAP1 DUP2 MSTORE PUSH1 0x40 SWAP1 KECCAK256 SLOAD PUSH1 0xFF AND DUP2 JUMP JUMPDEST PUSH2 0x694 PUSH2 0xB77 CALLDATASIZE PUSH1 0x4 PUSH2 0x4C35 JUMP JUMPDEST PUSH2 0x34B1 JUMP JUMPDEST PUSH2 0x694 PUSH2 0xB8A CALLDATASIZE PUSH1 0x4 PUSH2 0x4C1C JUMP JUMPDEST PUSH2 0x3509 JUMP JUMPDEST PUSH2 0x66E PUSH2 0xB9D CALLDATASIZE PUSH1 0x4 PUSH2 0x4BBC JUMP JUMPDEST PUSH1 0x14 PUSH1 0x20 MSTORE PUSH1 0x0 SWAP1 DUP2 MSTORE PUSH1 0x40 SWAP1 KECCAK256 SLOAD DUP2 JUMP JUMPDEST PUSH1 0x0 SLOAD PUSH1 0x1 PUSH1 0x1 PUSH1 0xA0 SHL SUB AND PUSH2 0x7B9 JUMP JUMPDEST PUSH2 0x66E PUSH2 0xBCE CALLDATASIZE PUSH1 0x4 PUSH2 0x4B6E JUMP JUMPDEST PUSH1 0x2A PUSH1 0x20 SWAP1 DUP2 MSTORE PUSH1 0x0 SWAP3 DUP4 MSTORE PUSH1 0x40 DUP1 DUP5 KECCAK256 SWAP1 SWAP2 MSTORE SWAP1 DUP3 MSTORE SWAP1 KECCAK256 SLOAD DUP2 JUMP JUMPDEST PUSH2 0x694 PUSH2 0xBF9 CALLDATASIZE PUSH1 0x4 PUSH2 0x4BBC JUMP JUMPDEST PUSH2 0x3538 JUMP JUMPDEST PUSH2 0x66E PUSH2 0x35E8 JUMP JUMPDEST PUSH2 0x694 PUSH2 0xC14 CALLDATASIZE PUSH1 0x4 PUSH2 0x4BEC JUMP JUMPDEST PUSH2 0x367F JUMP JUMPDEST PUSH2 0x66E PUSH2 0xC27 CALLDATASIZE PUSH1 0x4 PUSH2 0x4C35 JUMP JUMPDEST PUSH1 0x10 PUSH1 0x20 SWAP1 DUP2 MSTORE PUSH1 0x0 SWAP3 DUP4 MSTORE PUSH1 0x40 DUP1 DUP5 KECCAK256 SWAP1 SWAP2 MSTORE SWAP1 DUP3 MSTORE SWAP1 KECCAK256 SLOAD DUP2 JUMP JUMPDEST PUSH2 0x66E PUSH1 0x6 SLOAD DUP2 JUMP JUMPDEST PUSH2 0x694 PUSH2 0xC5B CALLDATASIZE PUSH1 0x4 PUSH2 0x4C1C JUMP JUMPDEST PUSH2 0x36C9 JUMP JUMPDEST PUSH2 0x66E PUSH2 0xC6E CALLDATASIZE PUSH1 0x4 PUSH2 0x4BBC JUMP JUMPDEST PUSH2 0x3732 JUMP JUMPDEST PUSH2 0x66E PUSH1 0xB SLOAD DUP2 JUMP JUMPDEST PUSH2 0xA99 PUSH2 0xC8A CALLDATASIZE PUSH1 0x4 PUSH2 0x4C1C JUMP JUMPDEST PUSH1 0x26 PUSH1 0x20 MSTORE PUSH1 0x0 SWAP1 DUP2 MSTORE PUSH1 0x40 SWAP1 KECCAK256 SLOAD PUSH1 0xFF AND DUP2 JUMP JUMPDEST PUSH2 0xA99 PUSH2 0xCAD CALLDATASIZE PUSH1 0x4 PUSH2 0x4BBC JUMP JUMPDEST PUSH2 0x37F0 JUMP JUMPDEST PUSH2 0xA99 PUSH2 0xCC0 CALLDATASIZE PUSH1 0x4 PUSH2 0x4C1C JUMP JUMPDEST PUSH1 0x1F PUSH1 0x20 MSTORE PUSH1 0x0 SWAP1 DUP2 MSTORE PUSH1 0x40 SWAP1 KECCAK256 SLOAD PUSH1 0xFF AND DUP2 JUMP JUMPDEST PUSH2 0x66E PUSH2 0xCE3 CALLDATASIZE PUSH1 0x4 PUSH2 0x4BBC JUMP JUMPDEST PUSH1 0x1C PUSH1 0x20 MSTORE PUSH1 0x0 SWAP1 DUP2 MSTORE PUSH1 0x40 SWAP1 KECCAK256 SLOAD DUP2 JUMP JUMPDEST PUSH2 0x694 PUSH2 0xD03 CALLDATASIZE PUSH1 0x4 PUSH2 0x4BEC JUMP JUMPDEST PUSH2 0x385A JUMP JUMPDEST PUSH2 0x694 PUSH2 0xD16 CALLDATASIZE PUSH1 0x4 PUSH2 0x4C5F JUMP JUMPDEST PUSH2 0x38A4 JUMP JUMPDEST PUSH2 0x66E PUSH2 0xD29 CALLDATASIZE PUSH1 0x4 PUSH2 0x4BBC JUMP JUMPDEST PUSH1 0x7 PUSH1 0x20 MSTORE PUSH1 0x0 SWAP1 DUP2 MSTORE PUSH1 0x40 SWAP1 KECCAK256 SLOAD DUP2 JUMP JUMPDEST PUSH2 0x694 PUSH2 0xD49 CALLDATASIZE PUSH1 0x4 PUSH2 0x4B9A JUMP JUMPDEST PUSH2 0x3B62 JUMP JUMPDEST PUSH2 0x66E PUSH1 0x1D SLOAD DUP2 JUMP JUMPDEST PUSH2 0x694 PUSH2 0xD65 CALLDATASIZE PUSH1 0x4 PUSH2 0x4B9A JUMP JUMPDEST PUSH2 0x3B9E JUMP JUMPDEST PUSH2 0x694 PUSH2 0xD78 CALLDATASIZE PUSH1 0x4 PUSH2 0x4BBC JUMP JUMPDEST PUSH2 0x3BDA JUMP JUMPDEST PUSH2 0x66E PUSH1 0xA SLOAD DUP2 JUMP JUMPDEST PUSH2 0x694 PUSH2 0xD94 CALLDATASIZE PUSH1 0x4 PUSH2 0x4B9A JUMP JUMPDEST PUSH2 0x3EEA JUMP JUMPDEST PUSH2 0x694 PUSH2 0xDA7 CALLDATASIZE PUSH1 0x4 PUSH2 0x4CA3 JUMP JUMPDEST PUSH2 0x3F44 JUMP JUMPDEST PUSH2 0x66E PUSH2 0xDBA CALLDATASIZE PUSH1 0x4 PUSH2 0x4B6E JUMP JUMPDEST PUSH1 0x31 PUSH1 0x20 SWAP1 DUP2 MSTORE PUSH1 0x0 SWAP3 DUP4 MSTORE PUSH1 0x40 DUP1 DUP5 KECCAK256 SWAP1 SWAP2 MSTORE SWAP1 DUP3 MSTORE SWAP1 KECCAK256 SLOAD DUP2 JUMP JUMPDEST PUSH2 0x694 PUSH2 0xDE5 CALLDATASIZE PUSH1 0x4 PUSH2 0x4C5F JUMP JUMPDEST PUSH2 0x3F9C JUMP JUMPDEST PUSH2 0x66E PUSH2 0xDF8 CALLDATASIZE PUSH1 0x4 PUSH2 0x4B6E JUMP JUMPDEST PUSH1 0x2D PUSH1 0x20 SWAP1 DUP2 MSTORE PUSH1 0x0 SWAP3 DUP4 MSTORE PUSH1 0x40 DUP1 DUP5 KECCAK256 SWAP1 SWAP2 MSTORE SWAP1 DUP3 MSTORE SWAP1 KECCAK256 SLOAD DUP2 JUMP JUMPDEST PUSH2 0x7B9 PUSH2 0xE23 CALLDATASIZE PUSH1 0x4 PUSH2 0x4C1C JUMP JUMPDEST PUSH2 0x42FC JUMP JUMPDEST PUSH2 0xA99 PUSH2 0xE36 CALLDATASIZE PUSH1 0x4 PUSH2 0x4BBC JUMP JUMPDEST PUSH2 0x430C JUMP JUMPDEST PUSH2 0x66E PUSH2 0xE49 CALLDATASIZE PUSH1 0x4 PUSH2 0x4BBC JUMP JUMPDEST PUSH1 0x5 PUSH1 0x20 MSTORE PUSH1 0x0 SWAP1 DUP2 MSTORE PUSH1 0x40 SWAP1 KECCAK256 SLOAD DUP2 JUMP JUMPDEST PUSH2 0x66E PUSH2 0xE69 CALLDATASIZE PUSH1 0x4 PUSH2 0x4B6E JUMP JUMPDEST PUSH1 0x30 PUSH1 0x20 SWAP1 DUP2 MSTORE PUSH1 0x0 SWAP3 DUP4 MSTORE PUSH1 0x40 DUP1 DUP5 KECCAK256 SWAP1 SWAP2 MSTORE SWAP1 DUP3 MSTORE SWAP1 KECCAK256 SLOAD DUP2 JUMP JUMPDEST PUSH2 0x66E PUSH2 0xE94 CALLDATASIZE PUSH1 0x4 PUSH2 0x4BBC JUMP JUMPDEST PUSH2 0x436D JUMP JUMPDEST PUSH2 0x66E PUSH2 0xEA7 CALLDATASIZE PUSH1 0x4 PUSH2 0x4CCD JUMP JUMPDEST PUSH2 0x440D JUMP JUMPDEST PUSH2 0x66E PUSH2 0xEBA CALLDATASIZE PUSH1 0x4 PUSH2 0x4BBC JUMP JUMPDEST PUSH1 0x2B PUSH1 0x20 MSTORE PUSH1 0x0 SWAP1 DUP2 MSTORE PUSH1 0x40 SWAP1 KECCAK256 SLOAD DUP2 JUMP JUMPDEST PUSH2 0x66E PUSH1 0x1 SLOAD DUP2 JUMP JUMPDEST PUSH2 0x7B9 PUSH2 0xEE3 CALLDATASIZE PUSH1 0x4 PUSH2 0x4C1C JUMP JUMPDEST PUSH2 0x451A JUMP JUMPDEST PUSH2 0xEFB PUSH2 0xEF6 CALLDATASIZE PUSH1 0x4 PUSH2 0x4BBC JUMP JUMPDEST PUSH2 0x452A JUMP JUMPDEST PUSH1 0x40 DUP1 MLOAD SWAP3 DUP4 MSTORE PUSH1 0x20 DUP4 ADD SWAP2 SWAP1 SWAP2 MSTORE ADD PUSH2 0x678 JUMP JUMPDEST PUSH2 0xA99 PUSH2 0xF1E CALLDATASIZE PUSH1 0x4 PUSH2 0x4C1C JUMP JUMPDEST PUSH1 0x28 PUSH1 0x20 MSTORE PUSH1 0x0 SWAP1 DUP2 MSTORE PUSH1 0x40 SWAP1 KECCAK256 SLOAD PUSH1 0xFF AND DUP2 JUMP JUMPDEST PUSH2 0x694 PUSH2 0xF41 CALLDATASIZE PUSH1 0x4 PUSH2 0x4C1C JUMP JUMPDEST PUSH2 0x462B JUMP JUMPDEST PUSH2 0x694 PUSH2 0xF54 CALLDATASIZE PUSH1 0x4 PUSH2 0x4BBC JUMP JUMPDEST PUSH2 0x47B3 JUMP JUMPDEST PUSH2 0x66E PUSH2 0xF67 CALLDATASIZE PUSH1 0x4 PUSH2 0x4CCD JUMP JUMPDEST PUSH2 0x484B JUMP JUMPDEST PUSH2 0x694 PUSH2 0xF7A CALLDATASIZE PUSH1 0x4 PUSH2 0x4BEC JUMP JUMPDEST PUSH2 0x48C7 JUMP JUMPDEST PUSH1 0xF SLOAD PUSH2 0x7B9 SWAP1 PUSH1 0x1 PUSH1 0x1 PUSH1 0xA0 SHL SUB AND DUP2 JUMP JUMPDEST PUSH2 0xA99 PUSH2 0xFA0 CALLDATASIZE PUSH1 0x4 PUSH2 0x4C1C JUMP JUMPDEST PUSH1 0x25 PUSH1 0x20 MSTORE PUSH1 0x0 SWAP1 DUP2 MSTORE PUSH1 0x40 SWAP1 KECCAK256 SLOAD PUSH1 0xFF AND DUP2 JUMP JUMPDEST PUSH2 0x7B9 PUSH2 0xFC3 CALLDATASIZE PUSH1 0x4 PUSH2 0x4C1C JUMP JUMPDEST PUSH2 0x4911 JUMP JUMPDEST PUSH2 0x7B9 PUSH2 0xFD6 CALLDATASIZE PUSH1 0x4 PUSH2 0x4B9A JUMP JUMPDEST PUSH2 0x4921 JUMP JUMPDEST PUSH2 0x66E PUSH2 0xFE9 CALLDATASIZE PUSH1 0x4 PUSH2 0x4BBC JUMP JUMPDEST PUSH1 0x11 PUSH1 0x20 MSTORE PUSH1 0x0 SWAP1 DUP2 MSTORE PUSH1 0x40 SWAP1 KECCAK256 SLOAD DUP2 JUMP JUMPDEST PUSH1 0x0 SLOAD PUSH1 0x1 PUSH1 0x1 PUSH1 0xA0 SHL SUB AND CALLER EQ PUSH2 0x102E JUMPI PUSH1 0x40 MLOAD PUSH3 0x461BCD PUSH1 0xE5 SHL DUP2 MSTORE PUSH1 0x4 ADD PUSH2 0x1025 SWAP1 PUSH2 0x4D09 JUMP JUMPDEST PUSH1 0x40 MLOAD DUP1 SWAP2 SUB SWAP1 REVERT JUMPDEST PUSH1 0x0 SWAP2 DUP3 MSTORE PUSH1 0x1E PUSH1 0x20 MSTORE PUSH1 0x40 SWAP1 SWAP2 KECCAK256 SSTORE JUMP JUMPDEST PUSH1 0x0 PUSH9 0x2B5E3AF16B1880000 DUP2 PUSH2 0x1055 PUSH2 0x35E8 JUMP JUMPDEST SWAP1 POP PUSH8 0xDE0B6B3A7640000 DUP2 PUSH2 0x106B DUP3 DUP6 PUSH2 0x4D54 JUMP JUMPDEST PUSH2 0x1075 SWAP2 SWAP1 PUSH2 0x4D73 JUMP JUMPDEST SWAP4 POP POP POP POP SWAP1 JUMP JUMPDEST PUSH1 0x0 DUP3 GT PUSH2 0x109D JUMPI PUSH1 0x40 MLOAD PUSH3 0x461BCD PUSH1 0xE5 SHL DUP2 MSTORE PUSH1 0x4 ADD PUSH2 0x1025 SWAP1 PUSH2 0x4D95 JUMP JUMPDEST PUSH2 0x10A6 DUP2 PUSH2 0x430C JUMP JUMPDEST PUSH2 0x10C2 JUMPI PUSH1 0x40 MLOAD PUSH3 0x461BCD PUSH1 0xE5 SHL DUP2 MSTORE PUSH1 0x4 ADD PUSH2 0x1025 SWAP1 PUSH2 0x4DCC JUMP JUMPDEST PUSH1 0x40 MLOAD PUSH4 0x23B872DD PUSH1 0xE0 SHL DUP2 MSTORE PUSH1 0x1 PUSH1 0x1 PUSH1 0xA0 SHL SUB DUP3 AND SWAP1 PUSH4 0x23B872DD SWAP1 PUSH2 0x10F2 SWAP1 CALLER SWAP1 ADDRESS SWAP1 DUP8 SWAP1 PUSH1 0x4 ADD PUSH2 0x4E03 JUMP JUMPDEST PUSH1 0x20 PUSH1 0x40 MLOAD DUP1 DUP4 SUB DUP2 PUSH1 0x0 DUP8 GAS CALL ISZERO DUP1 ISZERO PUSH2 0x1111 JUMPI RETURNDATASIZE PUSH1 0x0 DUP1 RETURNDATACOPY RETURNDATASIZE PUSH1 0x0 REVERT JUMPDEST POP POP POP POP PUSH1 0x40 MLOAD RETURNDATASIZE PUSH1 0x1F NOT PUSH1 0x1F DUP3 ADD AND DUP3 ADD DUP1 PUSH1 0x40 MSTORE POP DUP2 ADD SWAP1 PUSH2 0x1135 SWAP2 SWAP1 PUSH2 0x4E27 JUMP JUMPDEST POP PUSH2 0x1140 CALLER DUP3 PUSH2 0x4959 JUMP JUMPDEST PUSH2 0x114A CALLER DUP3 PUSH2 0x49C4 JUMP JUMPDEST DUP2 PUSH1 0xB SLOAD PUSH2 0x1158 SWAP2 SWAP1 PUSH2 0x4E44 JUMP JUMPDEST PUSH1 0xB SSTORE PUSH2 0x1165 CALLER DUP3 PUSH2 0x261F JUMP JUMPDEST CALLER PUSH1 0x0 DUP2 DUP2 MSTORE PUSH1 0x4 PUSH1 0x20 SWAP1 DUP2 MSTORE PUSH1 0x40 DUP1 DUP4 KECCAK256 SWAP5 SWAP1 SWAP5 SSTORE PUSH1 0x3 DUP2 MSTORE DUP4 DUP3 KECCAK256 TIMESTAMP SWAP1 DUP2 SWAP1 SSTORE PUSH1 0x5 DUP3 MSTORE DUP5 DUP4 KECCAK256 SSTORE PUSH1 0x1 PUSH1 0x1 PUSH1 0xA0 SHL SUB DUP6 AND DUP3 MSTORE PUSH1 0x2 DUP2 MSTORE DUP4 DUP3 KECCAK256 SWAP3 DUP3 MSTORE SWAP2 SWAP1 SWAP2 MSTORE KECCAK256 SLOAD PUSH2 0x11B6 SWAP1 DUP4 SWAP1 PUSH2 0x4E44 JUMP JUMPDEST PUSH1 0x1 PUSH1 0x1 PUSH1 0xA0 SHL SUB DUP3 AND PUSH1 0x0 SWAP1 DUP2 MSTORE PUSH1 0x2 PUSH1 0x20 SWAP1 DUP2 MSTORE PUSH1 0x40 DUP1 DUP4 KECCAK256 CALLER DUP5 MSTORE DUP3 MSTORE DUP1 DUP4 KECCAK256 SWAP4 SWAP1 SWAP4 SSTORE PUSH1 0x7 SWAP1 MSTORE KECCAK256 SLOAD PUSH1 0x1 EQ ISZERO PUSH2 0x122E JUMPI PUSH1 0xC DUP1 SLOAD PUSH1 0x1 DUP2 ADD DUP3 SSTORE PUSH1 0x0 SWAP2 SWAP1 SWAP2 MSTORE PUSH32 0xDF6966C971051C3D54EC59162606531493A51404A002842F56009D7E5CF4A8C7 ADD DUP1 SLOAD PUSH1 0x1 PUSH1 0x1 PUSH1 0xA0 SHL SUB NOT AND CALLER OR SWAP1 SSTORE JUMPDEST POP POP JUMP JUMPDEST PUSH1 0x1B SLOAD PUSH1 0x40 DUP1 MLOAD PUSH4 0x54FD4D5 PUSH1 0xE4 SHL DUP2 MSTORE SWAP1 MLOAD PUSH1 0x0 SWAP3 PUSH1 0x1 PUSH1 0x1 PUSH1 0xA0 SHL SUB AND SWAP2 PUSH4 0x54FD4D50 SWAP2 PUSH1 0x4 DUP1 DUP4 ADD SWAP3 PUSH1 0x20 SWAP3 SWAP2 SWAP1 DUP3 SWAP1 SUB ADD DUP2 DUP7 GAS STATICCALL ISZERO DUP1 ISZERO PUSH2 0x127C JUMPI RETURNDATASIZE PUSH1 0x0 DUP1 RETURNDATACOPY RETURNDATASIZE PUSH1 0x0 REVERT JUMPDEST POP POP POP POP PUSH1 0x40 MLOAD RETURNDATASIZE PUSH1 0x1F NOT PUSH1 0x1F DUP3 ADD AND DUP3 ADD DUP1 PUSH1 0x40 MSTORE POP DUP2 ADD SWAP1 PUSH2 0x12A0 SWAP2 SWAP1 PUSH2 0x4E5C JUMP JUMPDEST SWAP1 POP SWAP1 JUMP JUMPDEST CALLER PUSH1 0x0 SWAP1 DUP2 MSTORE PUSH1 0x14 PUSH1 0x20 SWAP1 DUP2 MSTORE PUSH1 0x40 DUP1 DUP4 KECCAK256 SLOAD PUSH1 0x16 SWAP1 SWAP3 MSTORE DUP3 KECCAK256 SLOAD SWAP1 SWAP2 PUSH2 0x12CC DUP3 DUP5 PUSH2 0x4E75 JUMP JUMPDEST SWAP1 POP PUSH1 0x0 PUSH1 0x64 DUP5 PUSH1 0x17 SLOAD PUSH2 0x12E0 SWAP2 SWAP1 PUSH2 0x4D54 JUMP JUMPDEST PUSH2 0x12EA SWAP2 SWAP1 PUSH2 0x4D73 JUMP JUMPDEST SWAP1 POP PUSH1 0x0 PUSH2 0x12F8 DUP5 DUP4 PUSH2 0x4E75 JUMP JUMPDEST SWAP1 POP PUSH1 0x0 DUP6 GT PUSH2 0x1307 JUMPI PUSH1 0x0 DUP1 REVERT JUMPDEST PUSH1 0x0 DUP2 GT PUSH2 0x1314 JUMPI PUSH1 0x0 DUP1 REVERT JUMPDEST DUP5 DUP5 LT PUSH2 0x1320 JUMPI PUSH1 0x0 DUP1 REVERT JUMPDEST PUSH1 0xF SLOAD PUSH1 0x40 MLOAD PUSH4 0xA9059CBB PUSH1 0xE0 SHL DUP2 MSTORE PUSH1 0x1 PUSH1 0x1 PUSH1 0xA0 SHL SUB SWAP1 SWAP2 AND SWAP1 PUSH4 0xA9059CBB SWAP1 PUSH2 0x1352 SWAP1 CALLER SWAP1 DUP6 SWAP1 PUSH1 0x4 ADD PUSH2 0x4E8C JUMP JUMPDEST PUSH1 0x20 PUSH1 0x40 MLOAD DUP1 DUP4 SUB DUP2 PUSH1 0x0 DUP8 GAS CALL ISZERO DUP1 ISZERO PUSH2 0x1371 JUMPI RETURNDATASIZE PUSH1 0x0 DUP1 RETURNDATACOPY RETURNDATASIZE PUSH1 0x0 REVERT JUMPDEST POP POP POP POP PUSH1 0x40 MLOAD RETURNDATASIZE PUSH1 0x1F NOT PUSH1 0x1F DUP3 ADD AND DUP3 ADD DUP1 PUSH1 0x40 MSTORE POP DUP2 ADD SWAP1 PUSH2 0x1395 SWAP2 SWAP1 PUSH2 0x4E27 JUMP JUMPDEST POP CALLER PUSH1 0x0 SWAP1 DUP2 MSTORE PUSH1 0x16 PUSH1 0x20 MSTORE PUSH1 0x40 SWAP1 KECCAK256 SLOAD PUSH2 0x13B1 SWAP1 DUP3 SWAP1 PUSH2 0x4E44 JUMP JUMPDEST CALLER PUSH1 0x0 SWAP1 DUP2 MSTORE PUSH1 0x16 PUSH1 0x20 MSTORE PUSH1 0x40 SWAP1 KECCAK256 SSTORE POP POP POP POP POP JUMP JUMPDEST PUSH1 0x0 SLOAD PUSH1 0x1 PUSH1 0x1 PUSH1 0xA0 SHL SUB AND CALLER EQ PUSH2 0x13F2 JUMPI PUSH1 0x40 MLOAD PUSH3 0x461BCD PUSH1 0xE5 SHL DUP2 MSTORE PUSH1 0x4 ADD PUSH2 0x1025 SWAP1 PUSH2 0x4D09 JUMP JUMPDEST PUSH1 0x0 DUP3 DUP2 MSTORE PUSH1 0x2D PUSH1 0x20 SWAP1 DUP2 MSTORE PUSH1 0x40 DUP1 DUP4 KECCAK256 PUSH1 0x1 PUSH1 0x1 PUSH1 0xA0 SHL SUB DUP6 AND DUP1 DUP6 MSTORE SWAP3 MSTORE SWAP2 DUP3 SWAP1 KECCAK256 SLOAD SWAP2 MLOAD PUSH4 0xA9059CBB PUSH1 0xE0 SHL DUP2 MSTORE PUSH4 0xA9059CBB SWAP1 PUSH2 0x1439 SWAP1 CALLER SWAP1 DUP6 SWAP1 PUSH1 0x4 ADD PUSH2 0x4E8C JUMP JUMPDEST PUSH1 0x20 PUSH1 0x40 MLOAD DUP1 DUP4 SUB DUP2 PUSH1 0x0 DUP8 GAS CALL ISZERO DUP1 ISZERO PUSH2 0x1458 JUMPI RETURNDATASIZE PUSH1 0x0 DUP1 RETURNDATACOPY RETURNDATASIZE PUSH1 0x0 REVERT JUMPDEST POP POP POP POP PUSH1 0x40 MLOAD RETURNDATASIZE PUSH1 0x1F NOT PUSH1 0x1F DUP3 ADD AND DUP3 ADD DUP1 PUSH1 0x40 MSTORE POP DUP2 ADD SWAP1 PUSH2 0x147C SWAP2 SWAP1 PUSH2 0x4E27 JUMP JUMPDEST POP POP PUSH1 0x0 SWAP2 DUP3 MSTORE PUSH1 0x2D PUSH1 0x20 SWAP1 DUP2 MSTORE PUSH1 0x40 DUP1 DUP5 KECCAK256 PUSH1 0x1 PUSH1 0x1 PUSH1 0xA0 SHL SUB SWAP1 SWAP4 AND DUP5 MSTORE SWAP2 SWAP1 MSTORE DUP2 KECCAK256 SSTORE JUMP JUMPDEST PUSH1 0x0 SLOAD PUSH1 0x1 PUSH1 0x1 PUSH1 0xA0 SHL SUB AND CALLER EQ PUSH2 0x14CE JUMPI PUSH1 0x40 MLOAD PUSH3 0x461BCD PUSH1 0xE5 SHL DUP2 MSTORE PUSH1 0x4 ADD PUSH2 0x1025 SWAP1 PUSH2 0x4D09 JUMP JUMPDEST PUSH1 0xD DUP1 SLOAD PUSH1 0x1 DUP2 ADD DUP3 SSTORE PUSH1 0x0 SWAP2 SWAP1 SWAP2 MSTORE PUSH32 0xD7B6990105719101DABEB77144F2A3385C8033ACD3AF97E9423A695E81AD1EB5 ADD DUP1 SLOAD PUSH1 0x1 PUSH1 0x1 PUSH1 0xA0 SHL SUB NOT AND PUSH1 0x1 PUSH1 0x1 PUSH1 0xA0 SHL SUB SWAP3 SWAP1 SWAP3 AND SWAP2 SWAP1 SWAP2 OR SWAP1 SSTORE JUMP JUMPDEST PUSH1 0x0 SLOAD PUSH1 0x1 PUSH1 0x1 PUSH1 0xA0 SHL SUB AND CALLER EQ PUSH2 0x154A JUMPI PUSH1 0x40 MLOAD PUSH3 0x461BCD PUSH1 0xE5 SHL DUP2 MSTORE PUSH1 0x4 ADD PUSH2 0x1025 SWAP1 PUSH2 0x4D09 JUMP JUMPDEST PUSH1 0x0 SWAP2 DUP3 MSTORE PUSH1 0x28 PUSH1 0x20 MSTORE PUSH1 0x40 SWAP1 SWAP2 KECCAK256 DUP1 SLOAD PUSH1 0xFF NOT AND SWAP2 ISZERO ISZERO SWAP2 SWAP1 SWAP2 OR SWAP1 SSTORE JUMP JUMPDEST PUSH1 0x0 DUP3 DUP2 MSTORE PUSH1 0x29 PUSH1 0x20 MSTORE PUSH1 0x40 SWAP1 KECCAK256 SLOAD PUSH1 0xFF AND ISZERO ISZERO PUSH1 0x1 EQ PUSH2 0x158A JUMPI PUSH1 0x0 DUP1 REVERT JUMPDEST PUSH1 0x0 DUP3 DUP2 MSTORE PUSH1 0x30 PUSH1 0x20 SWAP1 DUP2 MSTORE PUSH1 0x40 DUP1 DUP4 KECCAK256 CALLER DUP1 DUP6 MSTORE SWAP1 DUP4 MSTORE DUP2 DUP5 KECCAK256 SLOAD DUP7 DUP6 MSTORE PUSH1 0x31 DUP5 MSTORE DUP3 DUP6 KECCAK256 SWAP2 DUP6 MSTORE SWAP3 MSTORE DUP3 KECCAK256 SLOAD SWAP1 SWAP2 PUSH2 0x15C4 DUP3 DUP5 PUSH2 0x4E75 JUMP JUMPDEST PUSH1 0x0 DUP7 DUP2 MSTORE PUSH1 0x32 PUSH1 0x20 MSTORE PUSH1 0x40 DUP2 KECCAK256 SLOAD SWAP2 SWAP3 POP SWAP1 PUSH1 0x64 SWAP1 PUSH2 0x15E5 SWAP1 DUP7 SWAP1 PUSH2 0x4D54 JUMP JUMPDEST PUSH2 0x15EF SWAP2 SWAP1 PUSH2 0x4D73 JUMP JUMPDEST SWAP1 POP PUSH1 0x0 PUSH2 0x15FD DUP5 DUP4 PUSH2 0x4E75 JUMP JUMPDEST SWAP1 POP PUSH1 0x0 DUP2 GT PUSH2 0x160C JUMPI PUSH1 0x0 DUP1 REVERT JUMPDEST DUP1 DUP7 GT ISZERO PUSH2 0x1619 JUMPI PUSH1 0x0 DUP1 REVERT JUMPDEST DUP5 DUP5 LT PUSH2 0x1625 JUMPI PUSH1 0x0 DUP1 REVERT JUMPDEST PUSH1 0x0 DUP7 GT PUSH2 0x1645 JUMPI PUSH1 0x40 MLOAD PUSH3 0x461BCD PUSH1 0xE5 SHL DUP2 MSTORE PUSH1 0x4 ADD PUSH2 0x1025 SWAP1 PUSH2 0x4D95 JUMP JUMPDEST DUP6 DUP4 LT ISZERO PUSH2 0x1665 JUMPI PUSH1 0x40 MLOAD PUSH3 0x461BCD PUSH1 0xE5 SHL DUP2 MSTORE PUSH1 0x4 ADD PUSH2 0x1025 SWAP1 PUSH2 0x4EA5 JUMP JUMPDEST DUP5 PUSH2 0x1670 DUP8 DUP7 PUSH2 0x4E44 JUMP JUMPDEST LT PUSH2 0x167A JUMPI PUSH1 0x0 DUP1 REVERT JUMPDEST PUSH1 0x0 DUP8 DUP2 MSTORE PUSH1 0x33 PUSH1 0x20 MSTORE PUSH1 0x40 SWAP1 DUP2 SWAP1 KECCAK256 SLOAD SWAP1 MLOAD PUSH4 0xA9059CBB PUSH1 0xE0 SHL DUP2 MSTORE PUSH1 0x1 PUSH1 0x1 PUSH1 0xA0 SHL SUB SWAP1 SWAP2 AND SWAP1 PUSH4 0xA9059CBB SWAP1 PUSH2 0x16B9 SWAP1 CALLER SWAP1 DUP11 SWAP1 PUSH1 0x4 ADD PUSH2 0x4E8C JUMP JUMPDEST PUSH1 0x20 PUSH1 0x40 MLOAD DUP1 DUP4 SUB DUP2 PUSH1 0x0 DUP8 GAS CALL ISZERO DUP1 ISZERO PUSH2 0x16D8 JUMPI RETURNDATASIZE PUSH1 0x0 DUP1 RETURNDATACOPY RETURNDATASIZE PUSH1 0x0 REVERT JUMPDEST POP POP POP POP PUSH1 0x40 MLOAD RETURNDATASIZE PUSH1 0x1F NOT PUSH1 0x1F DUP3 ADD AND DUP3 ADD DUP1 PUSH1 0x40 MSTORE POP DUP2 ADD SWAP1 PUSH2 0x16FC SWAP2 SWAP1 PUSH2 0x4E27 JUMP JUMPDEST POP PUSH1 0x0 DUP8 DUP2 MSTORE PUSH1 0x31 PUSH1 0x20 SWAP1 DUP2 MSTORE PUSH1 0x40 DUP1 DUP4 KECCAK256 CALLER DUP5 MSTORE SWAP1 SWAP2 MSTORE SWAP1 KECCAK256 SLOAD PUSH2 0x1722 SWAP1 DUP8 SWAP1 PUSH2 0x4E44 JUMP JUMPDEST PUSH1 0x0 SWAP8 DUP9 MSTORE PUSH1 0x31 PUSH1 0x20 SWAP1 DUP2 MSTORE PUSH1 0x40 DUP1 DUP11 KECCAK256 CALLER DUP12 MSTORE SWAP1 SWAP2 MSTORE SWAP1 SWAP8 KECCAK256 SWAP7 SWAP1 SWAP7 SSTORE POP POP POP POP POP POP JUMP JUMPDEST PUSH1 0x0 SLOAD PUSH1 0x1 PUSH1 0x1 PUSH1 0xA0 SHL SUB AND CALLER EQ PUSH2 0x1772 JUMPI PUSH1 0x40 MLOAD PUSH3 0x461BCD PUSH1 0xE5 SHL DUP2 MSTORE PUSH1 0x4 ADD PUSH2 0x1025 SWAP1 PUSH2 0x4D09 JUMP JUMPDEST PUSH1 0x1 SSTORE JUMP JUMPDEST PUSH1 0x1 PUSH1 0x1 PUSH1 0xA0 SHL SUB DUP3 AND PUSH1 0x0 SWAP1 DUP2 MSTORE PUSH1 0x7 PUSH1 0x20 MSTORE PUSH1 0x40 DUP2 KECCAK256 SLOAD PUSH2 0x179C JUMPI POP PUSH1 0x0 PUSH2 0x17F8 JUMP JUMPDEST PUSH1 0x0 DUP1 PUSH2 0x17A8 DUP5 PUSH2 0x452A JUMP JUMPDEST SWAP1 SWAP3 POP SWAP1 POP PUSH2 0x17B8 DUP2 PUSH1 0xA PUSH2 0x4FD5 JUMP JUMPDEST PUSH1 0x1 PUSH1 0x1 PUSH1 0xA0 SHL SUB DUP1 DUP7 AND PUSH1 0x0 SWAP1 DUP2 MSTORE PUSH1 0x2 PUSH1 0x20 SWAP1 DUP2 MSTORE PUSH1 0x40 DUP1 DUP4 KECCAK256 SWAP4 DUP11 AND DUP4 MSTORE SWAP3 SWAP1 MSTORE KECCAK256 SLOAD PUSH2 0x17E9 SWAP1 DUP5 SWAP1 PUSH2 0x4D54 JUMP JUMPDEST PUSH2 0x17F3 SWAP2 SWAP1 PUSH2 0x4D73 JUMP JUMPDEST SWAP3 POP POP POP JUMPDEST SWAP3 SWAP2 POP POP JUMP JUMPDEST PUSH1 0x1A DUP2 DUP2 SLOAD DUP2 LT PUSH2 0x180E JUMPI PUSH1 0x0 DUP1 REVERT JUMPDEST PUSH1 0x0 SWAP2 DUP3 MSTORE PUSH1 0x20 SWAP1 SWAP2 KECCAK256 ADD SLOAD PUSH1 0x1 PUSH1 0x1 PUSH1 0xA0 SHL SUB AND SWAP1 POP DUP2 JUMP JUMPDEST PUSH1 0x0 SLOAD PUSH1 0x1 PUSH1 0x1 PUSH1 0xA0 SHL SUB AND CALLER EQ PUSH2 0x1852 JUMPI PUSH1 0x40 MLOAD PUSH3 0x461BCD PUSH1 0xE5 SHL DUP2 MSTORE PUSH1 0x4 ADD PUSH2 0x1025 SWAP1 PUSH2 0x4D09 JUMP JUMPDEST PUSH1 0x0 SWAP2 DUP3 MSTORE PUSH1 0x33 PUSH1 0x20 MSTORE PUSH1 0x40 SWAP1 SWAP2 KECCAK256 DUP1 SLOAD PUSH1 0x1 PUSH1 0x1 PUSH1 0xA0 SHL SUB NOT AND PUSH1 0x1 PUSH1 0x1 PUSH1 0xA0 SHL SUB SWAP1 SWAP3 AND SWAP2 SWAP1 SWAP2 OR SWAP1 SSTORE JUMP JUMPDEST PUSH1 0x1 PUSH1 0x1 PUSH1 0xA0 SHL SUB DUP1 DUP4 AND PUSH1 0x0 DUP2 DUP2 MSTORE PUSH1 0x3 PUSH1 0x20 SWAP1 DUP2 MSTORE PUSH1 0x40 DUP1 DUP4 KECCAK256 SLOAD SWAP5 DUP7 AND DUP4 MSTORE PUSH1 0x2 DUP3 MSTORE DUP1 DUP4 KECCAK256 SWAP4 DUP4 MSTORE SWAP3 SWAP1 MSTORE SWAP1 DUP2 KECCAK256 SLOAD PUSH1 0x1 SLOAD SWAP2 SWAP3 SWAP2 TIMESTAMP SWAP2 SWAP1 DUP5 SWAP1 PUSH1 0x64 SWAP1 PUSH2 0x18CC SWAP1 DUP5 SWAP1 PUSH2 0x4D54 JUMP JUMPDEST PUSH2 0x18D6 SWAP2 SWAP1 PUSH2 0x4D73 JUMP JUMPDEST SWAP1 POP PUSH1 0x0 PUSH2 0x18E7 PUSH3 0x80520 DUP4 PUSH2 0x4D73 JUMP JUMPDEST SWAP1 POP PUSH1 0x0 PUSH1 0x3C PUSH2 0x18F7 DUP8 DUP8 PUSH2 0x4E75 JUMP JUMPDEST PUSH2 0x1901 SWAP2 SWAP1 PUSH2 0x4D73 JUMP JUMPDEST SWAP1 POP PUSH1 0x0 PUSH2 0x190F DUP4 DUP4 PUSH2 0x4D54 JUMP JUMPDEST SWAP11 SWAP10 POP POP POP POP POP POP POP POP POP POP JUMP JUMPDEST PUSH1 0x0 SLOAD PUSH1 0x1 PUSH1 0x1 PUSH1 0xA0 SHL SUB AND CALLER EQ PUSH2 0x1947 JUMPI PUSH1 0x40 MLOAD PUSH3 0x461BCD PUSH1 0xE5 SHL DUP2 MSTORE PUSH1 0x4 ADD PUSH2 0x1025 SWAP1 PUSH2 0x4D09 JUMP JUMPDEST PUSH1 0x6 SLOAD PUSH1 0x40 MLOAD PUSH4 0xA9059CBB PUSH1 0xE0 SHL DUP2 MSTORE PUSH1 0x1 PUSH1 0x1 PUSH1 0xA0 SHL SUB DUP4 AND SWAP2 PUSH4 0xA9059CBB SWAP2 PUSH2 0x1976 SWAP2 CALLER SWAP2 PUSH1 0x4 ADD PUSH2 0x4E8C JUMP JUMPDEST PUSH1 0x20 PUSH1 0x40 MLOAD DUP1 DUP4 SUB DUP2 PUSH1 0x0 DUP8 GAS CALL ISZERO DUP1 ISZERO PUSH2 0x1995 JUMPI RETURNDATASIZE PUSH1 0x0 DUP1 RETURNDATACOPY RETURNDATASIZE PUSH1 0x0 REVERT JUMPDEST POP POP POP POP PUSH1 0x40 MLOAD RETURNDATASIZE PUSH1 0x1F NOT PUSH1 0x1F DUP3 ADD AND DUP3 ADD DUP1 PUSH1 0x40 MSTORE POP DUP2 ADD SWAP1 PUSH2 0x19B9 SWAP2 SWAP1 PUSH2 0x4E27 JUMP JUMPDEST POP POP PUSH1 0x0 PUSH1 0x6 SSTORE JUMP JUMPDEST CALLER PUSH1 0x0 SWAP1 DUP2 MSTORE PUSH1 0x14 PUSH1 0x20 SWAP1 DUP2 MSTORE PUSH1 0x40 DUP1 DUP4 KECCAK256 SLOAD PUSH1 0x16 SWAP1 SWAP3 MSTORE DUP3 KECCAK256 SLOAD SWAP1 SWAP2 PUSH2 0x19E9 DUP3 DUP5 PUSH2 0x4E75 JUMP JUMPDEST SWAP1 POP PUSH1 0x0 PUSH1 0x64 DUP5 PUSH1 0x17 SLOAD PUSH2 0x19FD SWAP2 SWAP1 PUSH2 0x4D54 JUMP JUMPDEST PUSH2 0x1A07 SWAP2 SWAP1 PUSH2 0x4D73 JUMP JUMPDEST SWAP1 POP PUSH1 0x0 PUSH2 0x1A15 DUP5 DUP4 PUSH2 0x4E75 JUMP JUMPDEST SWAP1 POP PUSH1 0x0 DUP2 GT PUSH2 0x1A24 JUMPI PUSH1 0x0 DUP1 REVERT JUMPDEST DUP1 DUP7 GT ISZERO PUSH2 0x1A31 JUMPI PUSH1 0x0 DUP1 REVERT JUMPDEST DUP5 DUP5 LT PUSH2 0x1A3D JUMPI PUSH1 0x0 DUP1 REVERT JUMPDEST PUSH1 0x0 DUP7 GT PUSH2 0x1A5D JUMPI PUSH1 0x40 MLOAD PUSH3 0x461BCD PUSH1 0xE5 SHL DUP2 MSTORE PUSH1 0x4 ADD PUSH2 0x1025 SWAP1 PUSH2 0x4D95 JUMP JUMPDEST DUP6 DUP4 LT ISZERO PUSH2 0x1A7D JUMPI PUSH1 0x40 MLOAD PUSH3 0x461BCD PUSH1 0xE5 SHL DUP2 MSTORE PUSH1 0x4 ADD PUSH2 0x1025 SWAP1 PUSH2 0x4EA5 JUMP JUMPDEST DUP5 PUSH2 0x1A88 DUP8 DUP7 PUSH2 0x4E44 JUMP JUMPDEST LT PUSH2 0x1A92 JUMPI PUSH1 0x0 DUP1 REVERT JUMPDEST PUSH1 0xF SLOAD PUSH1 0x40 MLOAD PUSH4 0xA9059CBB PUSH1 0xE0 SHL DUP2 MSTORE PUSH1 0x1 PUSH1 0x1 PUSH1 0xA0 SHL SUB SWAP1 SWAP2 AND SWAP1 PUSH4 0xA9059CBB SWAP1 PUSH2 0x1AC4 SWAP1 CALLER SWAP1 DUP11 SWAP1 PUSH1 0x4 ADD PUSH2 0x4E8C JUMP JUMPDEST PUSH1 0x20 PUSH1 0x40 MLOAD DUP1 DUP4 SUB DUP2 PUSH1 0x0 DUP8 GAS CALL ISZERO DUP1 ISZERO PUSH2 0x1AE3 JUMPI RETURNDATASIZE PUSH1 0x0 DUP1 RETURNDATACOPY RETURNDATASIZE PUSH1 0x0 REVERT JUMPDEST POP POP POP POP PUSH1 0x40 MLOAD RETURNDATASIZE PUSH1 0x1F NOT PUSH1 0x1F DUP3 ADD AND DUP3 ADD DUP1 PUSH1 0x40 MSTORE POP DUP2 ADD SWAP1 PUSH2 0x1B07 SWAP2 SWAP1 PUSH2 0x4E27 JUMP JUMPDEST POP CALLER PUSH1 0x0 SWAP1 DUP2 MSTORE PUSH1 0x16 PUSH1 0x20 MSTORE PUSH1 0x40 SWAP1 KECCAK256 SLOAD PUSH2 0x1B23 SWAP1 DUP8 SWAP1 PUSH2 0x4E44 JUMP JUMPDEST CALLER PUSH1 0x0 SWAP1 DUP2 MSTORE PUSH1 0x16 PUSH1 0x20 MSTORE PUSH1 0x40 SWAP1 KECCAK256 SSTORE POP POP POP POP POP POP JUMP JUMPDEST PUSH1 0x0 SLOAD PUSH1 0x1 PUSH1 0x1 PUSH1 0xA0 SHL SUB AND CALLER EQ PUSH2 0x1B65 JUMPI PUSH1 0x40 MLOAD PUSH3 0x461BCD PUSH1 0xE5 SHL DUP2 MSTORE PUSH1 0x4 ADD PUSH2 0x1025 SWAP1 PUSH2 0x4D09 JUMP JUMPDEST PUSH1 0x0 SWAP2 DUP3 MSTORE PUSH1 0x25 PUSH1 0x20 MSTORE PUSH1 0x40 SWAP1 SWAP2 KECCAK256 DUP1 SLOAD PUSH1 0xFF NOT AND SWAP2 ISZERO ISZERO SWAP2 SWAP1 SWAP2 OR SWAP1 SSTORE JUMP JUMPDEST PUSH1 0x0 DUP2 DUP2 MSTORE PUSH1 0x27 PUSH1 0x20 MSTORE PUSH1 0x40 SWAP1 KECCAK256 SLOAD PUSH1 0xFF AND ISZERO ISZERO PUSH1 0x1 EQ PUSH2 0x1BA5 JUMPI PUSH1 0x0 DUP1 REVERT JUMPDEST PUSH1 0x1 PUSH1 0x1 PUSH1 0xA0 SHL SUB DUP4 AND PUSH1 0x0 SWAP1 DUP2 MSTORE PUSH1 0x2 PUSH1 0x20 SWAP1 DUP2 MSTORE PUSH1 0x40 DUP1 DUP4 KECCAK256 CALLER DUP5 MSTORE SWAP1 SWAP2 MSTORE SWAP1 KECCAK256 SLOAD PUSH9 0x5150AE84A8CDF00000 GT ISZERO PUSH2 0x1BDE JUMPI PUSH1 0x0 DUP1 REVERT JUMPDEST PUSH1 0x0 PUSH2 0x1BEA CALLER DUP6 PUSH2 0x264F JUMP JUMPDEST GT PUSH2 0x1BF4 JUMPI PUSH1 0x0 DUP1 REVERT JUMPDEST PUSH1 0x0 DUP2 DUP2 MSTORE PUSH1 0x24 PUSH1 0x20 MSTORE PUSH1 0x40 SWAP1 KECCAK256 SLOAD PUSH2 0x1C0C JUMPI PUSH1 0x0 DUP1 REVERT JUMPDEST PUSH1 0x0 DUP5 GT PUSH2 0x1C2C JUMPI PUSH1 0x40 MLOAD PUSH3 0x461BCD PUSH1 0xE5 SHL DUP2 MSTORE PUSH1 0x4 ADD PUSH2 0x1025 SWAP1 PUSH2 0x4D95 JUMP JUMPDEST PUSH2 0x1C35 DUP3 PUSH2 0x37F0 JUMP JUMPDEST PUSH2 0x1C51 JUMPI PUSH1 0x40 MLOAD PUSH3 0x461BCD PUSH1 0xE5 SHL DUP2 MSTORE PUSH1 0x4 ADD PUSH2 0x1025 SWAP1 PUSH2 0x4DCC JUMP JUMPDEST PUSH1 0x0 DUP2 DUP2 MSTORE PUSH1 0x24 PUSH1 0x20 SWAP1 DUP2 MSTORE PUSH1 0x40 DUP1 DUP4 KECCAK256 SLOAD PUSH1 0x2E DUP4 MSTORE DUP2 DUP5 KECCAK256 PUSH1 0x1 PUSH1 0x1 PUSH1 0xA0 SHL SUB DUP8 AND DUP6 MSTORE SWAP1 SWAP3 MSTORE SWAP1 SWAP2 KECCAK256 SLOAD LT PUSH2 0x1C87 JUMPI PUSH1 0x0 DUP1 REVERT JUMPDEST PUSH1 0x0 DUP2 DUP2 MSTORE PUSH1 0x24 PUSH1 0x20 SWAP1 DUP2 MSTORE PUSH1 0x40 DUP1 DUP4 KECCAK256 SLOAD PUSH1 0x2E DUP4 MSTORE DUP2 DUP5 KECCAK256 PUSH1 0x1 PUSH1 0x1 PUSH1 0xA0 SHL SUB DUP8 AND DUP6 MSTORE SWAP1 SWAP3 MSTORE SWAP1 SWAP2 KECCAK256 SLOAD PUSH2 0x1CBE SWAP1 DUP7 SWAP1 PUSH2 0x4E44 JUMP JUMPDEST GT ISZERO PUSH2 0x1CC9 JUMPI PUSH1 0x0 DUP1 REVERT JUMPDEST PUSH1 0x0 PUSH2 0x1CD6 CALLER DUP6 DUP5 PUSH2 0x440D JUMP JUMPDEST SWAP1 POP PUSH1 0x0 DUP2 GT PUSH2 0x1CE5 JUMPI PUSH1 0x0 DUP1 REVERT JUMPDEST CALLER PUSH1 0x0 DUP2 DUP2 MSTORE PUSH1 0x5 PUSH1 0x20 MSTORE PUSH1 0x40 SWAP1 DUP2 SWAP1 KECCAK256 TIMESTAMP SWAP1 SSTORE MLOAD PUSH4 0x23B872DD PUSH1 0xE0 SHL DUP2 MSTORE PUSH1 0x1 PUSH1 0x1 PUSH1 0xA0 SHL SUB DUP6 AND SWAP2 PUSH4 0x23B872DD SWAP2 PUSH2 0x1D26 SWAP2 SWAP1 ADDRESS SWAP1 DUP11 SWAP1 PUSH1 0x4 ADD PUSH2 0x4E03 JUMP JUMPDEST PUSH1 0x20 PUSH1 0x40 MLOAD DUP1 DUP4 SUB DUP2 PUSH1 0x0 DUP8 GAS CALL ISZERO DUP1 ISZERO PUSH2 0x1D45 JUMPI RETURNDATASIZE PUSH1 0x0 DUP1 RETURNDATACOPY RETURNDATASIZE PUSH1 0x0 REVERT JUMPDEST POP POP POP POP PUSH1 0x40 MLOAD RETURNDATASIZE PUSH1 0x1F NOT PUSH1 0x1F DUP3 ADD AND DUP3 ADD DUP1 PUSH1 0x40 MSTORE POP DUP2 ADD SWAP1 PUSH2 0x1D69 SWAP2 SWAP1 PUSH2 0x4E27 JUMP JUMPDEST POP PUSH2 0x1D74 CALLER DUP4 PUSH2 0x4A03 JUMP JUMPDEST PUSH1 0x0 DUP3 DUP2 MSTORE PUSH1 0x2A PUSH1 0x20 SWAP1 DUP2 MSTORE PUSH1 0x40 DUP1 DUP4 KECCAK256 CALLER DUP5 MSTORE SWAP1 SWAP2 MSTORE SWAP1 KECCAK256 SLOAD PUSH2 0x1D99 SWAP1 DUP7 SWAP1 PUSH2 0x4E44 JUMP JUMPDEST PUSH1 0x0 DUP4 DUP2 MSTORE PUSH1 0x2A PUSH1 0x20 SWAP1 DUP2 MSTORE PUSH1 0x40 DUP1 DUP4 KECCAK256 CALLER DUP5 MSTORE DUP3 MSTORE DUP1 DUP4 KECCAK256 SWAP4 SWAP1 SWAP4 SSTORE DUP5 DUP3 MSTORE PUSH1 0x2C SWAP1 MSTORE KECCAK256 SLOAD PUSH2 0x1DC9 SWAP1 DUP7 PUSH2 0x4D54 JUMP JUMPDEST PUSH1 0x0 DUP4 DUP2 MSTORE PUSH1 0x30 PUSH1 0x20 SWAP1 DUP2 MSTORE PUSH1 0x40 DUP1 DUP4 KECCAK256 CALLER DUP5 MSTORE SWAP1 SWAP2 MSTORE SWAP1 KECCAK256 SLOAD PUSH2 0x1DED SWAP2 SWAP1 PUSH2 0x4E44 JUMP JUMPDEST PUSH1 0x0 DUP4 DUP2 MSTORE PUSH1 0x30 PUSH1 0x20 SWAP1 DUP2 MSTORE PUSH1 0x40 DUP1 DUP4 KECCAK256 CALLER DUP5 MSTORE DUP3 MSTORE DUP1 DUP4 KECCAK256 SWAP4 SWAP1 SWAP4 SSTORE DUP5 DUP3 MSTORE PUSH1 0x2D DUP2 MSTORE DUP3 DUP3 KECCAK256 PUSH1 0x1 PUSH1 0x1 PUSH1 0xA0 SHL SUB DUP8 AND DUP4 MSTORE SWAP1 MSTORE KECCAK256 SLOAD PUSH2 0x1E2F SWAP1 DUP7 SWAP1 PUSH2 0x4E44 JUMP JUMPDEST PUSH1 0x0 DUP4 DUP2 MSTORE PUSH1 0x2D PUSH1 0x20 SWAP1 DUP2 MSTORE PUSH1 0x40 DUP1 DUP4 KECCAK256 PUSH1 0x1 PUSH1 0x1 PUSH1 0xA0 SHL SUB DUP9 AND DUP1 DUP6 MSTORE SWAP1 DUP4 MSTORE DUP2 DUP5 KECCAK256 SWAP5 SWAP1 SWAP5 SSTORE DUP6 DUP4 MSTORE PUSH1 0x2E DUP3 MSTORE DUP1 DUP4 KECCAK256 SWAP4 DUP4 MSTORE SWAP3 SWAP1 MSTORE KECCAK256 SLOAD PUSH2 0x1E74 SWAP1 DUP7 SWAP1 PUSH2 0x4E44 JUMP JUMPDEST PUSH1 0x0 DUP4 DUP2 MSTORE PUSH1 0x2E PUSH1 0x20 SWAP1 DUP2 MSTORE PUSH1 0x40 DUP1 DUP4 KECCAK256 PUSH1 0x1 PUSH1 0x1 PUSH1 0xA0 SHL SUB DUP9 AND DUP5 MSTORE SWAP1 SWAP2 MSTORE SWAP1 KECCAK256 SSTORE PUSH1 0x13 SLOAD PUSH2 0x1EA5 SWAP1 DUP7 SWAP1 PUSH2 0x4E44 JUMP JUMPDEST PUSH1 0x13 SSTORE POP POP POP POP POP JUMP JUMPDEST PUSH1 0x0 SLOAD PUSH1 0x1 PUSH1 0x1 PUSH1 0xA0 SHL SUB AND CALLER EQ PUSH2 0x1ED9 JUMPI PUSH1 0x40 MLOAD PUSH3 0x461BCD PUSH1 0xE5 SHL DUP2 MSTORE PUSH1 0x4 ADD PUSH2 0x1025 SWAP1 PUSH2 0x4D09 JUMP JUMPDEST PUSH1 0x15 SSTORE JUMP JUMPDEST PUSH1 0x0 SLOAD PUSH1 0x1 PUSH1 0x1 PUSH1 0xA0 SHL SUB AND CALLER EQ PUSH2 0x1F08 JUMPI PUSH1 0x40 MLOAD PUSH3 0x461BCD PUSH1 0xE5 SHL DUP2 MSTORE PUSH1 0x4 ADD PUSH2 0x1025 SWAP1 PUSH2 0x4D09 JUMP JUMPDEST PUSH1 0x0 SWAP2 DUP3 MSTORE PUSH1 0x32 PUSH1 0x20 MSTORE PUSH1 0x40 SWAP1 SWAP2 KECCAK256 SSTORE JUMP JUMPDEST PUSH1 0x0 SLOAD PUSH1 0x1 PUSH1 0x1 PUSH1 0xA0 SHL SUB AND CALLER EQ PUSH2 0x1F44 JUMPI PUSH1 0x40 MLOAD PUSH3 0x461BCD PUSH1 0xE5 SHL DUP2 MSTORE PUSH1 0x4 ADD PUSH2 0x1025 SWAP1 PUSH2 0x4D09 JUMP JUMPDEST PUSH1 0x0 SWAP2 DUP3 MSTORE PUSH1 0x27 PUSH1 0x20 MSTORE PUSH1 0x40 SWAP1 SWAP2 KECCAK256 DUP1 SLOAD PUSH1 0xFF NOT AND SWAP2 ISZERO ISZERO SWAP2 SWAP1 SWAP2 OR SWAP1 SSTORE JUMP JUMPDEST PUSH1 0x0 DUP3 GT PUSH2 0x1F84 JUMPI PUSH1 0x40 MLOAD PUSH3 0x461BCD PUSH1 0xE5 SHL DUP2 MSTORE PUSH1 0x4 ADD PUSH2 0x1025 SWAP1 PUSH2 0x4D95 JUMP JUMPDEST PUSH2 0x1F8D DUP2 PUSH2 0x37F0 JUMP JUMPDEST PUSH2 0x1FA9 JUMPI PUSH1 0x40 MLOAD PUSH3 0x461BCD PUSH1 0xE5 SHL DUP2 MSTORE PUSH1 0x4 ADD PUSH2 0x1025 SWAP1 PUSH2 0x4DCC JUMP JUMPDEST PUSH1 0x40 MLOAD PUSH4 0x23B872DD PUSH1 0xE0 SHL DUP2 MSTORE PUSH1 0x1 PUSH1 0x1 PUSH1 0xA0 SHL SUB DUP3 AND SWAP1 PUSH4 0x23B872DD SWAP1 PUSH2 0x1FD9 SWAP1 CALLER SWAP1 ADDRESS SWAP1 DUP8 SWAP1 PUSH1 0x4 ADD PUSH2 0x4E03 JUMP JUMPDEST PUSH1 0x20 PUSH1 0x40 MLOAD DUP1 DUP4 SUB DUP2 PUSH1 0x0 DUP8 GAS CALL ISZERO DUP1 ISZERO PUSH2 0x1FF8 JUMPI RETURNDATASIZE PUSH1 0x0 DUP1 RETURNDATACOPY RETURNDATASIZE PUSH1 0x0 REVERT JUMPDEST POP POP POP POP PUSH1 0x40 MLOAD RETURNDATASIZE PUSH1 0x1F NOT PUSH1 0x1F DUP3 ADD AND DUP3 ADD DUP1 PUSH1 0x40 MSTORE POP DUP2 ADD SWAP1 PUSH2 0x201C SWAP2 SWAP1 PUSH2 0x4E27 JUMP JUMPDEST POP PUSH1 0x40 MLOAD PUSH4 0x70A08231 PUSH1 0xE0 SHL DUP2 MSTORE ADDRESS PUSH1 0x4 DUP3 ADD MSTORE PUSH8 0xDE0B6B3A7640000 SWAP1 PUSH1 0x1 PUSH1 0x1 PUSH1 0xA0 SHL SUB DUP4 AND SWAP1 PUSH4 0x70A08231 SWAP1 PUSH1 0x24 ADD PUSH1 0x20 PUSH1 0x40 MLOAD DUP1 DUP4 SUB DUP2 DUP7 GAS STATICCALL ISZERO DUP1 ISZERO PUSH2 0x206B JUMPI RETURNDATASIZE PUSH1 0x0 DUP1 RETURNDATACOPY RETURNDATASIZE PUSH1 0x0 REVERT JUMPDEST POP POP POP POP PUSH1 0x40 MLOAD RETURNDATASIZE PUSH1 0x1F NOT PUSH1 0x1F DUP3 ADD AND DUP3 ADD DUP1 PUSH1 0x40 MSTORE POP DUP2 ADD SWAP1 PUSH2 0x208F SWAP2 SWAP1 PUSH2 0x4E5C JUMP JUMPDEST PUSH2 0x2099 SWAP2 SWAP1 PUSH2 0x4D73 JUMP JUMPDEST PUSH1 0x1D SSTORE PUSH2 0x20A6 CALLER DUP3 PUSH2 0x4A9C JUMP JUMPDEST PUSH1 0x1 PUSH1 0x1 PUSH1 0xA0 SHL SUB DUP2 AND PUSH1 0x0 SWAP1 DUP2 MSTORE PUSH1 0x10 PUSH1 0x20 SWAP1 DUP2 MSTORE PUSH1 0x40 DUP1 DUP4 KECCAK256 CALLER DUP5 MSTORE SWAP1 SWAP2 MSTORE SWAP1 KECCAK256 SLOAD PUSH2 0x20D5 SWAP1 DUP4 SWAP1 PUSH2 0x4E44 JUMP JUMPDEST PUSH1 0x1 PUSH1 0x1 PUSH1 0xA0 SHL SUB DUP3 AND PUSH1 0x0 SWAP1 DUP2 MSTORE PUSH1 0x10 PUSH1 0x20 SWAP1 DUP2 MSTORE PUSH1 0x40 DUP1 DUP4 KECCAK256 CALLER DUP5 MSTORE SWAP1 SWAP2 MSTORE SWAP1 KECCAK256 SSTORE PUSH1 0x15 SLOAD PUSH2 0x2106 SWAP1 DUP4 PUSH2 0x4D54 JUMP JUMPDEST CALLER PUSH1 0x0 SWAP1 DUP2 MSTORE PUSH1 0x14 PUSH1 0x20 MSTORE PUSH1 0x40 SWAP1 KECCAK256 SLOAD PUSH2 0x2120 SWAP2 SWAP1 PUSH2 0x4E44 JUMP JUMPDEST CALLER PUSH1 0x0 SWAP1 DUP2 MSTORE PUSH1 0x14 PUSH1 0x20 SWAP1 DUP2 MSTORE PUSH1 0x40 DUP1 DUP4 KECCAK256 SWAP4 SWAP1 SWAP4 SSTORE PUSH1 0x1 PUSH1 0x1 PUSH1 0xA0 SHL SUB DUP5 AND DUP3 MSTORE PUSH1 0x11 SWAP1 MSTORE KECCAK256 SLOAD PUSH2 0x2153 SWAP1 DUP4 SWAP1 PUSH2 0x4E44 JUMP JUMPDEST PUSH1 0x1 PUSH1 0x1 PUSH1 0xA0 SHL SUB DUP3 AND PUSH1 0x0 SWAP1 DUP2 MSTORE PUSH1 0x11 PUSH1 0x20 SWAP1 DUP2 MSTORE PUSH1 0x40 DUP1 DUP4 KECCAK256 SWAP4 SWAP1 SWAP4 SSTORE PUSH1 0x12 SWAP1 MSTORE KECCAK256 SLOAD PUSH2 0x2183 SWAP1 DUP4 SWAP1 PUSH2 0x4E44 JUMP JUMPDEST PUSH1 0x1 PUSH1 0x1 PUSH1 0xA0 SHL SUB DUP3 AND PUSH1 0x0 SWAP1 DUP2 MSTORE PUSH1 0x12 PUSH1 0x20 MSTORE PUSH1 0x40 SWAP1 KECCAK256 SSTORE PUSH1 0x13 SLOAD PUSH2 0x21AA SWAP1 DUP4 SWAP1 PUSH2 0x4E44 JUMP JUMPDEST PUSH1 0x13 SSTORE CALLER PUSH1 0x0 SWAP1 DUP2 MSTORE PUSH1 0x1C PUSH1 0x20 MSTORE PUSH1 0x40 SWAP1 KECCAK256 SLOAD PUSH1 0x1 EQ ISZERO PUSH2 0x122E JUMPI PUSH1 0x19 DUP1 SLOAD PUSH1 0x1 DUP2 ADD DUP3 SSTORE PUSH1 0x0 SWAP2 SWAP1 SWAP2 MSTORE PUSH32 0x944998273E477B495144FB8794C914197F3CCB46BE2900F4698FD0EF743C9695 ADD DUP1 SLOAD PUSH1 0x1 PUSH1 0x1 PUSH1 0xA0 SHL SUB NOT AND CALLER OR SWAP1 SSTORE POP POP JUMP JUMPDEST PUSH1 0xD DUP2 DUP2 SLOAD DUP2 LT PUSH2 0x180E JUMPI PUSH1 0x0 DUP1 REVERT JUMPDEST PUSH1 0x0 SLOAD PUSH1 0x1 PUSH1 0x1 PUSH1 0xA0 SHL SUB AND CALLER EQ PUSH2 0x2245 JUMPI PUSH1 0x40 MLOAD PUSH3 0x461BCD PUSH1 0xE5 SHL DUP2 MSTORE PUSH1 0x4 ADD PUSH2 0x1025 SWAP1 PUSH2 0x4D09 JUMP JUMPDEST PUSH1 0x0 JUMPDEST PUSH1 0xC SLOAD DUP2 LT ISZERO PUSH2 0x2312 JUMPI PUSH1 0x0 PUSH1 0xC DUP3 DUP2 SLOAD DUP2 LT PUSH2 0x2267 JUMPI PUSH2 0x2267 PUSH2 0x4FE1 JUMP JUMPDEST PUSH1 0x0 SWAP2 DUP3 MSTORE PUSH1 0x20 DUP3 KECCAK256 ADD SLOAD PUSH1 0x1 PUSH1 0x1 PUSH1 0xA0 SHL SUB AND SWAP2 POP PUSH2 0x2286 DUP3 PUSH2 0x3732 JUMP JUMPDEST PUSH1 0xE SLOAD PUSH1 0x40 MLOAD PUSH4 0xA9059CBB PUSH1 0xE0 SHL DUP2 MSTORE SWAP2 SWAP3 POP PUSH1 0x1 PUSH1 0x1 PUSH1 0xA0 SHL SUB AND SWAP1 PUSH4 0xA9059CBB SWAP1 PUSH2 0x22B9 SWAP1 DUP6 SWAP1 DUP6 SWAP1 PUSH1 0x4 ADD PUSH2 0x4E8C JUMP JUMPDEST PUSH1 0x20 PUSH1 0x40 MLOAD DUP1 DUP4 SUB DUP2 PUSH1 0x0 DUP8 GAS CALL ISZERO DUP1 ISZERO PUSH2 0x22D8 JUMPI RETURNDATASIZE PUSH1 0x0 DUP1 RETURNDATACOPY RETURNDATASIZE PUSH1 0x0 REVERT JUMPDEST POP POP POP POP PUSH1 0x40 MLOAD RETURNDATASIZE PUSH1 0x1F NOT PUSH1 0x1F DUP3 ADD AND DUP3 ADD DUP1 PUSH1 0x40 MSTORE POP DUP2 ADD SWAP1 PUSH2 0x22FC SWAP2 SWAP1 PUSH2 0x4E27 JUMP JUMPDEST POP POP POP DUP1 DUP1 PUSH2 0x230A SWAP1 PUSH2 0x4FF7 JUMP JUMPDEST SWAP2 POP POP PUSH2 0x2248 JUMP JUMPDEST POP JUMP JUMPDEST PUSH1 0x0 SLOAD PUSH1 0x1 PUSH1 0x1 PUSH1 0xA0 SHL SUB AND CALLER EQ PUSH2 0x233F JUMPI PUSH1 0x40 MLOAD PUSH3 0x461BCD PUSH1 0xE5 SHL DUP2 MSTORE PUSH1 0x4 ADD PUSH2 0x1025 SWAP1 PUSH2 0x4D09 JUMP JUMPDEST PUSH1 0x1A DUP1 SLOAD PUSH1 0x1 DUP2 ADD DUP3 SSTORE PUSH1 0x0 SWAP2 SWAP1 SWAP2 MSTORE PUSH32 0x57C384A7D1C54F3A1B2E5E67B2617B8224FDFD1EA7234EEA573A6FF665FF63E ADD DUP1 SLOAD PUSH1 0x1 PUSH1 0x1 PUSH1 0xA0 SHL SUB NOT AND PUSH1 0x1 PUSH1 0x1 PUSH1 0xA0 SHL SUB SWAP3 SWAP1 SWAP3 AND SWAP2 SWAP1 SWAP2 OR SWAP1 SSTORE JUMP JUMPDEST PUSH1 0x1 PUSH1 0x1 PUSH1 0xA0 SHL SUB DUP2 AND PUSH1 0x0 SWAP1 DUP2 MSTORE PUSH1 0x14 PUSH1 0x20 SWAP1 DUP2 MSTORE PUSH1 0x40 DUP1 DUP4 KECCAK256 SLOAD PUSH1 0x16 SWAP1 SWAP3 MSTORE DUP3 KECCAK256 SLOAD PUSH1 0x17 SLOAD DUP4 SWAP1 PUSH1 0x64 SWAP1 PUSH2 0x23C8 SWAP1 DUP6 SWAP1 PUSH2 0x4D54 JUMP JUMPDEST PUSH2 0x23D2 SWAP2 SWAP1 PUSH2 0x4D73 JUMP JUMPDEST SWAP1 POP PUSH1 0x0 PUSH2 0x23E0 DUP4 DUP4 PUSH2 0x4E75 JUMP JUMPDEST SWAP8 SWAP7 POP POP POP POP POP POP POP JUMP JUMPDEST PUSH1 0x0 SLOAD PUSH1 0x1 PUSH1 0x1 PUSH1 0xA0 SHL SUB AND CALLER EQ PUSH2 0x2415 JUMPI PUSH1 0x40 MLOAD PUSH3 0x461BCD PUSH1 0xE5 SHL DUP2 MSTORE PUSH1 0x4 ADD PUSH2 0x1025 SWAP1 PUSH2 0x4D09 JUMP JUMPDEST PUSH1 0x40 MLOAD PUSH4 0x23B872DD PUSH1 0xE0 SHL DUP2 MSTORE PUSH1 0x1 PUSH1 0x1 PUSH1 0xA0 SHL SUB DUP4 AND SWAP1 PUSH4 0x23B872DD SWAP1 PUSH2 0x2445 SWAP1 CALLER SWAP1 ADDRESS SWAP1 DUP7 SWAP1 PUSH1 0x4 ADD PUSH2 0x4E03 JUMP JUMPDEST PUSH1 0x20 PUSH1 0x40 MLOAD DUP1 DUP4 SUB DUP2 PUSH1 0x0 DUP8 GAS CALL ISZERO DUP1 ISZERO PUSH2 0x2464 JUMPI RETURNDATASIZE PUSH1 0x0 DUP1 RETURNDATACOPY RETURNDATASIZE PUSH1 0x0 REVERT JUMPDEST POP POP POP POP PUSH1 0x40 MLOAD RETURNDATASIZE PUSH1 0x1F NOT PUSH1 0x1F DUP3 ADD AND DUP3 ADD DUP1 PUSH1 0x40 MSTORE POP DUP2 ADD SWAP1 PUSH2 0x2488 SWAP2 SWAP1 PUSH2 0x4E27 JUMP JUMPDEST POP POP POP JUMP JUMPDEST PUSH1 0x0 SLOAD PUSH1 0x1 PUSH1 0x1 PUSH1 0xA0 SHL SUB AND CALLER EQ PUSH2 0x24B7 JUMPI PUSH1 0x40 MLOAD PUSH3 0x461BCD PUSH1 0xE5 SHL DUP2 MSTORE PUSH1 0x4 ADD PUSH2 0x1025 SWAP1 PUSH2 0x4D09 JUMP JUMPDEST PUSH1 0xF DUP1 SLOAD PUSH1 0x1 PUSH1 0x1 PUSH1 0xA0 SHL SUB NOT AND PUSH1 0x1 PUSH1 0x1 PUSH1 0xA0 SHL SUB SWAP3 SWAP1 SWAP3 AND SWAP2 SWAP1 SWAP2 OR SWAP1 SSTORE JUMP JUMPDEST PUSH1 0x0 DUP1 PUSH2 0x24E4 PUSH2 0x35E8 JUMP JUMPDEST SWAP1 POP PUSH1 0x0 PUSH8 0xDE0B6B3A7640000 PUSH2 0x24FB DUP6 DUP5 PUSH2 0x4D54 JUMP JUMPDEST PUSH2 0x2505 SWAP2 SWAP1 PUSH2 0x4D73 JUMP JUMPDEST SWAP5 SWAP4 POP POP POP POP JUMP JUMPDEST PUSH1 0x0 SLOAD PUSH1 0x1 PUSH1 0x1 PUSH1 0xA0 SHL SUB AND CALLER EQ PUSH2 0x2537 JUMPI PUSH1 0x40 MLOAD PUSH3 0x461BCD PUSH1 0xE5 SHL DUP2 MSTORE PUSH1 0x4 ADD PUSH2 0x1025 SWAP1 PUSH2 0x4D09 JUMP JUMPDEST PUSH2 0x2541 PUSH1 0x0 PUSH2 0x4B07 JUMP JUMPDEST JUMP JUMPDEST PUSH1 0x0 DUP3 DUP2 MSTORE PUSH1 0x1F PUSH1 0x20 MSTORE PUSH1 0x40 SWAP1 KECCAK256 SLOAD PUSH1 0xFF AND ISZERO ISZERO PUSH1 0x1 EQ PUSH2 0x2563 JUMPI PUSH1 0x0 DUP1 REVERT JUMPDEST PUSH1 0x1 PUSH1 0x1 PUSH1 0xA0 SHL SUB DUP2 AND PUSH1 0x0 SWAP1 DUP2 MSTORE PUSH1 0x2 PUSH1 0x20 SWAP1 DUP2 MSTORE PUSH1 0x40 DUP1 DUP4 KECCAK256 CALLER DUP5 MSTORE SWAP1 SWAP2 MSTORE SWAP1 KECCAK256 SLOAD PUSH9 0x5150AE84A8CDF00000 GT ISZERO PUSH2 0x259C JUMPI PUSH1 0x0 DUP1 REVERT JUMPDEST PUSH1 0x0 PUSH2 0x25A8 CALLER DUP4 PUSH2 0x264F JUMP JUMPDEST GT PUSH2 0x25B2 JUMPI PUSH1 0x0 DUP1 REVERT JUMPDEST PUSH1 0x0 PUSH2 0x25BE CALLER DUP4 PUSH2 0x264F JUMP JUMPDEST PUSH1 0x0 DUP5 DUP2 MSTORE PUSH1 0x21 PUSH1 0x20 SWAP1 DUP2 MSTORE PUSH1 0x40 DUP1 DUP4 KECCAK256 DUP5 DUP5 MSTORE SWAP1 SWAP2 MSTORE SWAP1 KECCAK256 SLOAD SWAP1 SWAP2 POP PUSH2 0x25E6 SWAP1 PUSH1 0x1 PUSH2 0x4E44 JUMP JUMPDEST PUSH1 0x0 SWAP4 DUP5 MSTORE PUSH1 0x21 PUSH1 0x20 SWAP1 DUP2 MSTORE PUSH1 0x40 DUP1 DUP7 KECCAK256 DUP5 DUP8 MSTORE DUP3 MSTORE DUP1 DUP7 KECCAK256 SWAP3 SWAP1 SWAP3 SSTORE CALLER DUP6 MSTORE PUSH1 0x23 DUP2 MSTORE DUP2 DUP6 KECCAK256 SWAP3 SWAP1 SWAP3 SSTORE PUSH1 0x5 SWAP1 SWAP2 MSTORE SWAP1 SWAP2 KECCAK256 TIMESTAMP SWAP1 SSTORE POP JUMP JUMPDEST PUSH1 0x0 DUP1 PUSH2 0x262C DUP5 DUP5 PUSH2 0x1880 JUMP JUMPDEST PUSH1 0x1 PUSH1 0x1 PUSH1 0xA0 SHL SUB DUP6 AND PUSH1 0x0 SWAP1 DUP2 MSTORE PUSH1 0x4 PUSH1 0x20 MSTORE PUSH1 0x40 SWAP1 KECCAK256 SLOAD PUSH2 0x2505 SWAP2 SWAP1 PUSH2 0x4E44 JUMP JUMPDEST PUSH1 0x20 SLOAD PUSH1 0x0 SWAP1 DUP2 SWAP1 PUSH2 0x2662 SWAP1 PUSH1 0x96 PUSH2 0x4D54 JUMP JUMPDEST PUSH2 0x2674 SWAP1 PUSH8 0xDE0B6B3A7640000 PUSH2 0x4D54 JUMP JUMPDEST PUSH1 0x1 PUSH1 0x1 PUSH1 0xA0 SHL SUB DUP1 DUP6 AND PUSH1 0x0 SWAP1 DUP2 MSTORE PUSH1 0x2 PUSH1 0x20 SWAP1 DUP2 MSTORE PUSH1 0x40 DUP1 DUP4 KECCAK256 SWAP4 DUP10 AND DUP4 MSTORE SWAP3 SWAP1 MSTORE KECCAK256 SLOAD LT PUSH2 0x26A9 JUMPI POP PUSH1 0x1C SWAP1 POP PUSH2 0x17F8 JUMP JUMPDEST PUSH1 0x20 SLOAD PUSH2 0x26B7 SWAP1 PUSH1 0x8C PUSH2 0x4D54 JUMP JUMPDEST PUSH2 0x26C9 SWAP1 PUSH8 0xDE0B6B3A7640000 PUSH2 0x4D54 JUMP JUMPDEST PUSH1 0x1 PUSH1 0x1 PUSH1 0xA0 SHL SUB DUP1 DUP6 AND PUSH1 0x0 SWAP1 DUP2 MSTORE PUSH1 0x2 PUSH1 0x20 SWAP1 DUP2 MSTORE PUSH1 0x40 DUP1 DUP4 KECCAK256 SWAP4 DUP10 AND DUP4 MSTORE SWAP3 SWAP1 MSTORE KECCAK256 SLOAD LT PUSH2 0x26FE JUMPI POP PUSH1 0x1B SWAP1 POP PUSH2 0x17F8 JUMP JUMPDEST PUSH1 0x20 SLOAD PUSH2 0x270C SWAP1 PUSH1 0x82 PUSH2 0x4D54 JUMP JUMPDEST PUSH2 0x271E SWAP1 PUSH8 0xDE0B6B3A7640000 PUSH2 0x4D54 JUMP JUMPDEST PUSH1 0x1 PUSH1 0x1 PUSH1 0xA0 SHL SUB DUP1 DUP6 AND PUSH1 0x0 SWAP1 DUP2 MSTORE PUSH1 0x2 PUSH1 0x20 SWAP1 DUP2 MSTORE PUSH1 0x40 DUP1 DUP4 KECCAK256 SWAP4 DUP10 AND DUP4 MSTORE SWAP3 SWAP1 MSTORE KECCAK256 SLOAD LT PUSH2 0x2753 JUMPI POP PUSH1 0x1A SWAP1 POP PUSH2 0x17F8 JUMP JUMPDEST PUSH1 0x20 SLOAD PUSH2 0x2761 SWAP1 PUSH1 0x78 PUSH2 0x4D54 JUMP JUMPDEST PUSH2 0x2773 SWAP1 PUSH8 0xDE0B6B3A7640000 PUSH2 0x4D54 JUMP JUMPDEST PUSH1 0x1 PUSH1 0x1 PUSH1 0xA0 SHL SUB DUP1 DUP6 AND PUSH1 0x0 SWAP1 DUP2 MSTORE PUSH1 0x2 PUSH1 0x20 SWAP1 DUP2 MSTORE PUSH1 0x40 DUP1 DUP4 KECCAK256 SWAP4 DUP10 AND DUP4 MSTORE SWAP3 SWAP1 MSTORE KECCAK256 SLOAD LT PUSH2 0x27A8 JUMPI POP PUSH1 0x19 SWAP1 POP PUSH2 0x17F8 JUMP JUMPDEST PUSH1 0x20 SLOAD PUSH2 0x27B6 SWAP1 PUSH1 0x6E PUSH2 0x4D54 JUMP JUMPDEST PUSH2 0x27C8 SWAP1 PUSH8 0xDE0B6B3A7640000 PUSH2 0x4D54 JUMP JUMPDEST PUSH1 0x1 PUSH1 0x1 PUSH1 0xA0 SHL SUB DUP1 DUP6 AND PUSH1 0x0 SWAP1 DUP2 MSTORE PUSH1 0x2 PUSH1 0x20 SWAP1 DUP2 MSTORE PUSH1 0x40 DUP1 DUP4 KECCAK256 SWAP4 DUP10 AND DUP4 MSTORE SWAP3 SWAP1 MSTORE KECCAK256 SLOAD LT PUSH2 0x27FD JUMPI POP PUSH1 0x18 SWAP1 POP PUSH2 0x17F8 JUMP JUMPDEST PUSH1 0x20 SLOAD PUSH2 0x280B SWAP1 PUSH1 0x64 PUSH2 0x4D54 JUMP JUMPDEST PUSH2 0x281D SWAP1 PUSH8 0xDE0B6B3A7640000 PUSH2 0x4D54 JUMP JUMPDEST PUSH1 0x1 PUSH1 0x1 PUSH1 0xA0 SHL SUB DUP1 DUP6 AND PUSH1 0x0 SWAP1 DUP2 MSTORE PUSH1 0x2 PUSH1 0x20 SWAP1 DUP2 MSTORE PUSH1 0x40 DUP1 DUP4 KECCAK256 SWAP4 DUP10 AND DUP4 MSTORE SWAP3 SWAP1 MSTORE KECCAK256 SLOAD LT PUSH2 0x2852 JUMPI POP PUSH1 0x17 SWAP1 POP PUSH2 0x17F8 JUMP JUMPDEST PUSH1 0x20 SLOAD PUSH2 0x2860 SWAP1 PUSH1 0x5A PUSH2 0x4D54 JUMP JUMPDEST PUSH2 0x2872 SWAP1 PUSH8 0xDE0B6B3A7640000 PUSH2 0x4D54 JUMP JUMPDEST PUSH1 0x1 PUSH1 0x1 PUSH1 0xA0 SHL SUB DUP1 DUP6 AND PUSH1 0x0 SWAP1 DUP2 MSTORE PUSH1 0x2 PUSH1 0x20 SWAP1 DUP2 MSTORE PUSH1 0x40 DUP1 DUP4 KECCAK256 SWAP4 DUP10 AND DUP4 MSTORE SWAP3 SWAP1 MSTORE KECCAK256 SLOAD LT PUSH2 0x28A7 JUMPI POP PUSH1 0x16 SWAP1 POP PUSH2 0x17F8 JUMP JUMPDEST PUSH1 0x20 SLOAD PUSH2 0x28B5 SWAP1 PUSH1 0x50 PUSH2 0x4D54 JUMP JUMPDEST PUSH2 0x28C7 SWAP1 PUSH8 0xDE0B6B3A7640000 PUSH2 0x4D54 JUMP JUMPDEST PUSH1 0x1 PUSH1 0x1 PUSH1 0xA0 SHL SUB DUP1 DUP6 AND PUSH1 0x0 SWAP1 DUP2 MSTORE PUSH1 0x2 PUSH1 0x20 SWAP1 DUP2 MSTORE PUSH1 0x40 DUP1 DUP4 KECCAK256 SWAP4 DUP10 AND DUP4 MSTORE SWAP3 SWAP1 MSTORE KECCAK256 SLOAD LT PUSH2 0x28FC JUMPI POP PUSH1 0x15 SWAP1 POP PUSH2 0x17F8 JUMP JUMPDEST PUSH1 0x20 SLOAD PUSH2 0x290A SWAP1 PUSH1 0x46 PUSH2 0x4D54 JUMP JUMPDEST PUSH2 0x291C SWAP1 PUSH8 0xDE0B6B3A7640000 PUSH2 0x4D54 JUMP JUMPDEST PUSH1 0x1 PUSH1 0x1 PUSH1 0xA0 SHL SUB DUP1 DUP6 AND PUSH1 0x0 SWAP1 DUP2 MSTORE PUSH1 0x2 PUSH1 0x20 SWAP1 DUP2 MSTORE PUSH1 0x40 DUP1 DUP4 KECCAK256 SWAP4 DUP10 AND DUP4 MSTORE SWAP3 SWAP1 MSTORE KECCAK256 SLOAD LT PUSH2 0x2951 JUMPI POP PUSH1 0x14 SWAP1 POP PUSH2 0x17F8 JUMP JUMPDEST PUSH1 0x20 SLOAD PUSH2 0x295F SWAP1 PUSH1 0x3C PUSH2 0x4D54 JUMP JUMPDEST PUSH2 0x2971 SWAP1 PUSH8 0xDE0B6B3A7640000 PUSH2 0x4D54 JUMP JUMPDEST PUSH1 0x1 PUSH1 0x1 PUSH1 0xA0 SHL SUB DUP1 DUP6 AND PUSH1 0x0 SWAP1 DUP2 MSTORE PUSH1 0x2 PUSH1 0x20 SWAP1 DUP2 MSTORE PUSH1 0x40 DUP1 DUP4 KECCAK256 SWAP4 DUP10 AND DUP4 MSTORE SWAP3 SWAP1 MSTORE KECCAK256 SLOAD LT PUSH2 0x29A6 JUMPI POP PUSH1 0x13 SWAP1 POP PUSH2 0x17F8 JUMP JUMPDEST PUSH1 0x20 SLOAD PUSH2 0x29B4 SWAP1 PUSH1 0x32 PUSH2 0x4D54 JUMP JUMPDEST PUSH2 0x29C6 SWAP1 PUSH8 0xDE0B6B3A7640000 PUSH2 0x4D54 JUMP JUMPDEST PUSH1 0x1 PUSH1 0x1 PUSH1 0xA0 SHL SUB DUP1 DUP6 AND PUSH1 0x0 SWAP1 DUP2 MSTORE PUSH1 0x2 PUSH1 0x20 SWAP1 DUP2 MSTORE PUSH1 0x40 DUP1 DUP4 KECCAK256 SWAP4 DUP10 AND DUP4 MSTORE SWAP3 SWAP1 MSTORE KECCAK256 SLOAD LT PUSH2 0x29FB JUMPI POP PUSH1 0x12 SWAP1 POP PUSH2 0x17F8 JUMP JUMPDEST PUSH1 0x20 SLOAD PUSH2 0x2A09 SWAP1 PUSH1 0x2D PUSH2 0x4D54 JUMP JUMPDEST PUSH2 0x2A1B SWAP1 PUSH8 0xDE0B6B3A7640000 PUSH2 0x4D54 JUMP JUMPDEST PUSH1 0x1 PUSH1 0x1 PUSH1 0xA0 SHL SUB DUP1 DUP6 AND PUSH1 0x0 SWAP1 DUP2 MSTORE PUSH1 0x2 PUSH1 0x20 SWAP1 DUP2 MSTORE PUSH1 0x40 DUP1 DUP4 KECCAK256 SWAP4 DUP10 AND DUP4 MSTORE SWAP3 SWAP1 MSTORE KECCAK256 SLOAD LT PUSH2 0x2A50 JUMPI POP PUSH1 0x11 SWAP1 POP PUSH2 0x17F8 JUMP JUMPDEST PUSH1 0x20 SLOAD PUSH2 0x2A5E SWAP1 PUSH1 0x28 PUSH2 0x4D54 JUMP JUMPDEST PUSH2 0x2A70 SWAP1 PUSH8 0xDE0B6B3A7640000 PUSH2 0x4D54 JUMP JUMPDEST PUSH1 0x1 PUSH1 0x1 PUSH1 0xA0 SHL SUB DUP1 DUP6 AND PUSH1 0x0 SWAP1 DUP2 MSTORE PUSH1 0x2 PUSH1 0x20 SWAP1 DUP2 MSTORE PUSH1 0x40 DUP1 DUP4 KECCAK256 SWAP4 DUP10 AND DUP4 MSTORE SWAP3 SWAP1 MSTORE KECCAK256 SLOAD LT PUSH2 0x2AA5 JUMPI POP PUSH1 0x10 SWAP1 POP PUSH2 0x17F8 JUMP JUMPDEST PUSH1 0x20 SLOAD PUSH2 0x2AB3 SWAP1 PUSH1 0x23 PUSH2 0x4D54 JUMP JUMPDEST PUSH2 0x2AC5 SWAP1 PUSH8 0xDE0B6B3A7640000 PUSH2 0x4D54 JUMP JUMPDEST PUSH1 0x1 PUSH1 0x1 PUSH1 0xA0 SHL SUB DUP1 DUP6 AND PUSH1 0x0 SWAP1 DUP2 MSTORE PUSH1 0x2 PUSH1 0x20 SWAP1 DUP2 MSTORE PUSH1 0x40 DUP1 DUP4 KECCAK256 SWAP4 DUP10 AND DUP4 MSTORE SWAP3 SWAP1 MSTORE KECCAK256 SLOAD LT PUSH2 0x2AFA JUMPI POP PUSH1 0xF SWAP1 POP PUSH2 0x17F8 JUMP JUMPDEST PUSH1 0x20 SLOAD PUSH2 0x2B08 SWAP1 PUSH1 0x1E PUSH2 0x4D54 JUMP JUMPDEST PUSH2 0x2B1A SWAP1 PUSH8 0xDE0B6B3A7640000 PUSH2 0x4D54 JUMP JUMPDEST PUSH1 0x1 PUSH1 0x1 PUSH1 0xA0 SHL SUB DUP1 DUP6 AND PUSH1 0x0 SWAP1 DUP2 MSTORE PUSH1 0x2 PUSH1 0x20 SWAP1 DUP2 MSTORE PUSH1 0x40 DUP1 DUP4 KECCAK256 SWAP4 DUP10 AND DUP4 MSTORE SWAP3 SWAP1 MSTORE KECCAK256 SLOAD LT PUSH2 0x2B4F JUMPI POP PUSH1 0xE SWAP1 POP PUSH2 0x17F8 JUMP JUMPDEST PUSH1 0x20 SLOAD PUSH2 0x2B5D SWAP1 PUSH1 0x19 PUSH2 0x4D54 JUMP JUMPDEST PUSH2 0x2B6F SWAP1 PUSH8 0xDE0B6B3A7640000 PUSH2 0x4D54 JUMP JUMPDEST PUSH1 0x1 PUSH1 0x1 PUSH1 0xA0 SHL SUB DUP1 DUP6 AND PUSH1 0x0 SWAP1 DUP2 MSTORE PUSH1 0x2 PUSH1 0x20 SWAP1 DUP2 MSTORE PUSH1 0x40 DUP1 DUP4 KECCAK256 SWAP4 DUP10 AND DUP4 MSTORE SWAP3 SWAP1 MSTORE KECCAK256 SLOAD LT PUSH2 0x2BA4 JUMPI POP PUSH1 0xD SWAP1 POP PUSH2 0x17F8 JUMP JUMPDEST PUSH1 0x20 SLOAD PUSH2 0x2BB2 SWAP1 PUSH1 0x14 PUSH2 0x4D54 JUMP JUMPDEST PUSH2 0x2BC4 SWAP1 PUSH8 0xDE0B6B3A7640000 PUSH2 0x4D54 JUMP JUMPDEST PUSH1 0x1 PUSH1 0x1 PUSH1 0xA0 SHL SUB DUP1 DUP6 AND PUSH1 0x0 SWAP1 DUP2 MSTORE PUSH1 0x2 PUSH1 0x20 SWAP1 DUP2 MSTORE PUSH1 0x40 DUP1 DUP4 KECCAK256 SWAP4 DUP10 AND DUP4 MSTORE SWAP3 SWAP1 MSTORE KECCAK256 SLOAD LT PUSH2 0x2BF9 JUMPI POP PUSH1 0xC SWAP1 POP PUSH2 0x17F8 JUMP JUMPDEST PUSH1 0x20 SLOAD PUSH2 0x2C07 SWAP1 PUSH1 0xF PUSH2 0x4D54 JUMP JUMPDEST PUSH2 0x2C19 SWAP1 PUSH8 0xDE0B6B3A7640000 PUSH2 0x4D54 JUMP JUMPDEST PUSH1 0x1 PUSH1 0x1 PUSH1 0xA0 SHL SUB DUP1 DUP6 AND PUSH1 0x0 SWAP1 DUP2 MSTORE PUSH1 0x2 PUSH1 0x20 SWAP1 DUP2 MSTORE PUSH1 0x40 DUP1 DUP4 KECCAK256 SWAP4 DUP10 AND DUP4 MSTORE SWAP3 SWAP1 MSTORE KECCAK256 SLOAD LT PUSH2 0x2C4E JUMPI POP PUSH1 0xB SWAP1 POP PUSH2 0x17F8 JUMP JUMPDEST PUSH1 0x20 SLOAD PUSH2 0x2C5C SWAP1 PUSH1 0xA PUSH2 0x4D54 JUMP JUMPDEST PUSH2 0x2C6E SWAP1 PUSH8 0xDE0B6B3A7640000 PUSH2 0x4D54 JUMP JUMPDEST PUSH1 0x1 PUSH1 0x1 PUSH1 0xA0 SHL SUB DUP1 DUP6 AND PUSH1 0x0 SWAP1 DUP2 MSTORE PUSH1 0x2 PUSH1 0x20 SWAP1 DUP2 MSTORE PUSH1 0x40 DUP1 DUP4 KECCAK256 SWAP4 DUP10 AND DUP4 MSTORE SWAP3 SWAP1 MSTORE KECCAK256 SLOAD LT PUSH2 0x2CA3 JUMPI POP PUSH1 0xA SWAP1 POP PUSH2 0x17F8 JUMP JUMPDEST PUSH1 0x20 SLOAD PUSH2 0x2CB1 SWAP1 PUSH1 0x9 PUSH2 0x4D54 JUMP JUMPDEST PUSH2 0x2CC3 SWAP1 PUSH8 0xDE0B6B3A7640000 PUSH2 0x4D54 JUMP JUMPDEST PUSH1 0x1 PUSH1 0x1 PUSH1 0xA0 SHL SUB DUP1 DUP6 AND PUSH1 0x0 SWAP1 DUP2 MSTORE PUSH1 0x2 PUSH1 0x20 SWAP1 DUP2 MSTORE PUSH1 0x40 DUP1 DUP4 KECCAK256 SWAP4 DUP10 AND DUP4 MSTORE SWAP3 SWAP1 MSTORE KECCAK256 SLOAD LT PUSH2 0x2CF8 JUMPI POP PUSH1 0x9 SWAP1 POP PUSH2 0x17F8 JUMP JUMPDEST PUSH1 0x20 SLOAD PUSH2 0x2D06 SWAP1 PUSH1 0x8 PUSH2 0x4D54 JUMP JUMPDEST PUSH2 0x2D18 SWAP1 PUSH8 0xDE0B6B3A7640000 PUSH2 0x4D54 JUMP JUMPDEST PUSH1 0x1 PUSH1 0x1 PUSH1 0xA0 SHL SUB DUP1 DUP6 AND PUSH1 0x0 SWAP1 DUP2 MSTORE PUSH1 0x2 PUSH1 0x20 SWAP1 DUP2 MSTORE PUSH1 0x40 DUP1 DUP4 KECCAK256 SWAP4 DUP10 AND DUP4 MSTORE SWAP3 SWAP1 MSTORE KECCAK256 SLOAD LT PUSH2 0x2D4D JUMPI POP PUSH1 0x8 SWAP1 POP PUSH2 0x17F8 JUMP JUMPDEST PUSH1 0x20 SLOAD PUSH2 0x2D5B SWAP1 PUSH1 0x7 PUSH2 0x4D54 JUMP JUMPDEST PUSH2 0x2D6D SWAP1 PUSH8 0xDE0B6B3A7640000 PUSH2 0x4D54 JUMP JUMPDEST PUSH1 0x1 PUSH1 0x1 PUSH1 0xA0 SHL SUB DUP1 DUP6 AND PUSH1 0x0 SWAP1 DUP2 MSTORE PUSH1 0x2 PUSH1 0x20 SWAP1 DUP2 MSTORE PUSH1 0x40 DUP1 DUP4 KECCAK256 SWAP4 DUP10 AND DUP4 MSTORE SWAP3 SWAP1 MSTORE KECCAK256 SLOAD LT PUSH2 0x2DA2 JUMPI POP PUSH1 0x7 SWAP1 POP PUSH2 0x17F8 JUMP JUMPDEST PUSH1 0x20 SLOAD PUSH2 0x2DB0 SWAP1 PUSH1 0x6 PUSH2 0x4D54 JUMP JUMPDEST PUSH2 0x2DC2 SWAP1 PUSH8 0xDE0B6B3A7640000 PUSH2 0x4D54 JUMP JUMPDEST PUSH1 0x1 PUSH1 0x1 PUSH1 0xA0 SHL SUB DUP1 DUP6 AND PUSH1 0x0 SWAP1 DUP2 MSTORE PUSH1 0x2 PUSH1 0x20 SWAP1 DUP2 MSTORE PUSH1 0x40 DUP1 DUP4 KECCAK256 SWAP4 DUP10 AND DUP4 MSTORE SWAP3 SWAP1 MSTORE KECCAK256 SLOAD LT PUSH2 0x2DF7 JUMPI POP PUSH1 0x6 SWAP1 POP PUSH2 0x17F8 JUMP JUMPDEST PUSH1 0x20 SLOAD PUSH2 0x2E05 SWAP1 PUSH1 0x5 PUSH2 0x4D54 JUMP JUMPDEST PUSH2 0x2E17 SWAP1 PUSH8 0xDE0B6B3A7640000 PUSH2 0x4D54 JUMP JUMPDEST PUSH1 0x1 PUSH1 0x1 PUSH1 0xA0 SHL SUB DUP1 DUP6 AND PUSH1 0x0 SWAP1 DUP2 MSTORE PUSH1 0x2 PUSH1 0x20 SWAP1 DUP2 MSTORE PUSH1 0x40 DUP1 DUP4 KECCAK256 SWAP4 DUP10 AND DUP4 MSTORE SWAP3 SWAP1 MSTORE KECCAK256 SLOAD LT PUSH2 0x2E4C JUMPI POP PUSH1 0x5 SWAP1 POP PUSH2 0x17F8 JUMP JUMPDEST PUSH1 0x20 SLOAD PUSH2 0x2E5A SWAP1 PUSH1 0x4 PUSH2 0x4D54 JUMP JUMPDEST PUSH2 0x2E6C SWAP1 PUSH8 0xDE0B6B3A7640000 PUSH2 0x4D54 JUMP JUMPDEST PUSH1 0x1 PUSH1 0x1 PUSH1 0xA0 SHL SUB DUP1 DUP6 AND PUSH1 0x0 SWAP1 DUP2 MSTORE PUSH1 0x2 PUSH1 0x20 SWAP1 DUP2 MSTORE PUSH1 0x40 DUP1 DUP4 KECCAK256 SWAP4 DUP10 AND DUP4 MSTORE SWAP3 SWAP1 MSTORE KECCAK256 SLOAD LT PUSH2 0x2EA1 JUMPI POP PUSH1 0x4 SWAP1 POP PUSH2 0x17F8 JUMP JUMPDEST PUSH1 0x20 SLOAD PUSH2 0x2EAF SWAP1 PUSH1 0x3 PUSH2 0x4D54 JUMP JUMPDEST PUSH2 0x2EC1 SWAP1 PUSH8 0xDE0B6B3A7640000 PUSH2 0x4D54 JUMP JUMPDEST PUSH1 0x1 PUSH1 0x1 PUSH1 0xA0 SHL SUB DUP1 DUP6 AND PUSH1 0x0 SWAP1 DUP2 MSTORE PUSH1 0x2 PUSH1 0x20 SWAP1 DUP2 MSTORE PUSH1 0x40 DUP1 DUP4 KECCAK256 SWAP4 DUP10 AND DUP4 MSTORE SWAP3 SWAP1 MSTORE KECCAK256 SLOAD LT PUSH2 0x2EF6 JUMPI POP PUSH1 0x3 SWAP1 POP PUSH2 0x17F8 JUMP JUMPDEST PUSH1 0x20 SLOAD PUSH2 0x2F04 SWAP1 PUSH1 0x2 PUSH2 0x4D54 JUMP JUMPDEST PUSH2 0x2F16 SWAP1 PUSH8 0xDE0B6B3A7640000 PUSH2 0x4D54 JUMP JUMPDEST PUSH1 0x1 PUSH1 0x1 PUSH1 0xA0 SHL SUB DUP1 DUP6 AND PUSH1 0x0 SWAP1 DUP2 MSTORE PUSH1 0x2 PUSH1 0x20 SWAP1 DUP2 MSTORE PUSH1 0x40 DUP1 DUP4 KECCAK256 SWAP4 DUP10 AND DUP4 MSTORE SWAP3 SWAP1 MSTORE KECCAK256 SLOAD LT PUSH2 0x2F4B JUMPI POP PUSH1 0x2 SWAP1 POP PUSH2 0x17F8 JUMP JUMPDEST PUSH1 0x20 SLOAD PUSH2 0x2F59 SWAP1 PUSH1 0x1 PUSH2 0x4D54 JUMP JUMPDEST PUSH2 0x2F6B SWAP1 PUSH8 0xDE0B6B3A7640000 PUSH2 0x4D54 JUMP JUMPDEST PUSH1 0x1 PUSH1 0x1 PUSH1 0xA0 SHL SUB DUP1 DUP6 AND PUSH1 0x0 SWAP1 DUP2 MSTORE PUSH1 0x2 PUSH1 0x20 SWAP1 DUP2 MSTORE PUSH1 0x40 DUP1 DUP4 KECCAK256 SWAP4 DUP10 AND DUP4 MSTORE SWAP3 SWAP1 MSTORE KECCAK256 SLOAD LT PUSH2 0x2FA0 JUMPI POP PUSH1 0x1 SWAP1 POP PUSH2 0x17F8 JUMP JUMPDEST POP PUSH1 0x0 SWAP1 POP PUSH2 0x17F8 JUMP JUMPDEST PUSH1 0x0 DUP1 PUSH2 0x2FB8 DUP6 DUP6 DUP6 PUSH2 0x440D JUMP JUMPDEST PUSH1 0x0 DUP5 DUP2 MSTORE PUSH1 0x2A PUSH1 0x20 SWAP1 DUP2 MSTORE PUSH1 0x40 DUP1 DUP4 KECCAK256 PUSH1 0x1 PUSH1 0x1 PUSH1 0xA0 SHL SUB DUP11 AND DUP5 MSTORE SWAP1 SWAP2 MSTORE DUP2 KECCAK256 SLOAD SWAP2 SWAP3 POP SWAP1 PUSH2 0x2FE9 SWAP1 DUP4 PUSH2 0x4E75 JUMP JUMPDEST SWAP7 SWAP6 POP POP POP POP POP POP JUMP JUMPDEST PUSH1 0x0 SLOAD PUSH1 0x1 PUSH1 0x1 PUSH1 0xA0 SHL SUB AND CALLER EQ PUSH2 0x301D JUMPI PUSH1 0x40 MLOAD PUSH3 0x461BCD PUSH1 0xE5 SHL DUP2 MSTORE PUSH1 0x4 ADD PUSH2 0x1025 SWAP1 PUSH2 0x4D09 JUMP JUMPDEST PUSH1 0x1 PUSH1 0x1 PUSH1 0xA0 SHL SUB DUP2 AND PUSH1 0x0 DUP2 DUP2 MSTORE PUSH1 0x11 PUSH1 0x20 MSTORE PUSH1 0x40 SWAP1 DUP2 SWAP1 KECCAK256 SLOAD SWAP1 MLOAD PUSH4 0xA9059CBB PUSH1 0xE0 SHL DUP2 MSTORE SWAP1 SWAP2 SWAP1 PUSH4 0xA9059CBB SWAP1 PUSH2 0x305D SWAP1 CALLER SWAP1 DUP6 SWAP1 PUSH1 0x4 ADD PUSH2 0x4E8C JUMP JUMPDEST PUSH1 0x20 PUSH1 0x40 MLOAD DUP1 DUP4 SUB DUP2 PUSH1 0x0 DUP8 GAS CALL ISZERO DUP1 ISZERO PUSH2 0x307C JUMPI RETURNDATASIZE PUSH1 0x0 DUP1 RETURNDATACOPY RETURNDATASIZE PUSH1 0x0 REVERT JUMPDEST POP POP POP POP PUSH1 0x40 MLOAD RETURNDATASIZE PUSH1 0x1F NOT PUSH1 0x1F DUP3 ADD AND DUP3 ADD DUP1 PUSH1 0x40 MSTORE POP DUP2 ADD SWAP1 PUSH2 0x30A0 SWAP2 SWAP1 PUSH2 0x4E27 JUMP JUMPDEST POP PUSH1 0x40 MLOAD PUSH4 0x70A08231 PUSH1 0xE0 SHL DUP2 MSTORE ADDRESS PUSH1 0x4 DUP3 ADD MSTORE PUSH8 0xDE0B6B3A7640000 SWAP1 PUSH1 0x1 PUSH1 0x1 PUSH1 0xA0 SHL SUB DUP5 AND SWAP1 PUSH4 0x70A08231 SWAP1 PUSH1 0x24 ADD PUSH1 0x20 PUSH1 0x40 MLOAD DUP1 DUP4 SUB DUP2 DUP7 GAS STATICCALL ISZERO DUP1 ISZERO PUSH2 0x30EF JUMPI RETURNDATASIZE PUSH1 0x0 DUP1 RETURNDATACOPY RETURNDATASIZE PUSH1 0x0 REVERT JUMPDEST POP POP POP POP PUSH1 0x40 MLOAD RETURNDATASIZE PUSH1 0x1F NOT PUSH1 0x1F DUP3 ADD AND DUP3 ADD DUP1 PUSH1 0x40 MSTORE POP DUP2 ADD SWAP1 PUSH2 0x3113 SWAP2 SWAP1 PUSH2 0x4E5C JUMP JUMPDEST PUSH2 0x311D SWAP2 SWAP1 PUSH2 0x4D73 JUMP JUMPDEST PUSH1 0x1D SSTORE POP PUSH1 0x1 PUSH1 0x1 PUSH1 0xA0 SHL SUB AND PUSH1 0x0 SWAP1 DUP2 MSTORE PUSH1 0x11 PUSH1 0x20 MSTORE PUSH1 0x40 DUP2 KECCAK256 SSTORE JUMP JUMPDEST PUSH1 0x1 PUSH1 0x1 PUSH1 0xA0 SHL SUB DUP2 AND PUSH1 0x0 SWAP1 DUP2 MSTORE PUSH1 0x2 PUSH1 0x20 SWAP1 DUP2 MSTORE PUSH1 0x40 DUP1 DUP4 KECCAK256 CALLER DUP5 MSTORE SWAP1 SWAP2 MSTORE SWAP1 KECCAK256 SLOAD DUP3 PUSH2 0x317C JUMPI PUSH1 0x40 MLOAD PUSH3 0x461BCD PUSH1 0xE5 SHL DUP2 MSTORE PUSH1 0x4 ADD PUSH2 0x1025 SWAP1 PUSH2 0x4D95 JUMP JUMPDEST DUP3 DUP2 LT ISZERO PUSH2 0x31D8 JUMPI PUSH1 0x40 MLOAD PUSH3 0x461BCD PUSH1 0xE5 SHL DUP2 MSTORE PUSH1 0x20 PUSH1 0x4 DUP3 ADD MSTORE PUSH1 0x23 PUSH1 0x24 DUP3 ADD MSTORE PUSH32 0x596F7520646F6E2774206861766520656E6F756768207374616B656420746F6B PUSH1 0x44 DUP3 ADD MSTORE PUSH3 0x656E73 PUSH1 0xE8 SHL PUSH1 0x64 DUP3 ADD MSTORE PUSH1 0x84 ADD PUSH2 0x1025 JUMP JUMPDEST PUSH2 0x31E1 DUP3 PUSH2 0x430C JUMP JUMPDEST PUSH2 0x31FD JUMPI PUSH1 0x40 MLOAD PUSH3 0x461BCD PUSH1 0xE5 SHL DUP2 MSTORE PUSH1 0x4 ADD PUSH2 0x1025 SWAP1 PUSH2 0x4DCC JUMP JUMPDEST CALLER PUSH1 0x0 SWAP1 DUP2 MSTORE PUSH1 0x5 PUSH1 0x20 MSTORE PUSH1 0x40 SWAP1 KECCAK256 SLOAD TIMESTAMP SWAP1 PUSH2 0x321C SWAP1 PUSH3 0x49D400 PUSH2 0x4E44 JUMP JUMPDEST DUP2 LT ISZERO PUSH2 0x336A JUMPI CALLER PUSH1 0x0 SWAP1 DUP2 MSTORE PUSH1 0x5 PUSH1 0x20 MSTORE PUSH1 0x40 SWAP1 KECCAK256 SLOAD PUSH2 0x3240 SWAP1 PUSH3 0x375F00 PUSH2 0x4E44 JUMP JUMPDEST DUP2 LT ISZERO PUSH2 0x335B JUMPI CALLER PUSH1 0x0 SWAP1 DUP2 MSTORE PUSH1 0x5 PUSH1 0x20 MSTORE PUSH1 0x40 SWAP1 KECCAK256 SLOAD PUSH2 0x3264 SWAP1 PUSH3 0x24EA00 PUSH2 0x4E44 JUMP JUMPDEST DUP2 LT ISZERO PUSH2 0x334C JUMPI CALLER PUSH1 0x0 SWAP1 DUP2 MSTORE PUSH1 0x5 PUSH1 0x20 MSTORE PUSH1 0x40 SWAP1 KECCAK256 SLOAD PUSH2 0x3288 SWAP1 PUSH3 0x127500 PUSH2 0x4E44 JUMP JUMPDEST DUP2 LT ISZERO PUSH2 0x333D JUMPI PUSH1 0x0 PUSH1 0x64 PUSH2 0x329E DUP7 PUSH1 0x4B PUSH2 0x4D54 JUMP JUMPDEST PUSH2 0x32A8 SWAP2 SWAP1 PUSH2 0x4D73 JUMP JUMPDEST PUSH1 0x40 MLOAD PUSH4 0xA9059CBB PUSH1 0xE0 SHL DUP2 MSTORE SWAP1 SWAP2 POP PUSH1 0x1 PUSH1 0x1 PUSH1 0xA0 SHL SUB DUP6 AND SWAP1 PUSH4 0xA9059CBB SWAP1 PUSH2 0x32D9 SWAP1 CALLER SWAP1 DUP6 SWAP1 PUSH1 0x4 ADD PUSH2 0x4E8C JUMP JUMPDEST PUSH1 0x20 PUSH1 0x40 MLOAD DUP1 DUP4 SUB DUP2 PUSH1 0x0 DUP8 GAS CALL ISZERO DUP1 ISZERO PUSH2 0x32F8 JUMPI RETURNDATASIZE PUSH1 0x0 DUP1 RETURNDATACOPY RETURNDATASIZE PUSH1 0x0 REVERT JUMPDEST POP POP POP POP PUSH1 0x40 MLOAD RETURNDATASIZE PUSH1 0x1F NOT PUSH1 0x1F DUP3 ADD AND DUP3 ADD DUP1 PUSH1 0x40 MSTORE POP DUP2 ADD SWAP1 PUSH2 0x331C SWAP2 SWAP1 PUSH2 0x4E27 JUMP JUMPDEST POP PUSH2 0x3327 DUP2 DUP7 PUSH2 0x4E75 JUMP JUMPDEST PUSH1 0x6 SLOAD PUSH2 0x3334 SWAP2 SWAP1 PUSH2 0x4E44 JUMP JUMPDEST PUSH1 0x6 SSTORE POP PUSH2 0x33DD JUMP JUMPDEST PUSH1 0x0 PUSH1 0x64 PUSH2 0x329E DUP7 PUSH1 0x55 PUSH2 0x4D54 JUMP JUMPDEST PUSH1 0x0 PUSH1 0x64 PUSH2 0x329E DUP7 PUSH1 0x5A PUSH2 0x4D54 JUMP JUMPDEST PUSH1 0x0 PUSH1 0x64 PUSH2 0x329E DUP7 PUSH1 0x5F PUSH2 0x4D54 JUMP JUMPDEST PUSH1 0x40 MLOAD PUSH4 0xA9059CBB PUSH1 0xE0 SHL DUP2 MSTORE PUSH1 0x1 PUSH1 0x1 PUSH1 0xA0 SHL SUB DUP5 AND SWAP1 PUSH4 0xA9059CBB SWAP1 PUSH2 0x3398 SWAP1 CALLER SWAP1 DUP9 SWAP1 PUSH1 0x4 ADD PUSH2 0x4E8C JUMP JUMPDEST PUSH1 0x20 PUSH1 0x40 MLOAD DUP1 DUP4 SUB DUP2 PUSH1 0x0 DUP8 GAS CALL ISZERO DUP1 ISZERO PUSH2 0x33B7 JUMPI RETURNDATASIZE PUSH1 0x0 DUP1 RETURNDATACOPY RETURNDATASIZE PUSH1 0x0 REVERT JUMPDEST POP POP POP POP PUSH1 0x40 MLOAD RETURNDATASIZE PUSH1 0x1F NOT PUSH1 0x1F DUP3 ADD AND DUP3 ADD DUP1 PUSH1 0x40 MSTORE POP DUP2 ADD SWAP1 PUSH2 0x33DB SWAP2 SWAP1 PUSH2 0x4E27 JUMP JUMPDEST POP JUMPDEST PUSH2 0x33E7 CALLER DUP5 PUSH2 0x261F JUMP JUMPDEST CALLER PUSH1 0x0 SWAP1 DUP2 MSTORE PUSH1 0x4 PUSH1 0x20 SWAP1 DUP2 MSTORE PUSH1 0x40 DUP1 DUP4 KECCAK256 SWAP4 SWAP1 SWAP4 SSTORE PUSH1 0x3 SWAP1 MSTORE KECCAK256 TIMESTAMP SWAP1 SSTORE PUSH2 0x340F DUP5 DUP4 PUSH2 0x4E75 JUMP JUMPDEST PUSH1 0x1 PUSH1 0x1 PUSH1 0xA0 SHL SUB DUP5 AND PUSH1 0x0 SWAP1 DUP2 MSTORE PUSH1 0x2 PUSH1 0x20 SWAP1 DUP2 MSTORE PUSH1 0x40 DUP1 DUP4 KECCAK256 CALLER DUP5 MSTORE SWAP1 SWAP2 MSTORE SWAP1 KECCAK256 SSTORE PUSH1 0xB SLOAD PUSH2 0x3441 SWAP1 DUP6 SWAP1 PUSH2 0x4E75 JUMP JUMPDEST PUSH1 0xB SSTORE PUSH1 0x1 PUSH1 0x1 PUSH1 0xA0 SHL SUB DUP4 AND PUSH1 0x0 SWAP1 DUP2 MSTORE PUSH1 0x2 PUSH1 0x20 SWAP1 DUP2 MSTORE PUSH1 0x40 DUP1 DUP4 KECCAK256 CALLER DUP5 MSTORE SWAP1 SWAP2 MSTORE SWAP1 KECCAK256 SLOAD PUSH2 0x34AB JUMPI PUSH1 0x1 PUSH1 0xA SLOAD PUSH2 0x347B SWAP2 SWAP1 PUSH2 0x4E75 JUMP JUMPDEST PUSH1 0xA SSTORE CALLER PUSH1 0x0 SWAP1 DUP2 MSTORE PUSH1 0x7 PUSH1 0x20 MSTORE PUSH1 0x40 SWAP1 KECCAK256 SLOAD PUSH2 0x349A SWAP1 PUSH1 0x1 SWAP1 PUSH2 0x4E75 JUMP JUMPDEST CALLER PUSH1 0x0 SWAP1 DUP2 MSTORE PUSH1 0x7 PUSH1 0x20 MSTORE PUSH1 0x40 SWAP1 KECCAK256 SSTORE JUMPDEST POP POP POP POP JUMP JUMPDEST PUSH1 0x0 SLOAD PUSH1 0x1 PUSH1 0x1 PUSH1 0xA0 SHL SUB AND CALLER EQ PUSH2 0x34DB JUMPI PUSH1 0x40 MLOAD PUSH3 0x461BCD PUSH1 0xE5 SHL DUP2 MSTORE PUSH1 0x4 ADD PUSH2 0x1025 SWAP1 PUSH2 0x4D09 JUMP JUMPDEST PUSH1 0x1 PUSH1 0x1 PUSH1 0xA0 SHL SUB SWAP2 DUP3 AND PUSH1 0x0 SWAP1 DUP2 MSTORE PUSH1 0x8 PUSH1 0x20 MSTORE PUSH1 0x40 SWAP1 KECCAK256 DUP1 SLOAD PUSH1 0x1 PUSH1 0x1 PUSH1 0xA0 SHL SUB NOT AND SWAP2 SWAP1 SWAP3 AND OR SWAP1 SSTORE JUMP JUMPDEST PUSH1 0x0 SLOAD PUSH1 0x1 PUSH1 0x1 PUSH1 0xA0 SHL SUB AND CALLER EQ PUSH2 0x3533 JUMPI PUSH1 0x40 MLOAD PUSH3 0x461BCD PUSH1 0xE5 SHL DUP2 MSTORE PUSH1 0x4 ADD PUSH2 0x1025 SWAP1 PUSH2 0x4D09 JUMP JUMPDEST PUSH1 0x20 SSTORE JUMP JUMPDEST PUSH1 0x0 PUSH2 0x3544 CALLER DUP4 PUSH2 0x261F JUMP JUMPDEST SWAP1 POP PUSH1 0x0 DUP2 GT PUSH2 0x3553 JUMPI PUSH1 0x0 DUP1 REVERT JUMPDEST PUSH1 0x40 MLOAD PUSH4 0xA9059CBB PUSH1 0xE0 SHL DUP2 MSTORE PUSH1 0x1 PUSH1 0x1 PUSH1 0xA0 SHL SUB DUP4 AND SWAP1 PUSH4 0xA9059CBB SWAP1 PUSH2 0x3581 SWAP1 CALLER SWAP1 DUP6 SWAP1 PUSH1 0x4 ADD PUSH2 0x4E8C JUMP JUMPDEST PUSH1 0x20 PUSH1 0x40 MLOAD DUP1 DUP4 SUB DUP2 PUSH1 0x0 DUP8 GAS CALL ISZERO DUP1 ISZERO PUSH2 0x35A0 JUMPI RETURNDATASIZE PUSH1 0x0 DUP1 RETURNDATACOPY RETURNDATASIZE PUSH1 0x0 REVERT JUMPDEST POP POP POP POP PUSH1 0x40 MLOAD RETURNDATASIZE PUSH1 0x1F NOT PUSH1 0x1F DUP3 ADD AND DUP3 ADD DUP1 PUSH1 0x40 MSTORE POP DUP2 ADD SWAP1 PUSH2 0x35C4 SWAP2 SWAP1 PUSH2 0x4E27 JUMP JUMPDEST POP POP CALLER PUSH1 0x0 SWAP1 DUP2 MSTORE PUSH1 0x4 PUSH1 0x20 SWAP1 DUP2 MSTORE PUSH1 0x40 DUP1 DUP4 KECCAK256 DUP4 SWAP1 SSTORE PUSH1 0x3 SWAP1 SWAP2 MSTORE SWAP1 KECCAK256 TIMESTAMP SWAP1 SSTORE POP JUMP JUMPDEST PUSH1 0x0 DUP1 PUSH1 0x1B PUSH1 0x0 SWAP1 SLOAD SWAP1 PUSH2 0x100 EXP SWAP1 DIV PUSH1 0x1 PUSH1 0x1 PUSH1 0xA0 SHL SUB AND PUSH1 0x1 PUSH1 0x1 PUSH1 0xA0 SHL SUB AND PUSH4 0xFEAF968C PUSH1 0x40 MLOAD DUP2 PUSH4 0xFFFFFFFF AND PUSH1 0xE0 SHL DUP2 MSTORE PUSH1 0x4 ADD PUSH1 0xA0 PUSH1 0x40 MLOAD DUP1 DUP4 SUB DUP2 DUP7 GAS STATICCALL ISZERO DUP1 ISZERO PUSH2 0x363E JUMPI RETURNDATASIZE PUSH1 0x0 DUP1 RETURNDATACOPY RETURNDATASIZE PUSH1 0x0 REVERT JUMPDEST POP POP POP POP PUSH1 0x40 MLOAD RETURNDATASIZE PUSH1 0x1F NOT PUSH1 0x1F DUP3 ADD AND DUP3 ADD DUP1 PUSH1 0x40 MSTORE POP DUP2 ADD SWAP1 PUSH2 0x3662 SWAP2 SWAP1 PUSH2 0x502C JUMP JUMPDEST POP POP POP SWAP2 POP POP DUP1 PUSH5 0x2540BE400 PUSH2 0x3679 SWAP2 SWAP1 PUSH2 0x507C JUMP JUMPDEST SWAP2 POP POP SWAP1 JUMP JUMPDEST PUSH1 0x0 SLOAD PUSH1 0x1 PUSH1 0x1 PUSH1 0xA0 SHL SUB AND CALLER EQ PUSH2 0x36A9 JUMPI PUSH1 0x40 MLOAD PUSH3 0x461BCD PUSH1 0xE5 SHL DUP2 MSTORE PUSH1 0x4 ADD PUSH2 0x1025 SWAP1 PUSH2 0x4D09 JUMP JUMPDEST PUSH1 0x0 SWAP2 DUP3 MSTORE PUSH1 0x26 PUSH1 0x20 MSTORE PUSH1 0x40 SWAP1 SWAP2 KECCAK256 DUP1 SLOAD PUSH1 0xFF NOT AND SWAP2 ISZERO ISZERO SWAP2 SWAP1 SWAP2 OR SWAP1 SSTORE JUMP JUMPDEST PUSH1 0x0 SLOAD PUSH1 0x1 PUSH1 0x1 PUSH1 0xA0 SHL SUB AND CALLER EQ PUSH2 0x36F3 JUMPI PUSH1 0x40 MLOAD PUSH3 0x461BCD PUSH1 0xE5 SHL DUP2 MSTORE PUSH1 0x4 ADD PUSH2 0x1025 SWAP1 PUSH2 0x4D09 JUMP JUMPDEST PUSH1 0x65 PUSH1 0x17 SLOAD GT ISZERO PUSH2 0x3703 JUMPI PUSH1 0x0 DUP1 REVERT JUMPDEST PUSH1 0x65 DUP2 PUSH1 0x17 SLOAD PUSH2 0x3713 SWAP2 SWAP1 PUSH2 0x4E44 JUMP JUMPDEST GT ISZERO PUSH2 0x371E JUMPI PUSH1 0x0 DUP1 REVERT JUMPDEST DUP1 PUSH1 0x17 SLOAD PUSH2 0x372C SWAP2 SWAP1 PUSH2 0x4E44 JUMP JUMPDEST PUSH1 0x17 SSTORE POP JUMP JUMPDEST PUSH1 0x1 PUSH1 0x1 PUSH1 0xA0 SHL SUB DUP2 AND PUSH1 0x0 SWAP1 DUP2 MSTORE PUSH1 0x7 PUSH1 0x20 MSTORE PUSH1 0x40 DUP2 KECCAK256 SLOAD DUP2 SWAP1 PUSH2 0x378D JUMPI PUSH1 0x40 MLOAD PUSH3 0x461BCD PUSH1 0xE5 SHL DUP2 MSTORE PUSH1 0x20 PUSH1 0x4 DUP3 ADD MSTORE PUSH1 0x11 PUSH1 0x24 DUP3 ADD MSTORE PUSH17 0x4E6F20746F6B656E73207374616B656421 PUSH1 0x78 SHL PUSH1 0x44 DUP3 ADD MSTORE PUSH1 0x64 ADD PUSH2 0x1025 JUMP JUMPDEST PUSH1 0x0 JUMPDEST PUSH1 0xD SLOAD DUP2 LT ISZERO PUSH2 0x37E9 JUMPI PUSH2 0x37CB DUP5 PUSH1 0xD DUP4 DUP2 SLOAD DUP2 LT PUSH2 0x37B1 JUMPI PUSH2 0x37B1 PUSH2 0x4FE1 JUMP JUMPDEST PUSH1 0x0 SWAP2 DUP3 MSTORE PUSH1 0x20 SWAP1 SWAP2 KECCAK256 ADD SLOAD PUSH1 0x1 PUSH1 0x1 PUSH1 0xA0 SHL SUB AND PUSH2 0x1777 JUMP JUMPDEST PUSH2 0x37D5 SWAP1 DUP4 PUSH2 0x4E44 JUMP JUMPDEST SWAP2 POP DUP1 PUSH2 0x37E1 DUP2 PUSH2 0x4FF7 JUMP JUMPDEST SWAP2 POP POP PUSH2 0x3790 JUMP JUMPDEST POP SWAP3 SWAP2 POP POP JUMP JUMPDEST PUSH1 0x0 DUP1 JUMPDEST PUSH1 0x1A SLOAD DUP2 LT ISZERO PUSH2 0x3851 JUMPI DUP3 PUSH1 0x1 PUSH1 0x1 PUSH1 0xA0 SHL SUB AND PUSH1 0x1A DUP3 DUP2 SLOAD DUP2 LT PUSH2 0x381B JUMPI PUSH2 0x381B PUSH2 0x4FE1 JUMP JUMPDEST PUSH1 0x0 SWAP2 DUP3 MSTORE PUSH1 0x20 SWAP1 SWAP2 KECCAK256 ADD SLOAD PUSH1 0x1 PUSH1 0x1 PUSH1 0xA0 SHL SUB AND EQ ISZERO PUSH2 0x383F JUMPI POP PUSH1 0x1 SWAP3 SWAP2 POP POP JUMP JUMPDEST DUP1 PUSH2 0x3849 DUP2 PUSH2 0x4FF7 JUMP JUMPDEST SWAP2 POP POP PUSH2 0x37F4 JUMP JUMPDEST POP PUSH1 0x0 SWAP3 SWAP2 POP POP JUMP JUMPDEST PUSH1 0x0 SLOAD PUSH1 0x1 PUSH1 0x1 PUSH1 0xA0 SHL SUB AND CALLER EQ PUSH2 0x3884 JUMPI PUSH1 0x40 MLOAD PUSH3 0x461BCD PUSH1 0xE5 SHL DUP2 MSTORE PUSH1 0x4 ADD PUSH2 0x1025 SWAP1 PUSH2 0x4D09 JUMP JUMPDEST PUSH1 0x0 SWAP2 DUP3 MSTORE PUSH1 0x1F PUSH1 0x20 MSTORE PUSH1 0x40 SWAP1 SWAP2 KECCAK256 DUP1 SLOAD PUSH1 0xFF NOT AND SWAP2 ISZERO ISZERO SWAP2 SWAP1 SWAP2 OR SWAP1 SSTORE JUMP JUMPDEST PUSH1 0x0 DUP2 DUP2 MSTORE PUSH1 0x28 PUSH1 0x20 MSTORE PUSH1 0x40 SWAP1 KECCAK256 SLOAD PUSH1 0xFF AND ISZERO ISZERO PUSH1 0x1 EQ PUSH2 0x38C4 JUMPI PUSH1 0x0 DUP1 REVERT JUMPDEST PUSH1 0x0 DUP2 DUP2 MSTORE PUSH1 0x24 PUSH1 0x20 MSTORE PUSH1 0x40 SWAP1 KECCAK256 SLOAD PUSH2 0x38DC JUMPI PUSH1 0x0 DUP1 REVERT JUMPDEST PUSH1 0x0 DUP5 GT PUSH2 0x38FC JUMPI PUSH1 0x40 MLOAD PUSH3 0x461BCD PUSH1 0xE5 SHL DUP2 MSTORE PUSH1 0x4 ADD PUSH2 0x1025 SWAP1 PUSH2 0x4D95 JUMP JUMPDEST PUSH2 0x3905 DUP3 PUSH2 0x37F0 JUMP JUMPDEST PUSH2 0x3921 JUMPI PUSH1 0x40 MLOAD PUSH3 0x461BCD PUSH1 0xE5 SHL DUP2 MSTORE PUSH1 0x4 ADD PUSH2 0x1025 SWAP1 PUSH2 0x4DCC JUMP JUMPDEST PUSH1 0x0 DUP2 DUP2 MSTORE PUSH1 0x24 PUSH1 0x20 SWAP1 DUP2 MSTORE PUSH1 0x40 DUP1 DUP4 KECCAK256 SLOAD PUSH1 0x2E DUP4 MSTORE DUP2 DUP5 KECCAK256 PUSH1 0x1 PUSH1 0x1 PUSH1 0xA0 SHL SUB DUP8 AND DUP6 MSTORE SWAP1 SWAP3 MSTORE SWAP1 SWAP2 KECCAK256 SLOAD LT PUSH2 0x3957 JUMPI PUSH1 0x0 DUP1 REVERT JUMPDEST PUSH1 0x0 DUP2 DUP2 MSTORE PUSH1 0x24 PUSH1 0x20 SWAP1 DUP2 MSTORE PUSH1 0x40 DUP1 DUP4 KECCAK256 SLOAD PUSH1 0x2E DUP4 MSTORE DUP2 DUP5 KECCAK256 PUSH1 0x1 PUSH1 0x1 PUSH1 0xA0 SHL SUB DUP8 AND DUP6 MSTORE SWAP1 SWAP3 MSTORE SWAP1 SWAP2 KECCAK256 SLOAD PUSH2 0x398E SWAP1 DUP7 SWAP1 PUSH2 0x4E44 JUMP JUMPDEST GT ISZERO PUSH2 0x3999 JUMPI PUSH1 0x0 DUP1 REVERT JUMPDEST CALLER PUSH1 0x0 DUP2 DUP2 MSTORE PUSH1 0x5 PUSH1 0x20 MSTORE PUSH1 0x40 SWAP1 DUP2 SWAP1 KECCAK256 TIMESTAMP SWAP1 SSTORE MLOAD PUSH4 0x23B872DD PUSH1 0xE0 SHL DUP2 MSTORE PUSH1 0x1 PUSH1 0x1 PUSH1 0xA0 SHL SUB DUP5 AND SWAP2 PUSH4 0x23B872DD SWAP2 PUSH2 0x39DA SWAP2 SWAP1 ADDRESS SWAP1 DUP10 SWAP1 PUSH1 0x4 ADD PUSH2 0x4E03 JUMP JUMPDEST PUSH1 0x20 PUSH1 0x40 MLOAD DUP1 DUP4 SUB DUP2 PUSH1 0x0 DUP8 GAS CALL ISZERO DUP1 ISZERO PUSH2 0x39F9 JUMPI RETURNDATASIZE PUSH1 0x0 DUP1 RETURNDATACOPY RETURNDATASIZE PUSH1 0x0 REVERT JUMPDEST POP POP POP POP PUSH1 0x40 MLOAD RETURNDATASIZE PUSH1 0x1F NOT PUSH1 0x1F DUP3 ADD AND DUP3 ADD DUP1 PUSH1 0x40 MSTORE POP DUP2 ADD SWAP1 PUSH2 0x3A1D SWAP2 SWAP1 PUSH2 0x4E27 JUMP JUMPDEST POP PUSH2 0x3A28 CALLER DUP3 PUSH2 0x4A03 JUMP JUMPDEST PUSH1 0x0 DUP2 DUP2 MSTORE PUSH1 0x2A PUSH1 0x20 SWAP1 DUP2 MSTORE PUSH1 0x40 DUP1 DUP4 KECCAK256 CALLER DUP5 MSTORE SWAP1 SWAP2 MSTORE SWAP1 KECCAK256 SLOAD PUSH2 0x3A4D SWAP1 DUP6 SWAP1 PUSH2 0x4E44 JUMP JUMPDEST PUSH1 0x0 DUP3 DUP2 MSTORE PUSH1 0x2A PUSH1 0x20 SWAP1 DUP2 MSTORE PUSH1 0x40 DUP1 DUP4 KECCAK256 CALLER DUP5 MSTORE DUP3 MSTORE DUP1 DUP4 KECCAK256 SWAP4 SWAP1 SWAP4 SSTORE DUP4 DUP3 MSTORE PUSH1 0x2C SWAP1 MSTORE KECCAK256 SLOAD PUSH2 0x3A7D SWAP1 DUP6 PUSH2 0x4D54 JUMP JUMPDEST PUSH1 0x0 DUP3 DUP2 MSTORE PUSH1 0x30 PUSH1 0x20 SWAP1 DUP2 MSTORE PUSH1 0x40 DUP1 DUP4 KECCAK256 CALLER DUP5 MSTORE SWAP1 SWAP2 MSTORE SWAP1 KECCAK256 SLOAD PUSH2 0x3AA1 SWAP2 SWAP1 PUSH2 0x4E44 JUMP JUMPDEST PUSH1 0x0 DUP3 DUP2 MSTORE PUSH1 0x30 PUSH1 0x20 SWAP1 DUP2 MSTORE PUSH1 0x40 DUP1 DUP4 KECCAK256 CALLER DUP5 MSTORE DUP3 MSTORE DUP1 DUP4 KECCAK256 SWAP4 SWAP1 SWAP4 SSTORE DUP4 DUP3 MSTORE PUSH1 0x2D DUP2 MSTORE DUP3 DUP3 KECCAK256 PUSH1 0x1 PUSH1 0x1 PUSH1 0xA0 SHL SUB DUP7 AND DUP4 MSTORE SWAP1 MSTORE KECCAK256 SLOAD PUSH2 0x3AE3 SWAP1 DUP6 SWAP1 PUSH2 0x4E44 JUMP JUMPDEST PUSH1 0x0 DUP3 DUP2 MSTORE PUSH1 0x2D PUSH1 0x20 SWAP1 DUP2 MSTORE PUSH1 0x40 DUP1 DUP4 KECCAK256 PUSH1 0x1 PUSH1 0x1 PUSH1 0xA0 SHL SUB DUP8 AND DUP1 DUP6 MSTORE SWAP1 DUP4 MSTORE DUP2 DUP5 KECCAK256 SWAP5 SWAP1 SWAP5 SSTORE DUP5 DUP4 MSTORE PUSH1 0x2E DUP3 MSTORE DUP1 DUP4 KECCAK256 SWAP4 DUP4 MSTORE SWAP3 SWAP1 MSTORE KECCAK256 SLOAD PUSH2 0x3B28 SWAP1 DUP6 SWAP1 PUSH2 0x4E44 JUMP JUMPDEST PUSH1 0x0 DUP3 DUP2 MSTORE PUSH1 0x2E PUSH1 0x20 SWAP1 DUP2 MSTORE PUSH1 0x40 DUP1 DUP4 KECCAK256 PUSH1 0x1 PUSH1 0x1 PUSH1 0xA0 SHL SUB DUP8 AND DUP5 MSTORE SWAP1 SWAP2 MSTORE SWAP1 KECCAK256 SSTORE PUSH1 0x13 SLOAD PUSH2 0x3B59 SWAP1 DUP6 SWAP1 PUSH2 0x4E44 JUMP JUMPDEST PUSH1 0x13 SSTORE POP POP POP POP JUMP JUMPDEST PUSH1 0x0 SLOAD PUSH1 0x1 PUSH1 0x1 PUSH1 0xA0 SHL SUB AND CALLER EQ PUSH2 0x3B8C JUMPI PUSH1 0x40 MLOAD PUSH3 0x461BCD PUSH1 0xE5 SHL DUP2 MSTORE PUSH1 0x4 ADD PUSH2 0x1025 SWAP1 PUSH2 0x4D09 JUMP JUMPDEST PUSH1 0x0 SWAP2 DUP3 MSTORE PUSH1 0x24 PUSH1 0x20 MSTORE PUSH1 0x40 SWAP1 SWAP2 KECCAK256 SSTORE JUMP JUMPDEST PUSH1 0x0 SLOAD PUSH1 0x1 PUSH1 0x1 PUSH1 0xA0 SHL SUB AND CALLER EQ PUSH2 0x3BC8 JUMPI PUSH1 0x40 MLOAD PUSH3 0x461BCD PUSH1 0xE5 SHL DUP2 MSTORE PUSH1 0x4 ADD PUSH2 0x1025 SWAP1 PUSH2 0x4D09 JUMP JUMPDEST PUSH1 0x0 SWAP2 DUP3 MSTORE PUSH1 0x2C PUSH1 0x20 MSTORE PUSH1 0x40 SWAP1 SWAP2 KECCAK256 SSTORE JUMP JUMPDEST PUSH1 0x1 PUSH1 0x1 PUSH1 0xA0 SHL SUB DUP2 AND PUSH1 0x0 SWAP1 DUP2 MSTORE PUSH1 0x2 PUSH1 0x20 SWAP1 DUP2 MSTORE PUSH1 0x40 DUP1 DUP4 KECCAK256 CALLER DUP5 MSTORE SWAP1 SWAP2 MSTORE SWAP1 KECCAK256 SLOAD DUP1 PUSH2 0x3C4B JUMPI PUSH1 0x40 MLOAD PUSH3 0x461BCD PUSH1 0xE5 SHL DUP2 MSTORE PUSH1 0x20 PUSH1 0x4 DUP3 ADD MSTORE PUSH1 0x1B PUSH1 0x24 DUP3 ADD MSTORE PUSH32 0x5374616B696E672062616C616E63652063616E6E6F7420626520300000000000 PUSH1 0x44 DUP3 ADD MSTORE PUSH1 0x64 ADD PUSH2 0x1025 JUMP JUMPDEST PUSH2 0x3C54 DUP3 PUSH2 0x430C JUMP JUMPDEST PUSH2 0x3C70 JUMPI PUSH1 0x40 MLOAD PUSH3 0x461BCD PUSH1 0xE5 SHL DUP2 MSTORE PUSH1 0x4 ADD PUSH2 0x1025 SWAP1 PUSH2 0x4DCC JUMP JUMPDEST CALLER PUSH1 0x0 SWAP1 DUP2 MSTORE PUSH1 0x5 PUSH1 0x20 MSTORE PUSH1 0x40 SWAP1 KECCAK256 SLOAD TIMESTAMP SWAP1 PUSH2 0x3C8F SWAP1 PUSH3 0x49D400 PUSH2 0x4E44 JUMP JUMPDEST DUP2 LT ISZERO PUSH2 0x3DDD JUMPI CALLER PUSH1 0x0 SWAP1 DUP2 MSTORE PUSH1 0x5 PUSH1 0x20 MSTORE PUSH1 0x40 SWAP1 KECCAK256 SLOAD PUSH2 0x3CB3 SWAP1 PUSH3 0x375F00 PUSH2 0x4E44 JUMP JUMPDEST DUP2 LT ISZERO PUSH2 0x3DCE JUMPI CALLER PUSH1 0x0 SWAP1 DUP2 MSTORE PUSH1 0x5 PUSH1 0x20 MSTORE PUSH1 0x40 SWAP1 KECCAK256 SLOAD PUSH2 0x3CD7 SWAP1 PUSH3 0x24EA00 PUSH2 0x4E44 JUMP JUMPDEST DUP2 LT ISZERO PUSH2 0x3DBF JUMPI CALLER PUSH1 0x0 SWAP1 DUP2 MSTORE PUSH1 0x5 PUSH1 0x20 MSTORE PUSH1 0x40 SWAP1 KECCAK256 SLOAD PUSH2 0x3CFB SWAP1 PUSH3 0x127500 PUSH2 0x4E44 JUMP JUMPDEST DUP2 LT ISZERO PUSH2 0x3DB0 JUMPI PUSH1 0x0 PUSH1 0x64 PUSH2 0x3D11 DUP5 PUSH1 0x4B PUSH2 0x4D54 JUMP JUMPDEST PUSH2 0x3D1B SWAP2 SWAP1 PUSH2 0x4D73 JUMP JUMPDEST PUSH1 0x40 MLOAD PUSH4 0xA9059CBB PUSH1 0xE0 SHL DUP2 MSTORE SWAP1 SWAP2 POP PUSH1 0x1 PUSH1 0x1 PUSH1 0xA0 SHL SUB DUP6 AND SWAP1 PUSH4 0xA9059CBB SWAP1 PUSH2 0x3D4C SWAP1 CALLER SWAP1 DUP6 SWAP1 PUSH1 0x4 ADD PUSH2 0x4E8C JUMP JUMPDEST PUSH1 0x20 PUSH1 0x40 MLOAD DUP1 DUP4 SUB DUP2 PUSH1 0x0 DUP8 GAS CALL ISZERO DUP1 ISZERO PUSH2 0x3D6B JUMPI RETURNDATASIZE PUSH1 0x0 DUP1 RETURNDATACOPY RETURNDATASIZE PUSH1 0x0 REVERT JUMPDEST POP POP POP POP PUSH1 0x40 MLOAD RETURNDATASIZE PUSH1 0x1F NOT PUSH1 0x1F DUP3 ADD AND DUP3 ADD DUP1 PUSH1 0x40 MSTORE POP DUP2 ADD SWAP1 PUSH2 0x3D8F SWAP2 SWAP1 PUSH2 0x4E27 JUMP JUMPDEST POP PUSH2 0x3D9A DUP2 DUP5 PUSH2 0x4E75 JUMP JUMPDEST PUSH1 0x6 SLOAD PUSH2 0x3DA7 SWAP2 SWAP1 PUSH2 0x4E44 JUMP JUMPDEST PUSH1 0x6 SSTORE POP PUSH2 0x3E50 JUMP JUMPDEST PUSH1 0x0 PUSH1 0x64 PUSH2 0x3D11 DUP5 PUSH1 0x55 PUSH2 0x4D54 JUMP JUMPDEST PUSH1 0x0 PUSH1 0x64 PUSH2 0x3D11 DUP5 PUSH1 0x5A PUSH2 0x4D54 JUMP JUMPDEST PUSH1 0x0 PUSH1 0x64 PUSH2 0x3D11 DUP5 PUSH1 0x5F PUSH2 0x4D54 JUMP JUMPDEST PUSH1 0x40 MLOAD PUSH4 0xA9059CBB PUSH1 0xE0 SHL DUP2 MSTORE PUSH1 0x1 PUSH1 0x1 PUSH1 0xA0 SHL SUB DUP5 AND SWAP1 PUSH4 0xA9059CBB SWAP1 PUSH2 0x3E0B SWAP1 CALLER SWAP1 DUP7 SWAP1 PUSH1 0x4 ADD PUSH2 0x4E8C JUMP JUMPDEST PUSH1 0x20 PUSH1 0x40 MLOAD DUP1 DUP4 SUB DUP2 PUSH1 0x0 DUP8 GAS CALL ISZERO DUP1 ISZERO PUSH2 0x3E2A JUMPI RETURNDATASIZE PUSH1 0x0 DUP1 RETURNDATACOPY RETURNDATASIZE PUSH1 0x0 REVERT JUMPDEST POP POP POP POP PUSH1 0x40 MLOAD RETURNDATASIZE PUSH1 0x1F NOT PUSH1 0x1F DUP3 ADD AND DUP3 ADD DUP1 PUSH1 0x40 MSTORE POP DUP2 ADD SWAP1 PUSH2 0x3E4E SWAP2 SWAP1 PUSH2 0x4E27 JUMP JUMPDEST POP JUMPDEST PUSH2 0x3E5A CALLER DUP5 PUSH2 0x261F JUMP JUMPDEST CALLER PUSH1 0x0 SWAP1 DUP2 MSTORE PUSH1 0x4 PUSH1 0x20 SWAP1 DUP2 MSTORE PUSH1 0x40 DUP1 DUP4 KECCAK256 SWAP4 SWAP1 SWAP4 SSTORE PUSH1 0x3 SWAP1 MSTORE KECCAK256 TIMESTAMP SWAP1 SSTORE PUSH1 0xB SLOAD PUSH2 0x3E86 SWAP1 DUP4 SWAP1 PUSH2 0x4E75 JUMP JUMPDEST PUSH1 0xB SSTORE PUSH1 0x1 PUSH1 0x1 PUSH1 0xA0 SHL SUB DUP4 AND PUSH1 0x0 SWAP1 DUP2 MSTORE PUSH1 0x2 PUSH1 0x20 SWAP1 DUP2 MSTORE PUSH1 0x40 DUP1 DUP4 KECCAK256 CALLER DUP5 MSTORE DUP3 MSTORE DUP1 DUP4 KECCAK256 DUP4 SWAP1 SSTORE PUSH1 0x7 SWAP1 SWAP2 MSTORE SWAP1 KECCAK256 SLOAD PUSH2 0x3EC3 SWAP1 PUSH1 0x1 SWAP1 PUSH2 0x4E75 JUMP JUMPDEST CALLER PUSH1 0x0 SWAP1 DUP2 MSTORE PUSH1 0x7 PUSH1 0x20 MSTORE PUSH1 0x40 SWAP1 KECCAK256 SSTORE PUSH1 0xA SLOAD PUSH2 0x3EE2 SWAP1 PUSH1 0x1 SWAP1 PUSH2 0x4E75 JUMP JUMPDEST PUSH1 0xA SSTORE POP POP POP JUMP JUMPDEST PUSH1 0x0 SLOAD PUSH1 0x1 PUSH1 0x1 PUSH1 0xA0 SHL SUB AND CALLER EQ PUSH2 0x3F14 JUMPI PUSH1 0x40 MLOAD PUSH3 0x461BCD PUSH1 0xE5 SHL DUP2 MSTORE PUSH1 0x4 ADD PUSH2 0x1025 SWAP1 PUSH2 0x4D09 JUMP JUMPDEST PUSH1 0x0 DUP3 DUP2 MSTORE PUSH1 0x32 PUSH1 0x20 MSTORE PUSH1 0x40 SWAP1 KECCAK256 SLOAD PUSH2 0x3F2E SWAP1 DUP3 SWAP1 PUSH2 0x4E44 JUMP JUMPDEST PUSH1 0x0 SWAP3 DUP4 MSTORE PUSH1 0x32 PUSH1 0x20 MSTORE PUSH1 0x40 SWAP1 SWAP3 KECCAK256 SWAP2 SWAP1 SWAP2 SSTORE POP JUMP JUMPDEST PUSH1 0x0 SLOAD PUSH1 0x1 PUSH1 0x1 PUSH1 0xA0 SHL SUB AND CALLER EQ PUSH2 0x3F6E JUMPI PUSH1 0x40 MLOAD PUSH3 0x461BCD PUSH1 0xE5 SHL DUP2 MSTORE PUSH1 0x4 ADD PUSH2 0x1025 SWAP1 PUSH2 0x4D09 JUMP JUMPDEST PUSH1 0x40 MLOAD PUSH4 0xA9059CBB PUSH1 0xE0 SHL DUP2 MSTORE PUSH1 0x1 PUSH1 0x1 PUSH1 0xA0 SHL SUB DUP4 AND SWAP1 PUSH4 0xA9059CBB SWAP1 PUSH2 0x2445 SWAP1 CALLER SWAP1 DUP6 SWAP1 PUSH1 0x4 ADD PUSH2 0x4E8C JUMP JUMPDEST PUSH1 0x0 DUP2 DUP2 MSTORE PUSH1 0x26 PUSH1 0x20 MSTORE PUSH1 0x40 SWAP1 KECCAK256 SLOAD PUSH1 0xFF AND ISZERO ISZERO PUSH1 0x1 EQ PUSH2 0x3FBC JUMPI PUSH1 0x0 DUP1 REVERT JUMPDEST PUSH1 0x1 PUSH1 0x1 PUSH1 0xA0 SHL SUB DUP4 AND PUSH1 0x0 SWAP1 DUP2 MSTORE PUSH1 0x2 PUSH1 0x20 SWAP1 DUP2 MSTORE PUSH1 0x40 DUP1 DUP4 KECCAK256 CALLER DUP5 MSTORE SWAP1 SWAP2 MSTORE SWAP1 KECCAK256 SLOAD PUSH9 0x5150AE84A8CDF00000 GT ISZERO PUSH2 0x3FF5 JUMPI PUSH1 0x0 DUP1 REVERT JUMPDEST PUSH1 0x0 PUSH2 0x4001 CALLER DUP6 PUSH2 0x264F JUMP JUMPDEST GT PUSH2 0x400B JUMPI PUSH1 0x0 DUP1 REVERT JUMPDEST PUSH1 0x0 DUP2 DUP2 MSTORE PUSH1 0x24 PUSH1 0x20 MSTORE PUSH1 0x40 SWAP1 KECCAK256 SLOAD PUSH2 0x4023 JUMPI PUSH1 0x0 DUP1 REVERT JUMPDEST PUSH1 0x0 DUP5 GT PUSH2 0x4043 JUMPI PUSH1 0x40 MLOAD PUSH3 0x461BCD PUSH1 0xE5 SHL DUP2 MSTORE PUSH1 0x4 ADD PUSH2 0x1025 SWAP1 PUSH2 0x4D95 JUMP JUMPDEST PUSH2 0x404C DUP3 PUSH2 0x37F0 JUMP JUMPDEST PUSH2 0x4068 JUMPI PUSH1 0x40 MLOAD PUSH3 0x461BCD PUSH1 0xE5 SHL DUP2 MSTORE PUSH1 0x4 ADD PUSH2 0x1025 SWAP1 PUSH2 0x4DCC JUMP JUMPDEST PUSH1 0x0 DUP2 DUP2 MSTORE PUSH1 0x24 PUSH1 0x20 SWAP1 DUP2 MSTORE PUSH1 0x40 DUP1 DUP4 KECCAK256 SLOAD PUSH1 0x2E DUP4 MSTORE DUP2 DUP5 KECCAK256 PUSH1 0x1 PUSH1 0x1 PUSH1 0xA0 SHL SUB DUP8 AND DUP6 MSTORE SWAP1 SWAP3 MSTORE SWAP1 SWAP2 KECCAK256 SLOAD LT PUSH2 0x409E JUMPI PUSH1 0x0 DUP1 REVERT JUMPDEST PUSH1 0x0 DUP2 DUP2 MSTORE PUSH1 0x24 PUSH1 0x20 SWAP1 DUP2 MSTORE PUSH1 0x40 DUP1 DUP4 KECCAK256 SLOAD PUSH1 0x2E DUP4 MSTORE DUP2 DUP5 KECCAK256 PUSH1 0x1 PUSH1 0x1 PUSH1 0xA0 SHL SUB DUP8 AND DUP6 MSTORE SWAP1 SWAP3 MSTORE SWAP1 SWAP2 KECCAK256 SLOAD PUSH2 0x40D5 SWAP1 DUP7 SWAP1 PUSH2 0x4E44 JUMP JUMPDEST GT ISZERO PUSH2 0x40E0 JUMPI PUSH1 0x0 DUP1 REVERT JUMPDEST PUSH1 0x0 PUSH2 0x40ED CALLER DUP6 DUP5 PUSH2 0x440D JUMP JUMPDEST PUSH1 0x0 DUP4 DUP2 MSTORE PUSH1 0x2A PUSH1 0x20 SWAP1 DUP2 MSTORE PUSH1 0x40 DUP1 DUP4 KECCAK256 CALLER DUP5 MSTORE SWAP1 SWAP2 MSTORE DUP2 KECCAK256 SLOAD SWAP2 SWAP3 POP SWAP1 PUSH2 0x4115 SWAP1 DUP4 PUSH2 0x4E75 JUMP JUMPDEST SWAP1 POP PUSH1 0x0 DUP2 GT PUSH2 0x4124 JUMPI PUSH1 0x0 DUP1 REVERT JUMPDEST DUP1 DUP7 GT ISZERO PUSH2 0x4131 JUMPI PUSH1 0x0 DUP1 REVERT JUMPDEST CALLER PUSH1 0x0 DUP2 DUP2 MSTORE PUSH1 0x5 PUSH1 0x20 MSTORE PUSH1 0x40 SWAP1 DUP2 SWAP1 KECCAK256 TIMESTAMP SWAP1 SSTORE MLOAD PUSH4 0x23B872DD PUSH1 0xE0 SHL DUP2 MSTORE PUSH1 0x1 PUSH1 0x1 PUSH1 0xA0 SHL SUB DUP7 AND SWAP2 PUSH4 0x23B872DD SWAP2 PUSH2 0x4172 SWAP2 SWAP1 ADDRESS SWAP1 DUP12 SWAP1 PUSH1 0x4 ADD PUSH2 0x4E03 JUMP JUMPDEST PUSH1 0x20 PUSH1 0x40 MLOAD DUP1 DUP4 SUB DUP2 PUSH1 0x0 DUP8 GAS CALL ISZERO DUP1 ISZERO PUSH2 0x4191 JUMPI RETURNDATASIZE PUSH1 0x0 DUP1 RETURNDATACOPY RETURNDATASIZE PUSH1 0x0 REVERT JUMPDEST POP POP POP POP PUSH1 0x40 MLOAD RETURNDATASIZE PUSH1 0x1F NOT PUSH1 0x1F DUP3 ADD AND DUP3 ADD DUP1 PUSH1 0x40 MSTORE POP DUP2 ADD SWAP1 PUSH2 0x41B5 SWAP2 SWAP1 PUSH2 0x4E27 JUMP JUMPDEST POP PUSH2 0x41C0 CALLER DUP5 PUSH2 0x4A03 JUMP JUMPDEST PUSH1 0x0 DUP4 DUP2 MSTORE PUSH1 0x2A PUSH1 0x20 SWAP1 DUP2 MSTORE PUSH1 0x40 DUP1 DUP4 KECCAK256 CALLER DUP5 MSTORE SWAP1 SWAP2 MSTORE SWAP1 KECCAK256 SLOAD PUSH2 0x41E5 SWAP1 DUP8 SWAP1 PUSH2 0x4E44 JUMP JUMPDEST PUSH1 0x0 DUP5 DUP2 MSTORE PUSH1 0x2A PUSH1 0x20 SWAP1 DUP2 MSTORE PUSH1 0x40 DUP1 DUP4 KECCAK256 CALLER DUP5 MSTORE DUP3 MSTORE DUP1 DUP4 KECCAK256 SWAP4 SWAP1 SWAP4 SSTORE DUP6 DUP3 MSTORE PUSH1 0x2C SWAP1 MSTORE KECCAK256 SLOAD PUSH2 0x4215 SWAP1 DUP8 PUSH2 0x4D54 JUMP JUMPDEST PUSH1 0x0 DUP5 DUP2 MSTORE PUSH1 0x30 PUSH1 0x20 SWAP1 DUP2 MSTORE PUSH1 0x40 DUP1 DUP4 KECCAK256 CALLER DUP5 MSTORE SWAP1 SWAP2 MSTORE SWAP1 KECCAK256 SLOAD PUSH2 0x4239 SWAP2 SWAP1 PUSH2 0x4E44 JUMP JUMPDEST PUSH1 0x0 DUP5 DUP2 MSTORE PUSH1 0x30 PUSH1 0x20 SWAP1 DUP2 MSTORE PUSH1 0x40 DUP1 DUP4 KECCAK256 CALLER DUP5 MSTORE DUP3 MSTORE DUP1 DUP4 KECCAK256 SWAP4 SWAP1 SWAP4 SSTORE DUP6 DUP3 MSTORE PUSH1 0x2D DUP2 MSTORE DUP3 DUP3 KECCAK256 PUSH1 0x1 PUSH1 0x1 PUSH1 0xA0 SHL SUB DUP9 AND DUP4 MSTORE SWAP1 MSTORE KECCAK256 SLOAD PUSH2 0x427B SWAP1 DUP8 SWAP1 PUSH2 0x4E44 JUMP JUMPDEST PUSH1 0x0 DUP5 DUP2 MSTORE PUSH1 0x2D PUSH1 0x20 SWAP1 DUP2 MSTORE PUSH1 0x40 DUP1 DUP4 KECCAK256 PUSH1 0x1 PUSH1 0x1 PUSH1 0xA0 SHL SUB DUP10 AND DUP1 DUP6 MSTORE SWAP1 DUP4 MSTORE DUP2 DUP5 KECCAK256 SWAP5 SWAP1 SWAP5 SSTORE DUP7 DUP4 MSTORE PUSH1 0x2E DUP3 MSTORE DUP1 DUP4 KECCAK256 SWAP4 DUP4 MSTORE SWAP3 SWAP1 MSTORE KECCAK256 SLOAD PUSH2 0x42C0 SWAP1 DUP8 SWAP1 PUSH2 0x4E44 JUMP JUMPDEST PUSH1 0x0 DUP5 DUP2 MSTORE PUSH1 0x2E PUSH1 0x20 SWAP1 DUP2 MSTORE PUSH1 0x40 DUP1 DUP4 KECCAK256 PUSH1 0x1 PUSH1 0x1 PUSH1 0xA0 SHL SUB DUP10 AND DUP5 MSTORE SWAP1 SWAP2 MSTORE SWAP1 KECCAK256 SSTORE PUSH1 0x13 SLOAD PUSH2 0x42F1 SWAP1 DUP8 SWAP1 PUSH2 0x4E44 JUMP JUMPDEST PUSH1 0x13 SSTORE POP POP POP POP POP POP JUMP JUMPDEST PUSH1 0x9 DUP2 DUP2 SLOAD DUP2 LT PUSH2 0x180E JUMPI PUSH1 0x0 DUP1 REVERT JUMPDEST PUSH1 0x0 DUP1 JUMPDEST PUSH1 0xD SLOAD DUP2 LT ISZERO PUSH2 0x3851 JUMPI DUP3 PUSH1 0x1 PUSH1 0x1 PUSH1 0xA0 SHL SUB AND PUSH1 0xD DUP3 DUP2 SLOAD DUP2 LT PUSH2 0x4337 JUMPI PUSH2 0x4337 PUSH2 0x4FE1 JUMP JUMPDEST PUSH1 0x0 SWAP2 DUP3 MSTORE PUSH1 0x20 SWAP1 SWAP2 KECCAK256 ADD SLOAD PUSH1 0x1 PUSH1 0x1 PUSH1 0xA0 SHL SUB AND EQ ISZERO PUSH2 0x435B JUMPI POP PUSH1 0x1 SWAP3 SWAP2 POP POP JUMP JUMPDEST DUP1 PUSH2 0x4365 DUP2 PUSH2 0x4FF7 JUMP JUMPDEST SWAP2 POP POP PUSH2 0x4310 JUMP JUMPDEST PUSH1 0x0 DUP1 SLOAD PUSH1 0x1 PUSH1 0x1 PUSH1 0xA0 SHL SUB AND CALLER EQ PUSH2 0x4398 JUMPI PUSH1 0x40 MLOAD PUSH3 0x461BCD PUSH1 0xE5 SHL DUP2 MSTORE PUSH1 0x4 ADD PUSH2 0x1025 SWAP1 PUSH2 0x4D09 JUMP JUMPDEST PUSH1 0x40 MLOAD PUSH4 0x70A08231 PUSH1 0xE0 SHL DUP2 MSTORE ADDRESS PUSH1 0x4 DUP3 ADD MSTORE PUSH1 0x1 PUSH1 0x1 PUSH1 0xA0 SHL SUB DUP4 AND SWAP1 PUSH4 0x70A08231 SWAP1 PUSH1 0x24 ADD PUSH1 0x20 PUSH1 0x40 MLOAD DUP1 DUP4 SUB DUP2 DUP7 GAS STATICCALL ISZERO DUP1 ISZERO PUSH2 0x43DC JUMPI RETURNDATASIZE PUSH1 0x0 DUP1 RETURNDATACOPY RETURNDATASIZE PUSH1 0x0 REVERT JUMPDEST POP POP POP POP PUSH1 0x40 MLOAD RETURNDATASIZE PUSH1 0x1F NOT PUSH1 0x1F DUP3 ADD AND DUP3 ADD DUP1 PUSH1 0x40 MSTORE POP DUP2 ADD SWAP1 PUSH2 0x4400 SWAP2 SWAP1 PUSH2 0x4E5C JUMP JUMPDEST PUSH1 0x1D DUP2 SWAP1 SSTORE SWAP1 POP JUMPDEST SWAP2 SWAP1 POP JUMP JUMPDEST PUSH1 0x0 DUP2 DUP2 MSTORE PUSH1 0x25 PUSH1 0x20 MSTORE PUSH1 0x40 DUP2 KECCAK256 SLOAD PUSH1 0xFF AND ISZERO ISZERO PUSH1 0x1 EQ PUSH2 0x442D JUMPI PUSH1 0x0 DUP1 REVERT JUMPDEST PUSH1 0x0 DUP3 DUP2 MSTORE PUSH1 0x24 PUSH1 0x20 MSTORE PUSH1 0x40 SWAP1 KECCAK256 SLOAD PUSH2 0x4445 JUMPI PUSH1 0x0 DUP1 REVERT JUMPDEST PUSH1 0x0 PUSH1 0x1 JUMPDEST PUSH1 0x1D DUP2 LT ISZERO PUSH2 0x44A1 JUMPI PUSH1 0x0 DUP5 DUP2 MSTORE PUSH1 0x21 PUSH1 0x20 SWAP1 DUP2 MSTORE PUSH1 0x40 DUP1 DUP4 KECCAK256 DUP5 DUP5 MSTORE DUP3 MSTORE DUP1 DUP4 KECCAK256 SLOAD PUSH1 0x1E SWAP1 SWAP3 MSTORE DUP3 KECCAK256 SLOAD PUSH2 0x447F SWAP2 SWAP1 PUSH2 0x4D54 JUMP JUMPDEST SWAP1 POP PUSH2 0x448B DUP2 DUP5 PUSH2 0x4E44 JUMP JUMPDEST SWAP3 POP POP DUP1 DUP1 PUSH2 0x4499 SWAP1 PUSH2 0x4FF7 JUMP JUMPDEST SWAP2 POP POP PUSH2 0x444A JUMP JUMPDEST POP PUSH1 0x0 DUP4 DUP2 MSTORE PUSH1 0x24 PUSH1 0x20 MSTORE PUSH1 0x40 DUP2 KECCAK256 SLOAD PUSH2 0x44BC SWAP1 DUP4 SWAP1 PUSH2 0x4D73 JUMP JUMPDEST PUSH1 0x1 PUSH1 0x1 PUSH1 0xA0 SHL SUB DUP8 AND PUSH1 0x0 SWAP1 DUP2 MSTORE PUSH1 0x23 PUSH1 0x20 SWAP1 DUP2 MSTORE PUSH1 0x40 DUP1 DUP4 KECCAK256 SLOAD DUP9 DUP5 MSTORE PUSH1 0x21 DUP4 MSTORE DUP2 DUP5 KECCAK256 DUP2 DUP6 MSTORE DUP4 MSTORE DUP2 DUP5 KECCAK256 SLOAD PUSH1 0x1E SWAP1 SWAP4 MSTORE SWAP1 DUP4 KECCAK256 SLOAD SWAP4 SWAP5 POP SWAP3 SWAP1 SWAP2 DUP3 DUP6 PUSH2 0x4506 DUP3 DUP6 PUSH2 0x4D54 JUMP JUMPDEST PUSH2 0x4510 SWAP2 SWAP1 PUSH2 0x4D54 JUMP JUMPDEST PUSH2 0x190F SWAP2 SWAP1 PUSH2 0x4D73 JUMP JUMPDEST PUSH1 0x19 DUP2 DUP2 SLOAD DUP2 LT PUSH2 0x180E JUMPI PUSH1 0x0 DUP1 REVERT JUMPDEST PUSH1 0x1 PUSH1 0x1 PUSH1 0xA0 SHL SUB DUP1 DUP3 AND PUSH1 0x0 SWAP1 DUP2 MSTORE PUSH1 0x8 PUSH1 0x20 MSTORE PUSH1 0x40 DUP1 DUP3 KECCAK256 SLOAD DUP2 MLOAD PUSH4 0x3FABE5A3 PUSH1 0xE2 SHL DUP2 MSTORE SWAP2 MLOAD SWAP3 SWAP4 DUP5 SWAP4 SWAP2 AND SWAP2 DUP3 SWAP2 DUP5 SWAP2 DUP4 SWAP2 PUSH4 0xFEAF968C SWAP2 PUSH1 0x4 DUP1 DUP3 ADD SWAP3 PUSH1 0xA0 SWAP3 SWAP1 SWAP2 SWAP1 DUP3 SWAP1 SUB ADD DUP2 DUP7 GAS STATICCALL ISZERO DUP1 ISZERO PUSH2 0x458B JUMPI RETURNDATASIZE PUSH1 0x0 DUP1 RETURNDATACOPY RETURNDATASIZE PUSH1 0x0 REVERT JUMPDEST POP POP POP POP PUSH1 0x40 MLOAD RETURNDATASIZE PUSH1 0x1F NOT PUSH1 0x1F DUP3 ADD AND DUP3 ADD DUP1 PUSH1 0x40 MSTORE POP DUP2 ADD SWAP1 PUSH2 0x45AF SWAP2 SWAP1 PUSH2 0x502C JUMP JUMPDEST POP POP POP SWAP2 POP POP PUSH1 0x0 DUP3 PUSH1 0x1 PUSH1 0x1 PUSH1 0xA0 SHL SUB AND PUSH4 0x313CE567 PUSH1 0x40 MLOAD DUP2 PUSH4 0xFFFFFFFF AND PUSH1 0xE0 SHL DUP2 MSTORE PUSH1 0x4 ADD PUSH1 0x20 PUSH1 0x40 MLOAD DUP1 DUP4 SUB DUP2 DUP7 GAS STATICCALL ISZERO DUP1 ISZERO PUSH2 0x45F5 JUMPI RETURNDATASIZE PUSH1 0x0 DUP1 RETURNDATACOPY RETURNDATASIZE PUSH1 0x0 REVERT JUMPDEST POP POP POP POP PUSH1 0x40 MLOAD RETURNDATASIZE PUSH1 0x1F NOT PUSH1 0x1F DUP3 ADD AND DUP3 ADD DUP1 PUSH1 0x40 MSTORE POP DUP2 ADD SWAP1 PUSH2 0x4619 SWAP2 SWAP1 PUSH2 0x5101 JUMP JUMPDEST SWAP2 SWAP8 PUSH1 0xFF SWAP1 SWAP3 AND SWAP7 POP SWAP1 SWAP5 POP POP POP POP POP JUMP JUMPDEST PUSH1 0x0 DUP2 DUP2 MSTORE PUSH1 0x29 PUSH1 0x20 MSTORE PUSH1 0x40 SWAP1 KECCAK256 SLOAD PUSH1 0xFF AND ISZERO ISZERO PUSH1 0x1 EQ PUSH2 0x464B JUMPI PUSH1 0x0 DUP1 REVERT JUMPDEST PUSH1 0x0 DUP2 DUP2 MSTORE PUSH1 0x30 PUSH1 0x20 SWAP1 DUP2 MSTORE PUSH1 0x40 DUP1 DUP4 KECCAK256 CALLER DUP1 DUP6 MSTORE SWAP1 DUP4 MSTORE DUP2 DUP5 KECCAK256 SLOAD DUP6 DUP6 MSTORE PUSH1 0x31 DUP5 MSTORE DUP3 DUP6 KECCAK256 SWAP2 DUP6 MSTORE SWAP3 MSTORE DUP3 KECCAK256 SLOAD SWAP1 SWAP2 PUSH2 0x4685 DUP3 DUP5 PUSH2 0x4E75 JUMP JUMPDEST PUSH1 0x0 DUP6 DUP2 MSTORE PUSH1 0x32 PUSH1 0x20 MSTORE PUSH1 0x40 DUP2 KECCAK256 SLOAD SWAP2 SWAP3 POP SWAP1 PUSH1 0x64 SWAP1 PUSH2 0x46A6 SWAP1 DUP7 SWAP1 PUSH2 0x4D54 JUMP JUMPDEST PUSH2 0x46B0 SWAP2 SWAP1 PUSH2 0x4D73 JUMP JUMPDEST SWAP1 POP PUSH1 0x0 PUSH2 0x46BE DUP5 DUP4 PUSH2 0x4E75 JUMP JUMPDEST SWAP1 POP PUSH1 0x0 DUP6 GT PUSH2 0x46CD JUMPI PUSH1 0x0 DUP1 REVERT JUMPDEST PUSH1 0x0 DUP2 GT PUSH2 0x46DA JUMPI PUSH1 0x0 DUP1 REVERT JUMPDEST DUP5 DUP5 LT PUSH2 0x46E6 JUMPI PUSH1 0x0 DUP1 REVERT JUMPDEST PUSH1 0x0 DUP7 DUP2 MSTORE PUSH1 0x33 PUSH1 0x20 MSTORE PUSH1 0x40 SWAP1 DUP2 SWAP1 KECCAK256 SLOAD SWAP1 MLOAD PUSH4 0xA9059CBB PUSH1 0xE0 SHL DUP2 MSTORE PUSH1 0x1 PUSH1 0x1 PUSH1 0xA0 SHL SUB SWAP1 SWAP2 AND SWAP1 PUSH4 0xA9059CBB SWAP1 PUSH2 0x4725 SWAP1 CALLER SWAP1 DUP6 SWAP1 PUSH1 0x4 ADD PUSH2 0x4E8C JUMP JUMPDEST PUSH1 0x20 PUSH1 0x40 MLOAD DUP1 DUP4 SUB DUP2 PUSH1 0x0 DUP8 GAS CALL ISZERO DUP1 ISZERO PUSH2 0x4744 JUMPI RETURNDATASIZE PUSH1 0x0 DUP1 RETURNDATACOPY RETURNDATASIZE PUSH1 0x0 REVERT JUMPDEST POP POP POP POP PUSH1 0x40 MLOAD RETURNDATASIZE PUSH1 0x1F NOT PUSH1 0x1F DUP3 ADD AND DUP3 ADD DUP1 PUSH1 0x40 MSTORE POP DUP2 ADD SWAP1 PUSH2 0x4768 SWAP2 SWAP1 PUSH2 0x4E27 JUMP JUMPDEST POP PUSH1 0x0 DUP7 DUP2 MSTORE PUSH1 0x31 PUSH1 0x20 SWAP1 DUP2 MSTORE PUSH1 0x40 DUP1 DUP4 KECCAK256 CALLER DUP5 MSTORE SWAP1 SWAP2 MSTORE SWAP1 KECCAK256 SLOAD PUSH2 0x478E SWAP1 DUP3 SWAP1 PUSH2 0x4E44 JUMP JUMPDEST PUSH1 0x0 SWAP7 DUP8 MSTORE PUSH1 0x31 PUSH1 0x20 SWAP1 DUP2 MSTORE PUSH1 0x40 DUP1 DUP10 KECCAK256 CALLER DUP11 MSTORE SWAP1 SWAP2 MSTORE SWAP1 SWAP7 KECCAK256 SWAP6 SWAP1 SWAP6 SSTORE POP POP POP POP POP JUMP JUMPDEST PUSH1 0x0 SLOAD PUSH1 0x1 PUSH1 0x1 PUSH1 0xA0 SHL SUB AND CALLER EQ PUSH2 0x47DD JUMPI PUSH1 0x40 MLOAD PUSH3 0x461BCD PUSH1 0xE5 SHL DUP2 MSTORE PUSH1 0x4 ADD PUSH2 0x1025 SWAP1 PUSH2 0x4D09 JUMP JUMPDEST PUSH1 0x1 PUSH1 0x1 PUSH1 0xA0 SHL SUB DUP2 AND PUSH2 0x4842 JUMPI PUSH1 0x40 MLOAD PUSH3 0x461BCD PUSH1 0xE5 SHL DUP2 MSTORE PUSH1 0x20 PUSH1 0x4 DUP3 ADD MSTORE PUSH1 0x26 PUSH1 0x24 DUP3 ADD MSTORE PUSH32 0x4F776E61626C653A206E6577206F776E657220697320746865207A65726F2061 PUSH1 0x44 DUP3 ADD MSTORE PUSH6 0x646472657373 PUSH1 0xD0 SHL PUSH1 0x64 DUP3 ADD MSTORE PUSH1 0x84 ADD PUSH2 0x1025 JUMP JUMPDEST PUSH2 0x2312 DUP2 PUSH2 0x4B07 JUMP JUMPDEST PUSH1 0x0 DUP2 DUP2 MSTORE PUSH1 0x30 PUSH1 0x20 SWAP1 DUP2 MSTORE PUSH1 0x40 DUP1 DUP4 KECCAK256 PUSH1 0x1 PUSH1 0x1 PUSH1 0xA0 SHL SUB DUP7 AND DUP1 DUP6 MSTORE SWAP1 DUP4 MSTORE DUP2 DUP5 KECCAK256 SLOAD DUP6 DUP6 MSTORE PUSH1 0x31 DUP5 MSTORE DUP3 DUP6 KECCAK256 SWAP2 DUP6 MSTORE SWAP1 DUP4 MSTORE DUP2 DUP5 KECCAK256 SLOAD DUP6 DUP6 MSTORE PUSH1 0x32 SWAP1 SWAP4 MSTORE SWAP1 DUP4 KECCAK256 SLOAD SWAP1 SWAP2 SWAP1 DUP4 SWAP1 PUSH1 0x64 SWAP1 PUSH2 0x48A3 SWAP1 DUP6 SWAP1 PUSH2 0x4D54 JUMP JUMPDEST PUSH2 0x48AD SWAP2 SWAP1 PUSH2 0x4D73 JUMP JUMPDEST SWAP1 POP PUSH1 0x0 PUSH2 0x48BB DUP4 DUP4 PUSH2 0x4E75 JUMP JUMPDEST SWAP9 SWAP8 POP POP POP POP POP POP POP POP JUMP JUMPDEST PUSH1 0x0 SLOAD PUSH1 0x1 PUSH1 0x1 PUSH1 0xA0 SHL SUB AND CALLER EQ PUSH2 0x48F1 JUMPI PUSH1 0x40 MLOAD PUSH3 0x461BCD PUSH1 0xE5 SHL DUP2 MSTORE PUSH1 0x4 ADD PUSH2 0x1025 SWAP1 PUSH2 0x4D09 JUMP JUMPDEST PUSH1 0x0 SWAP2 DUP3 MSTORE PUSH1 0x29 PUSH1 0x20 MSTORE PUSH1 0x40 SWAP1 SWAP2 KECCAK256 DUP1 SLOAD PUSH1 0xFF NOT AND SWAP2 ISZERO ISZERO SWAP2 SWAP1 SWAP2 OR SWAP1 SSTORE JUMP JUMPDEST PUSH1 0xC DUP2 DUP2 SLOAD DUP2 LT PUSH2 0x180E JUMPI PUSH1 0x0 DUP1 REVERT JUMPDEST PUSH1 0x2F PUSH1 0x20 MSTORE DUP2 PUSH1 0x0 MSTORE PUSH1 0x40 PUSH1 0x0 KECCAK256 DUP2 DUP2 SLOAD DUP2 LT PUSH2 0x493D JUMPI PUSH1 0x0 DUP1 REVERT JUMPDEST PUSH1 0x0 SWAP2 DUP3 MSTORE PUSH1 0x20 SWAP1 SWAP2 KECCAK256 ADD SLOAD PUSH1 0x1 PUSH1 0x1 PUSH1 0xA0 SHL SUB AND SWAP2 POP DUP3 SWAP1 POP JUMP JUMPDEST PUSH1 0x1 PUSH1 0x1 PUSH1 0xA0 SHL SUB DUP1 DUP3 AND PUSH1 0x0 SWAP1 DUP2 MSTORE PUSH1 0x2 PUSH1 0x20 SWAP1 DUP2 MSTORE PUSH1 0x40 DUP1 DUP4 KECCAK256 SWAP4 DUP7 AND DUP4 MSTORE SWAP3 SWAP1 MSTORE KECCAK256 SLOAD PUSH2 0x122E JUMPI PUSH1 0x1 PUSH1 0x1 PUSH1 0xA0 SHL SUB DUP3 AND PUSH1 0x0 SWAP1 DUP2 MSTORE PUSH1 0x7 PUSH1 0x20 MSTORE PUSH1 0x40 SWAP1 KECCAK256 SLOAD PUSH2 0x49A7 SWAP1 PUSH1 0x1 PUSH2 0x4E44 JUMP JUMPDEST PUSH1 0x1 PUSH1 0x1 PUSH1 0xA0 SHL SUB DUP4 AND PUSH1 0x0 SWAP1 DUP2 MSTORE PUSH1 0x7 PUSH1 0x20 MSTORE PUSH1 0x40 SWAP1 KECCAK256 SSTORE POP POP JUMP JUMPDEST PUSH1 0x1 PUSH1 0x1 PUSH1 0xA0 SHL SUB DUP1 DUP3 AND PUSH1 0x0 SWAP1 DUP2 MSTORE PUSH1 0x2 PUSH1 0x20 SWAP1 DUP2 MSTORE PUSH1 0x40 DUP1 DUP4 KECCAK256 SWAP4 DUP7 AND DUP4 MSTORE SWAP3 SWAP1 MSTORE KECCAK256 SLOAD PUSH2 0x122E JUMPI PUSH1 0xA SLOAD PUSH2 0x49FC SWAP1 PUSH1 0x1 PUSH2 0x4E44 JUMP JUMPDEST PUSH1 0xA SSTORE POP POP JUMP JUMPDEST PUSH1 0x0 DUP2 DUP2 MSTORE PUSH1 0x2A PUSH1 0x20 SWAP1 DUP2 MSTORE PUSH1 0x40 DUP1 DUP4 KECCAK256 PUSH1 0x1 PUSH1 0x1 PUSH1 0xA0 SHL SUB DUP7 AND DUP5 MSTORE SWAP1 SWAP2 MSTORE SWAP1 KECCAK256 SLOAD PUSH2 0x122E JUMPI PUSH1 0x1 PUSH1 0x1 PUSH1 0xA0 SHL SUB DUP3 AND PUSH1 0x0 SWAP1 DUP2 MSTORE PUSH1 0x2B PUSH1 0x20 MSTORE PUSH1 0x40 SWAP1 KECCAK256 SLOAD PUSH2 0x4A4E SWAP1 PUSH1 0x1 PUSH2 0x4E44 JUMP JUMPDEST PUSH1 0x1 PUSH1 0x1 PUSH1 0xA0 SHL SUB SWAP3 SWAP1 SWAP3 AND PUSH1 0x0 DUP2 DUP2 MSTORE PUSH1 0x2B PUSH1 0x20 SWAP1 DUP2 MSTORE PUSH1 0x40 DUP1 DUP4 KECCAK256 SWAP6 SWAP1 SWAP6 SSTORE SWAP3 DUP2 MSTORE PUSH1 0x2F DUP4 MSTORE SWAP3 DUP4 KECCAK256 DUP1 SLOAD PUSH1 0x1 DUP2 ADD DUP3 SSTORE SWAP1 DUP5 MSTORE SWAP2 SWAP1 SWAP3 KECCAK256 ADD DUP1 SLOAD PUSH1 0x1 PUSH1 0x1 PUSH1 0xA0 SHL SUB NOT AND SWAP1 SWAP2 OR SWAP1 SSTORE JUMP JUMPDEST PUSH1 0x1 PUSH1 0x1 PUSH1 0xA0 SHL SUB DUP1 DUP3 AND PUSH1 0x0 SWAP1 DUP2 MSTORE PUSH1 0x10 PUSH1 0x20 SWAP1 DUP2 MSTORE PUSH1 0x40 DUP1 DUP4 KECCAK256 SWAP4 DUP7 AND DUP4 MSTORE SWAP3 SWAP1 MSTORE KECCAK256 SLOAD PUSH2 0x122E JUMPI PUSH1 0x1 PUSH1 0x1 PUSH1 0xA0 SHL SUB DUP3 AND PUSH1 0x0 SWAP1 DUP2 MSTORE PUSH1 0x1C PUSH1 0x20 MSTORE PUSH1 0x40 SWAP1 KECCAK256 SLOAD PUSH2 0x4AEA SWAP1 PUSH1 0x1 PUSH2 0x4E44 JUMP JUMPDEST PUSH1 0x1 PUSH1 0x1 PUSH1 0xA0 SHL SUB DUP4 AND PUSH1 0x0 SWAP1 DUP2 MSTORE PUSH1 0x1C PUSH1 0x20 MSTORE PUSH1 0x40 SWAP1 KECCAK256 SSTORE POP POP JUMP JUMPDEST PUSH1 0x0 DUP1 SLOAD PUSH1 0x1 PUSH1 0x1 PUSH1 0xA0 SHL SUB DUP4 DUP2 AND PUSH1 0x1 PUSH1 0x1 PUSH1 0xA0 SHL SUB NOT DUP4 AND DUP2 OR DUP5 SSTORE PUSH1 0x40 MLOAD SWAP2 SWAP1 SWAP3 AND SWAP3 DUP4 SWAP2 PUSH32 0x8BE0079C531659141344CD1FD0A4F28419497F9722A3DAAFE3B4186F6B6457E0 SWAP2 SWAP1 LOG3 POP POP JUMP JUMPDEST DUP1 CALLDATALOAD PUSH1 0x1 PUSH1 0x1 PUSH1 0xA0 SHL SUB DUP2 AND DUP2 EQ PUSH2 0x4408 JUMPI PUSH1 0x0 DUP1 REVERT JUMPDEST PUSH1 0x0 DUP1 PUSH1 0x40 DUP4 DUP6 SUB SLT ISZERO PUSH2 0x4B81 JUMPI PUSH1 0x0 DUP1 REVERT JUMPDEST DUP3 CALLDATALOAD SWAP2 POP PUSH2 0x4B91 PUSH1 0x20 DUP5 ADD PUSH2 0x4B57 JUMP JUMPDEST SWAP1 POP SWAP3 POP SWAP3 SWAP1 POP JUMP JUMPDEST PUSH1 0x0 DUP1 PUSH1 0x40 DUP4 DUP6 SUB SLT ISZERO PUSH2 0x4BAD JUMPI PUSH1 0x0 DUP1 REVERT JUMPDEST POP POP DUP1 CALLDATALOAD SWAP3 PUSH1 0x20 SWAP1 SWAP2 ADD CALLDATALOAD SWAP2 POP JUMP JUMPDEST PUSH1 0x0 PUSH1 0x20 DUP3 DUP5 SUB SLT ISZERO PUSH2 0x4BCE JUMPI PUSH1 0x0 DUP1 REVERT JUMPDEST PUSH2 0x4BD7 DUP3 PUSH2 0x4B57 JUMP JUMPDEST SWAP4 SWAP3 POP POP POP JUMP JUMPDEST DUP1 ISZERO ISZERO DUP2 EQ PUSH2 0x2312 JUMPI PUSH1 0x0 DUP1 REVERT JUMPDEST PUSH1 0x0 DUP1 PUSH1 0x40 DUP4 DUP6 SUB SLT ISZERO PUSH2 0x4BFF JUMPI PUSH1 0x0 DUP1 REVERT JUMPDEST DUP3 CALLDATALOAD SWAP2 POP PUSH1 0x20 DUP4 ADD CALLDATALOAD PUSH2 0x4C11 DUP2 PUSH2 0x4BDE JUMP JUMPDEST DUP1 SWAP2 POP POP SWAP3 POP SWAP3 SWAP1 POP JUMP JUMPDEST PUSH1 0x0 PUSH1 0x20 DUP3 DUP5 SUB SLT ISZERO PUSH2 0x4C2E JUMPI PUSH1 0x0 DUP1 REVERT JUMPDEST POP CALLDATALOAD SWAP2 SWAP1 POP JUMP JUMPDEST PUSH1 0x0 DUP1 PUSH1 0x40 DUP4 DUP6 SUB SLT ISZERO PUSH2 0x4C48 JUMPI PUSH1 0x0 DUP1 REVERT JUMPDEST PUSH2 0x4C51 DUP4 PUSH2 0x4B57 JUMP JUMPDEST SWAP2 POP PUSH2 0x4B91 PUSH1 0x20 DUP5 ADD PUSH2 0x4B57 JUMP JUMPDEST PUSH1 0x0 DUP1 PUSH1 0x0 DUP1 PUSH1 0x80 DUP6 DUP8 SUB SLT ISZERO PUSH2 0x4C75 JUMPI PUSH1 0x0 DUP1 REVERT JUMPDEST DUP5 CALLDATALOAD SWAP4 POP PUSH2 0x4C85 PUSH1 0x20 DUP7 ADD PUSH2 0x4B57 JUMP JUMPDEST SWAP3 POP PUSH2 0x4C93 PUSH1 0x40 DUP7 ADD PUSH2 0x4B57 JUMP JUMPDEST SWAP4 SWAP7 SWAP3 SWAP6 POP SWAP3 SWAP4 PUSH1 0x60 ADD CALLDATALOAD SWAP3 POP POP JUMP JUMPDEST PUSH1 0x0 DUP1 PUSH1 0x40 DUP4 DUP6 SUB SLT ISZERO PUSH2 0x4CB6 JUMPI PUSH1 0x0 DUP1 REVERT JUMPDEST PUSH2 0x4CBF DUP4 PUSH2 0x4B57 JUMP JUMPDEST SWAP5 PUSH1 0x20 SWAP4 SWAP1 SWAP4 ADD CALLDATALOAD SWAP4 POP POP POP JUMP JUMPDEST PUSH1 0x0 DUP1 PUSH1 0x0 PUSH1 0x60 DUP5 DUP7 SUB SLT ISZERO PUSH2 0x4CE2 JUMPI PUSH1 0x0 DUP1 REVERT JUMPDEST PUSH2 0x4CEB DUP5 PUSH2 0x4B57 JUMP JUMPDEST SWAP3 POP PUSH2 0x4CF9 PUSH1 0x20 DUP6 ADD PUSH2 0x4B57 JUMP JUMPDEST SWAP2 POP PUSH1 0x40 DUP5 ADD CALLDATALOAD SWAP1 POP SWAP3 POP SWAP3 POP SWAP3 JUMP JUMPDEST PUSH1 0x20 DUP1 DUP3 MSTORE DUP2 DUP2 ADD MSTORE PUSH32 0x4F776E61626C653A2063616C6C6572206973206E6F7420746865206F776E6572 PUSH1 0x40 DUP3 ADD MSTORE PUSH1 0x60 ADD SWAP1 JUMP JUMPDEST PUSH4 0x4E487B71 PUSH1 0xE0 SHL PUSH1 0x0 MSTORE PUSH1 0x11 PUSH1 0x4 MSTORE PUSH1 0x24 PUSH1 0x0 REVERT JUMPDEST PUSH1 0x0 DUP2 PUSH1 0x0 NOT DIV DUP4 GT DUP3 ISZERO ISZERO AND ISZERO PUSH2 0x4D6E JUMPI PUSH2 0x4D6E PUSH2 0x4D3E JUMP JUMPDEST POP MUL SWAP1 JUMP JUMPDEST PUSH1 0x0 DUP3 PUSH2 0x4D90 JUMPI PUSH4 0x4E487B71 PUSH1 0xE0 SHL PUSH1 0x0 MSTORE PUSH1 0x12 PUSH1 0x4 MSTORE PUSH1 0x24 PUSH1 0x0 REVERT JUMPDEST POP DIV SWAP1 JUMP JUMPDEST PUSH1 0x20 DUP1 DUP3 MSTORE PUSH1 0x1A SWAP1 DUP3 ADD MSTORE PUSH32 0x416D6F756E74206D757374206265206D6F7265207468616E2030000000000000 PUSH1 0x40 DUP3 ADD MSTORE PUSH1 0x60 ADD SWAP1 JUMP JUMPDEST PUSH1 0x20 DUP1 DUP3 MSTORE PUSH1 0x1E SWAP1 DUP3 ADD MSTORE PUSH32 0x546F6B656E2069732063757272656E746C79206E6F7420616C6C6F7765640000 PUSH1 0x40 DUP3 ADD MSTORE PUSH1 0x60 ADD SWAP1 JUMP JUMPDEST PUSH1 0x1 PUSH1 0x1 PUSH1 0xA0 SHL SUB SWAP4 DUP5 AND DUP2 MSTORE SWAP2 SWAP1 SWAP3 AND PUSH1 0x20 DUP3 ADD MSTORE PUSH1 0x40 DUP2 ADD SWAP2 SWAP1 SWAP2 MSTORE PUSH1 0x60 ADD SWAP1 JUMP JUMPDEST PUSH1 0x0 PUSH1 0x20 DUP3 DUP5 SUB SLT ISZERO PUSH2 0x4E39 JUMPI PUSH1 0x0 DUP1 REVERT JUMPDEST DUP2 MLOAD PUSH2 0x4BD7 DUP2 PUSH2 0x4BDE JUMP JUMPDEST PUSH1 0x0 DUP3 NOT DUP3 GT ISZERO PUSH2 0x4E57 JUMPI PUSH2 0x4E57 PUSH2 0x4D3E JUMP JUMPDEST POP ADD SWAP1 JUMP JUMPDEST PUSH1 0x0 PUSH1 0x20 DUP3 DUP5 SUB SLT ISZERO PUSH2 0x4E6E JUMPI PUSH1 0x0 DUP1 REVERT JUMPDEST POP MLOAD SWAP2 SWAP1 POP JUMP JUMPDEST PUSH1 0x0 DUP3 DUP3 LT ISZERO PUSH2 0x4E87 JUMPI PUSH2 0x4E87 PUSH2 0x4D3E JUMP JUMPDEST POP SUB SWAP1 JUMP JUMPDEST PUSH1 0x1 PUSH1 0x1 PUSH1 0xA0 SHL SUB SWAP3 SWAP1 SWAP3 AND DUP3 MSTORE PUSH1 0x20 DUP3 ADD MSTORE PUSH1 0x40 ADD SWAP1 JUMP JUMPDEST PUSH1 0x20 DUP1 DUP3 MSTORE PUSH1 0x2C SWAP1 DUP3 ADD MSTORE PUSH32 0x596F7520646F6E2774206861766520656E6F7567682070757263686173656420 PUSH1 0x40 DUP3 ADD MSTORE PUSH12 0x746F6B656E73206C65667421 PUSH1 0xA0 SHL PUSH1 0x60 DUP3 ADD MSTORE PUSH1 0x80 ADD SWAP1 JUMP JUMPDEST PUSH1 0x1 DUP2 DUP2 JUMPDEST DUP1 DUP6 GT ISZERO PUSH2 0x4F2C JUMPI DUP2 PUSH1 0x0 NOT DIV DUP3 GT ISZERO PUSH2 0x4F12 JUMPI PUSH2 0x4F12 PUSH2 0x4D3E JUMP JUMPDEST DUP1 DUP6 AND ISZERO PUSH2 0x4F1F JUMPI SWAP2 DUP2 MUL SWAP2 JUMPDEST SWAP4 DUP5 SHR SWAP4 SWAP1 DUP1 MUL SWAP1 PUSH2 0x4EF6 JUMP JUMPDEST POP SWAP3 POP SWAP3 SWAP1 POP JUMP JUMPDEST PUSH1 0x0 DUP3 PUSH2 0x4F43 JUMPI POP PUSH1 0x1 PUSH2 0x17F8 JUMP JUMPDEST DUP2 PUSH2 0x4F50 JUMPI POP PUSH1 0x0 PUSH2 0x17F8 JUMP JUMPDEST DUP2 PUSH1 0x1 DUP2 EQ PUSH2 0x4F66 JUMPI PUSH1 0x2 DUP2 EQ PUSH2 0x4F70 JUMPI PUSH2 0x4F8C JUMP JUMPDEST PUSH1 0x1 SWAP2 POP POP PUSH2 0x17F8 JUMP JUMPDEST PUSH1 0xFF DUP5 GT ISZERO PUSH2 0x4F81 JUMPI PUSH2 0x4F81 PUSH2 0x4D3E JUMP JUMPDEST POP POP PUSH1 0x1 DUP3 SHL PUSH2 0x17F8 JUMP JUMPDEST POP PUSH1 0x20 DUP4 LT PUSH2 0x133 DUP4 LT AND PUSH1 0x4E DUP5 LT PUSH1 0xB DUP5 LT AND OR ISZERO PUSH2 0x4FAF JUMPI POP DUP2 DUP2 EXP PUSH2 0x17F8 JUMP JUMPDEST PUSH2 0x4FB9 DUP4 DUP4 PUSH2 0x4EF1 JUMP JUMPDEST DUP1 PUSH1 0x0 NOT DIV DUP3 GT ISZERO PUSH2 0x4FCD JUMPI PUSH2 0x4FCD PUSH2 0x4D3E JUMP JUMPDEST MUL SWAP4 SWAP3 POP POP POP JUMP JUMPDEST PUSH1 0x0 PUSH2 0x4BD7 DUP4 DUP4 PUSH2 0x4F34 JUMP JUMPDEST PUSH4 0x4E487B71 PUSH1 0xE0 SHL PUSH1 0x0 MSTORE PUSH1 0x32 PUSH1 0x4 MSTORE PUSH1 0x24 PUSH1 0x0 REVERT JUMPDEST PUSH1 0x0 PUSH1 0x0 NOT DUP3 EQ ISZERO PUSH2 0x500B JUMPI PUSH2 0x500B PUSH2 0x4D3E JUMP JUMPDEST POP PUSH1 0x1 ADD SWAP1 JUMP JUMPDEST DUP1 MLOAD PUSH10 0xFFFFFFFFFFFFFFFFFFFF DUP2 AND DUP2 EQ PUSH2 0x4408 JUMPI PUSH1 0x0 DUP1 REVERT JUMPDEST PUSH1 0x0 DUP1 PUSH1 0x0 DUP1 PUSH1 0x0 PUSH1 0xA0 DUP7 DUP9 SUB SLT ISZERO PUSH2 0x5044 JUMPI PUSH1 0x0 DUP1 REVERT JUMPDEST PUSH2 0x504D DUP7 PUSH2 0x5012 JUMP JUMPDEST SWAP5 POP PUSH1 0x20 DUP7 ADD MLOAD SWAP4 POP PUSH1 0x40 DUP7 ADD MLOAD SWAP3 POP PUSH1 0x60 DUP7 ADD MLOAD SWAP2 POP PUSH2 0x5070 PUSH1 0x80 DUP8 ADD PUSH2 0x5012 JUMP JUMPDEST SWAP1 POP SWAP3 SWAP6 POP SWAP3 SWAP6 SWAP1 SWAP4 POP JUMP JUMPDEST PUSH1 0x0 PUSH1 0x1 PUSH1 0x1 PUSH1 0xFF SHL SUB DUP2 DUP5 SGT DUP3 DUP5 SGT DUP1 DUP3 AND DUP7 DUP5 DIV DUP7 GT AND ISZERO PUSH2 0x50A2 JUMPI PUSH2 0x50A2 PUSH2 0x4D3E JUMP JUMPDEST PUSH1 0x1 PUSH1 0xFF SHL PUSH1 0x0 DUP8 SLT DUP3 DUP2 AND DUP8 DUP4 SDIV DUP10 SLT AND ISZERO PUSH2 0x50C1 JUMPI PUSH2 0x50C1 PUSH2 0x4D3E JUMP JUMPDEST PUSH1 0x0 DUP8 SLT SWAP3 POP DUP8 DUP3 SDIV DUP8 SLT DUP5 DUP5 AND AND ISZERO PUSH2 0x50DD JUMPI PUSH2 0x50DD PUSH2 0x4D3E JUMP JUMPDEST DUP8 DUP6 SDIV DUP8 SLT DUP2 DUP5 AND AND ISZERO PUSH2 0x50F3 JUMPI PUSH2 0x50F3 PUSH2 0x4D3E JUMP JUMPDEST POP POP POP SWAP3 SWAP1 SWAP4 MUL SWAP4 SWAP3 POP POP POP JUMP JUMPDEST PUSH1 0x0 PUSH1 0x20 DUP3 DUP5 SUB SLT ISZERO PUSH2 0x5113 JUMPI PUSH1 0x0 DUP1 REVERT JUMPDEST DUP2 MLOAD PUSH1 0xFF DUP2 AND DUP2 EQ PUSH2 0x4BD7 JUMPI PUSH1 0x0 DUP1 REVERT INVALID LOG2 PUSH5 0x6970667358 0x22 SLT KECCAK256 GAS PUSH5 0xAEB882DC25 0xAF 0xD8 MUL 0xED RETURN PUSH5 0xFB4F4B1E96 0xD5 NOT DIFFICULTY RETURNDATASIZE 0x2B DUP13 SWAP5 CODESIZE RETURNDATASIZE 0xAA 0xF7 DUP12 0x29 STATICCALL PUSH5 0x736F6C6343 STOP ADDMOD SIGNEXTEND STOP CALLER ","sha1":"e02dceefd3eeef87e6d51276acba7579b3565fd3","source":"// SPDX-License-Identifier: MIT\npragma solidity ^0.8.0;\n\nimport \"@openzeppelin/contracts/access/Ownable.sol\";\nimport \"@openzeppelin/contracts/token/ERC20/IERC20.sol\";\nimport \"@openzeppelin/contracts/utils/math/SafeMath.sol\";\nimport \"@chainlink/contracts/src/v0.8/interfaces/AggregatorV3Interface.sol\";\n\ncontract TokenFarm is Ownable {\n    using SafeMath for uint256;\n\n    // mapping token address -> staker address -> amount\n    uint256 public APY = 10;\n\n    mapping(address => mapping(address => uint256)) public stakingBalance;\n    mapping(address => uint256) stakingTimeStamp;\n    mapping(address => uint256) stakingRewards;\n    mapping(address => uint256) public stakingTimeToWithdraw;\n    uint256 public amountPeopleLeftInWithdrawFees;\n\n    mapping(address => uint256) public uniqueTokensStaked;\n    mapping(address => address) public tokenPriceFeedMapping;\n    address[] public funders;\n    uint256 public uniqueTokenStakers;\n    uint256 public totalTokensStaked;\n\n    address[] public stakers;\n    address[] public allowedTokens;\n    IERC20 public dappToken;\n    IERC20 public preSaleTokenAddress;\n\n    // --------------------------------\n    // pre-sale amount Balance\n    // address public owner;\n    mapping(address => mapping(address => uint256)) public purchasedBalance;\n    mapping(address => uint256) public collectedPreSaleFunds;\n    mapping(address => uint256) public totalCollectionOfPreSaleFunds;\n    uint256 public totalCollectionOfPreSaleFundsAllTokens;\n\n    mapping(address => uint256) public totalPurchasedPreSaleTokens;\n    uint256 private TIMES;\n    // mapping(address => mapping(address => uint256))\n    //     public preSaleTokensAvailableToWithdraw;\n\n    mapping(address => uint256) public totalWithdrawnPreSaleTokens;\n\n    uint256 public percentageWithdrawAllowed;\n\n    // mapping(address => mapping(address => uint256))\n    //     public preSaleTokensLeftToWithdraw;\n\n    mapping(address => uint256) public addressToAmountFunded;\n    address[] public preSaleFunders;\n    address[] public preSaleAllowedTokens;\n    AggregatorV3Interface public priceFeedA;\n    mapping(address => uint256) public uniquePreSaleTokensStaked;\n    uint256 public singleTokenAllPreSaleBalance;\n\n    // Pre Sale Status and Allocation Round Variables\n\n    mapping(uint256 => uint256) public stakingLevelToWeight; // this assign each staking level accordign to their weight value\n    mapping(uint256 => bool) public participateInPreSaleAllocationStatus; // This helps activate or deactive the function \"participateInPreSaleAllocation\"\n    uint256 baseNumberStakingLevel = 1500;\n    mapping(uint256 => mapping(uint256 => uint256))\n        public stakingLevelUserCounter; // this counts the number of participated users in each staking level\n    mapping(address => bool) public preSaleParticipantsStatus;\n    mapping(address => uint256) public whenParticipatedThatLevel; // this is the staking level of user when he/she particpated in pre-sale\n    mapping(uint256 => uint256) public totalAmountToCollectForThisPreSale; // determines how much amount you want to collect for this pre-sale\n    mapping(uint256 => bool) public preSaleAllocationStatus; // determines if Allocation round has started allowed. start it after turning participation\n\n    constructor(address _dappTokenAddress, address _priceFeed) public {\n        dappToken = IERC20(_dappTokenAddress);\n        // owner = msg.sender;\n        priceFeedA = AggregatorV3Interface(_priceFeed);\n\n        stakingLevelToWeight[0] = 0;\n        stakingLevelToWeight[1] = 1;\n        stakingLevelToWeight[2] = 2;\n        stakingLevelToWeight[3] = 3;\n        stakingLevelToWeight[4] = 4;\n        stakingLevelToWeight[5] = 5;\n        stakingLevelToWeight[6] = 6;\n        stakingLevelToWeight[7] = 7;\n        stakingLevelToWeight[8] = 8;\n        stakingLevelToWeight[9] = 9;\n        stakingLevelToWeight[10] = 10;\n        stakingLevelToWeight[11] = 15;\n        stakingLevelToWeight[12] = 20;\n        stakingLevelToWeight[13] = 25;\n        stakingLevelToWeight[14] = 30;\n        stakingLevelToWeight[15] = 35;\n        stakingLevelToWeight[16] = 40;\n        stakingLevelToWeight[17] = 45;\n        stakingLevelToWeight[18] = 50;\n        stakingLevelToWeight[19] = 60;\n        stakingLevelToWeight[20] = 70;\n        stakingLevelToWeight[21] = 80;\n        stakingLevelToWeight[22] = 90;\n        stakingLevelToWeight[23] = 100;\n        stakingLevelToWeight[24] = 110;\n        stakingLevelToWeight[25] = 120;\n        stakingLevelToWeight[26] = 130;\n        stakingLevelToWeight[27] = 140;\n        stakingLevelToWeight[28] = 150;\n    }\n\n    //\n    // Pre Sale numbers and allocation per user\n    // -------------------------------\n    // Once the participant enters they wont be able to re-enter\n\n    function setTotalAmountToCollectForThisPreSale(\n        uint256 _preSaleNumber,\n        uint256 _amount\n    ) public onlyOwner {\n        totalAmountToCollectForThisPreSale[_preSaleNumber] = _amount;\n    }\n\n    function participateInPreSaleAllocation(\n        uint256 _preSaleNumber,\n        address _token\n    ) public {\n        require(participateInPreSaleAllocationStatus[_preSaleNumber] == true); // this is help to open the pre-sale participation\n        require(stakingBalance[_token][msg.sender] >= (1500 * (10**18)));\n        require(getStakingLevel(msg.sender, _token) > 0);\n        // require(preSaleParticipantsStatus[msg.sender] == false);\n\n        uint256 stakingLevel = getStakingLevel(msg.sender, _token);\n        stakingLevelUserCounter[_preSaleNumber][stakingLevel] =\n            stakingLevelUserCounter[_preSaleNumber][stakingLevel] +\n            1;\n        whenParticipatedThatLevel[msg.sender] = stakingLevel;\n        stakingTimeToWithdraw[msg.sender] = block.timestamp;\n    }\n\n    // uint256 public allPoolsTotalWeight;\n    // uint256 public amountAllocatedToEachShare;\n    // uint256 public allocatedAmountToEachUser;\n    // uint256 public users_count_each_staking_level;\n\n    function getAllocatedPreSaleAmount(\n        address _sender,\n        address _token,\n        uint256 _preSaleNumber\n    ) public view returns (uint256) {\n        require(preSaleAllocationStatus[_preSaleNumber] == true);\n        require(totalAmountToCollectForThisPreSale[_preSaleNumber] > 0);\n\n        uint256 allPoolsTotalWeight;\n        for (uint256 i = 1; i < 29; i++) {\n            uint256 eachPoolTotalWeight;\n            eachPoolTotalWeight = (stakingLevelToWeight[i] *\n                stakingLevelUserCounter[_preSaleNumber][i]);\n            allPoolsTotalWeight = allPoolsTotalWeight + eachPoolTotalWeight;\n        }\n        uint256 amountAllocatedToEachShare = (totalAmountToCollectForThisPreSale[\n                _preSaleNumber\n            ] / allPoolsTotalWeight);\n\n        // uint256 staking_level_of_sender = getStakingLevel(_sender, _token);\n\n        uint256 staking_level_of_sender = whenParticipatedThatLevel[_sender];\n\n        uint256 users_count_each_staking_level = stakingLevelUserCounter[\n            _preSaleNumber\n        ][staking_level_of_sender];\n\n        uint256 each_level_staking_weight = stakingLevelToWeight[\n            staking_level_of_sender\n        ];\n\n        uint256 allocatedAmountToEachUser;\n        allocatedAmountToEachUser = ((each_level_staking_weight *\n            users_count_each_staking_level *\n            amountAllocatedToEachShare) / users_count_each_staking_level);\n\n        return (allocatedAmountToEachUser);\n    }\n\n    function changeStakingLevelToWeight(uint256 _level, uint256 _weight)\n        public\n        onlyOwner\n    {\n        stakingLevelToWeight[_level] = _weight;\n    }\n\n    function changeBaseNumberStakingLevel(uint256 _number) public onlyOwner {\n        baseNumberStakingLevel = _number;\n    }\n\n    function setPreSaleAllocationStatus(uint256 _number, bool _status)\n        public\n        onlyOwner\n    {\n        preSaleAllocationStatus[_number] = _status;\n    }\n\n    function setParticipateInPreSaleAllocationStatus(\n        uint256 _number,\n        bool _status\n    ) public onlyOwner {\n        participateInPreSaleAllocationStatus[_number] = _status;\n    }\n\n    function getStakingLevel(address _sender, address _token)\n        public\n        view\n        returns (uint256)\n    {\n        uint256 stakingLevel = 0;\n        if (\n            stakingBalance[_token][_sender] >=\n            ((baseNumberStakingLevel * 150) * (10**18))\n        ) {\n            return stakingLevel = 28;\n        } else if (\n            stakingBalance[_token][_sender] >=\n            ((baseNumberStakingLevel * 140) * (10**18))\n        ) {\n            return stakingLevel = 27;\n        } else if (\n            stakingBalance[_token][_sender] >=\n            ((baseNumberStakingLevel * 130) * (10**18))\n        ) {\n            return stakingLevel = 26;\n        } else if (\n            stakingBalance[_token][_sender] >=\n            ((baseNumberStakingLevel * 120) * (10**18))\n        ) {\n            return stakingLevel = 25;\n        } else if (\n            stakingBalance[_token][_sender] >=\n            ((baseNumberStakingLevel * 110) * (10**18))\n        ) {\n            return stakingLevel = 24;\n        } else if (\n            stakingBalance[_token][_sender] >=\n            ((baseNumberStakingLevel * 100) * (10**18))\n        ) {\n            return stakingLevel = 23;\n        } else if (\n            stakingBalance[_token][_sender] >=\n            ((baseNumberStakingLevel * 90) * (10**18))\n        ) {\n            return stakingLevel = 22;\n        } else if (\n            stakingBalance[_token][_sender] >=\n            ((baseNumberStakingLevel * 80) * (10**18))\n        ) {\n            return stakingLevel = 21;\n        } else if (\n            stakingBalance[_token][_sender] >=\n            ((baseNumberStakingLevel * 70) * (10**18))\n        ) {\n            return stakingLevel = 20;\n        } else if (\n            stakingBalance[_token][_sender] >=\n            ((baseNumberStakingLevel * 60) * (10**18))\n        ) {\n            return stakingLevel = 19;\n        } else if (\n            stakingBalance[_token][_sender] >=\n            ((baseNumberStakingLevel * 50) * (10**18))\n        ) {\n            return stakingLevel = 18;\n        } else if (\n            stakingBalance[_token][_sender] >=\n            ((baseNumberStakingLevel * 45) * (10**18))\n        ) {\n            return stakingLevel = 17;\n        } else if (\n            stakingBalance[_token][_sender] >=\n            ((baseNumberStakingLevel * 40) * (10**18))\n        ) {\n            return stakingLevel = 16;\n        } else if (\n            stakingBalance[_token][_sender] >=\n            ((baseNumberStakingLevel * 35) * (10**18))\n        ) {\n            return stakingLevel = 15;\n        } else if (\n            stakingBalance[_token][_sender] >=\n            ((baseNumberStakingLevel * 30) * (10**18))\n        ) {\n            return stakingLevel = 14;\n        } else if (\n            stakingBalance[_token][_sender] >=\n            ((baseNumberStakingLevel * 25) * (10**18))\n        ) {\n            return stakingLevel = 13;\n        } else if (\n            stakingBalance[_token][_sender] >=\n            ((baseNumberStakingLevel * 20) * (10**18))\n        ) {\n            return stakingLevel = 12;\n        } else if (\n            stakingBalance[_token][_sender] >=\n            ((baseNumberStakingLevel * 15) * (10**18))\n        ) {\n            return stakingLevel = 11;\n        } else if (\n            stakingBalance[_token][_sender] >=\n            ((baseNumberStakingLevel * 10) * (10**18))\n        ) {\n            return stakingLevel = 10;\n        } else if (\n            stakingBalance[_token][_sender] >=\n            ((baseNumberStakingLevel * 9) * (10**18))\n        ) {\n            return stakingLevel = 9;\n        } else if (\n            stakingBalance[_token][_sender] >=\n            ((baseNumberStakingLevel * 8) * (10**18))\n        ) {\n            return stakingLevel = 8;\n        } else if (\n            stakingBalance[_token][_sender] >=\n            ((baseNumberStakingLevel * 7) * (10**18))\n        ) {\n            return stakingLevel = 7;\n        } else if (\n            stakingBalance[_token][_sender] >=\n            ((baseNumberStakingLevel * 6) * (10**18))\n        ) {\n            return stakingLevel = 6;\n        } else if (\n            stakingBalance[_token][_sender] >=\n            ((baseNumberStakingLevel * 5) * (10**18))\n        ) {\n            return stakingLevel = 5;\n        } else if (\n            stakingBalance[_token][_sender] >=\n            ((baseNumberStakingLevel * 4) * (10**18))\n        ) {\n            return stakingLevel = 4;\n        } else if (\n            stakingBalance[_token][_sender] >=\n            ((baseNumberStakingLevel * 3) * (10**18))\n        ) {\n            return stakingLevel = 3;\n        } else if (\n            stakingBalance[_token][_sender] >=\n            ((baseNumberStakingLevel * 2) * (10**18))\n        ) {\n            return stakingLevel = 2;\n        } else if (\n            stakingBalance[_token][_sender] >=\n            ((baseNumberStakingLevel * 1) * (10**18))\n        ) {\n            return stakingLevel = 1;\n        } else {\n            return stakingLevel = 0;\n        }\n    }\n\n    // pre-sale collection of funds according to each pre-sale number\n    mapping(uint256 => bool) public preSaleFundEachPreSaleNumberStatus; // this is to activate or deactive the preSaleFundEachPerPreSaleNumber Function\n    mapping(uint256 => bool) public preSaleFundFCFSEachPreSaleNumberStatus; // this is to activate or deactive the preSaleFundFCFSEachPerPreSaleNumber Function\n    mapping(uint256 => bool)\n        public preSaleFundEachPreSaleNumberWithoutStakingStatus; // this is to activate or deactive the preSaleFundFCFSEachPerPreSaleNumber Function\n\n    mapping(uint256 => bool) public claimTokensEachPreSaleStatus; // this is to activate or deactive the claimAllTokensEachPreSale Function\n\n    mapping(uint256 => mapping(address => uint256))\n        public purchasedBalanceEachPreSale; // Balance of amount spend by user in this single pre-sale\n    mapping(address => uint256) public uniquePreSaleTokensPurchased; // Collecting how many times this user has participated in the pre-sales\n    mapping(uint256 => uint256) public TIMESeachPreSale; // Determines the price of pre-sale tokens / per BUSD\n    mapping(uint256 => mapping(address => uint256))\n        public collectedPreSaleFundsEachPreSale; // This is to withdraw pre-sale collected funds, this will get zero when owner withdraw the funds\n    mapping(uint256 => mapping(address => uint256))\n        public totalCollectionOfPreSaleFundsEachPreSale; // This will not get zero after withdrawing of funds\n    mapping(uint256 => address[]) public preSaleFundersEachPreSale; // creates the list of a number of users who purchased tokens in this single pre-sale\n    mapping(uint256 => mapping(address => uint256))\n        public totalPurchasedPreSaleTokensEachPreSale; // totalPurchasedPreSaleTokensEachPreSale determines how many pre-sale tokens user will get in this pre-sale\n    mapping(uint256 => mapping(address => uint256))\n        public totalWithdrawnPreSaleTokensEachPreSale; // this is total withdrawn amount by user for this single pre-sale\n    mapping(uint256 => uint256) public percentageWithdrawAllowedEachPreSale;\n    mapping(uint256 => IERC20) public preSaleTokenAddressEachPreSale; // the is the tokens which we will deliver in return of pre-sale collected funds\n\n    function setPreSaleFundEachPreSaleNumberStatus(\n        uint256 _preSaleNumber,\n        bool _status\n    ) public onlyOwner {\n        preSaleFundEachPreSaleNumberStatus[_preSaleNumber] = _status;\n    }\n\n    function setPreSaleFundFCFSEachPreSaleNumberStatus(\n        uint256 _preSaleNumber,\n        bool _status\n    ) public onlyOwner {\n        preSaleFundFCFSEachPreSaleNumberStatus[_preSaleNumber] = _status;\n    }\n\n    function setPreSaleFundEachPreSaleNumberWithoutStakingStatus(\n        uint256 _preSaleNumber,\n        bool _status\n    ) public onlyOwner {\n        preSaleFundEachPreSaleNumberWithoutStakingStatus[\n            _preSaleNumber\n        ] = _status;\n    }\n\n    // this represents the token being staked on our platform\n    // this represents the curreny being used to pay for this pre-sale\n    function preSaleFundEachPreSaleNumber(\n        uint256 _amount,\n        address _token,\n        address _busdToken,\n        uint256 _preSaleNumber\n    ) public {\n        require(preSaleFundEachPreSaleNumberStatus[_preSaleNumber] == true);\n        require(stakingBalance[_token][msg.sender] >= (1500 * (10**18)));\n        require(getStakingLevel(msg.sender, _token) > 0);\n        require(totalAmountToCollectForThisPreSale[_preSaleNumber] > 0);\n        require(_amount > 0, \"Amount must be more than 0\");\n        require(\n            preSaleTokenIsAllowed(_busdToken),\n            \"Token is currently not allowed\"\n        );\n        require(\n            totalCollectionOfPreSaleFundsEachPreSale[_preSaleNumber][\n                _busdToken\n            ] < totalAmountToCollectForThisPreSale[_preSaleNumber]\n        );\n        require(\n            (totalCollectionOfPreSaleFundsEachPreSale[_preSaleNumber][\n                _busdToken\n            ] + _amount) <= totalAmountToCollectForThisPreSale[_preSaleNumber]\n        );\n\n        uint256 allocatedPreSaleAmount = getAllocatedPreSaleAmount(\n            msg.sender,\n            _token,\n            _preSaleNumber\n        );\n        uint256 balance = (allocatedPreSaleAmount -\n            purchasedBalanceEachPreSale[_preSaleNumber][msg.sender]);\n        require(balance > 0);\n        require(_amount <= balance);\n        stakingTimeToWithdraw[msg.sender] = block.timestamp;\n\n        IERC20(_busdToken).transferFrom(msg.sender, address(this), _amount);\n        updateUniquePreSaleTokensPurchased(msg.sender, _preSaleNumber);\n        // how much worth user has purchased in this single pre-sale (amount is in busd)\n        purchasedBalanceEachPreSale[_preSaleNumber][msg.sender] =\n            purchasedBalanceEachPreSale[_preSaleNumber][msg.sender] +\n            _amount;\n        // totalPurchasedPreSaleTokensEachPreSale determines how many pre-sale tokens user will get in this pre-sale\n        totalPurchasedPreSaleTokensEachPreSale[_preSaleNumber][msg.sender] =\n            totalPurchasedPreSaleTokensEachPreSale[_preSaleNumber][msg.sender] +\n            (_amount * TIMESeachPreSale[_preSaleNumber]);\n        // how much Funds has been collected so far\n        collectedPreSaleFundsEachPreSale[_preSaleNumber][_busdToken] =\n            collectedPreSaleFundsEachPreSale[_preSaleNumber][_busdToken] +\n            _amount;\n        totalCollectionOfPreSaleFundsEachPreSale[_preSaleNumber][_busdToken] =\n            totalCollectionOfPreSaleFundsEachPreSale[_preSaleNumber][\n                _busdToken\n            ] +\n            _amount;\n        totalCollectionOfPreSaleFundsAllTokens =\n            totalCollectionOfPreSaleFundsAllTokens +\n            _amount;\n    }\n\n    function preSaleFundFCFSEachPreSaleNumber(\n        uint256 _amount,\n        address _token,\n        address _busdToken,\n        uint256 _preSaleNumber\n    ) public {\n        require(preSaleFundFCFSEachPreSaleNumberStatus[_preSaleNumber] == true);\n        require(stakingBalance[_token][msg.sender] >= (1500 * (10**18)));\n        require(getStakingLevel(msg.sender, _token) > 0);\n        require(totalAmountToCollectForThisPreSale[_preSaleNumber] > 0);\n        require(_amount > 0, \"Amount must be more than 0\");\n        require(\n            preSaleTokenIsAllowed(_busdToken),\n            \"Token is currently not allowed\"\n        );\n        require(\n            totalCollectionOfPreSaleFundsEachPreSale[_preSaleNumber][\n                _busdToken\n            ] < totalAmountToCollectForThisPreSale[_preSaleNumber]\n        );\n        require(\n            (totalCollectionOfPreSaleFundsEachPreSale[_preSaleNumber][\n                _busdToken\n            ] + _amount) <= totalAmountToCollectForThisPreSale[_preSaleNumber]\n        );\n\n        uint256 allocatedPreSaleAmount = getAllocatedPreSaleAmount(\n            msg.sender,\n            _token,\n            _preSaleNumber\n        );\n        require(allocatedPreSaleAmount > 0);\n        stakingTimeToWithdraw[msg.sender] = block.timestamp;\n\n        IERC20(_busdToken).transferFrom(msg.sender, address(this), _amount);\n        updateUniquePreSaleTokensPurchased(msg.sender, _preSaleNumber);\n        // how much worth user has purchased in this single pre-sale (amount is in busd)\n        purchasedBalanceEachPreSale[_preSaleNumber][msg.sender] =\n            purchasedBalanceEachPreSale[_preSaleNumber][msg.sender] +\n            _amount;\n        // totalPurchasedPreSaleTokensEachPreSale determines how many pre-sale tokens user will get in this pre-sale\n        totalPurchasedPreSaleTokensEachPreSale[_preSaleNumber][msg.sender] =\n            totalPurchasedPreSaleTokensEachPreSale[_preSaleNumber][msg.sender] +\n            (_amount * TIMESeachPreSale[_preSaleNumber]);\n        // how much Funds has been collected so far\n        collectedPreSaleFundsEachPreSale[_preSaleNumber][_busdToken] =\n            collectedPreSaleFundsEachPreSale[_preSaleNumber][_busdToken] +\n            _amount;\n        totalCollectionOfPreSaleFundsEachPreSale[_preSaleNumber][_busdToken] =\n            totalCollectionOfPreSaleFundsEachPreSale[_preSaleNumber][\n                _busdToken\n            ] +\n            _amount;\n        totalCollectionOfPreSaleFundsAllTokens =\n            totalCollectionOfPreSaleFundsAllTokens +\n            _amount;\n    }\n\n    function preSaleFundEachPreSaleNumberWithoutStaking(\n        uint256 _amount,\n        address _token,\n        address _busdToken,\n        uint256 _preSaleNumber\n    ) public {\n        require(\n            preSaleFundEachPreSaleNumberWithoutStakingStatus[_preSaleNumber] ==\n                true\n        );\n        require(totalAmountToCollectForThisPreSale[_preSaleNumber] > 0);\n        require(_amount > 0, \"Amount must be more than 0\");\n        require(\n            preSaleTokenIsAllowed(_busdToken),\n            \"Token is currently not allowed\"\n        );\n        require(\n            totalCollectionOfPreSaleFundsEachPreSale[_preSaleNumber][\n                _busdToken\n            ] < totalAmountToCollectForThisPreSale[_preSaleNumber]\n        );\n        require(\n            (totalCollectionOfPreSaleFundsEachPreSale[_preSaleNumber][\n                _busdToken\n            ] + _amount) <= totalAmountToCollectForThisPreSale[_preSaleNumber]\n        );\n\n        stakingTimeToWithdraw[msg.sender] = block.timestamp;\n\n        IERC20(_busdToken).transferFrom(msg.sender, address(this), _amount);\n\n        updateUniquePreSaleTokensPurchased(msg.sender, _preSaleNumber);\n        // how much worth user has purchased in this single pre-sale (amount is in busd)\n        purchasedBalanceEachPreSale[_preSaleNumber][msg.sender] =\n            purchasedBalanceEachPreSale[_preSaleNumber][msg.sender] +\n            _amount;\n        // totalPurchasedPreSaleTokensEachPreSale determines how many pre-sale tokens user will get in this pre-sale\n        totalPurchasedPreSaleTokensEachPreSale[_preSaleNumber][msg.sender] =\n            totalPurchasedPreSaleTokensEachPreSale[_preSaleNumber][msg.sender] +\n            (_amount * TIMESeachPreSale[_preSaleNumber]);\n        // how much Funds has been collected so far\n        collectedPreSaleFundsEachPreSale[_preSaleNumber][_busdToken] =\n            collectedPreSaleFundsEachPreSale[_preSaleNumber][_busdToken] +\n            _amount;\n        totalCollectionOfPreSaleFundsEachPreSale[_preSaleNumber][_busdToken] =\n            totalCollectionOfPreSaleFundsEachPreSale[_preSaleNumber][\n                _busdToken\n            ] +\n            _amount;\n        totalCollectionOfPreSaleFundsAllTokens =\n            totalCollectionOfPreSaleFundsAllTokens +\n            _amount;\n    }\n\n    function getHowMuchMoreUserCanPurchaseEachPreSale(\n        address _sender,\n        address _token,\n        uint256 _preSaleNumber\n    ) public view returns (uint256) {\n        uint256 allocatedPreSaleAmount = getAllocatedPreSaleAmount(\n            _sender,\n            _token,\n            _preSaleNumber\n        );\n        uint256 balance = (allocatedPreSaleAmount -\n            purchasedBalanceEachPreSale[_preSaleNumber][_sender]);\n        return (balance);\n    }\n\n    function updateUniquePreSaleTokensPurchased(\n        address _user,\n        uint256 _preSaleNumber\n    ) internal {\n        if (purchasedBalanceEachPreSale[_preSaleNumber][_user] <= 0) {\n            uniquePreSaleTokensPurchased[_user] =\n                uniquePreSaleTokensPurchased[_user] +\n                1;\n            preSaleFundersEachPreSale[_preSaleNumber].push(_user);\n        }\n    }\n\n    function setClaimTokensEachPreSaleStatus(\n        uint256 _preSaleNumber,\n        bool _status\n    ) public onlyOwner {\n        claimTokensEachPreSaleStatus[_preSaleNumber] = _status;\n    }\n\n    function claimAllTokensEachPreSale(uint256 _preSaleNumber) public {\n        require(claimTokensEachPreSaleStatus[_preSaleNumber] == true);\n\n        uint256 totalPurchased = totalPurchasedPreSaleTokensEachPreSale[\n            _preSaleNumber\n        ][msg.sender];\n        uint256 totalWithdrawn = totalWithdrawnPreSaleTokensEachPreSale[\n            _preSaleNumber\n        ][msg.sender];\n        uint256 balance = (totalPurchased - totalWithdrawn);\n        uint256 allowedToWithdraw = (percentageWithdrawAllowedEachPreSale[\n            _preSaleNumber\n        ] * totalPurchased) / 100;\n        uint256 availableToWithdraw = (allowedToWithdraw - totalWithdrawn);\n\n        require(totalPurchased > 0);\n        require(availableToWithdraw > 0);\n        require(totalWithdrawn < totalPurchased);\n\n        IERC20(preSaleTokenAddressEachPreSale[_preSaleNumber]).transfer(\n            msg.sender,\n            availableToWithdraw\n        );\n        totalWithdrawnPreSaleTokensEachPreSale[_preSaleNumber][msg.sender] =\n            totalWithdrawnPreSaleTokensEachPreSale[_preSaleNumber][msg.sender] +\n            availableToWithdraw;\n    }\n\n    function claimTokensEachPreSale(uint256 _preSaleNumber, uint256 _amount)\n        public\n    {\n        require(claimTokensEachPreSaleStatus[_preSaleNumber] == true);\n\n        uint256 totalPurchased = totalPurchasedPreSaleTokensEachPreSale[\n            _preSaleNumber\n        ][msg.sender];\n        uint256 totalWithdrawn = totalWithdrawnPreSaleTokensEachPreSale[\n            _preSaleNumber\n        ][msg.sender];\n        uint256 balance = (totalPurchased - totalWithdrawn);\n        uint256 allowedToWithdraw = (percentageWithdrawAllowedEachPreSale[\n            _preSaleNumber\n        ] * totalPurchased) / 100;\n        uint256 availableToWithdraw = (allowedToWithdraw - totalWithdrawn);\n\n        require(availableToWithdraw > 0);\n        require(_amount <= availableToWithdraw);\n        require(totalWithdrawn < totalPurchased);\n        require(_amount > 0, \"Amount must be more than 0\");\n        require(\n            balance >= _amount,\n            \"You don't have enough purchased tokens left!\"\n        );\n        require((totalWithdrawn + _amount) < totalPurchased);\n\n        IERC20(preSaleTokenAddressEachPreSale[_preSaleNumber]).transfer(\n            msg.sender,\n            _amount\n        );\n        totalWithdrawnPreSaleTokensEachPreSale[_preSaleNumber][msg.sender] =\n            totalWithdrawnPreSaleTokensEachPreSale[_preSaleNumber][msg.sender] +\n            _amount;\n    }\n\n    // this function increase the of percentage amount allowed to withdraw\n\n    function setPercentageWithdrawAllowedEachPreSale(\n        uint256 _preSaleNumber,\n        uint256 _percentageAmount\n    ) public onlyOwner {\n        // require(percentageWithdrawAllowedEachPreSale[_preSaleNumber] <= 101);\n        // require((percentageWithdrawAllowedEachPreSale[_preSaleNumber] + _percentageAmount) <= 101);\n        percentageWithdrawAllowedEachPreSale[_preSaleNumber] =\n            percentageWithdrawAllowedEachPreSale[_preSaleNumber] +\n            _percentageAmount;\n    }\n\n    // similar to \"setPercentageWithdrawAllowedEachPreSale\" but you can also decrease the value\n\n    function manuallySetPercentageWithdrawAllowedEachPreSale(\n        uint256 _preSaleNumber,\n        uint256 _percentageAmount\n    ) public onlyOwner {\n        // require(percentageWithdrawAllowedEachPreSale[_preSaleNumber] <= 101);\n        // require((percentageWithdrawAllowedEachPreSale[_preSaleNumber] + _percentageAmount) <= 101);\n        percentageWithdrawAllowedEachPreSale[\n            _preSaleNumber\n        ] = _percentageAmount;\n    }\n\n    function getAvailablePreSaleTokensToWithdrawEachPreSale(\n        address _token,\n        address _sender,\n        uint256 _preSaleNumber\n    ) public view returns (uint256) {\n        uint256 totalPurchased = totalPurchasedPreSaleTokensEachPreSale[\n            _preSaleNumber\n        ][_sender];\n        uint256 totalWithdrawn = totalWithdrawnPreSaleTokensEachPreSale[\n            _preSaleNumber\n        ][_sender];\n        uint256 allowedToWithdraw = (percentageWithdrawAllowedEachPreSale[\n            _preSaleNumber\n        ] * totalPurchased) / 100;\n        uint256 availableToWithdraw = (allowedToWithdraw - totalWithdrawn);\n\n        // preSaleTokensLeftToWithdraw[_token][msg.sender] = availableToWithdraw;\n        return availableToWithdraw;\n    }\n\n    // this is to withdraw the collected funds from each pre-sale\n\n    function withdrawCollectedFundEachPreSale(\n        uint256 _preSaleNumber,\n        address _busdToken\n    ) public onlyOwner {\n        // uint256 balance = purchasedBalance[_token][msg.sender];\n        // uint256 balance = (IERC20(_token).balanceOf(address(this)));\n        uint256 collectedFunds = collectedPreSaleFundsEachPreSale[\n            _preSaleNumber\n        ][_busdToken];\n        // require(balance > 0, \"Staking balance cannot be 0\");\n        IERC20(_busdToken).transfer(msg.sender, collectedFunds);\n\n        collectedPreSaleFundsEachPreSale[_preSaleNumber][_busdToken] = 0;\n    }\n\n    function updatePreSaleTokenAddressEachPreSale(\n        uint256 _preSaleNumber,\n        address _preSaleTokenAddress\n    ) public onlyOwner {\n        preSaleTokenAddressEachPreSale[_preSaleNumber] = IERC20(\n            _preSaleTokenAddress\n        );\n    }\n\n    function updateTimesEachPreSale(uint256 _preSaleNumber, uint256 _times)\n        public\n        onlyOwner\n    {\n        TIMESeachPreSale[_preSaleNumber] = _times;\n    }\n\n    // *************************************************\n\n    // ---------------------------------------\n\n    // -------------------------------\n    //    address[] public receivingAllowedTokens;\n\n    // stakeTokens - DONE!\n    // unStakeTokens - DONE\n    // issueTokens - DONE!\n    // addAllowedTokens - DONE!\n    // getEthValue - DONE!\n\n    // 100 ETH 1:1 for every 1 ETH, we give 1 DappToken\n    // 50 ETH and 50 DAI staked, and we want to give a reward of 1 DAPP / 1 DAI\n\n    function getVersion() public view returns (uint256) {\n        return priceFeedA.version();\n    }\n\n    function addPreSaleAllowedTokens(address _token) public onlyOwner {\n        preSaleAllowedTokens.push(_token);\n    }\n\n    function updateTimes(uint256 _times) public onlyOwner {\n        TIMES = _times;\n    }\n\n    function updatePreSaleTokenAddress(address _preSaleTokenAddress)\n        public\n        onlyOwner\n    {\n        preSaleTokenAddress = IERC20(_preSaleTokenAddress);\n    }\n\n    function preSaleFund(uint256 _amount, address _token) public {\n        // uint256 minimumUSD = 1 * (10**18);\n        // require(\n        //     getConversionRate(_amount) >= minimumUSD,\n        //     \"You need to spend more Eth!\"\n        // );\n        require(_amount > 0, \"Amount must be more than 0\");\n        require(\n            preSaleTokenIsAllowed(_token),\n            \"Token is currently not allowed\"\n        );\n        IERC20(_token).transferFrom(msg.sender, address(this), _amount);\n        singleTokenAllPreSaleBalance =\n            (IERC20(_token).balanceOf(address(this))) /\n            1000000000000000000;\n\n        updateUniquePreSaleTokensStaked(msg.sender, _token);\n\n        // how much worth user has purchased in busd\n        purchasedBalance[_token][msg.sender] =\n            purchasedBalance[_token][msg.sender] +\n            _amount;\n\n        // totalPurchasedPreSaleTokens determines how many pre-sale tokens user will get\n        totalPurchasedPreSaleTokens[msg.sender] =\n            totalPurchasedPreSaleTokens[msg.sender] +\n            (_amount * TIMES);\n\n        // how much amount has been calculated so far\n        collectedPreSaleFunds[_token] = collectedPreSaleFunds[_token] + _amount;\n        totalCollectionOfPreSaleFunds[_token] =\n            totalCollectionOfPreSaleFunds[_token] +\n            _amount;\n        totalCollectionOfPreSaleFundsAllTokens =\n            totalCollectionOfPreSaleFundsAllTokens +\n            _amount;\n\n        if (uniquePreSaleTokensStaked[msg.sender] == 1) {\n            preSaleFunders.push(msg.sender);\n        }\n\n        // addressToAmountFunded[msg.sender] += msg.value;\n        // preSaleFunders.push(msg.sender);\n    }\n\n    function getSingleTokenAllPreSaleBalance(address _token)\n        public\n        onlyOwner\n        returns (uint256)\n    {\n        singleTokenAllPreSaleBalance = IERC20(_token).balanceOf(address(this));\n        return singleTokenAllPreSaleBalance;\n    }\n\n    function claimAllPreSaletokens() public {\n        uint256 totalPurchased = totalPurchasedPreSaleTokens[msg.sender];\n        uint256 totalWithdrawn = totalWithdrawnPreSaleTokens[msg.sender];\n        uint256 balance = (totalPurchased - totalWithdrawn);\n        uint256 allowedToWithdraw = (percentageWithdrawAllowed *\n            totalPurchased) / 100;\n        uint256 availableToWithdraw = (allowedToWithdraw - totalWithdrawn);\n\n        require(totalPurchased > 0);\n        require(availableToWithdraw > 0);\n        require(totalWithdrawn < totalPurchased);\n\n        IERC20(preSaleTokenAddress).transfer(msg.sender, availableToWithdraw);\n        totalWithdrawnPreSaleTokens[msg.sender] =\n            totalWithdrawnPreSaleTokens[msg.sender] +\n            availableToWithdraw;\n    }\n\n    function claimPreSaleTokens(uint256 _amount) public {\n        uint256 totalPurchased = totalPurchasedPreSaleTokens[msg.sender];\n        uint256 totalWithdrawn = totalWithdrawnPreSaleTokens[msg.sender];\n        uint256 balance = (totalPurchased - totalWithdrawn);\n        uint256 allowedToWithdraw = (percentageWithdrawAllowed *\n            totalPurchased) / 100;\n        uint256 availableToWithdraw = (allowedToWithdraw - totalWithdrawn);\n\n        require(availableToWithdraw > 0);\n        require(_amount <= availableToWithdraw);\n        require(totalWithdrawn < totalPurchased);\n        require(_amount > 0, \"Amount must be more than 0\");\n        require(\n            balance >= _amount,\n            \"You don't have enough purchased tokens left!\"\n        );\n        require((totalWithdrawn + _amount) < totalPurchased);\n\n        IERC20(preSaleTokenAddress).transfer(msg.sender, _amount);\n        totalWithdrawnPreSaleTokens[msg.sender] =\n            totalWithdrawnPreSaleTokens[msg.sender] +\n            _amount;\n\n        // Removing: preSaleTokensAvailableToWithdraw is a changing value when\n        // we update the percentageWithdrawAllowed it will change\n\n        // preSaleTokensAvailableToWithdraw[_token][msg.sender] =\n        //     availableToWithdraw -\n        //     _amount;\n    }\n\n    function issuePreSaleTokensToWithdrawPercentage(uint256 _percentageAmount)\n        public\n        onlyOwner\n    {\n        require(percentageWithdrawAllowed <= 101);\n        require((percentageWithdrawAllowed + _percentageAmount) <= 101);\n        percentageWithdrawAllowed =\n            percentageWithdrawAllowed +\n            _percentageAmount;\n    }\n\n    function getAvailablePreSaleTokensToWithdraw(\n        address _token,\n        address _sender\n    ) public view returns (uint256) {\n        uint256 totalPurchased = totalPurchasedPreSaleTokens[_sender];\n        uint256 totalWithdrawn = totalWithdrawnPreSaleTokens[_sender];\n        // uint256 balance = (totalPurchased - totalWithdrawn);\n        uint256 allowedToWithdraw = (percentageWithdrawAllowed *\n            totalPurchased) / 100;\n        uint256 availableToWithdraw = (allowedToWithdraw - totalWithdrawn);\n\n        // preSaleTokensLeftToWithdraw[_token][msg.sender] = availableToWithdraw;\n        return availableToWithdraw;\n    }\n\n    function withdrawPreSaleCollectedFund(address _token) public onlyOwner {\n        // uint256 balance = purchasedBalance[_token][msg.sender];\n        // uint256 balance = (IERC20(_token).balanceOf(address(this)));\n        uint256 collectedFunds = collectedPreSaleFunds[_token];\n        // require(balance > 0, \"Staking balance cannot be 0\");\n        IERC20(_token).transfer(msg.sender, collectedFunds);\n        singleTokenAllPreSaleBalance =\n            (IERC20(_token).balanceOf(address(this))) /\n            1000000000000000000;\n\n        collectedPreSaleFunds[_token] = 0;\n    }\n\n    function manageWithdrawOwnerFunds(address _token, uint256 _amount)\n        public\n        onlyOwner\n    {\n        IERC20(_token).transfer(msg.sender, _amount);\n    }\n\n    function manageDepositOwnerFunds(address _token, uint256 _amount)\n        public\n        onlyOwner\n    {\n        IERC20(_token).transferFrom(msg.sender, address(this), _amount);\n    }\n\n    // function stakeTokens(uint256 _amount, address _token) public {\n    //     // what tokens can they stake?\n    //     // how much can they stake?\n    //     require(_amount > 0, \"Amount must be more than 0\");\n    //     require(tokenIsAllowed(_token), \"Token is currently not allowed\");\n    //     // transferFrom\n    //     IERC20(_token).transferFrom(msg.sender, address(this), _amount);\n    //     updateUniqueTokensStaked(msg.sender, _token);\n    //     stakingBalance[_token][msg.sender] =\n    //         stakingBalance[_token][msg.sender] +\n    //         _amount;\n    //     if (uniqueTokensStaked[msg.sender] == 1) {\n    //         stakers.push(msg.sender);\n    //     }\n    // }\n\n    function preSaleTokenIsAllowed(address _token) public returns (bool) {\n        for (\n            uint256 preSaleAllowedTokensIndex = 0;\n            preSaleAllowedTokensIndex < preSaleAllowedTokens.length;\n            preSaleAllowedTokensIndex++\n        ) {\n            if (preSaleAllowedTokens[preSaleAllowedTokensIndex] == _token) {\n                return true;\n            }\n        }\n        return false;\n    }\n\n    function getConversionRate(uint256 ethAmount)\n        public\n        view\n        returns (uint256)\n    {\n        // use function \"getTokenValue()\" instead of \"getPrice()\"\n\n        uint256 ethPrice = getPrice();\n        uint256 ethAmountInUsd = (ethPrice * ethAmount) / 1000000000000000000;\n        return ethAmountInUsd;\n    }\n\n    function getPrice() public view returns (uint256) {\n        (, int256 answer, , , ) = priceFeedA.latestRoundData();\n        return uint256(answer * 10000000000);\n    }\n\n    function getEntranceFee() public view returns (uint256) {\n        //minimumUSD\n        uint256 minimumUSD = 50 * 10**18;\n        uint256 price = getPrice();\n        uint256 precision = 1 * 10**18;\n        return (minimumUSD * precision) / price;\n    }\n\n    function updateUniquePreSaleTokensStaked(address _user, address _token)\n        internal\n    {\n        if (purchasedBalance[_token][_user] <= 0) {\n            uniquePreSaleTokensStaked[_user] =\n                uniquePreSaleTokensStaked[_user] +\n                1;\n        }\n    }\n\n    // --------------------------------------------\n\n    function setPriceFeedContract(address _token, address _priceFeed)\n        public\n        onlyOwner\n    {\n        tokenPriceFeedMapping[_token] = _priceFeed;\n    }\n\n    function issueTokens() public onlyOwner {\n        // Issue tokens to all stakers\n        for (\n            uint256 stakersIndex = 0;\n            stakersIndex < stakers.length;\n            stakersIndex++\n        ) {\n            address recipient = stakers[stakersIndex];\n            uint256 userTotalValue = getUserTotalValue(recipient);\n            // send them a token reward\n            // based on their total value locked\n            // dappToken.transfer(recipient, )\n            dappToken.transfer(recipient, userTotalValue);\n        }\n    }\n\n    function getUserTotalValue(address _user) public view returns (uint256) {\n        uint256 totalValue = 0;\n        require(uniqueTokensStaked[_user] > 0, \"No tokens staked!\");\n        for (\n            uint256 allowedTokensIndex = 0;\n            allowedTokensIndex < allowedTokens.length;\n            allowedTokensIndex++\n        ) {\n            totalValue =\n                totalValue +\n                getUserSingleTokenValue(\n                    _user,\n                    allowedTokens[allowedTokensIndex]\n                );\n        }\n        return totalValue;\n    }\n\n    function getUserSingleTokenValue(address _user, address _token)\n        public\n        view\n        returns (uint256)\n    {\n        // if staked 1 ETH -> $2000\n        // 2000 dapp token\n        // if staked 200 DAI -> $200\n        // 200 dapp token\n        if (uniqueTokensStaked[_user] <= 0) {\n            return 0;\n        }\n        // price of the  token * stakingBalance[_token][_user]\n        (uint256 price, uint256 decimals) = getTokenValue(_token);\n        return // 10 ETH\n        // ETH/USD\n        ((stakingBalance[_token][_user] * price) / (10**decimals));\n    }\n\n    function getTokenValue(address _token)\n        public\n        view\n        returns (uint256, uint256)\n    {\n        // priceFeedAddress\n        address priceFeedAddress = tokenPriceFeedMapping[_token];\n        AggregatorV3Interface priceFeed = AggregatorV3Interface(\n            priceFeedAddress\n        );\n        (, int256 price, , , ) = priceFeed.latestRoundData();\n        uint256 decimals = uint256(priceFeed.decimals());\n        return (uint256(price), decimals);\n    }\n\n    function setAPY(uint256 _APY) public onlyOwner {\n        APY = _APY;\n    }\n\n    function calculateStakingRewards(address _user, address _token)\n        public\n        view\n        returns (uint256)\n    {\n        uint256 userTimeStamp = stakingTimeStamp[_user];\n        uint256 currentTime = block.timestamp;\n        uint256 userStakingBalance = stakingBalance[_token][_user];\n\n        uint256 totalRewardsPerYear = (APY * userStakingBalance) / 100;\n        uint256 totalRewardsPerMinute = totalRewardsPerYear / 525600;\n\n        uint256 stakedTimeInMinutes = ((currentTime - userTimeStamp) / 60);\n        uint256 rewards = stakedTimeInMinutes * totalRewardsPerMinute;\n\n        return rewards;\n    }\n\n    function getAvailableStakingRewards(address _sender, address _token)\n        public\n        view\n        returns (uint256)\n    {\n        uint256 totalRewards = (stakingRewards[_sender] +\n            calculateStakingRewards(_sender, _token));\n\n        return totalRewards;\n    }\n\n    function claimStakingRewards(address _token) public {\n        uint256 userTotalRewards = getAvailableStakingRewards(\n            msg.sender,\n            _token\n        );\n        require(userTotalRewards > 0);\n        IERC20(_token).transfer(msg.sender, userTotalRewards);\n        stakingRewards[msg.sender] = 0;\n        stakingTimeStamp[msg.sender] = block.timestamp;\n    }\n\n    function stakeTokens(uint256 _amount, address _token) public {\n        // what tokens can they stake?\n        // how much can they stake?\n        require(_amount > 0, \"Amount must be more than 0\");\n        require(tokenIsAllowed(_token), \"Token is currently not allowed\");\n        // transferFrom\n        IERC20(_token).transferFrom(msg.sender, address(this), _amount);\n        updateUniqueTokensStaked(msg.sender, _token);\n        updateUniqueTokenStakers(msg.sender, _token);\n        totalTokensStaked = totalTokensStaked + _amount;\n\n        stakingRewards[msg.sender] = getAvailableStakingRewards(\n            msg.sender,\n            _token\n        );\n\n        stakingTimeStamp[msg.sender] = block.timestamp;\n        stakingTimeToWithdraw[msg.sender] = block.timestamp;\n\n        stakingBalance[_token][msg.sender] =\n            stakingBalance[_token][msg.sender] +\n            _amount;\n\n        // stakingRewards[msg.sender] = (stakingRewards[msg.sender] +\n        //     calculateStakingRewards(msg.sender, _token));\n\n        if (uniqueTokensStaked[msg.sender] == 1) {\n            stakers.push(msg.sender);\n        }\n    }\n\n    function withdrawAmountPeopleLeftInWithdrawFees(address _token)\n        public\n        onlyOwner\n    {\n        IERC20(_token).transfer(msg.sender, amountPeopleLeftInWithdrawFees);\n        amountPeopleLeftInWithdrawFees = 0;\n    }\n\n    function unstakeTokens(uint256 _amount, address _token) public {\n        uint256 balance = stakingBalance[_token][msg.sender];\n        require(_amount > 0, \"Amount must be more than 0\");\n        require(balance >= _amount, \"You don't have enough staked tokens\");\n        require(tokenIsAllowed(_token), \"Token is currently not allowed\");\n\n        uint256 timeNow = block.timestamp;\n        if (timeNow < (stakingTimeToWithdraw[msg.sender] + 4838400)) {\n            if (timeNow < (stakingTimeToWithdraw[msg.sender] + 3628800)) {\n                if (timeNow < (stakingTimeToWithdraw[msg.sender] + 2419200)) {\n                    if (\n                        timeNow < (stakingTimeToWithdraw[msg.sender] + 1209600)\n                    ) {\n                        uint256 withdrawAmount = ((75 * _amount) / 100);\n                        IERC20(_token).transfer(msg.sender, withdrawAmount);\n\n                        amountPeopleLeftInWithdrawFees =\n                            amountPeopleLeftInWithdrawFees +\n                            (_amount - withdrawAmount);\n                    } else {\n                        uint256 withdrawAmount = ((85 * _amount) / 100);\n                        IERC20(_token).transfer(msg.sender, withdrawAmount);\n\n                        amountPeopleLeftInWithdrawFees =\n                            amountPeopleLeftInWithdrawFees +\n                            (_amount - withdrawAmount);\n                    }\n                } else {\n                    uint256 withdrawAmount = ((90 * _amount) / 100);\n                    IERC20(_token).transfer(msg.sender, withdrawAmount);\n\n                    amountPeopleLeftInWithdrawFees =\n                        amountPeopleLeftInWithdrawFees +\n                        (_amount - withdrawAmount);\n                }\n            } else {\n                uint256 withdrawAmount = ((95 * _amount) / 100);\n                IERC20(_token).transfer(msg.sender, withdrawAmount);\n\n                amountPeopleLeftInWithdrawFees =\n                    amountPeopleLeftInWithdrawFees +\n                    (_amount - withdrawAmount);\n            }\n        } else {\n            IERC20(_token).transfer(msg.sender, _amount);\n        }\n\n        stakingRewards[msg.sender] = getAvailableStakingRewards(\n            msg.sender,\n            _token\n        );\n\n        stakingTimeStamp[msg.sender] = block.timestamp;\n\n        stakingBalance[_token][msg.sender] = balance - _amount;\n\n        totalTokensStaked = totalTokensStaked - _amount;\n        if (stakingBalance[_token][msg.sender] <= 0) {\n            uniqueTokenStakers = uniqueTokenStakers - 1;\n            uniqueTokensStaked[msg.sender] = uniqueTokensStaked[msg.sender] - 1;\n        }\n        // if (uniqueTokensStaked[msg.sender] == 0) {\n        //     for (\n        //         uint256 stakersIndex = 0;\n        //         stakersIndex < stakers.length;\n        //         stakersIndex++\n        //     ) {\n        //         address recipient = stakers[stakersIndex];\n        //         if (msg.sender == recipient) {\n        //             // stakers.splice(stakersIndex, 1); this part is not working\n        //         }\n        //     }\n        // }\n    }\n\n    function unstakeAllTokens(address _token) public {\n        uint256 balance = stakingBalance[_token][msg.sender];\n        require(balance > 0, \"Staking balance cannot be 0\");\n        require(tokenIsAllowed(_token), \"Token is currently not allowed\");\n\n        // IERC20(_token).transfer(msg.sender, balance);\n\n        uint256 timeNow = block.timestamp;\n        if (timeNow < (stakingTimeToWithdraw[msg.sender] + 4838400)) {\n            if (timeNow < (stakingTimeToWithdraw[msg.sender] + 3628800)) {\n                if (timeNow < (stakingTimeToWithdraw[msg.sender] + 2419200)) {\n                    if (\n                        timeNow < (stakingTimeToWithdraw[msg.sender] + 1209600)\n                    ) {\n                        uint256 withdrawAmount = ((75 * balance) / 100);\n                        IERC20(_token).transfer(msg.sender, withdrawAmount);\n\n                        amountPeopleLeftInWithdrawFees =\n                            amountPeopleLeftInWithdrawFees +\n                            (balance - withdrawAmount);\n                    } else {\n                        uint256 withdrawAmount = ((85 * balance) / 100);\n                        IERC20(_token).transfer(msg.sender, withdrawAmount);\n\n                        amountPeopleLeftInWithdrawFees =\n                            amountPeopleLeftInWithdrawFees +\n                            (balance - withdrawAmount);\n                    }\n                } else {\n                    uint256 withdrawAmount = ((90 * balance) / 100);\n                    IERC20(_token).transfer(msg.sender, withdrawAmount);\n\n                    amountPeopleLeftInWithdrawFees =\n                        amountPeopleLeftInWithdrawFees +\n                        (balance - withdrawAmount);\n                }\n            } else {\n                uint256 withdrawAmount = ((95 * balance) / 100);\n                IERC20(_token).transfer(msg.sender, withdrawAmount);\n\n                amountPeopleLeftInWithdrawFees =\n                    amountPeopleLeftInWithdrawFees +\n                    (balance - withdrawAmount);\n            }\n        } else {\n            IERC20(_token).transfer(msg.sender, balance);\n        }\n        stakingRewards[msg.sender] = getAvailableStakingRewards(\n            msg.sender,\n            _token\n        );\n\n        stakingTimeStamp[msg.sender] = block.timestamp;\n\n        totalTokensStaked = totalTokensStaked - balance;\n        stakingBalance[_token][msg.sender] = 0;\n        uniqueTokensStaked[msg.sender] = uniqueTokensStaked[msg.sender] - 1;\n        uniqueTokenStakers = uniqueTokenStakers - 1;\n    }\n\n    function updateUniqueTokensStaked(address _user, address _token) internal {\n        if (stakingBalance[_token][_user] <= 0) {\n            uniqueTokensStaked[_user] = uniqueTokensStaked[_user] + 1;\n        }\n    }\n\n    function updateUniqueTokenStakers(address _user, address _token) internal {\n        if (stakingBalance[_token][_user] <= 0) {\n            uniqueTokenStakers = uniqueTokenStakers + 1;\n        }\n    }\n\n    function addAllowedTokens(address _token) public onlyOwner {\n        allowedTokens.push(_token);\n    }\n\n    function tokenIsAllowed(address _token) public returns (bool) {\n        for (\n            uint256 allowedTokensIndex = 0;\n            allowedTokensIndex < allowedTokens.length;\n            allowedTokensIndex++\n        ) {\n            if (allowedTokens[allowedTokensIndex] == _token) {\n                return true;\n            }\n        }\n        return false;\n    }\n}\n","sourcePath":"contracts/TokenFarm.sol","type":"contract","deployment":{"address":"0x17753B6d33538266c1b23dF07Aee6c8A1DcC1Dd4","chainid":"42","blockHeight":30680214}}