{"abi":[{"inputs":[{"internalType":"address","name":"_dappTokenAddress","type":"address"},{"internalType":"address","name":"_priceFeed","type":"address"}],"stateMutability":"nonpayable","type":"constructor","name":"constructor"},{"anonymous":false,"inputs":[{"indexed":true,"internalType":"address","name":"previousOwner","type":"address"},{"indexed":true,"internalType":"address","name":"newOwner","type":"address"}],"name":"OwnershipTransferred","type":"event"},{"inputs":[],"name":"APY","outputs":[{"internalType":"uint256","name":"","type":"uint256"}],"stateMutability":"view","type":"function"},{"inputs":[{"internalType":"uint256","name":"","type":"uint256"}],"name":"TIMESeachPreSale","outputs":[{"internalType":"uint256","name":"","type":"uint256"}],"stateMutability":"view","type":"function"},{"inputs":[{"internalType":"address","name":"_token","type":"address"}],"name":"addAllowedTokens","outputs":[],"stateMutability":"nonpayable","type":"function"},{"inputs":[{"internalType":"address","name":"_token","type":"address"}],"name":"addPreSaleAllowedTokens","outputs":[],"stateMutability":"nonpayable","type":"function"},{"inputs":[{"internalType":"address","name":"","type":"address"}],"name":"addressToAmountFunded","outputs":[{"internalType":"uint256","name":"","type":"uint256"}],"stateMutability":"view","type":"function"},{"inputs":[{"internalType":"uint256","name":"","type":"uint256"}],"name":"allowedTokens","outputs":[{"internalType":"address","name":"","type":"address"}],"stateMutability":"view","type":"function"},{"inputs":[],"name":"amountPeopleLeftInWithdrawFees","outputs":[{"internalType":"uint256","name":"","type":"uint256"}],"stateMutability":"view","type":"function"},{"inputs":[{"internalType":"address","name":"_user","type":"address"},{"internalType":"address","name":"_token","type":"address"}],"name":"calculateStakingRewards","outputs":[{"internalType":"uint256","name":"","type":"uint256"}],"stateMutability":"view","type":"function"},{"inputs":[{"internalType":"uint256","name":"_number","type":"uint256"}],"name":"changeBaseNumberStakingLevel","outputs":[],"stateMutability":"nonpayable","type":"function"},{"inputs":[{"internalType":"uint256","name":"_level","type":"uint256"},{"internalType":"uint256","name":"_weight","type":"uint256"}],"name":"changeStakingLevelToWeight","outputs":[],"stateMutability":"nonpayable","type":"function"},{"inputs":[],"name":"claimAllPreSaletokens","outputs":[],"stateMutability":"nonpayable","type":"function"},{"inputs":[{"internalType":"uint256","name":"_preSaleNumber","type":"uint256"}],"name":"claimAllTokensEachPreSale","outputs":[],"stateMutability":"nonpayable","type":"function"},{"inputs":[{"internalType":"uint256","name":"_amount","type":"uint256"}],"name":"claimPreSaleTokens","outputs":[],"stateMutability":"nonpayable","type":"function"},{"inputs":[{"internalType":"address","name":"_token","type":"address"}],"name":"claimStakingRewards","outputs":[],"stateMutability":"nonpayable","type":"function"},{"inputs":[{"internalType":"uint256","name":"_preSaleNumber","type":"uint256"},{"internalType":"uint256","name":"_amount","type":"uint256"}],"name":"claimTokensEachPreSale","outputs":[],"stateMutability":"nonpayable","type":"function"},{"inputs":[{"internalType":"uint256","name":"","type":"uint256"}],"name":"claimTokensEachPreSaleStatus","outputs":[{"internalType":"bool","name":"","type":"bool"}],"stateMutability":"view","type":"function"},{"inputs":[{"internalType":"address","name":"","type":"address"}],"name":"collectedPreSaleFunds","outputs":[{"internalType":"uint256","name":"","type":"uint256"}],"stateMutability":"view","type":"function"},{"inputs":[{"internalType":"uint256","name":"","type":"uint256"},{"internalType":"address","name":"","type":"address"}],"name":"collectedPreSaleFundsEachPreSale","outputs":[{"internalType":"uint256","name":"","type":"uint256"}],"stateMutability":"view","type":"function"},{"inputs":[],"name":"dappToken","outputs":[{"internalType":"contract IERC20","name":"","type":"address"}],"stateMutability":"view","type":"function"},{"inputs":[{"internalType":"uint256","name":"","type":"uint256"}],"name":"funders","outputs":[{"internalType":"address","name":"","type":"address"}],"stateMutability":"view","type":"function"},{"inputs":[{"internalType":"address","name":"_sender","type":"address"},{"internalType":"address","name":"_token","type":"address"},{"internalType":"uint256","name":"_preSaleNumber","type":"uint256"}],"name":"getAllocatedPreSaleAmount","outputs":[{"internalType":"uint256","name":"","type":"uint256"}],"stateMutability":"view","type":"function"},{"inputs":[{"internalType":"address","name":"_token","type":"address"},{"internalType":"address","name":"_sender","type":"address"}],"name":"getAvailablePreSaleTokensToWithdraw","outputs":[{"internalType":"uint256","name":"","type":"uint256"}],"stateMutability":"view","type":"function"},{"inputs":[{"internalType":"address","name":"_token","type":"address"},{"internalType":"address","name":"_sender","type":"address"},{"internalType":"uint256","name":"_preSaleNumber","type":"uint256"}],"name":"getAvailablePreSaleTokensToWithdrawEachPreSale","outputs":[{"internalType":"uint256","name":"","type":"uint256"}],"stateMutability":"view","type":"function"},{"inputs":[{"internalType":"address","name":"_sender","type":"address"},{"internalType":"address","name":"_token","type":"address"}],"name":"getAvailableStakingRewards","outputs":[{"internalType":"uint256","name":"","type":"uint256"}],"stateMutability":"view","type":"function"},{"inputs":[{"internalType":"uint256","name":"ethAmount","type":"uint256"}],"name":"getConversionRate","outputs":[{"internalType":"uint256","name":"","type":"uint256"}],"stateMutability":"view","type":"function"},{"inputs":[],"name":"getEntranceFee","outputs":[{"internalType":"uint256","name":"","type":"uint256"}],"stateMutability":"view","type":"function"},{"inputs":[{"internalType":"address","name":"_sender","type":"address"},{"internalType":"address","name":"_token","type":"address"},{"internalType":"uint256","name":"_preSaleNumber","type":"uint256"}],"name":"getHowMuchMoreUserCanPurchaseEachPreSale","outputs":[{"internalType":"uint256","name":"","type":"uint256"}],"stateMutability":"view","type":"function"},{"inputs":[],"name":"getPrice","outputs":[{"internalType":"uint256","name":"","type":"uint256"}],"stateMutability":"view","type":"function"},{"inputs":[{"internalType":"address","name":"_token","type":"address"}],"name":"getSingleTokenAllPreSaleBalance","outputs":[{"internalType":"uint256","name":"","type":"uint256"}],"stateMutability":"nonpayable","type":"function"},{"inputs":[{"internalType":"address","name":"_sender","type":"address"},{"internalType":"address","name":"_token","type":"address"}],"name":"getStakingLevel","outputs":[{"internalType":"uint256","name":"","type":"uint256"}],"stateMutability":"view","type":"function"},{"inputs":[{"internalType":"address","name":"_token","type":"address"}],"name":"getTokenValue","outputs":[{"internalType":"uint256","name":"","type":"uint256"},{"internalType":"uint256","name":"","type":"uint256"}],"stateMutability":"view","type":"function"},{"inputs":[{"internalType":"address","name":"_user","type":"address"},{"internalType":"address","name":"_token","type":"address"}],"name":"getUserSingleTokenValue","outputs":[{"internalType":"uint256","name":"","type":"uint256"}],"stateMutability":"view","type":"function"},{"inputs":[{"internalType":"address","name":"_user","type":"address"}],"name":"getUserTotalValue","outputs":[{"internalType":"uint256","name":"","type":"uint256"}],"stateMutability":"view","type":"function"},{"inputs":[],"name":"getVersion","outputs":[{"internalType":"uint256","name":"","type":"uint256"}],"stateMutability":"view","type":"function"},{"inputs":[{"internalType":"uint256","name":"_percentageAmount","type":"uint256"}],"name":"issuePreSaleTokensToWithdrawPercentage","outputs":[],"stateMutability":"nonpayable","type":"function"},{"inputs":[],"name":"issueTokens","outputs":[],"stateMutability":"nonpayable","type":"function"},{"inputs":[{"internalType":"address","name":"_token","type":"address"},{"internalType":"uint256","name":"_amount","type":"uint256"}],"name":"manageDepositOwnerFunds","outputs":[],"stateMutability":"nonpayable","type":"function"},{"inputs":[{"internalType":"address","name":"_token","type":"address"},{"internalType":"uint256","name":"_amount","type":"uint256"}],"name":"manageWithdrawOwnerFunds","outputs":[],"stateMutability":"nonpayable","type":"function"},{"inputs":[{"internalType":"uint256","name":"_preSaleNumber","type":"uint256"},{"internalType":"uint256","name":"_percentageAmount","type":"uint256"}],"name":"manuallySetPercentageWithdrawAllowedEachPreSale","outputs":[],"stateMutability":"nonpayable","type":"function"},{"inputs":[],"name":"owner","outputs":[{"internalType":"address","name":"","type":"address"}],"stateMutability":"view","type":"function"},{"inputs":[{"internalType":"uint256","name":"_preSaleNumber","type":"uint256"},{"internalType":"address","name":"_token","type":"address"}],"name":"participateInPreSaleAllocation","outputs":[],"stateMutability":"nonpayable","type":"function"},{"inputs":[{"internalType":"uint256","name":"","type":"uint256"}],"name":"participateInPreSaleAllocationStatus","outputs":[{"internalType":"bool","name":"","type":"bool"}],"stateMutability":"view","type":"function"},{"inputs":[],"name":"percentageWithdrawAllowed","outputs":[{"internalType":"uint256","name":"","type":"uint256"}],"stateMutability":"view","type":"function"},{"inputs":[{"internalType":"uint256","name":"","type":"uint256"}],"name":"preSaleAllocationStatus","outputs":[{"internalType":"bool","name":"","type":"bool"}],"stateMutability":"view","type":"function"},{"inputs":[{"internalType":"uint256","name":"","type":"uint256"}],"name":"preSaleAllowedTokens","outputs":[{"internalType":"address","name":"","type":"address"}],"stateMutability":"view","type":"function"},{"inputs":[{"internalType":"uint256","name":"_amount","type":"uint256"},{"internalType":"address","name":"_token","type":"address"}],"name":"preSaleFund","outputs":[],"stateMutability":"nonpayable","type":"function"},{"inputs":[{"internalType":"uint256","name":"_amount","type":"uint256"},{"internalType":"address","name":"_token","type":"address"},{"internalType":"address","name":"_busdToken","type":"address"},{"internalType":"uint256","name":"_preSaleNumber","type":"uint256"}],"name":"preSaleFundEachPreSaleNumber","outputs":[],"stateMutability":"nonpayable","type":"function"},{"inputs":[{"internalType":"uint256","name":"","type":"uint256"}],"name":"preSaleFundEachPreSaleNumberStatus","outputs":[{"internalType":"bool","name":"","type":"bool"}],"stateMutability":"view","type":"function"},{"inputs":[{"internalType":"uint256","name":"","type":"uint256"}],"name":"preSaleFunders","outputs":[{"internalType":"address","name":"","type":"address"}],"stateMutability":"view","type":"function"},{"inputs":[{"internalType":"uint256","name":"","type":"uint256"},{"internalType":"uint256","name":"","type":"uint256"}],"name":"preSaleFundersEachPreSale","outputs":[{"internalType":"address","name":"","type":"address"}],"stateMutability":"view","type":"function"},{"inputs":[{"internalType":"address","name":"","type":"address"}],"name":"preSaleParticipantsStatus","outputs":[{"internalType":"bool","name":"","type":"bool"}],"stateMutability":"view","type":"function"},{"inputs":[],"name":"preSaleTokenAddress","outputs":[{"internalType":"contract IERC20","name":"","type":"address"}],"stateMutability":"view","type":"function"},{"inputs":[{"internalType":"address","name":"_token","type":"address"}],"name":"preSaleTokenIsAllowed","outputs":[{"internalType":"bool","name":"","type":"bool"}],"stateMutability":"nonpayable","type":"function"},{"inputs":[],"name":"priceFeedA","outputs":[{"internalType":"contract AggregatorV3Interface","name":"","type":"address"}],"stateMutability":"view","type":"function"},{"inputs":[{"internalType":"address","name":"","type":"address"},{"internalType":"address","name":"","type":"address"}],"name":"purchasedBalance","outputs":[{"internalType":"uint256","name":"","type":"uint256"}],"stateMutability":"view","type":"function"},{"inputs":[{"internalType":"uint256","name":"","type":"uint256"},{"internalType":"address","name":"","type":"address"}],"name":"purchasedBalanceEachPreSale","outputs":[{"internalType":"uint256","name":"","type":"uint256"}],"stateMutability":"view","type":"function"},{"inputs":[],"name":"renounceOwnership","outputs":[],"stateMutability":"nonpayable","type":"function"},{"inputs":[{"internalType":"uint256","name":"_APY","type":"uint256"}],"name":"setAPY","outputs":[],"stateMutability":"nonpayable","type":"function"},{"inputs":[{"internalType":"uint256","name":"_preSaleNumber","type":"uint256"},{"internalType":"bool","name":"_status","type":"bool"}],"name":"setClaimTokensEachPreSaleStatus","outputs":[],"stateMutability":"nonpayable","type":"function"},{"inputs":[{"internalType":"uint256","name":"_number","type":"uint256"},{"internalType":"bool","name":"_status","type":"bool"}],"name":"setParticipateInPreSaleAllocationStatus","outputs":[],"stateMutability":"nonpayable","type":"function"},{"inputs":[{"internalType":"uint256","name":"_preSaleNumber","type":"uint256"},{"internalType":"uint256","name":"_percentageAmount","type":"uint256"}],"name":"setPercentageWithdrawAllowedEachPreSale","outputs":[],"stateMutability":"nonpayable","type":"function"},{"inputs":[{"internalType":"uint256","name":"_number","type":"uint256"},{"internalType":"bool","name":"_status","type":"bool"}],"name":"setPreSaleAllocationStatus","outputs":[],"stateMutability":"nonpayable","type":"function"},{"inputs":[{"internalType":"uint256","name":"_preSaleNumber","type":"uint256"},{"internalType":"bool","name":"_status","type":"bool"}],"name":"setPreSaleFundEachPreSaleNumberStatus","outputs":[],"stateMutability":"nonpayable","type":"function"},{"inputs":[{"internalType":"address","name":"_token","type":"address"},{"internalType":"address","name":"_priceFeed","type":"address"}],"name":"setPriceFeedContract","outputs":[],"stateMutability":"nonpayable","type":"function"},{"inputs":[{"internalType":"uint256","name":"_preSaleNumber","type":"uint256"},{"internalType":"uint256","name":"_amount","type":"uint256"}],"name":"setTotalAmountToCollectForThisPreSale","outputs":[],"stateMutability":"nonpayable","type":"function"},{"inputs":[],"name":"singleTokenAllPreSaleBalance","outputs":[{"internalType":"uint256","name":"","type":"uint256"}],"stateMutability":"view","type":"function"},{"inputs":[{"internalType":"uint256","name":"_amount","type":"uint256"},{"internalType":"address","name":"_token","type":"address"}],"name":"stakeTokens","outputs":[],"stateMutability":"nonpayable","type":"function"},{"inputs":[{"internalType":"uint256","name":"","type":"uint256"}],"name":"stakers","outputs":[{"internalType":"address","name":"","type":"address"}],"stateMutability":"view","type":"function"},{"inputs":[{"internalType":"address","name":"","type":"address"},{"internalType":"address","name":"","type":"address"}],"name":"stakingBalance","outputs":[{"internalType":"uint256","name":"","type":"uint256"}],"stateMutability":"view","type":"function"},{"inputs":[{"internalType":"uint256","name":"","type":"uint256"}],"name":"stakingLevelToWeight","outputs":[{"internalType":"uint256","name":"","type":"uint256"}],"stateMutability":"view","type":"function"},{"inputs":[{"internalType":"uint256","name":"","type":"uint256"}],"name":"stakingLevelUserCounter","outputs":[{"internalType":"uint256","name":"","type":"uint256"}],"stateMutability":"view","type":"function"},{"inputs":[{"internalType":"address","name":"","type":"address"}],"name":"stakingTimeToWithdraw","outputs":[{"internalType":"uint256","name":"","type":"uint256"}],"stateMutability":"view","type":"function"},{"inputs":[{"internalType":"address","name":"_token","type":"address"}],"name":"tokenIsAllowed","outputs":[{"internalType":"bool","name":"","type":"bool"}],"stateMutability":"nonpayable","type":"function"},{"inputs":[{"internalType":"address","name":"","type":"address"}],"name":"tokenPriceFeedMapping","outputs":[{"internalType":"address","name":"","type":"address"}],"stateMutability":"view","type":"function"},{"inputs":[{"internalType":"uint256","name":"","type":"uint256"}],"name":"totalAmountToCollectForThisPreSale","outputs":[{"internalType":"uint256","name":"","type":"uint256"}],"stateMutability":"view","type":"function"},{"inputs":[{"internalType":"address","name":"","type":"address"}],"name":"totalCollectionOfPreSaleFunds","outputs":[{"internalType":"uint256","name":"","type":"uint256"}],"stateMutability":"view","type":"function"},{"inputs":[],"name":"totalCollectionOfPreSaleFundsAllTokens","outputs":[{"internalType":"uint256","name":"","type":"uint256"}],"stateMutability":"view","type":"function"},{"inputs":[{"internalType":"uint256","name":"","type":"uint256"},{"internalType":"address","name":"","type":"address"}],"name":"totalCollectionOfPreSaleFundsEachPreSale","outputs":[{"internalType":"uint256","name":"","type":"uint256"}],"stateMutability":"view","type":"function"},{"inputs":[{"internalType":"address","name":"","type":"address"}],"name":"totalPurchasedPreSaleTokens","outputs":[{"internalType":"uint256","name":"","type":"uint256"}],"stateMutability":"view","type":"function"},{"inputs":[{"internalType":"uint256","name":"","type":"uint256"},{"internalType":"address","name":"","type":"address"}],"name":"totalPurchasedPreSaleTokensEachPreSale","outputs":[{"internalType":"uint256","name":"","type":"uint256"}],"stateMutability":"view","type":"function"},{"inputs":[],"name":"totalTokensStaked","outputs":[{"internalType":"uint256","name":"","type":"uint256"}],"stateMutability":"view","type":"function"},{"inputs":[{"internalType":"address","name":"","type":"address"}],"name":"totalWithdrawnPreSaleTokens","outputs":[{"internalType":"uint256","name":"","type":"uint256"}],"stateMutability":"view","type":"function"},{"inputs":[{"internalType":"address","name":"newOwner","type":"address"}],"name":"transferOwnership","outputs":[],"stateMutability":"nonpayable","type":"function"},{"inputs":[{"internalType":"address","name":"","type":"address"}],"name":"uniquePreSaleTokensPurchased","outputs":[{"internalType":"uint256","name":"","type":"uint256"}],"stateMutability":"view","type":"function"},{"inputs":[{"internalType":"address","name":"","type":"address"}],"name":"uniquePreSaleTokensStaked","outputs":[{"internalType":"uint256","name":"","type":"uint256"}],"stateMutability":"view","type":"function"},{"inputs":[],"name":"uniqueTokenStakers","outputs":[{"internalType":"uint256","name":"","type":"uint256"}],"stateMutability":"view","type":"function"},{"inputs":[{"internalType":"address","name":"","type":"address"}],"name":"uniqueTokensStaked","outputs":[{"internalType":"uint256","name":"","type":"uint256"}],"stateMutability":"view","type":"function"},{"inputs":[{"internalType":"address","name":"_token","type":"address"}],"name":"unstakeAllTokens","outputs":[],"stateMutability":"nonpayable","type":"function"},{"inputs":[{"internalType":"uint256","name":"_amount","type":"uint256"},{"internalType":"address","name":"_token","type":"address"}],"name":"unstakeTokens","outputs":[],"stateMutability":"nonpayable","type":"function"},{"inputs":[{"internalType":"address","name":"_preSaleTokenAddress","type":"address"}],"name":"updatePreSaleTokenAddress","outputs":[],"stateMutability":"nonpayable","type":"function"},{"inputs":[{"internalType":"uint256","name":"_preSaleNumber","type":"uint256"},{"internalType":"address","name":"_preSaleTokenAddress","type":"address"}],"name":"updatePreSaleTokenAddressEachPreSale","outputs":[],"stateMutability":"nonpayable","type":"function"},{"inputs":[{"internalType":"uint256","name":"_times","type":"uint256"}],"name":"updateTimes","outputs":[],"stateMutability":"nonpayable","type":"function"},{"inputs":[{"internalType":"uint256","name":"_preSaleNumber","type":"uint256"},{"internalType":"uint256","name":"_times","type":"uint256"}],"name":"updateTimesEachPreSale","outputs":[],"stateMutability":"nonpayable","type":"function"},{"inputs":[{"internalType":"address","name":"","type":"address"}],"name":"whenParticipatedThatLevel","outputs":[{"internalType":"uint256","name":"","type":"uint256"}],"stateMutability":"view","type":"function"},{"inputs":[{"internalType":"address","name":"_token","type":"address"}],"name":"withdrawAmountPeopleLeftInWithdrawFees","outputs":[],"stateMutability":"nonpayable","type":"function"},{"inputs":[{"internalType":"uint256","name":"_preSaleNumber","type":"uint256"},{"internalType":"address","name":"_busdToken","type":"address"}],"name":"withdrawPreSaleCollectedFund","outputs":[],"stateMutability":"nonpayable","type":"function"},{"inputs":[{"internalType":"address","name":"_token","type":"address"}],"name":"withdrawPreSaleCollectedFund","outputs":[],"stateMutability":"nonpayable","type":"function"}],"bytecode":"6080604052600a6001556105dc6020553480156200001c57600080fd5b5060405162004d8838038062004d888339810160408190526200003f916200050b565b6200004a336200049e565b600e80546001600160a01b039384166001600160a01b031991821617909155601b8054929093169116179055601e602081905260007f65ce8396b736f5da9d881cc6fbcb11ef9721292dc41ec8c40879fd9edea5744d81905560017f873299c6a6c39b8b92f01922bb622df4a3236ea2876aac2da76f6c092cf7e98f5560027f8a1ea6ccfdf9f988bdc16303c81231f9b192785454b34880c28e5c30362354c55560037f4bbb14a9b8bdd7baf7e45936eef68b1d3b69ec665e4d3d9f22d086627a2b08805560047f2eca6469c5988648711d819e241e59ec9e94a879e5d491ce337260f9e75414125560057f86d72ecda2f02015d839a182675ed983893a479e8f4279fb5498fd7244fa5dfe5560067f3b995de482df97a2c9d456eaddef4a2d8e37e8b7ceaa84df3200ae34890448f35560077f07e07990268d552e861c3b3b30762ae1d401e128d88dcdc061f5fba57e7ac9f85560087f8dd77d38164a78ad615ed6f87db5c81e75803d1677bf75ecfbbe3c73b83871415560097f2fcdb860d99ada637bba31889280ce2d4217586b5da61641dd5742bcbb7aa46a55600a7f4150be2f2e4ca26ea4353f7f6543634639cb7af12002f06e7614303d57e128f955600f7fe065eaad7f40a2cd4bc1efc6f4344c19df9fe636b15760bd5961fc0e3be3cc285560147fc2cdcac6815e8dba5c073d2c4a622d2de1453a902e3ebd096b6c8686d03a6e515560197f4dfc35b27a2a15eb38750f68a286ed8b8346956ebe7227ceb2dd7dd5c373ac26557fb967cce98cabd8d1f7aeda98d36c0158d6775cfe7c62f16953241eb7720ce15b9190915560237f32abc6767b4a526ba081342d89c77eb5e415f12f68af45f1f8433a1280ad46885560287fdbd8d1ccee8c6d7be969746c1fe539d14d7943a9f704f7aeaac79295156a980055602d7f218a762fb5580fc51401a5fc690f183f97f4e4b89e9cfcd822ba18577f9210fc5560327f1a1586bd60010e5250bec70a13f10b57a516d531e2e13f8e06bc6444e08990d555603c7f17f6e9bae84339b87dec02358cd3c31ef1652c5c381cc3e5ccf667ac2322cd235560467f57f7e17d109c663c1b21f4419ef762bc64baea1b8a757f23e8ca6984e62d52d25560507ffce0de9d50a3d1acf6fc25d06cc116ec2bfb69af108c962cc29b045e83164d0d55605a7f1a4cc25510354c589bd7946b3dc2275b971564533a277044a7363966a283b0dc5560647fa4ec8c329519c7dcf531f6496ed5d60fa1ccb9710ce24cab0ef13e1ee263334f55606e7f5f90b9a2fb0d3c15f43274ee5caf6dd9bd9f976b15cf11617fde6e8e8fe15c9b5560787f45768a1322d624d68f3a4861f29d212d4f45fa493b346276b7199d716f4cb86f5560827fe958f81d8b8dd448a0753719ffaa76d7252ff37e1c61af328234250c9c7863ae55608c7fa735894fb4ad4eed679d05ff9f9934abb52e44e0cb86a50d1e8ff15c308aba0e55601c905260967ff1de1e01c421a3570903cc3ce14bc5911c7c246bd5b6523c814df713c8f04b9b5562000543565b600080546001600160a01b038381166001600160a01b0319831681178455604051919092169283917f8be0079c531659141344cd1fd0a4f28419497f9722a3daafe3b4186f6b6457e09190a35050565b80516001600160a01b03811681146200050657600080fd5b919050565b600080604083850312156200051f57600080fd5b6200052a83620004ee565b91506200053a60208401620004ee565b90509250929050565b61483580620005536000396000f3fe608060405234801561001057600080fd5b506004361061054b5760003560e01c8063850fb311116102ca578063c98a6c491161018d578063ee110701116100f4578063f5d9f006116100ad578063fb4854aa11610087578063fb4854aa14610d8e578063fd5e6dd114610db1578063fe0a9e0014610dc4578063fe83383114610dd757600080fd5b8063f5d9f00614610d55578063fa95cf8214610d68578063fb27b0ed14610d7b57600080fd5b8063ee11070114610ccb578063ef8bd30514610ceb578063f08aae8114610cf4578063f1c5d6c214610d07578063f23e542314610d2f578063f2fde38b14610d4257600080fd5b8063dc0d3dff11610146578063dc0d3dff14610c34578063dd5b846714610c47578063e245339614610c5a578063e354e1c214610c7a578063e4c7842214610ca5578063eace7e2314610cb857600080fd5b8063c98a6c4914610bb4578063ca97fc2914610bc7578063ccd35bb214610bd0578063cd32e79214610be3578063dba586f214610bf6578063dbd9400914610c0957600080fd5b8063a4abf26111610231578063b379bc6a116101ea578063b379bc6a14610b32578063b57eff1014610b52578063b83e023414610b65578063bde63a9214610b85578063c071cf8314610b98578063c8846cdb14610ba157600080fd5b8063a4abf26114610aaa578063af3f5e2214610abd578063b0e31b2d14610ad0578063b115070214610ad9578063b195558c14610afc578063b2e8778114610b0f57600080fd5b80638dcb654b116102835780638dcb654b14610a1d57806396bb1fef14610a4857806398d5fdca14610a5b5780639b67f4be14610a635780639f20f62d14610a76578063a307bb0c14610aa157600080fd5b8063850fb31114610983578063877dd39d146109a65780638a757ec2146109b95780638b1d8cfd146109cc5780638b20c4c2146109ec5780638da5cb5b14610a0c57600080fd5b8063409ed87e1161041257806366b98718116103795780637290b3ad116103325780637290b3ad146109115780637737721b1461092457806377a4cfe814610937578063799e93e81461094a57806379f27c9e1461095d57806384d269ad1461097057600080fd5b806366b98718146108705780636b3dd9e2146108835780636e5b6b28146108a35780636f4a2a2f146108b65780636f8da993146108d6578063715018a61461090957600080fd5b80635eb186f8116103cb5780635eb186f8146107fc5780635fbae1c71461080f57806360ab58521461082f578063630b8a8a146108375780636323085c1461084a578063635ab2f71461085d57600080fd5b8063409ed87e1461078a57806341a7a45e1461079d5780635084be37146107b0578063544cd5ec146107c35780635d990250146107d65780635e5f2e26146107e957600080fd5b8063264c44ff116104b65780632fbb9ca61161046f5780632fbb9ca6146106fe578063383cae1d146107115780633d6217a6146107245780633d8c3cdd146107445780633dbee808146107575780633e47d6f31461076a57600080fd5b8063264c44ff1461062c578063276b11da1461064c57806327927b3e1461065f57806327cd08a9146106a057806329161a00146106b35780632b996e68146106de57600080fd5b80630d8e6e2c116105085780630d8e6e2c146105da5780630e53fecb146105e2578063171e44ea146105ea57806319d9caa9146105fd578063218334fe1461060657806324f45e671461061957600080fd5b8063055588851461055057806307c54e081461058e57806308b7d791146105a357806309bc33a7146105ac5780630a9c35dd146105b45780630bea440d146105c7575b600080fd5b61057b61055e366004614249565b602c60209081526000928352604080842090915290825290205481565b6040519081526020015b60405180910390f35b6105a161059c366004614275565b610df7565b005b61057b60175481565b61057b610e3c565b6105a16105c2366004614249565b610e79565b6105a16105d5366004614249565b610f55565b61057b61110a565b6105a161117d565b6105a16105f8366004614297565b6112a0565b61057b60135481565b6105a1610614366004614275565b61131c565b6105a16106273660046142b9565b6114fa565b61057b61063a3660046142b9565b60246020526000908152604090205481565b61057b61065a3660046142d2565b611529565b61068861066d366004614297565b6008602052600090815260409020546001600160a01b031681565b6040516001600160a01b039091168152602001610585565b6106886106ae3660046142b9565b6115b0565b61057b6106c13660046142d2565b600260209081526000928352604080842090915290825290205481565b61057b6106ec3660046142b9565b601e6020526000908152604090205481565b6105a161070c366004614249565b6115da565b601b54610688906001600160a01b031681565b61057b610732366004614297565b60236020526000908152604090205481565b61057b6107523660046142d2565b611632565b6105a1610765366004614297565b6116cf565b61057b610778366004614297565b60186020526000908152604090205481565b6105a16107983660046142b9565b611774565b6105a16107ab36600461430a565b6118ed565b6105a16107be3660046142b9565b611937565b6105a16107d1366004614275565b611966565b6105a16107e4366004614249565b6119a2565b6106886107f73660046142b9565b611c49565b600e54610688906001600160a01b031681565b61057b61081d3660046142b9565b602a6020526000908152604090205481565b6105a1611c59565b6105a1610845366004614297565b611d53565b61057b6108583660046142d2565b611dcf565b6105a161086b36600461433a565b611e29565b6105a161087e366004614297565b611ecb565b61057b610891366004614297565b60166020526000908152604090205481565b61057b6108b13660046142b9565b611f17565b61057b6108c4366004614297565b60126020526000908152604090205481565b6108f96108e43660046142b9565b60276020526000908152604090205460ff1681565b6040519015158152602001610585565b6105a1611f4b565b6105a161091f366004614249565b611f81565b61057b6109323660046142d2565b61203b565b61057b6109453660046142d2565b61206b565b61057b610958366004614364565b6129c6565b6105a161096b366004614297565b612a0f565b6105a161097e366004614249565b612b57565b6108f9610991366004614297565b60226020526000908152604090205460ff1681565b6105a16109b43660046142d2565b612ecd565b6105a16109c73660046142b9565b612f25565b61057b6109da3660046142b9565b60216020526000908152604090205481565b61057b6109fa366004614297565b60146020526000908152604090205481565b6000546001600160a01b0316610688565b61057b610a2b366004614249565b602860209081526000928352604080842090915290825290205481565b6105a1610a56366004614297565b612f54565b61057b613004565b6105a1610a7136600461430a565b61309b565b61057b610a843660046142d2565b601060209081526000928352604080842090915290825290205481565b61057b60065481565b6105a1610ab83660046142b9565b6130e5565b61057b610acb366004614297565b61314e565b61057b600b5481565b6108f9610ae73660046142b9565b60266020526000908152604090205460ff1681565b6108f9610b0a366004614297565b61320c565b6108f9610b1d3660046142b9565b601f6020526000908152604090205460ff1681565b61057b610b40366004614297565b601c6020526000908152604090205481565b6105a1610b6036600461430a565b613276565b61057b610b73366004614297565b60076020526000908152604090205481565b6105a1610b93366004614275565b6132c0565b61057b601d5481565b6105a1610baf366004614275565b6132fc565b6105a1610bc2366004614297565b613338565b61057b600a5481565b6105a1610bde366004614275565b613648565b6105a1610bf136600461433a565b6136a2565b6105a1610c043660046143a0565b6136fa565b61057b610c17366004614249565b602b60209081526000928352604080842090915290825290205481565b610688610c423660046142b9565b613a07565b6108f9610c55366004614297565b613a17565b61057b610c68366004614297565b60056020526000908152604090205481565b61057b610c88366004614249565b602e60209081526000928352604080842090915290825290205481565b61057b610cb3366004614297565b613a78565b61057b610cc6366004614364565b613b18565b61057b610cd9366004614297565b60296020526000908152604090205481565b61057b60015481565b610688610d023660046142b9565b613c0c565b610d1a610d15366004614297565b613c1c565b60408051928352602083019190915201610585565b6105a1610d3d3660046142b9565b613d1d565b6105a1610d50366004614297565b613ea5565b61057b610d63366004614364565b613f3d565b6105a1610d7636600461430a565b613fa2565b600f54610688906001600160a01b031681565b6108f9610d9c3660046142b9565b60256020526000908152604090205460ff1681565b610688610dbf3660046142b9565b613fec565b610688610dd2366004614275565b613ffc565b61057b610de5366004614297565b60116020526000908152604090205481565b6000546001600160a01b03163314610e2a5760405162461bcd60e51b8152600401610e21906143e4565b60405180910390fd5b6000918252601e602052604090912055565b60006802b5e3af16b188000081610e51613004565b9050670de0b6b3a764000081610e67828561442f565b610e71919061444e565b935050505090565b6000546001600160a01b03163314610ea35760405162461bcd60e51b8152600401610e21906143e4565b6000828152602b602090815260408083206001600160a01b03851680855292529182902054915163a9059cbb60e01b815263a9059cbb90610eea9033908590600401614470565b6020604051808303816000875af1158015610f09573d6000803e3d6000fd5b505050506040513d601f19601f82011682018060405250810190610f2d9190614489565b50506000918252602b602090815260408084206001600160a01b039093168452919052812055565b60008211610f755760405162461bcd60e51b8152600401610e21906144a6565b610f7e81613a17565b610f9a5760405162461bcd60e51b8152600401610e21906144dd565b6040516323b872dd60e01b81526001600160a01b038216906323b872dd90610fca90339030908790600401614514565b6020604051808303816000875af1158015610fe9573d6000803e3d6000fd5b505050506040513d601f19601f8201168201806040525081019061100d9190614489565b506110183382614034565b611022338261409f565b81600b546110309190614538565b600b5561103d338261203b565b3360008181526004602090815260408083209490945560038152838220429081905560058252848320556001600160a01b03851682526002815283822092825291909152205461108e908390614538565b6001600160a01b03821660009081526002602090815260408083203384528252808320939093556007905220546001141561110657600c80546001810182556000919091527fdf6966c971051c3d54ec59162606531493a51404a002842f56009d7e5cf4a8c70180546001600160a01b031916331790555b5050565b601b546040805163054fd4d560e41b815290516000926001600160a01b0316916354fd4d509160048083019260209291908290030181865afa158015611154573d6000803e3d6000fd5b505050506040513d601f19601f820116820180604052508101906111789190614550565b905090565b33600090815260146020908152604080832054601690925282205490916111a48284614569565b905060006064846017546111b8919061442f565b6111c2919061444e565b905060006111d08483614569565b9050600085116111df57600080fd5b600081116111ec57600080fd5b8484106111f857600080fd5b600f5460405163a9059cbb60e01b81526001600160a01b039091169063a9059cbb9061122a9033908590600401614470565b6020604051808303816000875af1158015611249573d6000803e3d6000fd5b505050506040513d601f19601f8201168201806040525081019061126d9190614489565b5033600090815260166020526040902054611289908290614538565b336000908152601660205260409020555050505050565b6000546001600160a01b031633146112ca5760405162461bcd60e51b8152600401610e21906143e4565b600d80546001810182556000919091527fd7b6990105719101dabeb77144f2a3385c8033acd3af97e9423a695e81ad1eb50180546001600160a01b0319166001600160a01b0392909216919091179055565b60008281526027602052604090205460ff16151560011461133c57600080fd5b6000828152602e602090815260408083203380855290835281842054868552602f8452828520918552925282205490916113768284614569565b6000868152603060205260408120549192509060649061139790869061442f565b6113a1919061444e565b905060006113af8483614569565b9050600081116113be57600080fd5b808611156113cb57600080fd5b8484106113d757600080fd5b600086116113f75760405162461bcd60e51b8152600401610e21906144a6565b858310156114175760405162461bcd60e51b8152600401610e2190614580565b846114228786614538565b1061142c57600080fd5b6000878152603160205260409081902054905163a9059cbb60e01b81526001600160a01b039091169063a9059cbb9061146b9033908a90600401614470565b6020604051808303816000875af115801561148a573d6000803e3d6000fd5b505050506040513d601f19601f820116820180604052508101906114ae9190614489565b506000878152602f602090815260408083203384529091529020546114d4908790614538565b6000978852602f60209081526040808a20338b5290915290972096909655505050505050565b6000546001600160a01b031633146115245760405162461bcd60e51b8152600401610e21906143e4565b600155565b6001600160a01b03821660009081526007602052604081205461154e575060006115aa565b60008061155a84613c1c565b909250905061156a81600a6146b0565b6001600160a01b038086166000908152600260209081526040808320938a168352929052205461159b90849061442f565b6115a5919061444e565b925050505b92915050565b601a81815481106115c057600080fd5b6000918252602090912001546001600160a01b0316905081565b6000546001600160a01b031633146116045760405162461bcd60e51b8152600401610e21906143e4565b60009182526031602052604090912080546001600160a01b0319166001600160a01b03909216919091179055565b6001600160a01b0380831660008181526003602090815260408083205494861683526002825280832093835292905290812054600154919291429190849060649061167e90849061442f565b611688919061444e565b90506000611699620805208361444e565b90506000603c6116a98787614569565b6116b3919061444e565b905060006116c1838361442f565b9a9950505050505050505050565b6000546001600160a01b031633146116f95760405162461bcd60e51b8152600401610e21906143e4565b60065460405163a9059cbb60e01b81526001600160a01b0383169163a9059cbb91611728913391600401614470565b6020604051808303816000875af1158015611747573d6000803e3d6000fd5b505050506040513d601f19601f8201168201806040525081019061176b9190614489565b50506000600655565b336000908152601460209081526040808320546016909252822054909161179b8284614569565b905060006064846017546117af919061442f565b6117b9919061444e565b905060006117c78483614569565b9050600081116117d657600080fd5b808611156117e357600080fd5b8484106117ef57600080fd5b6000861161180f5760405162461bcd60e51b8152600401610e21906144a6565b8583101561182f5760405162461bcd60e51b8152600401610e2190614580565b8461183a8786614538565b1061184457600080fd5b600f5460405163a9059cbb60e01b81526001600160a01b039091169063a9059cbb906118769033908a90600401614470565b6020604051808303816000875af1158015611895573d6000803e3d6000fd5b505050506040513d601f19601f820116820180604052508101906118b99190614489565b50336000908152601660205260409020546118d5908790614538565b33600090815260166020526040902055505050505050565b6000546001600160a01b031633146119175760405162461bcd60e51b8152600401610e21906143e4565b600091825260256020526040909120805460ff1916911515919091179055565b6000546001600160a01b031633146119615760405162461bcd60e51b8152600401610e21906143e4565b601555565b6000546001600160a01b031633146119905760405162461bcd60e51b8152600401610e21906143e4565b60009182526030602052604090912055565b600082116119c25760405162461bcd60e51b8152600401610e21906144a6565b6119cb8161320c565b6119e75760405162461bcd60e51b8152600401610e21906144dd565b6040516323b872dd60e01b81526001600160a01b038216906323b872dd90611a1790339030908790600401614514565b6020604051808303816000875af1158015611a36573d6000803e3d6000fd5b505050506040513d601f19601f82011682018060405250810190611a5a9190614489565b506040516370a0823160e01b8152306004820152670de0b6b3a7640000906001600160a01b038316906370a0823190602401602060405180830381865afa158015611aa9573d6000803e3d6000fd5b505050506040513d601f19601f82011682018060405250810190611acd9190614550565b611ad7919061444e565b601d55611ae433826140de565b6001600160a01b0381166000908152601060209081526040808320338452909152902054611b13908390614538565b6001600160a01b0382166000908152601060209081526040808320338452909152902055601554611b44908361442f565b33600090815260146020526040902054611b5e9190614538565b336000908152601460209081526040808320939093556001600160a01b0384168252601190522054611b91908390614538565b6001600160a01b038216600090815260116020908152604080832093909355601290522054611bc1908390614538565b6001600160a01b038216600090815260126020526040902055601354611be8908390614538565b601355336000908152601c60205260409020546001141561110657601980546001810182556000919091527f944998273e477b495144fb8794c914197f3ccb46be2900f4698fd0ef743c96950180546001600160a01b031916331790555050565b600d81815481106115c057600080fd5b6000546001600160a01b03163314611c835760405162461bcd60e51b8152600401610e21906143e4565b60005b600c54811015611d50576000600c8281548110611ca557611ca56146bc565b60009182526020822001546001600160a01b03169150611cc48261314e565b600e5460405163a9059cbb60e01b81529192506001600160a01b03169063a9059cbb90611cf79085908590600401614470565b6020604051808303816000875af1158015611d16573d6000803e3d6000fd5b505050506040513d601f19601f82011682018060405250810190611d3a9190614489565b5050508080611d48906146d2565b915050611c86565b50565b6000546001600160a01b03163314611d7d5760405162461bcd60e51b8152600401610e21906143e4565b601a80546001810182556000919091527f057c384a7d1c54f3a1b2e5e67b2617b8224fdfd1ea7234eea573a6ff665ff63e0180546001600160a01b0319166001600160a01b0392909216919091179055565b6001600160a01b03811660009081526014602090815260408083205460169092528220546017548390606490611e0690859061442f565b611e10919061444e565b90506000611e1e8383614569565b979650505050505050565b6000546001600160a01b03163314611e535760405162461bcd60e51b8152600401610e21906143e4565b6040516323b872dd60e01b81526001600160a01b038316906323b872dd90611e8390339030908690600401614514565b6020604051808303816000875af1158015611ea2573d6000803e3d6000fd5b505050506040513d601f19601f82011682018060405250810190611ec69190614489565b505050565b6000546001600160a01b03163314611ef55760405162461bcd60e51b8152600401610e21906143e4565b600f80546001600160a01b0319166001600160a01b0392909216919091179055565b600080611f22613004565b90506000670de0b6b3a7640000611f39858461442f565b611f43919061444e565b949350505050565b6000546001600160a01b03163314611f755760405162461bcd60e51b8152600401610e21906143e4565b611f7f6000614149565b565b6000828152601f602052604090205460ff161515600114611fa157600080fd5b6001600160a01b0381166000908152600260209081526040808320338452909152902054685150ae84a8cdf000001115611fda57600080fd5b6000611fe6338361206b565b11611ff057600080fd5b6000611ffc338361206b565b600081815260216020526040902054909150612019906001614538565b6000828152602160209081526040808320939093553382526023905220555050565b6000806120488484611632565b6001600160a01b038516600090815260046020526040902054611f439190614538565b602054600090819061207e90609661442f565b61209090670de0b6b3a764000061442f565b6001600160a01b03808516600090815260026020908152604080832093891683529290522054106120c55750601c90506115aa565b6020546120d390608c61442f565b6120e590670de0b6b3a764000061442f565b6001600160a01b038085166000908152600260209081526040808320938916835292905220541061211a5750601b90506115aa565b60205461212890608261442f565b61213a90670de0b6b3a764000061442f565b6001600160a01b038085166000908152600260209081526040808320938916835292905220541061216f5750601a90506115aa565b60205461217d90607861442f565b61218f90670de0b6b3a764000061442f565b6001600160a01b03808516600090815260026020908152604080832093891683529290522054106121c45750601990506115aa565b6020546121d290606e61442f565b6121e490670de0b6b3a764000061442f565b6001600160a01b03808516600090815260026020908152604080832093891683529290522054106122195750601890506115aa565b60205461222790606461442f565b61223990670de0b6b3a764000061442f565b6001600160a01b038085166000908152600260209081526040808320938916835292905220541061226e5750601790506115aa565b60205461227c90605a61442f565b61228e90670de0b6b3a764000061442f565b6001600160a01b03808516600090815260026020908152604080832093891683529290522054106122c35750601690506115aa565b6020546122d190605061442f565b6122e390670de0b6b3a764000061442f565b6001600160a01b03808516600090815260026020908152604080832093891683529290522054106123185750601590506115aa565b60205461232690604661442f565b61233890670de0b6b3a764000061442f565b6001600160a01b038085166000908152600260209081526040808320938916835292905220541061236d5750601490506115aa565b60205461237b90603c61442f565b61238d90670de0b6b3a764000061442f565b6001600160a01b03808516600090815260026020908152604080832093891683529290522054106123c25750601390506115aa565b6020546123d090603261442f565b6123e290670de0b6b3a764000061442f565b6001600160a01b03808516600090815260026020908152604080832093891683529290522054106124175750601290506115aa565b60205461242590602d61442f565b61243790670de0b6b3a764000061442f565b6001600160a01b038085166000908152600260209081526040808320938916835292905220541061246c5750601190506115aa565b60205461247a90602861442f565b61248c90670de0b6b3a764000061442f565b6001600160a01b03808516600090815260026020908152604080832093891683529290522054106124c15750601090506115aa565b6020546124cf90602361442f565b6124e190670de0b6b3a764000061442f565b6001600160a01b03808516600090815260026020908152604080832093891683529290522054106125165750600f90506115aa565b60205461252490601e61442f565b61253690670de0b6b3a764000061442f565b6001600160a01b038085166000908152600260209081526040808320938916835292905220541061256b5750600e90506115aa565b60205461257990601961442f565b61258b90670de0b6b3a764000061442f565b6001600160a01b03808516600090815260026020908152604080832093891683529290522054106125c05750600d90506115aa565b6020546125ce90601461442f565b6125e090670de0b6b3a764000061442f565b6001600160a01b03808516600090815260026020908152604080832093891683529290522054106126155750600c90506115aa565b60205461262390600f61442f565b61263590670de0b6b3a764000061442f565b6001600160a01b038085166000908152600260209081526040808320938916835292905220541061266a5750600b90506115aa565b60205461267890600a61442f565b61268a90670de0b6b3a764000061442f565b6001600160a01b03808516600090815260026020908152604080832093891683529290522054106126bf5750600a90506115aa565b6020546126cd90600961442f565b6126df90670de0b6b3a764000061442f565b6001600160a01b03808516600090815260026020908152604080832093891683529290522054106127145750600990506115aa565b60205461272290600861442f565b61273490670de0b6b3a764000061442f565b6001600160a01b03808516600090815260026020908152604080832093891683529290522054106127695750600890506115aa565b60205461277790600761442f565b61278990670de0b6b3a764000061442f565b6001600160a01b03808516600090815260026020908152604080832093891683529290522054106127be5750600790506115aa565b6020546127cc90600661442f565b6127de90670de0b6b3a764000061442f565b6001600160a01b03808516600090815260026020908152604080832093891683529290522054106128135750600690506115aa565b60205461282190600561442f565b61283390670de0b6b3a764000061442f565b6001600160a01b03808516600090815260026020908152604080832093891683529290522054106128685750600590506115aa565b60205461287690600461442f565b61288890670de0b6b3a764000061442f565b6001600160a01b03808516600090815260026020908152604080832093891683529290522054106128bd5750600490506115aa565b6020546128cb90600361442f565b6128dd90670de0b6b3a764000061442f565b6001600160a01b03808516600090815260026020908152604080832093891683529290522054106129125750600390506115aa565b60205461292090600261442f565b61293290670de0b6b3a764000061442f565b6001600160a01b03808516600090815260026020908152604080832093891683529290522054106129675750600290506115aa565b60205461297590600161442f565b61298790670de0b6b3a764000061442f565b6001600160a01b03808516600090815260026020908152604080832093891683529290522054106129bc5750600190506115aa565b50600090506115aa565b6000806129d4858585613b18565b60008481526028602090815260408083206001600160a01b038a16845290915281205491925090612a059083614569565b9695505050505050565b6000546001600160a01b03163314612a395760405162461bcd60e51b8152600401610e21906143e4565b6001600160a01b0381166000818152601160205260409081902054905163a9059cbb60e01b815290919063a9059cbb90612a799033908590600401614470565b6020604051808303816000875af1158015612a98573d6000803e3d6000fd5b505050506040513d601f19601f82011682018060405250810190612abc9190614489565b506040516370a0823160e01b8152306004820152670de0b6b3a7640000906001600160a01b038416906370a0823190602401602060405180830381865afa158015612b0b573d6000803e3d6000fd5b505050506040513d601f19601f82011682018060405250810190612b2f9190614550565b612b39919061444e565b601d55506001600160a01b0316600090815260116020526040812055565b6001600160a01b038116600090815260026020908152604080832033845290915290205482612b985760405162461bcd60e51b8152600401610e21906144a6565b82811015612bf45760405162461bcd60e51b815260206004820152602360248201527f596f7520646f6e2774206861766520656e6f756768207374616b656420746f6b604482015262656e7360e81b6064820152608401610e21565b612bfd82613a17565b612c195760405162461bcd60e51b8152600401610e21906144dd565b336000908152600560205260409020544290612c38906249d400614538565b811015612d865733600090815260056020526040902054612c5c9062375f00614538565b811015612d775733600090815260056020526040902054612c80906224ea00614538565b811015612d685733600090815260056020526040902054612ca49062127500614538565b811015612d595760006064612cba86604b61442f565b612cc4919061444e565b60405163a9059cbb60e01b81529091506001600160a01b0385169063a9059cbb90612cf59033908590600401614470565b6020604051808303816000875af1158015612d14573d6000803e3d6000fd5b505050506040513d601f19601f82011682018060405250810190612d389190614489565b50612d438186614569565b600654612d509190614538565b60065550612df9565b60006064612cba86605561442f565b60006064612cba86605a61442f565b60006064612cba86605f61442f565b60405163a9059cbb60e01b81526001600160a01b0384169063a9059cbb90612db49033908890600401614470565b6020604051808303816000875af1158015612dd3573d6000803e3d6000fd5b505050506040513d601f19601f82011682018060405250810190612df79190614489565b505b612e03338461203b565b336000908152600460209081526040808320939093556003905220429055612e2b8483614569565b6001600160a01b0384166000908152600260209081526040808320338452909152902055600b54612e5d908590614569565b600b556001600160a01b0383166000908152600260209081526040808320338452909152902054612ec7576001600a54612e979190614569565b600a5533600090815260076020526040902054612eb690600190614569565b336000908152600760205260409020555b50505050565b6000546001600160a01b03163314612ef75760405162461bcd60e51b8152600401610e21906143e4565b6001600160a01b03918216600090815260086020526040902080546001600160a01b03191691909216179055565b6000546001600160a01b03163314612f4f5760405162461bcd60e51b8152600401610e21906143e4565b602055565b6000612f60338361203b565b905060008111612f6f57600080fd5b60405163a9059cbb60e01b81526001600160a01b0383169063a9059cbb90612f9d9033908590600401614470565b6020604051808303816000875af1158015612fbc573d6000803e3d6000fd5b505050506040513d601f19601f82011682018060405250810190612fe09190614489565b50503360009081526004602090815260408083208390556003909152902042905550565b600080601b60009054906101000a90046001600160a01b03166001600160a01b031663feaf968c6040518163ffffffff1660e01b815260040160a060405180830381865afa15801561305a573d6000803e3d6000fd5b505050506040513d601f19601f8201168201806040525081019061307e9190614707565b505050915050806402540be4006130959190614757565b91505090565b6000546001600160a01b031633146130c55760405162461bcd60e51b8152600401610e21906143e4565b600091825260266020526040909120805460ff1916911515919091179055565b6000546001600160a01b0316331461310f5760405162461bcd60e51b8152600401610e21906143e4565b6065601754111561311f57600080fd5b60658160175461312f9190614538565b111561313a57600080fd5b806017546131489190614538565b60175550565b6001600160a01b03811660009081526007602052604081205481906131a95760405162461bcd60e51b81526020600482015260116024820152704e6f20746f6b656e73207374616b65642160781b6044820152606401610e21565b60005b600d54811015613205576131e784600d83815481106131cd576131cd6146bc565b6000918252602090912001546001600160a01b0316611529565b6131f19083614538565b9150806131fd816146d2565b9150506131ac565b5092915050565b6000805b601a5481101561326d57826001600160a01b0316601a8281548110613237576132376146bc565b6000918252602090912001546001600160a01b0316141561325b5750600192915050565b80613265816146d2565b915050613210565b50600092915050565b6000546001600160a01b031633146132a05760405162461bcd60e51b8152600401610e21906143e4565b6000918252601f6020526040909120805460ff1916911515919091179055565b6000546001600160a01b031633146132ea5760405162461bcd60e51b8152600401610e21906143e4565b60009182526024602052604090912055565b6000546001600160a01b031633146133265760405162461bcd60e51b8152600401610e21906143e4565b6000918252602a602052604090912055565b6001600160a01b0381166000908152600260209081526040808320338452909152902054806133a95760405162461bcd60e51b815260206004820152601b60248201527f5374616b696e672062616c616e63652063616e6e6f74206265203000000000006044820152606401610e21565b6133b282613a17565b6133ce5760405162461bcd60e51b8152600401610e21906144dd565b3360009081526005602052604090205442906133ed906249d400614538565b81101561353b57336000908152600560205260409020546134119062375f00614538565b81101561352c5733600090815260056020526040902054613435906224ea00614538565b81101561351d57336000908152600560205260409020546134599062127500614538565b81101561350e576000606461346f84604b61442f565b613479919061444e565b60405163a9059cbb60e01b81529091506001600160a01b0385169063a9059cbb906134aa9033908590600401614470565b6020604051808303816000875af11580156134c9573d6000803e3d6000fd5b505050506040513d601f19601f820116820180604052508101906134ed9190614489565b506134f88184614569565b6006546135059190614538565b600655506135ae565b6000606461346f84605561442f565b6000606461346f84605a61442f565b6000606461346f84605f61442f565b60405163a9059cbb60e01b81526001600160a01b0384169063a9059cbb906135699033908690600401614470565b6020604051808303816000875af1158015613588573d6000803e3d6000fd5b505050506040513d601f19601f820116820180604052508101906135ac9190614489565b505b6135b8338461203b565b336000908152600460209081526040808320939093556003905220429055600b546135e4908390614569565b600b556001600160a01b03831660009081526002602090815260408083203384528252808320839055600790915290205461362190600190614569565b33600090815260076020526040902055600a5461364090600190614569565b600a55505050565b6000546001600160a01b031633146136725760405162461bcd60e51b8152600401610e21906143e4565b60008281526030602052604090205461368c908290614538565b6000928352603060205260409092209190915550565b6000546001600160a01b031633146136cc5760405162461bcd60e51b8152600401610e21906143e4565b60405163a9059cbb60e01b81526001600160a01b0383169063a9059cbb90611e839033908590600401614470565b60008181526026602052604090205460ff16151560011461371a57600080fd5b6001600160a01b0383166000908152600260209081526040808320338452909152902054685150ae84a8cdf00000111561375357600080fd5b600061375f338561206b565b1161376957600080fd5b60008181526024602052604090205461378157600080fd5b600084116137a15760405162461bcd60e51b8152600401610e21906144a6565b6137aa8261320c565b6137c65760405162461bcd60e51b8152600401610e21906144dd565b600081815260246020908152604080832054602c83528184206001600160a01b038716855290925290912054106137fc57600080fd5b6000613809338584613b18565b6000838152602860209081526040808320338452909152812054919250906138319083614569565b90506000811161384057600080fd5b8086111561384d57600080fd5b6040516323b872dd60e01b81526001600160a01b038516906323b872dd9061387d90339030908b90600401614514565b6020604051808303816000875af115801561389c573d6000803e3d6000fd5b505050506040513d601f19601f820116820180604052508101906138c09190614489565b506138cb3384614199565b60008381526028602090815260408083203384529091529020546138f0908790614538565b6000848152602860209081526040808320338452825280832093909355858252602a90522054613920908761442f565b6000848152602e602090815260408083203384529091529020546139449190614538565b6000848152602e60209081526040808320338452825280832093909355858252602b81528282206001600160a01b038816835290522054613986908790614538565b6000848152602b602090815260408083206001600160a01b03891680855290835281842094909455868352602c825280832093835292905220546139cb908790614538565b6000848152602c602090815260408083206001600160a01b03891684529091529020556013546139fc908790614538565b601355505050505050565b600981815481106115c057600080fd5b6000805b600d5481101561326d57826001600160a01b0316600d8281548110613a4257613a426146bc565b6000918252602090912001546001600160a01b03161415613a665750600192915050565b80613a70816146d2565b915050613a1b565b600080546001600160a01b03163314613aa35760405162461bcd60e51b8152600401610e21906143e4565b6040516370a0823160e01b81523060048201526001600160a01b038316906370a0823190602401602060405180830381865afa158015613ae7573d6000803e3d6000fd5b505050506040513d601f19601f82011682018060405250810190613b0b9190614550565b601d81905590505b919050565b60008181526025602052604081205460ff161515600114613b3857600080fd5b600082815260246020526040902054613b5057600080fd5b600060015b601d811015613ba457600081815260216020908152604080832054601e909252822054613b82919061442f565b9050613b8e8184614538565b9250508080613b9c906146d2565b915050613b55565b50600083815260246020526040812054613bbf90839061444e565b90506000613bcd878761206b565b600081815260216020908152604080832054601e90925282205492935091908285613bf8828561442f565b613c02919061442f565b6116c1919061444e565b601981815481106115c057600080fd5b6001600160a01b03808216600090815260086020526040808220548151633fabe5a360e21b815291519293849391169182918491839163feaf968c9160048082019260a0929091908290030181865afa158015613c7d573d6000803e3d6000fd5b505050506040513d601f19601f82011682018060405250810190613ca19190614707565b5050509150506000826001600160a01b031663313ce5676040518163ffffffff1660e01b8152600401602060405180830381865afa158015613ce7573d6000803e3d6000fd5b505050506040513d601f19601f82011682018060405250810190613d0b91906147dc565b919760ff909216965090945050505050565b60008181526027602052604090205460ff161515600114613d3d57600080fd5b6000818152602e602090815260408083203380855290835281842054858552602f845282852091855292528220549091613d778284614569565b60008581526030602052604081205491925090606490613d9890869061442f565b613da2919061444e565b90506000613db08483614569565b905060008511613dbf57600080fd5b60008111613dcc57600080fd5b848410613dd857600080fd5b6000868152603160205260409081902054905163a9059cbb60e01b81526001600160a01b039091169063a9059cbb90613e179033908590600401614470565b6020604051808303816000875af1158015613e36573d6000803e3d6000fd5b505050506040513d601f19601f82011682018060405250810190613e5a9190614489565b506000868152602f60209081526040808320338452909152902054613e80908290614538565b6000968752602f60209081526040808920338a52909152909620959095555050505050565b6000546001600160a01b03163314613ecf5760405162461bcd60e51b8152600401610e21906143e4565b6001600160a01b038116613f345760405162461bcd60e51b815260206004820152602660248201527f4f776e61626c653a206e6577206f776e657220697320746865207a65726f206160448201526564647265737360d01b6064820152608401610e21565b611d5081614149565b6000818152602e602090815260408083203380855290835281842054858552602f845282852091855292528220546017548390606490613f7e90859061442f565b613f88919061444e565b90506000613f968383614569565b98975050505050505050565b6000546001600160a01b03163314613fcc5760405162461bcd60e51b8152600401610e21906143e4565b600091825260276020526040909120805460ff1916911515919091179055565b600c81815481106115c057600080fd5b602d602052816000526040600020818154811061401857600080fd5b6000918252602090912001546001600160a01b03169150829050565b6001600160a01b03808216600090815260026020908152604080832093861683529290522054611106576001600160a01b038216600090815260076020526040902054614082906001614538565b6001600160a01b0383166000908152600760205260409020555050565b6001600160a01b0380821660009081526002602090815260408083209386168352929052205461110657600a546140d7906001614538565b600a555050565b6001600160a01b03808216600090815260106020908152604080832093861683529290522054611106576001600160a01b0382166000908152601c602052604090205461412c906001614538565b6001600160a01b0383166000908152601c60205260409020555050565b600080546001600160a01b038381166001600160a01b0319831681178455604051919092169283917f8be0079c531659141344cd1fd0a4f28419497f9722a3daafe3b4186f6b6457e09190a35050565b60008181526028602090815260408083206001600160a01b0386168452909152902054611106576001600160a01b0382166000908152602960205260409020546141e4906001614538565b6001600160a01b0392909216600081815260296020908152604080832095909555928152602d83529283208054600181018255908452919092200180546001600160a01b0319169091179055565b80356001600160a01b0381168114613b1357600080fd5b6000806040838503121561425c57600080fd5b8235915061426c60208401614232565b90509250929050565b6000806040838503121561428857600080fd5b50508035926020909101359150565b6000602082840312156142a957600080fd5b6142b282614232565b9392505050565b6000602082840312156142cb57600080fd5b5035919050565b600080604083850312156142e557600080fd5b6142ee83614232565b915061426c60208401614232565b8015158114611d5057600080fd5b6000806040838503121561431d57600080fd5b82359150602083013561432f816142fc565b809150509250929050565b6000806040838503121561434d57600080fd5b61435683614232565b946020939093013593505050565b60008060006060848603121561437957600080fd5b61438284614232565b925061439060208501614232565b9150604084013590509250925092565b600080600080608085870312156143b657600080fd5b843593506143c660208601614232565b92506143d460408601614232565b9396929550929360600135925050565b6020808252818101527f4f776e61626c653a2063616c6c6572206973206e6f7420746865206f776e6572604082015260600190565b634e487b7160e01b600052601160045260246000fd5b600081600019048311821515161561444957614449614419565b500290565b60008261446b57634e487b7160e01b600052601260045260246000fd5b500490565b6001600160a01b03929092168252602082015260400190565b60006020828403121561449b57600080fd5b81516142b2816142fc565b6020808252601a908201527f416d6f756e74206d757374206265206d6f7265207468616e2030000000000000604082015260600190565b6020808252601e908201527f546f6b656e2069732063757272656e746c79206e6f7420616c6c6f7765640000604082015260600190565b6001600160a01b039384168152919092166020820152604081019190915260600190565b6000821982111561454b5761454b614419565b500190565b60006020828403121561456257600080fd5b5051919050565b60008282101561457b5761457b614419565b500390565b6020808252602c908201527f596f7520646f6e2774206861766520656e6f756768207075726368617365642060408201526b746f6b656e73206c6566742160a01b606082015260800190565b600181815b808511156146075781600019048211156145ed576145ed614419565b808516156145fa57918102915b93841c93908002906145d1565b509250929050565b60008261461e575060016115aa565b8161462b575060006115aa565b8160018114614641576002811461464b57614667565b60019150506115aa565b60ff84111561465c5761465c614419565b50506001821b6115aa565b5060208310610133831016604e8410600b841016171561468a575081810a6115aa565b61469483836145cc565b80600019048211156146a8576146a8614419565b029392505050565b60006142b2838361460f565b634e487b7160e01b600052603260045260246000fd5b60006000198214156146e6576146e6614419565b5060010190565b805169ffffffffffffffffffff81168114613b1357600080fd5b600080600080600060a0868803121561471f57600080fd5b614728866146ed565b945060208601519350604086015192506060860151915061474b608087016146ed565b90509295509295909350565b60006001600160ff1b038184138284138082168684048611161561477d5761477d614419565b600160ff1b600087128281168783058912161561479c5761479c614419565b600087129250878205871284841616156147b8576147b8614419565b878505871281841616156147ce576147ce614419565b505050929093029392505050565b6000602082840312156147ee57600080fd5b815160ff811681146142b257600080fdfea2646970667358221220cc01153d151742f8dac5a18fa6c848a244142eddb1dbc3c24d57e1864ad3a31964736f6c634300080b0033","bytecodeSha1":"bc02105aa19746818e5ed6912aac16243a154bc7","compiler":{"evm_version":"istanbul","optimizer":{"enabled":true,"runs":200},"version":"0.8.11+commit.d7f03943"},"contractName":"TokenFarm","language":"Solidity","natspec":{"kind":"dev","methods":{"owner()":{"details":"Returns the address of the current owner."},"renounceOwnership()":{"details":"Leaves the contract without owner. It will not be possible to call `onlyOwner` functions anymore. Can only be called by the current owner. NOTE: Renouncing ownership will leave the contract without an owner, thereby removing any functionality that is only available to the owner."},"transferOwnership(address)":{"details":"Transfers ownership of the contract to a new account (`newOwner`). Can only be called by the current owner."}},"version":1},"opcodes":"PUSH1 0x80 PUSH1 0x40 MSTORE CALLVALUE DUP1 ISZERO PUSH2 0x10 JUMPI PUSH1 0x0 DUP1 REVERT JUMPDEST POP PUSH1 0x4 CALLDATASIZE LT PUSH2 0x54B JUMPI PUSH1 0x0 CALLDATALOAD PUSH1 0xE0 SHR DUP1 PUSH4 0x850FB311 GT PUSH2 0x2CA JUMPI DUP1 PUSH4 0xC98A6C49 GT PUSH2 0x18D JUMPI DUP1 PUSH4 0xEE110701 GT PUSH2 0xF4 JUMPI DUP1 PUSH4 0xF5D9F006 GT PUSH2 0xAD JUMPI DUP1 PUSH4 0xFB4854AA GT PUSH2 0x87 JUMPI DUP1 PUSH4 0xFB4854AA EQ PUSH2 0xD8E JUMPI DUP1 PUSH4 0xFD5E6DD1 EQ PUSH2 0xDB1 JUMPI DUP1 PUSH4 0xFE0A9E00 EQ PUSH2 0xDC4 JUMPI DUP1 PUSH4 0xFE833831 EQ PUSH2 0xDD7 JUMPI PUSH1 0x0 DUP1 REVERT JUMPDEST DUP1 PUSH4 0xF5D9F006 EQ PUSH2 0xD55 JUMPI DUP1 PUSH4 0xFA95CF82 EQ PUSH2 0xD68 JUMPI DUP1 PUSH4 0xFB27B0ED EQ PUSH2 0xD7B JUMPI PUSH1 0x0 DUP1 REVERT JUMPDEST DUP1 PUSH4 0xEE110701 EQ PUSH2 0xCCB JUMPI DUP1 PUSH4 0xEF8BD305 EQ PUSH2 0xCEB JUMPI DUP1 PUSH4 0xF08AAE81 EQ PUSH2 0xCF4 JUMPI DUP1 PUSH4 0xF1C5D6C2 EQ PUSH2 0xD07 JUMPI DUP1 PUSH4 0xF23E5423 EQ PUSH2 0xD2F JUMPI DUP1 PUSH4 0xF2FDE38B EQ PUSH2 0xD42 JUMPI PUSH1 0x0 DUP1 REVERT JUMPDEST DUP1 PUSH4 0xDC0D3DFF GT PUSH2 0x146 JUMPI DUP1 PUSH4 0xDC0D3DFF EQ PUSH2 0xC34 JUMPI DUP1 PUSH4 0xDD5B8467 EQ PUSH2 0xC47 JUMPI DUP1 PUSH4 0xE2453396 EQ PUSH2 0xC5A JUMPI DUP1 PUSH4 0xE354E1C2 EQ PUSH2 0xC7A JUMPI DUP1 PUSH4 0xE4C78422 EQ PUSH2 0xCA5 JUMPI DUP1 PUSH4 0xEACE7E23 EQ PUSH2 0xCB8 JUMPI PUSH1 0x0 DUP1 REVERT JUMPDEST DUP1 PUSH4 0xC98A6C49 EQ PUSH2 0xBB4 JUMPI DUP1 PUSH4 0xCA97FC29 EQ PUSH2 0xBC7 JUMPI DUP1 PUSH4 0xCCD35BB2 EQ PUSH2 0xBD0 JUMPI DUP1 PUSH4 0xCD32E792 EQ PUSH2 0xBE3 JUMPI DUP1 PUSH4 0xDBA586F2 EQ PUSH2 0xBF6 JUMPI DUP1 PUSH4 0xDBD94009 EQ PUSH2 0xC09 JUMPI PUSH1 0x0 DUP1 REVERT JUMPDEST DUP1 PUSH4 0xA4ABF261 GT PUSH2 0x231 JUMPI DUP1 PUSH4 0xB379BC6A GT PUSH2 0x1EA JUMPI DUP1 PUSH4 0xB379BC6A EQ PUSH2 0xB32 JUMPI DUP1 PUSH4 0xB57EFF10 EQ PUSH2 0xB52 JUMPI DUP1 PUSH4 0xB83E0234 EQ PUSH2 0xB65 JUMPI DUP1 PUSH4 0xBDE63A92 EQ PUSH2 0xB85 JUMPI DUP1 PUSH4 0xC071CF83 EQ PUSH2 0xB98 JUMPI DUP1 PUSH4 0xC8846CDB EQ PUSH2 0xBA1 JUMPI PUSH1 0x0 DUP1 REVERT JUMPDEST DUP1 PUSH4 0xA4ABF261 EQ PUSH2 0xAAA JUMPI DUP1 PUSH4 0xAF3F5E22 EQ PUSH2 0xABD JUMPI DUP1 PUSH4 0xB0E31B2D EQ PUSH2 0xAD0 JUMPI DUP1 PUSH4 0xB1150702 EQ PUSH2 0xAD9 JUMPI DUP1 PUSH4 0xB195558C EQ PUSH2 0xAFC JUMPI DUP1 PUSH4 0xB2E87781 EQ PUSH2 0xB0F JUMPI PUSH1 0x0 DUP1 REVERT JUMPDEST DUP1 PUSH4 0x8DCB654B GT PUSH2 0x283 JUMPI DUP1 PUSH4 0x8DCB654B EQ PUSH2 0xA1D JUMPI DUP1 PUSH4 0x96BB1FEF EQ PUSH2 0xA48 JUMPI DUP1 PUSH4 0x98D5FDCA EQ PUSH2 0xA5B JUMPI DUP1 PUSH4 0x9B67F4BE EQ PUSH2 0xA63 JUMPI DUP1 PUSH4 0x9F20F62D EQ PUSH2 0xA76 JUMPI DUP1 PUSH4 0xA307BB0C EQ PUSH2 0xAA1 JUMPI PUSH1 0x0 DUP1 REVERT JUMPDEST DUP1 PUSH4 0x850FB311 EQ PUSH2 0x983 JUMPI DUP1 PUSH4 0x877DD39D EQ PUSH2 0x9A6 JUMPI DUP1 PUSH4 0x8A757EC2 EQ PUSH2 0x9B9 JUMPI DUP1 PUSH4 0x8B1D8CFD EQ PUSH2 0x9CC JUMPI DUP1 PUSH4 0x8B20C4C2 EQ PUSH2 0x9EC JUMPI DUP1 PUSH4 0x8DA5CB5B EQ PUSH2 0xA0C JUMPI PUSH1 0x0 DUP1 REVERT JUMPDEST DUP1 PUSH4 0x409ED87E GT PUSH2 0x412 JUMPI DUP1 PUSH4 0x66B98718 GT PUSH2 0x379 JUMPI DUP1 PUSH4 0x7290B3AD GT PUSH2 0x332 JUMPI DUP1 PUSH4 0x7290B3AD EQ PUSH2 0x911 JUMPI DUP1 PUSH4 0x7737721B EQ PUSH2 0x924 JUMPI DUP1 PUSH4 0x77A4CFE8 EQ PUSH2 0x937 JUMPI DUP1 PUSH4 0x799E93E8 EQ PUSH2 0x94A JUMPI DUP1 PUSH4 0x79F27C9E EQ PUSH2 0x95D JUMPI DUP1 PUSH4 0x84D269AD EQ PUSH2 0x970 JUMPI PUSH1 0x0 DUP1 REVERT JUMPDEST DUP1 PUSH4 0x66B98718 EQ PUSH2 0x870 JUMPI DUP1 PUSH4 0x6B3DD9E2 EQ PUSH2 0x883 JUMPI DUP1 PUSH4 0x6E5B6B28 EQ PUSH2 0x8A3 JUMPI DUP1 PUSH4 0x6F4A2A2F EQ PUSH2 0x8B6 JUMPI DUP1 PUSH4 0x6F8DA993 EQ PUSH2 0x8D6 JUMPI DUP1 PUSH4 0x715018A6 EQ PUSH2 0x909 JUMPI PUSH1 0x0 DUP1 REVERT JUMPDEST DUP1 PUSH4 0x5EB186F8 GT PUSH2 0x3CB JUMPI DUP1 PUSH4 0x5EB186F8 EQ PUSH2 0x7FC JUMPI DUP1 PUSH4 0x5FBAE1C7 EQ PUSH2 0x80F JUMPI DUP1 PUSH4 0x60AB5852 EQ PUSH2 0x82F JUMPI DUP1 PUSH4 0x630B8A8A EQ PUSH2 0x837 JUMPI DUP1 PUSH4 0x6323085C EQ PUSH2 0x84A JUMPI DUP1 PUSH4 0x635AB2F7 EQ PUSH2 0x85D JUMPI PUSH1 0x0 DUP1 REVERT JUMPDEST DUP1 PUSH4 0x409ED87E EQ PUSH2 0x78A JUMPI DUP1 PUSH4 0x41A7A45E EQ PUSH2 0x79D JUMPI DUP1 PUSH4 0x5084BE37 EQ PUSH2 0x7B0 JUMPI DUP1 PUSH4 0x544CD5EC EQ PUSH2 0x7C3 JUMPI DUP1 PUSH4 0x5D990250 EQ PUSH2 0x7D6 JUMPI DUP1 PUSH4 0x5E5F2E26 EQ PUSH2 0x7E9 JUMPI PUSH1 0x0 DUP1 REVERT JUMPDEST DUP1 PUSH4 0x264C44FF GT PUSH2 0x4B6 JUMPI DUP1 PUSH4 0x2FBB9CA6 GT PUSH2 0x46F JUMPI DUP1 PUSH4 0x2FBB9CA6 EQ PUSH2 0x6FE JUMPI DUP1 PUSH4 0x383CAE1D EQ PUSH2 0x711 JUMPI DUP1 PUSH4 0x3D6217A6 EQ PUSH2 0x724 JUMPI DUP1 PUSH4 0x3D8C3CDD EQ PUSH2 0x744 JUMPI DUP1 PUSH4 0x3DBEE808 EQ PUSH2 0x757 JUMPI DUP1 PUSH4 0x3E47D6F3 EQ PUSH2 0x76A JUMPI PUSH1 0x0 DUP1 REVERT JUMPDEST DUP1 PUSH4 0x264C44FF EQ PUSH2 0x62C JUMPI DUP1 PUSH4 0x276B11DA EQ PUSH2 0x64C JUMPI DUP1 PUSH4 0x27927B3E EQ PUSH2 0x65F JUMPI DUP1 PUSH4 0x27CD08A9 EQ PUSH2 0x6A0 JUMPI DUP1 PUSH4 0x29161A00 EQ PUSH2 0x6B3 JUMPI DUP1 PUSH4 0x2B996E68 EQ PUSH2 0x6DE JUMPI PUSH1 0x0 DUP1 REVERT JUMPDEST DUP1 PUSH4 0xD8E6E2C GT PUSH2 0x508 JUMPI DUP1 PUSH4 0xD8E6E2C EQ PUSH2 0x5DA JUMPI DUP1 PUSH4 0xE53FECB EQ PUSH2 0x5E2 JUMPI DUP1 PUSH4 0x171E44EA EQ PUSH2 0x5EA JUMPI DUP1 PUSH4 0x19D9CAA9 EQ PUSH2 0x5FD JUMPI DUP1 PUSH4 0x218334FE EQ PUSH2 0x606 JUMPI DUP1 PUSH4 0x24F45E67 EQ PUSH2 0x619 JUMPI PUSH1 0x0 DUP1 REVERT JUMPDEST DUP1 PUSH4 0x5558885 EQ PUSH2 0x550 JUMPI DUP1 PUSH4 0x7C54E08 EQ PUSH2 0x58E JUMPI DUP1 PUSH4 0x8B7D791 EQ PUSH2 0x5A3 JUMPI DUP1 PUSH4 0x9BC33A7 EQ PUSH2 0x5AC JUMPI DUP1 PUSH4 0xA9C35DD EQ PUSH2 0x5B4 JUMPI DUP1 PUSH4 0xBEA440D EQ PUSH2 0x5C7 JUMPI JUMPDEST PUSH1 0x0 DUP1 REVERT JUMPDEST PUSH2 0x57B PUSH2 0x55E CALLDATASIZE PUSH1 0x4 PUSH2 0x4249 JUMP JUMPDEST PUSH1 0x2C PUSH1 0x20 SWAP1 DUP2 MSTORE PUSH1 0x0 SWAP3 DUP4 MSTORE PUSH1 0x40 DUP1 DUP5 KECCAK256 SWAP1 SWAP2 MSTORE SWAP1 DUP3 MSTORE SWAP1 KECCAK256 SLOAD DUP2 JUMP JUMPDEST PUSH1 0x40 MLOAD SWAP1 DUP2 MSTORE PUSH1 0x20 ADD JUMPDEST PUSH1 0x40 MLOAD DUP1 SWAP2 SUB SWAP1 RETURN JUMPDEST PUSH2 0x5A1 PUSH2 0x59C CALLDATASIZE PUSH1 0x4 PUSH2 0x4275 JUMP JUMPDEST PUSH2 0xDF7 JUMP JUMPDEST STOP JUMPDEST PUSH2 0x57B PUSH1 0x17 SLOAD DUP2 JUMP JUMPDEST PUSH2 0x57B PUSH2 0xE3C JUMP JUMPDEST PUSH2 0x5A1 PUSH2 0x5C2 CALLDATASIZE PUSH1 0x4 PUSH2 0x4249 JUMP JUMPDEST PUSH2 0xE79 JUMP JUMPDEST PUSH2 0x5A1 PUSH2 0x5D5 CALLDATASIZE PUSH1 0x4 PUSH2 0x4249 JUMP JUMPDEST PUSH2 0xF55 JUMP JUMPDEST PUSH2 0x57B PUSH2 0x110A JUMP JUMPDEST PUSH2 0x5A1 PUSH2 0x117D JUMP JUMPDEST PUSH2 0x5A1 PUSH2 0x5F8 CALLDATASIZE PUSH1 0x4 PUSH2 0x4297 JUMP JUMPDEST PUSH2 0x12A0 JUMP JUMPDEST PUSH2 0x57B PUSH1 0x13 SLOAD DUP2 JUMP JUMPDEST PUSH2 0x5A1 PUSH2 0x614 CALLDATASIZE PUSH1 0x4 PUSH2 0x4275 JUMP JUMPDEST PUSH2 0x131C JUMP JUMPDEST PUSH2 0x5A1 PUSH2 0x627 CALLDATASIZE PUSH1 0x4 PUSH2 0x42B9 JUMP JUMPDEST PUSH2 0x14FA JUMP JUMPDEST PUSH2 0x57B PUSH2 0x63A CALLDATASIZE PUSH1 0x4 PUSH2 0x42B9 JUMP JUMPDEST PUSH1 0x24 PUSH1 0x20 MSTORE PUSH1 0x0 SWAP1 DUP2 MSTORE PUSH1 0x40 SWAP1 KECCAK256 SLOAD DUP2 JUMP JUMPDEST PUSH2 0x57B PUSH2 0x65A CALLDATASIZE PUSH1 0x4 PUSH2 0x42D2 JUMP JUMPDEST PUSH2 0x1529 JUMP JUMPDEST PUSH2 0x688 PUSH2 0x66D CALLDATASIZE PUSH1 0x4 PUSH2 0x4297 JUMP JUMPDEST PUSH1 0x8 PUSH1 0x20 MSTORE PUSH1 0x0 SWAP1 DUP2 MSTORE PUSH1 0x40 SWAP1 KECCAK256 SLOAD PUSH1 0x1 PUSH1 0x1 PUSH1 0xA0 SHL SUB AND DUP2 JUMP JUMPDEST PUSH1 0x40 MLOAD PUSH1 0x1 PUSH1 0x1 PUSH1 0xA0 SHL SUB SWAP1 SWAP2 AND DUP2 MSTORE PUSH1 0x20 ADD PUSH2 0x585 JUMP JUMPDEST PUSH2 0x688 PUSH2 0x6AE CALLDATASIZE PUSH1 0x4 PUSH2 0x42B9 JUMP JUMPDEST PUSH2 0x15B0 JUMP JUMPDEST PUSH2 0x57B PUSH2 0x6C1 CALLDATASIZE PUSH1 0x4 PUSH2 0x42D2 JUMP JUMPDEST PUSH1 0x2 PUSH1 0x20 SWAP1 DUP2 MSTORE PUSH1 0x0 SWAP3 DUP4 MSTORE PUSH1 0x40 DUP1 DUP5 KECCAK256 SWAP1 SWAP2 MSTORE SWAP1 DUP3 MSTORE SWAP1 KECCAK256 SLOAD DUP2 JUMP JUMPDEST PUSH2 0x57B PUSH2 0x6EC CALLDATASIZE PUSH1 0x4 PUSH2 0x42B9 JUMP JUMPDEST PUSH1 0x1E PUSH1 0x20 MSTORE PUSH1 0x0 SWAP1 DUP2 MSTORE PUSH1 0x40 SWAP1 KECCAK256 SLOAD DUP2 JUMP JUMPDEST PUSH2 0x5A1 PUSH2 0x70C CALLDATASIZE PUSH1 0x4 PUSH2 0x4249 JUMP JUMPDEST PUSH2 0x15DA JUMP JUMPDEST PUSH1 0x1B SLOAD PUSH2 0x688 SWAP1 PUSH1 0x1 PUSH1 0x1 PUSH1 0xA0 SHL SUB AND DUP2 JUMP JUMPDEST PUSH2 0x57B PUSH2 0x732 CALLDATASIZE PUSH1 0x4 PUSH2 0x4297 JUMP JUMPDEST PUSH1 0x23 PUSH1 0x20 MSTORE PUSH1 0x0 SWAP1 DUP2 MSTORE PUSH1 0x40 SWAP1 KECCAK256 SLOAD DUP2 JUMP JUMPDEST PUSH2 0x57B PUSH2 0x752 CALLDATASIZE PUSH1 0x4 PUSH2 0x42D2 JUMP JUMPDEST PUSH2 0x1632 JUMP JUMPDEST PUSH2 0x5A1 PUSH2 0x765 CALLDATASIZE PUSH1 0x4 PUSH2 0x4297 JUMP JUMPDEST PUSH2 0x16CF JUMP JUMPDEST PUSH2 0x57B PUSH2 0x778 CALLDATASIZE PUSH1 0x4 PUSH2 0x4297 JUMP JUMPDEST PUSH1 0x18 PUSH1 0x20 MSTORE PUSH1 0x0 SWAP1 DUP2 MSTORE PUSH1 0x40 SWAP1 KECCAK256 SLOAD DUP2 JUMP JUMPDEST PUSH2 0x5A1 PUSH2 0x798 CALLDATASIZE PUSH1 0x4 PUSH2 0x42B9 JUMP JUMPDEST PUSH2 0x1774 JUMP JUMPDEST PUSH2 0x5A1 PUSH2 0x7AB CALLDATASIZE PUSH1 0x4 PUSH2 0x430A JUMP JUMPDEST PUSH2 0x18ED JUMP JUMPDEST PUSH2 0x5A1 PUSH2 0x7BE CALLDATASIZE PUSH1 0x4 PUSH2 0x42B9 JUMP JUMPDEST PUSH2 0x1937 JUMP JUMPDEST PUSH2 0x5A1 PUSH2 0x7D1 CALLDATASIZE PUSH1 0x4 PUSH2 0x4275 JUMP JUMPDEST PUSH2 0x1966 JUMP JUMPDEST PUSH2 0x5A1 PUSH2 0x7E4 CALLDATASIZE PUSH1 0x4 PUSH2 0x4249 JUMP JUMPDEST PUSH2 0x19A2 JUMP JUMPDEST PUSH2 0x688 PUSH2 0x7F7 CALLDATASIZE PUSH1 0x4 PUSH2 0x42B9 JUMP JUMPDEST PUSH2 0x1C49 JUMP JUMPDEST PUSH1 0xE SLOAD PUSH2 0x688 SWAP1 PUSH1 0x1 PUSH1 0x1 PUSH1 0xA0 SHL SUB AND DUP2 JUMP JUMPDEST PUSH2 0x57B PUSH2 0x81D CALLDATASIZE PUSH1 0x4 PUSH2 0x42B9 JUMP JUMPDEST PUSH1 0x2A PUSH1 0x20 MSTORE PUSH1 0x0 SWAP1 DUP2 MSTORE PUSH1 0x40 SWAP1 KECCAK256 SLOAD DUP2 JUMP JUMPDEST PUSH2 0x5A1 PUSH2 0x1C59 JUMP JUMPDEST PUSH2 0x5A1 PUSH2 0x845 CALLDATASIZE PUSH1 0x4 PUSH2 0x4297 JUMP JUMPDEST PUSH2 0x1D53 JUMP JUMPDEST PUSH2 0x57B PUSH2 0x858 CALLDATASIZE PUSH1 0x4 PUSH2 0x42D2 JUMP JUMPDEST PUSH2 0x1DCF JUMP JUMPDEST PUSH2 0x5A1 PUSH2 0x86B CALLDATASIZE PUSH1 0x4 PUSH2 0x433A JUMP JUMPDEST PUSH2 0x1E29 JUMP JUMPDEST PUSH2 0x5A1 PUSH2 0x87E CALLDATASIZE PUSH1 0x4 PUSH2 0x4297 JUMP JUMPDEST PUSH2 0x1ECB JUMP JUMPDEST PUSH2 0x57B PUSH2 0x891 CALLDATASIZE PUSH1 0x4 PUSH2 0x4297 JUMP JUMPDEST PUSH1 0x16 PUSH1 0x20 MSTORE PUSH1 0x0 SWAP1 DUP2 MSTORE PUSH1 0x40 SWAP1 KECCAK256 SLOAD DUP2 JUMP JUMPDEST PUSH2 0x57B PUSH2 0x8B1 CALLDATASIZE PUSH1 0x4 PUSH2 0x42B9 JUMP JUMPDEST PUSH2 0x1F17 JUMP JUMPDEST PUSH2 0x57B PUSH2 0x8C4 CALLDATASIZE PUSH1 0x4 PUSH2 0x4297 JUMP JUMPDEST PUSH1 0x12 PUSH1 0x20 MSTORE PUSH1 0x0 SWAP1 DUP2 MSTORE PUSH1 0x40 SWAP1 KECCAK256 SLOAD DUP2 JUMP JUMPDEST PUSH2 0x8F9 PUSH2 0x8E4 CALLDATASIZE PUSH1 0x4 PUSH2 0x42B9 JUMP JUMPDEST PUSH1 0x27 PUSH1 0x20 MSTORE PUSH1 0x0 SWAP1 DUP2 MSTORE PUSH1 0x40 SWAP1 KECCAK256 SLOAD PUSH1 0xFF AND DUP2 JUMP JUMPDEST PUSH1 0x40 MLOAD SWAP1 ISZERO ISZERO DUP2 MSTORE PUSH1 0x20 ADD PUSH2 0x585 JUMP JUMPDEST PUSH2 0x5A1 PUSH2 0x1F4B JUMP JUMPDEST PUSH2 0x5A1 PUSH2 0x91F CALLDATASIZE PUSH1 0x4 PUSH2 0x4249 JUMP JUMPDEST PUSH2 0x1F81 JUMP JUMPDEST PUSH2 0x57B PUSH2 0x932 CALLDATASIZE PUSH1 0x4 PUSH2 0x42D2 JUMP JUMPDEST PUSH2 0x203B JUMP JUMPDEST PUSH2 0x57B PUSH2 0x945 CALLDATASIZE PUSH1 0x4 PUSH2 0x42D2 JUMP JUMPDEST PUSH2 0x206B JUMP JUMPDEST PUSH2 0x57B PUSH2 0x958 CALLDATASIZE PUSH1 0x4 PUSH2 0x4364 JUMP JUMPDEST PUSH2 0x29C6 JUMP JUMPDEST PUSH2 0x5A1 PUSH2 0x96B CALLDATASIZE PUSH1 0x4 PUSH2 0x4297 JUMP JUMPDEST PUSH2 0x2A0F JUMP JUMPDEST PUSH2 0x5A1 PUSH2 0x97E CALLDATASIZE PUSH1 0x4 PUSH2 0x4249 JUMP JUMPDEST PUSH2 0x2B57 JUMP JUMPDEST PUSH2 0x8F9 PUSH2 0x991 CALLDATASIZE PUSH1 0x4 PUSH2 0x4297 JUMP JUMPDEST PUSH1 0x22 PUSH1 0x20 MSTORE PUSH1 0x0 SWAP1 DUP2 MSTORE PUSH1 0x40 SWAP1 KECCAK256 SLOAD PUSH1 0xFF AND DUP2 JUMP JUMPDEST PUSH2 0x5A1 PUSH2 0x9B4 CALLDATASIZE PUSH1 0x4 PUSH2 0x42D2 JUMP JUMPDEST PUSH2 0x2ECD JUMP JUMPDEST PUSH2 0x5A1 PUSH2 0x9C7 CALLDATASIZE PUSH1 0x4 PUSH2 0x42B9 JUMP JUMPDEST PUSH2 0x2F25 JUMP JUMPDEST PUSH2 0x57B PUSH2 0x9DA CALLDATASIZE PUSH1 0x4 PUSH2 0x42B9 JUMP JUMPDEST PUSH1 0x21 PUSH1 0x20 MSTORE PUSH1 0x0 SWAP1 DUP2 MSTORE PUSH1 0x40 SWAP1 KECCAK256 SLOAD DUP2 JUMP JUMPDEST PUSH2 0x57B PUSH2 0x9FA CALLDATASIZE PUSH1 0x4 PUSH2 0x4297 JUMP JUMPDEST PUSH1 0x14 PUSH1 0x20 MSTORE PUSH1 0x0 SWAP1 DUP2 MSTORE PUSH1 0x40 SWAP1 KECCAK256 SLOAD DUP2 JUMP JUMPDEST PUSH1 0x0 SLOAD PUSH1 0x1 PUSH1 0x1 PUSH1 0xA0 SHL SUB AND PUSH2 0x688 JUMP JUMPDEST PUSH2 0x57B PUSH2 0xA2B CALLDATASIZE PUSH1 0x4 PUSH2 0x4249 JUMP JUMPDEST PUSH1 0x28 PUSH1 0x20 SWAP1 DUP2 MSTORE PUSH1 0x0 SWAP3 DUP4 MSTORE PUSH1 0x40 DUP1 DUP5 KECCAK256 SWAP1 SWAP2 MSTORE SWAP1 DUP3 MSTORE SWAP1 KECCAK256 SLOAD DUP2 JUMP JUMPDEST PUSH2 0x5A1 PUSH2 0xA56 CALLDATASIZE PUSH1 0x4 PUSH2 0x4297 JUMP JUMPDEST PUSH2 0x2F54 JUMP JUMPDEST PUSH2 0x57B PUSH2 0x3004 JUMP JUMPDEST PUSH2 0x5A1 PUSH2 0xA71 CALLDATASIZE PUSH1 0x4 PUSH2 0x430A JUMP JUMPDEST PUSH2 0x309B JUMP JUMPDEST PUSH2 0x57B PUSH2 0xA84 CALLDATASIZE PUSH1 0x4 PUSH2 0x42D2 JUMP JUMPDEST PUSH1 0x10 PUSH1 0x20 SWAP1 DUP2 MSTORE PUSH1 0x0 SWAP3 DUP4 MSTORE PUSH1 0x40 DUP1 DUP5 KECCAK256 SWAP1 SWAP2 MSTORE SWAP1 DUP3 MSTORE SWAP1 KECCAK256 SLOAD DUP2 JUMP JUMPDEST PUSH2 0x57B PUSH1 0x6 SLOAD DUP2 JUMP JUMPDEST PUSH2 0x5A1 PUSH2 0xAB8 CALLDATASIZE PUSH1 0x4 PUSH2 0x42B9 JUMP JUMPDEST PUSH2 0x30E5 JUMP JUMPDEST PUSH2 0x57B PUSH2 0xACB CALLDATASIZE PUSH1 0x4 PUSH2 0x4297 JUMP JUMPDEST PUSH2 0x314E JUMP JUMPDEST PUSH2 0x57B PUSH1 0xB SLOAD DUP2 JUMP JUMPDEST PUSH2 0x8F9 PUSH2 0xAE7 CALLDATASIZE PUSH1 0x4 PUSH2 0x42B9 JUMP JUMPDEST PUSH1 0x26 PUSH1 0x20 MSTORE PUSH1 0x0 SWAP1 DUP2 MSTORE PUSH1 0x40 SWAP1 KECCAK256 SLOAD PUSH1 0xFF AND DUP2 JUMP JUMPDEST PUSH2 0x8F9 PUSH2 0xB0A CALLDATASIZE PUSH1 0x4 PUSH2 0x4297 JUMP JUMPDEST PUSH2 0x320C JUMP JUMPDEST PUSH2 0x8F9 PUSH2 0xB1D CALLDATASIZE PUSH1 0x4 PUSH2 0x42B9 JUMP JUMPDEST PUSH1 0x1F PUSH1 0x20 MSTORE PUSH1 0x0 SWAP1 DUP2 MSTORE PUSH1 0x40 SWAP1 KECCAK256 SLOAD PUSH1 0xFF AND DUP2 JUMP JUMPDEST PUSH2 0x57B PUSH2 0xB40 CALLDATASIZE PUSH1 0x4 PUSH2 0x4297 JUMP JUMPDEST PUSH1 0x1C PUSH1 0x20 MSTORE PUSH1 0x0 SWAP1 DUP2 MSTORE PUSH1 0x40 SWAP1 KECCAK256 SLOAD DUP2 JUMP JUMPDEST PUSH2 0x5A1 PUSH2 0xB60 CALLDATASIZE PUSH1 0x4 PUSH2 0x430A JUMP JUMPDEST PUSH2 0x3276 JUMP JUMPDEST PUSH2 0x57B PUSH2 0xB73 CALLDATASIZE PUSH1 0x4 PUSH2 0x4297 JUMP JUMPDEST PUSH1 0x7 PUSH1 0x20 MSTORE PUSH1 0x0 SWAP1 DUP2 MSTORE PUSH1 0x40 SWAP1 KECCAK256 SLOAD DUP2 JUMP JUMPDEST PUSH2 0x5A1 PUSH2 0xB93 CALLDATASIZE PUSH1 0x4 PUSH2 0x4275 JUMP JUMPDEST PUSH2 0x32C0 JUMP JUMPDEST PUSH2 0x57B PUSH1 0x1D SLOAD DUP2 JUMP JUMPDEST PUSH2 0x5A1 PUSH2 0xBAF CALLDATASIZE PUSH1 0x4 PUSH2 0x4275 JUMP JUMPDEST PUSH2 0x32FC JUMP JUMPDEST PUSH2 0x5A1 PUSH2 0xBC2 CALLDATASIZE PUSH1 0x4 PUSH2 0x4297 JUMP JUMPDEST PUSH2 0x3338 JUMP JUMPDEST PUSH2 0x57B PUSH1 0xA SLOAD DUP2 JUMP JUMPDEST PUSH2 0x5A1 PUSH2 0xBDE CALLDATASIZE PUSH1 0x4 PUSH2 0x4275 JUMP JUMPDEST PUSH2 0x3648 JUMP JUMPDEST PUSH2 0x5A1 PUSH2 0xBF1 CALLDATASIZE PUSH1 0x4 PUSH2 0x433A JUMP JUMPDEST PUSH2 0x36A2 JUMP JUMPDEST PUSH2 0x5A1 PUSH2 0xC04 CALLDATASIZE PUSH1 0x4 PUSH2 0x43A0 JUMP JUMPDEST PUSH2 0x36FA JUMP JUMPDEST PUSH2 0x57B PUSH2 0xC17 CALLDATASIZE PUSH1 0x4 PUSH2 0x4249 JUMP JUMPDEST PUSH1 0x2B PUSH1 0x20 SWAP1 DUP2 MSTORE PUSH1 0x0 SWAP3 DUP4 MSTORE PUSH1 0x40 DUP1 DUP5 KECCAK256 SWAP1 SWAP2 MSTORE SWAP1 DUP3 MSTORE SWAP1 KECCAK256 SLOAD DUP2 JUMP JUMPDEST PUSH2 0x688 PUSH2 0xC42 CALLDATASIZE PUSH1 0x4 PUSH2 0x42B9 JUMP JUMPDEST PUSH2 0x3A07 JUMP JUMPDEST PUSH2 0x8F9 PUSH2 0xC55 CALLDATASIZE PUSH1 0x4 PUSH2 0x4297 JUMP JUMPDEST PUSH2 0x3A17 JUMP JUMPDEST PUSH2 0x57B PUSH2 0xC68 CALLDATASIZE PUSH1 0x4 PUSH2 0x4297 JUMP JUMPDEST PUSH1 0x5 PUSH1 0x20 MSTORE PUSH1 0x0 SWAP1 DUP2 MSTORE PUSH1 0x40 SWAP1 KECCAK256 SLOAD DUP2 JUMP JUMPDEST PUSH2 0x57B PUSH2 0xC88 CALLDATASIZE PUSH1 0x4 PUSH2 0x4249 JUMP JUMPDEST PUSH1 0x2E PUSH1 0x20 SWAP1 DUP2 MSTORE PUSH1 0x0 SWAP3 DUP4 MSTORE PUSH1 0x40 DUP1 DUP5 KECCAK256 SWAP1 SWAP2 MSTORE SWAP1 DUP3 MSTORE SWAP1 KECCAK256 SLOAD DUP2 JUMP JUMPDEST PUSH2 0x57B PUSH2 0xCB3 CALLDATASIZE PUSH1 0x4 PUSH2 0x4297 JUMP JUMPDEST PUSH2 0x3A78 JUMP JUMPDEST PUSH2 0x57B PUSH2 0xCC6 CALLDATASIZE PUSH1 0x4 PUSH2 0x4364 JUMP JUMPDEST PUSH2 0x3B18 JUMP JUMPDEST PUSH2 0x57B PUSH2 0xCD9 CALLDATASIZE PUSH1 0x4 PUSH2 0x4297 JUMP JUMPDEST PUSH1 0x29 PUSH1 0x20 MSTORE PUSH1 0x0 SWAP1 DUP2 MSTORE PUSH1 0x40 SWAP1 KECCAK256 SLOAD DUP2 JUMP JUMPDEST PUSH2 0x57B PUSH1 0x1 SLOAD DUP2 JUMP JUMPDEST PUSH2 0x688 PUSH2 0xD02 CALLDATASIZE PUSH1 0x4 PUSH2 0x42B9 JUMP JUMPDEST PUSH2 0x3C0C JUMP JUMPDEST PUSH2 0xD1A PUSH2 0xD15 CALLDATASIZE PUSH1 0x4 PUSH2 0x4297 JUMP JUMPDEST PUSH2 0x3C1C JUMP JUMPDEST PUSH1 0x40 DUP1 MLOAD SWAP3 DUP4 MSTORE PUSH1 0x20 DUP4 ADD SWAP2 SWAP1 SWAP2 MSTORE ADD PUSH2 0x585 JUMP JUMPDEST PUSH2 0x5A1 PUSH2 0xD3D CALLDATASIZE PUSH1 0x4 PUSH2 0x42B9 JUMP JUMPDEST PUSH2 0x3D1D JUMP JUMPDEST PUSH2 0x5A1 PUSH2 0xD50 CALLDATASIZE PUSH1 0x4 PUSH2 0x4297 JUMP JUMPDEST PUSH2 0x3EA5 JUMP JUMPDEST PUSH2 0x57B PUSH2 0xD63 CALLDATASIZE PUSH1 0x4 PUSH2 0x4364 JUMP JUMPDEST PUSH2 0x3F3D JUMP JUMPDEST PUSH2 0x5A1 PUSH2 0xD76 CALLDATASIZE PUSH1 0x4 PUSH2 0x430A JUMP JUMPDEST PUSH2 0x3FA2 JUMP JUMPDEST PUSH1 0xF SLOAD PUSH2 0x688 SWAP1 PUSH1 0x1 PUSH1 0x1 PUSH1 0xA0 SHL SUB AND DUP2 JUMP JUMPDEST PUSH2 0x8F9 PUSH2 0xD9C CALLDATASIZE PUSH1 0x4 PUSH2 0x42B9 JUMP JUMPDEST PUSH1 0x25 PUSH1 0x20 MSTORE PUSH1 0x0 SWAP1 DUP2 MSTORE PUSH1 0x40 SWAP1 KECCAK256 SLOAD PUSH1 0xFF AND DUP2 JUMP JUMPDEST PUSH2 0x688 PUSH2 0xDBF CALLDATASIZE PUSH1 0x4 PUSH2 0x42B9 JUMP JUMPDEST PUSH2 0x3FEC JUMP JUMPDEST PUSH2 0x688 PUSH2 0xDD2 CALLDATASIZE PUSH1 0x4 PUSH2 0x4275 JUMP JUMPDEST PUSH2 0x3FFC JUMP JUMPDEST PUSH2 0x57B PUSH2 0xDE5 CALLDATASIZE PUSH1 0x4 PUSH2 0x4297 JUMP JUMPDEST PUSH1 0x11 PUSH1 0x20 MSTORE PUSH1 0x0 SWAP1 DUP2 MSTORE PUSH1 0x40 SWAP1 KECCAK256 SLOAD DUP2 JUMP JUMPDEST PUSH1 0x0 SLOAD PUSH1 0x1 PUSH1 0x1 PUSH1 0xA0 SHL SUB AND CALLER EQ PUSH2 0xE2A JUMPI PUSH1 0x40 MLOAD PUSH3 0x461BCD PUSH1 0xE5 SHL DUP2 MSTORE PUSH1 0x4 ADD PUSH2 0xE21 SWAP1 PUSH2 0x43E4 JUMP JUMPDEST PUSH1 0x40 MLOAD DUP1 SWAP2 SUB SWAP1 REVERT JUMPDEST PUSH1 0x0 SWAP2 DUP3 MSTORE PUSH1 0x1E PUSH1 0x20 MSTORE PUSH1 0x40 SWAP1 SWAP2 KECCAK256 SSTORE JUMP JUMPDEST PUSH1 0x0 PUSH9 0x2B5E3AF16B1880000 DUP2 PUSH2 0xE51 PUSH2 0x3004 JUMP JUMPDEST SWAP1 POP PUSH8 0xDE0B6B3A7640000 DUP2 PUSH2 0xE67 DUP3 DUP6 PUSH2 0x442F JUMP JUMPDEST PUSH2 0xE71 SWAP2 SWAP1 PUSH2 0x444E JUMP JUMPDEST SWAP4 POP POP POP POP SWAP1 JUMP JUMPDEST PUSH1 0x0 SLOAD PUSH1 0x1 PUSH1 0x1 PUSH1 0xA0 SHL SUB AND CALLER EQ PUSH2 0xEA3 JUMPI PUSH1 0x40 MLOAD PUSH3 0x461BCD PUSH1 0xE5 SHL DUP2 MSTORE PUSH1 0x4 ADD PUSH2 0xE21 SWAP1 PUSH2 0x43E4 JUMP JUMPDEST PUSH1 0x0 DUP3 DUP2 MSTORE PUSH1 0x2B PUSH1 0x20 SWAP1 DUP2 MSTORE PUSH1 0x40 DUP1 DUP4 KECCAK256 PUSH1 0x1 PUSH1 0x1 PUSH1 0xA0 SHL SUB DUP6 AND DUP1 DUP6 MSTORE SWAP3 MSTORE SWAP2 DUP3 SWAP1 KECCAK256 SLOAD SWAP2 MLOAD PUSH4 0xA9059CBB PUSH1 0xE0 SHL DUP2 MSTORE PUSH4 0xA9059CBB SWAP1 PUSH2 0xEEA SWAP1 CALLER SWAP1 DUP6 SWAP1 PUSH1 0x4 ADD PUSH2 0x4470 JUMP JUMPDEST PUSH1 0x20 PUSH1 0x40 MLOAD DUP1 DUP4 SUB DUP2 PUSH1 0x0 DUP8 GAS CALL ISZERO DUP1 ISZERO PUSH2 0xF09 JUMPI RETURNDATASIZE PUSH1 0x0 DUP1 RETURNDATACOPY RETURNDATASIZE PUSH1 0x0 REVERT JUMPDEST POP POP POP POP PUSH1 0x40 MLOAD RETURNDATASIZE PUSH1 0x1F NOT PUSH1 0x1F DUP3 ADD AND DUP3 ADD DUP1 PUSH1 0x40 MSTORE POP DUP2 ADD SWAP1 PUSH2 0xF2D SWAP2 SWAP1 PUSH2 0x4489 JUMP JUMPDEST POP POP PUSH1 0x0 SWAP2 DUP3 MSTORE PUSH1 0x2B PUSH1 0x20 SWAP1 DUP2 MSTORE PUSH1 0x40 DUP1 DUP5 KECCAK256 PUSH1 0x1 PUSH1 0x1 PUSH1 0xA0 SHL SUB SWAP1 SWAP4 AND DUP5 MSTORE SWAP2 SWAP1 MSTORE DUP2 KECCAK256 SSTORE JUMP JUMPDEST PUSH1 0x0 DUP3 GT PUSH2 0xF75 JUMPI PUSH1 0x40 MLOAD PUSH3 0x461BCD PUSH1 0xE5 SHL DUP2 MSTORE PUSH1 0x4 ADD PUSH2 0xE21 SWAP1 PUSH2 0x44A6 JUMP JUMPDEST PUSH2 0xF7E DUP2 PUSH2 0x3A17 JUMP JUMPDEST PUSH2 0xF9A JUMPI PUSH1 0x40 MLOAD PUSH3 0x461BCD PUSH1 0xE5 SHL DUP2 MSTORE PUSH1 0x4 ADD PUSH2 0xE21 SWAP1 PUSH2 0x44DD JUMP JUMPDEST PUSH1 0x40 MLOAD PUSH4 0x23B872DD PUSH1 0xE0 SHL DUP2 MSTORE PUSH1 0x1 PUSH1 0x1 PUSH1 0xA0 SHL SUB DUP3 AND SWAP1 PUSH4 0x23B872DD SWAP1 PUSH2 0xFCA SWAP1 CALLER SWAP1 ADDRESS SWAP1 DUP8 SWAP1 PUSH1 0x4 ADD PUSH2 0x4514 JUMP JUMPDEST PUSH1 0x20 PUSH1 0x40 MLOAD DUP1 DUP4 SUB DUP2 PUSH1 0x0 DUP8 GAS CALL ISZERO DUP1 ISZERO PUSH2 0xFE9 JUMPI RETURNDATASIZE PUSH1 0x0 DUP1 RETURNDATACOPY RETURNDATASIZE PUSH1 0x0 REVERT JUMPDEST POP POP POP POP PUSH1 0x40 MLOAD RETURNDATASIZE PUSH1 0x1F NOT PUSH1 0x1F DUP3 ADD AND DUP3 ADD DUP1 PUSH1 0x40 MSTORE POP DUP2 ADD SWAP1 PUSH2 0x100D SWAP2 SWAP1 PUSH2 0x4489 JUMP JUMPDEST POP PUSH2 0x1018 CALLER DUP3 PUSH2 0x4034 JUMP JUMPDEST PUSH2 0x1022 CALLER DUP3 PUSH2 0x409F JUMP JUMPDEST DUP2 PUSH1 0xB SLOAD PUSH2 0x1030 SWAP2 SWAP1 PUSH2 0x4538 JUMP JUMPDEST PUSH1 0xB SSTORE PUSH2 0x103D CALLER DUP3 PUSH2 0x203B JUMP JUMPDEST CALLER PUSH1 0x0 DUP2 DUP2 MSTORE PUSH1 0x4 PUSH1 0x20 SWAP1 DUP2 MSTORE PUSH1 0x40 DUP1 DUP4 KECCAK256 SWAP5 SWAP1 SWAP5 SSTORE PUSH1 0x3 DUP2 MSTORE DUP4 DUP3 KECCAK256 TIMESTAMP SWAP1 DUP2 SWAP1 SSTORE PUSH1 0x5 DUP3 MSTORE DUP5 DUP4 KECCAK256 SSTORE PUSH1 0x1 PUSH1 0x1 PUSH1 0xA0 SHL SUB DUP6 AND DUP3 MSTORE PUSH1 0x2 DUP2 MSTORE DUP4 DUP3 KECCAK256 SWAP3 DUP3 MSTORE SWAP2 SWAP1 SWAP2 MSTORE KECCAK256 SLOAD PUSH2 0x108E SWAP1 DUP4 SWAP1 PUSH2 0x4538 JUMP JUMPDEST PUSH1 0x1 PUSH1 0x1 PUSH1 0xA0 SHL SUB DUP3 AND PUSH1 0x0 SWAP1 DUP2 MSTORE PUSH1 0x2 PUSH1 0x20 SWAP1 DUP2 MSTORE PUSH1 0x40 DUP1 DUP4 KECCAK256 CALLER DUP5 MSTORE DUP3 MSTORE DUP1 DUP4 KECCAK256 SWAP4 SWAP1 SWAP4 SSTORE PUSH1 0x7 SWAP1 MSTORE KECCAK256 SLOAD PUSH1 0x1 EQ ISZERO PUSH2 0x1106 JUMPI PUSH1 0xC DUP1 SLOAD PUSH1 0x1 DUP2 ADD DUP3 SSTORE PUSH1 0x0 SWAP2 SWAP1 SWAP2 MSTORE PUSH32 0xDF6966C971051C3D54EC59162606531493A51404A002842F56009D7E5CF4A8C7 ADD DUP1 SLOAD PUSH1 0x1 PUSH1 0x1 PUSH1 0xA0 SHL SUB NOT AND CALLER OR SWAP1 SSTORE JUMPDEST POP POP JUMP JUMPDEST PUSH1 0x1B SLOAD PUSH1 0x40 DUP1 MLOAD PUSH4 0x54FD4D5 PUSH1 0xE4 SHL DUP2 MSTORE SWAP1 MLOAD PUSH1 0x0 SWAP3 PUSH1 0x1 PUSH1 0x1 PUSH1 0xA0 SHL SUB AND SWAP2 PUSH4 0x54FD4D50 SWAP2 PUSH1 0x4 DUP1 DUP4 ADD SWAP3 PUSH1 0x20 SWAP3 SWAP2 SWAP1 DUP3 SWAP1 SUB ADD DUP2 DUP7 GAS STATICCALL ISZERO DUP1 ISZERO PUSH2 0x1154 JUMPI RETURNDATASIZE PUSH1 0x0 DUP1 RETURNDATACOPY RETURNDATASIZE PUSH1 0x0 REVERT JUMPDEST POP POP POP POP PUSH1 0x40 MLOAD RETURNDATASIZE PUSH1 0x1F NOT PUSH1 0x1F DUP3 ADD AND DUP3 ADD DUP1 PUSH1 0x40 MSTORE POP DUP2 ADD SWAP1 PUSH2 0x1178 SWAP2 SWAP1 PUSH2 0x4550 JUMP JUMPDEST SWAP1 POP SWAP1 JUMP JUMPDEST CALLER PUSH1 0x0 SWAP1 DUP2 MSTORE PUSH1 0x14 PUSH1 0x20 SWAP1 DUP2 MSTORE PUSH1 0x40 DUP1 DUP4 KECCAK256 SLOAD PUSH1 0x16 SWAP1 SWAP3 MSTORE DUP3 KECCAK256 SLOAD SWAP1 SWAP2 PUSH2 0x11A4 DUP3 DUP5 PUSH2 0x4569 JUMP JUMPDEST SWAP1 POP PUSH1 0x0 PUSH1 0x64 DUP5 PUSH1 0x17 SLOAD PUSH2 0x11B8 SWAP2 SWAP1 PUSH2 0x442F JUMP JUMPDEST PUSH2 0x11C2 SWAP2 SWAP1 PUSH2 0x444E JUMP JUMPDEST SWAP1 POP PUSH1 0x0 PUSH2 0x11D0 DUP5 DUP4 PUSH2 0x4569 JUMP JUMPDEST SWAP1 POP PUSH1 0x0 DUP6 GT PUSH2 0x11DF JUMPI PUSH1 0x0 DUP1 REVERT JUMPDEST PUSH1 0x0 DUP2 GT PUSH2 0x11EC JUMPI PUSH1 0x0 DUP1 REVERT JUMPDEST DUP5 DUP5 LT PUSH2 0x11F8 JUMPI PUSH1 0x0 DUP1 REVERT JUMPDEST PUSH1 0xF SLOAD PUSH1 0x40 MLOAD PUSH4 0xA9059CBB PUSH1 0xE0 SHL DUP2 MSTORE PUSH1 0x1 PUSH1 0x1 PUSH1 0xA0 SHL SUB SWAP1 SWAP2 AND SWAP1 PUSH4 0xA9059CBB SWAP1 PUSH2 0x122A SWAP1 CALLER SWAP1 DUP6 SWAP1 PUSH1 0x4 ADD PUSH2 0x4470 JUMP JUMPDEST PUSH1 0x20 PUSH1 0x40 MLOAD DUP1 DUP4 SUB DUP2 PUSH1 0x0 DUP8 GAS CALL ISZERO DUP1 ISZERO PUSH2 0x1249 JUMPI RETURNDATASIZE PUSH1 0x0 DUP1 RETURNDATACOPY RETURNDATASIZE PUSH1 0x0 REVERT JUMPDEST POP POP POP POP PUSH1 0x40 MLOAD RETURNDATASIZE PUSH1 0x1F NOT PUSH1 0x1F DUP3 ADD AND DUP3 ADD DUP1 PUSH1 0x40 MSTORE POP DUP2 ADD SWAP1 PUSH2 0x126D SWAP2 SWAP1 PUSH2 0x4489 JUMP JUMPDEST POP CALLER PUSH1 0x0 SWAP1 DUP2 MSTORE PUSH1 0x16 PUSH1 0x20 MSTORE PUSH1 0x40 SWAP1 KECCAK256 SLOAD PUSH2 0x1289 SWAP1 DUP3 SWAP1 PUSH2 0x4538 JUMP JUMPDEST CALLER PUSH1 0x0 SWAP1 DUP2 MSTORE PUSH1 0x16 PUSH1 0x20 MSTORE PUSH1 0x40 SWAP1 KECCAK256 SSTORE POP POP POP POP POP JUMP JUMPDEST PUSH1 0x0 SLOAD PUSH1 0x1 PUSH1 0x1 PUSH1 0xA0 SHL SUB AND CALLER EQ PUSH2 0x12CA JUMPI PUSH1 0x40 MLOAD PUSH3 0x461BCD PUSH1 0xE5 SHL DUP2 MSTORE PUSH1 0x4 ADD PUSH2 0xE21 SWAP1 PUSH2 0x43E4 JUMP JUMPDEST PUSH1 0xD DUP1 SLOAD PUSH1 0x1 DUP2 ADD DUP3 SSTORE PUSH1 0x0 SWAP2 SWAP1 SWAP2 MSTORE PUSH32 0xD7B6990105719101DABEB77144F2A3385C8033ACD3AF97E9423A695E81AD1EB5 ADD DUP1 SLOAD PUSH1 0x1 PUSH1 0x1 PUSH1 0xA0 SHL SUB NOT AND PUSH1 0x1 PUSH1 0x1 PUSH1 0xA0 SHL SUB SWAP3 SWAP1 SWAP3 AND SWAP2 SWAP1 SWAP2 OR SWAP1 SSTORE JUMP JUMPDEST PUSH1 0x0 DUP3 DUP2 MSTORE PUSH1 0x27 PUSH1 0x20 MSTORE PUSH1 0x40 SWAP1 KECCAK256 SLOAD PUSH1 0xFF AND ISZERO ISZERO PUSH1 0x1 EQ PUSH2 0x133C JUMPI PUSH1 0x0 DUP1 REVERT JUMPDEST PUSH1 0x0 DUP3 DUP2 MSTORE PUSH1 0x2E PUSH1 0x20 SWAP1 DUP2 MSTORE PUSH1 0x40 DUP1 DUP4 KECCAK256 CALLER DUP1 DUP6 MSTORE SWAP1 DUP4 MSTORE DUP2 DUP5 KECCAK256 SLOAD DUP7 DUP6 MSTORE PUSH1 0x2F DUP5 MSTORE DUP3 DUP6 KECCAK256 SWAP2 DUP6 MSTORE SWAP3 MSTORE DUP3 KECCAK256 SLOAD SWAP1 SWAP2 PUSH2 0x1376 DUP3 DUP5 PUSH2 0x4569 JUMP JUMPDEST PUSH1 0x0 DUP7 DUP2 MSTORE PUSH1 0x30 PUSH1 0x20 MSTORE PUSH1 0x40 DUP2 KECCAK256 SLOAD SWAP2 SWAP3 POP SWAP1 PUSH1 0x64 SWAP1 PUSH2 0x1397 SWAP1 DUP7 SWAP1 PUSH2 0x442F JUMP JUMPDEST PUSH2 0x13A1 SWAP2 SWAP1 PUSH2 0x444E JUMP JUMPDEST SWAP1 POP PUSH1 0x0 PUSH2 0x13AF DUP5 DUP4 PUSH2 0x4569 JUMP JUMPDEST SWAP1 POP PUSH1 0x0 DUP2 GT PUSH2 0x13BE JUMPI PUSH1 0x0 DUP1 REVERT JUMPDEST DUP1 DUP7 GT ISZERO PUSH2 0x13CB JUMPI PUSH1 0x0 DUP1 REVERT JUMPDEST DUP5 DUP5 LT PUSH2 0x13D7 JUMPI PUSH1 0x0 DUP1 REVERT JUMPDEST PUSH1 0x0 DUP7 GT PUSH2 0x13F7 JUMPI PUSH1 0x40 MLOAD PUSH3 0x461BCD PUSH1 0xE5 SHL DUP2 MSTORE PUSH1 0x4 ADD PUSH2 0xE21 SWAP1 PUSH2 0x44A6 JUMP JUMPDEST DUP6 DUP4 LT ISZERO PUSH2 0x1417 JUMPI PUSH1 0x40 MLOAD PUSH3 0x461BCD PUSH1 0xE5 SHL DUP2 MSTORE PUSH1 0x4 ADD PUSH2 0xE21 SWAP1 PUSH2 0x4580 JUMP JUMPDEST DUP5 PUSH2 0x1422 DUP8 DUP7 PUSH2 0x4538 JUMP JUMPDEST LT PUSH2 0x142C JUMPI PUSH1 0x0 DUP1 REVERT JUMPDEST PUSH1 0x0 DUP8 DUP2 MSTORE PUSH1 0x31 PUSH1 0x20 MSTORE PUSH1 0x40 SWAP1 DUP2 SWAP1 KECCAK256 SLOAD SWAP1 MLOAD PUSH4 0xA9059CBB PUSH1 0xE0 SHL DUP2 MSTORE PUSH1 0x1 PUSH1 0x1 PUSH1 0xA0 SHL SUB SWAP1 SWAP2 AND SWAP1 PUSH4 0xA9059CBB SWAP1 PUSH2 0x146B SWAP1 CALLER SWAP1 DUP11 SWAP1 PUSH1 0x4 ADD PUSH2 0x4470 JUMP JUMPDEST PUSH1 0x20 PUSH1 0x40 MLOAD DUP1 DUP4 SUB DUP2 PUSH1 0x0 DUP8 GAS CALL ISZERO DUP1 ISZERO PUSH2 0x148A JUMPI RETURNDATASIZE PUSH1 0x0 DUP1 RETURNDATACOPY RETURNDATASIZE PUSH1 0x0 REVERT JUMPDEST POP POP POP POP PUSH1 0x40 MLOAD RETURNDATASIZE PUSH1 0x1F NOT PUSH1 0x1F DUP3 ADD AND DUP3 ADD DUP1 PUSH1 0x40 MSTORE POP DUP2 ADD SWAP1 PUSH2 0x14AE SWAP2 SWAP1 PUSH2 0x4489 JUMP JUMPDEST POP PUSH1 0x0 DUP8 DUP2 MSTORE PUSH1 0x2F PUSH1 0x20 SWAP1 DUP2 MSTORE PUSH1 0x40 DUP1 DUP4 KECCAK256 CALLER DUP5 MSTORE SWAP1 SWAP2 MSTORE SWAP1 KECCAK256 SLOAD PUSH2 0x14D4 SWAP1 DUP8 SWAP1 PUSH2 0x4538 JUMP JUMPDEST PUSH1 0x0 SWAP8 DUP9 MSTORE PUSH1 0x2F PUSH1 0x20 SWAP1 DUP2 MSTORE PUSH1 0x40 DUP1 DUP11 KECCAK256 CALLER DUP12 MSTORE SWAP1 SWAP2 MSTORE SWAP1 SWAP8 KECCAK256 SWAP7 SWAP1 SWAP7 SSTORE POP POP POP POP POP POP JUMP JUMPDEST PUSH1 0x0 SLOAD PUSH1 0x1 PUSH1 0x1 PUSH1 0xA0 SHL SUB AND CALLER EQ PUSH2 0x1524 JUMPI PUSH1 0x40 MLOAD PUSH3 0x461BCD PUSH1 0xE5 SHL DUP2 MSTORE PUSH1 0x4 ADD PUSH2 0xE21 SWAP1 PUSH2 0x43E4 JUMP JUMPDEST PUSH1 0x1 SSTORE JUMP JUMPDEST PUSH1 0x1 PUSH1 0x1 PUSH1 0xA0 SHL SUB DUP3 AND PUSH1 0x0 SWAP1 DUP2 MSTORE PUSH1 0x7 PUSH1 0x20 MSTORE PUSH1 0x40 DUP2 KECCAK256 SLOAD PUSH2 0x154E JUMPI POP PUSH1 0x0 PUSH2 0x15AA JUMP JUMPDEST PUSH1 0x0 DUP1 PUSH2 0x155A DUP5 PUSH2 0x3C1C JUMP JUMPDEST SWAP1 SWAP3 POP SWAP1 POP PUSH2 0x156A DUP2 PUSH1 0xA PUSH2 0x46B0 JUMP JUMPDEST PUSH1 0x1 PUSH1 0x1 PUSH1 0xA0 SHL SUB DUP1 DUP7 AND PUSH1 0x0 SWAP1 DUP2 MSTORE PUSH1 0x2 PUSH1 0x20 SWAP1 DUP2 MSTORE PUSH1 0x40 DUP1 DUP4 KECCAK256 SWAP4 DUP11 AND DUP4 MSTORE SWAP3 SWAP1 MSTORE KECCAK256 SLOAD PUSH2 0x159B SWAP1 DUP5 SWAP1 PUSH2 0x442F JUMP JUMPDEST PUSH2 0x15A5 SWAP2 SWAP1 PUSH2 0x444E JUMP JUMPDEST SWAP3 POP POP POP JUMPDEST SWAP3 SWAP2 POP POP JUMP JUMPDEST PUSH1 0x1A DUP2 DUP2 SLOAD DUP2 LT PUSH2 0x15C0 JUMPI PUSH1 0x0 DUP1 REVERT JUMPDEST PUSH1 0x0 SWAP2 DUP3 MSTORE PUSH1 0x20 SWAP1 SWAP2 KECCAK256 ADD SLOAD PUSH1 0x1 PUSH1 0x1 PUSH1 0xA0 SHL SUB AND SWAP1 POP DUP2 JUMP JUMPDEST PUSH1 0x0 SLOAD PUSH1 0x1 PUSH1 0x1 PUSH1 0xA0 SHL SUB AND CALLER EQ PUSH2 0x1604 JUMPI PUSH1 0x40 MLOAD PUSH3 0x461BCD PUSH1 0xE5 SHL DUP2 MSTORE PUSH1 0x4 ADD PUSH2 0xE21 SWAP1 PUSH2 0x43E4 JUMP JUMPDEST PUSH1 0x0 SWAP2 DUP3 MSTORE PUSH1 0x31 PUSH1 0x20 MSTORE PUSH1 0x40 SWAP1 SWAP2 KECCAK256 DUP1 SLOAD PUSH1 0x1 PUSH1 0x1 PUSH1 0xA0 SHL SUB NOT AND PUSH1 0x1 PUSH1 0x1 PUSH1 0xA0 SHL SUB SWAP1 SWAP3 AND SWAP2 SWAP1 SWAP2 OR SWAP1 SSTORE JUMP JUMPDEST PUSH1 0x1 PUSH1 0x1 PUSH1 0xA0 SHL SUB DUP1 DUP4 AND PUSH1 0x0 DUP2 DUP2 MSTORE PUSH1 0x3 PUSH1 0x20 SWAP1 DUP2 MSTORE PUSH1 0x40 DUP1 DUP4 KECCAK256 SLOAD SWAP5 DUP7 AND DUP4 MSTORE PUSH1 0x2 DUP3 MSTORE DUP1 DUP4 KECCAK256 SWAP4 DUP4 MSTORE SWAP3 SWAP1 MSTORE SWAP1 DUP2 KECCAK256 SLOAD PUSH1 0x1 SLOAD SWAP2 SWAP3 SWAP2 TIMESTAMP SWAP2 SWAP1 DUP5 SWAP1 PUSH1 0x64 SWAP1 PUSH2 0x167E SWAP1 DUP5 SWAP1 PUSH2 0x442F JUMP JUMPDEST PUSH2 0x1688 SWAP2 SWAP1 PUSH2 0x444E JUMP JUMPDEST SWAP1 POP PUSH1 0x0 PUSH2 0x1699 PUSH3 0x80520 DUP4 PUSH2 0x444E JUMP JUMPDEST SWAP1 POP PUSH1 0x0 PUSH1 0x3C PUSH2 0x16A9 DUP8 DUP8 PUSH2 0x4569 JUMP JUMPDEST PUSH2 0x16B3 SWAP2 SWAP1 PUSH2 0x444E JUMP JUMPDEST SWAP1 POP PUSH1 0x0 PUSH2 0x16C1 DUP4 DUP4 PUSH2 0x442F JUMP JUMPDEST SWAP11 SWAP10 POP POP POP POP POP POP POP POP POP POP JUMP JUMPDEST PUSH1 0x0 SLOAD PUSH1 0x1 PUSH1 0x1 PUSH1 0xA0 SHL SUB AND CALLER EQ PUSH2 0x16F9 JUMPI PUSH1 0x40 MLOAD PUSH3 0x461BCD PUSH1 0xE5 SHL DUP2 MSTORE PUSH1 0x4 ADD PUSH2 0xE21 SWAP1 PUSH2 0x43E4 JUMP JUMPDEST PUSH1 0x6 SLOAD PUSH1 0x40 MLOAD PUSH4 0xA9059CBB PUSH1 0xE0 SHL DUP2 MSTORE PUSH1 0x1 PUSH1 0x1 PUSH1 0xA0 SHL SUB DUP4 AND SWAP2 PUSH4 0xA9059CBB SWAP2 PUSH2 0x1728 SWAP2 CALLER SWAP2 PUSH1 0x4 ADD PUSH2 0x4470 JUMP JUMPDEST PUSH1 0x20 PUSH1 0x40 MLOAD DUP1 DUP4 SUB DUP2 PUSH1 0x0 DUP8 GAS CALL ISZERO DUP1 ISZERO PUSH2 0x1747 JUMPI RETURNDATASIZE PUSH1 0x0 DUP1 RETURNDATACOPY RETURNDATASIZE PUSH1 0x0 REVERT JUMPDEST POP POP POP POP PUSH1 0x40 MLOAD RETURNDATASIZE PUSH1 0x1F NOT PUSH1 0x1F DUP3 ADD AND DUP3 ADD DUP1 PUSH1 0x40 MSTORE POP DUP2 ADD SWAP1 PUSH2 0x176B SWAP2 SWAP1 PUSH2 0x4489 JUMP JUMPDEST POP POP PUSH1 0x0 PUSH1 0x6 SSTORE JUMP JUMPDEST CALLER PUSH1 0x0 SWAP1 DUP2 MSTORE PUSH1 0x14 PUSH1 0x20 SWAP1 DUP2 MSTORE PUSH1 0x40 DUP1 DUP4 KECCAK256 SLOAD PUSH1 0x16 SWAP1 SWAP3 MSTORE DUP3 KECCAK256 SLOAD SWAP1 SWAP2 PUSH2 0x179B DUP3 DUP5 PUSH2 0x4569 JUMP JUMPDEST SWAP1 POP PUSH1 0x0 PUSH1 0x64 DUP5 PUSH1 0x17 SLOAD PUSH2 0x17AF SWAP2 SWAP1 PUSH2 0x442F JUMP JUMPDEST PUSH2 0x17B9 SWAP2 SWAP1 PUSH2 0x444E JUMP JUMPDEST SWAP1 POP PUSH1 0x0 PUSH2 0x17C7 DUP5 DUP4 PUSH2 0x4569 JUMP JUMPDEST SWAP1 POP PUSH1 0x0 DUP2 GT PUSH2 0x17D6 JUMPI PUSH1 0x0 DUP1 REVERT JUMPDEST DUP1 DUP7 GT ISZERO PUSH2 0x17E3 JUMPI PUSH1 0x0 DUP1 REVERT JUMPDEST DUP5 DUP5 LT PUSH2 0x17EF JUMPI PUSH1 0x0 DUP1 REVERT JUMPDEST PUSH1 0x0 DUP7 GT PUSH2 0x180F JUMPI PUSH1 0x40 MLOAD PUSH3 0x461BCD PUSH1 0xE5 SHL DUP2 MSTORE PUSH1 0x4 ADD PUSH2 0xE21 SWAP1 PUSH2 0x44A6 JUMP JUMPDEST DUP6 DUP4 LT ISZERO PUSH2 0x182F JUMPI PUSH1 0x40 MLOAD PUSH3 0x461BCD PUSH1 0xE5 SHL DUP2 MSTORE PUSH1 0x4 ADD PUSH2 0xE21 SWAP1 PUSH2 0x4580 JUMP JUMPDEST DUP5 PUSH2 0x183A DUP8 DUP7 PUSH2 0x4538 JUMP JUMPDEST LT PUSH2 0x1844 JUMPI PUSH1 0x0 DUP1 REVERT JUMPDEST PUSH1 0xF SLOAD PUSH1 0x40 MLOAD PUSH4 0xA9059CBB PUSH1 0xE0 SHL DUP2 MSTORE PUSH1 0x1 PUSH1 0x1 PUSH1 0xA0 SHL SUB SWAP1 SWAP2 AND SWAP1 PUSH4 0xA9059CBB SWAP1 PUSH2 0x1876 SWAP1 CALLER SWAP1 DUP11 SWAP1 PUSH1 0x4 ADD PUSH2 0x4470 JUMP JUMPDEST PUSH1 0x20 PUSH1 0x40 MLOAD DUP1 DUP4 SUB DUP2 PUSH1 0x0 DUP8 GAS CALL ISZERO DUP1 ISZERO PUSH2 0x1895 JUMPI RETURNDATASIZE PUSH1 0x0 DUP1 RETURNDATACOPY RETURNDATASIZE PUSH1 0x0 REVERT JUMPDEST POP POP POP POP PUSH1 0x40 MLOAD RETURNDATASIZE PUSH1 0x1F NOT PUSH1 0x1F DUP3 ADD AND DUP3 ADD DUP1 PUSH1 0x40 MSTORE POP DUP2 ADD SWAP1 PUSH2 0x18B9 SWAP2 SWAP1 PUSH2 0x4489 JUMP JUMPDEST POP CALLER PUSH1 0x0 SWAP1 DUP2 MSTORE PUSH1 0x16 PUSH1 0x20 MSTORE PUSH1 0x40 SWAP1 KECCAK256 SLOAD PUSH2 0x18D5 SWAP1 DUP8 SWAP1 PUSH2 0x4538 JUMP JUMPDEST CALLER PUSH1 0x0 SWAP1 DUP2 MSTORE PUSH1 0x16 PUSH1 0x20 MSTORE PUSH1 0x40 SWAP1 KECCAK256 SSTORE POP POP POP POP POP POP JUMP JUMPDEST PUSH1 0x0 SLOAD PUSH1 0x1 PUSH1 0x1 PUSH1 0xA0 SHL SUB AND CALLER EQ PUSH2 0x1917 JUMPI PUSH1 0x40 MLOAD PUSH3 0x461BCD PUSH1 0xE5 SHL DUP2 MSTORE PUSH1 0x4 ADD PUSH2 0xE21 SWAP1 PUSH2 0x43E4 JUMP JUMPDEST PUSH1 0x0 SWAP2 DUP3 MSTORE PUSH1 0x25 PUSH1 0x20 MSTORE PUSH1 0x40 SWAP1 SWAP2 KECCAK256 DUP1 SLOAD PUSH1 0xFF NOT AND SWAP2 ISZERO ISZERO SWAP2 SWAP1 SWAP2 OR SWAP1 SSTORE JUMP JUMPDEST PUSH1 0x0 SLOAD PUSH1 0x1 PUSH1 0x1 PUSH1 0xA0 SHL SUB AND CALLER EQ PUSH2 0x1961 JUMPI PUSH1 0x40 MLOAD PUSH3 0x461BCD PUSH1 0xE5 SHL DUP2 MSTORE PUSH1 0x4 ADD PUSH2 0xE21 SWAP1 PUSH2 0x43E4 JUMP JUMPDEST PUSH1 0x15 SSTORE JUMP JUMPDEST PUSH1 0x0 SLOAD PUSH1 0x1 PUSH1 0x1 PUSH1 0xA0 SHL SUB AND CALLER EQ PUSH2 0x1990 JUMPI PUSH1 0x40 MLOAD PUSH3 0x461BCD PUSH1 0xE5 SHL DUP2 MSTORE PUSH1 0x4 ADD PUSH2 0xE21 SWAP1 PUSH2 0x43E4 JUMP JUMPDEST PUSH1 0x0 SWAP2 DUP3 MSTORE PUSH1 0x30 PUSH1 0x20 MSTORE PUSH1 0x40 SWAP1 SWAP2 KECCAK256 SSTORE JUMP JUMPDEST PUSH1 0x0 DUP3 GT PUSH2 0x19C2 JUMPI PUSH1 0x40 MLOAD PUSH3 0x461BCD PUSH1 0xE5 SHL DUP2 MSTORE PUSH1 0x4 ADD PUSH2 0xE21 SWAP1 PUSH2 0x44A6 JUMP JUMPDEST PUSH2 0x19CB DUP2 PUSH2 0x320C JUMP JUMPDEST PUSH2 0x19E7 JUMPI PUSH1 0x40 MLOAD PUSH3 0x461BCD PUSH1 0xE5 SHL DUP2 MSTORE PUSH1 0x4 ADD PUSH2 0xE21 SWAP1 PUSH2 0x44DD JUMP JUMPDEST PUSH1 0x40 MLOAD PUSH4 0x23B872DD PUSH1 0xE0 SHL DUP2 MSTORE PUSH1 0x1 PUSH1 0x1 PUSH1 0xA0 SHL SUB DUP3 AND SWAP1 PUSH4 0x23B872DD SWAP1 PUSH2 0x1A17 SWAP1 CALLER SWAP1 ADDRESS SWAP1 DUP8 SWAP1 PUSH1 0x4 ADD PUSH2 0x4514 JUMP JUMPDEST PUSH1 0x20 PUSH1 0x40 MLOAD DUP1 DUP4 SUB DUP2 PUSH1 0x0 DUP8 GAS CALL ISZERO DUP1 ISZERO PUSH2 0x1A36 JUMPI RETURNDATASIZE PUSH1 0x0 DUP1 RETURNDATACOPY RETURNDATASIZE PUSH1 0x0 REVERT JUMPDEST POP POP POP POP PUSH1 0x40 MLOAD RETURNDATASIZE PUSH1 0x1F NOT PUSH1 0x1F DUP3 ADD AND DUP3 ADD DUP1 PUSH1 0x40 MSTORE POP DUP2 ADD SWAP1 PUSH2 0x1A5A SWAP2 SWAP1 PUSH2 0x4489 JUMP JUMPDEST POP PUSH1 0x40 MLOAD PUSH4 0x70A08231 PUSH1 0xE0 SHL DUP2 MSTORE ADDRESS PUSH1 0x4 DUP3 ADD MSTORE PUSH8 0xDE0B6B3A7640000 SWAP1 PUSH1 0x1 PUSH1 0x1 PUSH1 0xA0 SHL SUB DUP4 AND SWAP1 PUSH4 0x70A08231 SWAP1 PUSH1 0x24 ADD PUSH1 0x20 PUSH1 0x40 MLOAD DUP1 DUP4 SUB DUP2 DUP7 GAS STATICCALL ISZERO DUP1 ISZERO PUSH2 0x1AA9 JUMPI RETURNDATASIZE PUSH1 0x0 DUP1 RETURNDATACOPY RETURNDATASIZE PUSH1 0x0 REVERT JUMPDEST POP POP POP POP PUSH1 0x40 MLOAD RETURNDATASIZE PUSH1 0x1F NOT PUSH1 0x1F DUP3 ADD AND DUP3 ADD DUP1 PUSH1 0x40 MSTORE POP DUP2 ADD SWAP1 PUSH2 0x1ACD SWAP2 SWAP1 PUSH2 0x4550 JUMP JUMPDEST PUSH2 0x1AD7 SWAP2 SWAP1 PUSH2 0x444E JUMP JUMPDEST PUSH1 0x1D SSTORE PUSH2 0x1AE4 CALLER DUP3 PUSH2 0x40DE JUMP JUMPDEST PUSH1 0x1 PUSH1 0x1 PUSH1 0xA0 SHL SUB DUP2 AND PUSH1 0x0 SWAP1 DUP2 MSTORE PUSH1 0x10 PUSH1 0x20 SWAP1 DUP2 MSTORE PUSH1 0x40 DUP1 DUP4 KECCAK256 CALLER DUP5 MSTORE SWAP1 SWAP2 MSTORE SWAP1 KECCAK256 SLOAD PUSH2 0x1B13 SWAP1 DUP4 SWAP1 PUSH2 0x4538 JUMP JUMPDEST PUSH1 0x1 PUSH1 0x1 PUSH1 0xA0 SHL SUB DUP3 AND PUSH1 0x0 SWAP1 DUP2 MSTORE PUSH1 0x10 PUSH1 0x20 SWAP1 DUP2 MSTORE PUSH1 0x40 DUP1 DUP4 KECCAK256 CALLER DUP5 MSTORE SWAP1 SWAP2 MSTORE SWAP1 KECCAK256 SSTORE PUSH1 0x15 SLOAD PUSH2 0x1B44 SWAP1 DUP4 PUSH2 0x442F JUMP JUMPDEST CALLER PUSH1 0x0 SWAP1 DUP2 MSTORE PUSH1 0x14 PUSH1 0x20 MSTORE PUSH1 0x40 SWAP1 KECCAK256 SLOAD PUSH2 0x1B5E SWAP2 SWAP1 PUSH2 0x4538 JUMP JUMPDEST CALLER PUSH1 0x0 SWAP1 DUP2 MSTORE PUSH1 0x14 PUSH1 0x20 SWAP1 DUP2 MSTORE PUSH1 0x40 DUP1 DUP4 KECCAK256 SWAP4 SWAP1 SWAP4 SSTORE PUSH1 0x1 PUSH1 0x1 PUSH1 0xA0 SHL SUB DUP5 AND DUP3 MSTORE PUSH1 0x11 SWAP1 MSTORE KECCAK256 SLOAD PUSH2 0x1B91 SWAP1 DUP4 SWAP1 PUSH2 0x4538 JUMP JUMPDEST PUSH1 0x1 PUSH1 0x1 PUSH1 0xA0 SHL SUB DUP3 AND PUSH1 0x0 SWAP1 DUP2 MSTORE PUSH1 0x11 PUSH1 0x20 SWAP1 DUP2 MSTORE PUSH1 0x40 DUP1 DUP4 KECCAK256 SWAP4 SWAP1 SWAP4 SSTORE PUSH1 0x12 SWAP1 MSTORE KECCAK256 SLOAD PUSH2 0x1BC1 SWAP1 DUP4 SWAP1 PUSH2 0x4538 JUMP JUMPDEST PUSH1 0x1 PUSH1 0x1 PUSH1 0xA0 SHL SUB DUP3 AND PUSH1 0x0 SWAP1 DUP2 MSTORE PUSH1 0x12 PUSH1 0x20 MSTORE PUSH1 0x40 SWAP1 KECCAK256 SSTORE PUSH1 0x13 SLOAD PUSH2 0x1BE8 SWAP1 DUP4 SWAP1 PUSH2 0x4538 JUMP JUMPDEST PUSH1 0x13 SSTORE CALLER PUSH1 0x0 SWAP1 DUP2 MSTORE PUSH1 0x1C PUSH1 0x20 MSTORE PUSH1 0x40 SWAP1 KECCAK256 SLOAD PUSH1 0x1 EQ ISZERO PUSH2 0x1106 JUMPI PUSH1 0x19 DUP1 SLOAD PUSH1 0x1 DUP2 ADD DUP3 SSTORE PUSH1 0x0 SWAP2 SWAP1 SWAP2 MSTORE PUSH32 0x944998273E477B495144FB8794C914197F3CCB46BE2900F4698FD0EF743C9695 ADD DUP1 SLOAD PUSH1 0x1 PUSH1 0x1 PUSH1 0xA0 SHL SUB NOT AND CALLER OR SWAP1 SSTORE POP POP JUMP JUMPDEST PUSH1 0xD DUP2 DUP2 SLOAD DUP2 LT PUSH2 0x15C0 JUMPI PUSH1 0x0 DUP1 REVERT JUMPDEST PUSH1 0x0 SLOAD PUSH1 0x1 PUSH1 0x1 PUSH1 0xA0 SHL SUB AND CALLER EQ PUSH2 0x1C83 JUMPI PUSH1 0x40 MLOAD PUSH3 0x461BCD PUSH1 0xE5 SHL DUP2 MSTORE PUSH1 0x4 ADD PUSH2 0xE21 SWAP1 PUSH2 0x43E4 JUMP JUMPDEST PUSH1 0x0 JUMPDEST PUSH1 0xC SLOAD DUP2 LT ISZERO PUSH2 0x1D50 JUMPI PUSH1 0x0 PUSH1 0xC DUP3 DUP2 SLOAD DUP2 LT PUSH2 0x1CA5 JUMPI PUSH2 0x1CA5 PUSH2 0x46BC JUMP JUMPDEST PUSH1 0x0 SWAP2 DUP3 MSTORE PUSH1 0x20 DUP3 KECCAK256 ADD SLOAD PUSH1 0x1 PUSH1 0x1 PUSH1 0xA0 SHL SUB AND SWAP2 POP PUSH2 0x1CC4 DUP3 PUSH2 0x314E JUMP JUMPDEST PUSH1 0xE SLOAD PUSH1 0x40 MLOAD PUSH4 0xA9059CBB PUSH1 0xE0 SHL DUP2 MSTORE SWAP2 SWAP3 POP PUSH1 0x1 PUSH1 0x1 PUSH1 0xA0 SHL SUB AND SWAP1 PUSH4 0xA9059CBB SWAP1 PUSH2 0x1CF7 SWAP1 DUP6 SWAP1 DUP6 SWAP1 PUSH1 0x4 ADD PUSH2 0x4470 JUMP JUMPDEST PUSH1 0x20 PUSH1 0x40 MLOAD DUP1 DUP4 SUB DUP2 PUSH1 0x0 DUP8 GAS CALL ISZERO DUP1 ISZERO PUSH2 0x1D16 JUMPI RETURNDATASIZE PUSH1 0x0 DUP1 RETURNDATACOPY RETURNDATASIZE PUSH1 0x0 REVERT JUMPDEST POP POP POP POP PUSH1 0x40 MLOAD RETURNDATASIZE PUSH1 0x1F NOT PUSH1 0x1F DUP3 ADD AND DUP3 ADD DUP1 PUSH1 0x40 MSTORE POP DUP2 ADD SWAP1 PUSH2 0x1D3A SWAP2 SWAP1 PUSH2 0x4489 JUMP JUMPDEST POP POP POP DUP1 DUP1 PUSH2 0x1D48 SWAP1 PUSH2 0x46D2 JUMP JUMPDEST SWAP2 POP POP PUSH2 0x1C86 JUMP JUMPDEST POP JUMP JUMPDEST PUSH1 0x0 SLOAD PUSH1 0x1 PUSH1 0x1 PUSH1 0xA0 SHL SUB AND CALLER EQ PUSH2 0x1D7D JUMPI PUSH1 0x40 MLOAD PUSH3 0x461BCD PUSH1 0xE5 SHL DUP2 MSTORE PUSH1 0x4 ADD PUSH2 0xE21 SWAP1 PUSH2 0x43E4 JUMP JUMPDEST PUSH1 0x1A DUP1 SLOAD PUSH1 0x1 DUP2 ADD DUP3 SSTORE PUSH1 0x0 SWAP2 SWAP1 SWAP2 MSTORE PUSH32 0x57C384A7D1C54F3A1B2E5E67B2617B8224FDFD1EA7234EEA573A6FF665FF63E ADD DUP1 SLOAD PUSH1 0x1 PUSH1 0x1 PUSH1 0xA0 SHL SUB NOT AND PUSH1 0x1 PUSH1 0x1 PUSH1 0xA0 SHL SUB SWAP3 SWAP1 SWAP3 AND SWAP2 SWAP1 SWAP2 OR SWAP1 SSTORE JUMP JUMPDEST PUSH1 0x1 PUSH1 0x1 PUSH1 0xA0 SHL SUB DUP2 AND PUSH1 0x0 SWAP1 DUP2 MSTORE PUSH1 0x14 PUSH1 0x20 SWAP1 DUP2 MSTORE PUSH1 0x40 DUP1 DUP4 KECCAK256 SLOAD PUSH1 0x16 SWAP1 SWAP3 MSTORE DUP3 KECCAK256 SLOAD PUSH1 0x17 SLOAD DUP4 SWAP1 PUSH1 0x64 SWAP1 PUSH2 0x1E06 SWAP1 DUP6 SWAP1 PUSH2 0x442F JUMP JUMPDEST PUSH2 0x1E10 SWAP2 SWAP1 PUSH2 0x444E JUMP JUMPDEST SWAP1 POP PUSH1 0x0 PUSH2 0x1E1E DUP4 DUP4 PUSH2 0x4569 JUMP JUMPDEST SWAP8 SWAP7 POP POP POP POP POP POP POP JUMP JUMPDEST PUSH1 0x0 SLOAD PUSH1 0x1 PUSH1 0x1 PUSH1 0xA0 SHL SUB AND CALLER EQ PUSH2 0x1E53 JUMPI PUSH1 0x40 MLOAD PUSH3 0x461BCD PUSH1 0xE5 SHL DUP2 MSTORE PUSH1 0x4 ADD PUSH2 0xE21 SWAP1 PUSH2 0x43E4 JUMP JUMPDEST PUSH1 0x40 MLOAD PUSH4 0x23B872DD PUSH1 0xE0 SHL DUP2 MSTORE PUSH1 0x1 PUSH1 0x1 PUSH1 0xA0 SHL SUB DUP4 AND SWAP1 PUSH4 0x23B872DD SWAP1 PUSH2 0x1E83 SWAP1 CALLER SWAP1 ADDRESS SWAP1 DUP7 SWAP1 PUSH1 0x4 ADD PUSH2 0x4514 JUMP JUMPDEST PUSH1 0x20 PUSH1 0x40 MLOAD DUP1 DUP4 SUB DUP2 PUSH1 0x0 DUP8 GAS CALL ISZERO DUP1 ISZERO PUSH2 0x1EA2 JUMPI RETURNDATASIZE PUSH1 0x0 DUP1 RETURNDATACOPY RETURNDATASIZE PUSH1 0x0 REVERT JUMPDEST POP POP POP POP PUSH1 0x40 MLOAD RETURNDATASIZE PUSH1 0x1F NOT PUSH1 0x1F DUP3 ADD AND DUP3 ADD DUP1 PUSH1 0x40 MSTORE POP DUP2 ADD SWAP1 PUSH2 0x1EC6 SWAP2 SWAP1 PUSH2 0x4489 JUMP JUMPDEST POP POP POP JUMP JUMPDEST PUSH1 0x0 SLOAD PUSH1 0x1 PUSH1 0x1 PUSH1 0xA0 SHL SUB AND CALLER EQ PUSH2 0x1EF5 JUMPI PUSH1 0x40 MLOAD PUSH3 0x461BCD PUSH1 0xE5 SHL DUP2 MSTORE PUSH1 0x4 ADD PUSH2 0xE21 SWAP1 PUSH2 0x43E4 JUMP JUMPDEST PUSH1 0xF DUP1 SLOAD PUSH1 0x1 PUSH1 0x1 PUSH1 0xA0 SHL SUB NOT AND PUSH1 0x1 PUSH1 0x1 PUSH1 0xA0 SHL SUB SWAP3 SWAP1 SWAP3 AND SWAP2 SWAP1 SWAP2 OR SWAP1 SSTORE JUMP JUMPDEST PUSH1 0x0 DUP1 PUSH2 0x1F22 PUSH2 0x3004 JUMP JUMPDEST SWAP1 POP PUSH1 0x0 PUSH8 0xDE0B6B3A7640000 PUSH2 0x1F39 DUP6 DUP5 PUSH2 0x442F JUMP JUMPDEST PUSH2 0x1F43 SWAP2 SWAP1 PUSH2 0x444E JUMP JUMPDEST SWAP5 SWAP4 POP POP POP POP JUMP JUMPDEST PUSH1 0x0 SLOAD PUSH1 0x1 PUSH1 0x1 PUSH1 0xA0 SHL SUB AND CALLER EQ PUSH2 0x1F75 JUMPI PUSH1 0x40 MLOAD PUSH3 0x461BCD PUSH1 0xE5 SHL DUP2 MSTORE PUSH1 0x4 ADD PUSH2 0xE21 SWAP1 PUSH2 0x43E4 JUMP JUMPDEST PUSH2 0x1F7F PUSH1 0x0 PUSH2 0x4149 JUMP JUMPDEST JUMP JUMPDEST PUSH1 0x0 DUP3 DUP2 MSTORE PUSH1 0x1F PUSH1 0x20 MSTORE PUSH1 0x40 SWAP1 KECCAK256 SLOAD PUSH1 0xFF AND ISZERO ISZERO PUSH1 0x1 EQ PUSH2 0x1FA1 JUMPI PUSH1 0x0 DUP1 REVERT JUMPDEST PUSH1 0x1 PUSH1 0x1 PUSH1 0xA0 SHL SUB DUP2 AND PUSH1 0x0 SWAP1 DUP2 MSTORE PUSH1 0x2 PUSH1 0x20 SWAP1 DUP2 MSTORE PUSH1 0x40 DUP1 DUP4 KECCAK256 CALLER DUP5 MSTORE SWAP1 SWAP2 MSTORE SWAP1 KECCAK256 SLOAD PUSH9 0x5150AE84A8CDF00000 GT ISZERO PUSH2 0x1FDA JUMPI PUSH1 0x0 DUP1 REVERT JUMPDEST PUSH1 0x0 PUSH2 0x1FE6 CALLER DUP4 PUSH2 0x206B JUMP JUMPDEST GT PUSH2 0x1FF0 JUMPI PUSH1 0x0 DUP1 REVERT JUMPDEST PUSH1 0x0 PUSH2 0x1FFC CALLER DUP4 PUSH2 0x206B JUMP JUMPDEST PUSH1 0x0 DUP2 DUP2 MSTORE PUSH1 0x21 PUSH1 0x20 MSTORE PUSH1 0x40 SWAP1 KECCAK256 SLOAD SWAP1 SWAP2 POP PUSH2 0x2019 SWAP1 PUSH1 0x1 PUSH2 0x4538 JUMP JUMPDEST PUSH1 0x0 DUP3 DUP2 MSTORE PUSH1 0x21 PUSH1 0x20 SWAP1 DUP2 MSTORE PUSH1 0x40 DUP1 DUP4 KECCAK256 SWAP4 SWAP1 SWAP4 SSTORE CALLER DUP3 MSTORE PUSH1 0x23 SWAP1 MSTORE KECCAK256 SSTORE POP POP JUMP JUMPDEST PUSH1 0x0 DUP1 PUSH2 0x2048 DUP5 DUP5 PUSH2 0x1632 JUMP JUMPDEST PUSH1 0x1 PUSH1 0x1 PUSH1 0xA0 SHL SUB DUP6 AND PUSH1 0x0 SWAP1 DUP2 MSTORE PUSH1 0x4 PUSH1 0x20 MSTORE PUSH1 0x40 SWAP1 KECCAK256 SLOAD PUSH2 0x1F43 SWAP2 SWAP1 PUSH2 0x4538 JUMP JUMPDEST PUSH1 0x20 SLOAD PUSH1 0x0 SWAP1 DUP2 SWAP1 PUSH2 0x207E SWAP1 PUSH1 0x96 PUSH2 0x442F JUMP JUMPDEST PUSH2 0x2090 SWAP1 PUSH8 0xDE0B6B3A7640000 PUSH2 0x442F JUMP JUMPDEST PUSH1 0x1 PUSH1 0x1 PUSH1 0xA0 SHL SUB DUP1 DUP6 AND PUSH1 0x0 SWAP1 DUP2 MSTORE PUSH1 0x2 PUSH1 0x20 SWAP1 DUP2 MSTORE PUSH1 0x40 DUP1 DUP4 KECCAK256 SWAP4 DUP10 AND DUP4 MSTORE SWAP3 SWAP1 MSTORE KECCAK256 SLOAD LT PUSH2 0x20C5 JUMPI POP PUSH1 0x1C SWAP1 POP PUSH2 0x15AA JUMP JUMPDEST PUSH1 0x20 SLOAD PUSH2 0x20D3 SWAP1 PUSH1 0x8C PUSH2 0x442F JUMP JUMPDEST PUSH2 0x20E5 SWAP1 PUSH8 0xDE0B6B3A7640000 PUSH2 0x442F JUMP JUMPDEST PUSH1 0x1 PUSH1 0x1 PUSH1 0xA0 SHL SUB DUP1 DUP6 AND PUSH1 0x0 SWAP1 DUP2 MSTORE PUSH1 0x2 PUSH1 0x20 SWAP1 DUP2 MSTORE PUSH1 0x40 DUP1 DUP4 KECCAK256 SWAP4 DUP10 AND DUP4 MSTORE SWAP3 SWAP1 MSTORE KECCAK256 SLOAD LT PUSH2 0x211A JUMPI POP PUSH1 0x1B SWAP1 POP PUSH2 0x15AA JUMP JUMPDEST PUSH1 0x20 SLOAD PUSH2 0x2128 SWAP1 PUSH1 0x82 PUSH2 0x442F JUMP JUMPDEST PUSH2 0x213A SWAP1 PUSH8 0xDE0B6B3A7640000 PUSH2 0x442F JUMP JUMPDEST PUSH1 0x1 PUSH1 0x1 PUSH1 0xA0 SHL SUB DUP1 DUP6 AND PUSH1 0x0 SWAP1 DUP2 MSTORE PUSH1 0x2 PUSH1 0x20 SWAP1 DUP2 MSTORE PUSH1 0x40 DUP1 DUP4 KECCAK256 SWAP4 DUP10 AND DUP4 MSTORE SWAP3 SWAP1 MSTORE KECCAK256 SLOAD LT PUSH2 0x216F JUMPI POP PUSH1 0x1A SWAP1 POP PUSH2 0x15AA JUMP JUMPDEST PUSH1 0x20 SLOAD PUSH2 0x217D SWAP1 PUSH1 0x78 PUSH2 0x442F JUMP JUMPDEST PUSH2 0x218F SWAP1 PUSH8 0xDE0B6B3A7640000 PUSH2 0x442F JUMP JUMPDEST PUSH1 0x1 PUSH1 0x1 PUSH1 0xA0 SHL SUB DUP1 DUP6 AND PUSH1 0x0 SWAP1 DUP2 MSTORE PUSH1 0x2 PUSH1 0x20 SWAP1 DUP2 MSTORE PUSH1 0x40 DUP1 DUP4 KECCAK256 SWAP4 DUP10 AND DUP4 MSTORE SWAP3 SWAP1 MSTORE KECCAK256 SLOAD LT PUSH2 0x21C4 JUMPI POP PUSH1 0x19 SWAP1 POP PUSH2 0x15AA JUMP JUMPDEST PUSH1 0x20 SLOAD PUSH2 0x21D2 SWAP1 PUSH1 0x6E PUSH2 0x442F JUMP JUMPDEST PUSH2 0x21E4 SWAP1 PUSH8 0xDE0B6B3A7640000 PUSH2 0x442F JUMP JUMPDEST PUSH1 0x1 PUSH1 0x1 PUSH1 0xA0 SHL SUB DUP1 DUP6 AND PUSH1 0x0 SWAP1 DUP2 MSTORE PUSH1 0x2 PUSH1 0x20 SWAP1 DUP2 MSTORE PUSH1 0x40 DUP1 DUP4 KECCAK256 SWAP4 DUP10 AND DUP4 MSTORE SWAP3 SWAP1 MSTORE KECCAK256 SLOAD LT PUSH2 0x2219 JUMPI POP PUSH1 0x18 SWAP1 POP PUSH2 0x15AA JUMP JUMPDEST PUSH1 0x20 SLOAD PUSH2 0x2227 SWAP1 PUSH1 0x64 PUSH2 0x442F JUMP JUMPDEST PUSH2 0x2239 SWAP1 PUSH8 0xDE0B6B3A7640000 PUSH2 0x442F JUMP JUMPDEST PUSH1 0x1 PUSH1 0x1 PUSH1 0xA0 SHL SUB DUP1 DUP6 AND PUSH1 0x0 SWAP1 DUP2 MSTORE PUSH1 0x2 PUSH1 0x20 SWAP1 DUP2 MSTORE PUSH1 0x40 DUP1 DUP4 KECCAK256 SWAP4 DUP10 AND DUP4 MSTORE SWAP3 SWAP1 MSTORE KECCAK256 SLOAD LT PUSH2 0x226E JUMPI POP PUSH1 0x17 SWAP1 POP PUSH2 0x15AA JUMP JUMPDEST PUSH1 0x20 SLOAD PUSH2 0x227C SWAP1 PUSH1 0x5A PUSH2 0x442F JUMP JUMPDEST PUSH2 0x228E SWAP1 PUSH8 0xDE0B6B3A7640000 PUSH2 0x442F JUMP JUMPDEST PUSH1 0x1 PUSH1 0x1 PUSH1 0xA0 SHL SUB DUP1 DUP6 AND PUSH1 0x0 SWAP1 DUP2 MSTORE PUSH1 0x2 PUSH1 0x20 SWAP1 DUP2 MSTORE PUSH1 0x40 DUP1 DUP4 KECCAK256 SWAP4 DUP10 AND DUP4 MSTORE SWAP3 SWAP1 MSTORE KECCAK256 SLOAD LT PUSH2 0x22C3 JUMPI POP PUSH1 0x16 SWAP1 POP PUSH2 0x15AA JUMP JUMPDEST PUSH1 0x20 SLOAD PUSH2 0x22D1 SWAP1 PUSH1 0x50 PUSH2 0x442F JUMP JUMPDEST PUSH2 0x22E3 SWAP1 PUSH8 0xDE0B6B3A7640000 PUSH2 0x442F JUMP JUMPDEST PUSH1 0x1 PUSH1 0x1 PUSH1 0xA0 SHL SUB DUP1 DUP6 AND PUSH1 0x0 SWAP1 DUP2 MSTORE PUSH1 0x2 PUSH1 0x20 SWAP1 DUP2 MSTORE PUSH1 0x40 DUP1 DUP4 KECCAK256 SWAP4 DUP10 AND DUP4 MSTORE SWAP3 SWAP1 MSTORE KECCAK256 SLOAD LT PUSH2 0x2318 JUMPI POP PUSH1 0x15 SWAP1 POP PUSH2 0x15AA JUMP JUMPDEST PUSH1 0x20 SLOAD PUSH2 0x2326 SWAP1 PUSH1 0x46 PUSH2 0x442F JUMP JUMPDEST PUSH2 0x2338 SWAP1 PUSH8 0xDE0B6B3A7640000 PUSH2 0x442F JUMP JUMPDEST PUSH1 0x1 PUSH1 0x1 PUSH1 0xA0 SHL SUB DUP1 DUP6 AND PUSH1 0x0 SWAP1 DUP2 MSTORE PUSH1 0x2 PUSH1 0x20 SWAP1 DUP2 MSTORE PUSH1 0x40 DUP1 DUP4 KECCAK256 SWAP4 DUP10 AND DUP4 MSTORE SWAP3 SWAP1 MSTORE KECCAK256 SLOAD LT PUSH2 0x236D JUMPI POP PUSH1 0x14 SWAP1 POP PUSH2 0x15AA JUMP JUMPDEST PUSH1 0x20 SLOAD PUSH2 0x237B SWAP1 PUSH1 0x3C PUSH2 0x442F JUMP JUMPDEST PUSH2 0x238D SWAP1 PUSH8 0xDE0B6B3A7640000 PUSH2 0x442F JUMP JUMPDEST PUSH1 0x1 PUSH1 0x1 PUSH1 0xA0 SHL SUB DUP1 DUP6 AND PUSH1 0x0 SWAP1 DUP2 MSTORE PUSH1 0x2 PUSH1 0x20 SWAP1 DUP2 MSTORE PUSH1 0x40 DUP1 DUP4 KECCAK256 SWAP4 DUP10 AND DUP4 MSTORE SWAP3 SWAP1 MSTORE KECCAK256 SLOAD LT PUSH2 0x23C2 JUMPI POP PUSH1 0x13 SWAP1 POP PUSH2 0x15AA JUMP JUMPDEST PUSH1 0x20 SLOAD PUSH2 0x23D0 SWAP1 PUSH1 0x32 PUSH2 0x442F JUMP JUMPDEST PUSH2 0x23E2 SWAP1 PUSH8 0xDE0B6B3A7640000 PUSH2 0x442F JUMP JUMPDEST PUSH1 0x1 PUSH1 0x1 PUSH1 0xA0 SHL SUB DUP1 DUP6 AND PUSH1 0x0 SWAP1 DUP2 MSTORE PUSH1 0x2 PUSH1 0x20 SWAP1 DUP2 MSTORE PUSH1 0x40 DUP1 DUP4 KECCAK256 SWAP4 DUP10 AND DUP4 MSTORE SWAP3 SWAP1 MSTORE KECCAK256 SLOAD LT PUSH2 0x2417 JUMPI POP PUSH1 0x12 SWAP1 POP PUSH2 0x15AA JUMP JUMPDEST PUSH1 0x20 SLOAD PUSH2 0x2425 SWAP1 PUSH1 0x2D PUSH2 0x442F JUMP JUMPDEST PUSH2 0x2437 SWAP1 PUSH8 0xDE0B6B3A7640000 PUSH2 0x442F JUMP JUMPDEST PUSH1 0x1 PUSH1 0x1 PUSH1 0xA0 SHL SUB DUP1 DUP6 AND PUSH1 0x0 SWAP1 DUP2 MSTORE PUSH1 0x2 PUSH1 0x20 SWAP1 DUP2 MSTORE PUSH1 0x40 DUP1 DUP4 KECCAK256 SWAP4 DUP10 AND DUP4 MSTORE SWAP3 SWAP1 MSTORE KECCAK256 SLOAD LT PUSH2 0x246C JUMPI POP PUSH1 0x11 SWAP1 POP PUSH2 0x15AA JUMP JUMPDEST PUSH1 0x20 SLOAD PUSH2 0x247A SWAP1 PUSH1 0x28 PUSH2 0x442F JUMP JUMPDEST PUSH2 0x248C SWAP1 PUSH8 0xDE0B6B3A7640000 PUSH2 0x442F JUMP JUMPDEST PUSH1 0x1 PUSH1 0x1 PUSH1 0xA0 SHL SUB DUP1 DUP6 AND PUSH1 0x0 SWAP1 DUP2 MSTORE PUSH1 0x2 PUSH1 0x20 SWAP1 DUP2 MSTORE PUSH1 0x40 DUP1 DUP4 KECCAK256 SWAP4 DUP10 AND DUP4 MSTORE SWAP3 SWAP1 MSTORE KECCAK256 SLOAD LT PUSH2 0x24C1 JUMPI POP PUSH1 0x10 SWAP1 POP PUSH2 0x15AA JUMP JUMPDEST PUSH1 0x20 SLOAD PUSH2 0x24CF SWAP1 PUSH1 0x23 PUSH2 0x442F JUMP JUMPDEST PUSH2 0x24E1 SWAP1 PUSH8 0xDE0B6B3A7640000 PUSH2 0x442F JUMP JUMPDEST PUSH1 0x1 PUSH1 0x1 PUSH1 0xA0 SHL SUB DUP1 DUP6 AND PUSH1 0x0 SWAP1 DUP2 MSTORE PUSH1 0x2 PUSH1 0x20 SWAP1 DUP2 MSTORE PUSH1 0x40 DUP1 DUP4 KECCAK256 SWAP4 DUP10 AND DUP4 MSTORE SWAP3 SWAP1 MSTORE KECCAK256 SLOAD LT PUSH2 0x2516 JUMPI POP PUSH1 0xF SWAP1 POP PUSH2 0x15AA JUMP JUMPDEST PUSH1 0x20 SLOAD PUSH2 0x2524 SWAP1 PUSH1 0x1E PUSH2 0x442F JUMP JUMPDEST PUSH2 0x2536 SWAP1 PUSH8 0xDE0B6B3A7640000 PUSH2 0x442F JUMP JUMPDEST PUSH1 0x1 PUSH1 0x1 PUSH1 0xA0 SHL SUB DUP1 DUP6 AND PUSH1 0x0 SWAP1 DUP2 MSTORE PUSH1 0x2 PUSH1 0x20 SWAP1 DUP2 MSTORE PUSH1 0x40 DUP1 DUP4 KECCAK256 SWAP4 DUP10 AND DUP4 MSTORE SWAP3 SWAP1 MSTORE KECCAK256 SLOAD LT PUSH2 0x256B JUMPI POP PUSH1 0xE SWAP1 POP PUSH2 0x15AA JUMP JUMPDEST PUSH1 0x20 SLOAD PUSH2 0x2579 SWAP1 PUSH1 0x19 PUSH2 0x442F JUMP JUMPDEST PUSH2 0x258B SWAP1 PUSH8 0xDE0B6B3A7640000 PUSH2 0x442F JUMP JUMPDEST PUSH1 0x1 PUSH1 0x1 PUSH1 0xA0 SHL SUB DUP1 DUP6 AND PUSH1 0x0 SWAP1 DUP2 MSTORE PUSH1 0x2 PUSH1 0x20 SWAP1 DUP2 MSTORE PUSH1 0x40 DUP1 DUP4 KECCAK256 SWAP4 DUP10 AND DUP4 MSTORE SWAP3 SWAP1 MSTORE KECCAK256 SLOAD LT PUSH2 0x25C0 JUMPI POP PUSH1 0xD SWAP1 POP PUSH2 0x15AA JUMP JUMPDEST PUSH1 0x20 SLOAD PUSH2 0x25CE SWAP1 PUSH1 0x14 PUSH2 0x442F JUMP JUMPDEST PUSH2 0x25E0 SWAP1 PUSH8 0xDE0B6B3A7640000 PUSH2 0x442F JUMP JUMPDEST PUSH1 0x1 PUSH1 0x1 PUSH1 0xA0 SHL SUB DUP1 DUP6 AND PUSH1 0x0 SWAP1 DUP2 MSTORE PUSH1 0x2 PUSH1 0x20 SWAP1 DUP2 MSTORE PUSH1 0x40 DUP1 DUP4 KECCAK256 SWAP4 DUP10 AND DUP4 MSTORE SWAP3 SWAP1 MSTORE KECCAK256 SLOAD LT PUSH2 0x2615 JUMPI POP PUSH1 0xC SWAP1 POP PUSH2 0x15AA JUMP JUMPDEST PUSH1 0x20 SLOAD PUSH2 0x2623 SWAP1 PUSH1 0xF PUSH2 0x442F JUMP JUMPDEST PUSH2 0x2635 SWAP1 PUSH8 0xDE0B6B3A7640000 PUSH2 0x442F JUMP JUMPDEST PUSH1 0x1 PUSH1 0x1 PUSH1 0xA0 SHL SUB DUP1 DUP6 AND PUSH1 0x0 SWAP1 DUP2 MSTORE PUSH1 0x2 PUSH1 0x20 SWAP1 DUP2 MSTORE PUSH1 0x40 DUP1 DUP4 KECCAK256 SWAP4 DUP10 AND DUP4 MSTORE SWAP3 SWAP1 MSTORE KECCAK256 SLOAD LT PUSH2 0x266A JUMPI POP PUSH1 0xB SWAP1 POP PUSH2 0x15AA JUMP JUMPDEST PUSH1 0x20 SLOAD PUSH2 0x2678 SWAP1 PUSH1 0xA PUSH2 0x442F JUMP JUMPDEST PUSH2 0x268A SWAP1 PUSH8 0xDE0B6B3A7640000 PUSH2 0x442F JUMP JUMPDEST PUSH1 0x1 PUSH1 0x1 PUSH1 0xA0 SHL SUB DUP1 DUP6 AND PUSH1 0x0 SWAP1 DUP2 MSTORE PUSH1 0x2 PUSH1 0x20 SWAP1 DUP2 MSTORE PUSH1 0x40 DUP1 DUP4 KECCAK256 SWAP4 DUP10 AND DUP4 MSTORE SWAP3 SWAP1 MSTORE KECCAK256 SLOAD LT PUSH2 0x26BF JUMPI POP PUSH1 0xA SWAP1 POP PUSH2 0x15AA JUMP JUMPDEST PUSH1 0x20 SLOAD PUSH2 0x26CD SWAP1 PUSH1 0x9 PUSH2 0x442F JUMP JUMPDEST PUSH2 0x26DF SWAP1 PUSH8 0xDE0B6B3A7640000 PUSH2 0x442F JUMP JUMPDEST PUSH1 0x1 PUSH1 0x1 PUSH1 0xA0 SHL SUB DUP1 DUP6 AND PUSH1 0x0 SWAP1 DUP2 MSTORE PUSH1 0x2 PUSH1 0x20 SWAP1 DUP2 MSTORE PUSH1 0x40 DUP1 DUP4 KECCAK256 SWAP4 DUP10 AND DUP4 MSTORE SWAP3 SWAP1 MSTORE KECCAK256 SLOAD LT PUSH2 0x2714 JUMPI POP PUSH1 0x9 SWAP1 POP PUSH2 0x15AA JUMP JUMPDEST PUSH1 0x20 SLOAD PUSH2 0x2722 SWAP1 PUSH1 0x8 PUSH2 0x442F JUMP JUMPDEST PUSH2 0x2734 SWAP1 PUSH8 0xDE0B6B3A7640000 PUSH2 0x442F JUMP JUMPDEST PUSH1 0x1 PUSH1 0x1 PUSH1 0xA0 SHL SUB DUP1 DUP6 AND PUSH1 0x0 SWAP1 DUP2 MSTORE PUSH1 0x2 PUSH1 0x20 SWAP1 DUP2 MSTORE PUSH1 0x40 DUP1 DUP4 KECCAK256 SWAP4 DUP10 AND DUP4 MSTORE SWAP3 SWAP1 MSTORE KECCAK256 SLOAD LT PUSH2 0x2769 JUMPI POP PUSH1 0x8 SWAP1 POP PUSH2 0x15AA JUMP JUMPDEST PUSH1 0x20 SLOAD PUSH2 0x2777 SWAP1 PUSH1 0x7 PUSH2 0x442F JUMP JUMPDEST PUSH2 0x2789 SWAP1 PUSH8 0xDE0B6B3A7640000 PUSH2 0x442F JUMP JUMPDEST PUSH1 0x1 PUSH1 0x1 PUSH1 0xA0 SHL SUB DUP1 DUP6 AND PUSH1 0x0 SWAP1 DUP2 MSTORE PUSH1 0x2 PUSH1 0x20 SWAP1 DUP2 MSTORE PUSH1 0x40 DUP1 DUP4 KECCAK256 SWAP4 DUP10 AND DUP4 MSTORE SWAP3 SWAP1 MSTORE KECCAK256 SLOAD LT PUSH2 0x27BE JUMPI POP PUSH1 0x7 SWAP1 POP PUSH2 0x15AA JUMP JUMPDEST PUSH1 0x20 SLOAD PUSH2 0x27CC SWAP1 PUSH1 0x6 PUSH2 0x442F JUMP JUMPDEST PUSH2 0x27DE SWAP1 PUSH8 0xDE0B6B3A7640000 PUSH2 0x442F JUMP JUMPDEST PUSH1 0x1 PUSH1 0x1 PUSH1 0xA0 SHL SUB DUP1 DUP6 AND PUSH1 0x0 SWAP1 DUP2 MSTORE PUSH1 0x2 PUSH1 0x20 SWAP1 DUP2 MSTORE PUSH1 0x40 DUP1 DUP4 KECCAK256 SWAP4 DUP10 AND DUP4 MSTORE SWAP3 SWAP1 MSTORE KECCAK256 SLOAD LT PUSH2 0x2813 JUMPI POP PUSH1 0x6 SWAP1 POP PUSH2 0x15AA JUMP JUMPDEST PUSH1 0x20 SLOAD PUSH2 0x2821 SWAP1 PUSH1 0x5 PUSH2 0x442F JUMP JUMPDEST PUSH2 0x2833 SWAP1 PUSH8 0xDE0B6B3A7640000 PUSH2 0x442F JUMP JUMPDEST PUSH1 0x1 PUSH1 0x1 PUSH1 0xA0 SHL SUB DUP1 DUP6 AND PUSH1 0x0 SWAP1 DUP2 MSTORE PUSH1 0x2 PUSH1 0x20 SWAP1 DUP2 MSTORE PUSH1 0x40 DUP1 DUP4 KECCAK256 SWAP4 DUP10 AND DUP4 MSTORE SWAP3 SWAP1 MSTORE KECCAK256 SLOAD LT PUSH2 0x2868 JUMPI POP PUSH1 0x5 SWAP1 POP PUSH2 0x15AA JUMP JUMPDEST PUSH1 0x20 SLOAD PUSH2 0x2876 SWAP1 PUSH1 0x4 PUSH2 0x442F JUMP JUMPDEST PUSH2 0x2888 SWAP1 PUSH8 0xDE0B6B3A7640000 PUSH2 0x442F JUMP JUMPDEST PUSH1 0x1 PUSH1 0x1 PUSH1 0xA0 SHL SUB DUP1 DUP6 AND PUSH1 0x0 SWAP1 DUP2 MSTORE PUSH1 0x2 PUSH1 0x20 SWAP1 DUP2 MSTORE PUSH1 0x40 DUP1 DUP4 KECCAK256 SWAP4 DUP10 AND DUP4 MSTORE SWAP3 SWAP1 MSTORE KECCAK256 SLOAD LT PUSH2 0x28BD JUMPI POP PUSH1 0x4 SWAP1 POP PUSH2 0x15AA JUMP JUMPDEST PUSH1 0x20 SLOAD PUSH2 0x28CB SWAP1 PUSH1 0x3 PUSH2 0x442F JUMP JUMPDEST PUSH2 0x28DD SWAP1 PUSH8 0xDE0B6B3A7640000 PUSH2 0x442F JUMP JUMPDEST PUSH1 0x1 PUSH1 0x1 PUSH1 0xA0 SHL SUB DUP1 DUP6 AND PUSH1 0x0 SWAP1 DUP2 MSTORE PUSH1 0x2 PUSH1 0x20 SWAP1 DUP2 MSTORE PUSH1 0x40 DUP1 DUP4 KECCAK256 SWAP4 DUP10 AND DUP4 MSTORE SWAP3 SWAP1 MSTORE KECCAK256 SLOAD LT PUSH2 0x2912 JUMPI POP PUSH1 0x3 SWAP1 POP PUSH2 0x15AA JUMP JUMPDEST PUSH1 0x20 SLOAD PUSH2 0x2920 SWAP1 PUSH1 0x2 PUSH2 0x442F JUMP JUMPDEST PUSH2 0x2932 SWAP1 PUSH8 0xDE0B6B3A7640000 PUSH2 0x442F JUMP JUMPDEST PUSH1 0x1 PUSH1 0x1 PUSH1 0xA0 SHL SUB DUP1 DUP6 AND PUSH1 0x0 SWAP1 DUP2 MSTORE PUSH1 0x2 PUSH1 0x20 SWAP1 DUP2 MSTORE PUSH1 0x40 DUP1 DUP4 KECCAK256 SWAP4 DUP10 AND DUP4 MSTORE SWAP3 SWAP1 MSTORE KECCAK256 SLOAD LT PUSH2 0x2967 JUMPI POP PUSH1 0x2 SWAP1 POP PUSH2 0x15AA JUMP JUMPDEST PUSH1 0x20 SLOAD PUSH2 0x2975 SWAP1 PUSH1 0x1 PUSH2 0x442F JUMP JUMPDEST PUSH2 0x2987 SWAP1 PUSH8 0xDE0B6B3A7640000 PUSH2 0x442F JUMP JUMPDEST PUSH1 0x1 PUSH1 0x1 PUSH1 0xA0 SHL SUB DUP1 DUP6 AND PUSH1 0x0 SWAP1 DUP2 MSTORE PUSH1 0x2 PUSH1 0x20 SWAP1 DUP2 MSTORE PUSH1 0x40 DUP1 DUP4 KECCAK256 SWAP4 DUP10 AND DUP4 MSTORE SWAP3 SWAP1 MSTORE KECCAK256 SLOAD LT PUSH2 0x29BC JUMPI POP PUSH1 0x1 SWAP1 POP PUSH2 0x15AA JUMP JUMPDEST POP PUSH1 0x0 SWAP1 POP PUSH2 0x15AA JUMP JUMPDEST PUSH1 0x0 DUP1 PUSH2 0x29D4 DUP6 DUP6 DUP6 PUSH2 0x3B18 JUMP JUMPDEST PUSH1 0x0 DUP5 DUP2 MSTORE PUSH1 0x28 PUSH1 0x20 SWAP1 DUP2 MSTORE PUSH1 0x40 DUP1 DUP4 KECCAK256 PUSH1 0x1 PUSH1 0x1 PUSH1 0xA0 SHL SUB DUP11 AND DUP5 MSTORE SWAP1 SWAP2 MSTORE DUP2 KECCAK256 SLOAD SWAP2 SWAP3 POP SWAP1 PUSH2 0x2A05 SWAP1 DUP4 PUSH2 0x4569 JUMP JUMPDEST SWAP7 SWAP6 POP POP POP POP POP POP JUMP JUMPDEST PUSH1 0x0 SLOAD PUSH1 0x1 PUSH1 0x1 PUSH1 0xA0 SHL SUB AND CALLER EQ PUSH2 0x2A39 JUMPI PUSH1 0x40 MLOAD PUSH3 0x461BCD PUSH1 0xE5 SHL DUP2 MSTORE PUSH1 0x4 ADD PUSH2 0xE21 SWAP1 PUSH2 0x43E4 JUMP JUMPDEST PUSH1 0x1 PUSH1 0x1 PUSH1 0xA0 SHL SUB DUP2 AND PUSH1 0x0 DUP2 DUP2 MSTORE PUSH1 0x11 PUSH1 0x20 MSTORE PUSH1 0x40 SWAP1 DUP2 SWAP1 KECCAK256 SLOAD SWAP1 MLOAD PUSH4 0xA9059CBB PUSH1 0xE0 SHL DUP2 MSTORE SWAP1 SWAP2 SWAP1 PUSH4 0xA9059CBB SWAP1 PUSH2 0x2A79 SWAP1 CALLER SWAP1 DUP6 SWAP1 PUSH1 0x4 ADD PUSH2 0x4470 JUMP JUMPDEST PUSH1 0x20 PUSH1 0x40 MLOAD DUP1 DUP4 SUB DUP2 PUSH1 0x0 DUP8 GAS CALL ISZERO DUP1 ISZERO PUSH2 0x2A98 JUMPI RETURNDATASIZE PUSH1 0x0 DUP1 RETURNDATACOPY RETURNDATASIZE PUSH1 0x0 REVERT JUMPDEST POP POP POP POP PUSH1 0x40 MLOAD RETURNDATASIZE PUSH1 0x1F NOT PUSH1 0x1F DUP3 ADD AND DUP3 ADD DUP1 PUSH1 0x40 MSTORE POP DUP2 ADD SWAP1 PUSH2 0x2ABC SWAP2 SWAP1 PUSH2 0x4489 JUMP JUMPDEST POP PUSH1 0x40 MLOAD PUSH4 0x70A08231 PUSH1 0xE0 SHL DUP2 MSTORE ADDRESS PUSH1 0x4 DUP3 ADD MSTORE PUSH8 0xDE0B6B3A7640000 SWAP1 PUSH1 0x1 PUSH1 0x1 PUSH1 0xA0 SHL SUB DUP5 AND SWAP1 PUSH4 0x70A08231 SWAP1 PUSH1 0x24 ADD PUSH1 0x20 PUSH1 0x40 MLOAD DUP1 DUP4 SUB DUP2 DUP7 GAS STATICCALL ISZERO DUP1 ISZERO PUSH2 0x2B0B JUMPI RETURNDATASIZE PUSH1 0x0 DUP1 RETURNDATACOPY RETURNDATASIZE PUSH1 0x0 REVERT JUMPDEST POP POP POP POP PUSH1 0x40 MLOAD RETURNDATASIZE PUSH1 0x1F NOT PUSH1 0x1F DUP3 ADD AND DUP3 ADD DUP1 PUSH1 0x40 MSTORE POP DUP2 ADD SWAP1 PUSH2 0x2B2F SWAP2 SWAP1 PUSH2 0x4550 JUMP JUMPDEST PUSH2 0x2B39 SWAP2 SWAP1 PUSH2 0x444E JUMP JUMPDEST PUSH1 0x1D SSTORE POP PUSH1 0x1 PUSH1 0x1 PUSH1 0xA0 SHL SUB AND PUSH1 0x0 SWAP1 DUP2 MSTORE PUSH1 0x11 PUSH1 0x20 MSTORE PUSH1 0x40 DUP2 KECCAK256 SSTORE JUMP JUMPDEST PUSH1 0x1 PUSH1 0x1 PUSH1 0xA0 SHL SUB DUP2 AND PUSH1 0x0 SWAP1 DUP2 MSTORE PUSH1 0x2 PUSH1 0x20 SWAP1 DUP2 MSTORE PUSH1 0x40 DUP1 DUP4 KECCAK256 CALLER DUP5 MSTORE SWAP1 SWAP2 MSTORE SWAP1 KECCAK256 SLOAD DUP3 PUSH2 0x2B98 JUMPI PUSH1 0x40 MLOAD PUSH3 0x461BCD PUSH1 0xE5 SHL DUP2 MSTORE PUSH1 0x4 ADD PUSH2 0xE21 SWAP1 PUSH2 0x44A6 JUMP JUMPDEST DUP3 DUP2 LT ISZERO PUSH2 0x2BF4 JUMPI PUSH1 0x40 MLOAD PUSH3 0x461BCD PUSH1 0xE5 SHL DUP2 MSTORE PUSH1 0x20 PUSH1 0x4 DUP3 ADD MSTORE PUSH1 0x23 PUSH1 0x24 DUP3 ADD MSTORE PUSH32 0x596F7520646F6E2774206861766520656E6F756768207374616B656420746F6B PUSH1 0x44 DUP3 ADD MSTORE PUSH3 0x656E73 PUSH1 0xE8 SHL PUSH1 0x64 DUP3 ADD MSTORE PUSH1 0x84 ADD PUSH2 0xE21 JUMP JUMPDEST PUSH2 0x2BFD DUP3 PUSH2 0x3A17 JUMP JUMPDEST PUSH2 0x2C19 JUMPI PUSH1 0x40 MLOAD PUSH3 0x461BCD PUSH1 0xE5 SHL DUP2 MSTORE PUSH1 0x4 ADD PUSH2 0xE21 SWAP1 PUSH2 0x44DD JUMP JUMPDEST CALLER PUSH1 0x0 SWAP1 DUP2 MSTORE PUSH1 0x5 PUSH1 0x20 MSTORE PUSH1 0x40 SWAP1 KECCAK256 SLOAD TIMESTAMP SWAP1 PUSH2 0x2C38 SWAP1 PUSH3 0x49D400 PUSH2 0x4538 JUMP JUMPDEST DUP2 LT ISZERO PUSH2 0x2D86 JUMPI CALLER PUSH1 0x0 SWAP1 DUP2 MSTORE PUSH1 0x5 PUSH1 0x20 MSTORE PUSH1 0x40 SWAP1 KECCAK256 SLOAD PUSH2 0x2C5C SWAP1 PUSH3 0x375F00 PUSH2 0x4538 JUMP JUMPDEST DUP2 LT ISZERO PUSH2 0x2D77 JUMPI CALLER PUSH1 0x0 SWAP1 DUP2 MSTORE PUSH1 0x5 PUSH1 0x20 MSTORE PUSH1 0x40 SWAP1 KECCAK256 SLOAD PUSH2 0x2C80 SWAP1 PUSH3 0x24EA00 PUSH2 0x4538 JUMP JUMPDEST DUP2 LT ISZERO PUSH2 0x2D68 JUMPI CALLER PUSH1 0x0 SWAP1 DUP2 MSTORE PUSH1 0x5 PUSH1 0x20 MSTORE PUSH1 0x40 SWAP1 KECCAK256 SLOAD PUSH2 0x2CA4 SWAP1 PUSH3 0x127500 PUSH2 0x4538 JUMP JUMPDEST DUP2 LT ISZERO PUSH2 0x2D59 JUMPI PUSH1 0x0 PUSH1 0x64 PUSH2 0x2CBA DUP7 PUSH1 0x4B PUSH2 0x442F JUMP JUMPDEST PUSH2 0x2CC4 SWAP2 SWAP1 PUSH2 0x444E JUMP JUMPDEST PUSH1 0x40 MLOAD PUSH4 0xA9059CBB PUSH1 0xE0 SHL DUP2 MSTORE SWAP1 SWAP2 POP PUSH1 0x1 PUSH1 0x1 PUSH1 0xA0 SHL SUB DUP6 AND SWAP1 PUSH4 0xA9059CBB SWAP1 PUSH2 0x2CF5 SWAP1 CALLER SWAP1 DUP6 SWAP1 PUSH1 0x4 ADD PUSH2 0x4470 JUMP JUMPDEST PUSH1 0x20 PUSH1 0x40 MLOAD DUP1 DUP4 SUB DUP2 PUSH1 0x0 DUP8 GAS CALL ISZERO DUP1 ISZERO PUSH2 0x2D14 JUMPI RETURNDATASIZE PUSH1 0x0 DUP1 RETURNDATACOPY RETURNDATASIZE PUSH1 0x0 REVERT JUMPDEST POP POP POP POP PUSH1 0x40 MLOAD RETURNDATASIZE PUSH1 0x1F NOT PUSH1 0x1F DUP3 ADD AND DUP3 ADD DUP1 PUSH1 0x40 MSTORE POP DUP2 ADD SWAP1 PUSH2 0x2D38 SWAP2 SWAP1 PUSH2 0x4489 JUMP JUMPDEST POP PUSH2 0x2D43 DUP2 DUP7 PUSH2 0x4569 JUMP JUMPDEST PUSH1 0x6 SLOAD PUSH2 0x2D50 SWAP2 SWAP1 PUSH2 0x4538 JUMP JUMPDEST PUSH1 0x6 SSTORE POP PUSH2 0x2DF9 JUMP JUMPDEST PUSH1 0x0 PUSH1 0x64 PUSH2 0x2CBA DUP7 PUSH1 0x55 PUSH2 0x442F JUMP JUMPDEST PUSH1 0x0 PUSH1 0x64 PUSH2 0x2CBA DUP7 PUSH1 0x5A PUSH2 0x442F JUMP JUMPDEST PUSH1 0x0 PUSH1 0x64 PUSH2 0x2CBA DUP7 PUSH1 0x5F PUSH2 0x442F JUMP JUMPDEST PUSH1 0x40 MLOAD PUSH4 0xA9059CBB PUSH1 0xE0 SHL DUP2 MSTORE PUSH1 0x1 PUSH1 0x1 PUSH1 0xA0 SHL SUB DUP5 AND SWAP1 PUSH4 0xA9059CBB SWAP1 PUSH2 0x2DB4 SWAP1 CALLER SWAP1 DUP9 SWAP1 PUSH1 0x4 ADD PUSH2 0x4470 JUMP JUMPDEST PUSH1 0x20 PUSH1 0x40 MLOAD DUP1 DUP4 SUB DUP2 PUSH1 0x0 DUP8 GAS CALL ISZERO DUP1 ISZERO PUSH2 0x2DD3 JUMPI RETURNDATASIZE PUSH1 0x0 DUP1 RETURNDATACOPY RETURNDATASIZE PUSH1 0x0 REVERT JUMPDEST POP POP POP POP PUSH1 0x40 MLOAD RETURNDATASIZE PUSH1 0x1F NOT PUSH1 0x1F DUP3 ADD AND DUP3 ADD DUP1 PUSH1 0x40 MSTORE POP DUP2 ADD SWAP1 PUSH2 0x2DF7 SWAP2 SWAP1 PUSH2 0x4489 JUMP JUMPDEST POP JUMPDEST PUSH2 0x2E03 CALLER DUP5 PUSH2 0x203B JUMP JUMPDEST CALLER PUSH1 0x0 SWAP1 DUP2 MSTORE PUSH1 0x4 PUSH1 0x20 SWAP1 DUP2 MSTORE PUSH1 0x40 DUP1 DUP4 KECCAK256 SWAP4 SWAP1 SWAP4 SSTORE PUSH1 0x3 SWAP1 MSTORE KECCAK256 TIMESTAMP SWAP1 SSTORE PUSH2 0x2E2B DUP5 DUP4 PUSH2 0x4569 JUMP JUMPDEST PUSH1 0x1 PUSH1 0x1 PUSH1 0xA0 SHL SUB DUP5 AND PUSH1 0x0 SWAP1 DUP2 MSTORE PUSH1 0x2 PUSH1 0x20 SWAP1 DUP2 MSTORE PUSH1 0x40 DUP1 DUP4 KECCAK256 CALLER DUP5 MSTORE SWAP1 SWAP2 MSTORE SWAP1 KECCAK256 SSTORE PUSH1 0xB SLOAD PUSH2 0x2E5D SWAP1 DUP6 SWAP1 PUSH2 0x4569 JUMP JUMPDEST PUSH1 0xB SSTORE PUSH1 0x1 PUSH1 0x1 PUSH1 0xA0 SHL SUB DUP4 AND PUSH1 0x0 SWAP1 DUP2 MSTORE PUSH1 0x2 PUSH1 0x20 SWAP1 DUP2 MSTORE PUSH1 0x40 DUP1 DUP4 KECCAK256 CALLER DUP5 MSTORE SWAP1 SWAP2 MSTORE SWAP1 KECCAK256 SLOAD PUSH2 0x2EC7 JUMPI PUSH1 0x1 PUSH1 0xA SLOAD PUSH2 0x2E97 SWAP2 SWAP1 PUSH2 0x4569 JUMP JUMPDEST PUSH1 0xA SSTORE CALLER PUSH1 0x0 SWAP1 DUP2 MSTORE PUSH1 0x7 PUSH1 0x20 MSTORE PUSH1 0x40 SWAP1 KECCAK256 SLOAD PUSH2 0x2EB6 SWAP1 PUSH1 0x1 SWAP1 PUSH2 0x4569 JUMP JUMPDEST CALLER PUSH1 0x0 SWAP1 DUP2 MSTORE PUSH1 0x7 PUSH1 0x20 MSTORE PUSH1 0x40 SWAP1 KECCAK256 SSTORE JUMPDEST POP POP POP POP JUMP JUMPDEST PUSH1 0x0 SLOAD PUSH1 0x1 PUSH1 0x1 PUSH1 0xA0 SHL SUB AND CALLER EQ PUSH2 0x2EF7 JUMPI PUSH1 0x40 MLOAD PUSH3 0x461BCD PUSH1 0xE5 SHL DUP2 MSTORE PUSH1 0x4 ADD PUSH2 0xE21 SWAP1 PUSH2 0x43E4 JUMP JUMPDEST PUSH1 0x1 PUSH1 0x1 PUSH1 0xA0 SHL SUB SWAP2 DUP3 AND PUSH1 0x0 SWAP1 DUP2 MSTORE PUSH1 0x8 PUSH1 0x20 MSTORE PUSH1 0x40 SWAP1 KECCAK256 DUP1 SLOAD PUSH1 0x1 PUSH1 0x1 PUSH1 0xA0 SHL SUB NOT AND SWAP2 SWAP1 SWAP3 AND OR SWAP1 SSTORE JUMP JUMPDEST PUSH1 0x0 SLOAD PUSH1 0x1 PUSH1 0x1 PUSH1 0xA0 SHL SUB AND CALLER EQ PUSH2 0x2F4F JUMPI PUSH1 0x40 MLOAD PUSH3 0x461BCD PUSH1 0xE5 SHL DUP2 MSTORE PUSH1 0x4 ADD PUSH2 0xE21 SWAP1 PUSH2 0x43E4 JUMP JUMPDEST PUSH1 0x20 SSTORE JUMP JUMPDEST PUSH1 0x0 PUSH2 0x2F60 CALLER DUP4 PUSH2 0x203B JUMP JUMPDEST SWAP1 POP PUSH1 0x0 DUP2 GT PUSH2 0x2F6F JUMPI PUSH1 0x0 DUP1 REVERT JUMPDEST PUSH1 0x40 MLOAD PUSH4 0xA9059CBB PUSH1 0xE0 SHL DUP2 MSTORE PUSH1 0x1 PUSH1 0x1 PUSH1 0xA0 SHL SUB DUP4 AND SWAP1 PUSH4 0xA9059CBB SWAP1 PUSH2 0x2F9D SWAP1 CALLER SWAP1 DUP6 SWAP1 PUSH1 0x4 ADD PUSH2 0x4470 JUMP JUMPDEST PUSH1 0x20 PUSH1 0x40 MLOAD DUP1 DUP4 SUB DUP2 PUSH1 0x0 DUP8 GAS CALL ISZERO DUP1 ISZERO PUSH2 0x2FBC JUMPI RETURNDATASIZE PUSH1 0x0 DUP1 RETURNDATACOPY RETURNDATASIZE PUSH1 0x0 REVERT JUMPDEST POP POP POP POP PUSH1 0x40 MLOAD RETURNDATASIZE PUSH1 0x1F NOT PUSH1 0x1F DUP3 ADD AND DUP3 ADD DUP1 PUSH1 0x40 MSTORE POP DUP2 ADD SWAP1 PUSH2 0x2FE0 SWAP2 SWAP1 PUSH2 0x4489 JUMP JUMPDEST POP POP CALLER PUSH1 0x0 SWAP1 DUP2 MSTORE PUSH1 0x4 PUSH1 0x20 SWAP1 DUP2 MSTORE PUSH1 0x40 DUP1 DUP4 KECCAK256 DUP4 SWAP1 SSTORE PUSH1 0x3 SWAP1 SWAP2 MSTORE SWAP1 KECCAK256 TIMESTAMP SWAP1 SSTORE POP JUMP JUMPDEST PUSH1 0x0 DUP1 PUSH1 0x1B PUSH1 0x0 SWAP1 SLOAD SWAP1 PUSH2 0x100 EXP SWAP1 DIV PUSH1 0x1 PUSH1 0x1 PUSH1 0xA0 SHL SUB AND PUSH1 0x1 PUSH1 0x1 PUSH1 0xA0 SHL SUB AND PUSH4 0xFEAF968C PUSH1 0x40 MLOAD DUP2 PUSH4 0xFFFFFFFF AND PUSH1 0xE0 SHL DUP2 MSTORE PUSH1 0x4 ADD PUSH1 0xA0 PUSH1 0x40 MLOAD DUP1 DUP4 SUB DUP2 DUP7 GAS STATICCALL ISZERO DUP1 ISZERO PUSH2 0x305A JUMPI RETURNDATASIZE PUSH1 0x0 DUP1 RETURNDATACOPY RETURNDATASIZE PUSH1 0x0 REVERT JUMPDEST POP POP POP POP PUSH1 0x40 MLOAD RETURNDATASIZE PUSH1 0x1F NOT PUSH1 0x1F DUP3 ADD AND DUP3 ADD DUP1 PUSH1 0x40 MSTORE POP DUP2 ADD SWAP1 PUSH2 0x307E SWAP2 SWAP1 PUSH2 0x4707 JUMP JUMPDEST POP POP POP SWAP2 POP POP DUP1 PUSH5 0x2540BE400 PUSH2 0x3095 SWAP2 SWAP1 PUSH2 0x4757 JUMP JUMPDEST SWAP2 POP POP SWAP1 JUMP JUMPDEST PUSH1 0x0 SLOAD PUSH1 0x1 PUSH1 0x1 PUSH1 0xA0 SHL SUB AND CALLER EQ PUSH2 0x30C5 JUMPI PUSH1 0x40 MLOAD PUSH3 0x461BCD PUSH1 0xE5 SHL DUP2 MSTORE PUSH1 0x4 ADD PUSH2 0xE21 SWAP1 PUSH2 0x43E4 JUMP JUMPDEST PUSH1 0x0 SWAP2 DUP3 MSTORE PUSH1 0x26 PUSH1 0x20 MSTORE PUSH1 0x40 SWAP1 SWAP2 KECCAK256 DUP1 SLOAD PUSH1 0xFF NOT AND SWAP2 ISZERO ISZERO SWAP2 SWAP1 SWAP2 OR SWAP1 SSTORE JUMP JUMPDEST PUSH1 0x0 SLOAD PUSH1 0x1 PUSH1 0x1 PUSH1 0xA0 SHL SUB AND CALLER EQ PUSH2 0x310F JUMPI PUSH1 0x40 MLOAD PUSH3 0x461BCD PUSH1 0xE5 SHL DUP2 MSTORE PUSH1 0x4 ADD PUSH2 0xE21 SWAP1 PUSH2 0x43E4 JUMP JUMPDEST PUSH1 0x65 PUSH1 0x17 SLOAD GT ISZERO PUSH2 0x311F JUMPI PUSH1 0x0 DUP1 REVERT JUMPDEST PUSH1 0x65 DUP2 PUSH1 0x17 SLOAD PUSH2 0x312F SWAP2 SWAP1 PUSH2 0x4538 JUMP JUMPDEST GT ISZERO PUSH2 0x313A JUMPI PUSH1 0x0 DUP1 REVERT JUMPDEST DUP1 PUSH1 0x17 SLOAD PUSH2 0x3148 SWAP2 SWAP1 PUSH2 0x4538 JUMP JUMPDEST PUSH1 0x17 SSTORE POP JUMP JUMPDEST PUSH1 0x1 PUSH1 0x1 PUSH1 0xA0 SHL SUB DUP2 AND PUSH1 0x0 SWAP1 DUP2 MSTORE PUSH1 0x7 PUSH1 0x20 MSTORE PUSH1 0x40 DUP2 KECCAK256 SLOAD DUP2 SWAP1 PUSH2 0x31A9 JUMPI PUSH1 0x40 MLOAD PUSH3 0x461BCD PUSH1 0xE5 SHL DUP2 MSTORE PUSH1 0x20 PUSH1 0x4 DUP3 ADD MSTORE PUSH1 0x11 PUSH1 0x24 DUP3 ADD MSTORE PUSH17 0x4E6F20746F6B656E73207374616B656421 PUSH1 0x78 SHL PUSH1 0x44 DUP3 ADD MSTORE PUSH1 0x64 ADD PUSH2 0xE21 JUMP JUMPDEST PUSH1 0x0 JUMPDEST PUSH1 0xD SLOAD DUP2 LT ISZERO PUSH2 0x3205 JUMPI PUSH2 0x31E7 DUP5 PUSH1 0xD DUP4 DUP2 SLOAD DUP2 LT PUSH2 0x31CD JUMPI PUSH2 0x31CD PUSH2 0x46BC JUMP JUMPDEST PUSH1 0x0 SWAP2 DUP3 MSTORE PUSH1 0x20 SWAP1 SWAP2 KECCAK256 ADD SLOAD PUSH1 0x1 PUSH1 0x1 PUSH1 0xA0 SHL SUB AND PUSH2 0x1529 JUMP JUMPDEST PUSH2 0x31F1 SWAP1 DUP4 PUSH2 0x4538 JUMP JUMPDEST SWAP2 POP DUP1 PUSH2 0x31FD DUP2 PUSH2 0x46D2 JUMP JUMPDEST SWAP2 POP POP PUSH2 0x31AC JUMP JUMPDEST POP SWAP3 SWAP2 POP POP JUMP JUMPDEST PUSH1 0x0 DUP1 JUMPDEST PUSH1 0x1A SLOAD DUP2 LT ISZERO PUSH2 0x326D JUMPI DUP3 PUSH1 0x1 PUSH1 0x1 PUSH1 0xA0 SHL SUB AND PUSH1 0x1A DUP3 DUP2 SLOAD DUP2 LT PUSH2 0x3237 JUMPI PUSH2 0x3237 PUSH2 0x46BC JUMP JUMPDEST PUSH1 0x0 SWAP2 DUP3 MSTORE PUSH1 0x20 SWAP1 SWAP2 KECCAK256 ADD SLOAD PUSH1 0x1 PUSH1 0x1 PUSH1 0xA0 SHL SUB AND EQ ISZERO PUSH2 0x325B JUMPI POP PUSH1 0x1 SWAP3 SWAP2 POP POP JUMP JUMPDEST DUP1 PUSH2 0x3265 DUP2 PUSH2 0x46D2 JUMP JUMPDEST SWAP2 POP POP PUSH2 0x3210 JUMP JUMPDEST POP PUSH1 0x0 SWAP3 SWAP2 POP POP JUMP JUMPDEST PUSH1 0x0 SLOAD PUSH1 0x1 PUSH1 0x1 PUSH1 0xA0 SHL SUB AND CALLER EQ PUSH2 0x32A0 JUMPI PUSH1 0x40 MLOAD PUSH3 0x461BCD PUSH1 0xE5 SHL DUP2 MSTORE PUSH1 0x4 ADD PUSH2 0xE21 SWAP1 PUSH2 0x43E4 JUMP JUMPDEST PUSH1 0x0 SWAP2 DUP3 MSTORE PUSH1 0x1F PUSH1 0x20 MSTORE PUSH1 0x40 SWAP1 SWAP2 KECCAK256 DUP1 SLOAD PUSH1 0xFF NOT AND SWAP2 ISZERO ISZERO SWAP2 SWAP1 SWAP2 OR SWAP1 SSTORE JUMP JUMPDEST PUSH1 0x0 SLOAD PUSH1 0x1 PUSH1 0x1 PUSH1 0xA0 SHL SUB AND CALLER EQ PUSH2 0x32EA JUMPI PUSH1 0x40 MLOAD PUSH3 0x461BCD PUSH1 0xE5 SHL DUP2 MSTORE PUSH1 0x4 ADD PUSH2 0xE21 SWAP1 PUSH2 0x43E4 JUMP JUMPDEST PUSH1 0x0 SWAP2 DUP3 MSTORE PUSH1 0x24 PUSH1 0x20 MSTORE PUSH1 0x40 SWAP1 SWAP2 KECCAK256 SSTORE JUMP JUMPDEST PUSH1 0x0 SLOAD PUSH1 0x1 PUSH1 0x1 PUSH1 0xA0 SHL SUB AND CALLER EQ PUSH2 0x3326 JUMPI PUSH1 0x40 MLOAD PUSH3 0x461BCD PUSH1 0xE5 SHL DUP2 MSTORE PUSH1 0x4 ADD PUSH2 0xE21 SWAP1 PUSH2 0x43E4 JUMP JUMPDEST PUSH1 0x0 SWAP2 DUP3 MSTORE PUSH1 0x2A PUSH1 0x20 MSTORE PUSH1 0x40 SWAP1 SWAP2 KECCAK256 SSTORE JUMP JUMPDEST PUSH1 0x1 PUSH1 0x1 PUSH1 0xA0 SHL SUB DUP2 AND PUSH1 0x0 SWAP1 DUP2 MSTORE PUSH1 0x2 PUSH1 0x20 SWAP1 DUP2 MSTORE PUSH1 0x40 DUP1 DUP4 KECCAK256 CALLER DUP5 MSTORE SWAP1 SWAP2 MSTORE SWAP1 KECCAK256 SLOAD DUP1 PUSH2 0x33A9 JUMPI PUSH1 0x40 MLOAD PUSH3 0x461BCD PUSH1 0xE5 SHL DUP2 MSTORE PUSH1 0x20 PUSH1 0x4 DUP3 ADD MSTORE PUSH1 0x1B PUSH1 0x24 DUP3 ADD MSTORE PUSH32 0x5374616B696E672062616C616E63652063616E6E6F7420626520300000000000 PUSH1 0x44 DUP3 ADD MSTORE PUSH1 0x64 ADD PUSH2 0xE21 JUMP JUMPDEST PUSH2 0x33B2 DUP3 PUSH2 0x3A17 JUMP JUMPDEST PUSH2 0x33CE JUMPI PUSH1 0x40 MLOAD PUSH3 0x461BCD PUSH1 0xE5 SHL DUP2 MSTORE PUSH1 0x4 ADD PUSH2 0xE21 SWAP1 PUSH2 0x44DD JUMP JUMPDEST CALLER PUSH1 0x0 SWAP1 DUP2 MSTORE PUSH1 0x5 PUSH1 0x20 MSTORE PUSH1 0x40 SWAP1 KECCAK256 SLOAD TIMESTAMP SWAP1 PUSH2 0x33ED SWAP1 PUSH3 0x49D400 PUSH2 0x4538 JUMP JUMPDEST DUP2 LT ISZERO PUSH2 0x353B JUMPI CALLER PUSH1 0x0 SWAP1 DUP2 MSTORE PUSH1 0x5 PUSH1 0x20 MSTORE PUSH1 0x40 SWAP1 KECCAK256 SLOAD PUSH2 0x3411 SWAP1 PUSH3 0x375F00 PUSH2 0x4538 JUMP JUMPDEST DUP2 LT ISZERO PUSH2 0x352C JUMPI CALLER PUSH1 0x0 SWAP1 DUP2 MSTORE PUSH1 0x5 PUSH1 0x20 MSTORE PUSH1 0x40 SWAP1 KECCAK256 SLOAD PUSH2 0x3435 SWAP1 PUSH3 0x24EA00 PUSH2 0x4538 JUMP JUMPDEST DUP2 LT ISZERO PUSH2 0x351D JUMPI CALLER PUSH1 0x0 SWAP1 DUP2 MSTORE PUSH1 0x5 PUSH1 0x20 MSTORE PUSH1 0x40 SWAP1 KECCAK256 SLOAD PUSH2 0x3459 SWAP1 PUSH3 0x127500 PUSH2 0x4538 JUMP JUMPDEST DUP2 LT ISZERO PUSH2 0x350E JUMPI PUSH1 0x0 PUSH1 0x64 PUSH2 0x346F DUP5 PUSH1 0x4B PUSH2 0x442F JUMP JUMPDEST PUSH2 0x3479 SWAP2 SWAP1 PUSH2 0x444E JUMP JUMPDEST PUSH1 0x40 MLOAD PUSH4 0xA9059CBB PUSH1 0xE0 SHL DUP2 MSTORE SWAP1 SWAP2 POP PUSH1 0x1 PUSH1 0x1 PUSH1 0xA0 SHL SUB DUP6 AND SWAP1 PUSH4 0xA9059CBB SWAP1 PUSH2 0x34AA SWAP1 CALLER SWAP1 DUP6 SWAP1 PUSH1 0x4 ADD PUSH2 0x4470 JUMP JUMPDEST PUSH1 0x20 PUSH1 0x40 MLOAD DUP1 DUP4 SUB DUP2 PUSH1 0x0 DUP8 GAS CALL ISZERO DUP1 ISZERO PUSH2 0x34C9 JUMPI RETURNDATASIZE PUSH1 0x0 DUP1 RETURNDATACOPY RETURNDATASIZE PUSH1 0x0 REVERT JUMPDEST POP POP POP POP PUSH1 0x40 MLOAD RETURNDATASIZE PUSH1 0x1F NOT PUSH1 0x1F DUP3 ADD AND DUP3 ADD DUP1 PUSH1 0x40 MSTORE POP DUP2 ADD SWAP1 PUSH2 0x34ED SWAP2 SWAP1 PUSH2 0x4489 JUMP JUMPDEST POP PUSH2 0x34F8 DUP2 DUP5 PUSH2 0x4569 JUMP JUMPDEST PUSH1 0x6 SLOAD PUSH2 0x3505 SWAP2 SWAP1 PUSH2 0x4538 JUMP JUMPDEST PUSH1 0x6 SSTORE POP PUSH2 0x35AE JUMP JUMPDEST PUSH1 0x0 PUSH1 0x64 PUSH2 0x346F DUP5 PUSH1 0x55 PUSH2 0x442F JUMP JUMPDEST PUSH1 0x0 PUSH1 0x64 PUSH2 0x346F DUP5 PUSH1 0x5A PUSH2 0x442F JUMP JUMPDEST PUSH1 0x0 PUSH1 0x64 PUSH2 0x346F DUP5 PUSH1 0x5F PUSH2 0x442F JUMP JUMPDEST PUSH1 0x40 MLOAD PUSH4 0xA9059CBB PUSH1 0xE0 SHL DUP2 MSTORE PUSH1 0x1 PUSH1 0x1 PUSH1 0xA0 SHL SUB DUP5 AND SWAP1 PUSH4 0xA9059CBB SWAP1 PUSH2 0x3569 SWAP1 CALLER SWAP1 DUP7 SWAP1 PUSH1 0x4 ADD PUSH2 0x4470 JUMP JUMPDEST PUSH1 0x20 PUSH1 0x40 MLOAD DUP1 DUP4 SUB DUP2 PUSH1 0x0 DUP8 GAS CALL ISZERO DUP1 ISZERO PUSH2 0x3588 JUMPI RETURNDATASIZE PUSH1 0x0 DUP1 RETURNDATACOPY RETURNDATASIZE PUSH1 0x0 REVERT JUMPDEST POP POP POP POP PUSH1 0x40 MLOAD RETURNDATASIZE PUSH1 0x1F NOT PUSH1 0x1F DUP3 ADD AND DUP3 ADD DUP1 PUSH1 0x40 MSTORE POP DUP2 ADD SWAP1 PUSH2 0x35AC SWAP2 SWAP1 PUSH2 0x4489 JUMP JUMPDEST POP JUMPDEST PUSH2 0x35B8 CALLER DUP5 PUSH2 0x203B JUMP JUMPDEST CALLER PUSH1 0x0 SWAP1 DUP2 MSTORE PUSH1 0x4 PUSH1 0x20 SWAP1 DUP2 MSTORE PUSH1 0x40 DUP1 DUP4 KECCAK256 SWAP4 SWAP1 SWAP4 SSTORE PUSH1 0x3 SWAP1 MSTORE KECCAK256 TIMESTAMP SWAP1 SSTORE PUSH1 0xB SLOAD PUSH2 0x35E4 SWAP1 DUP4 SWAP1 PUSH2 0x4569 JUMP JUMPDEST PUSH1 0xB SSTORE PUSH1 0x1 PUSH1 0x1 PUSH1 0xA0 SHL SUB DUP4 AND PUSH1 0x0 SWAP1 DUP2 MSTORE PUSH1 0x2 PUSH1 0x20 SWAP1 DUP2 MSTORE PUSH1 0x40 DUP1 DUP4 KECCAK256 CALLER DUP5 MSTORE DUP3 MSTORE DUP1 DUP4 KECCAK256 DUP4 SWAP1 SSTORE PUSH1 0x7 SWAP1 SWAP2 MSTORE SWAP1 KECCAK256 SLOAD PUSH2 0x3621 SWAP1 PUSH1 0x1 SWAP1 PUSH2 0x4569 JUMP JUMPDEST CALLER PUSH1 0x0 SWAP1 DUP2 MSTORE PUSH1 0x7 PUSH1 0x20 MSTORE PUSH1 0x40 SWAP1 KECCAK256 SSTORE PUSH1 0xA SLOAD PUSH2 0x3640 SWAP1 PUSH1 0x1 SWAP1 PUSH2 0x4569 JUMP JUMPDEST PUSH1 0xA SSTORE POP POP POP JUMP JUMPDEST PUSH1 0x0 SLOAD PUSH1 0x1 PUSH1 0x1 PUSH1 0xA0 SHL SUB AND CALLER EQ PUSH2 0x3672 JUMPI PUSH1 0x40 MLOAD PUSH3 0x461BCD PUSH1 0xE5 SHL DUP2 MSTORE PUSH1 0x4 ADD PUSH2 0xE21 SWAP1 PUSH2 0x43E4 JUMP JUMPDEST PUSH1 0x0 DUP3 DUP2 MSTORE PUSH1 0x30 PUSH1 0x20 MSTORE PUSH1 0x40 SWAP1 KECCAK256 SLOAD PUSH2 0x368C SWAP1 DUP3 SWAP1 PUSH2 0x4538 JUMP JUMPDEST PUSH1 0x0 SWAP3 DUP4 MSTORE PUSH1 0x30 PUSH1 0x20 MSTORE PUSH1 0x40 SWAP1 SWAP3 KECCAK256 SWAP2 SWAP1 SWAP2 SSTORE POP JUMP JUMPDEST PUSH1 0x0 SLOAD PUSH1 0x1 PUSH1 0x1 PUSH1 0xA0 SHL SUB AND CALLER EQ PUSH2 0x36CC JUMPI PUSH1 0x40 MLOAD PUSH3 0x461BCD PUSH1 0xE5 SHL DUP2 MSTORE PUSH1 0x4 ADD PUSH2 0xE21 SWAP1 PUSH2 0x43E4 JUMP JUMPDEST PUSH1 0x40 MLOAD PUSH4 0xA9059CBB PUSH1 0xE0 SHL DUP2 MSTORE PUSH1 0x1 PUSH1 0x1 PUSH1 0xA0 SHL SUB DUP4 AND SWAP1 PUSH4 0xA9059CBB SWAP1 PUSH2 0x1E83 SWAP1 CALLER SWAP1 DUP6 SWAP1 PUSH1 0x4 ADD PUSH2 0x4470 JUMP JUMPDEST PUSH1 0x0 DUP2 DUP2 MSTORE PUSH1 0x26 PUSH1 0x20 MSTORE PUSH1 0x40 SWAP1 KECCAK256 SLOAD PUSH1 0xFF AND ISZERO ISZERO PUSH1 0x1 EQ PUSH2 0x371A JUMPI PUSH1 0x0 DUP1 REVERT JUMPDEST PUSH1 0x1 PUSH1 0x1 PUSH1 0xA0 SHL SUB DUP4 AND PUSH1 0x0 SWAP1 DUP2 MSTORE PUSH1 0x2 PUSH1 0x20 SWAP1 DUP2 MSTORE PUSH1 0x40 DUP1 DUP4 KECCAK256 CALLER DUP5 MSTORE SWAP1 SWAP2 MSTORE SWAP1 KECCAK256 SLOAD PUSH9 0x5150AE84A8CDF00000 GT ISZERO PUSH2 0x3753 JUMPI PUSH1 0x0 DUP1 REVERT JUMPDEST PUSH1 0x0 PUSH2 0x375F CALLER DUP6 PUSH2 0x206B JUMP JUMPDEST GT PUSH2 0x3769 JUMPI PUSH1 0x0 DUP1 REVERT JUMPDEST PUSH1 0x0 DUP2 DUP2 MSTORE PUSH1 0x24 PUSH1 0x20 MSTORE PUSH1 0x40 SWAP1 KECCAK256 SLOAD PUSH2 0x3781 JUMPI PUSH1 0x0 DUP1 REVERT JUMPDEST PUSH1 0x0 DUP5 GT PUSH2 0x37A1 JUMPI PUSH1 0x40 MLOAD PUSH3 0x461BCD PUSH1 0xE5 SHL DUP2 MSTORE PUSH1 0x4 ADD PUSH2 0xE21 SWAP1 PUSH2 0x44A6 JUMP JUMPDEST PUSH2 0x37AA DUP3 PUSH2 0x320C JUMP JUMPDEST PUSH2 0x37C6 JUMPI PUSH1 0x40 MLOAD PUSH3 0x461BCD PUSH1 0xE5 SHL DUP2 MSTORE PUSH1 0x4 ADD PUSH2 0xE21 SWAP1 PUSH2 0x44DD JUMP JUMPDEST PUSH1 0x0 DUP2 DUP2 MSTORE PUSH1 0x24 PUSH1 0x20 SWAP1 DUP2 MSTORE PUSH1 0x40 DUP1 DUP4 KECCAK256 SLOAD PUSH1 0x2C DUP4 MSTORE DUP2 DUP5 KECCAK256 PUSH1 0x1 PUSH1 0x1 PUSH1 0xA0 SHL SUB DUP8 AND DUP6 MSTORE SWAP1 SWAP3 MSTORE SWAP1 SWAP2 KECCAK256 SLOAD LT PUSH2 0x37FC JUMPI PUSH1 0x0 DUP1 REVERT JUMPDEST PUSH1 0x0 PUSH2 0x3809 CALLER DUP6 DUP5 PUSH2 0x3B18 JUMP JUMPDEST PUSH1 0x0 DUP4 DUP2 MSTORE PUSH1 0x28 PUSH1 0x20 SWAP1 DUP2 MSTORE PUSH1 0x40 DUP1 DUP4 KECCAK256 CALLER DUP5 MSTORE SWAP1 SWAP2 MSTORE DUP2 KECCAK256 SLOAD SWAP2 SWAP3 POP SWAP1 PUSH2 0x3831 SWAP1 DUP4 PUSH2 0x4569 JUMP JUMPDEST SWAP1 POP PUSH1 0x0 DUP2 GT PUSH2 0x3840 JUMPI PUSH1 0x0 DUP1 REVERT JUMPDEST DUP1 DUP7 GT ISZERO PUSH2 0x384D JUMPI PUSH1 0x0 DUP1 REVERT JUMPDEST PUSH1 0x40 MLOAD PUSH4 0x23B872DD PUSH1 0xE0 SHL DUP2 MSTORE PUSH1 0x1 PUSH1 0x1 PUSH1 0xA0 SHL SUB DUP6 AND SWAP1 PUSH4 0x23B872DD SWAP1 PUSH2 0x387D SWAP1 CALLER SWAP1 ADDRESS SWAP1 DUP12 SWAP1 PUSH1 0x4 ADD PUSH2 0x4514 JUMP JUMPDEST PUSH1 0x20 PUSH1 0x40 MLOAD DUP1 DUP4 SUB DUP2 PUSH1 0x0 DUP8 GAS CALL ISZERO DUP1 ISZERO PUSH2 0x389C JUMPI RETURNDATASIZE PUSH1 0x0 DUP1 RETURNDATACOPY RETURNDATASIZE PUSH1 0x0 REVERT JUMPDEST POP POP POP POP PUSH1 0x40 MLOAD RETURNDATASIZE PUSH1 0x1F NOT PUSH1 0x1F DUP3 ADD AND DUP3 ADD DUP1 PUSH1 0x40 MSTORE POP DUP2 ADD SWAP1 PUSH2 0x38C0 SWAP2 SWAP1 PUSH2 0x4489 JUMP JUMPDEST POP PUSH2 0x38CB CALLER DUP5 PUSH2 0x4199 JUMP JUMPDEST PUSH1 0x0 DUP4 DUP2 MSTORE PUSH1 0x28 PUSH1 0x20 SWAP1 DUP2 MSTORE PUSH1 0x40 DUP1 DUP4 KECCAK256 CALLER DUP5 MSTORE SWAP1 SWAP2 MSTORE SWAP1 KECCAK256 SLOAD PUSH2 0x38F0 SWAP1 DUP8 SWAP1 PUSH2 0x4538 JUMP JUMPDEST PUSH1 0x0 DUP5 DUP2 MSTORE PUSH1 0x28 PUSH1 0x20 SWAP1 DUP2 MSTORE PUSH1 0x40 DUP1 DUP4 KECCAK256 CALLER DUP5 MSTORE DUP3 MSTORE DUP1 DUP4 KECCAK256 SWAP4 SWAP1 SWAP4 SSTORE DUP6 DUP3 MSTORE PUSH1 0x2A SWAP1 MSTORE KECCAK256 SLOAD PUSH2 0x3920 SWAP1 DUP8 PUSH2 0x442F JUMP JUMPDEST PUSH1 0x0 DUP5 DUP2 MSTORE PUSH1 0x2E PUSH1 0x20 SWAP1 DUP2 MSTORE PUSH1 0x40 DUP1 DUP4 KECCAK256 CALLER DUP5 MSTORE SWAP1 SWAP2 MSTORE SWAP1 KECCAK256 SLOAD PUSH2 0x3944 SWAP2 SWAP1 PUSH2 0x4538 JUMP JUMPDEST PUSH1 0x0 DUP5 DUP2 MSTORE PUSH1 0x2E PUSH1 0x20 SWAP1 DUP2 MSTORE PUSH1 0x40 DUP1 DUP4 KECCAK256 CALLER DUP5 MSTORE DUP3 MSTORE DUP1 DUP4 KECCAK256 SWAP4 SWAP1 SWAP4 SSTORE DUP6 DUP3 MSTORE PUSH1 0x2B DUP2 MSTORE DUP3 DUP3 KECCAK256 PUSH1 0x1 PUSH1 0x1 PUSH1 0xA0 SHL SUB DUP9 AND DUP4 MSTORE SWAP1 MSTORE KECCAK256 SLOAD PUSH2 0x3986 SWAP1 DUP8 SWAP1 PUSH2 0x4538 JUMP JUMPDEST PUSH1 0x0 DUP5 DUP2 MSTORE PUSH1 0x2B PUSH1 0x20 SWAP1 DUP2 MSTORE PUSH1 0x40 DUP1 DUP4 KECCAK256 PUSH1 0x1 PUSH1 0x1 PUSH1 0xA0 SHL SUB DUP10 AND DUP1 DUP6 MSTORE SWAP1 DUP4 MSTORE DUP2 DUP5 KECCAK256 SWAP5 SWAP1 SWAP5 SSTORE DUP7 DUP4 MSTORE PUSH1 0x2C DUP3 MSTORE DUP1 DUP4 KECCAK256 SWAP4 DUP4 MSTORE SWAP3 SWAP1 MSTORE KECCAK256 SLOAD PUSH2 0x39CB SWAP1 DUP8 SWAP1 PUSH2 0x4538 JUMP JUMPDEST PUSH1 0x0 DUP5 DUP2 MSTORE PUSH1 0x2C PUSH1 0x20 SWAP1 DUP2 MSTORE PUSH1 0x40 DUP1 DUP4 KECCAK256 PUSH1 0x1 PUSH1 0x1 PUSH1 0xA0 SHL SUB DUP10 AND DUP5 MSTORE SWAP1 SWAP2 MSTORE SWAP1 KECCAK256 SSTORE PUSH1 0x13 SLOAD PUSH2 0x39FC SWAP1 DUP8 SWAP1 PUSH2 0x4538 JUMP JUMPDEST PUSH1 0x13 SSTORE POP POP POP POP POP POP JUMP JUMPDEST PUSH1 0x9 DUP2 DUP2 SLOAD DUP2 LT PUSH2 0x15C0 JUMPI PUSH1 0x0 DUP1 REVERT JUMPDEST PUSH1 0x0 DUP1 JUMPDEST PUSH1 0xD SLOAD DUP2 LT ISZERO PUSH2 0x326D JUMPI DUP3 PUSH1 0x1 PUSH1 0x1 PUSH1 0xA0 SHL SUB AND PUSH1 0xD DUP3 DUP2 SLOAD DUP2 LT PUSH2 0x3A42 JUMPI PUSH2 0x3A42 PUSH2 0x46BC JUMP JUMPDEST PUSH1 0x0 SWAP2 DUP3 MSTORE PUSH1 0x20 SWAP1 SWAP2 KECCAK256 ADD SLOAD PUSH1 0x1 PUSH1 0x1 PUSH1 0xA0 SHL SUB AND EQ ISZERO PUSH2 0x3A66 JUMPI POP PUSH1 0x1 SWAP3 SWAP2 POP POP JUMP JUMPDEST DUP1 PUSH2 0x3A70 DUP2 PUSH2 0x46D2 JUMP JUMPDEST SWAP2 POP POP PUSH2 0x3A1B JUMP JUMPDEST PUSH1 0x0 DUP1 SLOAD PUSH1 0x1 PUSH1 0x1 PUSH1 0xA0 SHL SUB AND CALLER EQ PUSH2 0x3AA3 JUMPI PUSH1 0x40 MLOAD PUSH3 0x461BCD PUSH1 0xE5 SHL DUP2 MSTORE PUSH1 0x4 ADD PUSH2 0xE21 SWAP1 PUSH2 0x43E4 JUMP JUMPDEST PUSH1 0x40 MLOAD PUSH4 0x70A08231 PUSH1 0xE0 SHL DUP2 MSTORE ADDRESS PUSH1 0x4 DUP3 ADD MSTORE PUSH1 0x1 PUSH1 0x1 PUSH1 0xA0 SHL SUB DUP4 AND SWAP1 PUSH4 0x70A08231 SWAP1 PUSH1 0x24 ADD PUSH1 0x20 PUSH1 0x40 MLOAD DUP1 DUP4 SUB DUP2 DUP7 GAS STATICCALL ISZERO DUP1 ISZERO PUSH2 0x3AE7 JUMPI RETURNDATASIZE PUSH1 0x0 DUP1 RETURNDATACOPY RETURNDATASIZE PUSH1 0x0 REVERT JUMPDEST POP POP POP POP PUSH1 0x40 MLOAD RETURNDATASIZE PUSH1 0x1F NOT PUSH1 0x1F DUP3 ADD AND DUP3 ADD DUP1 PUSH1 0x40 MSTORE POP DUP2 ADD SWAP1 PUSH2 0x3B0B SWAP2 SWAP1 PUSH2 0x4550 JUMP JUMPDEST PUSH1 0x1D DUP2 SWAP1 SSTORE SWAP1 POP JUMPDEST SWAP2 SWAP1 POP JUMP JUMPDEST PUSH1 0x0 DUP2 DUP2 MSTORE PUSH1 0x25 PUSH1 0x20 MSTORE PUSH1 0x40 DUP2 KECCAK256 SLOAD PUSH1 0xFF AND ISZERO ISZERO PUSH1 0x1 EQ PUSH2 0x3B38 JUMPI PUSH1 0x0 DUP1 REVERT JUMPDEST PUSH1 0x0 DUP3 DUP2 MSTORE PUSH1 0x24 PUSH1 0x20 MSTORE PUSH1 0x40 SWAP1 KECCAK256 SLOAD PUSH2 0x3B50 JUMPI PUSH1 0x0 DUP1 REVERT JUMPDEST PUSH1 0x0 PUSH1 0x1 JUMPDEST PUSH1 0x1D DUP2 LT ISZERO PUSH2 0x3BA4 JUMPI PUSH1 0x0 DUP2 DUP2 MSTORE PUSH1 0x21 PUSH1 0x20 SWAP1 DUP2 MSTORE PUSH1 0x40 DUP1 DUP4 KECCAK256 SLOAD PUSH1 0x1E SWAP1 SWAP3 MSTORE DUP3 KECCAK256 SLOAD PUSH2 0x3B82 SWAP2 SWAP1 PUSH2 0x442F JUMP JUMPDEST SWAP1 POP PUSH2 0x3B8E DUP2 DUP5 PUSH2 0x4538 JUMP JUMPDEST SWAP3 POP POP DUP1 DUP1 PUSH2 0x3B9C SWAP1 PUSH2 0x46D2 JUMP JUMPDEST SWAP2 POP POP PUSH2 0x3B55 JUMP JUMPDEST POP PUSH1 0x0 DUP4 DUP2 MSTORE PUSH1 0x24 PUSH1 0x20 MSTORE PUSH1 0x40 DUP2 KECCAK256 SLOAD PUSH2 0x3BBF SWAP1 DUP4 SWAP1 PUSH2 0x444E JUMP JUMPDEST SWAP1 POP PUSH1 0x0 PUSH2 0x3BCD DUP8 DUP8 PUSH2 0x206B JUMP JUMPDEST PUSH1 0x0 DUP2 DUP2 MSTORE PUSH1 0x21 PUSH1 0x20 SWAP1 DUP2 MSTORE PUSH1 0x40 DUP1 DUP4 KECCAK256 SLOAD PUSH1 0x1E SWAP1 SWAP3 MSTORE DUP3 KECCAK256 SLOAD SWAP3 SWAP4 POP SWAP2 SWAP1 DUP3 DUP6 PUSH2 0x3BF8 DUP3 DUP6 PUSH2 0x442F JUMP JUMPDEST PUSH2 0x3C02 SWAP2 SWAP1 PUSH2 0x442F JUMP JUMPDEST PUSH2 0x16C1 SWAP2 SWAP1 PUSH2 0x444E JUMP JUMPDEST PUSH1 0x19 DUP2 DUP2 SLOAD DUP2 LT PUSH2 0x15C0 JUMPI PUSH1 0x0 DUP1 REVERT JUMPDEST PUSH1 0x1 PUSH1 0x1 PUSH1 0xA0 SHL SUB DUP1 DUP3 AND PUSH1 0x0 SWAP1 DUP2 MSTORE PUSH1 0x8 PUSH1 0x20 MSTORE PUSH1 0x40 DUP1 DUP3 KECCAK256 SLOAD DUP2 MLOAD PUSH4 0x3FABE5A3 PUSH1 0xE2 SHL DUP2 MSTORE SWAP2 MLOAD SWAP3 SWAP4 DUP5 SWAP4 SWAP2 AND SWAP2 DUP3 SWAP2 DUP5 SWAP2 DUP4 SWAP2 PUSH4 0xFEAF968C SWAP2 PUSH1 0x4 DUP1 DUP3 ADD SWAP3 PUSH1 0xA0 SWAP3 SWAP1 SWAP2 SWAP1 DUP3 SWAP1 SUB ADD DUP2 DUP7 GAS STATICCALL ISZERO DUP1 ISZERO PUSH2 0x3C7D JUMPI RETURNDATASIZE PUSH1 0x0 DUP1 RETURNDATACOPY RETURNDATASIZE PUSH1 0x0 REVERT JUMPDEST POP POP POP POP PUSH1 0x40 MLOAD RETURNDATASIZE PUSH1 0x1F NOT PUSH1 0x1F DUP3 ADD AND DUP3 ADD DUP1 PUSH1 0x40 MSTORE POP DUP2 ADD SWAP1 PUSH2 0x3CA1 SWAP2 SWAP1 PUSH2 0x4707 JUMP JUMPDEST POP POP POP SWAP2 POP POP PUSH1 0x0 DUP3 PUSH1 0x1 PUSH1 0x1 PUSH1 0xA0 SHL SUB AND PUSH4 0x313CE567 PUSH1 0x40 MLOAD DUP2 PUSH4 0xFFFFFFFF AND PUSH1 0xE0 SHL DUP2 MSTORE PUSH1 0x4 ADD PUSH1 0x20 PUSH1 0x40 MLOAD DUP1 DUP4 SUB DUP2 DUP7 GAS STATICCALL ISZERO DUP1 ISZERO PUSH2 0x3CE7 JUMPI RETURNDATASIZE PUSH1 0x0 DUP1 RETURNDATACOPY RETURNDATASIZE PUSH1 0x0 REVERT JUMPDEST POP POP POP POP PUSH1 0x40 MLOAD RETURNDATASIZE PUSH1 0x1F NOT PUSH1 0x1F DUP3 ADD AND DUP3 ADD DUP1 PUSH1 0x40 MSTORE POP DUP2 ADD SWAP1 PUSH2 0x3D0B SWAP2 SWAP1 PUSH2 0x47DC JUMP JUMPDEST SWAP2 SWAP8 PUSH1 0xFF SWAP1 SWAP3 AND SWAP7 POP SWAP1 SWAP5 POP POP POP POP POP JUMP JUMPDEST PUSH1 0x0 DUP2 DUP2 MSTORE PUSH1 0x27 PUSH1 0x20 MSTORE PUSH1 0x40 SWAP1 KECCAK256 SLOAD PUSH1 0xFF AND ISZERO ISZERO PUSH1 0x1 EQ PUSH2 0x3D3D JUMPI PUSH1 0x0 DUP1 REVERT JUMPDEST PUSH1 0x0 DUP2 DUP2 MSTORE PUSH1 0x2E PUSH1 0x20 SWAP1 DUP2 MSTORE PUSH1 0x40 DUP1 DUP4 KECCAK256 CALLER DUP1 DUP6 MSTORE SWAP1 DUP4 MSTORE DUP2 DUP5 KECCAK256 SLOAD DUP6 DUP6 MSTORE PUSH1 0x2F DUP5 MSTORE DUP3 DUP6 KECCAK256 SWAP2 DUP6 MSTORE SWAP3 MSTORE DUP3 KECCAK256 SLOAD SWAP1 SWAP2 PUSH2 0x3D77 DUP3 DUP5 PUSH2 0x4569 JUMP JUMPDEST PUSH1 0x0 DUP6 DUP2 MSTORE PUSH1 0x30 PUSH1 0x20 MSTORE PUSH1 0x40 DUP2 KECCAK256 SLOAD SWAP2 SWAP3 POP SWAP1 PUSH1 0x64 SWAP1 PUSH2 0x3D98 SWAP1 DUP7 SWAP1 PUSH2 0x442F JUMP JUMPDEST PUSH2 0x3DA2 SWAP2 SWAP1 PUSH2 0x444E JUMP JUMPDEST SWAP1 POP PUSH1 0x0 PUSH2 0x3DB0 DUP5 DUP4 PUSH2 0x4569 JUMP JUMPDEST SWAP1 POP PUSH1 0x0 DUP6 GT PUSH2 0x3DBF JUMPI PUSH1 0x0 DUP1 REVERT JUMPDEST PUSH1 0x0 DUP2 GT PUSH2 0x3DCC JUMPI PUSH1 0x0 DUP1 REVERT JUMPDEST DUP5 DUP5 LT PUSH2 0x3DD8 JUMPI PUSH1 0x0 DUP1 REVERT JUMPDEST PUSH1 0x0 DUP7 DUP2 MSTORE PUSH1 0x31 PUSH1 0x20 MSTORE PUSH1 0x40 SWAP1 DUP2 SWAP1 KECCAK256 SLOAD SWAP1 MLOAD PUSH4 0xA9059CBB PUSH1 0xE0 SHL DUP2 MSTORE PUSH1 0x1 PUSH1 0x1 PUSH1 0xA0 SHL SUB SWAP1 SWAP2 AND SWAP1 PUSH4 0xA9059CBB SWAP1 PUSH2 0x3E17 SWAP1 CALLER SWAP1 DUP6 SWAP1 PUSH1 0x4 ADD PUSH2 0x4470 JUMP JUMPDEST PUSH1 0x20 PUSH1 0x40 MLOAD DUP1 DUP4 SUB DUP2 PUSH1 0x0 DUP8 GAS CALL ISZERO DUP1 ISZERO PUSH2 0x3E36 JUMPI RETURNDATASIZE PUSH1 0x0 DUP1 RETURNDATACOPY RETURNDATASIZE PUSH1 0x0 REVERT JUMPDEST POP POP POP POP PUSH1 0x40 MLOAD RETURNDATASIZE PUSH1 0x1F NOT PUSH1 0x1F DUP3 ADD AND DUP3 ADD DUP1 PUSH1 0x40 MSTORE POP DUP2 ADD SWAP1 PUSH2 0x3E5A SWAP2 SWAP1 PUSH2 0x4489 JUMP JUMPDEST POP PUSH1 0x0 DUP7 DUP2 MSTORE PUSH1 0x2F PUSH1 0x20 SWAP1 DUP2 MSTORE PUSH1 0x40 DUP1 DUP4 KECCAK256 CALLER DUP5 MSTORE SWAP1 SWAP2 MSTORE SWAP1 KECCAK256 SLOAD PUSH2 0x3E80 SWAP1 DUP3 SWAP1 PUSH2 0x4538 JUMP JUMPDEST PUSH1 0x0 SWAP7 DUP8 MSTORE PUSH1 0x2F PUSH1 0x20 SWAP1 DUP2 MSTORE PUSH1 0x40 DUP1 DUP10 KECCAK256 CALLER DUP11 MSTORE SWAP1 SWAP2 MSTORE SWAP1 SWAP7 KECCAK256 SWAP6 SWAP1 SWAP6 SSTORE POP POP POP POP POP JUMP JUMPDEST PUSH1 0x0 SLOAD PUSH1 0x1 PUSH1 0x1 PUSH1 0xA0 SHL SUB AND CALLER EQ PUSH2 0x3ECF JUMPI PUSH1 0x40 MLOAD PUSH3 0x461BCD PUSH1 0xE5 SHL DUP2 MSTORE PUSH1 0x4 ADD PUSH2 0xE21 SWAP1 PUSH2 0x43E4 JUMP JUMPDEST PUSH1 0x1 PUSH1 0x1 PUSH1 0xA0 SHL SUB DUP2 AND PUSH2 0x3F34 JUMPI PUSH1 0x40 MLOAD PUSH3 0x461BCD PUSH1 0xE5 SHL DUP2 MSTORE PUSH1 0x20 PUSH1 0x4 DUP3 ADD MSTORE PUSH1 0x26 PUSH1 0x24 DUP3 ADD MSTORE PUSH32 0x4F776E61626C653A206E6577206F776E657220697320746865207A65726F2061 PUSH1 0x44 DUP3 ADD MSTORE PUSH6 0x646472657373 PUSH1 0xD0 SHL PUSH1 0x64 DUP3 ADD MSTORE PUSH1 0x84 ADD PUSH2 0xE21 JUMP JUMPDEST PUSH2 0x1D50 DUP2 PUSH2 0x4149 JUMP JUMPDEST PUSH1 0x0 DUP2 DUP2 MSTORE PUSH1 0x2E PUSH1 0x20 SWAP1 DUP2 MSTORE PUSH1 0x40 DUP1 DUP4 KECCAK256 CALLER DUP1 DUP6 MSTORE SWAP1 DUP4 MSTORE DUP2 DUP5 KECCAK256 SLOAD DUP6 DUP6 MSTORE PUSH1 0x2F DUP5 MSTORE DUP3 DUP6 KECCAK256 SWAP2 DUP6 MSTORE SWAP3 MSTORE DUP3 KECCAK256 SLOAD PUSH1 0x17 SLOAD DUP4 SWAP1 PUSH1 0x64 SWAP1 PUSH2 0x3F7E SWAP1 DUP6 SWAP1 PUSH2 0x442F JUMP JUMPDEST PUSH2 0x3F88 SWAP2 SWAP1 PUSH2 0x444E JUMP JUMPDEST SWAP1 POP PUSH1 0x0 PUSH2 0x3F96 DUP4 DUP4 PUSH2 0x4569 JUMP JUMPDEST SWAP9 SWAP8 POP POP POP POP POP POP POP POP JUMP JUMPDEST PUSH1 0x0 SLOAD PUSH1 0x1 PUSH1 0x1 PUSH1 0xA0 SHL SUB AND CALLER EQ PUSH2 0x3FCC JUMPI PUSH1 0x40 MLOAD PUSH3 0x461BCD PUSH1 0xE5 SHL DUP2 MSTORE PUSH1 0x4 ADD PUSH2 0xE21 SWAP1 PUSH2 0x43E4 JUMP JUMPDEST PUSH1 0x0 SWAP2 DUP3 MSTORE PUSH1 0x27 PUSH1 0x20 MSTORE PUSH1 0x40 SWAP1 SWAP2 KECCAK256 DUP1 SLOAD PUSH1 0xFF NOT AND SWAP2 ISZERO ISZERO SWAP2 SWAP1 SWAP2 OR SWAP1 SSTORE JUMP JUMPDEST PUSH1 0xC DUP2 DUP2 SLOAD DUP2 LT PUSH2 0x15C0 JUMPI PUSH1 0x0 DUP1 REVERT JUMPDEST PUSH1 0x2D PUSH1 0x20 MSTORE DUP2 PUSH1 0x0 MSTORE PUSH1 0x40 PUSH1 0x0 KECCAK256 DUP2 DUP2 SLOAD DUP2 LT PUSH2 0x4018 JUMPI PUSH1 0x0 DUP1 REVERT JUMPDEST PUSH1 0x0 SWAP2 DUP3 MSTORE PUSH1 0x20 SWAP1 SWAP2 KECCAK256 ADD SLOAD PUSH1 0x1 PUSH1 0x1 PUSH1 0xA0 SHL SUB AND SWAP2 POP DUP3 SWAP1 POP JUMP JUMPDEST PUSH1 0x1 PUSH1 0x1 PUSH1 0xA0 SHL SUB DUP1 DUP3 AND PUSH1 0x0 SWAP1 DUP2 MSTORE PUSH1 0x2 PUSH1 0x20 SWAP1 DUP2 MSTORE PUSH1 0x40 DUP1 DUP4 KECCAK256 SWAP4 DUP7 AND DUP4 MSTORE SWAP3 SWAP1 MSTORE KECCAK256 SLOAD PUSH2 0x1106 JUMPI PUSH1 0x1 PUSH1 0x1 PUSH1 0xA0 SHL SUB DUP3 AND PUSH1 0x0 SWAP1 DUP2 MSTORE PUSH1 0x7 PUSH1 0x20 MSTORE PUSH1 0x40 SWAP1 KECCAK256 SLOAD PUSH2 0x4082 SWAP1 PUSH1 0x1 PUSH2 0x4538 JUMP JUMPDEST PUSH1 0x1 PUSH1 0x1 PUSH1 0xA0 SHL SUB DUP4 AND PUSH1 0x0 SWAP1 DUP2 MSTORE PUSH1 0x7 PUSH1 0x20 MSTORE PUSH1 0x40 SWAP1 KECCAK256 SSTORE POP POP JUMP JUMPDEST PUSH1 0x1 PUSH1 0x1 PUSH1 0xA0 SHL SUB DUP1 DUP3 AND PUSH1 0x0 SWAP1 DUP2 MSTORE PUSH1 0x2 PUSH1 0x20 SWAP1 DUP2 MSTORE PUSH1 0x40 DUP1 DUP4 KECCAK256 SWAP4 DUP7 AND DUP4 MSTORE SWAP3 SWAP1 MSTORE KECCAK256 SLOAD PUSH2 0x1106 JUMPI PUSH1 0xA SLOAD PUSH2 0x40D7 SWAP1 PUSH1 0x1 PUSH2 0x4538 JUMP JUMPDEST PUSH1 0xA SSTORE POP POP JUMP JUMPDEST PUSH1 0x1 PUSH1 0x1 PUSH1 0xA0 SHL SUB DUP1 DUP3 AND PUSH1 0x0 SWAP1 DUP2 MSTORE PUSH1 0x10 PUSH1 0x20 SWAP1 DUP2 MSTORE PUSH1 0x40 DUP1 DUP4 KECCAK256 SWAP4 DUP7 AND DUP4 MSTORE SWAP3 SWAP1 MSTORE KECCAK256 SLOAD PUSH2 0x1106 JUMPI PUSH1 0x1 PUSH1 0x1 PUSH1 0xA0 SHL SUB DUP3 AND PUSH1 0x0 SWAP1 DUP2 MSTORE PUSH1 0x1C PUSH1 0x20 MSTORE PUSH1 0x40 SWAP1 KECCAK256 SLOAD PUSH2 0x412C SWAP1 PUSH1 0x1 PUSH2 0x4538 JUMP JUMPDEST PUSH1 0x1 PUSH1 0x1 PUSH1 0xA0 SHL SUB DUP4 AND PUSH1 0x0 SWAP1 DUP2 MSTORE PUSH1 0x1C PUSH1 0x20 MSTORE PUSH1 0x40 SWAP1 KECCAK256 SSTORE POP POP JUMP JUMPDEST PUSH1 0x0 DUP1 SLOAD PUSH1 0x1 PUSH1 0x1 PUSH1 0xA0 SHL SUB DUP4 DUP2 AND PUSH1 0x1 PUSH1 0x1 PUSH1 0xA0 SHL SUB NOT DUP4 AND DUP2 OR DUP5 SSTORE PUSH1 0x40 MLOAD SWAP2 SWAP1 SWAP3 AND SWAP3 DUP4 SWAP2 PUSH32 0x8BE0079C531659141344CD1FD0A4F28419497F9722A3DAAFE3B4186F6B6457E0 SWAP2 SWAP1 LOG3 POP POP JUMP JUMPDEST PUSH1 0x0 DUP2 DUP2 MSTORE PUSH1 0x28 PUSH1 0x20 SWAP1 DUP2 MSTORE PUSH1 0x40 DUP1 DUP4 KECCAK256 PUSH1 0x1 PUSH1 0x1 PUSH1 0xA0 SHL SUB DUP7 AND DUP5 MSTORE SWAP1 SWAP2 MSTORE SWAP1 KECCAK256 SLOAD PUSH2 0x1106 JUMPI PUSH1 0x1 PUSH1 0x1 PUSH1 0xA0 SHL SUB DUP3 AND PUSH1 0x0 SWAP1 DUP2 MSTORE PUSH1 0x29 PUSH1 0x20 MSTORE PUSH1 0x40 SWAP1 KECCAK256 SLOAD PUSH2 0x41E4 SWAP1 PUSH1 0x1 PUSH2 0x4538 JUMP JUMPDEST PUSH1 0x1 PUSH1 0x1 PUSH1 0xA0 SHL SUB SWAP3 SWAP1 SWAP3 AND PUSH1 0x0 DUP2 DUP2 MSTORE PUSH1 0x29 PUSH1 0x20 SWAP1 DUP2 MSTORE PUSH1 0x40 DUP1 DUP4 KECCAK256 SWAP6 SWAP1 SWAP6 SSTORE SWAP3 DUP2 MSTORE PUSH1 0x2D DUP4 MSTORE SWAP3 DUP4 KECCAK256 DUP1 SLOAD PUSH1 0x1 DUP2 ADD DUP3 SSTORE SWAP1 DUP5 MSTORE SWAP2 SWAP1 SWAP3 KECCAK256 ADD DUP1 SLOAD PUSH1 0x1 PUSH1 0x1 PUSH1 0xA0 SHL SUB NOT AND SWAP1 SWAP2 OR SWAP1 SSTORE JUMP JUMPDEST DUP1 CALLDATALOAD PUSH1 0x1 PUSH1 0x1 PUSH1 0xA0 SHL SUB DUP2 AND DUP2 EQ PUSH2 0x3B13 JUMPI PUSH1 0x0 DUP1 REVERT JUMPDEST PUSH1 0x0 DUP1 PUSH1 0x40 DUP4 DUP6 SUB SLT ISZERO PUSH2 0x425C JUMPI PUSH1 0x0 DUP1 REVERT JUMPDEST DUP3 CALLDATALOAD SWAP2 POP PUSH2 0x426C PUSH1 0x20 DUP5 ADD PUSH2 0x4232 JUMP JUMPDEST SWAP1 POP SWAP3 POP SWAP3 SWAP1 POP JUMP JUMPDEST PUSH1 0x0 DUP1 PUSH1 0x40 DUP4 DUP6 SUB SLT ISZERO PUSH2 0x4288 JUMPI PUSH1 0x0 DUP1 REVERT JUMPDEST POP POP DUP1 CALLDATALOAD SWAP3 PUSH1 0x20 SWAP1 SWAP2 ADD CALLDATALOAD SWAP2 POP JUMP JUMPDEST PUSH1 0x0 PUSH1 0x20 DUP3 DUP5 SUB SLT ISZERO PUSH2 0x42A9 JUMPI PUSH1 0x0 DUP1 REVERT JUMPDEST PUSH2 0x42B2 DUP3 PUSH2 0x4232 JUMP JUMPDEST SWAP4 SWAP3 POP POP POP JUMP JUMPDEST PUSH1 0x0 PUSH1 0x20 DUP3 DUP5 SUB SLT ISZERO PUSH2 0x42CB JUMPI PUSH1 0x0 DUP1 REVERT JUMPDEST POP CALLDATALOAD SWAP2 SWAP1 POP JUMP JUMPDEST PUSH1 0x0 DUP1 PUSH1 0x40 DUP4 DUP6 SUB SLT ISZERO PUSH2 0x42E5 JUMPI PUSH1 0x0 DUP1 REVERT JUMPDEST PUSH2 0x42EE DUP4 PUSH2 0x4232 JUMP JUMPDEST SWAP2 POP PUSH2 0x426C PUSH1 0x20 DUP5 ADD PUSH2 0x4232 JUMP JUMPDEST DUP1 ISZERO ISZERO DUP2 EQ PUSH2 0x1D50 JUMPI PUSH1 0x0 DUP1 REVERT JUMPDEST PUSH1 0x0 DUP1 PUSH1 0x40 DUP4 DUP6 SUB SLT ISZERO PUSH2 0x431D JUMPI PUSH1 0x0 DUP1 REVERT JUMPDEST DUP3 CALLDATALOAD SWAP2 POP PUSH1 0x20 DUP4 ADD CALLDATALOAD PUSH2 0x432F DUP2 PUSH2 0x42FC JUMP JUMPDEST DUP1 SWAP2 POP POP SWAP3 POP SWAP3 SWAP1 POP JUMP JUMPDEST PUSH1 0x0 DUP1 PUSH1 0x40 DUP4 DUP6 SUB SLT ISZERO PUSH2 0x434D JUMPI PUSH1 0x0 DUP1 REVERT JUMPDEST PUSH2 0x4356 DUP4 PUSH2 0x4232 JUMP JUMPDEST SWAP5 PUSH1 0x20 SWAP4 SWAP1 SWAP4 ADD CALLDATALOAD SWAP4 POP POP POP JUMP JUMPDEST PUSH1 0x0 DUP1 PUSH1 0x0 PUSH1 0x60 DUP5 DUP7 SUB SLT ISZERO PUSH2 0x4379 JUMPI PUSH1 0x0 DUP1 REVERT JUMPDEST PUSH2 0x4382 DUP5 PUSH2 0x4232 JUMP JUMPDEST SWAP3 POP PUSH2 0x4390 PUSH1 0x20 DUP6 ADD PUSH2 0x4232 JUMP JUMPDEST SWAP2 POP PUSH1 0x40 DUP5 ADD CALLDATALOAD SWAP1 POP SWAP3 POP SWAP3 POP SWAP3 JUMP JUMPDEST PUSH1 0x0 DUP1 PUSH1 0x0 DUP1 PUSH1 0x80 DUP6 DUP8 SUB SLT ISZERO PUSH2 0x43B6 JUMPI PUSH1 0x0 DUP1 REVERT JUMPDEST DUP5 CALLDATALOAD SWAP4 POP PUSH2 0x43C6 PUSH1 0x20 DUP7 ADD PUSH2 0x4232 JUMP JUMPDEST SWAP3 POP PUSH2 0x43D4 PUSH1 0x40 DUP7 ADD PUSH2 0x4232 JUMP JUMPDEST SWAP4 SWAP7 SWAP3 SWAP6 POP SWAP3 SWAP4 PUSH1 0x60 ADD CALLDATALOAD SWAP3 POP POP JUMP JUMPDEST PUSH1 0x20 DUP1 DUP3 MSTORE DUP2 DUP2 ADD MSTORE PUSH32 0x4F776E61626C653A2063616C6C6572206973206E6F7420746865206F776E6572 PUSH1 0x40 DUP3 ADD MSTORE PUSH1 0x60 ADD SWAP1 JUMP JUMPDEST PUSH4 0x4E487B71 PUSH1 0xE0 SHL PUSH1 0x0 MSTORE PUSH1 0x11 PUSH1 0x4 MSTORE PUSH1 0x24 PUSH1 0x0 REVERT JUMPDEST PUSH1 0x0 DUP2 PUSH1 0x0 NOT DIV DUP4 GT DUP3 ISZERO ISZERO AND ISZERO PUSH2 0x4449 JUMPI PUSH2 0x4449 PUSH2 0x4419 JUMP JUMPDEST POP MUL SWAP1 JUMP JUMPDEST PUSH1 0x0 DUP3 PUSH2 0x446B JUMPI PUSH4 0x4E487B71 PUSH1 0xE0 SHL PUSH1 0x0 MSTORE PUSH1 0x12 PUSH1 0x4 MSTORE PUSH1 0x24 PUSH1 0x0 REVERT JUMPDEST POP DIV SWAP1 JUMP JUMPDEST PUSH1 0x1 PUSH1 0x1 PUSH1 0xA0 SHL SUB SWAP3 SWAP1 SWAP3 AND DUP3 MSTORE PUSH1 0x20 DUP3 ADD MSTORE PUSH1 0x40 ADD SWAP1 JUMP JUMPDEST PUSH1 0x0 PUSH1 0x20 DUP3 DUP5 SUB SLT ISZERO PUSH2 0x449B JUMPI PUSH1 0x0 DUP1 REVERT JUMPDEST DUP2 MLOAD PUSH2 0x42B2 DUP2 PUSH2 0x42FC JUMP JUMPDEST PUSH1 0x20 DUP1 DUP3 MSTORE PUSH1 0x1A SWAP1 DUP3 ADD MSTORE PUSH32 0x416D6F756E74206D757374206265206D6F7265207468616E2030000000000000 PUSH1 0x40 DUP3 ADD MSTORE PUSH1 0x60 ADD SWAP1 JUMP JUMPDEST PUSH1 0x20 DUP1 DUP3 MSTORE PUSH1 0x1E SWAP1 DUP3 ADD MSTORE PUSH32 0x546F6B656E2069732063757272656E746C79206E6F7420616C6C6F7765640000 PUSH1 0x40 DUP3 ADD MSTORE PUSH1 0x60 ADD SWAP1 JUMP JUMPDEST PUSH1 0x1 PUSH1 0x1 PUSH1 0xA0 SHL SUB SWAP4 DUP5 AND DUP2 MSTORE SWAP2 SWAP1 SWAP3 AND PUSH1 0x20 DUP3 ADD MSTORE PUSH1 0x40 DUP2 ADD SWAP2 SWAP1 SWAP2 MSTORE PUSH1 0x60 ADD SWAP1 JUMP JUMPDEST PUSH1 0x0 DUP3 NOT DUP3 GT ISZERO PUSH2 0x454B JUMPI PUSH2 0x454B PUSH2 0x4419 JUMP JUMPDEST POP ADD SWAP1 JUMP JUMPDEST PUSH1 0x0 PUSH1 0x20 DUP3 DUP5 SUB SLT ISZERO PUSH2 0x4562 JUMPI PUSH1 0x0 DUP1 REVERT JUMPDEST POP MLOAD SWAP2 SWAP1 POP JUMP JUMPDEST PUSH1 0x0 DUP3 DUP3 LT ISZERO PUSH2 0x457B JUMPI PUSH2 0x457B PUSH2 0x4419 JUMP JUMPDEST POP SUB SWAP1 JUMP JUMPDEST PUSH1 0x20 DUP1 DUP3 MSTORE PUSH1 0x2C SWAP1 DUP3 ADD MSTORE PUSH32 0x596F7520646F6E2774206861766520656E6F7567682070757263686173656420 PUSH1 0x40 DUP3 ADD MSTORE PUSH12 0x746F6B656E73206C65667421 PUSH1 0xA0 SHL PUSH1 0x60 DUP3 ADD MSTORE PUSH1 0x80 ADD SWAP1 JUMP JUMPDEST PUSH1 0x1 DUP2 DUP2 JUMPDEST DUP1 DUP6 GT ISZERO PUSH2 0x4607 JUMPI DUP2 PUSH1 0x0 NOT DIV DUP3 GT ISZERO PUSH2 0x45ED JUMPI PUSH2 0x45ED PUSH2 0x4419 JUMP JUMPDEST DUP1 DUP6 AND ISZERO PUSH2 0x45FA JUMPI SWAP2 DUP2 MUL SWAP2 JUMPDEST SWAP4 DUP5 SHR SWAP4 SWAP1 DUP1 MUL SWAP1 PUSH2 0x45D1 JUMP JUMPDEST POP SWAP3 POP SWAP3 SWAP1 POP JUMP JUMPDEST PUSH1 0x0 DUP3 PUSH2 0x461E JUMPI POP PUSH1 0x1 PUSH2 0x15AA JUMP JUMPDEST DUP2 PUSH2 0x462B JUMPI POP PUSH1 0x0 PUSH2 0x15AA JUMP JUMPDEST DUP2 PUSH1 0x1 DUP2 EQ PUSH2 0x4641 JUMPI PUSH1 0x2 DUP2 EQ PUSH2 0x464B JUMPI PUSH2 0x4667 JUMP JUMPDEST PUSH1 0x1 SWAP2 POP POP PUSH2 0x15AA JUMP JUMPDEST PUSH1 0xFF DUP5 GT ISZERO PUSH2 0x465C JUMPI PUSH2 0x465C PUSH2 0x4419 JUMP JUMPDEST POP POP PUSH1 0x1 DUP3 SHL PUSH2 0x15AA JUMP JUMPDEST POP PUSH1 0x20 DUP4 LT PUSH2 0x133 DUP4 LT AND PUSH1 0x4E DUP5 LT PUSH1 0xB DUP5 LT AND OR ISZERO PUSH2 0x468A JUMPI POP DUP2 DUP2 EXP PUSH2 0x15AA JUMP JUMPDEST PUSH2 0x4694 DUP4 DUP4 PUSH2 0x45CC JUMP JUMPDEST DUP1 PUSH1 0x0 NOT DIV DUP3 GT ISZERO PUSH2 0x46A8 JUMPI PUSH2 0x46A8 PUSH2 0x4419 JUMP JUMPDEST MUL SWAP4 SWAP3 POP POP POP JUMP JUMPDEST PUSH1 0x0 PUSH2 0x42B2 DUP4 DUP4 PUSH2 0x460F JUMP JUMPDEST PUSH4 0x4E487B71 PUSH1 0xE0 SHL PUSH1 0x0 MSTORE PUSH1 0x32 PUSH1 0x4 MSTORE PUSH1 0x24 PUSH1 0x0 REVERT JUMPDEST PUSH1 0x0 PUSH1 0x0 NOT DUP3 EQ ISZERO PUSH2 0x46E6 JUMPI PUSH2 0x46E6 PUSH2 0x4419 JUMP JUMPDEST POP PUSH1 0x1 ADD SWAP1 JUMP JUMPDEST DUP1 MLOAD PUSH10 0xFFFFFFFFFFFFFFFFFFFF DUP2 AND DUP2 EQ PUSH2 0x3B13 JUMPI PUSH1 0x0 DUP1 REVERT JUMPDEST PUSH1 0x0 DUP1 PUSH1 0x0 DUP1 PUSH1 0x0 PUSH1 0xA0 DUP7 DUP9 SUB SLT ISZERO PUSH2 0x471F JUMPI PUSH1 0x0 DUP1 REVERT JUMPDEST PUSH2 0x4728 DUP7 PUSH2 0x46ED JUMP JUMPDEST SWAP5 POP PUSH1 0x20 DUP7 ADD MLOAD SWAP4 POP PUSH1 0x40 DUP7 ADD MLOAD SWAP3 POP PUSH1 0x60 DUP7 ADD MLOAD SWAP2 POP PUSH2 0x474B PUSH1 0x80 DUP8 ADD PUSH2 0x46ED JUMP JUMPDEST SWAP1 POP SWAP3 SWAP6 POP SWAP3 SWAP6 SWAP1 SWAP4 POP JUMP JUMPDEST PUSH1 0x0 PUSH1 0x1 PUSH1 0x1 PUSH1 0xFF SHL SUB DUP2 DUP5 SGT DUP3 DUP5 SGT DUP1 DUP3 AND DUP7 DUP5 DIV DUP7 GT AND ISZERO PUSH2 0x477D JUMPI PUSH2 0x477D PUSH2 0x4419 JUMP JUMPDEST PUSH1 0x1 PUSH1 0xFF SHL PUSH1 0x0 DUP8 SLT DUP3 DUP2 AND DUP8 DUP4 SDIV DUP10 SLT AND ISZERO PUSH2 0x479C JUMPI PUSH2 0x479C PUSH2 0x4419 JUMP JUMPDEST PUSH1 0x0 DUP8 SLT SWAP3 POP DUP8 DUP3 SDIV DUP8 SLT DUP5 DUP5 AND AND ISZERO PUSH2 0x47B8 JUMPI PUSH2 0x47B8 PUSH2 0x4419 JUMP JUMPDEST DUP8 DUP6 SDIV DUP8 SLT DUP2 DUP5 AND AND ISZERO PUSH2 0x47CE JUMPI PUSH2 0x47CE PUSH2 0x4419 JUMP JUMPDEST POP POP POP SWAP3 SWAP1 SWAP4 MUL SWAP4 SWAP3 POP POP POP JUMP JUMPDEST PUSH1 0x0 PUSH1 0x20 DUP3 DUP5 SUB SLT ISZERO PUSH2 0x47EE JUMPI PUSH1 0x0 DUP1 REVERT JUMPDEST DUP2 MLOAD PUSH1 0xFF DUP2 AND DUP2 EQ PUSH2 0x42B2 JUMPI PUSH1 0x0 DUP1 REVERT INVALID LOG2 PUSH5 0x6970667358 0x22 SLT KECCAK256 0xCC ADD ISZERO RETURNDATASIZE ISZERO OR TIMESTAMP 0xF8 0xDA 0xC5 LOG1 DUP16 0xA6 0xC8 BASEFEE LOG2 DIFFICULTY EQ 0x2E 0xDD 0xB1 0xDB 0xC3 0xC2 0x4D JUMPI 0xE1 DUP7 0x4A 0xD3 LOG3 NOT PUSH5 0x736F6C6343 STOP ADDMOD SIGNEXTEND STOP CALLER ","sha1":"a218f267f7035aa408bc902426811ce809498f60","source":"// SPDX-License-Identifier: MIT\npragma solidity ^0.8.0;\n\nimport \"@openzeppelin/contracts/access/Ownable.sol\";\nimport \"@openzeppelin/contracts/token/ERC20/IERC20.sol\";\nimport \"@openzeppelin/contracts/utils/math/SafeMath.sol\";\nimport \"@chainlink/contracts/src/v0.8/interfaces/AggregatorV3Interface.sol\";\n\ncontract TokenFarm is Ownable {\n    using SafeMath for uint256;\n\n    // mapping token address -> staker address -> amount\n    uint256 public APY = 10;\n\n    mapping(address => mapping(address => uint256)) public stakingBalance;\n    mapping(address => uint256) stakingTimeStamp;\n    mapping(address => uint256) stakingRewards;\n    mapping(address => uint256) public stakingTimeToWithdraw;\n    uint256 public amountPeopleLeftInWithdrawFees;\n\n    mapping(address => uint256) public uniqueTokensStaked;\n    mapping(address => address) public tokenPriceFeedMapping;\n    address[] public funders;\n    uint256 public uniqueTokenStakers;\n    uint256 public totalTokensStaked;\n\n    address[] public stakers;\n    address[] public allowedTokens;\n    IERC20 public dappToken;\n    IERC20 public preSaleTokenAddress;\n\n    // --------------------------------\n    // pre-sale amount Balance\n    // address public owner;\n    mapping(address => mapping(address => uint256)) public purchasedBalance;\n    mapping(address => uint256) public collectedPreSaleFunds;\n    mapping(address => uint256) public totalCollectionOfPreSaleFunds;\n    uint256 public totalCollectionOfPreSaleFundsAllTokens;\n\n    mapping(address => uint256) public totalPurchasedPreSaleTokens;\n    uint256 private TIMES;\n    // mapping(address => mapping(address => uint256))\n    //     public preSaleTokensAvailableToWithdraw;\n\n    mapping(address => uint256) public totalWithdrawnPreSaleTokens;\n\n    uint256 public percentageWithdrawAllowed;\n\n    // mapping(address => mapping(address => uint256))\n    //     public preSaleTokensLeftToWithdraw;\n\n    mapping(address => uint256) public addressToAmountFunded;\n    address[] public preSaleFunders;\n    address[] public preSaleAllowedTokens;\n    AggregatorV3Interface public priceFeedA;\n    mapping(address => uint256) public uniquePreSaleTokensStaked;\n    uint256 public singleTokenAllPreSaleBalance;\n\n    // Pre Sale Status and Allocation Round Variables\n\n    mapping(uint256 => uint256) public stakingLevelToWeight; // this assign each staking level accordign to their weight value\n    mapping(uint256 => bool) public participateInPreSaleAllocationStatus; // This helps activate or deactive the function \"participateInPreSaleAllocation\"\n    uint256 baseNumberStakingLevel = 1500;\n    mapping(uint256 => uint256) public stakingLevelUserCounter; // this counts the number of participated users in each staking level\n    mapping(address => bool) public preSaleParticipantsStatus;\n    mapping(address => uint256) public whenParticipatedThatLevel; // this is the staking level of user when he/she particpated in pre-sale\n    mapping(uint256 => uint256) public totalAmountToCollectForThisPreSale; // determines how much amount you want to collect for this pre-sale\n    mapping(uint256 => bool) public preSaleAllocationStatus; // determines if Allocation round has started allowed. start it after turning participation\n\n    constructor(address _dappTokenAddress, address _priceFeed) public {\n        dappToken = IERC20(_dappTokenAddress);\n        // owner = msg.sender;\n        priceFeedA = AggregatorV3Interface(_priceFeed);\n\n        stakingLevelToWeight[0] = 0;\n        stakingLevelToWeight[1] = 1;\n        stakingLevelToWeight[2] = 2;\n        stakingLevelToWeight[3] = 3;\n        stakingLevelToWeight[4] = 4;\n        stakingLevelToWeight[5] = 5;\n        stakingLevelToWeight[6] = 6;\n        stakingLevelToWeight[7] = 7;\n        stakingLevelToWeight[8] = 8;\n        stakingLevelToWeight[9] = 9;\n        stakingLevelToWeight[10] = 10;\n        stakingLevelToWeight[11] = 15;\n        stakingLevelToWeight[12] = 20;\n        stakingLevelToWeight[13] = 25;\n        stakingLevelToWeight[14] = 30;\n        stakingLevelToWeight[15] = 35;\n        stakingLevelToWeight[16] = 40;\n        stakingLevelToWeight[17] = 45;\n        stakingLevelToWeight[18] = 50;\n        stakingLevelToWeight[19] = 60;\n        stakingLevelToWeight[20] = 70;\n        stakingLevelToWeight[21] = 80;\n        stakingLevelToWeight[22] = 90;\n        stakingLevelToWeight[23] = 100;\n        stakingLevelToWeight[24] = 110;\n        stakingLevelToWeight[25] = 120;\n        stakingLevelToWeight[26] = 130;\n        stakingLevelToWeight[27] = 140;\n        stakingLevelToWeight[28] = 150;\n    }\n\n    //\n    // Pre Sale numbers and allocation per user\n    // -------------------------------\n    // Once the participant enters they wont be able to re-enter\n\n    function setTotalAmountToCollectForThisPreSale(\n        uint256 _preSaleNumber,\n        uint256 _amount\n    ) public onlyOwner {\n        totalAmountToCollectForThisPreSale[_preSaleNumber] = _amount;\n    }\n\n    function participateInPreSaleAllocation(\n        uint256 _preSaleNumber,\n        address _token\n    ) public {\n        require(participateInPreSaleAllocationStatus[_preSaleNumber] == true); // this is help to open the pre-sale participation\n        require(stakingBalance[_token][msg.sender] >= (1500 * (10**18)));\n        require(getStakingLevel(msg.sender, _token) > 0);\n        // require(preSaleParticipantsStatus[msg.sender] == false);\n\n        uint256 stakingLevel = getStakingLevel(msg.sender, _token);\n        stakingLevelUserCounter[stakingLevel] =\n            stakingLevelUserCounter[stakingLevel] +\n            1;\n        whenParticipatedThatLevel[msg.sender] = stakingLevel;\n    }\n\n    // uint256 public allPoolsTotalWeight;\n    // uint256 public amountAllocatedToEachShare;\n    // uint256 public allocatedAmountToEachUser;\n    // uint256 public users_count_each_staking_level;\n\n    function getAllocatedPreSaleAmount(\n        address _sender,\n        address _token,\n        uint256 _preSaleNumber\n    ) public view returns (uint256) {\n        require(preSaleAllocationStatus[_preSaleNumber] == true);\n        require(totalAmountToCollectForThisPreSale[_preSaleNumber] > 0);\n\n        uint256 allPoolsTotalWeight;\n        for (uint256 i = 1; i < 29; i++) {\n            uint256 eachPoolTotalWeight;\n            eachPoolTotalWeight = (stakingLevelToWeight[i] *\n                stakingLevelUserCounter[i]);\n            allPoolsTotalWeight = allPoolsTotalWeight + eachPoolTotalWeight;\n        }\n        uint256 amountAllocatedToEachShare = (totalAmountToCollectForThisPreSale[\n                _preSaleNumber\n            ] / allPoolsTotalWeight);\n\n        uint256 staking_level_of_sender = getStakingLevel(_sender, _token);\n        uint256 users_count_each_staking_level = stakingLevelUserCounter[\n            staking_level_of_sender\n        ];\n\n        uint256 each_level_staking_weight = stakingLevelToWeight[\n            staking_level_of_sender\n        ];\n\n        uint256 allocatedAmountToEachUser;\n        allocatedAmountToEachUser = ((each_level_staking_weight *\n            users_count_each_staking_level *\n            amountAllocatedToEachShare) / users_count_each_staking_level);\n\n        return (allocatedAmountToEachUser);\n    }\n\n    function changeStakingLevelToWeight(uint256 _level, uint256 _weight)\n        public\n        onlyOwner\n    {\n        stakingLevelToWeight[_level] = _weight;\n    }\n\n    function changeBaseNumberStakingLevel(uint256 _number) public onlyOwner {\n        baseNumberStakingLevel = _number;\n    }\n\n    function setPreSaleAllocationStatus(uint256 _number, bool _status)\n        public\n        onlyOwner\n    {\n        preSaleAllocationStatus[_number] = _status;\n    }\n\n    function setParticipateInPreSaleAllocationStatus(\n        uint256 _number,\n        bool _status\n    ) public onlyOwner {\n        participateInPreSaleAllocationStatus[_number] = _status;\n    }\n\n    function getStakingLevel(address _sender, address _token)\n        public\n        view\n        returns (uint256)\n    {\n        uint256 stakingLevel = 0;\n        if (\n            stakingBalance[_token][_sender] >=\n            ((baseNumberStakingLevel * 150) * (10**18))\n        ) {\n            return stakingLevel = 28;\n        } else if (\n            stakingBalance[_token][_sender] >=\n            ((baseNumberStakingLevel * 140) * (10**18))\n        ) {\n            return stakingLevel = 27;\n        } else if (\n            stakingBalance[_token][_sender] >=\n            ((baseNumberStakingLevel * 130) * (10**18))\n        ) {\n            return stakingLevel = 26;\n        } else if (\n            stakingBalance[_token][_sender] >=\n            ((baseNumberStakingLevel * 120) * (10**18))\n        ) {\n            return stakingLevel = 25;\n        } else if (\n            stakingBalance[_token][_sender] >=\n            ((baseNumberStakingLevel * 110) * (10**18))\n        ) {\n            return stakingLevel = 24;\n        } else if (\n            stakingBalance[_token][_sender] >=\n            ((baseNumberStakingLevel * 100) * (10**18))\n        ) {\n            return stakingLevel = 23;\n        } else if (\n            stakingBalance[_token][_sender] >=\n            ((baseNumberStakingLevel * 90) * (10**18))\n        ) {\n            return stakingLevel = 22;\n        } else if (\n            stakingBalance[_token][_sender] >=\n            ((baseNumberStakingLevel * 80) * (10**18))\n        ) {\n            return stakingLevel = 21;\n        } else if (\n            stakingBalance[_token][_sender] >=\n            ((baseNumberStakingLevel * 70) * (10**18))\n        ) {\n            return stakingLevel = 20;\n        } else if (\n            stakingBalance[_token][_sender] >=\n            ((baseNumberStakingLevel * 60) * (10**18))\n        ) {\n            return stakingLevel = 19;\n        } else if (\n            stakingBalance[_token][_sender] >=\n            ((baseNumberStakingLevel * 50) * (10**18))\n        ) {\n            return stakingLevel = 18;\n        } else if (\n            stakingBalance[_token][_sender] >=\n            ((baseNumberStakingLevel * 45) * (10**18))\n        ) {\n            return stakingLevel = 17;\n        } else if (\n            stakingBalance[_token][_sender] >=\n            ((baseNumberStakingLevel * 40) * (10**18))\n        ) {\n            return stakingLevel = 16;\n        } else if (\n            stakingBalance[_token][_sender] >=\n            ((baseNumberStakingLevel * 35) * (10**18))\n        ) {\n            return stakingLevel = 15;\n        } else if (\n            stakingBalance[_token][_sender] >=\n            ((baseNumberStakingLevel * 30) * (10**18))\n        ) {\n            return stakingLevel = 14;\n        } else if (\n            stakingBalance[_token][_sender] >=\n            ((baseNumberStakingLevel * 25) * (10**18))\n        ) {\n            return stakingLevel = 13;\n        } else if (\n            stakingBalance[_token][_sender] >=\n            ((baseNumberStakingLevel * 20) * (10**18))\n        ) {\n            return stakingLevel = 12;\n        } else if (\n            stakingBalance[_token][_sender] >=\n            ((baseNumberStakingLevel * 15) * (10**18))\n        ) {\n            return stakingLevel = 11;\n        } else if (\n            stakingBalance[_token][_sender] >=\n            ((baseNumberStakingLevel * 10) * (10**18))\n        ) {\n            return stakingLevel = 10;\n        } else if (\n            stakingBalance[_token][_sender] >=\n            ((baseNumberStakingLevel * 9) * (10**18))\n        ) {\n            return stakingLevel = 9;\n        } else if (\n            stakingBalance[_token][_sender] >=\n            ((baseNumberStakingLevel * 8) * (10**18))\n        ) {\n            return stakingLevel = 8;\n        } else if (\n            stakingBalance[_token][_sender] >=\n            ((baseNumberStakingLevel * 7) * (10**18))\n        ) {\n            return stakingLevel = 7;\n        } else if (\n            stakingBalance[_token][_sender] >=\n            ((baseNumberStakingLevel * 6) * (10**18))\n        ) {\n            return stakingLevel = 6;\n        } else if (\n            stakingBalance[_token][_sender] >=\n            ((baseNumberStakingLevel * 5) * (10**18))\n        ) {\n            return stakingLevel = 5;\n        } else if (\n            stakingBalance[_token][_sender] >=\n            ((baseNumberStakingLevel * 4) * (10**18))\n        ) {\n            return stakingLevel = 4;\n        } else if (\n            stakingBalance[_token][_sender] >=\n            ((baseNumberStakingLevel * 3) * (10**18))\n        ) {\n            return stakingLevel = 3;\n        } else if (\n            stakingBalance[_token][_sender] >=\n            ((baseNumberStakingLevel * 2) * (10**18))\n        ) {\n            return stakingLevel = 2;\n        } else if (\n            stakingBalance[_token][_sender] >=\n            ((baseNumberStakingLevel * 1) * (10**18))\n        ) {\n            return stakingLevel = 1;\n        } else {\n            return stakingLevel = 0;\n        }\n    }\n\n    // pre-sale collection of funds according to each pre-sale number\n    mapping(uint256 => bool) public preSaleFundEachPreSaleNumberStatus; // this is to activate or deactive the preSaleFundPerPreSaleNumber Function\n    mapping(uint256 => bool) public claimTokensEachPreSaleStatus; // this is to activate or deactive the claimAllTokensEachPreSale Function\n\n    mapping(uint256 => mapping(address => uint256))\n        public purchasedBalanceEachPreSale; // Balance of amount spend by user in this single pre-sale\n    mapping(address => uint256) public uniquePreSaleTokensPurchased; // Collecting how many times this user has participated in the pre-sales\n    mapping(uint256 => uint256) public TIMESeachPreSale; // Determines the price of pre-sale tokens / per BUSD\n    mapping(uint256 => mapping(address => uint256))\n        public collectedPreSaleFundsEachPreSale; // This is to withdraw pre-sale collected funds, this will get zero when owner withdraw the funds\n    mapping(uint256 => mapping(address => uint256))\n        public totalCollectionOfPreSaleFundsEachPreSale; // This will not get zero after withdrawing of funds\n    mapping(uint256 => address[]) public preSaleFundersEachPreSale; // creates the list of a number of users who purchased tokens in this single pre-sale\n    mapping(uint256 => mapping(address => uint256))\n        public totalPurchasedPreSaleTokensEachPreSale; // totalPurchasedPreSaleTokensEachPreSale determines how many pre-sale tokens user will get in this pre-sale\n    mapping(uint256 => mapping(address => uint256)) totalWithdrawnPreSaleTokensEachPreSale; // this is total withdrawn amount by user for this single pre-sale\n    mapping(uint256 => uint256) percentageWithdrawAllowedEachPreSale;\n    mapping(uint256 => IERC20) preSaleTokenAddressEachPreSale; // the is the tokens which we will deliver in return of pre-sale collected funds\n\n    function setPreSaleFundEachPreSaleNumberStatus(\n        uint256 _preSaleNumber,\n        bool _status\n    ) public onlyOwner {\n        preSaleFundEachPreSaleNumberStatus[_preSaleNumber] = _status;\n    }\n\n    // this represents the token being staked on our platform\n    // this represents the curreny being used to pay for this pre-sale\n    function preSaleFundEachPreSaleNumber(\n        uint256 _amount,\n        address _token,\n        address _busdToken,\n        uint256 _preSaleNumber\n    ) public {\n        require(preSaleFundEachPreSaleNumberStatus[_preSaleNumber] == true);\n        require(stakingBalance[_token][msg.sender] >= (1500 * (10**18)));\n        require(getStakingLevel(msg.sender, _token) > 0);\n        require(totalAmountToCollectForThisPreSale[_preSaleNumber] > 0);\n        require(_amount > 0, \"Amount must be more than 0\");\n        require(\n            preSaleTokenIsAllowed(_busdToken),\n            \"Token is currently not allowed\"\n        );\n        require(\n            totalCollectionOfPreSaleFundsEachPreSale[_preSaleNumber][\n                _busdToken\n            ] < totalAmountToCollectForThisPreSale[_preSaleNumber]\n        );\n        uint256 allocatedPreSaleAmount = getAllocatedPreSaleAmount(\n            msg.sender,\n            _token,\n            _preSaleNumber\n        );\n        uint256 balance = (allocatedPreSaleAmount -\n            purchasedBalanceEachPreSale[_preSaleNumber][msg.sender]);\n        require(balance > 0);\n        require(_amount <= balance);\n        IERC20(_busdToken).transferFrom(msg.sender, address(this), _amount);\n        updateUniquePreSaleTokensPurchased(msg.sender, _preSaleNumber);\n        // how much worth user has purchased in this single pre-sale (amount is in busd)\n        purchasedBalanceEachPreSale[_preSaleNumber][msg.sender] =\n            purchasedBalanceEachPreSale[_preSaleNumber][msg.sender] +\n            _amount;\n        // totalPurchasedPreSaleTokensEachPreSale determines how many pre-sale tokens user will get in this pre-sale\n        totalPurchasedPreSaleTokensEachPreSale[_preSaleNumber][msg.sender] =\n            totalPurchasedPreSaleTokensEachPreSale[_preSaleNumber][msg.sender] +\n            (_amount * TIMESeachPreSale[_preSaleNumber]);\n        // how much Funds has been collected so far\n        collectedPreSaleFundsEachPreSale[_preSaleNumber][_busdToken] =\n            collectedPreSaleFundsEachPreSale[_preSaleNumber][_busdToken] +\n            _amount;\n        totalCollectionOfPreSaleFundsEachPreSale[_preSaleNumber][_busdToken] =\n            totalCollectionOfPreSaleFundsEachPreSale[_preSaleNumber][\n                _busdToken\n            ] +\n            _amount;\n        totalCollectionOfPreSaleFundsAllTokens =\n            totalCollectionOfPreSaleFundsAllTokens +\n            _amount;\n    }\n\n    function getHowMuchMoreUserCanPurchaseEachPreSale(\n        address _sender,\n        address _token,\n        uint256 _preSaleNumber\n    ) public view returns (uint256) {\n        uint256 allocatedPreSaleAmount = getAllocatedPreSaleAmount(\n            _sender,\n            _token,\n            _preSaleNumber\n        );\n        uint256 balance = (allocatedPreSaleAmount -\n            purchasedBalanceEachPreSale[_preSaleNumber][_sender]);\n        return (balance);\n    }\n\n    function updateUniquePreSaleTokensPurchased(\n        address _user,\n        uint256 _preSaleNumber\n    ) internal {\n        if (purchasedBalanceEachPreSale[_preSaleNumber][_user] <= 0) {\n            uniquePreSaleTokensPurchased[_user] =\n                uniquePreSaleTokensPurchased[_user] +\n                1;\n            preSaleFundersEachPreSale[_preSaleNumber].push(_user);\n        }\n    }\n\n    function setClaimTokensEachPreSaleStatus(\n        uint256 _preSaleNumber,\n        bool _status\n    ) public onlyOwner {\n        claimTokensEachPreSaleStatus[_preSaleNumber] = _status;\n    }\n\n    function claimAllTokensEachPreSale(uint256 _preSaleNumber) public {\n        require(claimTokensEachPreSaleStatus[_preSaleNumber] == true);\n\n        uint256 totalPurchased = totalPurchasedPreSaleTokensEachPreSale[\n            _preSaleNumber\n        ][msg.sender];\n        uint256 totalWithdrawn = totalWithdrawnPreSaleTokensEachPreSale[\n            _preSaleNumber\n        ][msg.sender];\n        uint256 balance = (totalPurchased - totalWithdrawn);\n        uint256 allowedToWithdraw = (percentageWithdrawAllowedEachPreSale[\n            _preSaleNumber\n        ] * totalPurchased) / 100;\n        uint256 availableToWithdraw = (allowedToWithdraw - totalWithdrawn);\n\n        require(totalPurchased > 0);\n        require(availableToWithdraw > 0);\n        require(totalWithdrawn < totalPurchased);\n\n        IERC20(preSaleTokenAddressEachPreSale[_preSaleNumber]).transfer(\n            msg.sender,\n            availableToWithdraw\n        );\n        totalWithdrawnPreSaleTokensEachPreSale[_preSaleNumber][msg.sender] =\n            totalWithdrawnPreSaleTokensEachPreSale[_preSaleNumber][msg.sender] +\n            availableToWithdraw;\n    }\n\n    function claimTokensEachPreSale(uint256 _preSaleNumber, uint256 _amount)\n        public\n    {\n        require(claimTokensEachPreSaleStatus[_preSaleNumber] == true);\n\n        uint256 totalPurchased = totalPurchasedPreSaleTokensEachPreSale[\n            _preSaleNumber\n        ][msg.sender];\n        uint256 totalWithdrawn = totalWithdrawnPreSaleTokensEachPreSale[\n            _preSaleNumber\n        ][msg.sender];\n        uint256 balance = (totalPurchased - totalWithdrawn);\n        uint256 allowedToWithdraw = (percentageWithdrawAllowedEachPreSale[\n            _preSaleNumber\n        ] * totalPurchased) / 100;\n        uint256 availableToWithdraw = (allowedToWithdraw - totalWithdrawn);\n\n        require(availableToWithdraw > 0);\n        require(_amount <= availableToWithdraw);\n        require(totalWithdrawn < totalPurchased);\n        require(_amount > 0, \"Amount must be more than 0\");\n        require(\n            balance >= _amount,\n            \"You don't have enough purchased tokens left!\"\n        );\n        require((totalWithdrawn + _amount) < totalPurchased);\n\n        IERC20(preSaleTokenAddressEachPreSale[_preSaleNumber]).transfer(\n            msg.sender,\n            _amount\n        );\n        totalWithdrawnPreSaleTokensEachPreSale[_preSaleNumber][msg.sender] =\n            totalWithdrawnPreSaleTokensEachPreSale[_preSaleNumber][msg.sender] +\n            _amount;\n    }\n\n    // this function increase the of percentage amount allowed to withdraw\n\n    function setPercentageWithdrawAllowedEachPreSale(\n        uint256 _preSaleNumber,\n        uint256 _percentageAmount\n    ) public onlyOwner {\n        // require(percentageWithdrawAllowedEachPreSale[_preSaleNumber] <= 101);\n        // require((percentageWithdrawAllowedEachPreSale[_preSaleNumber] + _percentageAmount) <= 101);\n        percentageWithdrawAllowedEachPreSale[_preSaleNumber] =\n            percentageWithdrawAllowedEachPreSale[_preSaleNumber] +\n            _percentageAmount;\n    }\n\n    // similar to \"setPercentageWithdrawAllowedEachPreSale\" but you can also decrease the value\n\n    function manuallySetPercentageWithdrawAllowedEachPreSale(\n        uint256 _preSaleNumber,\n        uint256 _percentageAmount\n    ) public onlyOwner {\n        // require(percentageWithdrawAllowedEachPreSale[_preSaleNumber] <= 101);\n        // require((percentageWithdrawAllowedEachPreSale[_preSaleNumber] + _percentageAmount) <= 101);\n        percentageWithdrawAllowedEachPreSale[\n            _preSaleNumber\n        ] = _percentageAmount;\n    }\n\n    function getAvailablePreSaleTokensToWithdrawEachPreSale(\n        address _token,\n        address _sender,\n        uint256 _preSaleNumber\n    ) public view returns (uint256) {\n        uint256 totalPurchased = totalPurchasedPreSaleTokensEachPreSale[\n            _preSaleNumber\n        ][msg.sender];\n        uint256 totalWithdrawn = totalWithdrawnPreSaleTokensEachPreSale[\n            _preSaleNumber\n        ][msg.sender];\n        uint256 allowedToWithdraw = (percentageWithdrawAllowed *\n            totalPurchased) / 100;\n        uint256 availableToWithdraw = (allowedToWithdraw - totalWithdrawn);\n\n        // preSaleTokensLeftToWithdraw[_token][msg.sender] = availableToWithdraw;\n        return availableToWithdraw;\n    }\n\n    // this is to withdraw the collected funds from each pre-sale\n\n    function withdrawPreSaleCollectedFund(\n        uint256 _preSaleNumber,\n        address _busdToken\n    ) public onlyOwner {\n        // uint256 balance = purchasedBalance[_token][msg.sender];\n        // uint256 balance = (IERC20(_token).balanceOf(address(this)));\n        uint256 collectedFunds = collectedPreSaleFundsEachPreSale[\n            _preSaleNumber\n        ][_busdToken];\n        // require(balance > 0, \"Staking balance cannot be 0\");\n        IERC20(_busdToken).transfer(msg.sender, collectedFunds);\n\n        collectedPreSaleFundsEachPreSale[_preSaleNumber][_busdToken] = 0;\n    }\n\n    function updatePreSaleTokenAddressEachPreSale(\n        uint256 _preSaleNumber,\n        address _preSaleTokenAddress\n    ) public onlyOwner {\n        preSaleTokenAddressEachPreSale[_preSaleNumber] = IERC20(\n            _preSaleTokenAddress\n        );\n    }\n\n    function updateTimesEachPreSale(uint256 _preSaleNumber, uint256 _times)\n        public\n        onlyOwner\n    {\n        TIMESeachPreSale[_preSaleNumber] = _times;\n    }\n\n    // *************************************************\n\n    // ---------------------------------------\n\n    // -------------------------------\n    //    address[] public receivingAllowedTokens;\n\n    // stakeTokens - DONE!\n    // unStakeTokens - DONE\n    // issueTokens - DONE!\n    // addAllowedTokens - DONE!\n    // getEthValue - DONE!\n\n    // 100 ETH 1:1 for every 1 ETH, we give 1 DappToken\n    // 50 ETH and 50 DAI staked, and we want to give a reward of 1 DAPP / 1 DAI\n\n    function getVersion() public view returns (uint256) {\n        return priceFeedA.version();\n    }\n\n    function addPreSaleAllowedTokens(address _token) public onlyOwner {\n        preSaleAllowedTokens.push(_token);\n    }\n\n    function updateTimes(uint256 _times) public onlyOwner {\n        TIMES = _times;\n    }\n\n    function updatePreSaleTokenAddress(address _preSaleTokenAddress)\n        public\n        onlyOwner\n    {\n        preSaleTokenAddress = IERC20(_preSaleTokenAddress);\n    }\n\n    function preSaleFund(uint256 _amount, address _token) public {\n        // uint256 minimumUSD = 1 * (10**18);\n        // require(\n        //     getConversionRate(_amount) >= minimumUSD,\n        //     \"You need to spend more Eth!\"\n        // );\n        require(_amount > 0, \"Amount must be more than 0\");\n        require(\n            preSaleTokenIsAllowed(_token),\n            \"Token is currently not allowed\"\n        );\n        IERC20(_token).transferFrom(msg.sender, address(this), _amount);\n        singleTokenAllPreSaleBalance =\n            (IERC20(_token).balanceOf(address(this))) /\n            1000000000000000000;\n\n        updateUniquePreSaleTokensStaked(msg.sender, _token);\n\n        // how much worth user has purchased in busd\n        purchasedBalance[_token][msg.sender] =\n            purchasedBalance[_token][msg.sender] +\n            _amount;\n\n        // totalPurchasedPreSaleTokens determines how many pre-sale tokens user will get\n        totalPurchasedPreSaleTokens[msg.sender] =\n            totalPurchasedPreSaleTokens[msg.sender] +\n            (_amount * TIMES);\n\n        // how much amount has been calculated so far\n        collectedPreSaleFunds[_token] = collectedPreSaleFunds[_token] + _amount;\n        totalCollectionOfPreSaleFunds[_token] =\n            totalCollectionOfPreSaleFunds[_token] +\n            _amount;\n        totalCollectionOfPreSaleFundsAllTokens =\n            totalCollectionOfPreSaleFundsAllTokens +\n            _amount;\n\n        if (uniquePreSaleTokensStaked[msg.sender] == 1) {\n            preSaleFunders.push(msg.sender);\n        }\n\n        // addressToAmountFunded[msg.sender] += msg.value;\n        // preSaleFunders.push(msg.sender);\n    }\n\n    function getSingleTokenAllPreSaleBalance(address _token)\n        public\n        onlyOwner\n        returns (uint256)\n    {\n        singleTokenAllPreSaleBalance = IERC20(_token).balanceOf(address(this));\n        return singleTokenAllPreSaleBalance;\n    }\n\n    function claimAllPreSaletokens() public {\n        uint256 totalPurchased = totalPurchasedPreSaleTokens[msg.sender];\n        uint256 totalWithdrawn = totalWithdrawnPreSaleTokens[msg.sender];\n        uint256 balance = (totalPurchased - totalWithdrawn);\n        uint256 allowedToWithdraw = (percentageWithdrawAllowed *\n            totalPurchased) / 100;\n        uint256 availableToWithdraw = (allowedToWithdraw - totalWithdrawn);\n\n        require(totalPurchased > 0);\n        require(availableToWithdraw > 0);\n        require(totalWithdrawn < totalPurchased);\n\n        IERC20(preSaleTokenAddress).transfer(msg.sender, availableToWithdraw);\n        totalWithdrawnPreSaleTokens[msg.sender] =\n            totalWithdrawnPreSaleTokens[msg.sender] +\n            availableToWithdraw;\n    }\n\n    function claimPreSaleTokens(uint256 _amount) public {\n        uint256 totalPurchased = totalPurchasedPreSaleTokens[msg.sender];\n        uint256 totalWithdrawn = totalWithdrawnPreSaleTokens[msg.sender];\n        uint256 balance = (totalPurchased - totalWithdrawn);\n        uint256 allowedToWithdraw = (percentageWithdrawAllowed *\n            totalPurchased) / 100;\n        uint256 availableToWithdraw = (allowedToWithdraw - totalWithdrawn);\n\n        require(availableToWithdraw > 0);\n        require(_amount <= availableToWithdraw);\n        require(totalWithdrawn < totalPurchased);\n        require(_amount > 0, \"Amount must be more than 0\");\n        require(\n            balance >= _amount,\n            \"You don't have enough purchased tokens left!\"\n        );\n        require((totalWithdrawn + _amount) < totalPurchased);\n\n        IERC20(preSaleTokenAddress).transfer(msg.sender, _amount);\n        totalWithdrawnPreSaleTokens[msg.sender] =\n            totalWithdrawnPreSaleTokens[msg.sender] +\n            _amount;\n\n        // Removing: preSaleTokensAvailableToWithdraw is a changing value when\n        // we update the percentageWithdrawAllowed it will change\n\n        // preSaleTokensAvailableToWithdraw[_token][msg.sender] =\n        //     availableToWithdraw -\n        //     _amount;\n    }\n\n    function issuePreSaleTokensToWithdrawPercentage(uint256 _percentageAmount)\n        public\n        onlyOwner\n    {\n        require(percentageWithdrawAllowed <= 101);\n        require((percentageWithdrawAllowed + _percentageAmount) <= 101);\n        percentageWithdrawAllowed =\n            percentageWithdrawAllowed +\n            _percentageAmount;\n    }\n\n    function getAvailablePreSaleTokensToWithdraw(\n        address _token,\n        address _sender\n    ) public view returns (uint256) {\n        uint256 totalPurchased = totalPurchasedPreSaleTokens[_sender];\n        uint256 totalWithdrawn = totalWithdrawnPreSaleTokens[_sender];\n        // uint256 balance = (totalPurchased - totalWithdrawn);\n        uint256 allowedToWithdraw = (percentageWithdrawAllowed *\n            totalPurchased) / 100;\n        uint256 availableToWithdraw = (allowedToWithdraw - totalWithdrawn);\n\n        // preSaleTokensLeftToWithdraw[_token][msg.sender] = availableToWithdraw;\n        return availableToWithdraw;\n    }\n\n    function withdrawPreSaleCollectedFund(address _token) public onlyOwner {\n        // uint256 balance = purchasedBalance[_token][msg.sender];\n        // uint256 balance = (IERC20(_token).balanceOf(address(this)));\n        uint256 collectedFunds = collectedPreSaleFunds[_token];\n        // require(balance > 0, \"Staking balance cannot be 0\");\n        IERC20(_token).transfer(msg.sender, collectedFunds);\n        singleTokenAllPreSaleBalance =\n            (IERC20(_token).balanceOf(address(this))) /\n            1000000000000000000;\n\n        collectedPreSaleFunds[_token] = 0;\n    }\n\n    function manageWithdrawOwnerFunds(address _token, uint256 _amount)\n        public\n        onlyOwner\n    {\n        IERC20(_token).transfer(msg.sender, _amount);\n    }\n\n    function manageDepositOwnerFunds(address _token, uint256 _amount)\n        public\n        onlyOwner\n    {\n        IERC20(_token).transferFrom(msg.sender, address(this), _amount);\n    }\n\n    // function stakeTokens(uint256 _amount, address _token) public {\n    //     // what tokens can they stake?\n    //     // how much can they stake?\n    //     require(_amount > 0, \"Amount must be more than 0\");\n    //     require(tokenIsAllowed(_token), \"Token is currently not allowed\");\n    //     // transferFrom\n    //     IERC20(_token).transferFrom(msg.sender, address(this), _amount);\n    //     updateUniqueTokensStaked(msg.sender, _token);\n    //     stakingBalance[_token][msg.sender] =\n    //         stakingBalance[_token][msg.sender] +\n    //         _amount;\n    //     if (uniqueTokensStaked[msg.sender] == 1) {\n    //         stakers.push(msg.sender);\n    //     }\n    // }\n\n    function preSaleTokenIsAllowed(address _token) public returns (bool) {\n        for (\n            uint256 preSaleAllowedTokensIndex = 0;\n            preSaleAllowedTokensIndex < preSaleAllowedTokens.length;\n            preSaleAllowedTokensIndex++\n        ) {\n            if (preSaleAllowedTokens[preSaleAllowedTokensIndex] == _token) {\n                return true;\n            }\n        }\n        return false;\n    }\n\n    function getConversionRate(uint256 ethAmount)\n        public\n        view\n        returns (uint256)\n    {\n        // use function \"getTokenValue()\" instead of \"getPrice()\"\n\n        uint256 ethPrice = getPrice();\n        uint256 ethAmountInUsd = (ethPrice * ethAmount) / 1000000000000000000;\n        return ethAmountInUsd;\n    }\n\n    function getPrice() public view returns (uint256) {\n        (, int256 answer, , , ) = priceFeedA.latestRoundData();\n        return uint256(answer * 10000000000);\n    }\n\n    function getEntranceFee() public view returns (uint256) {\n        //minimumUSD\n        uint256 minimumUSD = 50 * 10**18;\n        uint256 price = getPrice();\n        uint256 precision = 1 * 10**18;\n        return (minimumUSD * precision) / price;\n    }\n\n    function updateUniquePreSaleTokensStaked(address _user, address _token)\n        internal\n    {\n        if (purchasedBalance[_token][_user] <= 0) {\n            uniquePreSaleTokensStaked[_user] =\n                uniquePreSaleTokensStaked[_user] +\n                1;\n        }\n    }\n\n    // --------------------------------------------\n\n    function setPriceFeedContract(address _token, address _priceFeed)\n        public\n        onlyOwner\n    {\n        tokenPriceFeedMapping[_token] = _priceFeed;\n    }\n\n    function issueTokens() public onlyOwner {\n        // Issue tokens to all stakers\n        for (\n            uint256 stakersIndex = 0;\n            stakersIndex < stakers.length;\n            stakersIndex++\n        ) {\n            address recipient = stakers[stakersIndex];\n            uint256 userTotalValue = getUserTotalValue(recipient);\n            // send them a token reward\n            // based on their total value locked\n            // dappToken.transfer(recipient, )\n            dappToken.transfer(recipient, userTotalValue);\n        }\n    }\n\n    function getUserTotalValue(address _user) public view returns (uint256) {\n        uint256 totalValue = 0;\n        require(uniqueTokensStaked[_user] > 0, \"No tokens staked!\");\n        for (\n            uint256 allowedTokensIndex = 0;\n            allowedTokensIndex < allowedTokens.length;\n            allowedTokensIndex++\n        ) {\n            totalValue =\n                totalValue +\n                getUserSingleTokenValue(\n                    _user,\n                    allowedTokens[allowedTokensIndex]\n                );\n        }\n        return totalValue;\n    }\n\n    function getUserSingleTokenValue(address _user, address _token)\n        public\n        view\n        returns (uint256)\n    {\n        // if staked 1 ETH -> $2000\n        // 2000 dapp token\n        // if staked 200 DAI -> $200\n        // 200 dapp token\n        if (uniqueTokensStaked[_user] <= 0) {\n            return 0;\n        }\n        // price of the  token * stakingBalance[_token][_user]\n        (uint256 price, uint256 decimals) = getTokenValue(_token);\n        return // 10 ETH\n        // ETH/USD\n        ((stakingBalance[_token][_user] * price) / (10**decimals));\n    }\n\n    function getTokenValue(address _token)\n        public\n        view\n        returns (uint256, uint256)\n    {\n        // priceFeedAddress\n        address priceFeedAddress = tokenPriceFeedMapping[_token];\n        AggregatorV3Interface priceFeed = AggregatorV3Interface(\n            priceFeedAddress\n        );\n        (, int256 price, , , ) = priceFeed.latestRoundData();\n        uint256 decimals = uint256(priceFeed.decimals());\n        return (uint256(price), decimals);\n    }\n\n    function setAPY(uint256 _APY) public onlyOwner {\n        APY = _APY;\n    }\n\n    function calculateStakingRewards(address _user, address _token)\n        public\n        view\n        returns (uint256)\n    {\n        uint256 userTimeStamp = stakingTimeStamp[_user];\n        uint256 currentTime = block.timestamp;\n        uint256 userStakingBalance = stakingBalance[_token][_user];\n\n        uint256 totalRewardsPerYear = (APY * userStakingBalance) / 100;\n        uint256 totalRewardsPerMinute = totalRewardsPerYear / 525600;\n\n        uint256 stakedTimeInMinutes = ((currentTime - userTimeStamp) / 60);\n        uint256 rewards = stakedTimeInMinutes * totalRewardsPerMinute;\n\n        return rewards;\n    }\n\n    function getAvailableStakingRewards(address _sender, address _token)\n        public\n        view\n        returns (uint256)\n    {\n        uint256 totalRewards = (stakingRewards[_sender] +\n            calculateStakingRewards(_sender, _token));\n\n        return totalRewards;\n    }\n\n    function claimStakingRewards(address _token) public {\n        uint256 userTotalRewards = getAvailableStakingRewards(\n            msg.sender,\n            _token\n        );\n        require(userTotalRewards > 0);\n        IERC20(_token).transfer(msg.sender, userTotalRewards);\n        stakingRewards[msg.sender] = 0;\n        stakingTimeStamp[msg.sender] = block.timestamp;\n    }\n\n    function stakeTokens(uint256 _amount, address _token) public {\n        // what tokens can they stake?\n        // how much can they stake?\n        require(_amount > 0, \"Amount must be more than 0\");\n        require(tokenIsAllowed(_token), \"Token is currently not allowed\");\n        // transferFrom\n        IERC20(_token).transferFrom(msg.sender, address(this), _amount);\n        updateUniqueTokensStaked(msg.sender, _token);\n        updateUniqueTokenStakers(msg.sender, _token);\n        totalTokensStaked = totalTokensStaked + _amount;\n\n        stakingRewards[msg.sender] = getAvailableStakingRewards(\n            msg.sender,\n            _token\n        );\n\n        stakingTimeStamp[msg.sender] = block.timestamp;\n        stakingTimeToWithdraw[msg.sender] = block.timestamp;\n\n        stakingBalance[_token][msg.sender] =\n            stakingBalance[_token][msg.sender] +\n            _amount;\n\n        // stakingRewards[msg.sender] = (stakingRewards[msg.sender] +\n        //     calculateStakingRewards(msg.sender, _token));\n\n        if (uniqueTokensStaked[msg.sender] == 1) {\n            stakers.push(msg.sender);\n        }\n    }\n\n    function withdrawAmountPeopleLeftInWithdrawFees(address _token)\n        public\n        onlyOwner\n    {\n        IERC20(_token).transfer(msg.sender, amountPeopleLeftInWithdrawFees);\n        amountPeopleLeftInWithdrawFees = 0;\n    }\n\n    function unstakeTokens(uint256 _amount, address _token) public {\n        uint256 balance = stakingBalance[_token][msg.sender];\n        require(_amount > 0, \"Amount must be more than 0\");\n        require(balance >= _amount, \"You don't have enough staked tokens\");\n        require(tokenIsAllowed(_token), \"Token is currently not allowed\");\n\n        uint256 timeNow = block.timestamp;\n        if (timeNow < (stakingTimeToWithdraw[msg.sender] + 4838400)) {\n            if (timeNow < (stakingTimeToWithdraw[msg.sender] + 3628800)) {\n                if (timeNow < (stakingTimeToWithdraw[msg.sender] + 2419200)) {\n                    if (\n                        timeNow < (stakingTimeToWithdraw[msg.sender] + 1209600)\n                    ) {\n                        uint256 withdrawAmount = ((75 * _amount) / 100);\n                        IERC20(_token).transfer(msg.sender, withdrawAmount);\n\n                        amountPeopleLeftInWithdrawFees =\n                            amountPeopleLeftInWithdrawFees +\n                            (_amount - withdrawAmount);\n                    } else {\n                        uint256 withdrawAmount = ((85 * _amount) / 100);\n                        IERC20(_token).transfer(msg.sender, withdrawAmount);\n\n                        amountPeopleLeftInWithdrawFees =\n                            amountPeopleLeftInWithdrawFees +\n                            (_amount - withdrawAmount);\n                    }\n                } else {\n                    uint256 withdrawAmount = ((90 * _amount) / 100);\n                    IERC20(_token).transfer(msg.sender, withdrawAmount);\n\n                    amountPeopleLeftInWithdrawFees =\n                        amountPeopleLeftInWithdrawFees +\n                        (_amount - withdrawAmount);\n                }\n            } else {\n                uint256 withdrawAmount = ((95 * _amount) / 100);\n                IERC20(_token).transfer(msg.sender, withdrawAmount);\n\n                amountPeopleLeftInWithdrawFees =\n                    amountPeopleLeftInWithdrawFees +\n                    (_amount - withdrawAmount);\n            }\n        } else {\n            IERC20(_token).transfer(msg.sender, _amount);\n        }\n\n        stakingRewards[msg.sender] = getAvailableStakingRewards(\n            msg.sender,\n            _token\n        );\n\n        stakingTimeStamp[msg.sender] = block.timestamp;\n\n        stakingBalance[_token][msg.sender] = balance - _amount;\n\n        totalTokensStaked = totalTokensStaked - _amount;\n        if (stakingBalance[_token][msg.sender] <= 0) {\n            uniqueTokenStakers = uniqueTokenStakers - 1;\n            uniqueTokensStaked[msg.sender] = uniqueTokensStaked[msg.sender] - 1;\n        }\n        // if (uniqueTokensStaked[msg.sender] == 0) {\n        //     for (\n        //         uint256 stakersIndex = 0;\n        //         stakersIndex < stakers.length;\n        //         stakersIndex++\n        //     ) {\n        //         address recipient = stakers[stakersIndex];\n        //         if (msg.sender == recipient) {\n        //             // stakers.splice(stakersIndex, 1); this part is not working\n        //         }\n        //     }\n        // }\n    }\n\n    function unstakeAllTokens(address _token) public {\n        uint256 balance = stakingBalance[_token][msg.sender];\n        require(balance > 0, \"Staking balance cannot be 0\");\n        require(tokenIsAllowed(_token), \"Token is currently not allowed\");\n\n        // IERC20(_token).transfer(msg.sender, balance);\n\n        uint256 timeNow = block.timestamp;\n        if (timeNow < (stakingTimeToWithdraw[msg.sender] + 4838400)) {\n            if (timeNow < (stakingTimeToWithdraw[msg.sender] + 3628800)) {\n                if (timeNow < (stakingTimeToWithdraw[msg.sender] + 2419200)) {\n                    if (\n                        timeNow < (stakingTimeToWithdraw[msg.sender] + 1209600)\n                    ) {\n                        uint256 withdrawAmount = ((75 * balance) / 100);\n                        IERC20(_token).transfer(msg.sender, withdrawAmount);\n\n                        amountPeopleLeftInWithdrawFees =\n                            amountPeopleLeftInWithdrawFees +\n                            (balance - withdrawAmount);\n                    } else {\n                        uint256 withdrawAmount = ((85 * balance) / 100);\n                        IERC20(_token).transfer(msg.sender, withdrawAmount);\n\n                        amountPeopleLeftInWithdrawFees =\n                            amountPeopleLeftInWithdrawFees +\n                            (balance - withdrawAmount);\n                    }\n                } else {\n                    uint256 withdrawAmount = ((90 * balance) / 100);\n                    IERC20(_token).transfer(msg.sender, withdrawAmount);\n\n                    amountPeopleLeftInWithdrawFees =\n                        amountPeopleLeftInWithdrawFees +\n                        (balance - withdrawAmount);\n                }\n            } else {\n                uint256 withdrawAmount = ((95 * balance) / 100);\n                IERC20(_token).transfer(msg.sender, withdrawAmount);\n\n                amountPeopleLeftInWithdrawFees =\n                    amountPeopleLeftInWithdrawFees +\n                    (balance - withdrawAmount);\n            }\n        } else {\n            IERC20(_token).transfer(msg.sender, balance);\n        }\n        stakingRewards[msg.sender] = getAvailableStakingRewards(\n            msg.sender,\n            _token\n        );\n\n        stakingTimeStamp[msg.sender] = block.timestamp;\n\n        totalTokensStaked = totalTokensStaked - balance;\n        stakingBalance[_token][msg.sender] = 0;\n        uniqueTokensStaked[msg.sender] = uniqueTokensStaked[msg.sender] - 1;\n        uniqueTokenStakers = uniqueTokenStakers - 1;\n    }\n\n    function updateUniqueTokensStaked(address _user, address _token) internal {\n        if (stakingBalance[_token][_user] <= 0) {\n            uniqueTokensStaked[_user] = uniqueTokensStaked[_user] + 1;\n        }\n    }\n\n    function updateUniqueTokenStakers(address _user, address _token) internal {\n        if (stakingBalance[_token][_user] <= 0) {\n            uniqueTokenStakers = uniqueTokenStakers + 1;\n        }\n    }\n\n    function addAllowedTokens(address _token) public onlyOwner {\n        allowedTokens.push(_token);\n    }\n\n    function tokenIsAllowed(address _token) public returns (bool) {\n        for (\n            uint256 allowedTokensIndex = 0;\n            allowedTokensIndex < allowedTokens.length;\n            allowedTokensIndex++\n        ) {\n            if (allowedTokens[allowedTokensIndex] == _token) {\n                return true;\n            }\n        }\n        return false;\n    }\n}\n","sourcePath":"contracts/TokenFarm.sol","type":"contract","deployment":{"address":"0x3cE3f9A98e60748a2269be4F1853DedD68839f1d","chainid":"42","blockHeight":30426626}}