{"abi":[{"inputs":[{"internalType":"address","name":"_dappTokenAddress","type":"address"},{"internalType":"address","name":"_priceFeed","type":"address"}],"stateMutability":"nonpayable","type":"constructor","name":"constructor"},{"anonymous":false,"inputs":[{"indexed":true,"internalType":"address","name":"previousOwner","type":"address"},{"indexed":true,"internalType":"address","name":"newOwner","type":"address"}],"name":"OwnershipTransferred","type":"event"},{"inputs":[],"name":"APY","outputs":[{"internalType":"uint256","name":"","type":"uint256"}],"stateMutability":"view","type":"function"},{"inputs":[{"internalType":"uint256","name":"","type":"uint256"}],"name":"TIMESeachPreSale","outputs":[{"internalType":"uint256","name":"","type":"uint256"}],"stateMutability":"view","type":"function"},{"inputs":[{"internalType":"address","name":"_token","type":"address"}],"name":"addAllowedTokens","outputs":[],"stateMutability":"nonpayable","type":"function"},{"inputs":[{"internalType":"address","name":"_token","type":"address"}],"name":"addPreSaleAllowedTokens","outputs":[],"stateMutability":"nonpayable","type":"function"},{"inputs":[{"internalType":"address","name":"","type":"address"}],"name":"addressToAmountFunded","outputs":[{"internalType":"uint256","name":"","type":"uint256"}],"stateMutability":"view","type":"function"},{"inputs":[{"internalType":"uint256","name":"","type":"uint256"}],"name":"allowedTokens","outputs":[{"internalType":"address","name":"","type":"address"}],"stateMutability":"view","type":"function"},{"inputs":[],"name":"amountPeopleLeftInWithdrawFees","outputs":[{"internalType":"uint256","name":"","type":"uint256"}],"stateMutability":"view","type":"function"},{"inputs":[{"internalType":"address","name":"_user","type":"address"},{"internalType":"address","name":"_token","type":"address"}],"name":"calculateStakingRewards","outputs":[{"internalType":"uint256","name":"","type":"uint256"}],"stateMutability":"view","type":"function"},{"inputs":[{"internalType":"uint256","name":"_number","type":"uint256"}],"name":"changeBaseNumberStakingLevel","outputs":[],"stateMutability":"nonpayable","type":"function"},{"inputs":[{"internalType":"uint256","name":"_level","type":"uint256"},{"internalType":"uint256","name":"_weight","type":"uint256"}],"name":"changeStakingLevelToWeight","outputs":[],"stateMutability":"nonpayable","type":"function"},{"inputs":[],"name":"claimAllPreSaletokens","outputs":[],"stateMutability":"nonpayable","type":"function"},{"inputs":[{"internalType":"uint256","name":"_preSaleNumber","type":"uint256"}],"name":"claimAllTokensEachPreSale","outputs":[],"stateMutability":"nonpayable","type":"function"},{"inputs":[{"internalType":"uint256","name":"_amount","type":"uint256"}],"name":"claimPreSaleTokens","outputs":[],"stateMutability":"nonpayable","type":"function"},{"inputs":[{"internalType":"address","name":"_token","type":"address"}],"name":"claimStakingRewards","outputs":[],"stateMutability":"nonpayable","type":"function"},{"inputs":[{"internalType":"uint256","name":"_preSaleNumber","type":"uint256"},{"internalType":"uint256","name":"_amount","type":"uint256"}],"name":"claimTokensEachPreSale","outputs":[],"stateMutability":"nonpayable","type":"function"},{"inputs":[{"internalType":"uint256","name":"","type":"uint256"}],"name":"claimTokensEachPreSaleStatus","outputs":[{"internalType":"bool","name":"","type":"bool"}],"stateMutability":"view","type":"function"},{"inputs":[{"internalType":"address","name":"","type":"address"}],"name":"collectedPreSaleFunds","outputs":[{"internalType":"uint256","name":"","type":"uint256"}],"stateMutability":"view","type":"function"},{"inputs":[{"internalType":"uint256","name":"","type":"uint256"},{"internalType":"address","name":"","type":"address"}],"name":"collectedPreSaleFundsEachPreSale","outputs":[{"internalType":"uint256","name":"","type":"uint256"}],"stateMutability":"view","type":"function"},{"inputs":[],"name":"dappToken","outputs":[{"internalType":"contract IERC20","name":"","type":"address"}],"stateMutability":"view","type":"function"},{"inputs":[{"internalType":"uint256","name":"","type":"uint256"}],"name":"funders","outputs":[{"internalType":"address","name":"","type":"address"}],"stateMutability":"view","type":"function"},{"inputs":[{"internalType":"address","name":"_sender","type":"address"},{"internalType":"address","name":"_token","type":"address"},{"internalType":"uint256","name":"_preSaleNumber","type":"uint256"}],"name":"getAllocatedPreSaleAmount","outputs":[{"internalType":"uint256","name":"","type":"uint256"}],"stateMutability":"view","type":"function"},{"inputs":[{"internalType":"address","name":"_token","type":"address"},{"internalType":"address","name":"_sender","type":"address"}],"name":"getAvailablePreSaleTokensToWithdraw","outputs":[{"internalType":"uint256","name":"","type":"uint256"}],"stateMutability":"view","type":"function"},{"inputs":[{"internalType":"address","name":"_token","type":"address"},{"internalType":"address","name":"_sender","type":"address"},{"internalType":"uint256","name":"_preSaleNumber","type":"uint256"}],"name":"getAvailablePreSaleTokensToWithdrawEachPreSale","outputs":[{"internalType":"uint256","name":"","type":"uint256"}],"stateMutability":"view","type":"function"},{"inputs":[{"internalType":"address","name":"_sender","type":"address"},{"internalType":"address","name":"_token","type":"address"}],"name":"getAvailableStakingRewards","outputs":[{"internalType":"uint256","name":"","type":"uint256"}],"stateMutability":"view","type":"function"},{"inputs":[{"internalType":"uint256","name":"ethAmount","type":"uint256"}],"name":"getConversionRate","outputs":[{"internalType":"uint256","name":"","type":"uint256"}],"stateMutability":"view","type":"function"},{"inputs":[],"name":"getEntranceFee","outputs":[{"internalType":"uint256","name":"","type":"uint256"}],"stateMutability":"view","type":"function"},{"inputs":[{"internalType":"address","name":"_sender","type":"address"},{"internalType":"address","name":"_token","type":"address"},{"internalType":"uint256","name":"_preSaleNumber","type":"uint256"}],"name":"getHowMuchMoreUserCanPurchaseEachPreSale","outputs":[{"internalType":"uint256","name":"","type":"uint256"}],"stateMutability":"view","type":"function"},{"inputs":[],"name":"getPrice","outputs":[{"internalType":"uint256","name":"","type":"uint256"}],"stateMutability":"view","type":"function"},{"inputs":[{"internalType":"address","name":"_token","type":"address"}],"name":"getSingleTokenAllPreSaleBalance","outputs":[{"internalType":"uint256","name":"","type":"uint256"}],"stateMutability":"nonpayable","type":"function"},{"inputs":[{"internalType":"address","name":"_sender","type":"address"},{"internalType":"address","name":"_token","type":"address"}],"name":"getStakingLevel","outputs":[{"internalType":"uint256","name":"","type":"uint256"}],"stateMutability":"view","type":"function"},{"inputs":[{"internalType":"address","name":"_token","type":"address"}],"name":"getTokenValue","outputs":[{"internalType":"uint256","name":"","type":"uint256"},{"internalType":"uint256","name":"","type":"uint256"}],"stateMutability":"view","type":"function"},{"inputs":[{"internalType":"address","name":"_user","type":"address"},{"internalType":"address","name":"_token","type":"address"}],"name":"getUserSingleTokenValue","outputs":[{"internalType":"uint256","name":"","type":"uint256"}],"stateMutability":"view","type":"function"},{"inputs":[{"internalType":"address","name":"_user","type":"address"}],"name":"getUserTotalValue","outputs":[{"internalType":"uint256","name":"","type":"uint256"}],"stateMutability":"view","type":"function"},{"inputs":[],"name":"getVersion","outputs":[{"internalType":"uint256","name":"","type":"uint256"}],"stateMutability":"view","type":"function"},{"inputs":[{"internalType":"uint256","name":"_percentageAmount","type":"uint256"}],"name":"issuePreSaleTokensToWithdrawPercentage","outputs":[],"stateMutability":"nonpayable","type":"function"},{"inputs":[],"name":"issueTokens","outputs":[],"stateMutability":"nonpayable","type":"function"},{"inputs":[{"internalType":"address","name":"_token","type":"address"},{"internalType":"uint256","name":"_amount","type":"uint256"}],"name":"manageDepositOwnerFunds","outputs":[],"stateMutability":"nonpayable","type":"function"},{"inputs":[{"internalType":"address","name":"_token","type":"address"},{"internalType":"uint256","name":"_amount","type":"uint256"}],"name":"manageWithdrawOwnerFunds","outputs":[],"stateMutability":"nonpayable","type":"function"},{"inputs":[{"internalType":"uint256","name":"_preSaleNumber","type":"uint256"},{"internalType":"uint256","name":"_percentageAmount","type":"uint256"}],"name":"manuallySetPercentageWithdrawAllowedEachPreSale","outputs":[],"stateMutability":"nonpayable","type":"function"},{"inputs":[],"name":"owner","outputs":[{"internalType":"address","name":"","type":"address"}],"stateMutability":"view","type":"function"},{"inputs":[{"internalType":"uint256","name":"_preSaleNumber","type":"uint256"},{"internalType":"address","name":"_token","type":"address"}],"name":"participateInPreSaleAllocation","outputs":[],"stateMutability":"nonpayable","type":"function"},{"inputs":[{"internalType":"uint256","name":"","type":"uint256"}],"name":"participateInPreSaleAllocationStatus","outputs":[{"internalType":"bool","name":"","type":"bool"}],"stateMutability":"view","type":"function"},{"inputs":[],"name":"percentageWithdrawAllowed","outputs":[{"internalType":"uint256","name":"","type":"uint256"}],"stateMutability":"view","type":"function"},{"inputs":[{"internalType":"uint256","name":"","type":"uint256"}],"name":"percentageWithdrawAllowedEachPreSale","outputs":[{"internalType":"uint256","name":"","type":"uint256"}],"stateMutability":"view","type":"function"},{"inputs":[{"internalType":"uint256","name":"","type":"uint256"}],"name":"preSaleAllocationStatus","outputs":[{"internalType":"bool","name":"","type":"bool"}],"stateMutability":"view","type":"function"},{"inputs":[{"internalType":"uint256","name":"","type":"uint256"}],"name":"preSaleAllowedTokens","outputs":[{"internalType":"address","name":"","type":"address"}],"stateMutability":"view","type":"function"},{"inputs":[{"internalType":"uint256","name":"_amount","type":"uint256"},{"internalType":"address","name":"_token","type":"address"}],"name":"preSaleFund","outputs":[],"stateMutability":"nonpayable","type":"function"},{"inputs":[{"internalType":"uint256","name":"_amount","type":"uint256"},{"internalType":"address","name":"_token","type":"address"},{"internalType":"address","name":"_busdToken","type":"address"},{"internalType":"uint256","name":"_preSaleNumber","type":"uint256"}],"name":"preSaleFundEachPreSaleNumber","outputs":[],"stateMutability":"nonpayable","type":"function"},{"inputs":[{"internalType":"uint256","name":"","type":"uint256"}],"name":"preSaleFundEachPreSaleNumberStatus","outputs":[{"internalType":"bool","name":"","type":"bool"}],"stateMutability":"view","type":"function"},{"inputs":[{"internalType":"uint256","name":"","type":"uint256"}],"name":"preSaleFunders","outputs":[{"internalType":"address","name":"","type":"address"}],"stateMutability":"view","type":"function"},{"inputs":[{"internalType":"uint256","name":"","type":"uint256"},{"internalType":"uint256","name":"","type":"uint256"}],"name":"preSaleFundersEachPreSale","outputs":[{"internalType":"address","name":"","type":"address"}],"stateMutability":"view","type":"function"},{"inputs":[{"internalType":"address","name":"","type":"address"}],"name":"preSaleParticipantsStatus","outputs":[{"internalType":"bool","name":"","type":"bool"}],"stateMutability":"view","type":"function"},{"inputs":[],"name":"preSaleTokenAddress","outputs":[{"internalType":"contract IERC20","name":"","type":"address"}],"stateMutability":"view","type":"function"},{"inputs":[{"internalType":"uint256","name":"","type":"uint256"}],"name":"preSaleTokenAddressEachPreSale","outputs":[{"internalType":"contract IERC20","name":"","type":"address"}],"stateMutability":"view","type":"function"},{"inputs":[{"internalType":"address","name":"_token","type":"address"}],"name":"preSaleTokenIsAllowed","outputs":[{"internalType":"bool","name":"","type":"bool"}],"stateMutability":"nonpayable","type":"function"},{"inputs":[],"name":"priceFeedA","outputs":[{"internalType":"contract AggregatorV3Interface","name":"","type":"address"}],"stateMutability":"view","type":"function"},{"inputs":[{"internalType":"address","name":"","type":"address"},{"internalType":"address","name":"","type":"address"}],"name":"purchasedBalance","outputs":[{"internalType":"uint256","name":"","type":"uint256"}],"stateMutability":"view","type":"function"},{"inputs":[{"internalType":"uint256","name":"","type":"uint256"},{"internalType":"address","name":"","type":"address"}],"name":"purchasedBalanceEachPreSale","outputs":[{"internalType":"uint256","name":"","type":"uint256"}],"stateMutability":"view","type":"function"},{"inputs":[],"name":"renounceOwnership","outputs":[],"stateMutability":"nonpayable","type":"function"},{"inputs":[{"internalType":"uint256","name":"_APY","type":"uint256"}],"name":"setAPY","outputs":[],"stateMutability":"nonpayable","type":"function"},{"inputs":[{"internalType":"uint256","name":"_preSaleNumber","type":"uint256"},{"internalType":"bool","name":"_status","type":"bool"}],"name":"setClaimTokensEachPreSaleStatus","outputs":[],"stateMutability":"nonpayable","type":"function"},{"inputs":[{"internalType":"uint256","name":"_number","type":"uint256"},{"internalType":"bool","name":"_status","type":"bool"}],"name":"setParticipateInPreSaleAllocationStatus","outputs":[],"stateMutability":"nonpayable","type":"function"},{"inputs":[{"internalType":"uint256","name":"_preSaleNumber","type":"uint256"},{"internalType":"uint256","name":"_percentageAmount","type":"uint256"}],"name":"setPercentageWithdrawAllowedEachPreSale","outputs":[],"stateMutability":"nonpayable","type":"function"},{"inputs":[{"internalType":"uint256","name":"_number","type":"uint256"},{"internalType":"bool","name":"_status","type":"bool"}],"name":"setPreSaleAllocationStatus","outputs":[],"stateMutability":"nonpayable","type":"function"},{"inputs":[{"internalType":"uint256","name":"_preSaleNumber","type":"uint256"},{"internalType":"bool","name":"_status","type":"bool"}],"name":"setPreSaleFundEachPreSaleNumberStatus","outputs":[],"stateMutability":"nonpayable","type":"function"},{"inputs":[{"internalType":"address","name":"_token","type":"address"},{"internalType":"address","name":"_priceFeed","type":"address"}],"name":"setPriceFeedContract","outputs":[],"stateMutability":"nonpayable","type":"function"},{"inputs":[{"internalType":"uint256","name":"_preSaleNumber","type":"uint256"},{"internalType":"uint256","name":"_amount","type":"uint256"}],"name":"setTotalAmountToCollectForThisPreSale","outputs":[],"stateMutability":"nonpayable","type":"function"},{"inputs":[],"name":"singleTokenAllPreSaleBalance","outputs":[{"internalType":"uint256","name":"","type":"uint256"}],"stateMutability":"view","type":"function"},{"inputs":[{"internalType":"uint256","name":"_amount","type":"uint256"},{"internalType":"address","name":"_token","type":"address"}],"name":"stakeTokens","outputs":[],"stateMutability":"nonpayable","type":"function"},{"inputs":[{"internalType":"uint256","name":"","type":"uint256"}],"name":"stakers","outputs":[{"internalType":"address","name":"","type":"address"}],"stateMutability":"view","type":"function"},{"inputs":[{"internalType":"address","name":"","type":"address"},{"internalType":"address","name":"","type":"address"}],"name":"stakingBalance","outputs":[{"internalType":"uint256","name":"","type":"uint256"}],"stateMutability":"view","type":"function"},{"inputs":[{"internalType":"uint256","name":"","type":"uint256"}],"name":"stakingLevelToWeight","outputs":[{"internalType":"uint256","name":"","type":"uint256"}],"stateMutability":"view","type":"function"},{"inputs":[{"internalType":"uint256","name":"","type":"uint256"}],"name":"stakingLevelUserCounter","outputs":[{"internalType":"uint256","name":"","type":"uint256"}],"stateMutability":"view","type":"function"},{"inputs":[{"internalType":"address","name":"","type":"address"}],"name":"stakingTimeToWithdraw","outputs":[{"internalType":"uint256","name":"","type":"uint256"}],"stateMutability":"view","type":"function"},{"inputs":[{"internalType":"address","name":"_token","type":"address"}],"name":"tokenIsAllowed","outputs":[{"internalType":"bool","name":"","type":"bool"}],"stateMutability":"nonpayable","type":"function"},{"inputs":[{"internalType":"address","name":"","type":"address"}],"name":"tokenPriceFeedMapping","outputs":[{"internalType":"address","name":"","type":"address"}],"stateMutability":"view","type":"function"},{"inputs":[{"internalType":"uint256","name":"","type":"uint256"}],"name":"totalAmountToCollectForThisPreSale","outputs":[{"internalType":"uint256","name":"","type":"uint256"}],"stateMutability":"view","type":"function"},{"inputs":[{"internalType":"address","name":"","type":"address"}],"name":"totalCollectionOfPreSaleFunds","outputs":[{"internalType":"uint256","name":"","type":"uint256"}],"stateMutability":"view","type":"function"},{"inputs":[],"name":"totalCollectionOfPreSaleFundsAllTokens","outputs":[{"internalType":"uint256","name":"","type":"uint256"}],"stateMutability":"view","type":"function"},{"inputs":[{"internalType":"uint256","name":"","type":"uint256"},{"internalType":"address","name":"","type":"address"}],"name":"totalCollectionOfPreSaleFundsEachPreSale","outputs":[{"internalType":"uint256","name":"","type":"uint256"}],"stateMutability":"view","type":"function"},{"inputs":[{"internalType":"address","name":"","type":"address"}],"name":"totalPurchasedPreSaleTokens","outputs":[{"internalType":"uint256","name":"","type":"uint256"}],"stateMutability":"view","type":"function"},{"inputs":[{"internalType":"uint256","name":"","type":"uint256"},{"internalType":"address","name":"","type":"address"}],"name":"totalPurchasedPreSaleTokensEachPreSale","outputs":[{"internalType":"uint256","name":"","type":"uint256"}],"stateMutability":"view","type":"function"},{"inputs":[],"name":"totalTokensStaked","outputs":[{"internalType":"uint256","name":"","type":"uint256"}],"stateMutability":"view","type":"function"},{"inputs":[{"internalType":"address","name":"","type":"address"}],"name":"totalWithdrawnPreSaleTokens","outputs":[{"internalType":"uint256","name":"","type":"uint256"}],"stateMutability":"view","type":"function"},{"inputs":[{"internalType":"uint256","name":"","type":"uint256"},{"internalType":"address","name":"","type":"address"}],"name":"totalWithdrawnPreSaleTokensEachPreSale","outputs":[{"internalType":"uint256","name":"","type":"uint256"}],"stateMutability":"view","type":"function"},{"inputs":[{"internalType":"address","name":"newOwner","type":"address"}],"name":"transferOwnership","outputs":[],"stateMutability":"nonpayable","type":"function"},{"inputs":[{"internalType":"address","name":"","type":"address"}],"name":"uniquePreSaleTokensPurchased","outputs":[{"internalType":"uint256","name":"","type":"uint256"}],"stateMutability":"view","type":"function"},{"inputs":[{"internalType":"address","name":"","type":"address"}],"name":"uniquePreSaleTokensStaked","outputs":[{"internalType":"uint256","name":"","type":"uint256"}],"stateMutability":"view","type":"function"},{"inputs":[],"name":"uniqueTokenStakers","outputs":[{"internalType":"uint256","name":"","type":"uint256"}],"stateMutability":"view","type":"function"},{"inputs":[{"internalType":"address","name":"","type":"address"}],"name":"uniqueTokensStaked","outputs":[{"internalType":"uint256","name":"","type":"uint256"}],"stateMutability":"view","type":"function"},{"inputs":[{"internalType":"address","name":"_token","type":"address"}],"name":"unstakeAllTokens","outputs":[],"stateMutability":"nonpayable","type":"function"},{"inputs":[{"internalType":"uint256","name":"_amount","type":"uint256"},{"internalType":"address","name":"_token","type":"address"}],"name":"unstakeTokens","outputs":[],"stateMutability":"nonpayable","type":"function"},{"inputs":[{"internalType":"address","name":"_preSaleTokenAddress","type":"address"}],"name":"updatePreSaleTokenAddress","outputs":[],"stateMutability":"nonpayable","type":"function"},{"inputs":[{"internalType":"uint256","name":"_preSaleNumber","type":"uint256"},{"internalType":"address","name":"_preSaleTokenAddress","type":"address"}],"name":"updatePreSaleTokenAddressEachPreSale","outputs":[],"stateMutability":"nonpayable","type":"function"},{"inputs":[{"internalType":"uint256","name":"_times","type":"uint256"}],"name":"updateTimes","outputs":[],"stateMutability":"nonpayable","type":"function"},{"inputs":[{"internalType":"uint256","name":"_preSaleNumber","type":"uint256"},{"internalType":"uint256","name":"_times","type":"uint256"}],"name":"updateTimesEachPreSale","outputs":[],"stateMutability":"nonpayable","type":"function"},{"inputs":[{"internalType":"address","name":"","type":"address"}],"name":"whenParticipatedThatLevel","outputs":[{"internalType":"uint256","name":"","type":"uint256"}],"stateMutability":"view","type":"function"},{"inputs":[{"internalType":"address","name":"_token","type":"address"}],"name":"withdrawAmountPeopleLeftInWithdrawFees","outputs":[],"stateMutability":"nonpayable","type":"function"},{"inputs":[{"internalType":"uint256","name":"_preSaleNumber","type":"uint256"},{"internalType":"address","name":"_busdToken","type":"address"}],"name":"withdrawCollectedFundEachPreSale","outputs":[],"stateMutability":"nonpayable","type":"function"},{"inputs":[{"internalType":"address","name":"_token","type":"address"}],"name":"withdrawPreSaleCollectedFund","outputs":[],"stateMutability":"nonpayable","type":"function"}],"bytecode":"6080604052600a6001556105dc6020553480156200001c57600080fd5b5060405162004e6438038062004e648339810160408190526200003f916200050b565b6200004a336200049e565b600e80546001600160a01b039384166001600160a01b031991821617909155601b8054929093169116179055601e602081905260007f65ce8396b736f5da9d881cc6fbcb11ef9721292dc41ec8c40879fd9edea5744d81905560017f873299c6a6c39b8b92f01922bb622df4a3236ea2876aac2da76f6c092cf7e98f5560027f8a1ea6ccfdf9f988bdc16303c81231f9b192785454b34880c28e5c30362354c55560037f4bbb14a9b8bdd7baf7e45936eef68b1d3b69ec665e4d3d9f22d086627a2b08805560047f2eca6469c5988648711d819e241e59ec9e94a879e5d491ce337260f9e75414125560057f86d72ecda2f02015d839a182675ed983893a479e8f4279fb5498fd7244fa5dfe5560067f3b995de482df97a2c9d456eaddef4a2d8e37e8b7ceaa84df3200ae34890448f35560077f07e07990268d552e861c3b3b30762ae1d401e128d88dcdc061f5fba57e7ac9f85560087f8dd77d38164a78ad615ed6f87db5c81e75803d1677bf75ecfbbe3c73b83871415560097f2fcdb860d99ada637bba31889280ce2d4217586b5da61641dd5742bcbb7aa46a55600a7f4150be2f2e4ca26ea4353f7f6543634639cb7af12002f06e7614303d57e128f955600f7fe065eaad7f40a2cd4bc1efc6f4344c19df9fe636b15760bd5961fc0e3be3cc285560147fc2cdcac6815e8dba5c073d2c4a622d2de1453a902e3ebd096b6c8686d03a6e515560197f4dfc35b27a2a15eb38750f68a286ed8b8346956ebe7227ceb2dd7dd5c373ac26557fb967cce98cabd8d1f7aeda98d36c0158d6775cfe7c62f16953241eb7720ce15b9190915560237f32abc6767b4a526ba081342d89c77eb5e415f12f68af45f1f8433a1280ad46885560287fdbd8d1ccee8c6d7be969746c1fe539d14d7943a9f704f7aeaac79295156a980055602d7f218a762fb5580fc51401a5fc690f183f97f4e4b89e9cfcd822ba18577f9210fc5560327f1a1586bd60010e5250bec70a13f10b57a516d531e2e13f8e06bc6444e08990d555603c7f17f6e9bae84339b87dec02358cd3c31ef1652c5c381cc3e5ccf667ac2322cd235560467f57f7e17d109c663c1b21f4419ef762bc64baea1b8a757f23e8ca6984e62d52d25560507ffce0de9d50a3d1acf6fc25d06cc116ec2bfb69af108c962cc29b045e83164d0d55605a7f1a4cc25510354c589bd7946b3dc2275b971564533a277044a7363966a283b0dc5560647fa4ec8c329519c7dcf531f6496ed5d60fa1ccb9710ce24cab0ef13e1ee263334f55606e7f5f90b9a2fb0d3c15f43274ee5caf6dd9bd9f976b15cf11617fde6e8e8fe15c9b5560787f45768a1322d624d68f3a4861f29d212d4f45fa493b346276b7199d716f4cb86f5560827fe958f81d8b8dd448a0753719ffaa76d7252ff37e1c61af328234250c9c7863ae55608c7fa735894fb4ad4eed679d05ff9f9934abb52e44e0cb86a50d1e8ff15c308aba0e55601c905260967ff1de1e01c421a3570903cc3ce14bc5911c7c246bd5b6523c814df713c8f04b9b5562000543565b600080546001600160a01b038381166001600160a01b0319831681178455604051919092169283917f8be0079c531659141344cd1fd0a4f28419497f9722a3daafe3b4186f6b6457e09190a35050565b80516001600160a01b03811681146200050657600080fd5b919050565b600080604083850312156200051f57600080fd5b6200052a83620004ee565b91506200053a60208401620004ee565b90509250929050565b61491180620005536000396000f3fe608060405234801561001057600080fd5b506004361061059c5760003560e01c8063850fb311116102e5578063ca97fc291161018d578063ee110701116100f4578063f5d9f006116100ad578063fb4854aa11610087578063fb4854aa14610e53578063fd5e6dd114610e76578063fe0a9e0014610e89578063fe83383114610e9c57600080fd5b8063f5d9f00614610e1a578063fa95cf8214610e2d578063fb27b0ed14610e4057600080fd5b8063ee11070114610d90578063ef8bd30514610db0578063f08aae8114610db9578063f1c5d6c214610dcc578063f23e542314610df4578063f2fde38b14610e0757600080fd5b8063dc0d3dff11610146578063dc0d3dff14610cf9578063dd5b846714610d0c578063e245339614610d1f578063e354e1c214610d3f578063e4c7842214610d6a578063eace7e2314610d7d57600080fd5b8063ca97fc2914610c61578063ccd35bb214610c6a578063cd32e79214610c7d578063ce05ea6614610c90578063dba586f214610cbb578063dbd9400914610cce57600080fd5b8063a4abf2611161024c578063b379bc6a11610205578063bde63a92116101df578063bde63a9214610c1f578063c071cf8314610c32578063c8846cdb14610c3b578063c98a6c4914610c4e57600080fd5b8063b379bc6a14610bcc578063b57eff1014610bec578063b83e023414610bff57600080fd5b8063a4abf26114610b44578063af3f5e2214610b57578063b0e31b2d14610b6a578063b115070214610b73578063b195558c14610b96578063b2e8778114610ba957600080fd5b80638dcb654b1161029e5780638dcb654b14610ab757806396bb1fef14610ae257806398d5fdca14610af55780639b67f4be14610afd5780639f20f62d14610b10578063a307bb0c14610b3b57600080fd5b8063850fb31114610a1d578063877dd39d14610a405780638a757ec214610a535780638b1d8cfd14610a665780638b20c4c214610a865780638da5cb5b14610aa657600080fd5b806341a7a45e1161044857806366b98718116103af578063715018a61161036857806377a4cfe81161034257806377a4cfe8146109d1578063799e93e8146109e457806379f27c9e146109f757806384d269ad14610a0a57600080fd5b8063715018a6146109a35780637290b3ad146109ab5780637737721b146109be57600080fd5b806366b98718146108e15780636b06a625146108f45780636b3dd9e21461091d5780636e5b6b281461093d5780636f4a2a2f146109505780636f8da9931461097057600080fd5b80635eb186f8116104015780635eb186f81461086d5780635fbae1c71461088057806360ab5852146108a0578063630b8a8a146108a85780636323085c146108bb578063635ab2f7146108ce57600080fd5b806341a7a45e146107ee5780635084be3714610801578063544cd5ec1461081457806358728788146108275780635d990250146108475780635e5f2e261461085a57600080fd5b8063264c44ff116105075780632fbb9ca6116104c05780633d8c3cdd1161049a5780633d8c3cdd146107955780633dbee808146107a85780633e47d6f3146107bb578063409ed87e146107db57600080fd5b80632fbb9ca61461074f578063383cae1d146107625780633d6217a61461077557600080fd5b8063264c44ff1461067d578063276b11da1461069d57806327927b3e146106b057806327cd08a9146106f157806329161a00146107045780632b996e681461072f57600080fd5b80630e53fecb116105595780630e53fecb146106205780631286df5b14610628578063171e44ea1461063b57806319d9caa91461064e578063218334fe1461065757806324f45e671461066a57600080fd5b806305558885146105a157806307c54e08146105df57806308b7d791146105f457806309bc33a7146105fd5780630bea440d146106055780630d8e6e2c14610618575b600080fd5b6105cc6105af366004614325565b602c60209081526000928352604080842090915290825290205481565b6040519081526020015b60405180910390f35b6105f26105ed366004614351565b610ebc565b005b6105cc60175481565b6105cc610f01565b6105f2610613366004614325565b610f3e565b6105cc6110f3565b6105f2611166565b6105f2610636366004614325565b611289565b6105f2610649366004614373565b611365565b6105cc60135481565b6105f2610665366004614351565b6113e1565b6105f2610678366004614395565b6115bf565b6105cc61068b366004614395565b60246020526000908152604090205481565b6105cc6106ab3660046143ae565b6115ee565b6106d96106be366004614373565b6008602052600090815260409020546001600160a01b031681565b6040516001600160a01b0390911681526020016105d6565b6106d96106ff366004614395565b611675565b6105cc6107123660046143ae565b600260209081526000928352604080842090915290825290205481565b6105cc61073d366004614395565b601e6020526000908152604090205481565b6105f261075d366004614325565b61169f565b601b546106d9906001600160a01b031681565b6105cc610783366004614373565b60236020526000908152604090205481565b6105cc6107a33660046143ae565b6116f7565b6105f26107b6366004614373565b611794565b6105cc6107c9366004614373565b60186020526000908152604090205481565b6105f26107e9366004614395565b611839565b6105f26107fc3660046143e6565b6119b2565b6105f261080f366004614395565b6119fc565b6105f2610822366004614351565b611a2b565b6105cc610835366004614395565b60306020526000908152604090205481565b6105f2610855366004614325565b611a67565b6106d9610868366004614395565b611d0e565b600e546106d9906001600160a01b031681565b6105cc61088e366004614395565b602a6020526000908152604090205481565b6105f2611d1e565b6105f26108b6366004614373565b611e18565b6105cc6108c93660046143ae565b611e94565b6105f26108dc366004614416565b611eee565b6105f26108ef366004614373565b611f90565b6106d9610902366004614395565b6031602052600090815260409020546001600160a01b031681565b6105cc61092b366004614373565b60166020526000908152604090205481565b6105cc61094b366004614395565b611fdc565b6105cc61095e366004614373565b60126020526000908152604090205481565b61099361097e366004614395565b60276020526000908152604090205460ff1681565b60405190151581526020016105d6565b6105f2612010565b6105f26109b9366004614325565b612046565b6105cc6109cc3660046143ae565b612100565b6105cc6109df3660046143ae565b612130565b6105cc6109f2366004614440565b612a8b565b6105f2610a05366004614373565b612ad4565b6105f2610a18366004614325565b612c1c565b610993610a2b366004614373565b60226020526000908152604090205460ff1681565b6105f2610a4e3660046143ae565b612f92565b6105f2610a61366004614395565b612fea565b6105cc610a74366004614395565b60216020526000908152604090205481565b6105cc610a94366004614373565b60146020526000908152604090205481565b6000546001600160a01b03166106d9565b6105cc610ac5366004614325565b602860209081526000928352604080842090915290825290205481565b6105f2610af0366004614373565b613019565b6105cc6130c9565b6105f2610b0b3660046143e6565b613160565b6105cc610b1e3660046143ae565b601060209081526000928352604080842090915290825290205481565b6105cc60065481565b6105f2610b52366004614395565b6131aa565b6105cc610b65366004614373565b613213565b6105cc600b5481565b610993610b81366004614395565b60266020526000908152604090205460ff1681565b610993610ba4366004614373565b6132d1565b610993610bb7366004614395565b601f6020526000908152604090205460ff1681565b6105cc610bda366004614373565b601c6020526000908152604090205481565b6105f2610bfa3660046143e6565b61333b565b6105cc610c0d366004614373565b60076020526000908152604090205481565b6105f2610c2d366004614351565b613385565b6105cc601d5481565b6105f2610c49366004614351565b6133c1565b6105f2610c5c366004614373565b6133fd565b6105cc600a5481565b6105f2610c78366004614351565b61370d565b6105f2610c8b366004614416565b613767565b6105cc610c9e366004614325565b602f60209081526000928352604080842090915290825290205481565b6105f2610cc936600461447c565b6137bf565b6105cc610cdc366004614325565b602b60209081526000928352604080842090915290825290205481565b6106d9610d07366004614395565b613acc565b610993610d1a366004614373565b613adc565b6105cc610d2d366004614373565b60056020526000908152604090205481565b6105cc610d4d366004614325565b602e60209081526000928352604080842090915290825290205481565b6105cc610d78366004614373565b613b3d565b6105cc610d8b366004614440565b613bdd565b6105cc610d9e366004614373565b60296020526000908152604090205481565b6105cc60015481565b6106d9610dc7366004614395565b613cd1565b610ddf610dda366004614373565b613ce1565b604080519283526020830191909152016105d6565b6105f2610e02366004614395565b613de2565b6105f2610e15366004614373565b613f6a565b6105cc610e28366004614440565b614002565b6105f2610e3b3660046143e6565b61407e565b600f546106d9906001600160a01b031681565b610993610e61366004614395565b60256020526000908152604090205460ff1681565b6106d9610e84366004614395565b6140c8565b6106d9610e97366004614351565b6140d8565b6105cc610eaa366004614373565b60116020526000908152604090205481565b6000546001600160a01b03163314610eef5760405162461bcd60e51b8152600401610ee6906144c0565b60405180910390fd5b6000918252601e602052604090912055565b60006802b5e3af16b188000081610f166130c9565b9050670de0b6b3a764000081610f2c828561450b565b610f36919061452a565b935050505090565b60008211610f5e5760405162461bcd60e51b8152600401610ee69061454c565b610f6781613adc565b610f835760405162461bcd60e51b8152600401610ee690614583565b6040516323b872dd60e01b81526001600160a01b038216906323b872dd90610fb3903390309087906004016145ba565b6020604051808303816000875af1158015610fd2573d6000803e3d6000fd5b505050506040513d601f19601f82011682018060405250810190610ff691906145de565b506110013382614110565b61100b338261417b565b81600b5461101991906145fb565b600b556110263382612100565b3360008181526004602090815260408083209490945560038152838220429081905560058252848320556001600160a01b0385168252600281528382209282529190915220546110779083906145fb565b6001600160a01b0382166000908152600260209081526040808320338452825280832093909355600790522054600114156110ef57600c80546001810182556000919091527fdf6966c971051c3d54ec59162606531493a51404a002842f56009d7e5cf4a8c70180546001600160a01b031916331790555b5050565b601b546040805163054fd4d560e41b815290516000926001600160a01b0316916354fd4d509160048083019260209291908290030181865afa15801561113d573d6000803e3d6000fd5b505050506040513d601f19601f820116820180604052508101906111619190614613565b905090565b336000908152601460209081526040808320546016909252822054909161118d828461462c565b905060006064846017546111a1919061450b565b6111ab919061452a565b905060006111b9848361462c565b9050600085116111c857600080fd5b600081116111d557600080fd5b8484106111e157600080fd5b600f5460405163a9059cbb60e01b81526001600160a01b039091169063a9059cbb906112139033908590600401614643565b6020604051808303816000875af1158015611232573d6000803e3d6000fd5b505050506040513d601f19601f8201168201806040525081019061125691906145de565b50336000908152601660205260409020546112729082906145fb565b336000908152601660205260409020555050505050565b6000546001600160a01b031633146112b35760405162461bcd60e51b8152600401610ee6906144c0565b6000828152602b602090815260408083206001600160a01b03851680855292529182902054915163a9059cbb60e01b815263a9059cbb906112fa9033908590600401614643565b6020604051808303816000875af1158015611319573d6000803e3d6000fd5b505050506040513d601f19601f8201168201806040525081019061133d91906145de565b50506000918252602b602090815260408084206001600160a01b039093168452919052812055565b6000546001600160a01b0316331461138f5760405162461bcd60e51b8152600401610ee6906144c0565b600d80546001810182556000919091527fd7b6990105719101dabeb77144f2a3385c8033acd3af97e9423a695e81ad1eb50180546001600160a01b0319166001600160a01b0392909216919091179055565b60008281526027602052604090205460ff16151560011461140157600080fd5b6000828152602e602090815260408083203380855290835281842054868552602f84528285209185529252822054909161143b828461462c565b6000868152603060205260408120549192509060649061145c90869061450b565b611466919061452a565b90506000611474848361462c565b90506000811161148357600080fd5b8086111561149057600080fd5b84841061149c57600080fd5b600086116114bc5760405162461bcd60e51b8152600401610ee69061454c565b858310156114dc5760405162461bcd60e51b8152600401610ee69061465c565b846114e787866145fb565b106114f157600080fd5b6000878152603160205260409081902054905163a9059cbb60e01b81526001600160a01b039091169063a9059cbb906115309033908a90600401614643565b6020604051808303816000875af115801561154f573d6000803e3d6000fd5b505050506040513d601f19601f8201168201806040525081019061157391906145de565b506000878152602f602090815260408083203384529091529020546115999087906145fb565b6000978852602f60209081526040808a20338b5290915290972096909655505050505050565b6000546001600160a01b031633146115e95760405162461bcd60e51b8152600401610ee6906144c0565b600155565b6001600160a01b0382166000908152600760205260408120546116135750600061166f565b60008061161f84613ce1565b909250905061162f81600a61478c565b6001600160a01b038086166000908152600260209081526040808320938a168352929052205461166090849061450b565b61166a919061452a565b925050505b92915050565b601a818154811061168557600080fd5b6000918252602090912001546001600160a01b0316905081565b6000546001600160a01b031633146116c95760405162461bcd60e51b8152600401610ee6906144c0565b60009182526031602052604090912080546001600160a01b0319166001600160a01b03909216919091179055565b6001600160a01b0380831660008181526003602090815260408083205494861683526002825280832093835292905290812054600154919291429190849060649061174390849061450b565b61174d919061452a565b9050600061175e620805208361452a565b90506000603c61176e878761462c565b611778919061452a565b90506000611786838361450b565b9a9950505050505050505050565b6000546001600160a01b031633146117be5760405162461bcd60e51b8152600401610ee6906144c0565b60065460405163a9059cbb60e01b81526001600160a01b0383169163a9059cbb916117ed913391600401614643565b6020604051808303816000875af115801561180c573d6000803e3d6000fd5b505050506040513d601f19601f8201168201806040525081019061183091906145de565b50506000600655565b3360009081526014602090815260408083205460169092528220549091611860828461462c565b90506000606484601754611874919061450b565b61187e919061452a565b9050600061188c848361462c565b90506000811161189b57600080fd5b808611156118a857600080fd5b8484106118b457600080fd5b600086116118d45760405162461bcd60e51b8152600401610ee69061454c565b858310156118f45760405162461bcd60e51b8152600401610ee69061465c565b846118ff87866145fb565b1061190957600080fd5b600f5460405163a9059cbb60e01b81526001600160a01b039091169063a9059cbb9061193b9033908a90600401614643565b6020604051808303816000875af115801561195a573d6000803e3d6000fd5b505050506040513d601f19601f8201168201806040525081019061197e91906145de565b503360009081526016602052604090205461199a9087906145fb565b33600090815260166020526040902055505050505050565b6000546001600160a01b031633146119dc5760405162461bcd60e51b8152600401610ee6906144c0565b600091825260256020526040909120805460ff1916911515919091179055565b6000546001600160a01b03163314611a265760405162461bcd60e51b8152600401610ee6906144c0565b601555565b6000546001600160a01b03163314611a555760405162461bcd60e51b8152600401610ee6906144c0565b60009182526030602052604090912055565b60008211611a875760405162461bcd60e51b8152600401610ee69061454c565b611a90816132d1565b611aac5760405162461bcd60e51b8152600401610ee690614583565b6040516323b872dd60e01b81526001600160a01b038216906323b872dd90611adc903390309087906004016145ba565b6020604051808303816000875af1158015611afb573d6000803e3d6000fd5b505050506040513d601f19601f82011682018060405250810190611b1f91906145de565b506040516370a0823160e01b8152306004820152670de0b6b3a7640000906001600160a01b038316906370a0823190602401602060405180830381865afa158015611b6e573d6000803e3d6000fd5b505050506040513d601f19601f82011682018060405250810190611b929190614613565b611b9c919061452a565b601d55611ba933826141ba565b6001600160a01b0381166000908152601060209081526040808320338452909152902054611bd89083906145fb565b6001600160a01b0382166000908152601060209081526040808320338452909152902055601554611c09908361450b565b33600090815260146020526040902054611c2391906145fb565b336000908152601460209081526040808320939093556001600160a01b0384168252601190522054611c569083906145fb565b6001600160a01b038216600090815260116020908152604080832093909355601290522054611c869083906145fb565b6001600160a01b038216600090815260126020526040902055601354611cad9083906145fb565b601355336000908152601c6020526040902054600114156110ef57601980546001810182556000919091527f944998273e477b495144fb8794c914197f3ccb46be2900f4698fd0ef743c96950180546001600160a01b031916331790555050565b600d818154811061168557600080fd5b6000546001600160a01b03163314611d485760405162461bcd60e51b8152600401610ee6906144c0565b60005b600c54811015611e15576000600c8281548110611d6a57611d6a614798565b60009182526020822001546001600160a01b03169150611d8982613213565b600e5460405163a9059cbb60e01b81529192506001600160a01b03169063a9059cbb90611dbc9085908590600401614643565b6020604051808303816000875af1158015611ddb573d6000803e3d6000fd5b505050506040513d601f19601f82011682018060405250810190611dff91906145de565b5050508080611e0d906147ae565b915050611d4b565b50565b6000546001600160a01b03163314611e425760405162461bcd60e51b8152600401610ee6906144c0565b601a80546001810182556000919091527f057c384a7d1c54f3a1b2e5e67b2617b8224fdfd1ea7234eea573a6ff665ff63e0180546001600160a01b0319166001600160a01b0392909216919091179055565b6001600160a01b03811660009081526014602090815260408083205460169092528220546017548390606490611ecb90859061450b565b611ed5919061452a565b90506000611ee3838361462c565b979650505050505050565b6000546001600160a01b03163314611f185760405162461bcd60e51b8152600401610ee6906144c0565b6040516323b872dd60e01b81526001600160a01b038316906323b872dd90611f48903390309086906004016145ba565b6020604051808303816000875af1158015611f67573d6000803e3d6000fd5b505050506040513d601f19601f82011682018060405250810190611f8b91906145de565b505050565b6000546001600160a01b03163314611fba5760405162461bcd60e51b8152600401610ee6906144c0565b600f80546001600160a01b0319166001600160a01b0392909216919091179055565b600080611fe76130c9565b90506000670de0b6b3a7640000611ffe858461450b565b612008919061452a565b949350505050565b6000546001600160a01b0316331461203a5760405162461bcd60e51b8152600401610ee6906144c0565b6120446000614225565b565b6000828152601f602052604090205460ff16151560011461206657600080fd5b6001600160a01b0381166000908152600260209081526040808320338452909152902054685150ae84a8cdf00000111561209f57600080fd5b60006120ab3383612130565b116120b557600080fd5b60006120c13383612130565b6000818152602160205260409020549091506120de9060016145fb565b6000828152602160209081526040808320939093553382526023905220555050565b60008061210d84846116f7565b6001600160a01b03851660009081526004602052604090205461200891906145fb565b602054600090819061214390609661450b565b61215590670de0b6b3a764000061450b565b6001600160a01b038085166000908152600260209081526040808320938916835292905220541061218a5750601c905061166f565b60205461219890608c61450b565b6121aa90670de0b6b3a764000061450b565b6001600160a01b03808516600090815260026020908152604080832093891683529290522054106121df5750601b905061166f565b6020546121ed90608261450b565b6121ff90670de0b6b3a764000061450b565b6001600160a01b03808516600090815260026020908152604080832093891683529290522054106122345750601a905061166f565b60205461224290607861450b565b61225490670de0b6b3a764000061450b565b6001600160a01b038085166000908152600260209081526040808320938916835292905220541061228957506019905061166f565b60205461229790606e61450b565b6122a990670de0b6b3a764000061450b565b6001600160a01b03808516600090815260026020908152604080832093891683529290522054106122de57506018905061166f565b6020546122ec90606461450b565b6122fe90670de0b6b3a764000061450b565b6001600160a01b038085166000908152600260209081526040808320938916835292905220541061233357506017905061166f565b60205461234190605a61450b565b61235390670de0b6b3a764000061450b565b6001600160a01b038085166000908152600260209081526040808320938916835292905220541061238857506016905061166f565b60205461239690605061450b565b6123a890670de0b6b3a764000061450b565b6001600160a01b03808516600090815260026020908152604080832093891683529290522054106123dd57506015905061166f565b6020546123eb90604661450b565b6123fd90670de0b6b3a764000061450b565b6001600160a01b038085166000908152600260209081526040808320938916835292905220541061243257506014905061166f565b60205461244090603c61450b565b61245290670de0b6b3a764000061450b565b6001600160a01b038085166000908152600260209081526040808320938916835292905220541061248757506013905061166f565b60205461249590603261450b565b6124a790670de0b6b3a764000061450b565b6001600160a01b03808516600090815260026020908152604080832093891683529290522054106124dc57506012905061166f565b6020546124ea90602d61450b565b6124fc90670de0b6b3a764000061450b565b6001600160a01b038085166000908152600260209081526040808320938916835292905220541061253157506011905061166f565b60205461253f90602861450b565b61255190670de0b6b3a764000061450b565b6001600160a01b038085166000908152600260209081526040808320938916835292905220541061258657506010905061166f565b60205461259490602361450b565b6125a690670de0b6b3a764000061450b565b6001600160a01b03808516600090815260026020908152604080832093891683529290522054106125db5750600f905061166f565b6020546125e990601e61450b565b6125fb90670de0b6b3a764000061450b565b6001600160a01b03808516600090815260026020908152604080832093891683529290522054106126305750600e905061166f565b60205461263e90601961450b565b61265090670de0b6b3a764000061450b565b6001600160a01b03808516600090815260026020908152604080832093891683529290522054106126855750600d905061166f565b60205461269390601461450b565b6126a590670de0b6b3a764000061450b565b6001600160a01b03808516600090815260026020908152604080832093891683529290522054106126da5750600c905061166f565b6020546126e890600f61450b565b6126fa90670de0b6b3a764000061450b565b6001600160a01b038085166000908152600260209081526040808320938916835292905220541061272f5750600b905061166f565b60205461273d90600a61450b565b61274f90670de0b6b3a764000061450b565b6001600160a01b03808516600090815260026020908152604080832093891683529290522054106127845750600a905061166f565b60205461279290600961450b565b6127a490670de0b6b3a764000061450b565b6001600160a01b03808516600090815260026020908152604080832093891683529290522054106127d957506009905061166f565b6020546127e790600861450b565b6127f990670de0b6b3a764000061450b565b6001600160a01b038085166000908152600260209081526040808320938916835292905220541061282e57506008905061166f565b60205461283c90600761450b565b61284e90670de0b6b3a764000061450b565b6001600160a01b038085166000908152600260209081526040808320938916835292905220541061288357506007905061166f565b60205461289190600661450b565b6128a390670de0b6b3a764000061450b565b6001600160a01b03808516600090815260026020908152604080832093891683529290522054106128d857506006905061166f565b6020546128e690600561450b565b6128f890670de0b6b3a764000061450b565b6001600160a01b038085166000908152600260209081526040808320938916835292905220541061292d57506005905061166f565b60205461293b90600461450b565b61294d90670de0b6b3a764000061450b565b6001600160a01b038085166000908152600260209081526040808320938916835292905220541061298257506004905061166f565b60205461299090600361450b565b6129a290670de0b6b3a764000061450b565b6001600160a01b03808516600090815260026020908152604080832093891683529290522054106129d757506003905061166f565b6020546129e590600261450b565b6129f790670de0b6b3a764000061450b565b6001600160a01b0380851660009081526002602090815260408083209389168352929052205410612a2c57506002905061166f565b602054612a3a90600161450b565b612a4c90670de0b6b3a764000061450b565b6001600160a01b0380851660009081526002602090815260408083209389168352929052205410612a8157506001905061166f565b506000905061166f565b600080612a99858585613bdd565b60008481526028602090815260408083206001600160a01b038a16845290915281205491925090612aca908361462c565b9695505050505050565b6000546001600160a01b03163314612afe5760405162461bcd60e51b8152600401610ee6906144c0565b6001600160a01b0381166000818152601160205260409081902054905163a9059cbb60e01b815290919063a9059cbb90612b3e9033908590600401614643565b6020604051808303816000875af1158015612b5d573d6000803e3d6000fd5b505050506040513d601f19601f82011682018060405250810190612b8191906145de565b506040516370a0823160e01b8152306004820152670de0b6b3a7640000906001600160a01b038416906370a0823190602401602060405180830381865afa158015612bd0573d6000803e3d6000fd5b505050506040513d601f19601f82011682018060405250810190612bf49190614613565b612bfe919061452a565b601d55506001600160a01b0316600090815260116020526040812055565b6001600160a01b038116600090815260026020908152604080832033845290915290205482612c5d5760405162461bcd60e51b8152600401610ee69061454c565b82811015612cb95760405162461bcd60e51b815260206004820152602360248201527f596f7520646f6e2774206861766520656e6f756768207374616b656420746f6b604482015262656e7360e81b6064820152608401610ee6565b612cc282613adc565b612cde5760405162461bcd60e51b8152600401610ee690614583565b336000908152600560205260409020544290612cfd906249d4006145fb565b811015612e4b5733600090815260056020526040902054612d219062375f006145fb565b811015612e3c5733600090815260056020526040902054612d45906224ea006145fb565b811015612e2d5733600090815260056020526040902054612d6990621275006145fb565b811015612e1e5760006064612d7f86604b61450b565b612d89919061452a565b60405163a9059cbb60e01b81529091506001600160a01b0385169063a9059cbb90612dba9033908590600401614643565b6020604051808303816000875af1158015612dd9573d6000803e3d6000fd5b505050506040513d601f19601f82011682018060405250810190612dfd91906145de565b50612e08818661462c565b600654612e1591906145fb565b60065550612ebe565b60006064612d7f86605561450b565b60006064612d7f86605a61450b565b60006064612d7f86605f61450b565b60405163a9059cbb60e01b81526001600160a01b0384169063a9059cbb90612e799033908890600401614643565b6020604051808303816000875af1158015612e98573d6000803e3d6000fd5b505050506040513d601f19601f82011682018060405250810190612ebc91906145de565b505b612ec83384612100565b336000908152600460209081526040808320939093556003905220429055612ef0848361462c565b6001600160a01b0384166000908152600260209081526040808320338452909152902055600b54612f2290859061462c565b600b556001600160a01b0383166000908152600260209081526040808320338452909152902054612f8c576001600a54612f5c919061462c565b600a5533600090815260076020526040902054612f7b9060019061462c565b336000908152600760205260409020555b50505050565b6000546001600160a01b03163314612fbc5760405162461bcd60e51b8152600401610ee6906144c0565b6001600160a01b03918216600090815260086020526040902080546001600160a01b03191691909216179055565b6000546001600160a01b031633146130145760405162461bcd60e51b8152600401610ee6906144c0565b602055565b60006130253383612100565b90506000811161303457600080fd5b60405163a9059cbb60e01b81526001600160a01b0383169063a9059cbb906130629033908590600401614643565b6020604051808303816000875af1158015613081573d6000803e3d6000fd5b505050506040513d601f19601f820116820180604052508101906130a591906145de565b50503360009081526004602090815260408083208390556003909152902042905550565b600080601b60009054906101000a90046001600160a01b03166001600160a01b031663feaf968c6040518163ffffffff1660e01b815260040160a060405180830381865afa15801561311f573d6000803e3d6000fd5b505050506040513d601f19601f8201168201806040525081019061314391906147e3565b505050915050806402540be40061315a9190614833565b91505090565b6000546001600160a01b0316331461318a5760405162461bcd60e51b8152600401610ee6906144c0565b600091825260266020526040909120805460ff1916911515919091179055565b6000546001600160a01b031633146131d45760405162461bcd60e51b8152600401610ee6906144c0565b606560175411156131e457600080fd5b6065816017546131f491906145fb565b11156131ff57600080fd5b8060175461320d91906145fb565b60175550565b6001600160a01b038116600090815260076020526040812054819061326e5760405162461bcd60e51b81526020600482015260116024820152704e6f20746f6b656e73207374616b65642160781b6044820152606401610ee6565b60005b600d548110156132ca576132ac84600d838154811061329257613292614798565b6000918252602090912001546001600160a01b03166115ee565b6132b690836145fb565b9150806132c2816147ae565b915050613271565b5092915050565b6000805b601a5481101561333257826001600160a01b0316601a82815481106132fc576132fc614798565b6000918252602090912001546001600160a01b031614156133205750600192915050565b8061332a816147ae565b9150506132d5565b50600092915050565b6000546001600160a01b031633146133655760405162461bcd60e51b8152600401610ee6906144c0565b6000918252601f6020526040909120805460ff1916911515919091179055565b6000546001600160a01b031633146133af5760405162461bcd60e51b8152600401610ee6906144c0565b60009182526024602052604090912055565b6000546001600160a01b031633146133eb5760405162461bcd60e51b8152600401610ee6906144c0565b6000918252602a602052604090912055565b6001600160a01b03811660009081526002602090815260408083203384529091529020548061346e5760405162461bcd60e51b815260206004820152601b60248201527f5374616b696e672062616c616e63652063616e6e6f74206265203000000000006044820152606401610ee6565b61347782613adc565b6134935760405162461bcd60e51b8152600401610ee690614583565b3360009081526005602052604090205442906134b2906249d4006145fb565b81101561360057336000908152600560205260409020546134d69062375f006145fb565b8110156135f157336000908152600560205260409020546134fa906224ea006145fb565b8110156135e2573360009081526005602052604090205461351e90621275006145fb565b8110156135d3576000606461353484604b61450b565b61353e919061452a565b60405163a9059cbb60e01b81529091506001600160a01b0385169063a9059cbb9061356f9033908590600401614643565b6020604051808303816000875af115801561358e573d6000803e3d6000fd5b505050506040513d601f19601f820116820180604052508101906135b291906145de565b506135bd818461462c565b6006546135ca91906145fb565b60065550613673565b6000606461353484605561450b565b6000606461353484605a61450b565b6000606461353484605f61450b565b60405163a9059cbb60e01b81526001600160a01b0384169063a9059cbb9061362e9033908690600401614643565b6020604051808303816000875af115801561364d573d6000803e3d6000fd5b505050506040513d601f19601f8201168201806040525081019061367191906145de565b505b61367d3384612100565b336000908152600460209081526040808320939093556003905220429055600b546136a990839061462c565b600b556001600160a01b0383166000908152600260209081526040808320338452825280832083905560079091529020546136e69060019061462c565b33600090815260076020526040902055600a546137059060019061462c565b600a55505050565b6000546001600160a01b031633146137375760405162461bcd60e51b8152600401610ee6906144c0565b6000828152603060205260409020546137519082906145fb565b6000928352603060205260409092209190915550565b6000546001600160a01b031633146137915760405162461bcd60e51b8152600401610ee6906144c0565b60405163a9059cbb60e01b81526001600160a01b0383169063a9059cbb90611f489033908590600401614643565b60008181526026602052604090205460ff1615156001146137df57600080fd5b6001600160a01b0383166000908152600260209081526040808320338452909152902054685150ae84a8cdf00000111561381857600080fd5b60006138243385612130565b1161382e57600080fd5b60008181526024602052604090205461384657600080fd5b600084116138665760405162461bcd60e51b8152600401610ee69061454c565b61386f826132d1565b61388b5760405162461bcd60e51b8152600401610ee690614583565b600081815260246020908152604080832054602c83528184206001600160a01b038716855290925290912054106138c157600080fd5b60006138ce338584613bdd565b6000838152602860209081526040808320338452909152812054919250906138f6908361462c565b90506000811161390557600080fd5b8086111561391257600080fd5b6040516323b872dd60e01b81526001600160a01b038516906323b872dd9061394290339030908b906004016145ba565b6020604051808303816000875af1158015613961573d6000803e3d6000fd5b505050506040513d601f19601f8201168201806040525081019061398591906145de565b506139903384614275565b60008381526028602090815260408083203384529091529020546139b59087906145fb565b6000848152602860209081526040808320338452825280832093909355858252602a905220546139e5908761450b565b6000848152602e60209081526040808320338452909152902054613a0991906145fb565b6000848152602e60209081526040808320338452825280832093909355858252602b81528282206001600160a01b038816835290522054613a4b9087906145fb565b6000848152602b602090815260408083206001600160a01b03891680855290835281842094909455868352602c82528083209383529290522054613a909087906145fb565b6000848152602c602090815260408083206001600160a01b0389168452909152902055601354613ac19087906145fb565b601355505050505050565b6009818154811061168557600080fd5b6000805b600d5481101561333257826001600160a01b0316600d8281548110613b0757613b07614798565b6000918252602090912001546001600160a01b03161415613b2b5750600192915050565b80613b35816147ae565b915050613ae0565b600080546001600160a01b03163314613b685760405162461bcd60e51b8152600401610ee6906144c0565b6040516370a0823160e01b81523060048201526001600160a01b038316906370a0823190602401602060405180830381865afa158015613bac573d6000803e3d6000fd5b505050506040513d601f19601f82011682018060405250810190613bd09190614613565b601d81905590505b919050565b60008181526025602052604081205460ff161515600114613bfd57600080fd5b600082815260246020526040902054613c1557600080fd5b600060015b601d811015613c6957600081815260216020908152604080832054601e909252822054613c47919061450b565b9050613c5381846145fb565b9250508080613c61906147ae565b915050613c1a565b50600083815260246020526040812054613c8490839061452a565b90506000613c928787612130565b600081815260216020908152604080832054601e90925282205492935091908285613cbd828561450b565b613cc7919061450b565b611786919061452a565b6019818154811061168557600080fd5b6001600160a01b03808216600090815260086020526040808220548151633fabe5a360e21b815291519293849391169182918491839163feaf968c9160048082019260a0929091908290030181865afa158015613d42573d6000803e3d6000fd5b505050506040513d601f19601f82011682018060405250810190613d6691906147e3565b5050509150506000826001600160a01b031663313ce5676040518163ffffffff1660e01b8152600401602060405180830381865afa158015613dac573d6000803e3d6000fd5b505050506040513d601f19601f82011682018060405250810190613dd091906148b8565b919760ff909216965090945050505050565b60008181526027602052604090205460ff161515600114613e0257600080fd5b6000818152602e602090815260408083203380855290835281842054858552602f845282852091855292528220549091613e3c828461462c565b60008581526030602052604081205491925090606490613e5d90869061450b565b613e67919061452a565b90506000613e75848361462c565b905060008511613e8457600080fd5b60008111613e9157600080fd5b848410613e9d57600080fd5b6000868152603160205260409081902054905163a9059cbb60e01b81526001600160a01b039091169063a9059cbb90613edc9033908590600401614643565b6020604051808303816000875af1158015613efb573d6000803e3d6000fd5b505050506040513d601f19601f82011682018060405250810190613f1f91906145de565b506000868152602f60209081526040808320338452909152902054613f459082906145fb565b6000968752602f60209081526040808920338a52909152909620959095555050505050565b6000546001600160a01b03163314613f945760405162461bcd60e51b8152600401610ee6906144c0565b6001600160a01b038116613ff95760405162461bcd60e51b815260206004820152602660248201527f4f776e61626c653a206e6577206f776e657220697320746865207a65726f206160448201526564647265737360d01b6064820152608401610ee6565b611e1581614225565b6000818152602e602090815260408083206001600160a01b03861680855290835281842054858552602f845282852091855290835281842054858552603090935290832054909190839060649061405a90859061450b565b614064919061452a565b90506000614072838361462c565b98975050505050505050565b6000546001600160a01b031633146140a85760405162461bcd60e51b8152600401610ee6906144c0565b600091825260276020526040909120805460ff1916911515919091179055565b600c818154811061168557600080fd5b602d60205281600052604060002081815481106140f457600080fd5b6000918252602090912001546001600160a01b03169150829050565b6001600160a01b038082166000908152600260209081526040808320938616835292905220546110ef576001600160a01b03821660009081526007602052604090205461415e9060016145fb565b6001600160a01b0383166000908152600760205260409020555050565b6001600160a01b038082166000908152600260209081526040808320938616835292905220546110ef57600a546141b39060016145fb565b600a555050565b6001600160a01b038082166000908152601060209081526040808320938616835292905220546110ef576001600160a01b0382166000908152601c60205260409020546142089060016145fb565b6001600160a01b0383166000908152601c60205260409020555050565b600080546001600160a01b038381166001600160a01b0319831681178455604051919092169283917f8be0079c531659141344cd1fd0a4f28419497f9722a3daafe3b4186f6b6457e09190a35050565b60008181526028602090815260408083206001600160a01b03861684529091529020546110ef576001600160a01b0382166000908152602960205260409020546142c09060016145fb565b6001600160a01b0392909216600081815260296020908152604080832095909555928152602d83529283208054600181018255908452919092200180546001600160a01b0319169091179055565b80356001600160a01b0381168114613bd857600080fd5b6000806040838503121561433857600080fd5b823591506143486020840161430e565b90509250929050565b6000806040838503121561436457600080fd5b50508035926020909101359150565b60006020828403121561438557600080fd5b61438e8261430e565b9392505050565b6000602082840312156143a757600080fd5b5035919050565b600080604083850312156143c157600080fd5b6143ca8361430e565b91506143486020840161430e565b8015158114611e1557600080fd5b600080604083850312156143f957600080fd5b82359150602083013561440b816143d8565b809150509250929050565b6000806040838503121561442957600080fd5b6144328361430e565b946020939093013593505050565b60008060006060848603121561445557600080fd5b61445e8461430e565b925061446c6020850161430e565b9150604084013590509250925092565b6000806000806080858703121561449257600080fd5b843593506144a26020860161430e565b92506144b06040860161430e565b9396929550929360600135925050565b6020808252818101527f4f776e61626c653a2063616c6c6572206973206e6f7420746865206f776e6572604082015260600190565b634e487b7160e01b600052601160045260246000fd5b6000816000190483118215151615614525576145256144f5565b500290565b60008261454757634e487b7160e01b600052601260045260246000fd5b500490565b6020808252601a908201527f416d6f756e74206d757374206265206d6f7265207468616e2030000000000000604082015260600190565b6020808252601e908201527f546f6b656e2069732063757272656e746c79206e6f7420616c6c6f7765640000604082015260600190565b6001600160a01b039384168152919092166020820152604081019190915260600190565b6000602082840312156145f057600080fd5b815161438e816143d8565b6000821982111561460e5761460e6144f5565b500190565b60006020828403121561462557600080fd5b5051919050565b60008282101561463e5761463e6144f5565b500390565b6001600160a01b03929092168252602082015260400190565b6020808252602c908201527f596f7520646f6e2774206861766520656e6f756768207075726368617365642060408201526b746f6b656e73206c6566742160a01b606082015260800190565b600181815b808511156146e35781600019048211156146c9576146c96144f5565b808516156146d657918102915b93841c93908002906146ad565b509250929050565b6000826146fa5750600161166f565b816147075750600061166f565b816001811461471d576002811461472757614743565b600191505061166f565b60ff841115614738576147386144f5565b50506001821b61166f565b5060208310610133831016604e8410600b8410161715614766575081810a61166f565b61477083836146a8565b8060001904821115614784576147846144f5565b029392505050565b600061438e83836146eb565b634e487b7160e01b600052603260045260246000fd5b60006000198214156147c2576147c26144f5565b5060010190565b805169ffffffffffffffffffff81168114613bd857600080fd5b600080600080600060a086880312156147fb57600080fd5b614804866147c9565b9450602086015193506040860151925060608601519150614827608087016147c9565b90509295509295909350565b60006001600160ff1b0381841382841380821686840486111615614859576148596144f5565b600160ff1b6000871282811687830589121615614878576148786144f5565b60008712925087820587128484161615614894576148946144f5565b878505871281841616156148aa576148aa6144f5565b505050929093029392505050565b6000602082840312156148ca57600080fd5b815160ff8116811461438e57600080fdfea2646970667358221220234f7209a3153174da2678e8720628d64c711c2303f2cbbf70918bca63e9fcd164736f6c634300080b0033","bytecodeSha1":"48db432e19760803eaea34294027b06529376dd1","compiler":{"evm_version":"istanbul","optimizer":{"enabled":true,"runs":200},"version":"0.8.11+commit.d7f03943"},"contractName":"TokenFarm","language":"Solidity","natspec":{"kind":"dev","methods":{"owner()":{"details":"Returns the address of the current owner."},"renounceOwnership()":{"details":"Leaves the contract without owner. It will not be possible to call `onlyOwner` functions anymore. Can only be called by the current owner. NOTE: Renouncing ownership will leave the contract without an owner, thereby removing any functionality that is only available to the owner."},"transferOwnership(address)":{"details":"Transfers ownership of the contract to a new account (`newOwner`). Can only be called by the current owner."}},"version":1},"opcodes":"PUSH1 0x80 PUSH1 0x40 MSTORE CALLVALUE DUP1 ISZERO PUSH2 0x10 JUMPI PUSH1 0x0 DUP1 REVERT JUMPDEST POP PUSH1 0x4 CALLDATASIZE LT PUSH2 0x59C JUMPI PUSH1 0x0 CALLDATALOAD PUSH1 0xE0 SHR DUP1 PUSH4 0x850FB311 GT PUSH2 0x2E5 JUMPI DUP1 PUSH4 0xCA97FC29 GT PUSH2 0x18D JUMPI DUP1 PUSH4 0xEE110701 GT PUSH2 0xF4 JUMPI DUP1 PUSH4 0xF5D9F006 GT PUSH2 0xAD JUMPI DUP1 PUSH4 0xFB4854AA GT PUSH2 0x87 JUMPI DUP1 PUSH4 0xFB4854AA EQ PUSH2 0xE53 JUMPI DUP1 PUSH4 0xFD5E6DD1 EQ PUSH2 0xE76 JUMPI DUP1 PUSH4 0xFE0A9E00 EQ PUSH2 0xE89 JUMPI DUP1 PUSH4 0xFE833831 EQ PUSH2 0xE9C JUMPI PUSH1 0x0 DUP1 REVERT JUMPDEST DUP1 PUSH4 0xF5D9F006 EQ PUSH2 0xE1A JUMPI DUP1 PUSH4 0xFA95CF82 EQ PUSH2 0xE2D JUMPI DUP1 PUSH4 0xFB27B0ED EQ PUSH2 0xE40 JUMPI PUSH1 0x0 DUP1 REVERT JUMPDEST DUP1 PUSH4 0xEE110701 EQ PUSH2 0xD90 JUMPI DUP1 PUSH4 0xEF8BD305 EQ PUSH2 0xDB0 JUMPI DUP1 PUSH4 0xF08AAE81 EQ PUSH2 0xDB9 JUMPI DUP1 PUSH4 0xF1C5D6C2 EQ PUSH2 0xDCC JUMPI DUP1 PUSH4 0xF23E5423 EQ PUSH2 0xDF4 JUMPI DUP1 PUSH4 0xF2FDE38B EQ PUSH2 0xE07 JUMPI PUSH1 0x0 DUP1 REVERT JUMPDEST DUP1 PUSH4 0xDC0D3DFF GT PUSH2 0x146 JUMPI DUP1 PUSH4 0xDC0D3DFF EQ PUSH2 0xCF9 JUMPI DUP1 PUSH4 0xDD5B8467 EQ PUSH2 0xD0C JUMPI DUP1 PUSH4 0xE2453396 EQ PUSH2 0xD1F JUMPI DUP1 PUSH4 0xE354E1C2 EQ PUSH2 0xD3F JUMPI DUP1 PUSH4 0xE4C78422 EQ PUSH2 0xD6A JUMPI DUP1 PUSH4 0xEACE7E23 EQ PUSH2 0xD7D JUMPI PUSH1 0x0 DUP1 REVERT JUMPDEST DUP1 PUSH4 0xCA97FC29 EQ PUSH2 0xC61 JUMPI DUP1 PUSH4 0xCCD35BB2 EQ PUSH2 0xC6A JUMPI DUP1 PUSH4 0xCD32E792 EQ PUSH2 0xC7D JUMPI DUP1 PUSH4 0xCE05EA66 EQ PUSH2 0xC90 JUMPI DUP1 PUSH4 0xDBA586F2 EQ PUSH2 0xCBB JUMPI DUP1 PUSH4 0xDBD94009 EQ PUSH2 0xCCE JUMPI PUSH1 0x0 DUP1 REVERT JUMPDEST DUP1 PUSH4 0xA4ABF261 GT PUSH2 0x24C JUMPI DUP1 PUSH4 0xB379BC6A GT PUSH2 0x205 JUMPI DUP1 PUSH4 0xBDE63A92 GT PUSH2 0x1DF JUMPI DUP1 PUSH4 0xBDE63A92 EQ PUSH2 0xC1F JUMPI DUP1 PUSH4 0xC071CF83 EQ PUSH2 0xC32 JUMPI DUP1 PUSH4 0xC8846CDB EQ PUSH2 0xC3B JUMPI DUP1 PUSH4 0xC98A6C49 EQ PUSH2 0xC4E JUMPI PUSH1 0x0 DUP1 REVERT JUMPDEST DUP1 PUSH4 0xB379BC6A EQ PUSH2 0xBCC JUMPI DUP1 PUSH4 0xB57EFF10 EQ PUSH2 0xBEC JUMPI DUP1 PUSH4 0xB83E0234 EQ PUSH2 0xBFF JUMPI PUSH1 0x0 DUP1 REVERT JUMPDEST DUP1 PUSH4 0xA4ABF261 EQ PUSH2 0xB44 JUMPI DUP1 PUSH4 0xAF3F5E22 EQ PUSH2 0xB57 JUMPI DUP1 PUSH4 0xB0E31B2D EQ PUSH2 0xB6A JUMPI DUP1 PUSH4 0xB1150702 EQ PUSH2 0xB73 JUMPI DUP1 PUSH4 0xB195558C EQ PUSH2 0xB96 JUMPI DUP1 PUSH4 0xB2E87781 EQ PUSH2 0xBA9 JUMPI PUSH1 0x0 DUP1 REVERT JUMPDEST DUP1 PUSH4 0x8DCB654B GT PUSH2 0x29E JUMPI DUP1 PUSH4 0x8DCB654B EQ PUSH2 0xAB7 JUMPI DUP1 PUSH4 0x96BB1FEF EQ PUSH2 0xAE2 JUMPI DUP1 PUSH4 0x98D5FDCA EQ PUSH2 0xAF5 JUMPI DUP1 PUSH4 0x9B67F4BE EQ PUSH2 0xAFD JUMPI DUP1 PUSH4 0x9F20F62D EQ PUSH2 0xB10 JUMPI DUP1 PUSH4 0xA307BB0C EQ PUSH2 0xB3B JUMPI PUSH1 0x0 DUP1 REVERT JUMPDEST DUP1 PUSH4 0x850FB311 EQ PUSH2 0xA1D JUMPI DUP1 PUSH4 0x877DD39D EQ PUSH2 0xA40 JUMPI DUP1 PUSH4 0x8A757EC2 EQ PUSH2 0xA53 JUMPI DUP1 PUSH4 0x8B1D8CFD EQ PUSH2 0xA66 JUMPI DUP1 PUSH4 0x8B20C4C2 EQ PUSH2 0xA86 JUMPI DUP1 PUSH4 0x8DA5CB5B EQ PUSH2 0xAA6 JUMPI PUSH1 0x0 DUP1 REVERT JUMPDEST DUP1 PUSH4 0x41A7A45E GT PUSH2 0x448 JUMPI DUP1 PUSH4 0x66B98718 GT PUSH2 0x3AF JUMPI DUP1 PUSH4 0x715018A6 GT PUSH2 0x368 JUMPI DUP1 PUSH4 0x77A4CFE8 GT PUSH2 0x342 JUMPI DUP1 PUSH4 0x77A4CFE8 EQ PUSH2 0x9D1 JUMPI DUP1 PUSH4 0x799E93E8 EQ PUSH2 0x9E4 JUMPI DUP1 PUSH4 0x79F27C9E EQ PUSH2 0x9F7 JUMPI DUP1 PUSH4 0x84D269AD EQ PUSH2 0xA0A JUMPI PUSH1 0x0 DUP1 REVERT JUMPDEST DUP1 PUSH4 0x715018A6 EQ PUSH2 0x9A3 JUMPI DUP1 PUSH4 0x7290B3AD EQ PUSH2 0x9AB JUMPI DUP1 PUSH4 0x7737721B EQ PUSH2 0x9BE JUMPI PUSH1 0x0 DUP1 REVERT JUMPDEST DUP1 PUSH4 0x66B98718 EQ PUSH2 0x8E1 JUMPI DUP1 PUSH4 0x6B06A625 EQ PUSH2 0x8F4 JUMPI DUP1 PUSH4 0x6B3DD9E2 EQ PUSH2 0x91D JUMPI DUP1 PUSH4 0x6E5B6B28 EQ PUSH2 0x93D JUMPI DUP1 PUSH4 0x6F4A2A2F EQ PUSH2 0x950 JUMPI DUP1 PUSH4 0x6F8DA993 EQ PUSH2 0x970 JUMPI PUSH1 0x0 DUP1 REVERT JUMPDEST DUP1 PUSH4 0x5EB186F8 GT PUSH2 0x401 JUMPI DUP1 PUSH4 0x5EB186F8 EQ PUSH2 0x86D JUMPI DUP1 PUSH4 0x5FBAE1C7 EQ PUSH2 0x880 JUMPI DUP1 PUSH4 0x60AB5852 EQ PUSH2 0x8A0 JUMPI DUP1 PUSH4 0x630B8A8A EQ PUSH2 0x8A8 JUMPI DUP1 PUSH4 0x6323085C EQ PUSH2 0x8BB JUMPI DUP1 PUSH4 0x635AB2F7 EQ PUSH2 0x8CE JUMPI PUSH1 0x0 DUP1 REVERT JUMPDEST DUP1 PUSH4 0x41A7A45E EQ PUSH2 0x7EE JUMPI DUP1 PUSH4 0x5084BE37 EQ PUSH2 0x801 JUMPI DUP1 PUSH4 0x544CD5EC EQ PUSH2 0x814 JUMPI DUP1 PUSH4 0x58728788 EQ PUSH2 0x827 JUMPI DUP1 PUSH4 0x5D990250 EQ PUSH2 0x847 JUMPI DUP1 PUSH4 0x5E5F2E26 EQ PUSH2 0x85A JUMPI PUSH1 0x0 DUP1 REVERT JUMPDEST DUP1 PUSH4 0x264C44FF GT PUSH2 0x507 JUMPI DUP1 PUSH4 0x2FBB9CA6 GT PUSH2 0x4C0 JUMPI DUP1 PUSH4 0x3D8C3CDD GT PUSH2 0x49A JUMPI DUP1 PUSH4 0x3D8C3CDD EQ PUSH2 0x795 JUMPI DUP1 PUSH4 0x3DBEE808 EQ PUSH2 0x7A8 JUMPI DUP1 PUSH4 0x3E47D6F3 EQ PUSH2 0x7BB JUMPI DUP1 PUSH4 0x409ED87E EQ PUSH2 0x7DB JUMPI PUSH1 0x0 DUP1 REVERT JUMPDEST DUP1 PUSH4 0x2FBB9CA6 EQ PUSH2 0x74F JUMPI DUP1 PUSH4 0x383CAE1D EQ PUSH2 0x762 JUMPI DUP1 PUSH4 0x3D6217A6 EQ PUSH2 0x775 JUMPI PUSH1 0x0 DUP1 REVERT JUMPDEST DUP1 PUSH4 0x264C44FF EQ PUSH2 0x67D JUMPI DUP1 PUSH4 0x276B11DA EQ PUSH2 0x69D JUMPI DUP1 PUSH4 0x27927B3E EQ PUSH2 0x6B0 JUMPI DUP1 PUSH4 0x27CD08A9 EQ PUSH2 0x6F1 JUMPI DUP1 PUSH4 0x29161A00 EQ PUSH2 0x704 JUMPI DUP1 PUSH4 0x2B996E68 EQ PUSH2 0x72F JUMPI PUSH1 0x0 DUP1 REVERT JUMPDEST DUP1 PUSH4 0xE53FECB GT PUSH2 0x559 JUMPI DUP1 PUSH4 0xE53FECB EQ PUSH2 0x620 JUMPI DUP1 PUSH4 0x1286DF5B EQ PUSH2 0x628 JUMPI DUP1 PUSH4 0x171E44EA EQ PUSH2 0x63B JUMPI DUP1 PUSH4 0x19D9CAA9 EQ PUSH2 0x64E JUMPI DUP1 PUSH4 0x218334FE EQ PUSH2 0x657 JUMPI DUP1 PUSH4 0x24F45E67 EQ PUSH2 0x66A JUMPI PUSH1 0x0 DUP1 REVERT JUMPDEST DUP1 PUSH4 0x5558885 EQ PUSH2 0x5A1 JUMPI DUP1 PUSH4 0x7C54E08 EQ PUSH2 0x5DF JUMPI DUP1 PUSH4 0x8B7D791 EQ PUSH2 0x5F4 JUMPI DUP1 PUSH4 0x9BC33A7 EQ PUSH2 0x5FD JUMPI DUP1 PUSH4 0xBEA440D EQ PUSH2 0x605 JUMPI DUP1 PUSH4 0xD8E6E2C EQ PUSH2 0x618 JUMPI JUMPDEST PUSH1 0x0 DUP1 REVERT JUMPDEST PUSH2 0x5CC PUSH2 0x5AF CALLDATASIZE PUSH1 0x4 PUSH2 0x4325 JUMP JUMPDEST PUSH1 0x2C PUSH1 0x20 SWAP1 DUP2 MSTORE PUSH1 0x0 SWAP3 DUP4 MSTORE PUSH1 0x40 DUP1 DUP5 KECCAK256 SWAP1 SWAP2 MSTORE SWAP1 DUP3 MSTORE SWAP1 KECCAK256 SLOAD DUP2 JUMP JUMPDEST PUSH1 0x40 MLOAD SWAP1 DUP2 MSTORE PUSH1 0x20 ADD JUMPDEST PUSH1 0x40 MLOAD DUP1 SWAP2 SUB SWAP1 RETURN JUMPDEST PUSH2 0x5F2 PUSH2 0x5ED CALLDATASIZE PUSH1 0x4 PUSH2 0x4351 JUMP JUMPDEST PUSH2 0xEBC JUMP JUMPDEST STOP JUMPDEST PUSH2 0x5CC PUSH1 0x17 SLOAD DUP2 JUMP JUMPDEST PUSH2 0x5CC PUSH2 0xF01 JUMP JUMPDEST PUSH2 0x5F2 PUSH2 0x613 CALLDATASIZE PUSH1 0x4 PUSH2 0x4325 JUMP JUMPDEST PUSH2 0xF3E JUMP JUMPDEST PUSH2 0x5CC PUSH2 0x10F3 JUMP JUMPDEST PUSH2 0x5F2 PUSH2 0x1166 JUMP JUMPDEST PUSH2 0x5F2 PUSH2 0x636 CALLDATASIZE PUSH1 0x4 PUSH2 0x4325 JUMP JUMPDEST PUSH2 0x1289 JUMP JUMPDEST PUSH2 0x5F2 PUSH2 0x649 CALLDATASIZE PUSH1 0x4 PUSH2 0x4373 JUMP JUMPDEST PUSH2 0x1365 JUMP JUMPDEST PUSH2 0x5CC PUSH1 0x13 SLOAD DUP2 JUMP JUMPDEST PUSH2 0x5F2 PUSH2 0x665 CALLDATASIZE PUSH1 0x4 PUSH2 0x4351 JUMP JUMPDEST PUSH2 0x13E1 JUMP JUMPDEST PUSH2 0x5F2 PUSH2 0x678 CALLDATASIZE PUSH1 0x4 PUSH2 0x4395 JUMP JUMPDEST PUSH2 0x15BF JUMP JUMPDEST PUSH2 0x5CC PUSH2 0x68B CALLDATASIZE PUSH1 0x4 PUSH2 0x4395 JUMP JUMPDEST PUSH1 0x24 PUSH1 0x20 MSTORE PUSH1 0x0 SWAP1 DUP2 MSTORE PUSH1 0x40 SWAP1 KECCAK256 SLOAD DUP2 JUMP JUMPDEST PUSH2 0x5CC PUSH2 0x6AB CALLDATASIZE PUSH1 0x4 PUSH2 0x43AE JUMP JUMPDEST PUSH2 0x15EE JUMP JUMPDEST PUSH2 0x6D9 PUSH2 0x6BE CALLDATASIZE PUSH1 0x4 PUSH2 0x4373 JUMP JUMPDEST PUSH1 0x8 PUSH1 0x20 MSTORE PUSH1 0x0 SWAP1 DUP2 MSTORE PUSH1 0x40 SWAP1 KECCAK256 SLOAD PUSH1 0x1 PUSH1 0x1 PUSH1 0xA0 SHL SUB AND DUP2 JUMP JUMPDEST PUSH1 0x40 MLOAD PUSH1 0x1 PUSH1 0x1 PUSH1 0xA0 SHL SUB SWAP1 SWAP2 AND DUP2 MSTORE PUSH1 0x20 ADD PUSH2 0x5D6 JUMP JUMPDEST PUSH2 0x6D9 PUSH2 0x6FF CALLDATASIZE PUSH1 0x4 PUSH2 0x4395 JUMP JUMPDEST PUSH2 0x1675 JUMP JUMPDEST PUSH2 0x5CC PUSH2 0x712 CALLDATASIZE PUSH1 0x4 PUSH2 0x43AE JUMP JUMPDEST PUSH1 0x2 PUSH1 0x20 SWAP1 DUP2 MSTORE PUSH1 0x0 SWAP3 DUP4 MSTORE PUSH1 0x40 DUP1 DUP5 KECCAK256 SWAP1 SWAP2 MSTORE SWAP1 DUP3 MSTORE SWAP1 KECCAK256 SLOAD DUP2 JUMP JUMPDEST PUSH2 0x5CC PUSH2 0x73D CALLDATASIZE PUSH1 0x4 PUSH2 0x4395 JUMP JUMPDEST PUSH1 0x1E PUSH1 0x20 MSTORE PUSH1 0x0 SWAP1 DUP2 MSTORE PUSH1 0x40 SWAP1 KECCAK256 SLOAD DUP2 JUMP JUMPDEST PUSH2 0x5F2 PUSH2 0x75D CALLDATASIZE PUSH1 0x4 PUSH2 0x4325 JUMP JUMPDEST PUSH2 0x169F JUMP JUMPDEST PUSH1 0x1B SLOAD PUSH2 0x6D9 SWAP1 PUSH1 0x1 PUSH1 0x1 PUSH1 0xA0 SHL SUB AND DUP2 JUMP JUMPDEST PUSH2 0x5CC PUSH2 0x783 CALLDATASIZE PUSH1 0x4 PUSH2 0x4373 JUMP JUMPDEST PUSH1 0x23 PUSH1 0x20 MSTORE PUSH1 0x0 SWAP1 DUP2 MSTORE PUSH1 0x40 SWAP1 KECCAK256 SLOAD DUP2 JUMP JUMPDEST PUSH2 0x5CC PUSH2 0x7A3 CALLDATASIZE PUSH1 0x4 PUSH2 0x43AE JUMP JUMPDEST PUSH2 0x16F7 JUMP JUMPDEST PUSH2 0x5F2 PUSH2 0x7B6 CALLDATASIZE PUSH1 0x4 PUSH2 0x4373 JUMP JUMPDEST PUSH2 0x1794 JUMP JUMPDEST PUSH2 0x5CC PUSH2 0x7C9 CALLDATASIZE PUSH1 0x4 PUSH2 0x4373 JUMP JUMPDEST PUSH1 0x18 PUSH1 0x20 MSTORE PUSH1 0x0 SWAP1 DUP2 MSTORE PUSH1 0x40 SWAP1 KECCAK256 SLOAD DUP2 JUMP JUMPDEST PUSH2 0x5F2 PUSH2 0x7E9 CALLDATASIZE PUSH1 0x4 PUSH2 0x4395 JUMP JUMPDEST PUSH2 0x1839 JUMP JUMPDEST PUSH2 0x5F2 PUSH2 0x7FC CALLDATASIZE PUSH1 0x4 PUSH2 0x43E6 JUMP JUMPDEST PUSH2 0x19B2 JUMP JUMPDEST PUSH2 0x5F2 PUSH2 0x80F CALLDATASIZE PUSH1 0x4 PUSH2 0x4395 JUMP JUMPDEST PUSH2 0x19FC JUMP JUMPDEST PUSH2 0x5F2 PUSH2 0x822 CALLDATASIZE PUSH1 0x4 PUSH2 0x4351 JUMP JUMPDEST PUSH2 0x1A2B JUMP JUMPDEST PUSH2 0x5CC PUSH2 0x835 CALLDATASIZE PUSH1 0x4 PUSH2 0x4395 JUMP JUMPDEST PUSH1 0x30 PUSH1 0x20 MSTORE PUSH1 0x0 SWAP1 DUP2 MSTORE PUSH1 0x40 SWAP1 KECCAK256 SLOAD DUP2 JUMP JUMPDEST PUSH2 0x5F2 PUSH2 0x855 CALLDATASIZE PUSH1 0x4 PUSH2 0x4325 JUMP JUMPDEST PUSH2 0x1A67 JUMP JUMPDEST PUSH2 0x6D9 PUSH2 0x868 CALLDATASIZE PUSH1 0x4 PUSH2 0x4395 JUMP JUMPDEST PUSH2 0x1D0E JUMP JUMPDEST PUSH1 0xE SLOAD PUSH2 0x6D9 SWAP1 PUSH1 0x1 PUSH1 0x1 PUSH1 0xA0 SHL SUB AND DUP2 JUMP JUMPDEST PUSH2 0x5CC PUSH2 0x88E CALLDATASIZE PUSH1 0x4 PUSH2 0x4395 JUMP JUMPDEST PUSH1 0x2A PUSH1 0x20 MSTORE PUSH1 0x0 SWAP1 DUP2 MSTORE PUSH1 0x40 SWAP1 KECCAK256 SLOAD DUP2 JUMP JUMPDEST PUSH2 0x5F2 PUSH2 0x1D1E JUMP JUMPDEST PUSH2 0x5F2 PUSH2 0x8B6 CALLDATASIZE PUSH1 0x4 PUSH2 0x4373 JUMP JUMPDEST PUSH2 0x1E18 JUMP JUMPDEST PUSH2 0x5CC PUSH2 0x8C9 CALLDATASIZE PUSH1 0x4 PUSH2 0x43AE JUMP JUMPDEST PUSH2 0x1E94 JUMP JUMPDEST PUSH2 0x5F2 PUSH2 0x8DC CALLDATASIZE PUSH1 0x4 PUSH2 0x4416 JUMP JUMPDEST PUSH2 0x1EEE JUMP JUMPDEST PUSH2 0x5F2 PUSH2 0x8EF CALLDATASIZE PUSH1 0x4 PUSH2 0x4373 JUMP JUMPDEST PUSH2 0x1F90 JUMP JUMPDEST PUSH2 0x6D9 PUSH2 0x902 CALLDATASIZE PUSH1 0x4 PUSH2 0x4395 JUMP JUMPDEST PUSH1 0x31 PUSH1 0x20 MSTORE PUSH1 0x0 SWAP1 DUP2 MSTORE PUSH1 0x40 SWAP1 KECCAK256 SLOAD PUSH1 0x1 PUSH1 0x1 PUSH1 0xA0 SHL SUB AND DUP2 JUMP JUMPDEST PUSH2 0x5CC PUSH2 0x92B CALLDATASIZE PUSH1 0x4 PUSH2 0x4373 JUMP JUMPDEST PUSH1 0x16 PUSH1 0x20 MSTORE PUSH1 0x0 SWAP1 DUP2 MSTORE PUSH1 0x40 SWAP1 KECCAK256 SLOAD DUP2 JUMP JUMPDEST PUSH2 0x5CC PUSH2 0x94B CALLDATASIZE PUSH1 0x4 PUSH2 0x4395 JUMP JUMPDEST PUSH2 0x1FDC JUMP JUMPDEST PUSH2 0x5CC PUSH2 0x95E CALLDATASIZE PUSH1 0x4 PUSH2 0x4373 JUMP JUMPDEST PUSH1 0x12 PUSH1 0x20 MSTORE PUSH1 0x0 SWAP1 DUP2 MSTORE PUSH1 0x40 SWAP1 KECCAK256 SLOAD DUP2 JUMP JUMPDEST PUSH2 0x993 PUSH2 0x97E CALLDATASIZE PUSH1 0x4 PUSH2 0x4395 JUMP JUMPDEST PUSH1 0x27 PUSH1 0x20 MSTORE PUSH1 0x0 SWAP1 DUP2 MSTORE PUSH1 0x40 SWAP1 KECCAK256 SLOAD PUSH1 0xFF AND DUP2 JUMP JUMPDEST PUSH1 0x40 MLOAD SWAP1 ISZERO ISZERO DUP2 MSTORE PUSH1 0x20 ADD PUSH2 0x5D6 JUMP JUMPDEST PUSH2 0x5F2 PUSH2 0x2010 JUMP JUMPDEST PUSH2 0x5F2 PUSH2 0x9B9 CALLDATASIZE PUSH1 0x4 PUSH2 0x4325 JUMP JUMPDEST PUSH2 0x2046 JUMP JUMPDEST PUSH2 0x5CC PUSH2 0x9CC CALLDATASIZE PUSH1 0x4 PUSH2 0x43AE JUMP JUMPDEST PUSH2 0x2100 JUMP JUMPDEST PUSH2 0x5CC PUSH2 0x9DF CALLDATASIZE PUSH1 0x4 PUSH2 0x43AE JUMP JUMPDEST PUSH2 0x2130 JUMP JUMPDEST PUSH2 0x5CC PUSH2 0x9F2 CALLDATASIZE PUSH1 0x4 PUSH2 0x4440 JUMP JUMPDEST PUSH2 0x2A8B JUMP JUMPDEST PUSH2 0x5F2 PUSH2 0xA05 CALLDATASIZE PUSH1 0x4 PUSH2 0x4373 JUMP JUMPDEST PUSH2 0x2AD4 JUMP JUMPDEST PUSH2 0x5F2 PUSH2 0xA18 CALLDATASIZE PUSH1 0x4 PUSH2 0x4325 JUMP JUMPDEST PUSH2 0x2C1C JUMP JUMPDEST PUSH2 0x993 PUSH2 0xA2B CALLDATASIZE PUSH1 0x4 PUSH2 0x4373 JUMP JUMPDEST PUSH1 0x22 PUSH1 0x20 MSTORE PUSH1 0x0 SWAP1 DUP2 MSTORE PUSH1 0x40 SWAP1 KECCAK256 SLOAD PUSH1 0xFF AND DUP2 JUMP JUMPDEST PUSH2 0x5F2 PUSH2 0xA4E CALLDATASIZE PUSH1 0x4 PUSH2 0x43AE JUMP JUMPDEST PUSH2 0x2F92 JUMP JUMPDEST PUSH2 0x5F2 PUSH2 0xA61 CALLDATASIZE PUSH1 0x4 PUSH2 0x4395 JUMP JUMPDEST PUSH2 0x2FEA JUMP JUMPDEST PUSH2 0x5CC PUSH2 0xA74 CALLDATASIZE PUSH1 0x4 PUSH2 0x4395 JUMP JUMPDEST PUSH1 0x21 PUSH1 0x20 MSTORE PUSH1 0x0 SWAP1 DUP2 MSTORE PUSH1 0x40 SWAP1 KECCAK256 SLOAD DUP2 JUMP JUMPDEST PUSH2 0x5CC PUSH2 0xA94 CALLDATASIZE PUSH1 0x4 PUSH2 0x4373 JUMP JUMPDEST PUSH1 0x14 PUSH1 0x20 MSTORE PUSH1 0x0 SWAP1 DUP2 MSTORE PUSH1 0x40 SWAP1 KECCAK256 SLOAD DUP2 JUMP JUMPDEST PUSH1 0x0 SLOAD PUSH1 0x1 PUSH1 0x1 PUSH1 0xA0 SHL SUB AND PUSH2 0x6D9 JUMP JUMPDEST PUSH2 0x5CC PUSH2 0xAC5 CALLDATASIZE PUSH1 0x4 PUSH2 0x4325 JUMP JUMPDEST PUSH1 0x28 PUSH1 0x20 SWAP1 DUP2 MSTORE PUSH1 0x0 SWAP3 DUP4 MSTORE PUSH1 0x40 DUP1 DUP5 KECCAK256 SWAP1 SWAP2 MSTORE SWAP1 DUP3 MSTORE SWAP1 KECCAK256 SLOAD DUP2 JUMP JUMPDEST PUSH2 0x5F2 PUSH2 0xAF0 CALLDATASIZE PUSH1 0x4 PUSH2 0x4373 JUMP JUMPDEST PUSH2 0x3019 JUMP JUMPDEST PUSH2 0x5CC PUSH2 0x30C9 JUMP JUMPDEST PUSH2 0x5F2 PUSH2 0xB0B CALLDATASIZE PUSH1 0x4 PUSH2 0x43E6 JUMP JUMPDEST PUSH2 0x3160 JUMP JUMPDEST PUSH2 0x5CC PUSH2 0xB1E CALLDATASIZE PUSH1 0x4 PUSH2 0x43AE JUMP JUMPDEST PUSH1 0x10 PUSH1 0x20 SWAP1 DUP2 MSTORE PUSH1 0x0 SWAP3 DUP4 MSTORE PUSH1 0x40 DUP1 DUP5 KECCAK256 SWAP1 SWAP2 MSTORE SWAP1 DUP3 MSTORE SWAP1 KECCAK256 SLOAD DUP2 JUMP JUMPDEST PUSH2 0x5CC PUSH1 0x6 SLOAD DUP2 JUMP JUMPDEST PUSH2 0x5F2 PUSH2 0xB52 CALLDATASIZE PUSH1 0x4 PUSH2 0x4395 JUMP JUMPDEST PUSH2 0x31AA JUMP JUMPDEST PUSH2 0x5CC PUSH2 0xB65 CALLDATASIZE PUSH1 0x4 PUSH2 0x4373 JUMP JUMPDEST PUSH2 0x3213 JUMP JUMPDEST PUSH2 0x5CC PUSH1 0xB SLOAD DUP2 JUMP JUMPDEST PUSH2 0x993 PUSH2 0xB81 CALLDATASIZE PUSH1 0x4 PUSH2 0x4395 JUMP JUMPDEST PUSH1 0x26 PUSH1 0x20 MSTORE PUSH1 0x0 SWAP1 DUP2 MSTORE PUSH1 0x40 SWAP1 KECCAK256 SLOAD PUSH1 0xFF AND DUP2 JUMP JUMPDEST PUSH2 0x993 PUSH2 0xBA4 CALLDATASIZE PUSH1 0x4 PUSH2 0x4373 JUMP JUMPDEST PUSH2 0x32D1 JUMP JUMPDEST PUSH2 0x993 PUSH2 0xBB7 CALLDATASIZE PUSH1 0x4 PUSH2 0x4395 JUMP JUMPDEST PUSH1 0x1F PUSH1 0x20 MSTORE PUSH1 0x0 SWAP1 DUP2 MSTORE PUSH1 0x40 SWAP1 KECCAK256 SLOAD PUSH1 0xFF AND DUP2 JUMP JUMPDEST PUSH2 0x5CC PUSH2 0xBDA CALLDATASIZE PUSH1 0x4 PUSH2 0x4373 JUMP JUMPDEST PUSH1 0x1C PUSH1 0x20 MSTORE PUSH1 0x0 SWAP1 DUP2 MSTORE PUSH1 0x40 SWAP1 KECCAK256 SLOAD DUP2 JUMP JUMPDEST PUSH2 0x5F2 PUSH2 0xBFA CALLDATASIZE PUSH1 0x4 PUSH2 0x43E6 JUMP JUMPDEST PUSH2 0x333B JUMP JUMPDEST PUSH2 0x5CC PUSH2 0xC0D CALLDATASIZE PUSH1 0x4 PUSH2 0x4373 JUMP JUMPDEST PUSH1 0x7 PUSH1 0x20 MSTORE PUSH1 0x0 SWAP1 DUP2 MSTORE PUSH1 0x40 SWAP1 KECCAK256 SLOAD DUP2 JUMP JUMPDEST PUSH2 0x5F2 PUSH2 0xC2D CALLDATASIZE PUSH1 0x4 PUSH2 0x4351 JUMP JUMPDEST PUSH2 0x3385 JUMP JUMPDEST PUSH2 0x5CC PUSH1 0x1D SLOAD DUP2 JUMP JUMPDEST PUSH2 0x5F2 PUSH2 0xC49 CALLDATASIZE PUSH1 0x4 PUSH2 0x4351 JUMP JUMPDEST PUSH2 0x33C1 JUMP JUMPDEST PUSH2 0x5F2 PUSH2 0xC5C CALLDATASIZE PUSH1 0x4 PUSH2 0x4373 JUMP JUMPDEST PUSH2 0x33FD JUMP JUMPDEST PUSH2 0x5CC PUSH1 0xA SLOAD DUP2 JUMP JUMPDEST PUSH2 0x5F2 PUSH2 0xC78 CALLDATASIZE PUSH1 0x4 PUSH2 0x4351 JUMP JUMPDEST PUSH2 0x370D JUMP JUMPDEST PUSH2 0x5F2 PUSH2 0xC8B CALLDATASIZE PUSH1 0x4 PUSH2 0x4416 JUMP JUMPDEST PUSH2 0x3767 JUMP JUMPDEST PUSH2 0x5CC PUSH2 0xC9E CALLDATASIZE PUSH1 0x4 PUSH2 0x4325 JUMP JUMPDEST PUSH1 0x2F PUSH1 0x20 SWAP1 DUP2 MSTORE PUSH1 0x0 SWAP3 DUP4 MSTORE PUSH1 0x40 DUP1 DUP5 KECCAK256 SWAP1 SWAP2 MSTORE SWAP1 DUP3 MSTORE SWAP1 KECCAK256 SLOAD DUP2 JUMP JUMPDEST PUSH2 0x5F2 PUSH2 0xCC9 CALLDATASIZE PUSH1 0x4 PUSH2 0x447C JUMP JUMPDEST PUSH2 0x37BF JUMP JUMPDEST PUSH2 0x5CC PUSH2 0xCDC CALLDATASIZE PUSH1 0x4 PUSH2 0x4325 JUMP JUMPDEST PUSH1 0x2B PUSH1 0x20 SWAP1 DUP2 MSTORE PUSH1 0x0 SWAP3 DUP4 MSTORE PUSH1 0x40 DUP1 DUP5 KECCAK256 SWAP1 SWAP2 MSTORE SWAP1 DUP3 MSTORE SWAP1 KECCAK256 SLOAD DUP2 JUMP JUMPDEST PUSH2 0x6D9 PUSH2 0xD07 CALLDATASIZE PUSH1 0x4 PUSH2 0x4395 JUMP JUMPDEST PUSH2 0x3ACC JUMP JUMPDEST PUSH2 0x993 PUSH2 0xD1A CALLDATASIZE PUSH1 0x4 PUSH2 0x4373 JUMP JUMPDEST PUSH2 0x3ADC JUMP JUMPDEST PUSH2 0x5CC PUSH2 0xD2D CALLDATASIZE PUSH1 0x4 PUSH2 0x4373 JUMP JUMPDEST PUSH1 0x5 PUSH1 0x20 MSTORE PUSH1 0x0 SWAP1 DUP2 MSTORE PUSH1 0x40 SWAP1 KECCAK256 SLOAD DUP2 JUMP JUMPDEST PUSH2 0x5CC PUSH2 0xD4D CALLDATASIZE PUSH1 0x4 PUSH2 0x4325 JUMP JUMPDEST PUSH1 0x2E PUSH1 0x20 SWAP1 DUP2 MSTORE PUSH1 0x0 SWAP3 DUP4 MSTORE PUSH1 0x40 DUP1 DUP5 KECCAK256 SWAP1 SWAP2 MSTORE SWAP1 DUP3 MSTORE SWAP1 KECCAK256 SLOAD DUP2 JUMP JUMPDEST PUSH2 0x5CC PUSH2 0xD78 CALLDATASIZE PUSH1 0x4 PUSH2 0x4373 JUMP JUMPDEST PUSH2 0x3B3D JUMP JUMPDEST PUSH2 0x5CC PUSH2 0xD8B CALLDATASIZE PUSH1 0x4 PUSH2 0x4440 JUMP JUMPDEST PUSH2 0x3BDD JUMP JUMPDEST PUSH2 0x5CC PUSH2 0xD9E CALLDATASIZE PUSH1 0x4 PUSH2 0x4373 JUMP JUMPDEST PUSH1 0x29 PUSH1 0x20 MSTORE PUSH1 0x0 SWAP1 DUP2 MSTORE PUSH1 0x40 SWAP1 KECCAK256 SLOAD DUP2 JUMP JUMPDEST PUSH2 0x5CC PUSH1 0x1 SLOAD DUP2 JUMP JUMPDEST PUSH2 0x6D9 PUSH2 0xDC7 CALLDATASIZE PUSH1 0x4 PUSH2 0x4395 JUMP JUMPDEST PUSH2 0x3CD1 JUMP JUMPDEST PUSH2 0xDDF PUSH2 0xDDA CALLDATASIZE PUSH1 0x4 PUSH2 0x4373 JUMP JUMPDEST PUSH2 0x3CE1 JUMP JUMPDEST PUSH1 0x40 DUP1 MLOAD SWAP3 DUP4 MSTORE PUSH1 0x20 DUP4 ADD SWAP2 SWAP1 SWAP2 MSTORE ADD PUSH2 0x5D6 JUMP JUMPDEST PUSH2 0x5F2 PUSH2 0xE02 CALLDATASIZE PUSH1 0x4 PUSH2 0x4395 JUMP JUMPDEST PUSH2 0x3DE2 JUMP JUMPDEST PUSH2 0x5F2 PUSH2 0xE15 CALLDATASIZE PUSH1 0x4 PUSH2 0x4373 JUMP JUMPDEST PUSH2 0x3F6A JUMP JUMPDEST PUSH2 0x5CC PUSH2 0xE28 CALLDATASIZE PUSH1 0x4 PUSH2 0x4440 JUMP JUMPDEST PUSH2 0x4002 JUMP JUMPDEST PUSH2 0x5F2 PUSH2 0xE3B CALLDATASIZE PUSH1 0x4 PUSH2 0x43E6 JUMP JUMPDEST PUSH2 0x407E JUMP JUMPDEST PUSH1 0xF SLOAD PUSH2 0x6D9 SWAP1 PUSH1 0x1 PUSH1 0x1 PUSH1 0xA0 SHL SUB AND DUP2 JUMP JUMPDEST PUSH2 0x993 PUSH2 0xE61 CALLDATASIZE PUSH1 0x4 PUSH2 0x4395 JUMP JUMPDEST PUSH1 0x25 PUSH1 0x20 MSTORE PUSH1 0x0 SWAP1 DUP2 MSTORE PUSH1 0x40 SWAP1 KECCAK256 SLOAD PUSH1 0xFF AND DUP2 JUMP JUMPDEST PUSH2 0x6D9 PUSH2 0xE84 CALLDATASIZE PUSH1 0x4 PUSH2 0x4395 JUMP JUMPDEST PUSH2 0x40C8 JUMP JUMPDEST PUSH2 0x6D9 PUSH2 0xE97 CALLDATASIZE PUSH1 0x4 PUSH2 0x4351 JUMP JUMPDEST PUSH2 0x40D8 JUMP JUMPDEST PUSH2 0x5CC PUSH2 0xEAA CALLDATASIZE PUSH1 0x4 PUSH2 0x4373 JUMP JUMPDEST PUSH1 0x11 PUSH1 0x20 MSTORE PUSH1 0x0 SWAP1 DUP2 MSTORE PUSH1 0x40 SWAP1 KECCAK256 SLOAD DUP2 JUMP JUMPDEST PUSH1 0x0 SLOAD PUSH1 0x1 PUSH1 0x1 PUSH1 0xA0 SHL SUB AND CALLER EQ PUSH2 0xEEF JUMPI PUSH1 0x40 MLOAD PUSH3 0x461BCD PUSH1 0xE5 SHL DUP2 MSTORE PUSH1 0x4 ADD PUSH2 0xEE6 SWAP1 PUSH2 0x44C0 JUMP JUMPDEST PUSH1 0x40 MLOAD DUP1 SWAP2 SUB SWAP1 REVERT JUMPDEST PUSH1 0x0 SWAP2 DUP3 MSTORE PUSH1 0x1E PUSH1 0x20 MSTORE PUSH1 0x40 SWAP1 SWAP2 KECCAK256 SSTORE JUMP JUMPDEST PUSH1 0x0 PUSH9 0x2B5E3AF16B1880000 DUP2 PUSH2 0xF16 PUSH2 0x30C9 JUMP JUMPDEST SWAP1 POP PUSH8 0xDE0B6B3A7640000 DUP2 PUSH2 0xF2C DUP3 DUP6 PUSH2 0x450B JUMP JUMPDEST PUSH2 0xF36 SWAP2 SWAP1 PUSH2 0x452A JUMP JUMPDEST SWAP4 POP POP POP POP SWAP1 JUMP JUMPDEST PUSH1 0x0 DUP3 GT PUSH2 0xF5E JUMPI PUSH1 0x40 MLOAD PUSH3 0x461BCD PUSH1 0xE5 SHL DUP2 MSTORE PUSH1 0x4 ADD PUSH2 0xEE6 SWAP1 PUSH2 0x454C JUMP JUMPDEST PUSH2 0xF67 DUP2 PUSH2 0x3ADC JUMP JUMPDEST PUSH2 0xF83 JUMPI PUSH1 0x40 MLOAD PUSH3 0x461BCD PUSH1 0xE5 SHL DUP2 MSTORE PUSH1 0x4 ADD PUSH2 0xEE6 SWAP1 PUSH2 0x4583 JUMP JUMPDEST PUSH1 0x40 MLOAD PUSH4 0x23B872DD PUSH1 0xE0 SHL DUP2 MSTORE PUSH1 0x1 PUSH1 0x1 PUSH1 0xA0 SHL SUB DUP3 AND SWAP1 PUSH4 0x23B872DD SWAP1 PUSH2 0xFB3 SWAP1 CALLER SWAP1 ADDRESS SWAP1 DUP8 SWAP1 PUSH1 0x4 ADD PUSH2 0x45BA JUMP JUMPDEST PUSH1 0x20 PUSH1 0x40 MLOAD DUP1 DUP4 SUB DUP2 PUSH1 0x0 DUP8 GAS CALL ISZERO DUP1 ISZERO PUSH2 0xFD2 JUMPI RETURNDATASIZE PUSH1 0x0 DUP1 RETURNDATACOPY RETURNDATASIZE PUSH1 0x0 REVERT JUMPDEST POP POP POP POP PUSH1 0x40 MLOAD RETURNDATASIZE PUSH1 0x1F NOT PUSH1 0x1F DUP3 ADD AND DUP3 ADD DUP1 PUSH1 0x40 MSTORE POP DUP2 ADD SWAP1 PUSH2 0xFF6 SWAP2 SWAP1 PUSH2 0x45DE JUMP JUMPDEST POP PUSH2 0x1001 CALLER DUP3 PUSH2 0x4110 JUMP JUMPDEST PUSH2 0x100B CALLER DUP3 PUSH2 0x417B JUMP JUMPDEST DUP2 PUSH1 0xB SLOAD PUSH2 0x1019 SWAP2 SWAP1 PUSH2 0x45FB JUMP JUMPDEST PUSH1 0xB SSTORE PUSH2 0x1026 CALLER DUP3 PUSH2 0x2100 JUMP JUMPDEST CALLER PUSH1 0x0 DUP2 DUP2 MSTORE PUSH1 0x4 PUSH1 0x20 SWAP1 DUP2 MSTORE PUSH1 0x40 DUP1 DUP4 KECCAK256 SWAP5 SWAP1 SWAP5 SSTORE PUSH1 0x3 DUP2 MSTORE DUP4 DUP3 KECCAK256 TIMESTAMP SWAP1 DUP2 SWAP1 SSTORE PUSH1 0x5 DUP3 MSTORE DUP5 DUP4 KECCAK256 SSTORE PUSH1 0x1 PUSH1 0x1 PUSH1 0xA0 SHL SUB DUP6 AND DUP3 MSTORE PUSH1 0x2 DUP2 MSTORE DUP4 DUP3 KECCAK256 SWAP3 DUP3 MSTORE SWAP2 SWAP1 SWAP2 MSTORE KECCAK256 SLOAD PUSH2 0x1077 SWAP1 DUP4 SWAP1 PUSH2 0x45FB JUMP JUMPDEST PUSH1 0x1 PUSH1 0x1 PUSH1 0xA0 SHL SUB DUP3 AND PUSH1 0x0 SWAP1 DUP2 MSTORE PUSH1 0x2 PUSH1 0x20 SWAP1 DUP2 MSTORE PUSH1 0x40 DUP1 DUP4 KECCAK256 CALLER DUP5 MSTORE DUP3 MSTORE DUP1 DUP4 KECCAK256 SWAP4 SWAP1 SWAP4 SSTORE PUSH1 0x7 SWAP1 MSTORE KECCAK256 SLOAD PUSH1 0x1 EQ ISZERO PUSH2 0x10EF JUMPI PUSH1 0xC DUP1 SLOAD PUSH1 0x1 DUP2 ADD DUP3 SSTORE PUSH1 0x0 SWAP2 SWAP1 SWAP2 MSTORE PUSH32 0xDF6966C971051C3D54EC59162606531493A51404A002842F56009D7E5CF4A8C7 ADD DUP1 SLOAD PUSH1 0x1 PUSH1 0x1 PUSH1 0xA0 SHL SUB NOT AND CALLER OR SWAP1 SSTORE JUMPDEST POP POP JUMP JUMPDEST PUSH1 0x1B SLOAD PUSH1 0x40 DUP1 MLOAD PUSH4 0x54FD4D5 PUSH1 0xE4 SHL DUP2 MSTORE SWAP1 MLOAD PUSH1 0x0 SWAP3 PUSH1 0x1 PUSH1 0x1 PUSH1 0xA0 SHL SUB AND SWAP2 PUSH4 0x54FD4D50 SWAP2 PUSH1 0x4 DUP1 DUP4 ADD SWAP3 PUSH1 0x20 SWAP3 SWAP2 SWAP1 DUP3 SWAP1 SUB ADD DUP2 DUP7 GAS STATICCALL ISZERO DUP1 ISZERO PUSH2 0x113D JUMPI RETURNDATASIZE PUSH1 0x0 DUP1 RETURNDATACOPY RETURNDATASIZE PUSH1 0x0 REVERT JUMPDEST POP POP POP POP PUSH1 0x40 MLOAD RETURNDATASIZE PUSH1 0x1F NOT PUSH1 0x1F DUP3 ADD AND DUP3 ADD DUP1 PUSH1 0x40 MSTORE POP DUP2 ADD SWAP1 PUSH2 0x1161 SWAP2 SWAP1 PUSH2 0x4613 JUMP JUMPDEST SWAP1 POP SWAP1 JUMP JUMPDEST CALLER PUSH1 0x0 SWAP1 DUP2 MSTORE PUSH1 0x14 PUSH1 0x20 SWAP1 DUP2 MSTORE PUSH1 0x40 DUP1 DUP4 KECCAK256 SLOAD PUSH1 0x16 SWAP1 SWAP3 MSTORE DUP3 KECCAK256 SLOAD SWAP1 SWAP2 PUSH2 0x118D DUP3 DUP5 PUSH2 0x462C JUMP JUMPDEST SWAP1 POP PUSH1 0x0 PUSH1 0x64 DUP5 PUSH1 0x17 SLOAD PUSH2 0x11A1 SWAP2 SWAP1 PUSH2 0x450B JUMP JUMPDEST PUSH2 0x11AB SWAP2 SWAP1 PUSH2 0x452A JUMP JUMPDEST SWAP1 POP PUSH1 0x0 PUSH2 0x11B9 DUP5 DUP4 PUSH2 0x462C JUMP JUMPDEST SWAP1 POP PUSH1 0x0 DUP6 GT PUSH2 0x11C8 JUMPI PUSH1 0x0 DUP1 REVERT JUMPDEST PUSH1 0x0 DUP2 GT PUSH2 0x11D5 JUMPI PUSH1 0x0 DUP1 REVERT JUMPDEST DUP5 DUP5 LT PUSH2 0x11E1 JUMPI PUSH1 0x0 DUP1 REVERT JUMPDEST PUSH1 0xF SLOAD PUSH1 0x40 MLOAD PUSH4 0xA9059CBB PUSH1 0xE0 SHL DUP2 MSTORE PUSH1 0x1 PUSH1 0x1 PUSH1 0xA0 SHL SUB SWAP1 SWAP2 AND SWAP1 PUSH4 0xA9059CBB SWAP1 PUSH2 0x1213 SWAP1 CALLER SWAP1 DUP6 SWAP1 PUSH1 0x4 ADD PUSH2 0x4643 JUMP JUMPDEST PUSH1 0x20 PUSH1 0x40 MLOAD DUP1 DUP4 SUB DUP2 PUSH1 0x0 DUP8 GAS CALL ISZERO DUP1 ISZERO PUSH2 0x1232 JUMPI RETURNDATASIZE PUSH1 0x0 DUP1 RETURNDATACOPY RETURNDATASIZE PUSH1 0x0 REVERT JUMPDEST POP POP POP POP PUSH1 0x40 MLOAD RETURNDATASIZE PUSH1 0x1F NOT PUSH1 0x1F DUP3 ADD AND DUP3 ADD DUP1 PUSH1 0x40 MSTORE POP DUP2 ADD SWAP1 PUSH2 0x1256 SWAP2 SWAP1 PUSH2 0x45DE JUMP JUMPDEST POP CALLER PUSH1 0x0 SWAP1 DUP2 MSTORE PUSH1 0x16 PUSH1 0x20 MSTORE PUSH1 0x40 SWAP1 KECCAK256 SLOAD PUSH2 0x1272 SWAP1 DUP3 SWAP1 PUSH2 0x45FB JUMP JUMPDEST CALLER PUSH1 0x0 SWAP1 DUP2 MSTORE PUSH1 0x16 PUSH1 0x20 MSTORE PUSH1 0x40 SWAP1 KECCAK256 SSTORE POP POP POP POP POP JUMP JUMPDEST PUSH1 0x0 SLOAD PUSH1 0x1 PUSH1 0x1 PUSH1 0xA0 SHL SUB AND CALLER EQ PUSH2 0x12B3 JUMPI PUSH1 0x40 MLOAD PUSH3 0x461BCD PUSH1 0xE5 SHL DUP2 MSTORE PUSH1 0x4 ADD PUSH2 0xEE6 SWAP1 PUSH2 0x44C0 JUMP JUMPDEST PUSH1 0x0 DUP3 DUP2 MSTORE PUSH1 0x2B PUSH1 0x20 SWAP1 DUP2 MSTORE PUSH1 0x40 DUP1 DUP4 KECCAK256 PUSH1 0x1 PUSH1 0x1 PUSH1 0xA0 SHL SUB DUP6 AND DUP1 DUP6 MSTORE SWAP3 MSTORE SWAP2 DUP3 SWAP1 KECCAK256 SLOAD SWAP2 MLOAD PUSH4 0xA9059CBB PUSH1 0xE0 SHL DUP2 MSTORE PUSH4 0xA9059CBB SWAP1 PUSH2 0x12FA SWAP1 CALLER SWAP1 DUP6 SWAP1 PUSH1 0x4 ADD PUSH2 0x4643 JUMP JUMPDEST PUSH1 0x20 PUSH1 0x40 MLOAD DUP1 DUP4 SUB DUP2 PUSH1 0x0 DUP8 GAS CALL ISZERO DUP1 ISZERO PUSH2 0x1319 JUMPI RETURNDATASIZE PUSH1 0x0 DUP1 RETURNDATACOPY RETURNDATASIZE PUSH1 0x0 REVERT JUMPDEST POP POP POP POP PUSH1 0x40 MLOAD RETURNDATASIZE PUSH1 0x1F NOT PUSH1 0x1F DUP3 ADD AND DUP3 ADD DUP1 PUSH1 0x40 MSTORE POP DUP2 ADD SWAP1 PUSH2 0x133D SWAP2 SWAP1 PUSH2 0x45DE JUMP JUMPDEST POP POP PUSH1 0x0 SWAP2 DUP3 MSTORE PUSH1 0x2B PUSH1 0x20 SWAP1 DUP2 MSTORE PUSH1 0x40 DUP1 DUP5 KECCAK256 PUSH1 0x1 PUSH1 0x1 PUSH1 0xA0 SHL SUB SWAP1 SWAP4 AND DUP5 MSTORE SWAP2 SWAP1 MSTORE DUP2 KECCAK256 SSTORE JUMP JUMPDEST PUSH1 0x0 SLOAD PUSH1 0x1 PUSH1 0x1 PUSH1 0xA0 SHL SUB AND CALLER EQ PUSH2 0x138F JUMPI PUSH1 0x40 MLOAD PUSH3 0x461BCD PUSH1 0xE5 SHL DUP2 MSTORE PUSH1 0x4 ADD PUSH2 0xEE6 SWAP1 PUSH2 0x44C0 JUMP JUMPDEST PUSH1 0xD DUP1 SLOAD PUSH1 0x1 DUP2 ADD DUP3 SSTORE PUSH1 0x0 SWAP2 SWAP1 SWAP2 MSTORE PUSH32 0xD7B6990105719101DABEB77144F2A3385C8033ACD3AF97E9423A695E81AD1EB5 ADD DUP1 SLOAD PUSH1 0x1 PUSH1 0x1 PUSH1 0xA0 SHL SUB NOT AND PUSH1 0x1 PUSH1 0x1 PUSH1 0xA0 SHL SUB SWAP3 SWAP1 SWAP3 AND SWAP2 SWAP1 SWAP2 OR SWAP1 SSTORE JUMP JUMPDEST PUSH1 0x0 DUP3 DUP2 MSTORE PUSH1 0x27 PUSH1 0x20 MSTORE PUSH1 0x40 SWAP1 KECCAK256 SLOAD PUSH1 0xFF AND ISZERO ISZERO PUSH1 0x1 EQ PUSH2 0x1401 JUMPI PUSH1 0x0 DUP1 REVERT JUMPDEST PUSH1 0x0 DUP3 DUP2 MSTORE PUSH1 0x2E PUSH1 0x20 SWAP1 DUP2 MSTORE PUSH1 0x40 DUP1 DUP4 KECCAK256 CALLER DUP1 DUP6 MSTORE SWAP1 DUP4 MSTORE DUP2 DUP5 KECCAK256 SLOAD DUP7 DUP6 MSTORE PUSH1 0x2F DUP5 MSTORE DUP3 DUP6 KECCAK256 SWAP2 DUP6 MSTORE SWAP3 MSTORE DUP3 KECCAK256 SLOAD SWAP1 SWAP2 PUSH2 0x143B DUP3 DUP5 PUSH2 0x462C JUMP JUMPDEST PUSH1 0x0 DUP7 DUP2 MSTORE PUSH1 0x30 PUSH1 0x20 MSTORE PUSH1 0x40 DUP2 KECCAK256 SLOAD SWAP2 SWAP3 POP SWAP1 PUSH1 0x64 SWAP1 PUSH2 0x145C SWAP1 DUP7 SWAP1 PUSH2 0x450B JUMP JUMPDEST PUSH2 0x1466 SWAP2 SWAP1 PUSH2 0x452A JUMP JUMPDEST SWAP1 POP PUSH1 0x0 PUSH2 0x1474 DUP5 DUP4 PUSH2 0x462C JUMP JUMPDEST SWAP1 POP PUSH1 0x0 DUP2 GT PUSH2 0x1483 JUMPI PUSH1 0x0 DUP1 REVERT JUMPDEST DUP1 DUP7 GT ISZERO PUSH2 0x1490 JUMPI PUSH1 0x0 DUP1 REVERT JUMPDEST DUP5 DUP5 LT PUSH2 0x149C JUMPI PUSH1 0x0 DUP1 REVERT JUMPDEST PUSH1 0x0 DUP7 GT PUSH2 0x14BC JUMPI PUSH1 0x40 MLOAD PUSH3 0x461BCD PUSH1 0xE5 SHL DUP2 MSTORE PUSH1 0x4 ADD PUSH2 0xEE6 SWAP1 PUSH2 0x454C JUMP JUMPDEST DUP6 DUP4 LT ISZERO PUSH2 0x14DC JUMPI PUSH1 0x40 MLOAD PUSH3 0x461BCD PUSH1 0xE5 SHL DUP2 MSTORE PUSH1 0x4 ADD PUSH2 0xEE6 SWAP1 PUSH2 0x465C JUMP JUMPDEST DUP5 PUSH2 0x14E7 DUP8 DUP7 PUSH2 0x45FB JUMP JUMPDEST LT PUSH2 0x14F1 JUMPI PUSH1 0x0 DUP1 REVERT JUMPDEST PUSH1 0x0 DUP8 DUP2 MSTORE PUSH1 0x31 PUSH1 0x20 MSTORE PUSH1 0x40 SWAP1 DUP2 SWAP1 KECCAK256 SLOAD SWAP1 MLOAD PUSH4 0xA9059CBB PUSH1 0xE0 SHL DUP2 MSTORE PUSH1 0x1 PUSH1 0x1 PUSH1 0xA0 SHL SUB SWAP1 SWAP2 AND SWAP1 PUSH4 0xA9059CBB SWAP1 PUSH2 0x1530 SWAP1 CALLER SWAP1 DUP11 SWAP1 PUSH1 0x4 ADD PUSH2 0x4643 JUMP JUMPDEST PUSH1 0x20 PUSH1 0x40 MLOAD DUP1 DUP4 SUB DUP2 PUSH1 0x0 DUP8 GAS CALL ISZERO DUP1 ISZERO PUSH2 0x154F JUMPI RETURNDATASIZE PUSH1 0x0 DUP1 RETURNDATACOPY RETURNDATASIZE PUSH1 0x0 REVERT JUMPDEST POP POP POP POP PUSH1 0x40 MLOAD RETURNDATASIZE PUSH1 0x1F NOT PUSH1 0x1F DUP3 ADD AND DUP3 ADD DUP1 PUSH1 0x40 MSTORE POP DUP2 ADD SWAP1 PUSH2 0x1573 SWAP2 SWAP1 PUSH2 0x45DE JUMP JUMPDEST POP PUSH1 0x0 DUP8 DUP2 MSTORE PUSH1 0x2F PUSH1 0x20 SWAP1 DUP2 MSTORE PUSH1 0x40 DUP1 DUP4 KECCAK256 CALLER DUP5 MSTORE SWAP1 SWAP2 MSTORE SWAP1 KECCAK256 SLOAD PUSH2 0x1599 SWAP1 DUP8 SWAP1 PUSH2 0x45FB JUMP JUMPDEST PUSH1 0x0 SWAP8 DUP9 MSTORE PUSH1 0x2F PUSH1 0x20 SWAP1 DUP2 MSTORE PUSH1 0x40 DUP1 DUP11 KECCAK256 CALLER DUP12 MSTORE SWAP1 SWAP2 MSTORE SWAP1 SWAP8 KECCAK256 SWAP7 SWAP1 SWAP7 SSTORE POP POP POP POP POP POP JUMP JUMPDEST PUSH1 0x0 SLOAD PUSH1 0x1 PUSH1 0x1 PUSH1 0xA0 SHL SUB AND CALLER EQ PUSH2 0x15E9 JUMPI PUSH1 0x40 MLOAD PUSH3 0x461BCD PUSH1 0xE5 SHL DUP2 MSTORE PUSH1 0x4 ADD PUSH2 0xEE6 SWAP1 PUSH2 0x44C0 JUMP JUMPDEST PUSH1 0x1 SSTORE JUMP JUMPDEST PUSH1 0x1 PUSH1 0x1 PUSH1 0xA0 SHL SUB DUP3 AND PUSH1 0x0 SWAP1 DUP2 MSTORE PUSH1 0x7 PUSH1 0x20 MSTORE PUSH1 0x40 DUP2 KECCAK256 SLOAD PUSH2 0x1613 JUMPI POP PUSH1 0x0 PUSH2 0x166F JUMP JUMPDEST PUSH1 0x0 DUP1 PUSH2 0x161F DUP5 PUSH2 0x3CE1 JUMP JUMPDEST SWAP1 SWAP3 POP SWAP1 POP PUSH2 0x162F DUP2 PUSH1 0xA PUSH2 0x478C JUMP JUMPDEST PUSH1 0x1 PUSH1 0x1 PUSH1 0xA0 SHL SUB DUP1 DUP7 AND PUSH1 0x0 SWAP1 DUP2 MSTORE PUSH1 0x2 PUSH1 0x20 SWAP1 DUP2 MSTORE PUSH1 0x40 DUP1 DUP4 KECCAK256 SWAP4 DUP11 AND DUP4 MSTORE SWAP3 SWAP1 MSTORE KECCAK256 SLOAD PUSH2 0x1660 SWAP1 DUP5 SWAP1 PUSH2 0x450B JUMP JUMPDEST PUSH2 0x166A SWAP2 SWAP1 PUSH2 0x452A JUMP JUMPDEST SWAP3 POP POP POP JUMPDEST SWAP3 SWAP2 POP POP JUMP JUMPDEST PUSH1 0x1A DUP2 DUP2 SLOAD DUP2 LT PUSH2 0x1685 JUMPI PUSH1 0x0 DUP1 REVERT JUMPDEST PUSH1 0x0 SWAP2 DUP3 MSTORE PUSH1 0x20 SWAP1 SWAP2 KECCAK256 ADD SLOAD PUSH1 0x1 PUSH1 0x1 PUSH1 0xA0 SHL SUB AND SWAP1 POP DUP2 JUMP JUMPDEST PUSH1 0x0 SLOAD PUSH1 0x1 PUSH1 0x1 PUSH1 0xA0 SHL SUB AND CALLER EQ PUSH2 0x16C9 JUMPI PUSH1 0x40 MLOAD PUSH3 0x461BCD PUSH1 0xE5 SHL DUP2 MSTORE PUSH1 0x4 ADD PUSH2 0xEE6 SWAP1 PUSH2 0x44C0 JUMP JUMPDEST PUSH1 0x0 SWAP2 DUP3 MSTORE PUSH1 0x31 PUSH1 0x20 MSTORE PUSH1 0x40 SWAP1 SWAP2 KECCAK256 DUP1 SLOAD PUSH1 0x1 PUSH1 0x1 PUSH1 0xA0 SHL SUB NOT AND PUSH1 0x1 PUSH1 0x1 PUSH1 0xA0 SHL SUB SWAP1 SWAP3 AND SWAP2 SWAP1 SWAP2 OR SWAP1 SSTORE JUMP JUMPDEST PUSH1 0x1 PUSH1 0x1 PUSH1 0xA0 SHL SUB DUP1 DUP4 AND PUSH1 0x0 DUP2 DUP2 MSTORE PUSH1 0x3 PUSH1 0x20 SWAP1 DUP2 MSTORE PUSH1 0x40 DUP1 DUP4 KECCAK256 SLOAD SWAP5 DUP7 AND DUP4 MSTORE PUSH1 0x2 DUP3 MSTORE DUP1 DUP4 KECCAK256 SWAP4 DUP4 MSTORE SWAP3 SWAP1 MSTORE SWAP1 DUP2 KECCAK256 SLOAD PUSH1 0x1 SLOAD SWAP2 SWAP3 SWAP2 TIMESTAMP SWAP2 SWAP1 DUP5 SWAP1 PUSH1 0x64 SWAP1 PUSH2 0x1743 SWAP1 DUP5 SWAP1 PUSH2 0x450B JUMP JUMPDEST PUSH2 0x174D SWAP2 SWAP1 PUSH2 0x452A JUMP JUMPDEST SWAP1 POP PUSH1 0x0 PUSH2 0x175E PUSH3 0x80520 DUP4 PUSH2 0x452A JUMP JUMPDEST SWAP1 POP PUSH1 0x0 PUSH1 0x3C PUSH2 0x176E DUP8 DUP8 PUSH2 0x462C JUMP JUMPDEST PUSH2 0x1778 SWAP2 SWAP1 PUSH2 0x452A JUMP JUMPDEST SWAP1 POP PUSH1 0x0 PUSH2 0x1786 DUP4 DUP4 PUSH2 0x450B JUMP JUMPDEST SWAP11 SWAP10 POP POP POP POP POP POP POP POP POP POP JUMP JUMPDEST PUSH1 0x0 SLOAD PUSH1 0x1 PUSH1 0x1 PUSH1 0xA0 SHL SUB AND CALLER EQ PUSH2 0x17BE JUMPI PUSH1 0x40 MLOAD PUSH3 0x461BCD PUSH1 0xE5 SHL DUP2 MSTORE PUSH1 0x4 ADD PUSH2 0xEE6 SWAP1 PUSH2 0x44C0 JUMP JUMPDEST PUSH1 0x6 SLOAD PUSH1 0x40 MLOAD PUSH4 0xA9059CBB PUSH1 0xE0 SHL DUP2 MSTORE PUSH1 0x1 PUSH1 0x1 PUSH1 0xA0 SHL SUB DUP4 AND SWAP2 PUSH4 0xA9059CBB SWAP2 PUSH2 0x17ED SWAP2 CALLER SWAP2 PUSH1 0x4 ADD PUSH2 0x4643 JUMP JUMPDEST PUSH1 0x20 PUSH1 0x40 MLOAD DUP1 DUP4 SUB DUP2 PUSH1 0x0 DUP8 GAS CALL ISZERO DUP1 ISZERO PUSH2 0x180C JUMPI RETURNDATASIZE PUSH1 0x0 DUP1 RETURNDATACOPY RETURNDATASIZE PUSH1 0x0 REVERT JUMPDEST POP POP POP POP PUSH1 0x40 MLOAD RETURNDATASIZE PUSH1 0x1F NOT PUSH1 0x1F DUP3 ADD AND DUP3 ADD DUP1 PUSH1 0x40 MSTORE POP DUP2 ADD SWAP1 PUSH2 0x1830 SWAP2 SWAP1 PUSH2 0x45DE JUMP JUMPDEST POP POP PUSH1 0x0 PUSH1 0x6 SSTORE JUMP JUMPDEST CALLER PUSH1 0x0 SWAP1 DUP2 MSTORE PUSH1 0x14 PUSH1 0x20 SWAP1 DUP2 MSTORE PUSH1 0x40 DUP1 DUP4 KECCAK256 SLOAD PUSH1 0x16 SWAP1 SWAP3 MSTORE DUP3 KECCAK256 SLOAD SWAP1 SWAP2 PUSH2 0x1860 DUP3 DUP5 PUSH2 0x462C JUMP JUMPDEST SWAP1 POP PUSH1 0x0 PUSH1 0x64 DUP5 PUSH1 0x17 SLOAD PUSH2 0x1874 SWAP2 SWAP1 PUSH2 0x450B JUMP JUMPDEST PUSH2 0x187E SWAP2 SWAP1 PUSH2 0x452A JUMP JUMPDEST SWAP1 POP PUSH1 0x0 PUSH2 0x188C DUP5 DUP4 PUSH2 0x462C JUMP JUMPDEST SWAP1 POP PUSH1 0x0 DUP2 GT PUSH2 0x189B JUMPI PUSH1 0x0 DUP1 REVERT JUMPDEST DUP1 DUP7 GT ISZERO PUSH2 0x18A8 JUMPI PUSH1 0x0 DUP1 REVERT JUMPDEST DUP5 DUP5 LT PUSH2 0x18B4 JUMPI PUSH1 0x0 DUP1 REVERT JUMPDEST PUSH1 0x0 DUP7 GT PUSH2 0x18D4 JUMPI PUSH1 0x40 MLOAD PUSH3 0x461BCD PUSH1 0xE5 SHL DUP2 MSTORE PUSH1 0x4 ADD PUSH2 0xEE6 SWAP1 PUSH2 0x454C JUMP JUMPDEST DUP6 DUP4 LT ISZERO PUSH2 0x18F4 JUMPI PUSH1 0x40 MLOAD PUSH3 0x461BCD PUSH1 0xE5 SHL DUP2 MSTORE PUSH1 0x4 ADD PUSH2 0xEE6 SWAP1 PUSH2 0x465C JUMP JUMPDEST DUP5 PUSH2 0x18FF DUP8 DUP7 PUSH2 0x45FB JUMP JUMPDEST LT PUSH2 0x1909 JUMPI PUSH1 0x0 DUP1 REVERT JUMPDEST PUSH1 0xF SLOAD PUSH1 0x40 MLOAD PUSH4 0xA9059CBB PUSH1 0xE0 SHL DUP2 MSTORE PUSH1 0x1 PUSH1 0x1 PUSH1 0xA0 SHL SUB SWAP1 SWAP2 AND SWAP1 PUSH4 0xA9059CBB SWAP1 PUSH2 0x193B SWAP1 CALLER SWAP1 DUP11 SWAP1 PUSH1 0x4 ADD PUSH2 0x4643 JUMP JUMPDEST PUSH1 0x20 PUSH1 0x40 MLOAD DUP1 DUP4 SUB DUP2 PUSH1 0x0 DUP8 GAS CALL ISZERO DUP1 ISZERO PUSH2 0x195A JUMPI RETURNDATASIZE PUSH1 0x0 DUP1 RETURNDATACOPY RETURNDATASIZE PUSH1 0x0 REVERT JUMPDEST POP POP POP POP PUSH1 0x40 MLOAD RETURNDATASIZE PUSH1 0x1F NOT PUSH1 0x1F DUP3 ADD AND DUP3 ADD DUP1 PUSH1 0x40 MSTORE POP DUP2 ADD SWAP1 PUSH2 0x197E SWAP2 SWAP1 PUSH2 0x45DE JUMP JUMPDEST POP CALLER PUSH1 0x0 SWAP1 DUP2 MSTORE PUSH1 0x16 PUSH1 0x20 MSTORE PUSH1 0x40 SWAP1 KECCAK256 SLOAD PUSH2 0x199A SWAP1 DUP8 SWAP1 PUSH2 0x45FB JUMP JUMPDEST CALLER PUSH1 0x0 SWAP1 DUP2 MSTORE PUSH1 0x16 PUSH1 0x20 MSTORE PUSH1 0x40 SWAP1 KECCAK256 SSTORE POP POP POP POP POP POP JUMP JUMPDEST PUSH1 0x0 SLOAD PUSH1 0x1 PUSH1 0x1 PUSH1 0xA0 SHL SUB AND CALLER EQ PUSH2 0x19DC JUMPI PUSH1 0x40 MLOAD PUSH3 0x461BCD PUSH1 0xE5 SHL DUP2 MSTORE PUSH1 0x4 ADD PUSH2 0xEE6 SWAP1 PUSH2 0x44C0 JUMP JUMPDEST PUSH1 0x0 SWAP2 DUP3 MSTORE PUSH1 0x25 PUSH1 0x20 MSTORE PUSH1 0x40 SWAP1 SWAP2 KECCAK256 DUP1 SLOAD PUSH1 0xFF NOT AND SWAP2 ISZERO ISZERO SWAP2 SWAP1 SWAP2 OR SWAP1 SSTORE JUMP JUMPDEST PUSH1 0x0 SLOAD PUSH1 0x1 PUSH1 0x1 PUSH1 0xA0 SHL SUB AND CALLER EQ PUSH2 0x1A26 JUMPI PUSH1 0x40 MLOAD PUSH3 0x461BCD PUSH1 0xE5 SHL DUP2 MSTORE PUSH1 0x4 ADD PUSH2 0xEE6 SWAP1 PUSH2 0x44C0 JUMP JUMPDEST PUSH1 0x15 SSTORE JUMP JUMPDEST PUSH1 0x0 SLOAD PUSH1 0x1 PUSH1 0x1 PUSH1 0xA0 SHL SUB AND CALLER EQ PUSH2 0x1A55 JUMPI PUSH1 0x40 MLOAD PUSH3 0x461BCD PUSH1 0xE5 SHL DUP2 MSTORE PUSH1 0x4 ADD PUSH2 0xEE6 SWAP1 PUSH2 0x44C0 JUMP JUMPDEST PUSH1 0x0 SWAP2 DUP3 MSTORE PUSH1 0x30 PUSH1 0x20 MSTORE PUSH1 0x40 SWAP1 SWAP2 KECCAK256 SSTORE JUMP JUMPDEST PUSH1 0x0 DUP3 GT PUSH2 0x1A87 JUMPI PUSH1 0x40 MLOAD PUSH3 0x461BCD PUSH1 0xE5 SHL DUP2 MSTORE PUSH1 0x4 ADD PUSH2 0xEE6 SWAP1 PUSH2 0x454C JUMP JUMPDEST PUSH2 0x1A90 DUP2 PUSH2 0x32D1 JUMP JUMPDEST PUSH2 0x1AAC JUMPI PUSH1 0x40 MLOAD PUSH3 0x461BCD PUSH1 0xE5 SHL DUP2 MSTORE PUSH1 0x4 ADD PUSH2 0xEE6 SWAP1 PUSH2 0x4583 JUMP JUMPDEST PUSH1 0x40 MLOAD PUSH4 0x23B872DD PUSH1 0xE0 SHL DUP2 MSTORE PUSH1 0x1 PUSH1 0x1 PUSH1 0xA0 SHL SUB DUP3 AND SWAP1 PUSH4 0x23B872DD SWAP1 PUSH2 0x1ADC SWAP1 CALLER SWAP1 ADDRESS SWAP1 DUP8 SWAP1 PUSH1 0x4 ADD PUSH2 0x45BA JUMP JUMPDEST PUSH1 0x20 PUSH1 0x40 MLOAD DUP1 DUP4 SUB DUP2 PUSH1 0x0 DUP8 GAS CALL ISZERO DUP1 ISZERO PUSH2 0x1AFB JUMPI RETURNDATASIZE PUSH1 0x0 DUP1 RETURNDATACOPY RETURNDATASIZE PUSH1 0x0 REVERT JUMPDEST POP POP POP POP PUSH1 0x40 MLOAD RETURNDATASIZE PUSH1 0x1F NOT PUSH1 0x1F DUP3 ADD AND DUP3 ADD DUP1 PUSH1 0x40 MSTORE POP DUP2 ADD SWAP1 PUSH2 0x1B1F SWAP2 SWAP1 PUSH2 0x45DE JUMP JUMPDEST POP PUSH1 0x40 MLOAD PUSH4 0x70A08231 PUSH1 0xE0 SHL DUP2 MSTORE ADDRESS PUSH1 0x4 DUP3 ADD MSTORE PUSH8 0xDE0B6B3A7640000 SWAP1 PUSH1 0x1 PUSH1 0x1 PUSH1 0xA0 SHL SUB DUP4 AND SWAP1 PUSH4 0x70A08231 SWAP1 PUSH1 0x24 ADD PUSH1 0x20 PUSH1 0x40 MLOAD DUP1 DUP4 SUB DUP2 DUP7 GAS STATICCALL ISZERO DUP1 ISZERO PUSH2 0x1B6E JUMPI RETURNDATASIZE PUSH1 0x0 DUP1 RETURNDATACOPY RETURNDATASIZE PUSH1 0x0 REVERT JUMPDEST POP POP POP POP PUSH1 0x40 MLOAD RETURNDATASIZE PUSH1 0x1F NOT PUSH1 0x1F DUP3 ADD AND DUP3 ADD DUP1 PUSH1 0x40 MSTORE POP DUP2 ADD SWAP1 PUSH2 0x1B92 SWAP2 SWAP1 PUSH2 0x4613 JUMP JUMPDEST PUSH2 0x1B9C SWAP2 SWAP1 PUSH2 0x452A JUMP JUMPDEST PUSH1 0x1D SSTORE PUSH2 0x1BA9 CALLER DUP3 PUSH2 0x41BA JUMP JUMPDEST PUSH1 0x1 PUSH1 0x1 PUSH1 0xA0 SHL SUB DUP2 AND PUSH1 0x0 SWAP1 DUP2 MSTORE PUSH1 0x10 PUSH1 0x20 SWAP1 DUP2 MSTORE PUSH1 0x40 DUP1 DUP4 KECCAK256 CALLER DUP5 MSTORE SWAP1 SWAP2 MSTORE SWAP1 KECCAK256 SLOAD PUSH2 0x1BD8 SWAP1 DUP4 SWAP1 PUSH2 0x45FB JUMP JUMPDEST PUSH1 0x1 PUSH1 0x1 PUSH1 0xA0 SHL SUB DUP3 AND PUSH1 0x0 SWAP1 DUP2 MSTORE PUSH1 0x10 PUSH1 0x20 SWAP1 DUP2 MSTORE PUSH1 0x40 DUP1 DUP4 KECCAK256 CALLER DUP5 MSTORE SWAP1 SWAP2 MSTORE SWAP1 KECCAK256 SSTORE PUSH1 0x15 SLOAD PUSH2 0x1C09 SWAP1 DUP4 PUSH2 0x450B JUMP JUMPDEST CALLER PUSH1 0x0 SWAP1 DUP2 MSTORE PUSH1 0x14 PUSH1 0x20 MSTORE PUSH1 0x40 SWAP1 KECCAK256 SLOAD PUSH2 0x1C23 SWAP2 SWAP1 PUSH2 0x45FB JUMP JUMPDEST CALLER PUSH1 0x0 SWAP1 DUP2 MSTORE PUSH1 0x14 PUSH1 0x20 SWAP1 DUP2 MSTORE PUSH1 0x40 DUP1 DUP4 KECCAK256 SWAP4 SWAP1 SWAP4 SSTORE PUSH1 0x1 PUSH1 0x1 PUSH1 0xA0 SHL SUB DUP5 AND DUP3 MSTORE PUSH1 0x11 SWAP1 MSTORE KECCAK256 SLOAD PUSH2 0x1C56 SWAP1 DUP4 SWAP1 PUSH2 0x45FB JUMP JUMPDEST PUSH1 0x1 PUSH1 0x1 PUSH1 0xA0 SHL SUB DUP3 AND PUSH1 0x0 SWAP1 DUP2 MSTORE PUSH1 0x11 PUSH1 0x20 SWAP1 DUP2 MSTORE PUSH1 0x40 DUP1 DUP4 KECCAK256 SWAP4 SWAP1 SWAP4 SSTORE PUSH1 0x12 SWAP1 MSTORE KECCAK256 SLOAD PUSH2 0x1C86 SWAP1 DUP4 SWAP1 PUSH2 0x45FB JUMP JUMPDEST PUSH1 0x1 PUSH1 0x1 PUSH1 0xA0 SHL SUB DUP3 AND PUSH1 0x0 SWAP1 DUP2 MSTORE PUSH1 0x12 PUSH1 0x20 MSTORE PUSH1 0x40 SWAP1 KECCAK256 SSTORE PUSH1 0x13 SLOAD PUSH2 0x1CAD SWAP1 DUP4 SWAP1 PUSH2 0x45FB JUMP JUMPDEST PUSH1 0x13 SSTORE CALLER PUSH1 0x0 SWAP1 DUP2 MSTORE PUSH1 0x1C PUSH1 0x20 MSTORE PUSH1 0x40 SWAP1 KECCAK256 SLOAD PUSH1 0x1 EQ ISZERO PUSH2 0x10EF JUMPI PUSH1 0x19 DUP1 SLOAD PUSH1 0x1 DUP2 ADD DUP3 SSTORE PUSH1 0x0 SWAP2 SWAP1 SWAP2 MSTORE PUSH32 0x944998273E477B495144FB8794C914197F3CCB46BE2900F4698FD0EF743C9695 ADD DUP1 SLOAD PUSH1 0x1 PUSH1 0x1 PUSH1 0xA0 SHL SUB NOT AND CALLER OR SWAP1 SSTORE POP POP JUMP JUMPDEST PUSH1 0xD DUP2 DUP2 SLOAD DUP2 LT PUSH2 0x1685 JUMPI PUSH1 0x0 DUP1 REVERT JUMPDEST PUSH1 0x0 SLOAD PUSH1 0x1 PUSH1 0x1 PUSH1 0xA0 SHL SUB AND CALLER EQ PUSH2 0x1D48 JUMPI PUSH1 0x40 MLOAD PUSH3 0x461BCD PUSH1 0xE5 SHL DUP2 MSTORE PUSH1 0x4 ADD PUSH2 0xEE6 SWAP1 PUSH2 0x44C0 JUMP JUMPDEST PUSH1 0x0 JUMPDEST PUSH1 0xC SLOAD DUP2 LT ISZERO PUSH2 0x1E15 JUMPI PUSH1 0x0 PUSH1 0xC DUP3 DUP2 SLOAD DUP2 LT PUSH2 0x1D6A JUMPI PUSH2 0x1D6A PUSH2 0x4798 JUMP JUMPDEST PUSH1 0x0 SWAP2 DUP3 MSTORE PUSH1 0x20 DUP3 KECCAK256 ADD SLOAD PUSH1 0x1 PUSH1 0x1 PUSH1 0xA0 SHL SUB AND SWAP2 POP PUSH2 0x1D89 DUP3 PUSH2 0x3213 JUMP JUMPDEST PUSH1 0xE SLOAD PUSH1 0x40 MLOAD PUSH4 0xA9059CBB PUSH1 0xE0 SHL DUP2 MSTORE SWAP2 SWAP3 POP PUSH1 0x1 PUSH1 0x1 PUSH1 0xA0 SHL SUB AND SWAP1 PUSH4 0xA9059CBB SWAP1 PUSH2 0x1DBC SWAP1 DUP6 SWAP1 DUP6 SWAP1 PUSH1 0x4 ADD PUSH2 0x4643 JUMP JUMPDEST PUSH1 0x20 PUSH1 0x40 MLOAD DUP1 DUP4 SUB DUP2 PUSH1 0x0 DUP8 GAS CALL ISZERO DUP1 ISZERO PUSH2 0x1DDB JUMPI RETURNDATASIZE PUSH1 0x0 DUP1 RETURNDATACOPY RETURNDATASIZE PUSH1 0x0 REVERT JUMPDEST POP POP POP POP PUSH1 0x40 MLOAD RETURNDATASIZE PUSH1 0x1F NOT PUSH1 0x1F DUP3 ADD AND DUP3 ADD DUP1 PUSH1 0x40 MSTORE POP DUP2 ADD SWAP1 PUSH2 0x1DFF SWAP2 SWAP1 PUSH2 0x45DE JUMP JUMPDEST POP POP POP DUP1 DUP1 PUSH2 0x1E0D SWAP1 PUSH2 0x47AE JUMP JUMPDEST SWAP2 POP POP PUSH2 0x1D4B JUMP JUMPDEST POP JUMP JUMPDEST PUSH1 0x0 SLOAD PUSH1 0x1 PUSH1 0x1 PUSH1 0xA0 SHL SUB AND CALLER EQ PUSH2 0x1E42 JUMPI PUSH1 0x40 MLOAD PUSH3 0x461BCD PUSH1 0xE5 SHL DUP2 MSTORE PUSH1 0x4 ADD PUSH2 0xEE6 SWAP1 PUSH2 0x44C0 JUMP JUMPDEST PUSH1 0x1A DUP1 SLOAD PUSH1 0x1 DUP2 ADD DUP3 SSTORE PUSH1 0x0 SWAP2 SWAP1 SWAP2 MSTORE PUSH32 0x57C384A7D1C54F3A1B2E5E67B2617B8224FDFD1EA7234EEA573A6FF665FF63E ADD DUP1 SLOAD PUSH1 0x1 PUSH1 0x1 PUSH1 0xA0 SHL SUB NOT AND PUSH1 0x1 PUSH1 0x1 PUSH1 0xA0 SHL SUB SWAP3 SWAP1 SWAP3 AND SWAP2 SWAP1 SWAP2 OR SWAP1 SSTORE JUMP JUMPDEST PUSH1 0x1 PUSH1 0x1 PUSH1 0xA0 SHL SUB DUP2 AND PUSH1 0x0 SWAP1 DUP2 MSTORE PUSH1 0x14 PUSH1 0x20 SWAP1 DUP2 MSTORE PUSH1 0x40 DUP1 DUP4 KECCAK256 SLOAD PUSH1 0x16 SWAP1 SWAP3 MSTORE DUP3 KECCAK256 SLOAD PUSH1 0x17 SLOAD DUP4 SWAP1 PUSH1 0x64 SWAP1 PUSH2 0x1ECB SWAP1 DUP6 SWAP1 PUSH2 0x450B JUMP JUMPDEST PUSH2 0x1ED5 SWAP2 SWAP1 PUSH2 0x452A JUMP JUMPDEST SWAP1 POP PUSH1 0x0 PUSH2 0x1EE3 DUP4 DUP4 PUSH2 0x462C JUMP JUMPDEST SWAP8 SWAP7 POP POP POP POP POP POP POP JUMP JUMPDEST PUSH1 0x0 SLOAD PUSH1 0x1 PUSH1 0x1 PUSH1 0xA0 SHL SUB AND CALLER EQ PUSH2 0x1F18 JUMPI PUSH1 0x40 MLOAD PUSH3 0x461BCD PUSH1 0xE5 SHL DUP2 MSTORE PUSH1 0x4 ADD PUSH2 0xEE6 SWAP1 PUSH2 0x44C0 JUMP JUMPDEST PUSH1 0x40 MLOAD PUSH4 0x23B872DD PUSH1 0xE0 SHL DUP2 MSTORE PUSH1 0x1 PUSH1 0x1 PUSH1 0xA0 SHL SUB DUP4 AND SWAP1 PUSH4 0x23B872DD SWAP1 PUSH2 0x1F48 SWAP1 CALLER SWAP1 ADDRESS SWAP1 DUP7 SWAP1 PUSH1 0x4 ADD PUSH2 0x45BA JUMP JUMPDEST PUSH1 0x20 PUSH1 0x40 MLOAD DUP1 DUP4 SUB DUP2 PUSH1 0x0 DUP8 GAS CALL ISZERO DUP1 ISZERO PUSH2 0x1F67 JUMPI RETURNDATASIZE PUSH1 0x0 DUP1 RETURNDATACOPY RETURNDATASIZE PUSH1 0x0 REVERT JUMPDEST POP POP POP POP PUSH1 0x40 MLOAD RETURNDATASIZE PUSH1 0x1F NOT PUSH1 0x1F DUP3 ADD AND DUP3 ADD DUP1 PUSH1 0x40 MSTORE POP DUP2 ADD SWAP1 PUSH2 0x1F8B SWAP2 SWAP1 PUSH2 0x45DE JUMP JUMPDEST POP POP POP JUMP JUMPDEST PUSH1 0x0 SLOAD PUSH1 0x1 PUSH1 0x1 PUSH1 0xA0 SHL SUB AND CALLER EQ PUSH2 0x1FBA JUMPI PUSH1 0x40 MLOAD PUSH3 0x461BCD PUSH1 0xE5 SHL DUP2 MSTORE PUSH1 0x4 ADD PUSH2 0xEE6 SWAP1 PUSH2 0x44C0 JUMP JUMPDEST PUSH1 0xF DUP1 SLOAD PUSH1 0x1 PUSH1 0x1 PUSH1 0xA0 SHL SUB NOT AND PUSH1 0x1 PUSH1 0x1 PUSH1 0xA0 SHL SUB SWAP3 SWAP1 SWAP3 AND SWAP2 SWAP1 SWAP2 OR SWAP1 SSTORE JUMP JUMPDEST PUSH1 0x0 DUP1 PUSH2 0x1FE7 PUSH2 0x30C9 JUMP JUMPDEST SWAP1 POP PUSH1 0x0 PUSH8 0xDE0B6B3A7640000 PUSH2 0x1FFE DUP6 DUP5 PUSH2 0x450B JUMP JUMPDEST PUSH2 0x2008 SWAP2 SWAP1 PUSH2 0x452A JUMP JUMPDEST SWAP5 SWAP4 POP POP POP POP JUMP JUMPDEST PUSH1 0x0 SLOAD PUSH1 0x1 PUSH1 0x1 PUSH1 0xA0 SHL SUB AND CALLER EQ PUSH2 0x203A JUMPI PUSH1 0x40 MLOAD PUSH3 0x461BCD PUSH1 0xE5 SHL DUP2 MSTORE PUSH1 0x4 ADD PUSH2 0xEE6 SWAP1 PUSH2 0x44C0 JUMP JUMPDEST PUSH2 0x2044 PUSH1 0x0 PUSH2 0x4225 JUMP JUMPDEST JUMP JUMPDEST PUSH1 0x0 DUP3 DUP2 MSTORE PUSH1 0x1F PUSH1 0x20 MSTORE PUSH1 0x40 SWAP1 KECCAK256 SLOAD PUSH1 0xFF AND ISZERO ISZERO PUSH1 0x1 EQ PUSH2 0x2066 JUMPI PUSH1 0x0 DUP1 REVERT JUMPDEST PUSH1 0x1 PUSH1 0x1 PUSH1 0xA0 SHL SUB DUP2 AND PUSH1 0x0 SWAP1 DUP2 MSTORE PUSH1 0x2 PUSH1 0x20 SWAP1 DUP2 MSTORE PUSH1 0x40 DUP1 DUP4 KECCAK256 CALLER DUP5 MSTORE SWAP1 SWAP2 MSTORE SWAP1 KECCAK256 SLOAD PUSH9 0x5150AE84A8CDF00000 GT ISZERO PUSH2 0x209F JUMPI PUSH1 0x0 DUP1 REVERT JUMPDEST PUSH1 0x0 PUSH2 0x20AB CALLER DUP4 PUSH2 0x2130 JUMP JUMPDEST GT PUSH2 0x20B5 JUMPI PUSH1 0x0 DUP1 REVERT JUMPDEST PUSH1 0x0 PUSH2 0x20C1 CALLER DUP4 PUSH2 0x2130 JUMP JUMPDEST PUSH1 0x0 DUP2 DUP2 MSTORE PUSH1 0x21 PUSH1 0x20 MSTORE PUSH1 0x40 SWAP1 KECCAK256 SLOAD SWAP1 SWAP2 POP PUSH2 0x20DE SWAP1 PUSH1 0x1 PUSH2 0x45FB JUMP JUMPDEST PUSH1 0x0 DUP3 DUP2 MSTORE PUSH1 0x21 PUSH1 0x20 SWAP1 DUP2 MSTORE PUSH1 0x40 DUP1 DUP4 KECCAK256 SWAP4 SWAP1 SWAP4 SSTORE CALLER DUP3 MSTORE PUSH1 0x23 SWAP1 MSTORE KECCAK256 SSTORE POP POP JUMP JUMPDEST PUSH1 0x0 DUP1 PUSH2 0x210D DUP5 DUP5 PUSH2 0x16F7 JUMP JUMPDEST PUSH1 0x1 PUSH1 0x1 PUSH1 0xA0 SHL SUB DUP6 AND PUSH1 0x0 SWAP1 DUP2 MSTORE PUSH1 0x4 PUSH1 0x20 MSTORE PUSH1 0x40 SWAP1 KECCAK256 SLOAD PUSH2 0x2008 SWAP2 SWAP1 PUSH2 0x45FB JUMP JUMPDEST PUSH1 0x20 SLOAD PUSH1 0x0 SWAP1 DUP2 SWAP1 PUSH2 0x2143 SWAP1 PUSH1 0x96 PUSH2 0x450B JUMP JUMPDEST PUSH2 0x2155 SWAP1 PUSH8 0xDE0B6B3A7640000 PUSH2 0x450B JUMP JUMPDEST PUSH1 0x1 PUSH1 0x1 PUSH1 0xA0 SHL SUB DUP1 DUP6 AND PUSH1 0x0 SWAP1 DUP2 MSTORE PUSH1 0x2 PUSH1 0x20 SWAP1 DUP2 MSTORE PUSH1 0x40 DUP1 DUP4 KECCAK256 SWAP4 DUP10 AND DUP4 MSTORE SWAP3 SWAP1 MSTORE KECCAK256 SLOAD LT PUSH2 0x218A JUMPI POP PUSH1 0x1C SWAP1 POP PUSH2 0x166F JUMP JUMPDEST PUSH1 0x20 SLOAD PUSH2 0x2198 SWAP1 PUSH1 0x8C PUSH2 0x450B JUMP JUMPDEST PUSH2 0x21AA SWAP1 PUSH8 0xDE0B6B3A7640000 PUSH2 0x450B JUMP JUMPDEST PUSH1 0x1 PUSH1 0x1 PUSH1 0xA0 SHL SUB DUP1 DUP6 AND PUSH1 0x0 SWAP1 DUP2 MSTORE PUSH1 0x2 PUSH1 0x20 SWAP1 DUP2 MSTORE PUSH1 0x40 DUP1 DUP4 KECCAK256 SWAP4 DUP10 AND DUP4 MSTORE SWAP3 SWAP1 MSTORE KECCAK256 SLOAD LT PUSH2 0x21DF JUMPI POP PUSH1 0x1B SWAP1 POP PUSH2 0x166F JUMP JUMPDEST PUSH1 0x20 SLOAD PUSH2 0x21ED SWAP1 PUSH1 0x82 PUSH2 0x450B JUMP JUMPDEST PUSH2 0x21FF SWAP1 PUSH8 0xDE0B6B3A7640000 PUSH2 0x450B JUMP JUMPDEST PUSH1 0x1 PUSH1 0x1 PUSH1 0xA0 SHL SUB DUP1 DUP6 AND PUSH1 0x0 SWAP1 DUP2 MSTORE PUSH1 0x2 PUSH1 0x20 SWAP1 DUP2 MSTORE PUSH1 0x40 DUP1 DUP4 KECCAK256 SWAP4 DUP10 AND DUP4 MSTORE SWAP3 SWAP1 MSTORE KECCAK256 SLOAD LT PUSH2 0x2234 JUMPI POP PUSH1 0x1A SWAP1 POP PUSH2 0x166F JUMP JUMPDEST PUSH1 0x20 SLOAD PUSH2 0x2242 SWAP1 PUSH1 0x78 PUSH2 0x450B JUMP JUMPDEST PUSH2 0x2254 SWAP1 PUSH8 0xDE0B6B3A7640000 PUSH2 0x450B JUMP JUMPDEST PUSH1 0x1 PUSH1 0x1 PUSH1 0xA0 SHL SUB DUP1 DUP6 AND PUSH1 0x0 SWAP1 DUP2 MSTORE PUSH1 0x2 PUSH1 0x20 SWAP1 DUP2 MSTORE PUSH1 0x40 DUP1 DUP4 KECCAK256 SWAP4 DUP10 AND DUP4 MSTORE SWAP3 SWAP1 MSTORE KECCAK256 SLOAD LT PUSH2 0x2289 JUMPI POP PUSH1 0x19 SWAP1 POP PUSH2 0x166F JUMP JUMPDEST PUSH1 0x20 SLOAD PUSH2 0x2297 SWAP1 PUSH1 0x6E PUSH2 0x450B JUMP JUMPDEST PUSH2 0x22A9 SWAP1 PUSH8 0xDE0B6B3A7640000 PUSH2 0x450B JUMP JUMPDEST PUSH1 0x1 PUSH1 0x1 PUSH1 0xA0 SHL SUB DUP1 DUP6 AND PUSH1 0x0 SWAP1 DUP2 MSTORE PUSH1 0x2 PUSH1 0x20 SWAP1 DUP2 MSTORE PUSH1 0x40 DUP1 DUP4 KECCAK256 SWAP4 DUP10 AND DUP4 MSTORE SWAP3 SWAP1 MSTORE KECCAK256 SLOAD LT PUSH2 0x22DE JUMPI POP PUSH1 0x18 SWAP1 POP PUSH2 0x166F JUMP JUMPDEST PUSH1 0x20 SLOAD PUSH2 0x22EC SWAP1 PUSH1 0x64 PUSH2 0x450B JUMP JUMPDEST PUSH2 0x22FE SWAP1 PUSH8 0xDE0B6B3A7640000 PUSH2 0x450B JUMP JUMPDEST PUSH1 0x1 PUSH1 0x1 PUSH1 0xA0 SHL SUB DUP1 DUP6 AND PUSH1 0x0 SWAP1 DUP2 MSTORE PUSH1 0x2 PUSH1 0x20 SWAP1 DUP2 MSTORE PUSH1 0x40 DUP1 DUP4 KECCAK256 SWAP4 DUP10 AND DUP4 MSTORE SWAP3 SWAP1 MSTORE KECCAK256 SLOAD LT PUSH2 0x2333 JUMPI POP PUSH1 0x17 SWAP1 POP PUSH2 0x166F JUMP JUMPDEST PUSH1 0x20 SLOAD PUSH2 0x2341 SWAP1 PUSH1 0x5A PUSH2 0x450B JUMP JUMPDEST PUSH2 0x2353 SWAP1 PUSH8 0xDE0B6B3A7640000 PUSH2 0x450B JUMP JUMPDEST PUSH1 0x1 PUSH1 0x1 PUSH1 0xA0 SHL SUB DUP1 DUP6 AND PUSH1 0x0 SWAP1 DUP2 MSTORE PUSH1 0x2 PUSH1 0x20 SWAP1 DUP2 MSTORE PUSH1 0x40 DUP1 DUP4 KECCAK256 SWAP4 DUP10 AND DUP4 MSTORE SWAP3 SWAP1 MSTORE KECCAK256 SLOAD LT PUSH2 0x2388 JUMPI POP PUSH1 0x16 SWAP1 POP PUSH2 0x166F JUMP JUMPDEST PUSH1 0x20 SLOAD PUSH2 0x2396 SWAP1 PUSH1 0x50 PUSH2 0x450B JUMP JUMPDEST PUSH2 0x23A8 SWAP1 PUSH8 0xDE0B6B3A7640000 PUSH2 0x450B JUMP JUMPDEST PUSH1 0x1 PUSH1 0x1 PUSH1 0xA0 SHL SUB DUP1 DUP6 AND PUSH1 0x0 SWAP1 DUP2 MSTORE PUSH1 0x2 PUSH1 0x20 SWAP1 DUP2 MSTORE PUSH1 0x40 DUP1 DUP4 KECCAK256 SWAP4 DUP10 AND DUP4 MSTORE SWAP3 SWAP1 MSTORE KECCAK256 SLOAD LT PUSH2 0x23DD JUMPI POP PUSH1 0x15 SWAP1 POP PUSH2 0x166F JUMP JUMPDEST PUSH1 0x20 SLOAD PUSH2 0x23EB SWAP1 PUSH1 0x46 PUSH2 0x450B JUMP JUMPDEST PUSH2 0x23FD SWAP1 PUSH8 0xDE0B6B3A7640000 PUSH2 0x450B JUMP JUMPDEST PUSH1 0x1 PUSH1 0x1 PUSH1 0xA0 SHL SUB DUP1 DUP6 AND PUSH1 0x0 SWAP1 DUP2 MSTORE PUSH1 0x2 PUSH1 0x20 SWAP1 DUP2 MSTORE PUSH1 0x40 DUP1 DUP4 KECCAK256 SWAP4 DUP10 AND DUP4 MSTORE SWAP3 SWAP1 MSTORE KECCAK256 SLOAD LT PUSH2 0x2432 JUMPI POP PUSH1 0x14 SWAP1 POP PUSH2 0x166F JUMP JUMPDEST PUSH1 0x20 SLOAD PUSH2 0x2440 SWAP1 PUSH1 0x3C PUSH2 0x450B JUMP JUMPDEST PUSH2 0x2452 SWAP1 PUSH8 0xDE0B6B3A7640000 PUSH2 0x450B JUMP JUMPDEST PUSH1 0x1 PUSH1 0x1 PUSH1 0xA0 SHL SUB DUP1 DUP6 AND PUSH1 0x0 SWAP1 DUP2 MSTORE PUSH1 0x2 PUSH1 0x20 SWAP1 DUP2 MSTORE PUSH1 0x40 DUP1 DUP4 KECCAK256 SWAP4 DUP10 AND DUP4 MSTORE SWAP3 SWAP1 MSTORE KECCAK256 SLOAD LT PUSH2 0x2487 JUMPI POP PUSH1 0x13 SWAP1 POP PUSH2 0x166F JUMP JUMPDEST PUSH1 0x20 SLOAD PUSH2 0x2495 SWAP1 PUSH1 0x32 PUSH2 0x450B JUMP JUMPDEST PUSH2 0x24A7 SWAP1 PUSH8 0xDE0B6B3A7640000 PUSH2 0x450B JUMP JUMPDEST PUSH1 0x1 PUSH1 0x1 PUSH1 0xA0 SHL SUB DUP1 DUP6 AND PUSH1 0x0 SWAP1 DUP2 MSTORE PUSH1 0x2 PUSH1 0x20 SWAP1 DUP2 MSTORE PUSH1 0x40 DUP1 DUP4 KECCAK256 SWAP4 DUP10 AND DUP4 MSTORE SWAP3 SWAP1 MSTORE KECCAK256 SLOAD LT PUSH2 0x24DC JUMPI POP PUSH1 0x12 SWAP1 POP PUSH2 0x166F JUMP JUMPDEST PUSH1 0x20 SLOAD PUSH2 0x24EA SWAP1 PUSH1 0x2D PUSH2 0x450B JUMP JUMPDEST PUSH2 0x24FC SWAP1 PUSH8 0xDE0B6B3A7640000 PUSH2 0x450B JUMP JUMPDEST PUSH1 0x1 PUSH1 0x1 PUSH1 0xA0 SHL SUB DUP1 DUP6 AND PUSH1 0x0 SWAP1 DUP2 MSTORE PUSH1 0x2 PUSH1 0x20 SWAP1 DUP2 MSTORE PUSH1 0x40 DUP1 DUP4 KECCAK256 SWAP4 DUP10 AND DUP4 MSTORE SWAP3 SWAP1 MSTORE KECCAK256 SLOAD LT PUSH2 0x2531 JUMPI POP PUSH1 0x11 SWAP1 POP PUSH2 0x166F JUMP JUMPDEST PUSH1 0x20 SLOAD PUSH2 0x253F SWAP1 PUSH1 0x28 PUSH2 0x450B JUMP JUMPDEST PUSH2 0x2551 SWAP1 PUSH8 0xDE0B6B3A7640000 PUSH2 0x450B JUMP JUMPDEST PUSH1 0x1 PUSH1 0x1 PUSH1 0xA0 SHL SUB DUP1 DUP6 AND PUSH1 0x0 SWAP1 DUP2 MSTORE PUSH1 0x2 PUSH1 0x20 SWAP1 DUP2 MSTORE PUSH1 0x40 DUP1 DUP4 KECCAK256 SWAP4 DUP10 AND DUP4 MSTORE SWAP3 SWAP1 MSTORE KECCAK256 SLOAD LT PUSH2 0x2586 JUMPI POP PUSH1 0x10 SWAP1 POP PUSH2 0x166F JUMP JUMPDEST PUSH1 0x20 SLOAD PUSH2 0x2594 SWAP1 PUSH1 0x23 PUSH2 0x450B JUMP JUMPDEST PUSH2 0x25A6 SWAP1 PUSH8 0xDE0B6B3A7640000 PUSH2 0x450B JUMP JUMPDEST PUSH1 0x1 PUSH1 0x1 PUSH1 0xA0 SHL SUB DUP1 DUP6 AND PUSH1 0x0 SWAP1 DUP2 MSTORE PUSH1 0x2 PUSH1 0x20 SWAP1 DUP2 MSTORE PUSH1 0x40 DUP1 DUP4 KECCAK256 SWAP4 DUP10 AND DUP4 MSTORE SWAP3 SWAP1 MSTORE KECCAK256 SLOAD LT PUSH2 0x25DB JUMPI POP PUSH1 0xF SWAP1 POP PUSH2 0x166F JUMP JUMPDEST PUSH1 0x20 SLOAD PUSH2 0x25E9 SWAP1 PUSH1 0x1E PUSH2 0x450B JUMP JUMPDEST PUSH2 0x25FB SWAP1 PUSH8 0xDE0B6B3A7640000 PUSH2 0x450B JUMP JUMPDEST PUSH1 0x1 PUSH1 0x1 PUSH1 0xA0 SHL SUB DUP1 DUP6 AND PUSH1 0x0 SWAP1 DUP2 MSTORE PUSH1 0x2 PUSH1 0x20 SWAP1 DUP2 MSTORE PUSH1 0x40 DUP1 DUP4 KECCAK256 SWAP4 DUP10 AND DUP4 MSTORE SWAP3 SWAP1 MSTORE KECCAK256 SLOAD LT PUSH2 0x2630 JUMPI POP PUSH1 0xE SWAP1 POP PUSH2 0x166F JUMP JUMPDEST PUSH1 0x20 SLOAD PUSH2 0x263E SWAP1 PUSH1 0x19 PUSH2 0x450B JUMP JUMPDEST PUSH2 0x2650 SWAP1 PUSH8 0xDE0B6B3A7640000 PUSH2 0x450B JUMP JUMPDEST PUSH1 0x1 PUSH1 0x1 PUSH1 0xA0 SHL SUB DUP1 DUP6 AND PUSH1 0x0 SWAP1 DUP2 MSTORE PUSH1 0x2 PUSH1 0x20 SWAP1 DUP2 MSTORE PUSH1 0x40 DUP1 DUP4 KECCAK256 SWAP4 DUP10 AND DUP4 MSTORE SWAP3 SWAP1 MSTORE KECCAK256 SLOAD LT PUSH2 0x2685 JUMPI POP PUSH1 0xD SWAP1 POP PUSH2 0x166F JUMP JUMPDEST PUSH1 0x20 SLOAD PUSH2 0x2693 SWAP1 PUSH1 0x14 PUSH2 0x450B JUMP JUMPDEST PUSH2 0x26A5 SWAP1 PUSH8 0xDE0B6B3A7640000 PUSH2 0x450B JUMP JUMPDEST PUSH1 0x1 PUSH1 0x1 PUSH1 0xA0 SHL SUB DUP1 DUP6 AND PUSH1 0x0 SWAP1 DUP2 MSTORE PUSH1 0x2 PUSH1 0x20 SWAP1 DUP2 MSTORE PUSH1 0x40 DUP1 DUP4 KECCAK256 SWAP4 DUP10 AND DUP4 MSTORE SWAP3 SWAP1 MSTORE KECCAK256 SLOAD LT PUSH2 0x26DA JUMPI POP PUSH1 0xC SWAP1 POP PUSH2 0x166F JUMP JUMPDEST PUSH1 0x20 SLOAD PUSH2 0x26E8 SWAP1 PUSH1 0xF PUSH2 0x450B JUMP JUMPDEST PUSH2 0x26FA SWAP1 PUSH8 0xDE0B6B3A7640000 PUSH2 0x450B JUMP JUMPDEST PUSH1 0x1 PUSH1 0x1 PUSH1 0xA0 SHL SUB DUP1 DUP6 AND PUSH1 0x0 SWAP1 DUP2 MSTORE PUSH1 0x2 PUSH1 0x20 SWAP1 DUP2 MSTORE PUSH1 0x40 DUP1 DUP4 KECCAK256 SWAP4 DUP10 AND DUP4 MSTORE SWAP3 SWAP1 MSTORE KECCAK256 SLOAD LT PUSH2 0x272F JUMPI POP PUSH1 0xB SWAP1 POP PUSH2 0x166F JUMP JUMPDEST PUSH1 0x20 SLOAD PUSH2 0x273D SWAP1 PUSH1 0xA PUSH2 0x450B JUMP JUMPDEST PUSH2 0x274F SWAP1 PUSH8 0xDE0B6B3A7640000 PUSH2 0x450B JUMP JUMPDEST PUSH1 0x1 PUSH1 0x1 PUSH1 0xA0 SHL SUB DUP1 DUP6 AND PUSH1 0x0 SWAP1 DUP2 MSTORE PUSH1 0x2 PUSH1 0x20 SWAP1 DUP2 MSTORE PUSH1 0x40 DUP1 DUP4 KECCAK256 SWAP4 DUP10 AND DUP4 MSTORE SWAP3 SWAP1 MSTORE KECCAK256 SLOAD LT PUSH2 0x2784 JUMPI POP PUSH1 0xA SWAP1 POP PUSH2 0x166F JUMP JUMPDEST PUSH1 0x20 SLOAD PUSH2 0x2792 SWAP1 PUSH1 0x9 PUSH2 0x450B JUMP JUMPDEST PUSH2 0x27A4 SWAP1 PUSH8 0xDE0B6B3A7640000 PUSH2 0x450B JUMP JUMPDEST PUSH1 0x1 PUSH1 0x1 PUSH1 0xA0 SHL SUB DUP1 DUP6 AND PUSH1 0x0 SWAP1 DUP2 MSTORE PUSH1 0x2 PUSH1 0x20 SWAP1 DUP2 MSTORE PUSH1 0x40 DUP1 DUP4 KECCAK256 SWAP4 DUP10 AND DUP4 MSTORE SWAP3 SWAP1 MSTORE KECCAK256 SLOAD LT PUSH2 0x27D9 JUMPI POP PUSH1 0x9 SWAP1 POP PUSH2 0x166F JUMP JUMPDEST PUSH1 0x20 SLOAD PUSH2 0x27E7 SWAP1 PUSH1 0x8 PUSH2 0x450B JUMP JUMPDEST PUSH2 0x27F9 SWAP1 PUSH8 0xDE0B6B3A7640000 PUSH2 0x450B JUMP JUMPDEST PUSH1 0x1 PUSH1 0x1 PUSH1 0xA0 SHL SUB DUP1 DUP6 AND PUSH1 0x0 SWAP1 DUP2 MSTORE PUSH1 0x2 PUSH1 0x20 SWAP1 DUP2 MSTORE PUSH1 0x40 DUP1 DUP4 KECCAK256 SWAP4 DUP10 AND DUP4 MSTORE SWAP3 SWAP1 MSTORE KECCAK256 SLOAD LT PUSH2 0x282E JUMPI POP PUSH1 0x8 SWAP1 POP PUSH2 0x166F JUMP JUMPDEST PUSH1 0x20 SLOAD PUSH2 0x283C SWAP1 PUSH1 0x7 PUSH2 0x450B JUMP JUMPDEST PUSH2 0x284E SWAP1 PUSH8 0xDE0B6B3A7640000 PUSH2 0x450B JUMP JUMPDEST PUSH1 0x1 PUSH1 0x1 PUSH1 0xA0 SHL SUB DUP1 DUP6 AND PUSH1 0x0 SWAP1 DUP2 MSTORE PUSH1 0x2 PUSH1 0x20 SWAP1 DUP2 MSTORE PUSH1 0x40 DUP1 DUP4 KECCAK256 SWAP4 DUP10 AND DUP4 MSTORE SWAP3 SWAP1 MSTORE KECCAK256 SLOAD LT PUSH2 0x2883 JUMPI POP PUSH1 0x7 SWAP1 POP PUSH2 0x166F JUMP JUMPDEST PUSH1 0x20 SLOAD PUSH2 0x2891 SWAP1 PUSH1 0x6 PUSH2 0x450B JUMP JUMPDEST PUSH2 0x28A3 SWAP1 PUSH8 0xDE0B6B3A7640000 PUSH2 0x450B JUMP JUMPDEST PUSH1 0x1 PUSH1 0x1 PUSH1 0xA0 SHL SUB DUP1 DUP6 AND PUSH1 0x0 SWAP1 DUP2 MSTORE PUSH1 0x2 PUSH1 0x20 SWAP1 DUP2 MSTORE PUSH1 0x40 DUP1 DUP4 KECCAK256 SWAP4 DUP10 AND DUP4 MSTORE SWAP3 SWAP1 MSTORE KECCAK256 SLOAD LT PUSH2 0x28D8 JUMPI POP PUSH1 0x6 SWAP1 POP PUSH2 0x166F JUMP JUMPDEST PUSH1 0x20 SLOAD PUSH2 0x28E6 SWAP1 PUSH1 0x5 PUSH2 0x450B JUMP JUMPDEST PUSH2 0x28F8 SWAP1 PUSH8 0xDE0B6B3A7640000 PUSH2 0x450B JUMP JUMPDEST PUSH1 0x1 PUSH1 0x1 PUSH1 0xA0 SHL SUB DUP1 DUP6 AND PUSH1 0x0 SWAP1 DUP2 MSTORE PUSH1 0x2 PUSH1 0x20 SWAP1 DUP2 MSTORE PUSH1 0x40 DUP1 DUP4 KECCAK256 SWAP4 DUP10 AND DUP4 MSTORE SWAP3 SWAP1 MSTORE KECCAK256 SLOAD LT PUSH2 0x292D JUMPI POP PUSH1 0x5 SWAP1 POP PUSH2 0x166F JUMP JUMPDEST PUSH1 0x20 SLOAD PUSH2 0x293B SWAP1 PUSH1 0x4 PUSH2 0x450B JUMP JUMPDEST PUSH2 0x294D SWAP1 PUSH8 0xDE0B6B3A7640000 PUSH2 0x450B JUMP JUMPDEST PUSH1 0x1 PUSH1 0x1 PUSH1 0xA0 SHL SUB DUP1 DUP6 AND PUSH1 0x0 SWAP1 DUP2 MSTORE PUSH1 0x2 PUSH1 0x20 SWAP1 DUP2 MSTORE PUSH1 0x40 DUP1 DUP4 KECCAK256 SWAP4 DUP10 AND DUP4 MSTORE SWAP3 SWAP1 MSTORE KECCAK256 SLOAD LT PUSH2 0x2982 JUMPI POP PUSH1 0x4 SWAP1 POP PUSH2 0x166F JUMP JUMPDEST PUSH1 0x20 SLOAD PUSH2 0x2990 SWAP1 PUSH1 0x3 PUSH2 0x450B JUMP JUMPDEST PUSH2 0x29A2 SWAP1 PUSH8 0xDE0B6B3A7640000 PUSH2 0x450B JUMP JUMPDEST PUSH1 0x1 PUSH1 0x1 PUSH1 0xA0 SHL SUB DUP1 DUP6 AND PUSH1 0x0 SWAP1 DUP2 MSTORE PUSH1 0x2 PUSH1 0x20 SWAP1 DUP2 MSTORE PUSH1 0x40 DUP1 DUP4 KECCAK256 SWAP4 DUP10 AND DUP4 MSTORE SWAP3 SWAP1 MSTORE KECCAK256 SLOAD LT PUSH2 0x29D7 JUMPI POP PUSH1 0x3 SWAP1 POP PUSH2 0x166F JUMP JUMPDEST PUSH1 0x20 SLOAD PUSH2 0x29E5 SWAP1 PUSH1 0x2 PUSH2 0x450B JUMP JUMPDEST PUSH2 0x29F7 SWAP1 PUSH8 0xDE0B6B3A7640000 PUSH2 0x450B JUMP JUMPDEST PUSH1 0x1 PUSH1 0x1 PUSH1 0xA0 SHL SUB DUP1 DUP6 AND PUSH1 0x0 SWAP1 DUP2 MSTORE PUSH1 0x2 PUSH1 0x20 SWAP1 DUP2 MSTORE PUSH1 0x40 DUP1 DUP4 KECCAK256 SWAP4 DUP10 AND DUP4 MSTORE SWAP3 SWAP1 MSTORE KECCAK256 SLOAD LT PUSH2 0x2A2C JUMPI POP PUSH1 0x2 SWAP1 POP PUSH2 0x166F JUMP JUMPDEST PUSH1 0x20 SLOAD PUSH2 0x2A3A SWAP1 PUSH1 0x1 PUSH2 0x450B JUMP JUMPDEST PUSH2 0x2A4C SWAP1 PUSH8 0xDE0B6B3A7640000 PUSH2 0x450B JUMP JUMPDEST PUSH1 0x1 PUSH1 0x1 PUSH1 0xA0 SHL SUB DUP1 DUP6 AND PUSH1 0x0 SWAP1 DUP2 MSTORE PUSH1 0x2 PUSH1 0x20 SWAP1 DUP2 MSTORE PUSH1 0x40 DUP1 DUP4 KECCAK256 SWAP4 DUP10 AND DUP4 MSTORE SWAP3 SWAP1 MSTORE KECCAK256 SLOAD LT PUSH2 0x2A81 JUMPI POP PUSH1 0x1 SWAP1 POP PUSH2 0x166F JUMP JUMPDEST POP PUSH1 0x0 SWAP1 POP PUSH2 0x166F JUMP JUMPDEST PUSH1 0x0 DUP1 PUSH2 0x2A99 DUP6 DUP6 DUP6 PUSH2 0x3BDD JUMP JUMPDEST PUSH1 0x0 DUP5 DUP2 MSTORE PUSH1 0x28 PUSH1 0x20 SWAP1 DUP2 MSTORE PUSH1 0x40 DUP1 DUP4 KECCAK256 PUSH1 0x1 PUSH1 0x1 PUSH1 0xA0 SHL SUB DUP11 AND DUP5 MSTORE SWAP1 SWAP2 MSTORE DUP2 KECCAK256 SLOAD SWAP2 SWAP3 POP SWAP1 PUSH2 0x2ACA SWAP1 DUP4 PUSH2 0x462C JUMP JUMPDEST SWAP7 SWAP6 POP POP POP POP POP POP JUMP JUMPDEST PUSH1 0x0 SLOAD PUSH1 0x1 PUSH1 0x1 PUSH1 0xA0 SHL SUB AND CALLER EQ PUSH2 0x2AFE JUMPI PUSH1 0x40 MLOAD PUSH3 0x461BCD PUSH1 0xE5 SHL DUP2 MSTORE PUSH1 0x4 ADD PUSH2 0xEE6 SWAP1 PUSH2 0x44C0 JUMP JUMPDEST PUSH1 0x1 PUSH1 0x1 PUSH1 0xA0 SHL SUB DUP2 AND PUSH1 0x0 DUP2 DUP2 MSTORE PUSH1 0x11 PUSH1 0x20 MSTORE PUSH1 0x40 SWAP1 DUP2 SWAP1 KECCAK256 SLOAD SWAP1 MLOAD PUSH4 0xA9059CBB PUSH1 0xE0 SHL DUP2 MSTORE SWAP1 SWAP2 SWAP1 PUSH4 0xA9059CBB SWAP1 PUSH2 0x2B3E SWAP1 CALLER SWAP1 DUP6 SWAP1 PUSH1 0x4 ADD PUSH2 0x4643 JUMP JUMPDEST PUSH1 0x20 PUSH1 0x40 MLOAD DUP1 DUP4 SUB DUP2 PUSH1 0x0 DUP8 GAS CALL ISZERO DUP1 ISZERO PUSH2 0x2B5D JUMPI RETURNDATASIZE PUSH1 0x0 DUP1 RETURNDATACOPY RETURNDATASIZE PUSH1 0x0 REVERT JUMPDEST POP POP POP POP PUSH1 0x40 MLOAD RETURNDATASIZE PUSH1 0x1F NOT PUSH1 0x1F DUP3 ADD AND DUP3 ADD DUP1 PUSH1 0x40 MSTORE POP DUP2 ADD SWAP1 PUSH2 0x2B81 SWAP2 SWAP1 PUSH2 0x45DE JUMP JUMPDEST POP PUSH1 0x40 MLOAD PUSH4 0x70A08231 PUSH1 0xE0 SHL DUP2 MSTORE ADDRESS PUSH1 0x4 DUP3 ADD MSTORE PUSH8 0xDE0B6B3A7640000 SWAP1 PUSH1 0x1 PUSH1 0x1 PUSH1 0xA0 SHL SUB DUP5 AND SWAP1 PUSH4 0x70A08231 SWAP1 PUSH1 0x24 ADD PUSH1 0x20 PUSH1 0x40 MLOAD DUP1 DUP4 SUB DUP2 DUP7 GAS STATICCALL ISZERO DUP1 ISZERO PUSH2 0x2BD0 JUMPI RETURNDATASIZE PUSH1 0x0 DUP1 RETURNDATACOPY RETURNDATASIZE PUSH1 0x0 REVERT JUMPDEST POP POP POP POP PUSH1 0x40 MLOAD RETURNDATASIZE PUSH1 0x1F NOT PUSH1 0x1F DUP3 ADD AND DUP3 ADD DUP1 PUSH1 0x40 MSTORE POP DUP2 ADD SWAP1 PUSH2 0x2BF4 SWAP2 SWAP1 PUSH2 0x4613 JUMP JUMPDEST PUSH2 0x2BFE SWAP2 SWAP1 PUSH2 0x452A JUMP JUMPDEST PUSH1 0x1D SSTORE POP PUSH1 0x1 PUSH1 0x1 PUSH1 0xA0 SHL SUB AND PUSH1 0x0 SWAP1 DUP2 MSTORE PUSH1 0x11 PUSH1 0x20 MSTORE PUSH1 0x40 DUP2 KECCAK256 SSTORE JUMP JUMPDEST PUSH1 0x1 PUSH1 0x1 PUSH1 0xA0 SHL SUB DUP2 AND PUSH1 0x0 SWAP1 DUP2 MSTORE PUSH1 0x2 PUSH1 0x20 SWAP1 DUP2 MSTORE PUSH1 0x40 DUP1 DUP4 KECCAK256 CALLER DUP5 MSTORE SWAP1 SWAP2 MSTORE SWAP1 KECCAK256 SLOAD DUP3 PUSH2 0x2C5D JUMPI PUSH1 0x40 MLOAD PUSH3 0x461BCD PUSH1 0xE5 SHL DUP2 MSTORE PUSH1 0x4 ADD PUSH2 0xEE6 SWAP1 PUSH2 0x454C JUMP JUMPDEST DUP3 DUP2 LT ISZERO PUSH2 0x2CB9 JUMPI PUSH1 0x40 MLOAD PUSH3 0x461BCD PUSH1 0xE5 SHL DUP2 MSTORE PUSH1 0x20 PUSH1 0x4 DUP3 ADD MSTORE PUSH1 0x23 PUSH1 0x24 DUP3 ADD MSTORE PUSH32 0x596F7520646F6E2774206861766520656E6F756768207374616B656420746F6B PUSH1 0x44 DUP3 ADD MSTORE PUSH3 0x656E73 PUSH1 0xE8 SHL PUSH1 0x64 DUP3 ADD MSTORE PUSH1 0x84 ADD PUSH2 0xEE6 JUMP JUMPDEST PUSH2 0x2CC2 DUP3 PUSH2 0x3ADC JUMP JUMPDEST PUSH2 0x2CDE JUMPI PUSH1 0x40 MLOAD PUSH3 0x461BCD PUSH1 0xE5 SHL DUP2 MSTORE PUSH1 0x4 ADD PUSH2 0xEE6 SWAP1 PUSH2 0x4583 JUMP JUMPDEST CALLER PUSH1 0x0 SWAP1 DUP2 MSTORE PUSH1 0x5 PUSH1 0x20 MSTORE PUSH1 0x40 SWAP1 KECCAK256 SLOAD TIMESTAMP SWAP1 PUSH2 0x2CFD SWAP1 PUSH3 0x49D400 PUSH2 0x45FB JUMP JUMPDEST DUP2 LT ISZERO PUSH2 0x2E4B JUMPI CALLER PUSH1 0x0 SWAP1 DUP2 MSTORE PUSH1 0x5 PUSH1 0x20 MSTORE PUSH1 0x40 SWAP1 KECCAK256 SLOAD PUSH2 0x2D21 SWAP1 PUSH3 0x375F00 PUSH2 0x45FB JUMP JUMPDEST DUP2 LT ISZERO PUSH2 0x2E3C JUMPI CALLER PUSH1 0x0 SWAP1 DUP2 MSTORE PUSH1 0x5 PUSH1 0x20 MSTORE PUSH1 0x40 SWAP1 KECCAK256 SLOAD PUSH2 0x2D45 SWAP1 PUSH3 0x24EA00 PUSH2 0x45FB JUMP JUMPDEST DUP2 LT ISZERO PUSH2 0x2E2D JUMPI CALLER PUSH1 0x0 SWAP1 DUP2 MSTORE PUSH1 0x5 PUSH1 0x20 MSTORE PUSH1 0x40 SWAP1 KECCAK256 SLOAD PUSH2 0x2D69 SWAP1 PUSH3 0x127500 PUSH2 0x45FB JUMP JUMPDEST DUP2 LT ISZERO PUSH2 0x2E1E JUMPI PUSH1 0x0 PUSH1 0x64 PUSH2 0x2D7F DUP7 PUSH1 0x4B PUSH2 0x450B JUMP JUMPDEST PUSH2 0x2D89 SWAP2 SWAP1 PUSH2 0x452A JUMP JUMPDEST PUSH1 0x40 MLOAD PUSH4 0xA9059CBB PUSH1 0xE0 SHL DUP2 MSTORE SWAP1 SWAP2 POP PUSH1 0x1 PUSH1 0x1 PUSH1 0xA0 SHL SUB DUP6 AND SWAP1 PUSH4 0xA9059CBB SWAP1 PUSH2 0x2DBA SWAP1 CALLER SWAP1 DUP6 SWAP1 PUSH1 0x4 ADD PUSH2 0x4643 JUMP JUMPDEST PUSH1 0x20 PUSH1 0x40 MLOAD DUP1 DUP4 SUB DUP2 PUSH1 0x0 DUP8 GAS CALL ISZERO DUP1 ISZERO PUSH2 0x2DD9 JUMPI RETURNDATASIZE PUSH1 0x0 DUP1 RETURNDATACOPY RETURNDATASIZE PUSH1 0x0 REVERT JUMPDEST POP POP POP POP PUSH1 0x40 MLOAD RETURNDATASIZE PUSH1 0x1F NOT PUSH1 0x1F DUP3 ADD AND DUP3 ADD DUP1 PUSH1 0x40 MSTORE POP DUP2 ADD SWAP1 PUSH2 0x2DFD SWAP2 SWAP1 PUSH2 0x45DE JUMP JUMPDEST POP PUSH2 0x2E08 DUP2 DUP7 PUSH2 0x462C JUMP JUMPDEST PUSH1 0x6 SLOAD PUSH2 0x2E15 SWAP2 SWAP1 PUSH2 0x45FB JUMP JUMPDEST PUSH1 0x6 SSTORE POP PUSH2 0x2EBE JUMP JUMPDEST PUSH1 0x0 PUSH1 0x64 PUSH2 0x2D7F DUP7 PUSH1 0x55 PUSH2 0x450B JUMP JUMPDEST PUSH1 0x0 PUSH1 0x64 PUSH2 0x2D7F DUP7 PUSH1 0x5A PUSH2 0x450B JUMP JUMPDEST PUSH1 0x0 PUSH1 0x64 PUSH2 0x2D7F DUP7 PUSH1 0x5F PUSH2 0x450B JUMP JUMPDEST PUSH1 0x40 MLOAD PUSH4 0xA9059CBB PUSH1 0xE0 SHL DUP2 MSTORE PUSH1 0x1 PUSH1 0x1 PUSH1 0xA0 SHL SUB DUP5 AND SWAP1 PUSH4 0xA9059CBB SWAP1 PUSH2 0x2E79 SWAP1 CALLER SWAP1 DUP9 SWAP1 PUSH1 0x4 ADD PUSH2 0x4643 JUMP JUMPDEST PUSH1 0x20 PUSH1 0x40 MLOAD DUP1 DUP4 SUB DUP2 PUSH1 0x0 DUP8 GAS CALL ISZERO DUP1 ISZERO PUSH2 0x2E98 JUMPI RETURNDATASIZE PUSH1 0x0 DUP1 RETURNDATACOPY RETURNDATASIZE PUSH1 0x0 REVERT JUMPDEST POP POP POP POP PUSH1 0x40 MLOAD RETURNDATASIZE PUSH1 0x1F NOT PUSH1 0x1F DUP3 ADD AND DUP3 ADD DUP1 PUSH1 0x40 MSTORE POP DUP2 ADD SWAP1 PUSH2 0x2EBC SWAP2 SWAP1 PUSH2 0x45DE JUMP JUMPDEST POP JUMPDEST PUSH2 0x2EC8 CALLER DUP5 PUSH2 0x2100 JUMP JUMPDEST CALLER PUSH1 0x0 SWAP1 DUP2 MSTORE PUSH1 0x4 PUSH1 0x20 SWAP1 DUP2 MSTORE PUSH1 0x40 DUP1 DUP4 KECCAK256 SWAP4 SWAP1 SWAP4 SSTORE PUSH1 0x3 SWAP1 MSTORE KECCAK256 TIMESTAMP SWAP1 SSTORE PUSH2 0x2EF0 DUP5 DUP4 PUSH2 0x462C JUMP JUMPDEST PUSH1 0x1 PUSH1 0x1 PUSH1 0xA0 SHL SUB DUP5 AND PUSH1 0x0 SWAP1 DUP2 MSTORE PUSH1 0x2 PUSH1 0x20 SWAP1 DUP2 MSTORE PUSH1 0x40 DUP1 DUP4 KECCAK256 CALLER DUP5 MSTORE SWAP1 SWAP2 MSTORE SWAP1 KECCAK256 SSTORE PUSH1 0xB SLOAD PUSH2 0x2F22 SWAP1 DUP6 SWAP1 PUSH2 0x462C JUMP JUMPDEST PUSH1 0xB SSTORE PUSH1 0x1 PUSH1 0x1 PUSH1 0xA0 SHL SUB DUP4 AND PUSH1 0x0 SWAP1 DUP2 MSTORE PUSH1 0x2 PUSH1 0x20 SWAP1 DUP2 MSTORE PUSH1 0x40 DUP1 DUP4 KECCAK256 CALLER DUP5 MSTORE SWAP1 SWAP2 MSTORE SWAP1 KECCAK256 SLOAD PUSH2 0x2F8C JUMPI PUSH1 0x1 PUSH1 0xA SLOAD PUSH2 0x2F5C SWAP2 SWAP1 PUSH2 0x462C JUMP JUMPDEST PUSH1 0xA SSTORE CALLER PUSH1 0x0 SWAP1 DUP2 MSTORE PUSH1 0x7 PUSH1 0x20 MSTORE PUSH1 0x40 SWAP1 KECCAK256 SLOAD PUSH2 0x2F7B SWAP1 PUSH1 0x1 SWAP1 PUSH2 0x462C JUMP JUMPDEST CALLER PUSH1 0x0 SWAP1 DUP2 MSTORE PUSH1 0x7 PUSH1 0x20 MSTORE PUSH1 0x40 SWAP1 KECCAK256 SSTORE JUMPDEST POP POP POP POP JUMP JUMPDEST PUSH1 0x0 SLOAD PUSH1 0x1 PUSH1 0x1 PUSH1 0xA0 SHL SUB AND CALLER EQ PUSH2 0x2FBC JUMPI PUSH1 0x40 MLOAD PUSH3 0x461BCD PUSH1 0xE5 SHL DUP2 MSTORE PUSH1 0x4 ADD PUSH2 0xEE6 SWAP1 PUSH2 0x44C0 JUMP JUMPDEST PUSH1 0x1 PUSH1 0x1 PUSH1 0xA0 SHL SUB SWAP2 DUP3 AND PUSH1 0x0 SWAP1 DUP2 MSTORE PUSH1 0x8 PUSH1 0x20 MSTORE PUSH1 0x40 SWAP1 KECCAK256 DUP1 SLOAD PUSH1 0x1 PUSH1 0x1 PUSH1 0xA0 SHL SUB NOT AND SWAP2 SWAP1 SWAP3 AND OR SWAP1 SSTORE JUMP JUMPDEST PUSH1 0x0 SLOAD PUSH1 0x1 PUSH1 0x1 PUSH1 0xA0 SHL SUB AND CALLER EQ PUSH2 0x3014 JUMPI PUSH1 0x40 MLOAD PUSH3 0x461BCD PUSH1 0xE5 SHL DUP2 MSTORE PUSH1 0x4 ADD PUSH2 0xEE6 SWAP1 PUSH2 0x44C0 JUMP JUMPDEST PUSH1 0x20 SSTORE JUMP JUMPDEST PUSH1 0x0 PUSH2 0x3025 CALLER DUP4 PUSH2 0x2100 JUMP JUMPDEST SWAP1 POP PUSH1 0x0 DUP2 GT PUSH2 0x3034 JUMPI PUSH1 0x0 DUP1 REVERT JUMPDEST PUSH1 0x40 MLOAD PUSH4 0xA9059CBB PUSH1 0xE0 SHL DUP2 MSTORE PUSH1 0x1 PUSH1 0x1 PUSH1 0xA0 SHL SUB DUP4 AND SWAP1 PUSH4 0xA9059CBB SWAP1 PUSH2 0x3062 SWAP1 CALLER SWAP1 DUP6 SWAP1 PUSH1 0x4 ADD PUSH2 0x4643 JUMP JUMPDEST PUSH1 0x20 PUSH1 0x40 MLOAD DUP1 DUP4 SUB DUP2 PUSH1 0x0 DUP8 GAS CALL ISZERO DUP1 ISZERO PUSH2 0x3081 JUMPI RETURNDATASIZE PUSH1 0x0 DUP1 RETURNDATACOPY RETURNDATASIZE PUSH1 0x0 REVERT JUMPDEST POP POP POP POP PUSH1 0x40 MLOAD RETURNDATASIZE PUSH1 0x1F NOT PUSH1 0x1F DUP3 ADD AND DUP3 ADD DUP1 PUSH1 0x40 MSTORE POP DUP2 ADD SWAP1 PUSH2 0x30A5 SWAP2 SWAP1 PUSH2 0x45DE JUMP JUMPDEST POP POP CALLER PUSH1 0x0 SWAP1 DUP2 MSTORE PUSH1 0x4 PUSH1 0x20 SWAP1 DUP2 MSTORE PUSH1 0x40 DUP1 DUP4 KECCAK256 DUP4 SWAP1 SSTORE PUSH1 0x3 SWAP1 SWAP2 MSTORE SWAP1 KECCAK256 TIMESTAMP SWAP1 SSTORE POP JUMP JUMPDEST PUSH1 0x0 DUP1 PUSH1 0x1B PUSH1 0x0 SWAP1 SLOAD SWAP1 PUSH2 0x100 EXP SWAP1 DIV PUSH1 0x1 PUSH1 0x1 PUSH1 0xA0 SHL SUB AND PUSH1 0x1 PUSH1 0x1 PUSH1 0xA0 SHL SUB AND PUSH4 0xFEAF968C PUSH1 0x40 MLOAD DUP2 PUSH4 0xFFFFFFFF AND PUSH1 0xE0 SHL DUP2 MSTORE PUSH1 0x4 ADD PUSH1 0xA0 PUSH1 0x40 MLOAD DUP1 DUP4 SUB DUP2 DUP7 GAS STATICCALL ISZERO DUP1 ISZERO PUSH2 0x311F JUMPI RETURNDATASIZE PUSH1 0x0 DUP1 RETURNDATACOPY RETURNDATASIZE PUSH1 0x0 REVERT JUMPDEST POP POP POP POP PUSH1 0x40 MLOAD RETURNDATASIZE PUSH1 0x1F NOT PUSH1 0x1F DUP3 ADD AND DUP3 ADD DUP1 PUSH1 0x40 MSTORE POP DUP2 ADD SWAP1 PUSH2 0x3143 SWAP2 SWAP1 PUSH2 0x47E3 JUMP JUMPDEST POP POP POP SWAP2 POP POP DUP1 PUSH5 0x2540BE400 PUSH2 0x315A SWAP2 SWAP1 PUSH2 0x4833 JUMP JUMPDEST SWAP2 POP POP SWAP1 JUMP JUMPDEST PUSH1 0x0 SLOAD PUSH1 0x1 PUSH1 0x1 PUSH1 0xA0 SHL SUB AND CALLER EQ PUSH2 0x318A JUMPI PUSH1 0x40 MLOAD PUSH3 0x461BCD PUSH1 0xE5 SHL DUP2 MSTORE PUSH1 0x4 ADD PUSH2 0xEE6 SWAP1 PUSH2 0x44C0 JUMP JUMPDEST PUSH1 0x0 SWAP2 DUP3 MSTORE PUSH1 0x26 PUSH1 0x20 MSTORE PUSH1 0x40 SWAP1 SWAP2 KECCAK256 DUP1 SLOAD PUSH1 0xFF NOT AND SWAP2 ISZERO ISZERO SWAP2 SWAP1 SWAP2 OR SWAP1 SSTORE JUMP JUMPDEST PUSH1 0x0 SLOAD PUSH1 0x1 PUSH1 0x1 PUSH1 0xA0 SHL SUB AND CALLER EQ PUSH2 0x31D4 JUMPI PUSH1 0x40 MLOAD PUSH3 0x461BCD PUSH1 0xE5 SHL DUP2 MSTORE PUSH1 0x4 ADD PUSH2 0xEE6 SWAP1 PUSH2 0x44C0 JUMP JUMPDEST PUSH1 0x65 PUSH1 0x17 SLOAD GT ISZERO PUSH2 0x31E4 JUMPI PUSH1 0x0 DUP1 REVERT JUMPDEST PUSH1 0x65 DUP2 PUSH1 0x17 SLOAD PUSH2 0x31F4 SWAP2 SWAP1 PUSH2 0x45FB JUMP JUMPDEST GT ISZERO PUSH2 0x31FF JUMPI PUSH1 0x0 DUP1 REVERT JUMPDEST DUP1 PUSH1 0x17 SLOAD PUSH2 0x320D SWAP2 SWAP1 PUSH2 0x45FB JUMP JUMPDEST PUSH1 0x17 SSTORE POP JUMP JUMPDEST PUSH1 0x1 PUSH1 0x1 PUSH1 0xA0 SHL SUB DUP2 AND PUSH1 0x0 SWAP1 DUP2 MSTORE PUSH1 0x7 PUSH1 0x20 MSTORE PUSH1 0x40 DUP2 KECCAK256 SLOAD DUP2 SWAP1 PUSH2 0x326E JUMPI PUSH1 0x40 MLOAD PUSH3 0x461BCD PUSH1 0xE5 SHL DUP2 MSTORE PUSH1 0x20 PUSH1 0x4 DUP3 ADD MSTORE PUSH1 0x11 PUSH1 0x24 DUP3 ADD MSTORE PUSH17 0x4E6F20746F6B656E73207374616B656421 PUSH1 0x78 SHL PUSH1 0x44 DUP3 ADD MSTORE PUSH1 0x64 ADD PUSH2 0xEE6 JUMP JUMPDEST PUSH1 0x0 JUMPDEST PUSH1 0xD SLOAD DUP2 LT ISZERO PUSH2 0x32CA JUMPI PUSH2 0x32AC DUP5 PUSH1 0xD DUP4 DUP2 SLOAD DUP2 LT PUSH2 0x3292 JUMPI PUSH2 0x3292 PUSH2 0x4798 JUMP JUMPDEST PUSH1 0x0 SWAP2 DUP3 MSTORE PUSH1 0x20 SWAP1 SWAP2 KECCAK256 ADD SLOAD PUSH1 0x1 PUSH1 0x1 PUSH1 0xA0 SHL SUB AND PUSH2 0x15EE JUMP JUMPDEST PUSH2 0x32B6 SWAP1 DUP4 PUSH2 0x45FB JUMP JUMPDEST SWAP2 POP DUP1 PUSH2 0x32C2 DUP2 PUSH2 0x47AE JUMP JUMPDEST SWAP2 POP POP PUSH2 0x3271 JUMP JUMPDEST POP SWAP3 SWAP2 POP POP JUMP JUMPDEST PUSH1 0x0 DUP1 JUMPDEST PUSH1 0x1A SLOAD DUP2 LT ISZERO PUSH2 0x3332 JUMPI DUP3 PUSH1 0x1 PUSH1 0x1 PUSH1 0xA0 SHL SUB AND PUSH1 0x1A DUP3 DUP2 SLOAD DUP2 LT PUSH2 0x32FC JUMPI PUSH2 0x32FC PUSH2 0x4798 JUMP JUMPDEST PUSH1 0x0 SWAP2 DUP3 MSTORE PUSH1 0x20 SWAP1 SWAP2 KECCAK256 ADD SLOAD PUSH1 0x1 PUSH1 0x1 PUSH1 0xA0 SHL SUB AND EQ ISZERO PUSH2 0x3320 JUMPI POP PUSH1 0x1 SWAP3 SWAP2 POP POP JUMP JUMPDEST DUP1 PUSH2 0x332A DUP2 PUSH2 0x47AE JUMP JUMPDEST SWAP2 POP POP PUSH2 0x32D5 JUMP JUMPDEST POP PUSH1 0x0 SWAP3 SWAP2 POP POP JUMP JUMPDEST PUSH1 0x0 SLOAD PUSH1 0x1 PUSH1 0x1 PUSH1 0xA0 SHL SUB AND CALLER EQ PUSH2 0x3365 JUMPI PUSH1 0x40 MLOAD PUSH3 0x461BCD PUSH1 0xE5 SHL DUP2 MSTORE PUSH1 0x4 ADD PUSH2 0xEE6 SWAP1 PUSH2 0x44C0 JUMP JUMPDEST PUSH1 0x0 SWAP2 DUP3 MSTORE PUSH1 0x1F PUSH1 0x20 MSTORE PUSH1 0x40 SWAP1 SWAP2 KECCAK256 DUP1 SLOAD PUSH1 0xFF NOT AND SWAP2 ISZERO ISZERO SWAP2 SWAP1 SWAP2 OR SWAP1 SSTORE JUMP JUMPDEST PUSH1 0x0 SLOAD PUSH1 0x1 PUSH1 0x1 PUSH1 0xA0 SHL SUB AND CALLER EQ PUSH2 0x33AF JUMPI PUSH1 0x40 MLOAD PUSH3 0x461BCD PUSH1 0xE5 SHL DUP2 MSTORE PUSH1 0x4 ADD PUSH2 0xEE6 SWAP1 PUSH2 0x44C0 JUMP JUMPDEST PUSH1 0x0 SWAP2 DUP3 MSTORE PUSH1 0x24 PUSH1 0x20 MSTORE PUSH1 0x40 SWAP1 SWAP2 KECCAK256 SSTORE JUMP JUMPDEST PUSH1 0x0 SLOAD PUSH1 0x1 PUSH1 0x1 PUSH1 0xA0 SHL SUB AND CALLER EQ PUSH2 0x33EB JUMPI PUSH1 0x40 MLOAD PUSH3 0x461BCD PUSH1 0xE5 SHL DUP2 MSTORE PUSH1 0x4 ADD PUSH2 0xEE6 SWAP1 PUSH2 0x44C0 JUMP JUMPDEST PUSH1 0x0 SWAP2 DUP3 MSTORE PUSH1 0x2A PUSH1 0x20 MSTORE PUSH1 0x40 SWAP1 SWAP2 KECCAK256 SSTORE JUMP JUMPDEST PUSH1 0x1 PUSH1 0x1 PUSH1 0xA0 SHL SUB DUP2 AND PUSH1 0x0 SWAP1 DUP2 MSTORE PUSH1 0x2 PUSH1 0x20 SWAP1 DUP2 MSTORE PUSH1 0x40 DUP1 DUP4 KECCAK256 CALLER DUP5 MSTORE SWAP1 SWAP2 MSTORE SWAP1 KECCAK256 SLOAD DUP1 PUSH2 0x346E JUMPI PUSH1 0x40 MLOAD PUSH3 0x461BCD PUSH1 0xE5 SHL DUP2 MSTORE PUSH1 0x20 PUSH1 0x4 DUP3 ADD MSTORE PUSH1 0x1B PUSH1 0x24 DUP3 ADD MSTORE PUSH32 0x5374616B696E672062616C616E63652063616E6E6F7420626520300000000000 PUSH1 0x44 DUP3 ADD MSTORE PUSH1 0x64 ADD PUSH2 0xEE6 JUMP JUMPDEST PUSH2 0x3477 DUP3 PUSH2 0x3ADC JUMP JUMPDEST PUSH2 0x3493 JUMPI PUSH1 0x40 MLOAD PUSH3 0x461BCD PUSH1 0xE5 SHL DUP2 MSTORE PUSH1 0x4 ADD PUSH2 0xEE6 SWAP1 PUSH2 0x4583 JUMP JUMPDEST CALLER PUSH1 0x0 SWAP1 DUP2 MSTORE PUSH1 0x5 PUSH1 0x20 MSTORE PUSH1 0x40 SWAP1 KECCAK256 SLOAD TIMESTAMP SWAP1 PUSH2 0x34B2 SWAP1 PUSH3 0x49D400 PUSH2 0x45FB JUMP JUMPDEST DUP2 LT ISZERO PUSH2 0x3600 JUMPI CALLER PUSH1 0x0 SWAP1 DUP2 MSTORE PUSH1 0x5 PUSH1 0x20 MSTORE PUSH1 0x40 SWAP1 KECCAK256 SLOAD PUSH2 0x34D6 SWAP1 PUSH3 0x375F00 PUSH2 0x45FB JUMP JUMPDEST DUP2 LT ISZERO PUSH2 0x35F1 JUMPI CALLER PUSH1 0x0 SWAP1 DUP2 MSTORE PUSH1 0x5 PUSH1 0x20 MSTORE PUSH1 0x40 SWAP1 KECCAK256 SLOAD PUSH2 0x34FA SWAP1 PUSH3 0x24EA00 PUSH2 0x45FB JUMP JUMPDEST DUP2 LT ISZERO PUSH2 0x35E2 JUMPI CALLER PUSH1 0x0 SWAP1 DUP2 MSTORE PUSH1 0x5 PUSH1 0x20 MSTORE PUSH1 0x40 SWAP1 KECCAK256 SLOAD PUSH2 0x351E SWAP1 PUSH3 0x127500 PUSH2 0x45FB JUMP JUMPDEST DUP2 LT ISZERO PUSH2 0x35D3 JUMPI PUSH1 0x0 PUSH1 0x64 PUSH2 0x3534 DUP5 PUSH1 0x4B PUSH2 0x450B JUMP JUMPDEST PUSH2 0x353E SWAP2 SWAP1 PUSH2 0x452A JUMP JUMPDEST PUSH1 0x40 MLOAD PUSH4 0xA9059CBB PUSH1 0xE0 SHL DUP2 MSTORE SWAP1 SWAP2 POP PUSH1 0x1 PUSH1 0x1 PUSH1 0xA0 SHL SUB DUP6 AND SWAP1 PUSH4 0xA9059CBB SWAP1 PUSH2 0x356F SWAP1 CALLER SWAP1 DUP6 SWAP1 PUSH1 0x4 ADD PUSH2 0x4643 JUMP JUMPDEST PUSH1 0x20 PUSH1 0x40 MLOAD DUP1 DUP4 SUB DUP2 PUSH1 0x0 DUP8 GAS CALL ISZERO DUP1 ISZERO PUSH2 0x358E JUMPI RETURNDATASIZE PUSH1 0x0 DUP1 RETURNDATACOPY RETURNDATASIZE PUSH1 0x0 REVERT JUMPDEST POP POP POP POP PUSH1 0x40 MLOAD RETURNDATASIZE PUSH1 0x1F NOT PUSH1 0x1F DUP3 ADD AND DUP3 ADD DUP1 PUSH1 0x40 MSTORE POP DUP2 ADD SWAP1 PUSH2 0x35B2 SWAP2 SWAP1 PUSH2 0x45DE JUMP JUMPDEST POP PUSH2 0x35BD DUP2 DUP5 PUSH2 0x462C JUMP JUMPDEST PUSH1 0x6 SLOAD PUSH2 0x35CA SWAP2 SWAP1 PUSH2 0x45FB JUMP JUMPDEST PUSH1 0x6 SSTORE POP PUSH2 0x3673 JUMP JUMPDEST PUSH1 0x0 PUSH1 0x64 PUSH2 0x3534 DUP5 PUSH1 0x55 PUSH2 0x450B JUMP JUMPDEST PUSH1 0x0 PUSH1 0x64 PUSH2 0x3534 DUP5 PUSH1 0x5A PUSH2 0x450B JUMP JUMPDEST PUSH1 0x0 PUSH1 0x64 PUSH2 0x3534 DUP5 PUSH1 0x5F PUSH2 0x450B JUMP JUMPDEST PUSH1 0x40 MLOAD PUSH4 0xA9059CBB PUSH1 0xE0 SHL DUP2 MSTORE PUSH1 0x1 PUSH1 0x1 PUSH1 0xA0 SHL SUB DUP5 AND SWAP1 PUSH4 0xA9059CBB SWAP1 PUSH2 0x362E SWAP1 CALLER SWAP1 DUP7 SWAP1 PUSH1 0x4 ADD PUSH2 0x4643 JUMP JUMPDEST PUSH1 0x20 PUSH1 0x40 MLOAD DUP1 DUP4 SUB DUP2 PUSH1 0x0 DUP8 GAS CALL ISZERO DUP1 ISZERO PUSH2 0x364D JUMPI RETURNDATASIZE PUSH1 0x0 DUP1 RETURNDATACOPY RETURNDATASIZE PUSH1 0x0 REVERT JUMPDEST POP POP POP POP PUSH1 0x40 MLOAD RETURNDATASIZE PUSH1 0x1F NOT PUSH1 0x1F DUP3 ADD AND DUP3 ADD DUP1 PUSH1 0x40 MSTORE POP DUP2 ADD SWAP1 PUSH2 0x3671 SWAP2 SWAP1 PUSH2 0x45DE JUMP JUMPDEST POP JUMPDEST PUSH2 0x367D CALLER DUP5 PUSH2 0x2100 JUMP JUMPDEST CALLER PUSH1 0x0 SWAP1 DUP2 MSTORE PUSH1 0x4 PUSH1 0x20 SWAP1 DUP2 MSTORE PUSH1 0x40 DUP1 DUP4 KECCAK256 SWAP4 SWAP1 SWAP4 SSTORE PUSH1 0x3 SWAP1 MSTORE KECCAK256 TIMESTAMP SWAP1 SSTORE PUSH1 0xB SLOAD PUSH2 0x36A9 SWAP1 DUP4 SWAP1 PUSH2 0x462C JUMP JUMPDEST PUSH1 0xB SSTORE PUSH1 0x1 PUSH1 0x1 PUSH1 0xA0 SHL SUB DUP4 AND PUSH1 0x0 SWAP1 DUP2 MSTORE PUSH1 0x2 PUSH1 0x20 SWAP1 DUP2 MSTORE PUSH1 0x40 DUP1 DUP4 KECCAK256 CALLER DUP5 MSTORE DUP3 MSTORE DUP1 DUP4 KECCAK256 DUP4 SWAP1 SSTORE PUSH1 0x7 SWAP1 SWAP2 MSTORE SWAP1 KECCAK256 SLOAD PUSH2 0x36E6 SWAP1 PUSH1 0x1 SWAP1 PUSH2 0x462C JUMP JUMPDEST CALLER PUSH1 0x0 SWAP1 DUP2 MSTORE PUSH1 0x7 PUSH1 0x20 MSTORE PUSH1 0x40 SWAP1 KECCAK256 SSTORE PUSH1 0xA SLOAD PUSH2 0x3705 SWAP1 PUSH1 0x1 SWAP1 PUSH2 0x462C JUMP JUMPDEST PUSH1 0xA SSTORE POP POP POP JUMP JUMPDEST PUSH1 0x0 SLOAD PUSH1 0x1 PUSH1 0x1 PUSH1 0xA0 SHL SUB AND CALLER EQ PUSH2 0x3737 JUMPI PUSH1 0x40 MLOAD PUSH3 0x461BCD PUSH1 0xE5 SHL DUP2 MSTORE PUSH1 0x4 ADD PUSH2 0xEE6 SWAP1 PUSH2 0x44C0 JUMP JUMPDEST PUSH1 0x0 DUP3 DUP2 MSTORE PUSH1 0x30 PUSH1 0x20 MSTORE PUSH1 0x40 SWAP1 KECCAK256 SLOAD PUSH2 0x3751 SWAP1 DUP3 SWAP1 PUSH2 0x45FB JUMP JUMPDEST PUSH1 0x0 SWAP3 DUP4 MSTORE PUSH1 0x30 PUSH1 0x20 MSTORE PUSH1 0x40 SWAP1 SWAP3 KECCAK256 SWAP2 SWAP1 SWAP2 SSTORE POP JUMP JUMPDEST PUSH1 0x0 SLOAD PUSH1 0x1 PUSH1 0x1 PUSH1 0xA0 SHL SUB AND CALLER EQ PUSH2 0x3791 JUMPI PUSH1 0x40 MLOAD PUSH3 0x461BCD PUSH1 0xE5 SHL DUP2 MSTORE PUSH1 0x4 ADD PUSH2 0xEE6 SWAP1 PUSH2 0x44C0 JUMP JUMPDEST PUSH1 0x40 MLOAD PUSH4 0xA9059CBB PUSH1 0xE0 SHL DUP2 MSTORE PUSH1 0x1 PUSH1 0x1 PUSH1 0xA0 SHL SUB DUP4 AND SWAP1 PUSH4 0xA9059CBB SWAP1 PUSH2 0x1F48 SWAP1 CALLER SWAP1 DUP6 SWAP1 PUSH1 0x4 ADD PUSH2 0x4643 JUMP JUMPDEST PUSH1 0x0 DUP2 DUP2 MSTORE PUSH1 0x26 PUSH1 0x20 MSTORE PUSH1 0x40 SWAP1 KECCAK256 SLOAD PUSH1 0xFF AND ISZERO ISZERO PUSH1 0x1 EQ PUSH2 0x37DF JUMPI PUSH1 0x0 DUP1 REVERT JUMPDEST PUSH1 0x1 PUSH1 0x1 PUSH1 0xA0 SHL SUB DUP4 AND PUSH1 0x0 SWAP1 DUP2 MSTORE PUSH1 0x2 PUSH1 0x20 SWAP1 DUP2 MSTORE PUSH1 0x40 DUP1 DUP4 KECCAK256 CALLER DUP5 MSTORE SWAP1 SWAP2 MSTORE SWAP1 KECCAK256 SLOAD PUSH9 0x5150AE84A8CDF00000 GT ISZERO PUSH2 0x3818 JUMPI PUSH1 0x0 DUP1 REVERT JUMPDEST PUSH1 0x0 PUSH2 0x3824 CALLER DUP6 PUSH2 0x2130 JUMP JUMPDEST GT PUSH2 0x382E JUMPI PUSH1 0x0 DUP1 REVERT JUMPDEST PUSH1 0x0 DUP2 DUP2 MSTORE PUSH1 0x24 PUSH1 0x20 MSTORE PUSH1 0x40 SWAP1 KECCAK256 SLOAD PUSH2 0x3846 JUMPI PUSH1 0x0 DUP1 REVERT JUMPDEST PUSH1 0x0 DUP5 GT PUSH2 0x3866 JUMPI PUSH1 0x40 MLOAD PUSH3 0x461BCD PUSH1 0xE5 SHL DUP2 MSTORE PUSH1 0x4 ADD PUSH2 0xEE6 SWAP1 PUSH2 0x454C JUMP JUMPDEST PUSH2 0x386F DUP3 PUSH2 0x32D1 JUMP JUMPDEST PUSH2 0x388B JUMPI PUSH1 0x40 MLOAD PUSH3 0x461BCD PUSH1 0xE5 SHL DUP2 MSTORE PUSH1 0x4 ADD PUSH2 0xEE6 SWAP1 PUSH2 0x4583 JUMP JUMPDEST PUSH1 0x0 DUP2 DUP2 MSTORE PUSH1 0x24 PUSH1 0x20 SWAP1 DUP2 MSTORE PUSH1 0x40 DUP1 DUP4 KECCAK256 SLOAD PUSH1 0x2C DUP4 MSTORE DUP2 DUP5 KECCAK256 PUSH1 0x1 PUSH1 0x1 PUSH1 0xA0 SHL SUB DUP8 AND DUP6 MSTORE SWAP1 SWAP3 MSTORE SWAP1 SWAP2 KECCAK256 SLOAD LT PUSH2 0x38C1 JUMPI PUSH1 0x0 DUP1 REVERT JUMPDEST PUSH1 0x0 PUSH2 0x38CE CALLER DUP6 DUP5 PUSH2 0x3BDD JUMP JUMPDEST PUSH1 0x0 DUP4 DUP2 MSTORE PUSH1 0x28 PUSH1 0x20 SWAP1 DUP2 MSTORE PUSH1 0x40 DUP1 DUP4 KECCAK256 CALLER DUP5 MSTORE SWAP1 SWAP2 MSTORE DUP2 KECCAK256 SLOAD SWAP2 SWAP3 POP SWAP1 PUSH2 0x38F6 SWAP1 DUP4 PUSH2 0x462C JUMP JUMPDEST SWAP1 POP PUSH1 0x0 DUP2 GT PUSH2 0x3905 JUMPI PUSH1 0x0 DUP1 REVERT JUMPDEST DUP1 DUP7 GT ISZERO PUSH2 0x3912 JUMPI PUSH1 0x0 DUP1 REVERT JUMPDEST PUSH1 0x40 MLOAD PUSH4 0x23B872DD PUSH1 0xE0 SHL DUP2 MSTORE PUSH1 0x1 PUSH1 0x1 PUSH1 0xA0 SHL SUB DUP6 AND SWAP1 PUSH4 0x23B872DD SWAP1 PUSH2 0x3942 SWAP1 CALLER SWAP1 ADDRESS SWAP1 DUP12 SWAP1 PUSH1 0x4 ADD PUSH2 0x45BA JUMP JUMPDEST PUSH1 0x20 PUSH1 0x40 MLOAD DUP1 DUP4 SUB DUP2 PUSH1 0x0 DUP8 GAS CALL ISZERO DUP1 ISZERO PUSH2 0x3961 JUMPI RETURNDATASIZE PUSH1 0x0 DUP1 RETURNDATACOPY RETURNDATASIZE PUSH1 0x0 REVERT JUMPDEST POP POP POP POP PUSH1 0x40 MLOAD RETURNDATASIZE PUSH1 0x1F NOT PUSH1 0x1F DUP3 ADD AND DUP3 ADD DUP1 PUSH1 0x40 MSTORE POP DUP2 ADD SWAP1 PUSH2 0x3985 SWAP2 SWAP1 PUSH2 0x45DE JUMP JUMPDEST POP PUSH2 0x3990 CALLER DUP5 PUSH2 0x4275 JUMP JUMPDEST PUSH1 0x0 DUP4 DUP2 MSTORE PUSH1 0x28 PUSH1 0x20 SWAP1 DUP2 MSTORE PUSH1 0x40 DUP1 DUP4 KECCAK256 CALLER DUP5 MSTORE SWAP1 SWAP2 MSTORE SWAP1 KECCAK256 SLOAD PUSH2 0x39B5 SWAP1 DUP8 SWAP1 PUSH2 0x45FB JUMP JUMPDEST PUSH1 0x0 DUP5 DUP2 MSTORE PUSH1 0x28 PUSH1 0x20 SWAP1 DUP2 MSTORE PUSH1 0x40 DUP1 DUP4 KECCAK256 CALLER DUP5 MSTORE DUP3 MSTORE DUP1 DUP4 KECCAK256 SWAP4 SWAP1 SWAP4 SSTORE DUP6 DUP3 MSTORE PUSH1 0x2A SWAP1 MSTORE KECCAK256 SLOAD PUSH2 0x39E5 SWAP1 DUP8 PUSH2 0x450B JUMP JUMPDEST PUSH1 0x0 DUP5 DUP2 MSTORE PUSH1 0x2E PUSH1 0x20 SWAP1 DUP2 MSTORE PUSH1 0x40 DUP1 DUP4 KECCAK256 CALLER DUP5 MSTORE SWAP1 SWAP2 MSTORE SWAP1 KECCAK256 SLOAD PUSH2 0x3A09 SWAP2 SWAP1 PUSH2 0x45FB JUMP JUMPDEST PUSH1 0x0 DUP5 DUP2 MSTORE PUSH1 0x2E PUSH1 0x20 SWAP1 DUP2 MSTORE PUSH1 0x40 DUP1 DUP4 KECCAK256 CALLER DUP5 MSTORE DUP3 MSTORE DUP1 DUP4 KECCAK256 SWAP4 SWAP1 SWAP4 SSTORE DUP6 DUP3 MSTORE PUSH1 0x2B DUP2 MSTORE DUP3 DUP3 KECCAK256 PUSH1 0x1 PUSH1 0x1 PUSH1 0xA0 SHL SUB DUP9 AND DUP4 MSTORE SWAP1 MSTORE KECCAK256 SLOAD PUSH2 0x3A4B SWAP1 DUP8 SWAP1 PUSH2 0x45FB JUMP JUMPDEST PUSH1 0x0 DUP5 DUP2 MSTORE PUSH1 0x2B PUSH1 0x20 SWAP1 DUP2 MSTORE PUSH1 0x40 DUP1 DUP4 KECCAK256 PUSH1 0x1 PUSH1 0x1 PUSH1 0xA0 SHL SUB DUP10 AND DUP1 DUP6 MSTORE SWAP1 DUP4 MSTORE DUP2 DUP5 KECCAK256 SWAP5 SWAP1 SWAP5 SSTORE DUP7 DUP4 MSTORE PUSH1 0x2C DUP3 MSTORE DUP1 DUP4 KECCAK256 SWAP4 DUP4 MSTORE SWAP3 SWAP1 MSTORE KECCAK256 SLOAD PUSH2 0x3A90 SWAP1 DUP8 SWAP1 PUSH2 0x45FB JUMP JUMPDEST PUSH1 0x0 DUP5 DUP2 MSTORE PUSH1 0x2C PUSH1 0x20 SWAP1 DUP2 MSTORE PUSH1 0x40 DUP1 DUP4 KECCAK256 PUSH1 0x1 PUSH1 0x1 PUSH1 0xA0 SHL SUB DUP10 AND DUP5 MSTORE SWAP1 SWAP2 MSTORE SWAP1 KECCAK256 SSTORE PUSH1 0x13 SLOAD PUSH2 0x3AC1 SWAP1 DUP8 SWAP1 PUSH2 0x45FB JUMP JUMPDEST PUSH1 0x13 SSTORE POP POP POP POP POP POP JUMP JUMPDEST PUSH1 0x9 DUP2 DUP2 SLOAD DUP2 LT PUSH2 0x1685 JUMPI PUSH1 0x0 DUP1 REVERT JUMPDEST PUSH1 0x0 DUP1 JUMPDEST PUSH1 0xD SLOAD DUP2 LT ISZERO PUSH2 0x3332 JUMPI DUP3 PUSH1 0x1 PUSH1 0x1 PUSH1 0xA0 SHL SUB AND PUSH1 0xD DUP3 DUP2 SLOAD DUP2 LT PUSH2 0x3B07 JUMPI PUSH2 0x3B07 PUSH2 0x4798 JUMP JUMPDEST PUSH1 0x0 SWAP2 DUP3 MSTORE PUSH1 0x20 SWAP1 SWAP2 KECCAK256 ADD SLOAD PUSH1 0x1 PUSH1 0x1 PUSH1 0xA0 SHL SUB AND EQ ISZERO PUSH2 0x3B2B JUMPI POP PUSH1 0x1 SWAP3 SWAP2 POP POP JUMP JUMPDEST DUP1 PUSH2 0x3B35 DUP2 PUSH2 0x47AE JUMP JUMPDEST SWAP2 POP POP PUSH2 0x3AE0 JUMP JUMPDEST PUSH1 0x0 DUP1 SLOAD PUSH1 0x1 PUSH1 0x1 PUSH1 0xA0 SHL SUB AND CALLER EQ PUSH2 0x3B68 JUMPI PUSH1 0x40 MLOAD PUSH3 0x461BCD PUSH1 0xE5 SHL DUP2 MSTORE PUSH1 0x4 ADD PUSH2 0xEE6 SWAP1 PUSH2 0x44C0 JUMP JUMPDEST PUSH1 0x40 MLOAD PUSH4 0x70A08231 PUSH1 0xE0 SHL DUP2 MSTORE ADDRESS PUSH1 0x4 DUP3 ADD MSTORE PUSH1 0x1 PUSH1 0x1 PUSH1 0xA0 SHL SUB DUP4 AND SWAP1 PUSH4 0x70A08231 SWAP1 PUSH1 0x24 ADD PUSH1 0x20 PUSH1 0x40 MLOAD DUP1 DUP4 SUB DUP2 DUP7 GAS STATICCALL ISZERO DUP1 ISZERO PUSH2 0x3BAC JUMPI RETURNDATASIZE PUSH1 0x0 DUP1 RETURNDATACOPY RETURNDATASIZE PUSH1 0x0 REVERT JUMPDEST POP POP POP POP PUSH1 0x40 MLOAD RETURNDATASIZE PUSH1 0x1F NOT PUSH1 0x1F DUP3 ADD AND DUP3 ADD DUP1 PUSH1 0x40 MSTORE POP DUP2 ADD SWAP1 PUSH2 0x3BD0 SWAP2 SWAP1 PUSH2 0x4613 JUMP JUMPDEST PUSH1 0x1D DUP2 SWAP1 SSTORE SWAP1 POP JUMPDEST SWAP2 SWAP1 POP JUMP JUMPDEST PUSH1 0x0 DUP2 DUP2 MSTORE PUSH1 0x25 PUSH1 0x20 MSTORE PUSH1 0x40 DUP2 KECCAK256 SLOAD PUSH1 0xFF AND ISZERO ISZERO PUSH1 0x1 EQ PUSH2 0x3BFD JUMPI PUSH1 0x0 DUP1 REVERT JUMPDEST PUSH1 0x0 DUP3 DUP2 MSTORE PUSH1 0x24 PUSH1 0x20 MSTORE PUSH1 0x40 SWAP1 KECCAK256 SLOAD PUSH2 0x3C15 JUMPI PUSH1 0x0 DUP1 REVERT JUMPDEST PUSH1 0x0 PUSH1 0x1 JUMPDEST PUSH1 0x1D DUP2 LT ISZERO PUSH2 0x3C69 JUMPI PUSH1 0x0 DUP2 DUP2 MSTORE PUSH1 0x21 PUSH1 0x20 SWAP1 DUP2 MSTORE PUSH1 0x40 DUP1 DUP4 KECCAK256 SLOAD PUSH1 0x1E SWAP1 SWAP3 MSTORE DUP3 KECCAK256 SLOAD PUSH2 0x3C47 SWAP2 SWAP1 PUSH2 0x450B JUMP JUMPDEST SWAP1 POP PUSH2 0x3C53 DUP2 DUP5 PUSH2 0x45FB JUMP JUMPDEST SWAP3 POP POP DUP1 DUP1 PUSH2 0x3C61 SWAP1 PUSH2 0x47AE JUMP JUMPDEST SWAP2 POP POP PUSH2 0x3C1A JUMP JUMPDEST POP PUSH1 0x0 DUP4 DUP2 MSTORE PUSH1 0x24 PUSH1 0x20 MSTORE PUSH1 0x40 DUP2 KECCAK256 SLOAD PUSH2 0x3C84 SWAP1 DUP4 SWAP1 PUSH2 0x452A JUMP JUMPDEST SWAP1 POP PUSH1 0x0 PUSH2 0x3C92 DUP8 DUP8 PUSH2 0x2130 JUMP JUMPDEST PUSH1 0x0 DUP2 DUP2 MSTORE PUSH1 0x21 PUSH1 0x20 SWAP1 DUP2 MSTORE PUSH1 0x40 DUP1 DUP4 KECCAK256 SLOAD PUSH1 0x1E SWAP1 SWAP3 MSTORE DUP3 KECCAK256 SLOAD SWAP3 SWAP4 POP SWAP2 SWAP1 DUP3 DUP6 PUSH2 0x3CBD DUP3 DUP6 PUSH2 0x450B JUMP JUMPDEST PUSH2 0x3CC7 SWAP2 SWAP1 PUSH2 0x450B JUMP JUMPDEST PUSH2 0x1786 SWAP2 SWAP1 PUSH2 0x452A JUMP JUMPDEST PUSH1 0x19 DUP2 DUP2 SLOAD DUP2 LT PUSH2 0x1685 JUMPI PUSH1 0x0 DUP1 REVERT JUMPDEST PUSH1 0x1 PUSH1 0x1 PUSH1 0xA0 SHL SUB DUP1 DUP3 AND PUSH1 0x0 SWAP1 DUP2 MSTORE PUSH1 0x8 PUSH1 0x20 MSTORE PUSH1 0x40 DUP1 DUP3 KECCAK256 SLOAD DUP2 MLOAD PUSH4 0x3FABE5A3 PUSH1 0xE2 SHL DUP2 MSTORE SWAP2 MLOAD SWAP3 SWAP4 DUP5 SWAP4 SWAP2 AND SWAP2 DUP3 SWAP2 DUP5 SWAP2 DUP4 SWAP2 PUSH4 0xFEAF968C SWAP2 PUSH1 0x4 DUP1 DUP3 ADD SWAP3 PUSH1 0xA0 SWAP3 SWAP1 SWAP2 SWAP1 DUP3 SWAP1 SUB ADD DUP2 DUP7 GAS STATICCALL ISZERO DUP1 ISZERO PUSH2 0x3D42 JUMPI RETURNDATASIZE PUSH1 0x0 DUP1 RETURNDATACOPY RETURNDATASIZE PUSH1 0x0 REVERT JUMPDEST POP POP POP POP PUSH1 0x40 MLOAD RETURNDATASIZE PUSH1 0x1F NOT PUSH1 0x1F DUP3 ADD AND DUP3 ADD DUP1 PUSH1 0x40 MSTORE POP DUP2 ADD SWAP1 PUSH2 0x3D66 SWAP2 SWAP1 PUSH2 0x47E3 JUMP JUMPDEST POP POP POP SWAP2 POP POP PUSH1 0x0 DUP3 PUSH1 0x1 PUSH1 0x1 PUSH1 0xA0 SHL SUB AND PUSH4 0x313CE567 PUSH1 0x40 MLOAD DUP2 PUSH4 0xFFFFFFFF AND PUSH1 0xE0 SHL DUP2 MSTORE PUSH1 0x4 ADD PUSH1 0x20 PUSH1 0x40 MLOAD DUP1 DUP4 SUB DUP2 DUP7 GAS STATICCALL ISZERO DUP1 ISZERO PUSH2 0x3DAC JUMPI RETURNDATASIZE PUSH1 0x0 DUP1 RETURNDATACOPY RETURNDATASIZE PUSH1 0x0 REVERT JUMPDEST POP POP POP POP PUSH1 0x40 MLOAD RETURNDATASIZE PUSH1 0x1F NOT PUSH1 0x1F DUP3 ADD AND DUP3 ADD DUP1 PUSH1 0x40 MSTORE POP DUP2 ADD SWAP1 PUSH2 0x3DD0 SWAP2 SWAP1 PUSH2 0x48B8 JUMP JUMPDEST SWAP2 SWAP8 PUSH1 0xFF SWAP1 SWAP3 AND SWAP7 POP SWAP1 SWAP5 POP POP POP POP POP JUMP JUMPDEST PUSH1 0x0 DUP2 DUP2 MSTORE PUSH1 0x27 PUSH1 0x20 MSTORE PUSH1 0x40 SWAP1 KECCAK256 SLOAD PUSH1 0xFF AND ISZERO ISZERO PUSH1 0x1 EQ PUSH2 0x3E02 JUMPI PUSH1 0x0 DUP1 REVERT JUMPDEST PUSH1 0x0 DUP2 DUP2 MSTORE PUSH1 0x2E PUSH1 0x20 SWAP1 DUP2 MSTORE PUSH1 0x40 DUP1 DUP4 KECCAK256 CALLER DUP1 DUP6 MSTORE SWAP1 DUP4 MSTORE DUP2 DUP5 KECCAK256 SLOAD DUP6 DUP6 MSTORE PUSH1 0x2F DUP5 MSTORE DUP3 DUP6 KECCAK256 SWAP2 DUP6 MSTORE SWAP3 MSTORE DUP3 KECCAK256 SLOAD SWAP1 SWAP2 PUSH2 0x3E3C DUP3 DUP5 PUSH2 0x462C JUMP JUMPDEST PUSH1 0x0 DUP6 DUP2 MSTORE PUSH1 0x30 PUSH1 0x20 MSTORE PUSH1 0x40 DUP2 KECCAK256 SLOAD SWAP2 SWAP3 POP SWAP1 PUSH1 0x64 SWAP1 PUSH2 0x3E5D SWAP1 DUP7 SWAP1 PUSH2 0x450B JUMP JUMPDEST PUSH2 0x3E67 SWAP2 SWAP1 PUSH2 0x452A JUMP JUMPDEST SWAP1 POP PUSH1 0x0 PUSH2 0x3E75 DUP5 DUP4 PUSH2 0x462C JUMP JUMPDEST SWAP1 POP PUSH1 0x0 DUP6 GT PUSH2 0x3E84 JUMPI PUSH1 0x0 DUP1 REVERT JUMPDEST PUSH1 0x0 DUP2 GT PUSH2 0x3E91 JUMPI PUSH1 0x0 DUP1 REVERT JUMPDEST DUP5 DUP5 LT PUSH2 0x3E9D JUMPI PUSH1 0x0 DUP1 REVERT JUMPDEST PUSH1 0x0 DUP7 DUP2 MSTORE PUSH1 0x31 PUSH1 0x20 MSTORE PUSH1 0x40 SWAP1 DUP2 SWAP1 KECCAK256 SLOAD SWAP1 MLOAD PUSH4 0xA9059CBB PUSH1 0xE0 SHL DUP2 MSTORE PUSH1 0x1 PUSH1 0x1 PUSH1 0xA0 SHL SUB SWAP1 SWAP2 AND SWAP1 PUSH4 0xA9059CBB SWAP1 PUSH2 0x3EDC SWAP1 CALLER SWAP1 DUP6 SWAP1 PUSH1 0x4 ADD PUSH2 0x4643 JUMP JUMPDEST PUSH1 0x20 PUSH1 0x40 MLOAD DUP1 DUP4 SUB DUP2 PUSH1 0x0 DUP8 GAS CALL ISZERO DUP1 ISZERO PUSH2 0x3EFB JUMPI RETURNDATASIZE PUSH1 0x0 DUP1 RETURNDATACOPY RETURNDATASIZE PUSH1 0x0 REVERT JUMPDEST POP POP POP POP PUSH1 0x40 MLOAD RETURNDATASIZE PUSH1 0x1F NOT PUSH1 0x1F DUP3 ADD AND DUP3 ADD DUP1 PUSH1 0x40 MSTORE POP DUP2 ADD SWAP1 PUSH2 0x3F1F SWAP2 SWAP1 PUSH2 0x45DE JUMP JUMPDEST POP PUSH1 0x0 DUP7 DUP2 MSTORE PUSH1 0x2F PUSH1 0x20 SWAP1 DUP2 MSTORE PUSH1 0x40 DUP1 DUP4 KECCAK256 CALLER DUP5 MSTORE SWAP1 SWAP2 MSTORE SWAP1 KECCAK256 SLOAD PUSH2 0x3F45 SWAP1 DUP3 SWAP1 PUSH2 0x45FB JUMP JUMPDEST PUSH1 0x0 SWAP7 DUP8 MSTORE PUSH1 0x2F PUSH1 0x20 SWAP1 DUP2 MSTORE PUSH1 0x40 DUP1 DUP10 KECCAK256 CALLER DUP11 MSTORE SWAP1 SWAP2 MSTORE SWAP1 SWAP7 KECCAK256 SWAP6 SWAP1 SWAP6 SSTORE POP POP POP POP POP JUMP JUMPDEST PUSH1 0x0 SLOAD PUSH1 0x1 PUSH1 0x1 PUSH1 0xA0 SHL SUB AND CALLER EQ PUSH2 0x3F94 JUMPI PUSH1 0x40 MLOAD PUSH3 0x461BCD PUSH1 0xE5 SHL DUP2 MSTORE PUSH1 0x4 ADD PUSH2 0xEE6 SWAP1 PUSH2 0x44C0 JUMP JUMPDEST PUSH1 0x1 PUSH1 0x1 PUSH1 0xA0 SHL SUB DUP2 AND PUSH2 0x3FF9 JUMPI PUSH1 0x40 MLOAD PUSH3 0x461BCD PUSH1 0xE5 SHL DUP2 MSTORE PUSH1 0x20 PUSH1 0x4 DUP3 ADD MSTORE PUSH1 0x26 PUSH1 0x24 DUP3 ADD MSTORE PUSH32 0x4F776E61626C653A206E6577206F776E657220697320746865207A65726F2061 PUSH1 0x44 DUP3 ADD MSTORE PUSH6 0x646472657373 PUSH1 0xD0 SHL PUSH1 0x64 DUP3 ADD MSTORE PUSH1 0x84 ADD PUSH2 0xEE6 JUMP JUMPDEST PUSH2 0x1E15 DUP2 PUSH2 0x4225 JUMP JUMPDEST PUSH1 0x0 DUP2 DUP2 MSTORE PUSH1 0x2E PUSH1 0x20 SWAP1 DUP2 MSTORE PUSH1 0x40 DUP1 DUP4 KECCAK256 PUSH1 0x1 PUSH1 0x1 PUSH1 0xA0 SHL SUB DUP7 AND DUP1 DUP6 MSTORE SWAP1 DUP4 MSTORE DUP2 DUP5 KECCAK256 SLOAD DUP6 DUP6 MSTORE PUSH1 0x2F DUP5 MSTORE DUP3 DUP6 KECCAK256 SWAP2 DUP6 MSTORE SWAP1 DUP4 MSTORE DUP2 DUP5 KECCAK256 SLOAD DUP6 DUP6 MSTORE PUSH1 0x30 SWAP1 SWAP4 MSTORE SWAP1 DUP4 KECCAK256 SLOAD SWAP1 SWAP2 SWAP1 DUP4 SWAP1 PUSH1 0x64 SWAP1 PUSH2 0x405A SWAP1 DUP6 SWAP1 PUSH2 0x450B JUMP JUMPDEST PUSH2 0x4064 SWAP2 SWAP1 PUSH2 0x452A JUMP JUMPDEST SWAP1 POP PUSH1 0x0 PUSH2 0x4072 DUP4 DUP4 PUSH2 0x462C JUMP JUMPDEST SWAP9 SWAP8 POP POP POP POP POP POP POP POP JUMP JUMPDEST PUSH1 0x0 SLOAD PUSH1 0x1 PUSH1 0x1 PUSH1 0xA0 SHL SUB AND CALLER EQ PUSH2 0x40A8 JUMPI PUSH1 0x40 MLOAD PUSH3 0x461BCD PUSH1 0xE5 SHL DUP2 MSTORE PUSH1 0x4 ADD PUSH2 0xEE6 SWAP1 PUSH2 0x44C0 JUMP JUMPDEST PUSH1 0x0 SWAP2 DUP3 MSTORE PUSH1 0x27 PUSH1 0x20 MSTORE PUSH1 0x40 SWAP1 SWAP2 KECCAK256 DUP1 SLOAD PUSH1 0xFF NOT AND SWAP2 ISZERO ISZERO SWAP2 SWAP1 SWAP2 OR SWAP1 SSTORE JUMP JUMPDEST PUSH1 0xC DUP2 DUP2 SLOAD DUP2 LT PUSH2 0x1685 JUMPI PUSH1 0x0 DUP1 REVERT JUMPDEST PUSH1 0x2D PUSH1 0x20 MSTORE DUP2 PUSH1 0x0 MSTORE PUSH1 0x40 PUSH1 0x0 KECCAK256 DUP2 DUP2 SLOAD DUP2 LT PUSH2 0x40F4 JUMPI PUSH1 0x0 DUP1 REVERT JUMPDEST PUSH1 0x0 SWAP2 DUP3 MSTORE PUSH1 0x20 SWAP1 SWAP2 KECCAK256 ADD SLOAD PUSH1 0x1 PUSH1 0x1 PUSH1 0xA0 SHL SUB AND SWAP2 POP DUP3 SWAP1 POP JUMP JUMPDEST PUSH1 0x1 PUSH1 0x1 PUSH1 0xA0 SHL SUB DUP1 DUP3 AND PUSH1 0x0 SWAP1 DUP2 MSTORE PUSH1 0x2 PUSH1 0x20 SWAP1 DUP2 MSTORE PUSH1 0x40 DUP1 DUP4 KECCAK256 SWAP4 DUP7 AND DUP4 MSTORE SWAP3 SWAP1 MSTORE KECCAK256 SLOAD PUSH2 0x10EF JUMPI PUSH1 0x1 PUSH1 0x1 PUSH1 0xA0 SHL SUB DUP3 AND PUSH1 0x0 SWAP1 DUP2 MSTORE PUSH1 0x7 PUSH1 0x20 MSTORE PUSH1 0x40 SWAP1 KECCAK256 SLOAD PUSH2 0x415E SWAP1 PUSH1 0x1 PUSH2 0x45FB JUMP JUMPDEST PUSH1 0x1 PUSH1 0x1 PUSH1 0xA0 SHL SUB DUP4 AND PUSH1 0x0 SWAP1 DUP2 MSTORE PUSH1 0x7 PUSH1 0x20 MSTORE PUSH1 0x40 SWAP1 KECCAK256 SSTORE POP POP JUMP JUMPDEST PUSH1 0x1 PUSH1 0x1 PUSH1 0xA0 SHL SUB DUP1 DUP3 AND PUSH1 0x0 SWAP1 DUP2 MSTORE PUSH1 0x2 PUSH1 0x20 SWAP1 DUP2 MSTORE PUSH1 0x40 DUP1 DUP4 KECCAK256 SWAP4 DUP7 AND DUP4 MSTORE SWAP3 SWAP1 MSTORE KECCAK256 SLOAD PUSH2 0x10EF JUMPI PUSH1 0xA SLOAD PUSH2 0x41B3 SWAP1 PUSH1 0x1 PUSH2 0x45FB JUMP JUMPDEST PUSH1 0xA SSTORE POP POP JUMP JUMPDEST PUSH1 0x1 PUSH1 0x1 PUSH1 0xA0 SHL SUB DUP1 DUP3 AND PUSH1 0x0 SWAP1 DUP2 MSTORE PUSH1 0x10 PUSH1 0x20 SWAP1 DUP2 MSTORE PUSH1 0x40 DUP1 DUP4 KECCAK256 SWAP4 DUP7 AND DUP4 MSTORE SWAP3 SWAP1 MSTORE KECCAK256 SLOAD PUSH2 0x10EF JUMPI PUSH1 0x1 PUSH1 0x1 PUSH1 0xA0 SHL SUB DUP3 AND PUSH1 0x0 SWAP1 DUP2 MSTORE PUSH1 0x1C PUSH1 0x20 MSTORE PUSH1 0x40 SWAP1 KECCAK256 SLOAD PUSH2 0x4208 SWAP1 PUSH1 0x1 PUSH2 0x45FB JUMP JUMPDEST PUSH1 0x1 PUSH1 0x1 PUSH1 0xA0 SHL SUB DUP4 AND PUSH1 0x0 SWAP1 DUP2 MSTORE PUSH1 0x1C PUSH1 0x20 MSTORE PUSH1 0x40 SWAP1 KECCAK256 SSTORE POP POP JUMP JUMPDEST PUSH1 0x0 DUP1 SLOAD PUSH1 0x1 PUSH1 0x1 PUSH1 0xA0 SHL SUB DUP4 DUP2 AND PUSH1 0x1 PUSH1 0x1 PUSH1 0xA0 SHL SUB NOT DUP4 AND DUP2 OR DUP5 SSTORE PUSH1 0x40 MLOAD SWAP2 SWAP1 SWAP3 AND SWAP3 DUP4 SWAP2 PUSH32 0x8BE0079C531659141344CD1FD0A4F28419497F9722A3DAAFE3B4186F6B6457E0 SWAP2 SWAP1 LOG3 POP POP JUMP JUMPDEST PUSH1 0x0 DUP2 DUP2 MSTORE PUSH1 0x28 PUSH1 0x20 SWAP1 DUP2 MSTORE PUSH1 0x40 DUP1 DUP4 KECCAK256 PUSH1 0x1 PUSH1 0x1 PUSH1 0xA0 SHL SUB DUP7 AND DUP5 MSTORE SWAP1 SWAP2 MSTORE SWAP1 KECCAK256 SLOAD PUSH2 0x10EF JUMPI PUSH1 0x1 PUSH1 0x1 PUSH1 0xA0 SHL SUB DUP3 AND PUSH1 0x0 SWAP1 DUP2 MSTORE PUSH1 0x29 PUSH1 0x20 MSTORE PUSH1 0x40 SWAP1 KECCAK256 SLOAD PUSH2 0x42C0 SWAP1 PUSH1 0x1 PUSH2 0x45FB JUMP JUMPDEST PUSH1 0x1 PUSH1 0x1 PUSH1 0xA0 SHL SUB SWAP3 SWAP1 SWAP3 AND PUSH1 0x0 DUP2 DUP2 MSTORE PUSH1 0x29 PUSH1 0x20 SWAP1 DUP2 MSTORE PUSH1 0x40 DUP1 DUP4 KECCAK256 SWAP6 SWAP1 SWAP6 SSTORE SWAP3 DUP2 MSTORE PUSH1 0x2D DUP4 MSTORE SWAP3 DUP4 KECCAK256 DUP1 SLOAD PUSH1 0x1 DUP2 ADD DUP3 SSTORE SWAP1 DUP5 MSTORE SWAP2 SWAP1 SWAP3 KECCAK256 ADD DUP1 SLOAD PUSH1 0x1 PUSH1 0x1 PUSH1 0xA0 SHL SUB NOT AND SWAP1 SWAP2 OR SWAP1 SSTORE JUMP JUMPDEST DUP1 CALLDATALOAD PUSH1 0x1 PUSH1 0x1 PUSH1 0xA0 SHL SUB DUP2 AND DUP2 EQ PUSH2 0x3BD8 JUMPI PUSH1 0x0 DUP1 REVERT JUMPDEST PUSH1 0x0 DUP1 PUSH1 0x40 DUP4 DUP6 SUB SLT ISZERO PUSH2 0x4338 JUMPI PUSH1 0x0 DUP1 REVERT JUMPDEST DUP3 CALLDATALOAD SWAP2 POP PUSH2 0x4348 PUSH1 0x20 DUP5 ADD PUSH2 0x430E JUMP JUMPDEST SWAP1 POP SWAP3 POP SWAP3 SWAP1 POP JUMP JUMPDEST PUSH1 0x0 DUP1 PUSH1 0x40 DUP4 DUP6 SUB SLT ISZERO PUSH2 0x4364 JUMPI PUSH1 0x0 DUP1 REVERT JUMPDEST POP POP DUP1 CALLDATALOAD SWAP3 PUSH1 0x20 SWAP1 SWAP2 ADD CALLDATALOAD SWAP2 POP JUMP JUMPDEST PUSH1 0x0 PUSH1 0x20 DUP3 DUP5 SUB SLT ISZERO PUSH2 0x4385 JUMPI PUSH1 0x0 DUP1 REVERT JUMPDEST PUSH2 0x438E DUP3 PUSH2 0x430E JUMP JUMPDEST SWAP4 SWAP3 POP POP POP JUMP JUMPDEST PUSH1 0x0 PUSH1 0x20 DUP3 DUP5 SUB SLT ISZERO PUSH2 0x43A7 JUMPI PUSH1 0x0 DUP1 REVERT JUMPDEST POP CALLDATALOAD SWAP2 SWAP1 POP JUMP JUMPDEST PUSH1 0x0 DUP1 PUSH1 0x40 DUP4 DUP6 SUB SLT ISZERO PUSH2 0x43C1 JUMPI PUSH1 0x0 DUP1 REVERT JUMPDEST PUSH2 0x43CA DUP4 PUSH2 0x430E JUMP JUMPDEST SWAP2 POP PUSH2 0x4348 PUSH1 0x20 DUP5 ADD PUSH2 0x430E JUMP JUMPDEST DUP1 ISZERO ISZERO DUP2 EQ PUSH2 0x1E15 JUMPI PUSH1 0x0 DUP1 REVERT JUMPDEST PUSH1 0x0 DUP1 PUSH1 0x40 DUP4 DUP6 SUB SLT ISZERO PUSH2 0x43F9 JUMPI PUSH1 0x0 DUP1 REVERT JUMPDEST DUP3 CALLDATALOAD SWAP2 POP PUSH1 0x20 DUP4 ADD CALLDATALOAD PUSH2 0x440B DUP2 PUSH2 0x43D8 JUMP JUMPDEST DUP1 SWAP2 POP POP SWAP3 POP SWAP3 SWAP1 POP JUMP JUMPDEST PUSH1 0x0 DUP1 PUSH1 0x40 DUP4 DUP6 SUB SLT ISZERO PUSH2 0x4429 JUMPI PUSH1 0x0 DUP1 REVERT JUMPDEST PUSH2 0x4432 DUP4 PUSH2 0x430E JUMP JUMPDEST SWAP5 PUSH1 0x20 SWAP4 SWAP1 SWAP4 ADD CALLDATALOAD SWAP4 POP POP POP JUMP JUMPDEST PUSH1 0x0 DUP1 PUSH1 0x0 PUSH1 0x60 DUP5 DUP7 SUB SLT ISZERO PUSH2 0x4455 JUMPI PUSH1 0x0 DUP1 REVERT JUMPDEST PUSH2 0x445E DUP5 PUSH2 0x430E JUMP JUMPDEST SWAP3 POP PUSH2 0x446C PUSH1 0x20 DUP6 ADD PUSH2 0x430E JUMP JUMPDEST SWAP2 POP PUSH1 0x40 DUP5 ADD CALLDATALOAD SWAP1 POP SWAP3 POP SWAP3 POP SWAP3 JUMP JUMPDEST PUSH1 0x0 DUP1 PUSH1 0x0 DUP1 PUSH1 0x80 DUP6 DUP8 SUB SLT ISZERO PUSH2 0x4492 JUMPI PUSH1 0x0 DUP1 REVERT JUMPDEST DUP5 CALLDATALOAD SWAP4 POP PUSH2 0x44A2 PUSH1 0x20 DUP7 ADD PUSH2 0x430E JUMP JUMPDEST SWAP3 POP PUSH2 0x44B0 PUSH1 0x40 DUP7 ADD PUSH2 0x430E JUMP JUMPDEST SWAP4 SWAP7 SWAP3 SWAP6 POP SWAP3 SWAP4 PUSH1 0x60 ADD CALLDATALOAD SWAP3 POP POP JUMP JUMPDEST PUSH1 0x20 DUP1 DUP3 MSTORE DUP2 DUP2 ADD MSTORE PUSH32 0x4F776E61626C653A2063616C6C6572206973206E6F7420746865206F776E6572 PUSH1 0x40 DUP3 ADD MSTORE PUSH1 0x60 ADD SWAP1 JUMP JUMPDEST PUSH4 0x4E487B71 PUSH1 0xE0 SHL PUSH1 0x0 MSTORE PUSH1 0x11 PUSH1 0x4 MSTORE PUSH1 0x24 PUSH1 0x0 REVERT JUMPDEST PUSH1 0x0 DUP2 PUSH1 0x0 NOT DIV DUP4 GT DUP3 ISZERO ISZERO AND ISZERO PUSH2 0x4525 JUMPI PUSH2 0x4525 PUSH2 0x44F5 JUMP JUMPDEST POP MUL SWAP1 JUMP JUMPDEST PUSH1 0x0 DUP3 PUSH2 0x4547 JUMPI PUSH4 0x4E487B71 PUSH1 0xE0 SHL PUSH1 0x0 MSTORE PUSH1 0x12 PUSH1 0x4 MSTORE PUSH1 0x24 PUSH1 0x0 REVERT JUMPDEST POP DIV SWAP1 JUMP JUMPDEST PUSH1 0x20 DUP1 DUP3 MSTORE PUSH1 0x1A SWAP1 DUP3 ADD MSTORE PUSH32 0x416D6F756E74206D757374206265206D6F7265207468616E2030000000000000 PUSH1 0x40 DUP3 ADD MSTORE PUSH1 0x60 ADD SWAP1 JUMP JUMPDEST PUSH1 0x20 DUP1 DUP3 MSTORE PUSH1 0x1E SWAP1 DUP3 ADD MSTORE PUSH32 0x546F6B656E2069732063757272656E746C79206E6F7420616C6C6F7765640000 PUSH1 0x40 DUP3 ADD MSTORE PUSH1 0x60 ADD SWAP1 JUMP JUMPDEST PUSH1 0x1 PUSH1 0x1 PUSH1 0xA0 SHL SUB SWAP4 DUP5 AND DUP2 MSTORE SWAP2 SWAP1 SWAP3 AND PUSH1 0x20 DUP3 ADD MSTORE PUSH1 0x40 DUP2 ADD SWAP2 SWAP1 SWAP2 MSTORE PUSH1 0x60 ADD SWAP1 JUMP JUMPDEST PUSH1 0x0 PUSH1 0x20 DUP3 DUP5 SUB SLT ISZERO PUSH2 0x45F0 JUMPI PUSH1 0x0 DUP1 REVERT JUMPDEST DUP2 MLOAD PUSH2 0x438E DUP2 PUSH2 0x43D8 JUMP JUMPDEST PUSH1 0x0 DUP3 NOT DUP3 GT ISZERO PUSH2 0x460E JUMPI PUSH2 0x460E PUSH2 0x44F5 JUMP JUMPDEST POP ADD SWAP1 JUMP JUMPDEST PUSH1 0x0 PUSH1 0x20 DUP3 DUP5 SUB SLT ISZERO PUSH2 0x4625 JUMPI PUSH1 0x0 DUP1 REVERT JUMPDEST POP MLOAD SWAP2 SWAP1 POP JUMP JUMPDEST PUSH1 0x0 DUP3 DUP3 LT ISZERO PUSH2 0x463E JUMPI PUSH2 0x463E PUSH2 0x44F5 JUMP JUMPDEST POP SUB SWAP1 JUMP JUMPDEST PUSH1 0x1 PUSH1 0x1 PUSH1 0xA0 SHL SUB SWAP3 SWAP1 SWAP3 AND DUP3 MSTORE PUSH1 0x20 DUP3 ADD MSTORE PUSH1 0x40 ADD SWAP1 JUMP JUMPDEST PUSH1 0x20 DUP1 DUP3 MSTORE PUSH1 0x2C SWAP1 DUP3 ADD MSTORE PUSH32 0x596F7520646F6E2774206861766520656E6F7567682070757263686173656420 PUSH1 0x40 DUP3 ADD MSTORE PUSH12 0x746F6B656E73206C65667421 PUSH1 0xA0 SHL PUSH1 0x60 DUP3 ADD MSTORE PUSH1 0x80 ADD SWAP1 JUMP JUMPDEST PUSH1 0x1 DUP2 DUP2 JUMPDEST DUP1 DUP6 GT ISZERO PUSH2 0x46E3 JUMPI DUP2 PUSH1 0x0 NOT DIV DUP3 GT ISZERO PUSH2 0x46C9 JUMPI PUSH2 0x46C9 PUSH2 0x44F5 JUMP JUMPDEST DUP1 DUP6 AND ISZERO PUSH2 0x46D6 JUMPI SWAP2 DUP2 MUL SWAP2 JUMPDEST SWAP4 DUP5 SHR SWAP4 SWAP1 DUP1 MUL SWAP1 PUSH2 0x46AD JUMP JUMPDEST POP SWAP3 POP SWAP3 SWAP1 POP JUMP JUMPDEST PUSH1 0x0 DUP3 PUSH2 0x46FA JUMPI POP PUSH1 0x1 PUSH2 0x166F JUMP JUMPDEST DUP2 PUSH2 0x4707 JUMPI POP PUSH1 0x0 PUSH2 0x166F JUMP JUMPDEST DUP2 PUSH1 0x1 DUP2 EQ PUSH2 0x471D JUMPI PUSH1 0x2 DUP2 EQ PUSH2 0x4727 JUMPI PUSH2 0x4743 JUMP JUMPDEST PUSH1 0x1 SWAP2 POP POP PUSH2 0x166F JUMP JUMPDEST PUSH1 0xFF DUP5 GT ISZERO PUSH2 0x4738 JUMPI PUSH2 0x4738 PUSH2 0x44F5 JUMP JUMPDEST POP POP PUSH1 0x1 DUP3 SHL PUSH2 0x166F JUMP JUMPDEST POP PUSH1 0x20 DUP4 LT PUSH2 0x133 DUP4 LT AND PUSH1 0x4E DUP5 LT PUSH1 0xB DUP5 LT AND OR ISZERO PUSH2 0x4766 JUMPI POP DUP2 DUP2 EXP PUSH2 0x166F JUMP JUMPDEST PUSH2 0x4770 DUP4 DUP4 PUSH2 0x46A8 JUMP JUMPDEST DUP1 PUSH1 0x0 NOT DIV DUP3 GT ISZERO PUSH2 0x4784 JUMPI PUSH2 0x4784 PUSH2 0x44F5 JUMP JUMPDEST MUL SWAP4 SWAP3 POP POP POP JUMP JUMPDEST PUSH1 0x0 PUSH2 0x438E DUP4 DUP4 PUSH2 0x46EB JUMP JUMPDEST PUSH4 0x4E487B71 PUSH1 0xE0 SHL PUSH1 0x0 MSTORE PUSH1 0x32 PUSH1 0x4 MSTORE PUSH1 0x24 PUSH1 0x0 REVERT JUMPDEST PUSH1 0x0 PUSH1 0x0 NOT DUP3 EQ ISZERO PUSH2 0x47C2 JUMPI PUSH2 0x47C2 PUSH2 0x44F5 JUMP JUMPDEST POP PUSH1 0x1 ADD SWAP1 JUMP JUMPDEST DUP1 MLOAD PUSH10 0xFFFFFFFFFFFFFFFFFFFF DUP2 AND DUP2 EQ PUSH2 0x3BD8 JUMPI PUSH1 0x0 DUP1 REVERT JUMPDEST PUSH1 0x0 DUP1 PUSH1 0x0 DUP1 PUSH1 0x0 PUSH1 0xA0 DUP7 DUP9 SUB SLT ISZERO PUSH2 0x47FB JUMPI PUSH1 0x0 DUP1 REVERT JUMPDEST PUSH2 0x4804 DUP7 PUSH2 0x47C9 JUMP JUMPDEST SWAP5 POP PUSH1 0x20 DUP7 ADD MLOAD SWAP4 POP PUSH1 0x40 DUP7 ADD MLOAD SWAP3 POP PUSH1 0x60 DUP7 ADD MLOAD SWAP2 POP PUSH2 0x4827 PUSH1 0x80 DUP8 ADD PUSH2 0x47C9 JUMP JUMPDEST SWAP1 POP SWAP3 SWAP6 POP SWAP3 SWAP6 SWAP1 SWAP4 POP JUMP JUMPDEST PUSH1 0x0 PUSH1 0x1 PUSH1 0x1 PUSH1 0xFF SHL SUB DUP2 DUP5 SGT DUP3 DUP5 SGT DUP1 DUP3 AND DUP7 DUP5 DIV DUP7 GT AND ISZERO PUSH2 0x4859 JUMPI PUSH2 0x4859 PUSH2 0x44F5 JUMP JUMPDEST PUSH1 0x1 PUSH1 0xFF SHL PUSH1 0x0 DUP8 SLT DUP3 DUP2 AND DUP8 DUP4 SDIV DUP10 SLT AND ISZERO PUSH2 0x4878 JUMPI PUSH2 0x4878 PUSH2 0x44F5 JUMP JUMPDEST PUSH1 0x0 DUP8 SLT SWAP3 POP DUP8 DUP3 SDIV DUP8 SLT DUP5 DUP5 AND AND ISZERO PUSH2 0x4894 JUMPI PUSH2 0x4894 PUSH2 0x44F5 JUMP JUMPDEST DUP8 DUP6 SDIV DUP8 SLT DUP2 DUP5 AND AND ISZERO PUSH2 0x48AA JUMPI PUSH2 0x48AA PUSH2 0x44F5 JUMP JUMPDEST POP POP POP SWAP3 SWAP1 SWAP4 MUL SWAP4 SWAP3 POP POP POP JUMP JUMPDEST PUSH1 0x0 PUSH1 0x20 DUP3 DUP5 SUB SLT ISZERO PUSH2 0x48CA JUMPI PUSH1 0x0 DUP1 REVERT JUMPDEST DUP2 MLOAD PUSH1 0xFF DUP2 AND DUP2 EQ PUSH2 0x438E JUMPI PUSH1 0x0 DUP1 REVERT INVALID LOG2 PUSH5 0x6970667358 0x22 SLT KECCAK256 0x23 0x4F PUSH19 0x9A3153174DA2678E8720628D64C711C2303F2 0xCB 0xBF PUSH17 0x918BCA63E9FCD164736F6C634300080B00 CALLER ","sha1":"29904c0d25f040bcf8e17742046d668d7afc25c9","source":"// SPDX-License-Identifier: MIT\npragma solidity ^0.8.0;\n\nimport \"@openzeppelin/contracts/access/Ownable.sol\";\nimport \"@openzeppelin/contracts/token/ERC20/IERC20.sol\";\nimport \"@openzeppelin/contracts/utils/math/SafeMath.sol\";\nimport \"@chainlink/contracts/src/v0.8/interfaces/AggregatorV3Interface.sol\";\n\ncontract TokenFarm is Ownable {\n    using SafeMath for uint256;\n\n    // mapping token address -> staker address -> amount\n    uint256 public APY = 10;\n\n    mapping(address => mapping(address => uint256)) public stakingBalance;\n    mapping(address => uint256) stakingTimeStamp;\n    mapping(address => uint256) stakingRewards;\n    mapping(address => uint256) public stakingTimeToWithdraw;\n    uint256 public amountPeopleLeftInWithdrawFees;\n\n    mapping(address => uint256) public uniqueTokensStaked;\n    mapping(address => address) public tokenPriceFeedMapping;\n    address[] public funders;\n    uint256 public uniqueTokenStakers;\n    uint256 public totalTokensStaked;\n\n    address[] public stakers;\n    address[] public allowedTokens;\n    IERC20 public dappToken;\n    IERC20 public preSaleTokenAddress;\n\n    // --------------------------------\n    // pre-sale amount Balance\n    // address public owner;\n    mapping(address => mapping(address => uint256)) public purchasedBalance;\n    mapping(address => uint256) public collectedPreSaleFunds;\n    mapping(address => uint256) public totalCollectionOfPreSaleFunds;\n    uint256 public totalCollectionOfPreSaleFundsAllTokens;\n\n    mapping(address => uint256) public totalPurchasedPreSaleTokens;\n    uint256 private TIMES;\n    // mapping(address => mapping(address => uint256))\n    //     public preSaleTokensAvailableToWithdraw;\n\n    mapping(address => uint256) public totalWithdrawnPreSaleTokens;\n\n    uint256 public percentageWithdrawAllowed;\n\n    // mapping(address => mapping(address => uint256))\n    //     public preSaleTokensLeftToWithdraw;\n\n    mapping(address => uint256) public addressToAmountFunded;\n    address[] public preSaleFunders;\n    address[] public preSaleAllowedTokens;\n    AggregatorV3Interface public priceFeedA;\n    mapping(address => uint256) public uniquePreSaleTokensStaked;\n    uint256 public singleTokenAllPreSaleBalance;\n\n    // Pre Sale Status and Allocation Round Variables\n\n    mapping(uint256 => uint256) public stakingLevelToWeight; // this assign each staking level accordign to their weight value\n    mapping(uint256 => bool) public participateInPreSaleAllocationStatus; // This helps activate or deactive the function \"participateInPreSaleAllocation\"\n    uint256 baseNumberStakingLevel = 1500;\n    mapping(uint256 => uint256) public stakingLevelUserCounter; // this counts the number of participated users in each staking level\n    mapping(address => bool) public preSaleParticipantsStatus;\n    mapping(address => uint256) public whenParticipatedThatLevel; // this is the staking level of user when he/she particpated in pre-sale\n    mapping(uint256 => uint256) public totalAmountToCollectForThisPreSale; // determines how much amount you want to collect for this pre-sale\n    mapping(uint256 => bool) public preSaleAllocationStatus; // determines if Allocation round has started allowed. start it after turning participation\n\n    constructor(address _dappTokenAddress, address _priceFeed) public {\n        dappToken = IERC20(_dappTokenAddress);\n        // owner = msg.sender;\n        priceFeedA = AggregatorV3Interface(_priceFeed);\n\n        stakingLevelToWeight[0] = 0;\n        stakingLevelToWeight[1] = 1;\n        stakingLevelToWeight[2] = 2;\n        stakingLevelToWeight[3] = 3;\n        stakingLevelToWeight[4] = 4;\n        stakingLevelToWeight[5] = 5;\n        stakingLevelToWeight[6] = 6;\n        stakingLevelToWeight[7] = 7;\n        stakingLevelToWeight[8] = 8;\n        stakingLevelToWeight[9] = 9;\n        stakingLevelToWeight[10] = 10;\n        stakingLevelToWeight[11] = 15;\n        stakingLevelToWeight[12] = 20;\n        stakingLevelToWeight[13] = 25;\n        stakingLevelToWeight[14] = 30;\n        stakingLevelToWeight[15] = 35;\n        stakingLevelToWeight[16] = 40;\n        stakingLevelToWeight[17] = 45;\n        stakingLevelToWeight[18] = 50;\n        stakingLevelToWeight[19] = 60;\n        stakingLevelToWeight[20] = 70;\n        stakingLevelToWeight[21] = 80;\n        stakingLevelToWeight[22] = 90;\n        stakingLevelToWeight[23] = 100;\n        stakingLevelToWeight[24] = 110;\n        stakingLevelToWeight[25] = 120;\n        stakingLevelToWeight[26] = 130;\n        stakingLevelToWeight[27] = 140;\n        stakingLevelToWeight[28] = 150;\n    }\n\n    //\n    // Pre Sale numbers and allocation per user\n    // -------------------------------\n    // Once the participant enters they wont be able to re-enter\n\n    function setTotalAmountToCollectForThisPreSale(\n        uint256 _preSaleNumber,\n        uint256 _amount\n    ) public onlyOwner {\n        totalAmountToCollectForThisPreSale[_preSaleNumber] = _amount;\n    }\n\n    function participateInPreSaleAllocation(\n        uint256 _preSaleNumber,\n        address _token\n    ) public {\n        require(participateInPreSaleAllocationStatus[_preSaleNumber] == true); // this is help to open the pre-sale participation\n        require(stakingBalance[_token][msg.sender] >= (1500 * (10**18)));\n        require(getStakingLevel(msg.sender, _token) > 0);\n        // require(preSaleParticipantsStatus[msg.sender] == false);\n\n        uint256 stakingLevel = getStakingLevel(msg.sender, _token);\n        stakingLevelUserCounter[stakingLevel] =\n            stakingLevelUserCounter[stakingLevel] +\n            1;\n        whenParticipatedThatLevel[msg.sender] = stakingLevel;\n    }\n\n    // uint256 public allPoolsTotalWeight;\n    // uint256 public amountAllocatedToEachShare;\n    // uint256 public allocatedAmountToEachUser;\n    // uint256 public users_count_each_staking_level;\n\n    function getAllocatedPreSaleAmount(\n        address _sender,\n        address _token,\n        uint256 _preSaleNumber\n    ) public view returns (uint256) {\n        require(preSaleAllocationStatus[_preSaleNumber] == true);\n        require(totalAmountToCollectForThisPreSale[_preSaleNumber] > 0);\n\n        uint256 allPoolsTotalWeight;\n        for (uint256 i = 1; i < 29; i++) {\n            uint256 eachPoolTotalWeight;\n            eachPoolTotalWeight = (stakingLevelToWeight[i] *\n                stakingLevelUserCounter[i]);\n            allPoolsTotalWeight = allPoolsTotalWeight + eachPoolTotalWeight;\n        }\n        uint256 amountAllocatedToEachShare = (totalAmountToCollectForThisPreSale[\n                _preSaleNumber\n            ] / allPoolsTotalWeight);\n\n        uint256 staking_level_of_sender = getStakingLevel(_sender, _token);\n        uint256 users_count_each_staking_level = stakingLevelUserCounter[\n            staking_level_of_sender\n        ];\n\n        uint256 each_level_staking_weight = stakingLevelToWeight[\n            staking_level_of_sender\n        ];\n\n        uint256 allocatedAmountToEachUser;\n        allocatedAmountToEachUser = ((each_level_staking_weight *\n            users_count_each_staking_level *\n            amountAllocatedToEachShare) / users_count_each_staking_level);\n\n        return (allocatedAmountToEachUser);\n    }\n\n    function changeStakingLevelToWeight(uint256 _level, uint256 _weight)\n        public\n        onlyOwner\n    {\n        stakingLevelToWeight[_level] = _weight;\n    }\n\n    function changeBaseNumberStakingLevel(uint256 _number) public onlyOwner {\n        baseNumberStakingLevel = _number;\n    }\n\n    function setPreSaleAllocationStatus(uint256 _number, bool _status)\n        public\n        onlyOwner\n    {\n        preSaleAllocationStatus[_number] = _status;\n    }\n\n    function setParticipateInPreSaleAllocationStatus(\n        uint256 _number,\n        bool _status\n    ) public onlyOwner {\n        participateInPreSaleAllocationStatus[_number] = _status;\n    }\n\n    function getStakingLevel(address _sender, address _token)\n        public\n        view\n        returns (uint256)\n    {\n        uint256 stakingLevel = 0;\n        if (\n            stakingBalance[_token][_sender] >=\n            ((baseNumberStakingLevel * 150) * (10**18))\n        ) {\n            return stakingLevel = 28;\n        } else if (\n            stakingBalance[_token][_sender] >=\n            ((baseNumberStakingLevel * 140) * (10**18))\n        ) {\n            return stakingLevel = 27;\n        } else if (\n            stakingBalance[_token][_sender] >=\n            ((baseNumberStakingLevel * 130) * (10**18))\n        ) {\n            return stakingLevel = 26;\n        } else if (\n            stakingBalance[_token][_sender] >=\n            ((baseNumberStakingLevel * 120) * (10**18))\n        ) {\n            return stakingLevel = 25;\n        } else if (\n            stakingBalance[_token][_sender] >=\n            ((baseNumberStakingLevel * 110) * (10**18))\n        ) {\n            return stakingLevel = 24;\n        } else if (\n            stakingBalance[_token][_sender] >=\n            ((baseNumberStakingLevel * 100) * (10**18))\n        ) {\n            return stakingLevel = 23;\n        } else if (\n            stakingBalance[_token][_sender] >=\n            ((baseNumberStakingLevel * 90) * (10**18))\n        ) {\n            return stakingLevel = 22;\n        } else if (\n            stakingBalance[_token][_sender] >=\n            ((baseNumberStakingLevel * 80) * (10**18))\n        ) {\n            return stakingLevel = 21;\n        } else if (\n            stakingBalance[_token][_sender] >=\n            ((baseNumberStakingLevel * 70) * (10**18))\n        ) {\n            return stakingLevel = 20;\n        } else if (\n            stakingBalance[_token][_sender] >=\n            ((baseNumberStakingLevel * 60) * (10**18))\n        ) {\n            return stakingLevel = 19;\n        } else if (\n            stakingBalance[_token][_sender] >=\n            ((baseNumberStakingLevel * 50) * (10**18))\n        ) {\n            return stakingLevel = 18;\n        } else if (\n            stakingBalance[_token][_sender] >=\n            ((baseNumberStakingLevel * 45) * (10**18))\n        ) {\n            return stakingLevel = 17;\n        } else if (\n            stakingBalance[_token][_sender] >=\n            ((baseNumberStakingLevel * 40) * (10**18))\n        ) {\n            return stakingLevel = 16;\n        } else if (\n            stakingBalance[_token][_sender] >=\n            ((baseNumberStakingLevel * 35) * (10**18))\n        ) {\n            return stakingLevel = 15;\n        } else if (\n            stakingBalance[_token][_sender] >=\n            ((baseNumberStakingLevel * 30) * (10**18))\n        ) {\n            return stakingLevel = 14;\n        } else if (\n            stakingBalance[_token][_sender] >=\n            ((baseNumberStakingLevel * 25) * (10**18))\n        ) {\n            return stakingLevel = 13;\n        } else if (\n            stakingBalance[_token][_sender] >=\n            ((baseNumberStakingLevel * 20) * (10**18))\n        ) {\n            return stakingLevel = 12;\n        } else if (\n            stakingBalance[_token][_sender] >=\n            ((baseNumberStakingLevel * 15) * (10**18))\n        ) {\n            return stakingLevel = 11;\n        } else if (\n            stakingBalance[_token][_sender] >=\n            ((baseNumberStakingLevel * 10) * (10**18))\n        ) {\n            return stakingLevel = 10;\n        } else if (\n            stakingBalance[_token][_sender] >=\n            ((baseNumberStakingLevel * 9) * (10**18))\n        ) {\n            return stakingLevel = 9;\n        } else if (\n            stakingBalance[_token][_sender] >=\n            ((baseNumberStakingLevel * 8) * (10**18))\n        ) {\n            return stakingLevel = 8;\n        } else if (\n            stakingBalance[_token][_sender] >=\n            ((baseNumberStakingLevel * 7) * (10**18))\n        ) {\n            return stakingLevel = 7;\n        } else if (\n            stakingBalance[_token][_sender] >=\n            ((baseNumberStakingLevel * 6) * (10**18))\n        ) {\n            return stakingLevel = 6;\n        } else if (\n            stakingBalance[_token][_sender] >=\n            ((baseNumberStakingLevel * 5) * (10**18))\n        ) {\n            return stakingLevel = 5;\n        } else if (\n            stakingBalance[_token][_sender] >=\n            ((baseNumberStakingLevel * 4) * (10**18))\n        ) {\n            return stakingLevel = 4;\n        } else if (\n            stakingBalance[_token][_sender] >=\n            ((baseNumberStakingLevel * 3) * (10**18))\n        ) {\n            return stakingLevel = 3;\n        } else if (\n            stakingBalance[_token][_sender] >=\n            ((baseNumberStakingLevel * 2) * (10**18))\n        ) {\n            return stakingLevel = 2;\n        } else if (\n            stakingBalance[_token][_sender] >=\n            ((baseNumberStakingLevel * 1) * (10**18))\n        ) {\n            return stakingLevel = 1;\n        } else {\n            return stakingLevel = 0;\n        }\n    }\n\n    // pre-sale collection of funds according to each pre-sale number\n    mapping(uint256 => bool) public preSaleFundEachPreSaleNumberStatus; // this is to activate or deactive the preSaleFundPerPreSaleNumber Function\n    mapping(uint256 => bool) public claimTokensEachPreSaleStatus; // this is to activate or deactive the claimAllTokensEachPreSale Function\n\n    mapping(uint256 => mapping(address => uint256))\n        public purchasedBalanceEachPreSale; // Balance of amount spend by user in this single pre-sale\n    mapping(address => uint256) public uniquePreSaleTokensPurchased; // Collecting how many times this user has participated in the pre-sales\n    mapping(uint256 => uint256) public TIMESeachPreSale; // Determines the price of pre-sale tokens / per BUSD\n    mapping(uint256 => mapping(address => uint256))\n        public collectedPreSaleFundsEachPreSale; // This is to withdraw pre-sale collected funds, this will get zero when owner withdraw the funds\n    mapping(uint256 => mapping(address => uint256))\n        public totalCollectionOfPreSaleFundsEachPreSale; // This will not get zero after withdrawing of funds\n    mapping(uint256 => address[]) public preSaleFundersEachPreSale; // creates the list of a number of users who purchased tokens in this single pre-sale\n    mapping(uint256 => mapping(address => uint256))\n        public totalPurchasedPreSaleTokensEachPreSale; // totalPurchasedPreSaleTokensEachPreSale determines how many pre-sale tokens user will get in this pre-sale\n    mapping(uint256 => mapping(address => uint256))\n        public totalWithdrawnPreSaleTokensEachPreSale; // this is total withdrawn amount by user for this single pre-sale\n    mapping(uint256 => uint256) public percentageWithdrawAllowedEachPreSale;\n    mapping(uint256 => IERC20) public preSaleTokenAddressEachPreSale; // the is the tokens which we will deliver in return of pre-sale collected funds\n\n    function setPreSaleFundEachPreSaleNumberStatus(\n        uint256 _preSaleNumber,\n        bool _status\n    ) public onlyOwner {\n        preSaleFundEachPreSaleNumberStatus[_preSaleNumber] = _status;\n    }\n\n    // this represents the token being staked on our platform\n    // this represents the curreny being used to pay for this pre-sale\n    function preSaleFundEachPreSaleNumber(\n        uint256 _amount,\n        address _token,\n        address _busdToken,\n        uint256 _preSaleNumber\n    ) public {\n        require(preSaleFundEachPreSaleNumberStatus[_preSaleNumber] == true);\n        require(stakingBalance[_token][msg.sender] >= (1500 * (10**18)));\n        require(getStakingLevel(msg.sender, _token) > 0);\n        require(totalAmountToCollectForThisPreSale[_preSaleNumber] > 0);\n        require(_amount > 0, \"Amount must be more than 0\");\n        require(\n            preSaleTokenIsAllowed(_busdToken),\n            \"Token is currently not allowed\"\n        );\n        require(\n            totalCollectionOfPreSaleFundsEachPreSale[_preSaleNumber][\n                _busdToken\n            ] < totalAmountToCollectForThisPreSale[_preSaleNumber]\n        );\n        uint256 allocatedPreSaleAmount = getAllocatedPreSaleAmount(\n            msg.sender,\n            _token,\n            _preSaleNumber\n        );\n        uint256 balance = (allocatedPreSaleAmount -\n            purchasedBalanceEachPreSale[_preSaleNumber][msg.sender]);\n        require(balance > 0);\n        require(_amount <= balance);\n        IERC20(_busdToken).transferFrom(msg.sender, address(this), _amount);\n        updateUniquePreSaleTokensPurchased(msg.sender, _preSaleNumber);\n        // how much worth user has purchased in this single pre-sale (amount is in busd)\n        purchasedBalanceEachPreSale[_preSaleNumber][msg.sender] =\n            purchasedBalanceEachPreSale[_preSaleNumber][msg.sender] +\n            _amount;\n        // totalPurchasedPreSaleTokensEachPreSale determines how many pre-sale tokens user will get in this pre-sale\n        totalPurchasedPreSaleTokensEachPreSale[_preSaleNumber][msg.sender] =\n            totalPurchasedPreSaleTokensEachPreSale[_preSaleNumber][msg.sender] +\n            (_amount * TIMESeachPreSale[_preSaleNumber]);\n        // how much Funds has been collected so far\n        collectedPreSaleFundsEachPreSale[_preSaleNumber][_busdToken] =\n            collectedPreSaleFundsEachPreSale[_preSaleNumber][_busdToken] +\n            _amount;\n        totalCollectionOfPreSaleFundsEachPreSale[_preSaleNumber][_busdToken] =\n            totalCollectionOfPreSaleFundsEachPreSale[_preSaleNumber][\n                _busdToken\n            ] +\n            _amount;\n        totalCollectionOfPreSaleFundsAllTokens =\n            totalCollectionOfPreSaleFundsAllTokens +\n            _amount;\n    }\n\n    function getHowMuchMoreUserCanPurchaseEachPreSale(\n        address _sender,\n        address _token,\n        uint256 _preSaleNumber\n    ) public view returns (uint256) {\n        uint256 allocatedPreSaleAmount = getAllocatedPreSaleAmount(\n            _sender,\n            _token,\n            _preSaleNumber\n        );\n        uint256 balance = (allocatedPreSaleAmount -\n            purchasedBalanceEachPreSale[_preSaleNumber][_sender]);\n        return (balance);\n    }\n\n    function updateUniquePreSaleTokensPurchased(\n        address _user,\n        uint256 _preSaleNumber\n    ) internal {\n        if (purchasedBalanceEachPreSale[_preSaleNumber][_user] <= 0) {\n            uniquePreSaleTokensPurchased[_user] =\n                uniquePreSaleTokensPurchased[_user] +\n                1;\n            preSaleFundersEachPreSale[_preSaleNumber].push(_user);\n        }\n    }\n\n    function setClaimTokensEachPreSaleStatus(\n        uint256 _preSaleNumber,\n        bool _status\n    ) public onlyOwner {\n        claimTokensEachPreSaleStatus[_preSaleNumber] = _status;\n    }\n\n    function claimAllTokensEachPreSale(uint256 _preSaleNumber) public {\n        require(claimTokensEachPreSaleStatus[_preSaleNumber] == true);\n\n        uint256 totalPurchased = totalPurchasedPreSaleTokensEachPreSale[\n            _preSaleNumber\n        ][msg.sender];\n        uint256 totalWithdrawn = totalWithdrawnPreSaleTokensEachPreSale[\n            _preSaleNumber\n        ][msg.sender];\n        uint256 balance = (totalPurchased - totalWithdrawn);\n        uint256 allowedToWithdraw = (percentageWithdrawAllowedEachPreSale[\n            _preSaleNumber\n        ] * totalPurchased) / 100;\n        uint256 availableToWithdraw = (allowedToWithdraw - totalWithdrawn);\n\n        require(totalPurchased > 0);\n        require(availableToWithdraw > 0);\n        require(totalWithdrawn < totalPurchased);\n\n        IERC20(preSaleTokenAddressEachPreSale[_preSaleNumber]).transfer(\n            msg.sender,\n            availableToWithdraw\n        );\n        totalWithdrawnPreSaleTokensEachPreSale[_preSaleNumber][msg.sender] =\n            totalWithdrawnPreSaleTokensEachPreSale[_preSaleNumber][msg.sender] +\n            availableToWithdraw;\n    }\n\n    function claimTokensEachPreSale(uint256 _preSaleNumber, uint256 _amount)\n        public\n    {\n        require(claimTokensEachPreSaleStatus[_preSaleNumber] == true);\n\n        uint256 totalPurchased = totalPurchasedPreSaleTokensEachPreSale[\n            _preSaleNumber\n        ][msg.sender];\n        uint256 totalWithdrawn = totalWithdrawnPreSaleTokensEachPreSale[\n            _preSaleNumber\n        ][msg.sender];\n        uint256 balance = (totalPurchased - totalWithdrawn);\n        uint256 allowedToWithdraw = (percentageWithdrawAllowedEachPreSale[\n            _preSaleNumber\n        ] * totalPurchased) / 100;\n        uint256 availableToWithdraw = (allowedToWithdraw - totalWithdrawn);\n\n        require(availableToWithdraw > 0);\n        require(_amount <= availableToWithdraw);\n        require(totalWithdrawn < totalPurchased);\n        require(_amount > 0, \"Amount must be more than 0\");\n        require(\n            balance >= _amount,\n            \"You don't have enough purchased tokens left!\"\n        );\n        require((totalWithdrawn + _amount) < totalPurchased);\n\n        IERC20(preSaleTokenAddressEachPreSale[_preSaleNumber]).transfer(\n            msg.sender,\n            _amount\n        );\n        totalWithdrawnPreSaleTokensEachPreSale[_preSaleNumber][msg.sender] =\n            totalWithdrawnPreSaleTokensEachPreSale[_preSaleNumber][msg.sender] +\n            _amount;\n    }\n\n    // this function increase the of percentage amount allowed to withdraw\n\n    function setPercentageWithdrawAllowedEachPreSale(\n        uint256 _preSaleNumber,\n        uint256 _percentageAmount\n    ) public onlyOwner {\n        // require(percentageWithdrawAllowedEachPreSale[_preSaleNumber] <= 101);\n        // require((percentageWithdrawAllowedEachPreSale[_preSaleNumber] + _percentageAmount) <= 101);\n        percentageWithdrawAllowedEachPreSale[_preSaleNumber] =\n            percentageWithdrawAllowedEachPreSale[_preSaleNumber] +\n            _percentageAmount;\n    }\n\n    // similar to \"setPercentageWithdrawAllowedEachPreSale\" but you can also decrease the value\n\n    function manuallySetPercentageWithdrawAllowedEachPreSale(\n        uint256 _preSaleNumber,\n        uint256 _percentageAmount\n    ) public onlyOwner {\n        // require(percentageWithdrawAllowedEachPreSale[_preSaleNumber] <= 101);\n        // require((percentageWithdrawAllowedEachPreSale[_preSaleNumber] + _percentageAmount) <= 101);\n        percentageWithdrawAllowedEachPreSale[\n            _preSaleNumber\n        ] = _percentageAmount;\n    }\n\n    function getAvailablePreSaleTokensToWithdrawEachPreSale(\n        address _token,\n        address _sender,\n        uint256 _preSaleNumber\n    ) public view returns (uint256) {\n        uint256 totalPurchased = totalPurchasedPreSaleTokensEachPreSale[\n            _preSaleNumber\n        ][_sender];\n        uint256 totalWithdrawn = totalWithdrawnPreSaleTokensEachPreSale[\n            _preSaleNumber\n        ][_sender];\n        uint256 allowedToWithdraw = (percentageWithdrawAllowedEachPreSale[\n            _preSaleNumber\n        ] * totalPurchased) / 100;\n        uint256 availableToWithdraw = (allowedToWithdraw - totalWithdrawn);\n\n        // preSaleTokensLeftToWithdraw[_token][msg.sender] = availableToWithdraw;\n        return availableToWithdraw;\n    }\n\n    // this is to withdraw the collected funds from each pre-sale\n\n    function withdrawCollectedFundEachPreSale(\n        uint256 _preSaleNumber,\n        address _busdToken\n    ) public onlyOwner {\n        // uint256 balance = purchasedBalance[_token][msg.sender];\n        // uint256 balance = (IERC20(_token).balanceOf(address(this)));\n        uint256 collectedFunds = collectedPreSaleFundsEachPreSale[\n            _preSaleNumber\n        ][_busdToken];\n        // require(balance > 0, \"Staking balance cannot be 0\");\n        IERC20(_busdToken).transfer(msg.sender, collectedFunds);\n\n        collectedPreSaleFundsEachPreSale[_preSaleNumber][_busdToken] = 0;\n    }\n\n    function updatePreSaleTokenAddressEachPreSale(\n        uint256 _preSaleNumber,\n        address _preSaleTokenAddress\n    ) public onlyOwner {\n        preSaleTokenAddressEachPreSale[_preSaleNumber] = IERC20(\n            _preSaleTokenAddress\n        );\n    }\n\n    function updateTimesEachPreSale(uint256 _preSaleNumber, uint256 _times)\n        public\n        onlyOwner\n    {\n        TIMESeachPreSale[_preSaleNumber] = _times;\n    }\n\n    // *************************************************\n\n    // ---------------------------------------\n\n    // -------------------------------\n    //    address[] public receivingAllowedTokens;\n\n    // stakeTokens - DONE!\n    // unStakeTokens - DONE\n    // issueTokens - DONE!\n    // addAllowedTokens - DONE!\n    // getEthValue - DONE!\n\n    // 100 ETH 1:1 for every 1 ETH, we give 1 DappToken\n    // 50 ETH and 50 DAI staked, and we want to give a reward of 1 DAPP / 1 DAI\n\n    function getVersion() public view returns (uint256) {\n        return priceFeedA.version();\n    }\n\n    function addPreSaleAllowedTokens(address _token) public onlyOwner {\n        preSaleAllowedTokens.push(_token);\n    }\n\n    function updateTimes(uint256 _times) public onlyOwner {\n        TIMES = _times;\n    }\n\n    function updatePreSaleTokenAddress(address _preSaleTokenAddress)\n        public\n        onlyOwner\n    {\n        preSaleTokenAddress = IERC20(_preSaleTokenAddress);\n    }\n\n    function preSaleFund(uint256 _amount, address _token) public {\n        // uint256 minimumUSD = 1 * (10**18);\n        // require(\n        //     getConversionRate(_amount) >= minimumUSD,\n        //     \"You need to spend more Eth!\"\n        // );\n        require(_amount > 0, \"Amount must be more than 0\");\n        require(\n            preSaleTokenIsAllowed(_token),\n            \"Token is currently not allowed\"\n        );\n        IERC20(_token).transferFrom(msg.sender, address(this), _amount);\n        singleTokenAllPreSaleBalance =\n            (IERC20(_token).balanceOf(address(this))) /\n            1000000000000000000;\n\n        updateUniquePreSaleTokensStaked(msg.sender, _token);\n\n        // how much worth user has purchased in busd\n        purchasedBalance[_token][msg.sender] =\n            purchasedBalance[_token][msg.sender] +\n            _amount;\n\n        // totalPurchasedPreSaleTokens determines how many pre-sale tokens user will get\n        totalPurchasedPreSaleTokens[msg.sender] =\n            totalPurchasedPreSaleTokens[msg.sender] +\n            (_amount * TIMES);\n\n        // how much amount has been calculated so far\n        collectedPreSaleFunds[_token] = collectedPreSaleFunds[_token] + _amount;\n        totalCollectionOfPreSaleFunds[_token] =\n            totalCollectionOfPreSaleFunds[_token] +\n            _amount;\n        totalCollectionOfPreSaleFundsAllTokens =\n            totalCollectionOfPreSaleFundsAllTokens +\n            _amount;\n\n        if (uniquePreSaleTokensStaked[msg.sender] == 1) {\n            preSaleFunders.push(msg.sender);\n        }\n\n        // addressToAmountFunded[msg.sender] += msg.value;\n        // preSaleFunders.push(msg.sender);\n    }\n\n    function getSingleTokenAllPreSaleBalance(address _token)\n        public\n        onlyOwner\n        returns (uint256)\n    {\n        singleTokenAllPreSaleBalance = IERC20(_token).balanceOf(address(this));\n        return singleTokenAllPreSaleBalance;\n    }\n\n    function claimAllPreSaletokens() public {\n        uint256 totalPurchased = totalPurchasedPreSaleTokens[msg.sender];\n        uint256 totalWithdrawn = totalWithdrawnPreSaleTokens[msg.sender];\n        uint256 balance = (totalPurchased - totalWithdrawn);\n        uint256 allowedToWithdraw = (percentageWithdrawAllowed *\n            totalPurchased) / 100;\n        uint256 availableToWithdraw = (allowedToWithdraw - totalWithdrawn);\n\n        require(totalPurchased > 0);\n        require(availableToWithdraw > 0);\n        require(totalWithdrawn < totalPurchased);\n\n        IERC20(preSaleTokenAddress).transfer(msg.sender, availableToWithdraw);\n        totalWithdrawnPreSaleTokens[msg.sender] =\n            totalWithdrawnPreSaleTokens[msg.sender] +\n            availableToWithdraw;\n    }\n\n    function claimPreSaleTokens(uint256 _amount) public {\n        uint256 totalPurchased = totalPurchasedPreSaleTokens[msg.sender];\n        uint256 totalWithdrawn = totalWithdrawnPreSaleTokens[msg.sender];\n        uint256 balance = (totalPurchased - totalWithdrawn);\n        uint256 allowedToWithdraw = (percentageWithdrawAllowed *\n            totalPurchased) / 100;\n        uint256 availableToWithdraw = (allowedToWithdraw - totalWithdrawn);\n\n        require(availableToWithdraw > 0);\n        require(_amount <= availableToWithdraw);\n        require(totalWithdrawn < totalPurchased);\n        require(_amount > 0, \"Amount must be more than 0\");\n        require(\n            balance >= _amount,\n            \"You don't have enough purchased tokens left!\"\n        );\n        require((totalWithdrawn + _amount) < totalPurchased);\n\n        IERC20(preSaleTokenAddress).transfer(msg.sender, _amount);\n        totalWithdrawnPreSaleTokens[msg.sender] =\n            totalWithdrawnPreSaleTokens[msg.sender] +\n            _amount;\n\n        // Removing: preSaleTokensAvailableToWithdraw is a changing value when\n        // we update the percentageWithdrawAllowed it will change\n\n        // preSaleTokensAvailableToWithdraw[_token][msg.sender] =\n        //     availableToWithdraw -\n        //     _amount;\n    }\n\n    function issuePreSaleTokensToWithdrawPercentage(uint256 _percentageAmount)\n        public\n        onlyOwner\n    {\n        require(percentageWithdrawAllowed <= 101);\n        require((percentageWithdrawAllowed + _percentageAmount) <= 101);\n        percentageWithdrawAllowed =\n            percentageWithdrawAllowed +\n            _percentageAmount;\n    }\n\n    function getAvailablePreSaleTokensToWithdraw(\n        address _token,\n        address _sender\n    ) public view returns (uint256) {\n        uint256 totalPurchased = totalPurchasedPreSaleTokens[_sender];\n        uint256 totalWithdrawn = totalWithdrawnPreSaleTokens[_sender];\n        // uint256 balance = (totalPurchased - totalWithdrawn);\n        uint256 allowedToWithdraw = (percentageWithdrawAllowed *\n            totalPurchased) / 100;\n        uint256 availableToWithdraw = (allowedToWithdraw - totalWithdrawn);\n\n        // preSaleTokensLeftToWithdraw[_token][msg.sender] = availableToWithdraw;\n        return availableToWithdraw;\n    }\n\n    function withdrawPreSaleCollectedFund(address _token) public onlyOwner {\n        // uint256 balance = purchasedBalance[_token][msg.sender];\n        // uint256 balance = (IERC20(_token).balanceOf(address(this)));\n        uint256 collectedFunds = collectedPreSaleFunds[_token];\n        // require(balance > 0, \"Staking balance cannot be 0\");\n        IERC20(_token).transfer(msg.sender, collectedFunds);\n        singleTokenAllPreSaleBalance =\n            (IERC20(_token).balanceOf(address(this))) /\n            1000000000000000000;\n\n        collectedPreSaleFunds[_token] = 0;\n    }\n\n    function manageWithdrawOwnerFunds(address _token, uint256 _amount)\n        public\n        onlyOwner\n    {\n        IERC20(_token).transfer(msg.sender, _amount);\n    }\n\n    function manageDepositOwnerFunds(address _token, uint256 _amount)\n        public\n        onlyOwner\n    {\n        IERC20(_token).transferFrom(msg.sender, address(this), _amount);\n    }\n\n    // function stakeTokens(uint256 _amount, address _token) public {\n    //     // what tokens can they stake?\n    //     // how much can they stake?\n    //     require(_amount > 0, \"Amount must be more than 0\");\n    //     require(tokenIsAllowed(_token), \"Token is currently not allowed\");\n    //     // transferFrom\n    //     IERC20(_token).transferFrom(msg.sender, address(this), _amount);\n    //     updateUniqueTokensStaked(msg.sender, _token);\n    //     stakingBalance[_token][msg.sender] =\n    //         stakingBalance[_token][msg.sender] +\n    //         _amount;\n    //     if (uniqueTokensStaked[msg.sender] == 1) {\n    //         stakers.push(msg.sender);\n    //     }\n    // }\n\n    function preSaleTokenIsAllowed(address _token) public returns (bool) {\n        for (\n            uint256 preSaleAllowedTokensIndex = 0;\n            preSaleAllowedTokensIndex < preSaleAllowedTokens.length;\n            preSaleAllowedTokensIndex++\n        ) {\n            if (preSaleAllowedTokens[preSaleAllowedTokensIndex] == _token) {\n                return true;\n            }\n        }\n        return false;\n    }\n\n    function getConversionRate(uint256 ethAmount)\n        public\n        view\n        returns (uint256)\n    {\n        // use function \"getTokenValue()\" instead of \"getPrice()\"\n\n        uint256 ethPrice = getPrice();\n        uint256 ethAmountInUsd = (ethPrice * ethAmount) / 1000000000000000000;\n        return ethAmountInUsd;\n    }\n\n    function getPrice() public view returns (uint256) {\n        (, int256 answer, , , ) = priceFeedA.latestRoundData();\n        return uint256(answer * 10000000000);\n    }\n\n    function getEntranceFee() public view returns (uint256) {\n        //minimumUSD\n        uint256 minimumUSD = 50 * 10**18;\n        uint256 price = getPrice();\n        uint256 precision = 1 * 10**18;\n        return (minimumUSD * precision) / price;\n    }\n\n    function updateUniquePreSaleTokensStaked(address _user, address _token)\n        internal\n    {\n        if (purchasedBalance[_token][_user] <= 0) {\n            uniquePreSaleTokensStaked[_user] =\n                uniquePreSaleTokensStaked[_user] +\n                1;\n        }\n    }\n\n    // --------------------------------------------\n\n    function setPriceFeedContract(address _token, address _priceFeed)\n        public\n        onlyOwner\n    {\n        tokenPriceFeedMapping[_token] = _priceFeed;\n    }\n\n    function issueTokens() public onlyOwner {\n        // Issue tokens to all stakers\n        for (\n            uint256 stakersIndex = 0;\n            stakersIndex < stakers.length;\n            stakersIndex++\n        ) {\n            address recipient = stakers[stakersIndex];\n            uint256 userTotalValue = getUserTotalValue(recipient);\n            // send them a token reward\n            // based on their total value locked\n            // dappToken.transfer(recipient, )\n            dappToken.transfer(recipient, userTotalValue);\n        }\n    }\n\n    function getUserTotalValue(address _user) public view returns (uint256) {\n        uint256 totalValue = 0;\n        require(uniqueTokensStaked[_user] > 0, \"No tokens staked!\");\n        for (\n            uint256 allowedTokensIndex = 0;\n            allowedTokensIndex < allowedTokens.length;\n            allowedTokensIndex++\n        ) {\n            totalValue =\n                totalValue +\n                getUserSingleTokenValue(\n                    _user,\n                    allowedTokens[allowedTokensIndex]\n                );\n        }\n        return totalValue;\n    }\n\n    function getUserSingleTokenValue(address _user, address _token)\n        public\n        view\n        returns (uint256)\n    {\n        // if staked 1 ETH -> $2000\n        // 2000 dapp token\n        // if staked 200 DAI -> $200\n        // 200 dapp token\n        if (uniqueTokensStaked[_user] <= 0) {\n            return 0;\n        }\n        // price of the  token * stakingBalance[_token][_user]\n        (uint256 price, uint256 decimals) = getTokenValue(_token);\n        return // 10 ETH\n        // ETH/USD\n        ((stakingBalance[_token][_user] * price) / (10**decimals));\n    }\n\n    function getTokenValue(address _token)\n        public\n        view\n        returns (uint256, uint256)\n    {\n        // priceFeedAddress\n        address priceFeedAddress = tokenPriceFeedMapping[_token];\n        AggregatorV3Interface priceFeed = AggregatorV3Interface(\n            priceFeedAddress\n        );\n        (, int256 price, , , ) = priceFeed.latestRoundData();\n        uint256 decimals = uint256(priceFeed.decimals());\n        return (uint256(price), decimals);\n    }\n\n    function setAPY(uint256 _APY) public onlyOwner {\n        APY = _APY;\n    }\n\n    function calculateStakingRewards(address _user, address _token)\n        public\n        view\n        returns (uint256)\n    {\n        uint256 userTimeStamp = stakingTimeStamp[_user];\n        uint256 currentTime = block.timestamp;\n        uint256 userStakingBalance = stakingBalance[_token][_user];\n\n        uint256 totalRewardsPerYear = (APY * userStakingBalance) / 100;\n        uint256 totalRewardsPerMinute = totalRewardsPerYear / 525600;\n\n        uint256 stakedTimeInMinutes = ((currentTime - userTimeStamp) / 60);\n        uint256 rewards = stakedTimeInMinutes * totalRewardsPerMinute;\n\n        return rewards;\n    }\n\n    function getAvailableStakingRewards(address _sender, address _token)\n        public\n        view\n        returns (uint256)\n    {\n        uint256 totalRewards = (stakingRewards[_sender] +\n            calculateStakingRewards(_sender, _token));\n\n        return totalRewards;\n    }\n\n    function claimStakingRewards(address _token) public {\n        uint256 userTotalRewards = getAvailableStakingRewards(\n            msg.sender,\n            _token\n        );\n        require(userTotalRewards > 0);\n        IERC20(_token).transfer(msg.sender, userTotalRewards);\n        stakingRewards[msg.sender] = 0;\n        stakingTimeStamp[msg.sender] = block.timestamp;\n    }\n\n    function stakeTokens(uint256 _amount, address _token) public {\n        // what tokens can they stake?\n        // how much can they stake?\n        require(_amount > 0, \"Amount must be more than 0\");\n        require(tokenIsAllowed(_token), \"Token is currently not allowed\");\n        // transferFrom\n        IERC20(_token).transferFrom(msg.sender, address(this), _amount);\n        updateUniqueTokensStaked(msg.sender, _token);\n        updateUniqueTokenStakers(msg.sender, _token);\n        totalTokensStaked = totalTokensStaked + _amount;\n\n        stakingRewards[msg.sender] = getAvailableStakingRewards(\n            msg.sender,\n            _token\n        );\n\n        stakingTimeStamp[msg.sender] = block.timestamp;\n        stakingTimeToWithdraw[msg.sender] = block.timestamp;\n\n        stakingBalance[_token][msg.sender] =\n            stakingBalance[_token][msg.sender] +\n            _amount;\n\n        // stakingRewards[msg.sender] = (stakingRewards[msg.sender] +\n        //     calculateStakingRewards(msg.sender, _token));\n\n        if (uniqueTokensStaked[msg.sender] == 1) {\n            stakers.push(msg.sender);\n        }\n    }\n\n    function withdrawAmountPeopleLeftInWithdrawFees(address _token)\n        public\n        onlyOwner\n    {\n        IERC20(_token).transfer(msg.sender, amountPeopleLeftInWithdrawFees);\n        amountPeopleLeftInWithdrawFees = 0;\n    }\n\n    function unstakeTokens(uint256 _amount, address _token) public {\n        uint256 balance = stakingBalance[_token][msg.sender];\n        require(_amount > 0, \"Amount must be more than 0\");\n        require(balance >= _amount, \"You don't have enough staked tokens\");\n        require(tokenIsAllowed(_token), \"Token is currently not allowed\");\n\n        uint256 timeNow = block.timestamp;\n        if (timeNow < (stakingTimeToWithdraw[msg.sender] + 4838400)) {\n            if (timeNow < (stakingTimeToWithdraw[msg.sender] + 3628800)) {\n                if (timeNow < (stakingTimeToWithdraw[msg.sender] + 2419200)) {\n                    if (\n                        timeNow < (stakingTimeToWithdraw[msg.sender] + 1209600)\n                    ) {\n                        uint256 withdrawAmount = ((75 * _amount) / 100);\n                        IERC20(_token).transfer(msg.sender, withdrawAmount);\n\n                        amountPeopleLeftInWithdrawFees =\n                            amountPeopleLeftInWithdrawFees +\n                            (_amount - withdrawAmount);\n                    } else {\n                        uint256 withdrawAmount = ((85 * _amount) / 100);\n                        IERC20(_token).transfer(msg.sender, withdrawAmount);\n\n                        amountPeopleLeftInWithdrawFees =\n                            amountPeopleLeftInWithdrawFees +\n                            (_amount - withdrawAmount);\n                    }\n                } else {\n                    uint256 withdrawAmount = ((90 * _amount) / 100);\n                    IERC20(_token).transfer(msg.sender, withdrawAmount);\n\n                    amountPeopleLeftInWithdrawFees =\n                        amountPeopleLeftInWithdrawFees +\n                        (_amount - withdrawAmount);\n                }\n            } else {\n                uint256 withdrawAmount = ((95 * _amount) / 100);\n                IERC20(_token).transfer(msg.sender, withdrawAmount);\n\n                amountPeopleLeftInWithdrawFees =\n                    amountPeopleLeftInWithdrawFees +\n                    (_amount - withdrawAmount);\n            }\n        } else {\n            IERC20(_token).transfer(msg.sender, _amount);\n        }\n\n        stakingRewards[msg.sender] = getAvailableStakingRewards(\n            msg.sender,\n            _token\n        );\n\n        stakingTimeStamp[msg.sender] = block.timestamp;\n\n        stakingBalance[_token][msg.sender] = balance - _amount;\n\n        totalTokensStaked = totalTokensStaked - _amount;\n        if (stakingBalance[_token][msg.sender] <= 0) {\n            uniqueTokenStakers = uniqueTokenStakers - 1;\n            uniqueTokensStaked[msg.sender] = uniqueTokensStaked[msg.sender] - 1;\n        }\n        // if (uniqueTokensStaked[msg.sender] == 0) {\n        //     for (\n        //         uint256 stakersIndex = 0;\n        //         stakersIndex < stakers.length;\n        //         stakersIndex++\n        //     ) {\n        //         address recipient = stakers[stakersIndex];\n        //         if (msg.sender == recipient) {\n        //             // stakers.splice(stakersIndex, 1); this part is not working\n        //         }\n        //     }\n        // }\n    }\n\n    function unstakeAllTokens(address _token) public {\n        uint256 balance = stakingBalance[_token][msg.sender];\n        require(balance > 0, \"Staking balance cannot be 0\");\n        require(tokenIsAllowed(_token), \"Token is currently not allowed\");\n\n        // IERC20(_token).transfer(msg.sender, balance);\n\n        uint256 timeNow = block.timestamp;\n        if (timeNow < (stakingTimeToWithdraw[msg.sender] + 4838400)) {\n            if (timeNow < (stakingTimeToWithdraw[msg.sender] + 3628800)) {\n                if (timeNow < (stakingTimeToWithdraw[msg.sender] + 2419200)) {\n                    if (\n                        timeNow < (stakingTimeToWithdraw[msg.sender] + 1209600)\n                    ) {\n                        uint256 withdrawAmount = ((75 * balance) / 100);\n                        IERC20(_token).transfer(msg.sender, withdrawAmount);\n\n                        amountPeopleLeftInWithdrawFees =\n                            amountPeopleLeftInWithdrawFees +\n                            (balance - withdrawAmount);\n                    } else {\n                        uint256 withdrawAmount = ((85 * balance) / 100);\n                        IERC20(_token).transfer(msg.sender, withdrawAmount);\n\n                        amountPeopleLeftInWithdrawFees =\n                            amountPeopleLeftInWithdrawFees +\n                            (balance - withdrawAmount);\n                    }\n                } else {\n                    uint256 withdrawAmount = ((90 * balance) / 100);\n                    IERC20(_token).transfer(msg.sender, withdrawAmount);\n\n                    amountPeopleLeftInWithdrawFees =\n                        amountPeopleLeftInWithdrawFees +\n                        (balance - withdrawAmount);\n                }\n            } else {\n                uint256 withdrawAmount = ((95 * balance) / 100);\n                IERC20(_token).transfer(msg.sender, withdrawAmount);\n\n                amountPeopleLeftInWithdrawFees =\n                    amountPeopleLeftInWithdrawFees +\n                    (balance - withdrawAmount);\n            }\n        } else {\n            IERC20(_token).transfer(msg.sender, balance);\n        }\n        stakingRewards[msg.sender] = getAvailableStakingRewards(\n            msg.sender,\n            _token\n        );\n\n        stakingTimeStamp[msg.sender] = block.timestamp;\n\n        totalTokensStaked = totalTokensStaked - balance;\n        stakingBalance[_token][msg.sender] = 0;\n        uniqueTokensStaked[msg.sender] = uniqueTokensStaked[msg.sender] - 1;\n        uniqueTokenStakers = uniqueTokenStakers - 1;\n    }\n\n    function updateUniqueTokensStaked(address _user, address _token) internal {\n        if (stakingBalance[_token][_user] <= 0) {\n            uniqueTokensStaked[_user] = uniqueTokensStaked[_user] + 1;\n        }\n    }\n\n    function updateUniqueTokenStakers(address _user, address _token) internal {\n        if (stakingBalance[_token][_user] <= 0) {\n            uniqueTokenStakers = uniqueTokenStakers + 1;\n        }\n    }\n\n    function addAllowedTokens(address _token) public onlyOwner {\n        allowedTokens.push(_token);\n    }\n\n    function tokenIsAllowed(address _token) public returns (bool) {\n        for (\n            uint256 allowedTokensIndex = 0;\n            allowedTokensIndex < allowedTokens.length;\n            allowedTokensIndex++\n        ) {\n            if (allowedTokens[allowedTokensIndex] == _token) {\n                return true;\n            }\n        }\n        return false;\n    }\n}\n","sourcePath":"contracts/TokenFarm.sol","type":"contract","deployment":{"address":"0x4F14DDDbA739177255297a5E75f4e731a2A19F7a","chainid":"42","blockHeight":30490154}}