{"abi":[{"inputs":[{"internalType":"address","name":"_dappTokenAddress","type":"address"},{"internalType":"address","name":"_priceFeed","type":"address"}],"stateMutability":"nonpayable","type":"constructor","name":"constructor"},{"anonymous":false,"inputs":[{"indexed":true,"internalType":"address","name":"previousOwner","type":"address"},{"indexed":true,"internalType":"address","name":"newOwner","type":"address"}],"name":"OwnershipTransferred","type":"event"},{"inputs":[],"name":"APY","outputs":[{"internalType":"uint256","name":"","type":"uint256"}],"stateMutability":"view","type":"function"},{"inputs":[{"internalType":"address","name":"_token","type":"address"}],"name":"addAllowedTokens","outputs":[],"stateMutability":"nonpayable","type":"function"},{"inputs":[{"internalType":"address","name":"_token","type":"address"}],"name":"addPreSaleAllowedTokens","outputs":[],"stateMutability":"nonpayable","type":"function"},{"inputs":[{"internalType":"address","name":"","type":"address"}],"name":"addressToAmountFunded","outputs":[{"internalType":"uint256","name":"","type":"uint256"}],"stateMutability":"view","type":"function"},{"inputs":[],"name":"allPoolsTotalWeight","outputs":[{"internalType":"uint256","name":"","type":"uint256"}],"stateMutability":"view","type":"function"},{"inputs":[],"name":"allocatedAmountToEachUser","outputs":[{"internalType":"uint256","name":"","type":"uint256"}],"stateMutability":"view","type":"function"},{"inputs":[{"internalType":"uint256","name":"","type":"uint256"}],"name":"allowedTokens","outputs":[{"internalType":"address","name":"","type":"address"}],"stateMutability":"view","type":"function"},{"inputs":[],"name":"amountAllocatedToEachShare","outputs":[{"internalType":"uint256","name":"","type":"uint256"}],"stateMutability":"view","type":"function"},{"inputs":[],"name":"amountPeopleLeftInWithdrawFees","outputs":[{"internalType":"uint256","name":"","type":"uint256"}],"stateMutability":"view","type":"function"},{"inputs":[{"internalType":"address","name":"_user","type":"address"},{"internalType":"address","name":"_token","type":"address"}],"name":"calculateStakingRewards","outputs":[{"internalType":"uint256","name":"","type":"uint256"}],"stateMutability":"view","type":"function"},{"inputs":[{"internalType":"uint256","name":"_number","type":"uint256"}],"name":"changeBaseNumberStakingLevel","outputs":[],"stateMutability":"nonpayable","type":"function"},{"inputs":[{"internalType":"uint256","name":"_number","type":"uint256"},{"internalType":"bool","name":"_status","type":"bool"}],"name":"changePreSaleNumberStatus","outputs":[],"stateMutability":"nonpayable","type":"function"},{"inputs":[{"internalType":"uint256","name":"_level","type":"uint256"},{"internalType":"uint256","name":"_weight","type":"uint256"}],"name":"changeStakingLevelToWeight","outputs":[],"stateMutability":"nonpayable","type":"function"},{"inputs":[],"name":"claimAllPreSaletokens","outputs":[],"stateMutability":"nonpayable","type":"function"},{"inputs":[{"internalType":"uint256","name":"_amount","type":"uint256"}],"name":"claimPreSaleTokens","outputs":[],"stateMutability":"nonpayable","type":"function"},{"inputs":[{"internalType":"address","name":"_token","type":"address"}],"name":"claimStakingRewards","outputs":[],"stateMutability":"nonpayable","type":"function"},{"inputs":[{"internalType":"address","name":"","type":"address"}],"name":"collectedPreSaleFunds","outputs":[{"internalType":"uint256","name":"","type":"uint256"}],"stateMutability":"view","type":"function"},{"inputs":[],"name":"dappToken","outputs":[{"internalType":"contract IERC20","name":"","type":"address"}],"stateMutability":"view","type":"function"},{"inputs":[{"internalType":"uint256","name":"","type":"uint256"}],"name":"funders","outputs":[{"internalType":"address","name":"","type":"address"}],"stateMutability":"view","type":"function"},{"inputs":[{"internalType":"address","name":"_sender","type":"address"},{"internalType":"address","name":"_token","type":"address"},{"internalType":"uint256","name":"_preSaleNumber","type":"uint256"}],"name":"getAllocatedPreSaleAmount","outputs":[{"internalType":"uint256","name":"","type":"uint256"}],"stateMutability":"nonpayable","type":"function"},{"inputs":[{"internalType":"address","name":"_token","type":"address"},{"internalType":"address","name":"_sender","type":"address"}],"name":"getAvailablePreSaleTokensToWithdraw","outputs":[{"internalType":"uint256","name":"","type":"uint256"}],"stateMutability":"view","type":"function"},{"inputs":[{"internalType":"address","name":"_sender","type":"address"},{"internalType":"address","name":"_token","type":"address"}],"name":"getAvailableStakingRewards","outputs":[{"internalType":"uint256","name":"","type":"uint256"}],"stateMutability":"view","type":"function"},{"inputs":[{"internalType":"uint256","name":"ethAmount","type":"uint256"}],"name":"getConversionRate","outputs":[{"internalType":"uint256","name":"","type":"uint256"}],"stateMutability":"view","type":"function"},{"inputs":[],"name":"getEntranceFee","outputs":[{"internalType":"uint256","name":"","type":"uint256"}],"stateMutability":"view","type":"function"},{"inputs":[],"name":"getPrice","outputs":[{"internalType":"uint256","name":"","type":"uint256"}],"stateMutability":"view","type":"function"},{"inputs":[{"internalType":"address","name":"_token","type":"address"}],"name":"getSingleTokenAllPreSaleBalance","outputs":[{"internalType":"uint256","name":"","type":"uint256"}],"stateMutability":"nonpayable","type":"function"},{"inputs":[{"internalType":"address","name":"_sender","type":"address"},{"internalType":"address","name":"_token","type":"address"}],"name":"getStakingLevel","outputs":[{"internalType":"uint256","name":"","type":"uint256"}],"stateMutability":"view","type":"function"},{"inputs":[{"internalType":"address","name":"_token","type":"address"}],"name":"getTokenValue","outputs":[{"internalType":"uint256","name":"","type":"uint256"},{"internalType":"uint256","name":"","type":"uint256"}],"stateMutability":"view","type":"function"},{"inputs":[{"internalType":"address","name":"_user","type":"address"},{"internalType":"address","name":"_token","type":"address"}],"name":"getUserSingleTokenValue","outputs":[{"internalType":"uint256","name":"","type":"uint256"}],"stateMutability":"view","type":"function"},{"inputs":[{"internalType":"address","name":"_user","type":"address"}],"name":"getUserTotalValue","outputs":[{"internalType":"uint256","name":"","type":"uint256"}],"stateMutability":"view","type":"function"},{"inputs":[],"name":"getVersion","outputs":[{"internalType":"uint256","name":"","type":"uint256"}],"stateMutability":"view","type":"function"},{"inputs":[{"internalType":"uint256","name":"_percentageAmount","type":"uint256"}],"name":"issuePreSaleTokensToWithdrawPercentage","outputs":[],"stateMutability":"nonpayable","type":"function"},{"inputs":[],"name":"issueTokens","outputs":[],"stateMutability":"nonpayable","type":"function"},{"inputs":[{"internalType":"address","name":"_token","type":"address"},{"internalType":"uint256","name":"_amount","type":"uint256"}],"name":"manageDepositOwnerFunds","outputs":[],"stateMutability":"nonpayable","type":"function"},{"inputs":[{"internalType":"address","name":"_token","type":"address"},{"internalType":"uint256","name":"_amount","type":"uint256"}],"name":"manageWithdrawOwnerFunds","outputs":[],"stateMutability":"nonpayable","type":"function"},{"inputs":[],"name":"owner","outputs":[{"internalType":"address","name":"","type":"address"}],"stateMutability":"view","type":"function"},{"inputs":[{"internalType":"uint256","name":"_preSaleNumber","type":"uint256"},{"internalType":"address","name":"_token","type":"address"}],"name":"participateInPreSaleAllocation","outputs":[],"stateMutability":"nonpayable","type":"function"},{"inputs":[],"name":"percentageWithdrawAllowed","outputs":[{"internalType":"uint256","name":"","type":"uint256"}],"stateMutability":"view","type":"function"},{"inputs":[{"internalType":"uint256","name":"","type":"uint256"}],"name":"preSaleAllocationStatus","outputs":[{"internalType":"bool","name":"","type":"bool"}],"stateMutability":"view","type":"function"},{"inputs":[{"internalType":"uint256","name":"","type":"uint256"}],"name":"preSaleAllowedTokens","outputs":[{"internalType":"address","name":"","type":"address"}],"stateMutability":"view","type":"function"},{"inputs":[{"internalType":"uint256","name":"_amount","type":"uint256"},{"internalType":"address","name":"_token","type":"address"}],"name":"preSaleFund","outputs":[],"stateMutability":"nonpayable","type":"function"},{"inputs":[{"internalType":"uint256","name":"","type":"uint256"}],"name":"preSaleFunders","outputs":[{"internalType":"address","name":"","type":"address"}],"stateMutability":"view","type":"function"},{"inputs":[{"internalType":"uint256","name":"","type":"uint256"}],"name":"preSaleNumberStatus","outputs":[{"internalType":"bool","name":"","type":"bool"}],"stateMutability":"view","type":"function"},{"inputs":[{"internalType":"address","name":"","type":"address"}],"name":"preSaleParticipantsStatus","outputs":[{"internalType":"bool","name":"","type":"bool"}],"stateMutability":"view","type":"function"},{"inputs":[],"name":"preSaleTokenAddress","outputs":[{"internalType":"contract IERC20","name":"","type":"address"}],"stateMutability":"view","type":"function"},{"inputs":[{"internalType":"address","name":"_token","type":"address"}],"name":"preSaleTokenIsAllowed","outputs":[{"internalType":"bool","name":"","type":"bool"}],"stateMutability":"nonpayable","type":"function"},{"inputs":[],"name":"priceFeedA","outputs":[{"internalType":"contract AggregatorV3Interface","name":"","type":"address"}],"stateMutability":"view","type":"function"},{"inputs":[{"internalType":"address","name":"","type":"address"},{"internalType":"address","name":"","type":"address"}],"name":"purchasedBalance","outputs":[{"internalType":"uint256","name":"","type":"uint256"}],"stateMutability":"view","type":"function"},{"inputs":[],"name":"renounceOwnership","outputs":[],"stateMutability":"nonpayable","type":"function"},{"inputs":[{"internalType":"uint256","name":"_APY","type":"uint256"}],"name":"setAPY","outputs":[],"stateMutability":"nonpayable","type":"function"},{"inputs":[{"internalType":"uint256","name":"_number","type":"uint256"},{"internalType":"bool","name":"_status","type":"bool"}],"name":"setPreSaleAllocationStatus","outputs":[],"stateMutability":"nonpayable","type":"function"},{"inputs":[{"internalType":"address","name":"_token","type":"address"},{"internalType":"address","name":"_priceFeed","type":"address"}],"name":"setPriceFeedContract","outputs":[],"stateMutability":"nonpayable","type":"function"},{"inputs":[{"internalType":"uint256","name":"_amount","type":"uint256"}],"name":"setTotalAmountToCollectForThisPreSale","outputs":[],"stateMutability":"nonpayable","type":"function"},{"inputs":[],"name":"singleTokenAllPreSaleBalance","outputs":[{"internalType":"uint256","name":"","type":"uint256"}],"stateMutability":"view","type":"function"},{"inputs":[{"internalType":"uint256","name":"_amount","type":"uint256"},{"internalType":"address","name":"_token","type":"address"}],"name":"stakeTokens","outputs":[],"stateMutability":"nonpayable","type":"function"},{"inputs":[{"internalType":"uint256","name":"","type":"uint256"}],"name":"stakers","outputs":[{"internalType":"address","name":"","type":"address"}],"stateMutability":"view","type":"function"},{"inputs":[{"internalType":"address","name":"","type":"address"},{"internalType":"address","name":"","type":"address"}],"name":"stakingBalance","outputs":[{"internalType":"uint256","name":"","type":"uint256"}],"stateMutability":"view","type":"function"},{"inputs":[{"internalType":"uint256","name":"","type":"uint256"}],"name":"stakingLevelToWeight","outputs":[{"internalType":"uint256","name":"","type":"uint256"}],"stateMutability":"view","type":"function"},{"inputs":[{"internalType":"uint256","name":"","type":"uint256"}],"name":"stakingLevelUserCounter","outputs":[{"internalType":"uint256","name":"","type":"uint256"}],"stateMutability":"view","type":"function"},{"inputs":[{"internalType":"address","name":"","type":"address"}],"name":"stakingTimeToWithdraw","outputs":[{"internalType":"uint256","name":"","type":"uint256"}],"stateMutability":"view","type":"function"},{"inputs":[],"name":"staking_level_users_counter","outputs":[{"internalType":"uint256","name":"","type":"uint256"}],"stateMutability":"view","type":"function"},{"inputs":[{"internalType":"address","name":"_token","type":"address"}],"name":"tokenIsAllowed","outputs":[{"internalType":"bool","name":"","type":"bool"}],"stateMutability":"nonpayable","type":"function"},{"inputs":[{"internalType":"address","name":"","type":"address"}],"name":"tokenPriceFeedMapping","outputs":[{"internalType":"address","name":"","type":"address"}],"stateMutability":"view","type":"function"},{"inputs":[],"name":"totalAmountToCollectForThisPreSale","outputs":[{"internalType":"uint256","name":"","type":"uint256"}],"stateMutability":"view","type":"function"},{"inputs":[{"internalType":"address","name":"","type":"address"}],"name":"totalCollectionOfPreSaleFunds","outputs":[{"internalType":"uint256","name":"","type":"uint256"}],"stateMutability":"view","type":"function"},{"inputs":[],"name":"totalCollectionOfPreSaleFundsAllTokens","outputs":[{"internalType":"uint256","name":"","type":"uint256"}],"stateMutability":"view","type":"function"},{"inputs":[{"internalType":"address","name":"","type":"address"}],"name":"totalPurchasedPreSaleTokens","outputs":[{"internalType":"uint256","name":"","type":"uint256"}],"stateMutability":"view","type":"function"},{"inputs":[],"name":"totalTokensStaked","outputs":[{"internalType":"uint256","name":"","type":"uint256"}],"stateMutability":"view","type":"function"},{"inputs":[{"internalType":"address","name":"","type":"address"}],"name":"totalWithdrawnPreSaleTokens","outputs":[{"internalType":"uint256","name":"","type":"uint256"}],"stateMutability":"view","type":"function"},{"inputs":[{"internalType":"address","name":"newOwner","type":"address"}],"name":"transferOwnership","outputs":[],"stateMutability":"nonpayable","type":"function"},{"inputs":[{"internalType":"address","name":"","type":"address"}],"name":"uniquePreSaleTokensStaked","outputs":[{"internalType":"uint256","name":"","type":"uint256"}],"stateMutability":"view","type":"function"},{"inputs":[],"name":"uniqueTokenStakers","outputs":[{"internalType":"uint256","name":"","type":"uint256"}],"stateMutability":"view","type":"function"},{"inputs":[{"internalType":"address","name":"","type":"address"}],"name":"uniqueTokensStaked","outputs":[{"internalType":"uint256","name":"","type":"uint256"}],"stateMutability":"view","type":"function"},{"inputs":[{"internalType":"address","name":"_token","type":"address"}],"name":"unstakeAllTokens","outputs":[],"stateMutability":"nonpayable","type":"function"},{"inputs":[{"internalType":"uint256","name":"_amount","type":"uint256"},{"internalType":"address","name":"_token","type":"address"}],"name":"unstakeTokens","outputs":[],"stateMutability":"nonpayable","type":"function"},{"inputs":[{"internalType":"address","name":"_preSaleTokenAddress","type":"address"}],"name":"updatePreSaleTokenAddress","outputs":[],"stateMutability":"nonpayable","type":"function"},{"inputs":[{"internalType":"uint256","name":"_times","type":"uint256"}],"name":"updateTimes","outputs":[],"stateMutability":"nonpayable","type":"function"},{"inputs":[{"internalType":"address","name":"","type":"address"}],"name":"whenParticipatedThatLevel","outputs":[{"internalType":"uint256","name":"","type":"uint256"}],"stateMutability":"view","type":"function"},{"inputs":[{"internalType":"address","name":"_token","type":"address"}],"name":"withdrawAmountPeopleLeftInWithdrawFees","outputs":[],"stateMutability":"nonpayable","type":"function"},{"inputs":[{"internalType":"address","name":"_token","type":"address"}],"name":"withdrawPreSaleCollectedFund","outputs":[],"stateMutability":"nonpayable","type":"function"}],"bytecode":"6080604052600a6001556105dc6020553480156200001c57600080fd5b5060405162003fbb38038062003fbb8339810160408190526200003f916200050b565b6200004a336200049e565b600e80546001600160a01b039384166001600160a01b031991821617909155601b8054929093169116179055601e602081905260007f65ce8396b736f5da9d881cc6fbcb11ef9721292dc41ec8c40879fd9edea5744d81905560017f873299c6a6c39b8b92f01922bb622df4a3236ea2876aac2da76f6c092cf7e98f5560027f8a1ea6ccfdf9f988bdc16303c81231f9b192785454b34880c28e5c30362354c55560037f4bbb14a9b8bdd7baf7e45936eef68b1d3b69ec665e4d3d9f22d086627a2b08805560047f2eca6469c5988648711d819e241e59ec9e94a879e5d491ce337260f9e75414125560057f86d72ecda2f02015d839a182675ed983893a479e8f4279fb5498fd7244fa5dfe5560067f3b995de482df97a2c9d456eaddef4a2d8e37e8b7ceaa84df3200ae34890448f35560077f07e07990268d552e861c3b3b30762ae1d401e128d88dcdc061f5fba57e7ac9f85560087f8dd77d38164a78ad615ed6f87db5c81e75803d1677bf75ecfbbe3c73b83871415560097f2fcdb860d99ada637bba31889280ce2d4217586b5da61641dd5742bcbb7aa46a55600a7f4150be2f2e4ca26ea4353f7f6543634639cb7af12002f06e7614303d57e128f955600f7fe065eaad7f40a2cd4bc1efc6f4344c19df9fe636b15760bd5961fc0e3be3cc285560147fc2cdcac6815e8dba5c073d2c4a622d2de1453a902e3ebd096b6c8686d03a6e515560197f4dfc35b27a2a15eb38750f68a286ed8b8346956ebe7227ceb2dd7dd5c373ac26557fb967cce98cabd8d1f7aeda98d36c0158d6775cfe7c62f16953241eb7720ce15b9190915560237f32abc6767b4a526ba081342d89c77eb5e415f12f68af45f1f8433a1280ad46885560287fdbd8d1ccee8c6d7be969746c1fe539d14d7943a9f704f7aeaac79295156a980055602d7f218a762fb5580fc51401a5fc690f183f97f4e4b89e9cfcd822ba18577f9210fc5560327f1a1586bd60010e5250bec70a13f10b57a516d531e2e13f8e06bc6444e08990d555603c7f17f6e9bae84339b87dec02358cd3c31ef1652c5c381cc3e5ccf667ac2322cd235560467f57f7e17d109c663c1b21f4419ef762bc64baea1b8a757f23e8ca6984e62d52d25560507ffce0de9d50a3d1acf6fc25d06cc116ec2bfb69af108c962cc29b045e83164d0d55605a7f1a4cc25510354c589bd7946b3dc2275b971564533a277044a7363966a283b0dc5560647fa4ec8c329519c7dcf531f6496ed5d60fa1ccb9710ce24cab0ef13e1ee263334f55606e7f5f90b9a2fb0d3c15f43274ee5caf6dd9bd9f976b15cf11617fde6e8e8fe15c9b5560787f45768a1322d624d68f3a4861f29d212d4f45fa493b346276b7199d716f4cb86f5560827fe958f81d8b8dd448a0753719ffaa76d7252ff37e1c61af328234250c9c7863ae55608c7fa735894fb4ad4eed679d05ff9f9934abb52e44e0cb86a50d1e8ff15c308aba0e55601c905260967ff1de1e01c421a3570903cc3ce14bc5911c7c246bd5b6523c814df713c8f04b9b5562000543565b600080546001600160a01b038381166001600160a01b0319831681178455604051919092169283917f8be0079c531659141344cd1fd0a4f28419497f9722a3daafe3b4186f6b6457e09190a35050565b80516001600160a01b03811681146200050657600080fd5b919050565b600080604083850312156200051f57600080fd5b6200052a83620004ee565b91506200053a60208401620004ee565b90509250929050565b613a6880620005536000396000f3fe608060405234801561001057600080fd5b50600436106104805760003560e01c806379f27c9e11610257578063b83e023411610146578063ee68c5a6116100c3578063f3c3222b11610087578063f3c3222b14610a94578063fb27b0ed14610aa7578063fb4854aa14610aba578063fd5e6dd114610add578063fe83383114610af057600080fd5b8063ee68c5a614610a1a578063ef8bd30514610a3d578063f08aae8114610a46578063f1c5d6c214610a59578063f2fde38b14610a8157600080fd5b8063dc0d3dff1161010a578063dc0d3dff146109ae578063dd5b8467146109c1578063e2453396146109d4578063e4c78422146109f4578063eace7e2314610a0757600080fd5b8063b83e023414610956578063c071cf8314610976578063c98a6c491461097f578063ca97fc2914610992578063cd32e7921461099b57600080fd5b806396bb1fef116101d4578063a7ef85a211610198578063a7ef85a2146108f4578063af3f5e2214610907578063b0e31b2d1461091a578063b195558c14610923578063b379bc6a1461093657600080fd5b806396bb1fef1461089257806398d5fdca146108a55780639f20f62d146108ad578063a307bb0c146108d8578063a4abf261146108e157600080fd5b80638a757ec21161021b5780638a757ec2146108255780638b1d8cfd146108385780638b20c4c2146108585780638d6b0dfa146108785780638da5cb5b1461088157600080fd5b806379f27c9e146107b057806384d269ad146107c3578063850fb311146107d6578063877dd39d1461080957806389b4623f1461081c57600080fd5b8063409ed87e11610373578063635ab2f7116102f0578063715018a6116102b4578063715018a6146107665780637290b3ad1461076e5780637737721b1461078157806377a4cfe814610794578063788cfe9f146107a757600080fd5b8063635ab2f7146106ed57806366b98718146107005780636b3dd9e2146107135780636e5b6b28146107335780636f4a2a2f1461074657600080fd5b80635e5f2e26116103375780635e5f2e26146106995780635eb186f8146106ac57806360ab5852146106bf578063630b8a8a146106c75780636323085c146106da57600080fd5b8063409ed87e1461064457806341a7a45e146106575780635084be371461066a5780635bb394d11461067d5780635d9902501461068657600080fd5b8063276b11da11610401578063383cae1d116103c5578063383cae1d146105cb5780633d6217a6146105de5780633d8c3cdd146105fe5780633dbee808146106115780633e47d6f31461062457600080fd5b8063276b11da1461051957806327927b3e1461052c57806327cd08a91461056d57806329161a00146105805780632b996e68146105ab57600080fd5b80630d8e6e2c116104485780630d8e6e2c146104da5780630e53fecb146104e2578063171e44ea146104ea57806319d9caa9146104fd57806324f45e671461050657600080fd5b806304070b431461048557806307c54e08146104a157806308b7d791146104b657806309bc33a7146104bf5780630bea440d146104c7575b600080fd5b61048e60285481565b6040519081526020015b60405180910390f35b6104b46104af366004613519565b610b10565b005b61048e60175481565b61048e610b55565b6104b46104d5366004613552565b610b92565b61048e610d4b565b6104b4610dbe565b6104b46104f836600461357e565b610ee1565b61048e60135481565b6104b46105143660046135a0565b610f5d565b61048e6105273660046135b9565b610f8c565b61055561053a36600461357e565b6008602052600090815260409020546001600160a01b031681565b6040516001600160a01b039091168152602001610498565b61055561057b3660046135a0565b611013565b61048e61058e3660046135b9565b600260209081526000928352604080842090915290825290205481565b61048e6105b93660046135a0565b601e6020526000908152604090205481565b601b54610555906001600160a01b031681565b61048e6105ec36600461357e565b60236020526000908152604090205481565b61048e61060c3660046135b9565b61103d565b6104b461061f36600461357e565b6110da565b61048e61063236600461357e565b60186020526000908152604090205481565b6104b46106523660046135a0565b61117f565b6104b46106653660046135f1565b61133d565b6104b46106783660046135a0565b611387565b61048e60245481565b6104b4610694366004613552565b6113b6565b6105556106a73660046135a0565b611661565b600e54610555906001600160a01b031681565b6104b4611671565b6104b46106d536600461357e565b61176b565b61048e6106e83660046135b9565b6117e7565b6104b46106fb366004613621565b611841565b6104b461070e36600461357e565b6118e8565b61048e61072136600461357e565b60166020526000908152604090205481565b61048e6107413660046135a0565b611934565b61048e61075436600461357e565b60126020526000908152604090205481565b6104b4611968565b6104b461077c366004613552565b61199e565b61048e61078f3660046135b9565b611a75565b61048e6107a23660046135b9565b611aa5565b61048e60265481565b6104b46107be36600461357e565b612400565b6104b46107d1366004613552565b612548565b6107f96107e436600461357e565b60226020526000908152604090205460ff1681565b6040519015158152602001610498565b6104b46108173660046135b9565b6128be565b61048e60295481565b6104b46108333660046135a0565b612916565b61048e6108463660046135a0565b60216020526000908152604090205481565b61048e61086636600461357e565b60146020526000908152604090205481565b61048e60275481565b6000546001600160a01b0316610555565b6104b46108a036600461357e565b612945565b61048e6129f5565b61048e6108bb3660046135b9565b601060209081526000928352604080842090915290825290205481565b61048e60065481565b6104b46108ef3660046135a0565b612a8c565b6104b46109023660046135f1565b612af5565b61048e61091536600461357e565b612b3f565b61048e600b5481565b6107f961093136600461357e565b612bfd565b61048e61094436600461357e565b601c6020526000908152604090205481565b61048e61096436600461357e565b60076020526000908152604090205481565b61048e601d5481565b6104b461098d36600461357e565b612c67565b61048e600a5481565b6104b46109a9366004613621565b612f77565b6105556109bc3660046135a0565b612fcf565b6107f96109cf36600461357e565b612fdf565b61048e6109e236600461357e565b60056020526000908152604090205481565b61048e610a0236600461357e565b613040565b61048e610a1536600461364b565b6130e0565b6107f9610a283660046135a0565b601f6020526000908152604090205460ff1681565b61048e60015481565b610555610a543660046135a0565b6131cc565b610a6c610a6736600461357e565b6131dc565b60408051928352602083019190915201610498565b6104b4610a8f36600461357e565b6132dd565b6104b4610aa23660046135a0565b613375565b600f54610555906001600160a01b031681565b6107f9610ac83660046135a0565b60256020526000908152604090205460ff1681565b610555610aeb3660046135a0565b6133a4565b61048e610afe36600461357e565b60116020526000908152604090205481565b6000546001600160a01b03163314610b435760405162461bcd60e51b8152600401610b3a90613687565b60405180910390fd5b6000918252601e602052604090912055565b60006802b5e3af16b188000081610b6a6129f5565b9050670de0b6b3a764000081610b8082856136d2565b610b8a91906136f1565b935050505090565b60008211610bb25760405162461bcd60e51b8152600401610b3a90613713565b610bbb81612fdf565b610bd75760405162461bcd60e51b8152600401610b3a9061374a565b6040516323b872dd60e01b8152336004820152306024820152604481018390526001600160a01b038216906323b872dd906064016020604051808303816000875af1158015610c2a573d6000803e3d6000fd5b505050506040513d601f19601f82011682018060405250810190610c4e9190613781565b50610c5933826133b4565b610c63338261341f565b81600b54610c71919061379e565b600b55610c7e3382611a75565b3360008181526004602090815260408083209490945560038152838220429081905560058252848320556001600160a01b038516825260028152838220928252919091522054610ccf90839061379e565b6001600160a01b038216600090815260026020908152604080832033845282528083209390935560079052205460011415610d4757600c80546001810182556000919091527fdf6966c971051c3d54ec59162606531493a51404a002842f56009d7e5cf4a8c70180546001600160a01b031916331790555b5050565b601b546040805163054fd4d560e41b815290516000926001600160a01b0316916354fd4d509160048083019260209291908290030181865afa158015610d95573d6000803e3d6000fd5b505050506040513d601f19601f82011682018060405250810190610db991906137b6565b905090565b3360009081526014602090815260408083205460169092528220549091610de582846137cf565b90506000606484601754610df991906136d2565b610e0391906136f1565b90506000610e1184836137cf565b905060008511610e2057600080fd5b60008111610e2d57600080fd5b848410610e3957600080fd5b600f5460405163a9059cbb60e01b81526001600160a01b039091169063a9059cbb90610e6b90339085906004016137e6565b6020604051808303816000875af1158015610e8a573d6000803e3d6000fd5b505050506040513d601f19601f82011682018060405250810190610eae9190613781565b5033600090815260166020526040902054610eca90829061379e565b336000908152601660205260409020555050505050565b6000546001600160a01b03163314610f0b5760405162461bcd60e51b8152600401610b3a90613687565b600d80546001810182556000919091527fd7b6990105719101dabeb77144f2a3385c8033acd3af97e9423a695e81ad1eb50180546001600160a01b0319166001600160a01b0392909216919091179055565b6000546001600160a01b03163314610f875760405162461bcd60e51b8152600401610b3a90613687565b600155565b6001600160a01b038216600090815260076020526040812054610fb15750600061100d565b600080610fbd846131dc565b9092509050610fcd81600a6138e3565b6001600160a01b038086166000908152600260209081526040808320938a1683529290522054610ffe9084906136d2565b61100891906136f1565b925050505b92915050565b601a818154811061102357600080fd5b6000918252602090912001546001600160a01b0316905081565b6001600160a01b038083166000818152600360209081526040808320549486168352600282528083209383529290529081205460015491929142919084906064906110899084906136d2565b61109391906136f1565b905060006110a462080520836136f1565b90506000603c6110b487876137cf565b6110be91906136f1565b905060006110cc83836136d2565b9a9950505050505050505050565b6000546001600160a01b031633146111045760405162461bcd60e51b8152600401610b3a90613687565b60065460405163a9059cbb60e01b81526001600160a01b0383169163a9059cbb916111339133916004016137e6565b6020604051808303816000875af1158015611152573d6000803e3d6000fd5b505050506040513d601f19601f820116820180604052508101906111769190613781565b50506000600655565b33600090815260146020908152604080832054601690925282205490916111a682846137cf565b905060006064846017546111ba91906136d2565b6111c491906136f1565b905060006111d284836137cf565b9050600081116111e157600080fd5b808611156111ee57600080fd5b8484106111fa57600080fd5b6000861161121a5760405162461bcd60e51b8152600401610b3a90613713565b8583101561127f5760405162461bcd60e51b815260206004820152602c60248201527f596f7520646f6e2774206861766520656e6f756768207075726368617365642060448201526b746f6b656e73206c6566742160a01b6064820152608401610b3a565b8461128a878661379e565b1061129457600080fd5b600f5460405163a9059cbb60e01b81526001600160a01b039091169063a9059cbb906112c69033908a906004016137e6565b6020604051808303816000875af11580156112e5573d6000803e3d6000fd5b505050506040513d601f19601f820116820180604052508101906113099190613781565b503360009081526016602052604090205461132590879061379e565b33600090815260166020526040902055505050505050565b6000546001600160a01b031633146113675760405162461bcd60e51b8152600401610b3a90613687565b600091825260256020526040909120805460ff1916911515919091179055565b6000546001600160a01b031633146113b15760405162461bcd60e51b8152600401610b3a90613687565b601555565b600082116113d65760405162461bcd60e51b8152600401610b3a90613713565b6113df81612bfd565b6113fb5760405162461bcd60e51b8152600401610b3a9061374a565b6040516323b872dd60e01b8152336004820152306024820152604481018390526001600160a01b038216906323b872dd906064016020604051808303816000875af115801561144e573d6000803e3d6000fd5b505050506040513d601f19601f820116820180604052508101906114729190613781565b506040516370a0823160e01b8152306004820152670de0b6b3a7640000906001600160a01b038316906370a0823190602401602060405180830381865afa1580156114c1573d6000803e3d6000fd5b505050506040513d601f19601f820116820180604052508101906114e591906137b6565b6114ef91906136f1565b601d556114fc338261345e565b6001600160a01b038116600090815260106020908152604080832033845290915290205461152b90839061379e565b6001600160a01b038216600090815260106020908152604080832033845290915290205560155461155c90836136d2565b33600090815260146020526040902054611576919061379e565b336000908152601460209081526040808320939093556001600160a01b03841682526011905220546115a990839061379e565b6001600160a01b0382166000908152601160209081526040808320939093556012905220546115d990839061379e565b6001600160a01b03821660009081526012602052604090205560135461160090839061379e565b601355336000908152601c602052604090205460011415610d4757601980546001810182556000919091527f944998273e477b495144fb8794c914197f3ccb46be2900f4698fd0ef743c96950180546001600160a01b031916331790555050565b600d818154811061102357600080fd5b6000546001600160a01b0316331461169b5760405162461bcd60e51b8152600401610b3a90613687565b60005b600c54811015611768576000600c82815481106116bd576116bd6138ef565b60009182526020822001546001600160a01b031691506116dc82612b3f565b600e5460405163a9059cbb60e01b81529192506001600160a01b03169063a9059cbb9061170f90859085906004016137e6565b6020604051808303816000875af115801561172e573d6000803e3d6000fd5b505050506040513d601f19601f820116820180604052508101906117529190613781565b505050808061176090613905565b91505061169e565b50565b6000546001600160a01b031633146117955760405162461bcd60e51b8152600401610b3a90613687565b601a80546001810182556000919091527f057c384a7d1c54f3a1b2e5e67b2617b8224fdfd1ea7234eea573a6ff665ff63e0180546001600160a01b0319166001600160a01b0392909216919091179055565b6001600160a01b0381166000908152601460209081526040808320546016909252822054601754839060649061181e9085906136d2565b61182891906136f1565b9050600061183683836137cf565b979650505050505050565b6000546001600160a01b0316331461186b5760405162461bcd60e51b8152600401610b3a90613687565b6040516323b872dd60e01b8152336004820152306024820152604481018290526001600160a01b038316906323b872dd906064015b6020604051808303816000875af11580156118bf573d6000803e3d6000fd5b505050506040513d601f19601f820116820180604052508101906118e39190613781565b505050565b6000546001600160a01b031633146119125760405162461bcd60e51b8152600401610b3a90613687565b600f80546001600160a01b0319166001600160a01b0392909216919091179055565b60008061193f6129f5565b90506000670de0b6b3a764000061195685846136d2565b61196091906136f1565b949350505050565b6000546001600160a01b031633146119925760405162461bcd60e51b8152600401610b3a90613687565b61199c60006134c9565b565b6000828152601f602052604090205460ff1615156001146119be57600080fd5b6001600160a01b0381166000908152600260209081526040808320338452909152902054685150ae84a8cdf0000011156119f757600080fd5b6000611a033383611aa5565b11611a0d57600080fd5b3360009081526022602052604090205460ff1615611a2a57600080fd5b6000611a363383611aa5565b600081815260216020526040902054909150611a5390600161379e565b6000828152602160209081526040808320939093553382526023905220555050565b600080611a82848461103d565b6001600160a01b038516600090815260046020526040902054611960919061379e565b6020546000908190611ab89060966136d2565b611aca90670de0b6b3a76400006136d2565b6001600160a01b0380851660009081526002602090815260408083209389168352929052205410611aff5750601c905061100d565b602054611b0d90608c6136d2565b611b1f90670de0b6b3a76400006136d2565b6001600160a01b0380851660009081526002602090815260408083209389168352929052205410611b545750601b905061100d565b602054611b629060826136d2565b611b7490670de0b6b3a76400006136d2565b6001600160a01b0380851660009081526002602090815260408083209389168352929052205410611ba95750601a905061100d565b602054611bb79060786136d2565b611bc990670de0b6b3a76400006136d2565b6001600160a01b0380851660009081526002602090815260408083209389168352929052205410611bfe57506019905061100d565b602054611c0c90606e6136d2565b611c1e90670de0b6b3a76400006136d2565b6001600160a01b0380851660009081526002602090815260408083209389168352929052205410611c5357506018905061100d565b602054611c619060646136d2565b611c7390670de0b6b3a76400006136d2565b6001600160a01b0380851660009081526002602090815260408083209389168352929052205410611ca857506017905061100d565b602054611cb690605a6136d2565b611cc890670de0b6b3a76400006136d2565b6001600160a01b0380851660009081526002602090815260408083209389168352929052205410611cfd57506016905061100d565b602054611d0b9060506136d2565b611d1d90670de0b6b3a76400006136d2565b6001600160a01b0380851660009081526002602090815260408083209389168352929052205410611d5257506015905061100d565b602054611d609060466136d2565b611d7290670de0b6b3a76400006136d2565b6001600160a01b0380851660009081526002602090815260408083209389168352929052205410611da757506014905061100d565b602054611db590603c6136d2565b611dc790670de0b6b3a76400006136d2565b6001600160a01b0380851660009081526002602090815260408083209389168352929052205410611dfc57506013905061100d565b602054611e0a9060326136d2565b611e1c90670de0b6b3a76400006136d2565b6001600160a01b0380851660009081526002602090815260408083209389168352929052205410611e5157506012905061100d565b602054611e5f90602d6136d2565b611e7190670de0b6b3a76400006136d2565b6001600160a01b0380851660009081526002602090815260408083209389168352929052205410611ea657506011905061100d565b602054611eb49060286136d2565b611ec690670de0b6b3a76400006136d2565b6001600160a01b0380851660009081526002602090815260408083209389168352929052205410611efb57506010905061100d565b602054611f099060236136d2565b611f1b90670de0b6b3a76400006136d2565b6001600160a01b0380851660009081526002602090815260408083209389168352929052205410611f505750600f905061100d565b602054611f5e90601e6136d2565b611f7090670de0b6b3a76400006136d2565b6001600160a01b0380851660009081526002602090815260408083209389168352929052205410611fa55750600e905061100d565b602054611fb39060196136d2565b611fc590670de0b6b3a76400006136d2565b6001600160a01b0380851660009081526002602090815260408083209389168352929052205410611ffa5750600d905061100d565b6020546120089060146136d2565b61201a90670de0b6b3a76400006136d2565b6001600160a01b038085166000908152600260209081526040808320938916835292905220541061204f5750600c905061100d565b60205461205d90600f6136d2565b61206f90670de0b6b3a76400006136d2565b6001600160a01b03808516600090815260026020908152604080832093891683529290522054106120a45750600b905061100d565b6020546120b290600a6136d2565b6120c490670de0b6b3a76400006136d2565b6001600160a01b03808516600090815260026020908152604080832093891683529290522054106120f95750600a905061100d565b6020546121079060096136d2565b61211990670de0b6b3a76400006136d2565b6001600160a01b038085166000908152600260209081526040808320938916835292905220541061214e57506009905061100d565b60205461215c9060086136d2565b61216e90670de0b6b3a76400006136d2565b6001600160a01b03808516600090815260026020908152604080832093891683529290522054106121a357506008905061100d565b6020546121b19060076136d2565b6121c390670de0b6b3a76400006136d2565b6001600160a01b03808516600090815260026020908152604080832093891683529290522054106121f857506007905061100d565b6020546122069060066136d2565b61221890670de0b6b3a76400006136d2565b6001600160a01b038085166000908152600260209081526040808320938916835292905220541061224d57506006905061100d565b60205461225b9060056136d2565b61226d90670de0b6b3a76400006136d2565b6001600160a01b03808516600090815260026020908152604080832093891683529290522054106122a257506005905061100d565b6020546122b09060046136d2565b6122c290670de0b6b3a76400006136d2565b6001600160a01b03808516600090815260026020908152604080832093891683529290522054106122f757506004905061100d565b6020546123059060036136d2565b61231790670de0b6b3a76400006136d2565b6001600160a01b038085166000908152600260209081526040808320938916835292905220541061234c57506003905061100d565b60205461235a9060026136d2565b61236c90670de0b6b3a76400006136d2565b6001600160a01b03808516600090815260026020908152604080832093891683529290522054106123a157506002905061100d565b6020546123af9060016136d2565b6123c190670de0b6b3a76400006136d2565b6001600160a01b03808516600090815260026020908152604080832093891683529290522054106123f657506001905061100d565b506000905061100d565b6000546001600160a01b0316331461242a5760405162461bcd60e51b8152600401610b3a90613687565b6001600160a01b0381166000818152601160205260409081902054905163a9059cbb60e01b815290919063a9059cbb9061246a90339085906004016137e6565b6020604051808303816000875af1158015612489573d6000803e3d6000fd5b505050506040513d601f19601f820116820180604052508101906124ad9190613781565b506040516370a0823160e01b8152306004820152670de0b6b3a7640000906001600160a01b038416906370a0823190602401602060405180830381865afa1580156124fc573d6000803e3d6000fd5b505050506040513d601f19601f8201168201806040525081019061252091906137b6565b61252a91906136f1565b601d55506001600160a01b0316600090815260116020526040812055565b6001600160a01b0381166000908152600260209081526040808320338452909152902054826125895760405162461bcd60e51b8152600401610b3a90613713565b828110156125e55760405162461bcd60e51b815260206004820152602360248201527f596f7520646f6e2774206861766520656e6f756768207374616b656420746f6b604482015262656e7360e81b6064820152608401610b3a565b6125ee82612fdf565b61260a5760405162461bcd60e51b8152600401610b3a9061374a565b336000908152600560205260409020544290612629906249d40061379e565b811015612777573360009081526005602052604090205461264d9062375f0061379e565b8110156127685733600090815260056020526040902054612671906224ea0061379e565b8110156127595733600090815260056020526040902054612695906212750061379e565b81101561274a57600060646126ab86604b6136d2565b6126b591906136f1565b60405163a9059cbb60e01b81529091506001600160a01b0385169063a9059cbb906126e690339085906004016137e6565b6020604051808303816000875af1158015612705573d6000803e3d6000fd5b505050506040513d601f19601f820116820180604052508101906127299190613781565b5061273481866137cf565b600654612741919061379e565b600655506127ea565b600060646126ab8660556136d2565b600060646126ab86605a6136d2565b600060646126ab86605f6136d2565b60405163a9059cbb60e01b81526001600160a01b0384169063a9059cbb906127a590339088906004016137e6565b6020604051808303816000875af11580156127c4573d6000803e3d6000fd5b505050506040513d601f19601f820116820180604052508101906127e89190613781565b505b6127f43384611a75565b33600090815260046020908152604080832093909355600390522042905561281c84836137cf565b6001600160a01b0384166000908152600260209081526040808320338452909152902055600b5461284e9085906137cf565b600b556001600160a01b03831660009081526002602090815260408083203384529091529020546128b8576001600a5461288891906137cf565b600a55336000908152600760205260409020546128a7906001906137cf565b336000908152600760205260409020555b50505050565b6000546001600160a01b031633146128e85760405162461bcd60e51b8152600401610b3a90613687565b6001600160a01b03918216600090815260086020526040902080546001600160a01b03191691909216179055565b6000546001600160a01b031633146129405760405162461bcd60e51b8152600401610b3a90613687565b602055565b60006129513383611a75565b90506000811161296057600080fd5b60405163a9059cbb60e01b81526001600160a01b0383169063a9059cbb9061298e90339085906004016137e6565b6020604051808303816000875af11580156129ad573d6000803e3d6000fd5b505050506040513d601f19601f820116820180604052508101906129d19190613781565b50503360009081526004602090815260408083208390556003909152902042905550565b600080601b60009054906101000a90046001600160a01b03166001600160a01b031663feaf968c6040518163ffffffff1660e01b815260040160a060405180830381865afa158015612a4b573d6000803e3d6000fd5b505050506040513d601f19601f82011682018060405250810190612a6f919061393a565b505050915050806402540be400612a86919061398a565b91505090565b6000546001600160a01b03163314612ab65760405162461bcd60e51b8152600401610b3a90613687565b60656017541115612ac657600080fd5b606581601754612ad6919061379e565b1115612ae157600080fd5b80601754612aef919061379e565b60175550565b6000546001600160a01b03163314612b1f5760405162461bcd60e51b8152600401610b3a90613687565b6000918252601f6020526040909120805460ff1916911515919091179055565b6001600160a01b0381166000908152600760205260408120548190612b9a5760405162461bcd60e51b81526020600482015260116024820152704e6f20746f6b656e73207374616b65642160781b6044820152606401610b3a565b60005b600d54811015612bf657612bd884600d8381548110612bbe57612bbe6138ef565b6000918252602090912001546001600160a01b0316610f8c565b612be2908361379e565b915080612bee81613905565b915050612b9d565b5092915050565b6000805b601a54811015612c5e57826001600160a01b0316601a8281548110612c2857612c286138ef565b6000918252602090912001546001600160a01b03161415612c4c5750600192915050565b80612c5681613905565b915050612c01565b50600092915050565b6001600160a01b038116600090815260026020908152604080832033845290915290205480612cd85760405162461bcd60e51b815260206004820152601b60248201527f5374616b696e672062616c616e63652063616e6e6f74206265203000000000006044820152606401610b3a565b612ce182612fdf565b612cfd5760405162461bcd60e51b8152600401610b3a9061374a565b336000908152600560205260409020544290612d1c906249d40061379e565b811015612e6a5733600090815260056020526040902054612d409062375f0061379e565b811015612e5b5733600090815260056020526040902054612d64906224ea0061379e565b811015612e4c5733600090815260056020526040902054612d88906212750061379e565b811015612e3d5760006064612d9e84604b6136d2565b612da891906136f1565b60405163a9059cbb60e01b81529091506001600160a01b0385169063a9059cbb90612dd990339085906004016137e6565b6020604051808303816000875af1158015612df8573d6000803e3d6000fd5b505050506040513d601f19601f82011682018060405250810190612e1c9190613781565b50612e2781846137cf565b600654612e34919061379e565b60065550612edd565b60006064612d9e8460556136d2565b60006064612d9e84605a6136d2565b60006064612d9e84605f6136d2565b60405163a9059cbb60e01b81526001600160a01b0384169063a9059cbb90612e9890339086906004016137e6565b6020604051808303816000875af1158015612eb7573d6000803e3d6000fd5b505050506040513d601f19601f82011682018060405250810190612edb9190613781565b505b612ee73384611a75565b336000908152600460209081526040808320939093556003905220429055600b54612f139083906137cf565b600b556001600160a01b038316600090815260026020908152604080832033845282528083208390556007909152902054612f50906001906137cf565b33600090815260076020526040902055600a54612f6f906001906137cf565b600a55505050565b6000546001600160a01b03163314612fa15760405162461bcd60e51b8152600401610b3a90613687565b60405163a9059cbb60e01b81526001600160a01b0383169063a9059cbb906118a090339085906004016137e6565b6009818154811061102357600080fd5b6000805b600d54811015612c5e57826001600160a01b0316600d828154811061300a5761300a6138ef565b6000918252602090912001546001600160a01b0316141561302e5750600192915050565b8061303881613905565b915050612fe3565b600080546001600160a01b0316331461306b5760405162461bcd60e51b8152600401610b3a90613687565b6040516370a0823160e01b81523060048201526001600160a01b038316906370a0823190602401602060405180830381865afa1580156130af573d6000803e3d6000fd5b505050506040513d601f19601f820116820180604052508101906130d391906137b6565b601d81905590505b919050565b60008181526025602052604081205460ff16151560011461310057600080fd5b60006024541161310f57600080fd5b60015b601d81101561316557600081815260216020908152604080832054601e90925282205461313f91906136d2565b90508060265461314f919061379e565b602655508061315d81613905565b915050613112565b5060265460245461317691906136f1565b60275560006131858585611aa5565b6000818152602160205260409020546029819055602754919250906131aa82846136d2565b6131b491906136d2565b6131be91906136f1565b602881905595945050505050565b6019818154811061102357600080fd5b6001600160a01b03808216600090815260086020526040808220548151633fabe5a360e21b815291519293849391169182918491839163feaf968c9160048082019260a0929091908290030181865afa15801561323d573d6000803e3d6000fd5b505050506040513d601f19601f82011682018060405250810190613261919061393a565b5050509150506000826001600160a01b031663313ce5676040518163ffffffff1660e01b8152600401602060405180830381865afa1580156132a7573d6000803e3d6000fd5b505050506040513d601f19601f820116820180604052508101906132cb9190613a0f565b919760ff909216965090945050505050565b6000546001600160a01b031633146133075760405162461bcd60e51b8152600401610b3a90613687565b6001600160a01b03811661336c5760405162461bcd60e51b815260206004820152602660248201527f4f776e61626c653a206e6577206f776e657220697320746865207a65726f206160448201526564647265737360d01b6064820152608401610b3a565b611768816134c9565b6000546001600160a01b0316331461339f5760405162461bcd60e51b8152600401610b3a90613687565b602455565b600c818154811061102357600080fd5b6001600160a01b03808216600090815260026020908152604080832093861683529290522054610d47576001600160a01b03821660009081526007602052604090205461340290600161379e565b6001600160a01b0383166000908152600760205260409020555050565b6001600160a01b03808216600090815260026020908152604080832093861683529290522054610d4757600a5461345790600161379e565b600a555050565b6001600160a01b03808216600090815260106020908152604080832093861683529290522054610d47576001600160a01b0382166000908152601c60205260409020546134ac90600161379e565b6001600160a01b0383166000908152601c60205260409020555050565b600080546001600160a01b038381166001600160a01b0319831681178455604051919092169283917f8be0079c531659141344cd1fd0a4f28419497f9722a3daafe3b4186f6b6457e09190a35050565b6000806040838503121561352c57600080fd5b50508035926020909101359150565b80356001600160a01b03811681146130db57600080fd5b6000806040838503121561356557600080fd5b823591506135756020840161353b565b90509250929050565b60006020828403121561359057600080fd5b6135998261353b565b9392505050565b6000602082840312156135b257600080fd5b5035919050565b600080604083850312156135cc57600080fd5b6135d58361353b565b91506135756020840161353b565b801515811461176857600080fd5b6000806040838503121561360457600080fd5b823591506020830135613616816135e3565b809150509250929050565b6000806040838503121561363457600080fd5b61363d8361353b565b946020939093013593505050565b60008060006060848603121561366057600080fd5b6136698461353b565b92506136776020850161353b565b9150604084013590509250925092565b6020808252818101527f4f776e61626c653a2063616c6c6572206973206e6f7420746865206f776e6572604082015260600190565b634e487b7160e01b600052601160045260246000fd5b60008160001904831182151516156136ec576136ec6136bc565b500290565b60008261370e57634e487b7160e01b600052601260045260246000fd5b500490565b6020808252601a908201527f416d6f756e74206d757374206265206d6f7265207468616e2030000000000000604082015260600190565b6020808252601e908201527f546f6b656e2069732063757272656e746c79206e6f7420616c6c6f7765640000604082015260600190565b60006020828403121561379357600080fd5b8151613599816135e3565b600082198211156137b1576137b16136bc565b500190565b6000602082840312156137c857600080fd5b5051919050565b6000828210156137e1576137e16136bc565b500390565b6001600160a01b03929092168252602082015260400190565b600181815b8085111561383a578160001904821115613820576138206136bc565b8085161561382d57918102915b93841c9390800290613804565b509250929050565b6000826138515750600161100d565b8161385e5750600061100d565b8160018114613874576002811461387e5761389a565b600191505061100d565b60ff84111561388f5761388f6136bc565b50506001821b61100d565b5060208310610133831016604e8410600b84101617156138bd575081810a61100d565b6138c783836137ff565b80600019048211156138db576138db6136bc565b029392505050565b60006135998383613842565b634e487b7160e01b600052603260045260246000fd5b6000600019821415613919576139196136bc565b5060010190565b805169ffffffffffffffffffff811681146130db57600080fd5b600080600080600060a0868803121561395257600080fd5b61395b86613920565b945060208601519350604086015192506060860151915061397e60808701613920565b90509295509295909350565b60006001600160ff1b03818413828413808216868404861116156139b0576139b06136bc565b600160ff1b60008712828116878305891216156139cf576139cf6136bc565b600087129250878205871284841616156139eb576139eb6136bc565b87850587128184161615613a0157613a016136bc565b505050929093029392505050565b600060208284031215613a2157600080fd5b815160ff8116811461359957600080fdfea264697066735822122001b6553e52758e71f60aa617d6755981125e7cb17cb9f79893de19cd5d5a9ce864736f6c634300080b0033","bytecodeSha1":"050cd1e1fb1d3372d82e489cbcd3e41a9e2e7ead","compiler":{"evm_version":"istanbul","optimizer":{"enabled":true,"runs":200},"version":"0.8.11+commit.d7f03943"},"contractName":"TokenFarm","language":"Solidity","natspec":{"kind":"dev","methods":{"owner()":{"details":"Returns the address of the current owner."},"renounceOwnership()":{"details":"Leaves the contract without owner. It will not be possible to call `onlyOwner` functions anymore. Can only be called by the current owner. NOTE: Renouncing ownership will leave the contract without an owner, thereby removing any functionality that is only available to the owner."},"transferOwnership(address)":{"details":"Transfers ownership of the contract to a new account (`newOwner`). Can only be called by the current owner."}},"version":1},"opcodes":"PUSH1 0x80 PUSH1 0x40 MSTORE CALLVALUE DUP1 ISZERO PUSH2 0x10 JUMPI PUSH1 0x0 DUP1 REVERT JUMPDEST POP PUSH1 0x4 CALLDATASIZE LT PUSH2 0x480 JUMPI PUSH1 0x0 CALLDATALOAD PUSH1 0xE0 SHR DUP1 PUSH4 0x79F27C9E GT PUSH2 0x257 JUMPI DUP1 PUSH4 0xB83E0234 GT PUSH2 0x146 JUMPI DUP1 PUSH4 0xEE68C5A6 GT PUSH2 0xC3 JUMPI DUP1 PUSH4 0xF3C3222B GT PUSH2 0x87 JUMPI DUP1 PUSH4 0xF3C3222B EQ PUSH2 0xA94 JUMPI DUP1 PUSH4 0xFB27B0ED EQ PUSH2 0xAA7 JUMPI DUP1 PUSH4 0xFB4854AA EQ PUSH2 0xABA JUMPI DUP1 PUSH4 0xFD5E6DD1 EQ PUSH2 0xADD JUMPI DUP1 PUSH4 0xFE833831 EQ PUSH2 0xAF0 JUMPI PUSH1 0x0 DUP1 REVERT JUMPDEST DUP1 PUSH4 0xEE68C5A6 EQ PUSH2 0xA1A JUMPI DUP1 PUSH4 0xEF8BD305 EQ PUSH2 0xA3D JUMPI DUP1 PUSH4 0xF08AAE81 EQ PUSH2 0xA46 JUMPI DUP1 PUSH4 0xF1C5D6C2 EQ PUSH2 0xA59 JUMPI DUP1 PUSH4 0xF2FDE38B EQ PUSH2 0xA81 JUMPI PUSH1 0x0 DUP1 REVERT JUMPDEST DUP1 PUSH4 0xDC0D3DFF GT PUSH2 0x10A JUMPI DUP1 PUSH4 0xDC0D3DFF EQ PUSH2 0x9AE JUMPI DUP1 PUSH4 0xDD5B8467 EQ PUSH2 0x9C1 JUMPI DUP1 PUSH4 0xE2453396 EQ PUSH2 0x9D4 JUMPI DUP1 PUSH4 0xE4C78422 EQ PUSH2 0x9F4 JUMPI DUP1 PUSH4 0xEACE7E23 EQ PUSH2 0xA07 JUMPI PUSH1 0x0 DUP1 REVERT JUMPDEST DUP1 PUSH4 0xB83E0234 EQ PUSH2 0x956 JUMPI DUP1 PUSH4 0xC071CF83 EQ PUSH2 0x976 JUMPI DUP1 PUSH4 0xC98A6C49 EQ PUSH2 0x97F JUMPI DUP1 PUSH4 0xCA97FC29 EQ PUSH2 0x992 JUMPI DUP1 PUSH4 0xCD32E792 EQ PUSH2 0x99B JUMPI PUSH1 0x0 DUP1 REVERT JUMPDEST DUP1 PUSH4 0x96BB1FEF GT PUSH2 0x1D4 JUMPI DUP1 PUSH4 0xA7EF85A2 GT PUSH2 0x198 JUMPI DUP1 PUSH4 0xA7EF85A2 EQ PUSH2 0x8F4 JUMPI DUP1 PUSH4 0xAF3F5E22 EQ PUSH2 0x907 JUMPI DUP1 PUSH4 0xB0E31B2D EQ PUSH2 0x91A JUMPI DUP1 PUSH4 0xB195558C EQ PUSH2 0x923 JUMPI DUP1 PUSH4 0xB379BC6A EQ PUSH2 0x936 JUMPI PUSH1 0x0 DUP1 REVERT JUMPDEST DUP1 PUSH4 0x96BB1FEF EQ PUSH2 0x892 JUMPI DUP1 PUSH4 0x98D5FDCA EQ PUSH2 0x8A5 JUMPI DUP1 PUSH4 0x9F20F62D EQ PUSH2 0x8AD JUMPI DUP1 PUSH4 0xA307BB0C EQ PUSH2 0x8D8 JUMPI DUP1 PUSH4 0xA4ABF261 EQ PUSH2 0x8E1 JUMPI PUSH1 0x0 DUP1 REVERT JUMPDEST DUP1 PUSH4 0x8A757EC2 GT PUSH2 0x21B JUMPI DUP1 PUSH4 0x8A757EC2 EQ PUSH2 0x825 JUMPI DUP1 PUSH4 0x8B1D8CFD EQ PUSH2 0x838 JUMPI DUP1 PUSH4 0x8B20C4C2 EQ PUSH2 0x858 JUMPI DUP1 PUSH4 0x8D6B0DFA EQ PUSH2 0x878 JUMPI DUP1 PUSH4 0x8DA5CB5B EQ PUSH2 0x881 JUMPI PUSH1 0x0 DUP1 REVERT JUMPDEST DUP1 PUSH4 0x79F27C9E EQ PUSH2 0x7B0 JUMPI DUP1 PUSH4 0x84D269AD EQ PUSH2 0x7C3 JUMPI DUP1 PUSH4 0x850FB311 EQ PUSH2 0x7D6 JUMPI DUP1 PUSH4 0x877DD39D EQ PUSH2 0x809 JUMPI DUP1 PUSH4 0x89B4623F EQ PUSH2 0x81C JUMPI PUSH1 0x0 DUP1 REVERT JUMPDEST DUP1 PUSH4 0x409ED87E GT PUSH2 0x373 JUMPI DUP1 PUSH4 0x635AB2F7 GT PUSH2 0x2F0 JUMPI DUP1 PUSH4 0x715018A6 GT PUSH2 0x2B4 JUMPI DUP1 PUSH4 0x715018A6 EQ PUSH2 0x766 JUMPI DUP1 PUSH4 0x7290B3AD EQ PUSH2 0x76E JUMPI DUP1 PUSH4 0x7737721B EQ PUSH2 0x781 JUMPI DUP1 PUSH4 0x77A4CFE8 EQ PUSH2 0x794 JUMPI DUP1 PUSH4 0x788CFE9F EQ PUSH2 0x7A7 JUMPI PUSH1 0x0 DUP1 REVERT JUMPDEST DUP1 PUSH4 0x635AB2F7 EQ PUSH2 0x6ED JUMPI DUP1 PUSH4 0x66B98718 EQ PUSH2 0x700 JUMPI DUP1 PUSH4 0x6B3DD9E2 EQ PUSH2 0x713 JUMPI DUP1 PUSH4 0x6E5B6B28 EQ PUSH2 0x733 JUMPI DUP1 PUSH4 0x6F4A2A2F EQ PUSH2 0x746 JUMPI PUSH1 0x0 DUP1 REVERT JUMPDEST DUP1 PUSH4 0x5E5F2E26 GT PUSH2 0x337 JUMPI DUP1 PUSH4 0x5E5F2E26 EQ PUSH2 0x699 JUMPI DUP1 PUSH4 0x5EB186F8 EQ PUSH2 0x6AC JUMPI DUP1 PUSH4 0x60AB5852 EQ PUSH2 0x6BF JUMPI DUP1 PUSH4 0x630B8A8A EQ PUSH2 0x6C7 JUMPI DUP1 PUSH4 0x6323085C EQ PUSH2 0x6DA JUMPI PUSH1 0x0 DUP1 REVERT JUMPDEST DUP1 PUSH4 0x409ED87E EQ PUSH2 0x644 JUMPI DUP1 PUSH4 0x41A7A45E EQ PUSH2 0x657 JUMPI DUP1 PUSH4 0x5084BE37 EQ PUSH2 0x66A JUMPI DUP1 PUSH4 0x5BB394D1 EQ PUSH2 0x67D JUMPI DUP1 PUSH4 0x5D990250 EQ PUSH2 0x686 JUMPI PUSH1 0x0 DUP1 REVERT JUMPDEST DUP1 PUSH4 0x276B11DA GT PUSH2 0x401 JUMPI DUP1 PUSH4 0x383CAE1D GT PUSH2 0x3C5 JUMPI DUP1 PUSH4 0x383CAE1D EQ PUSH2 0x5CB JUMPI DUP1 PUSH4 0x3D6217A6 EQ PUSH2 0x5DE JUMPI DUP1 PUSH4 0x3D8C3CDD EQ PUSH2 0x5FE JUMPI DUP1 PUSH4 0x3DBEE808 EQ PUSH2 0x611 JUMPI DUP1 PUSH4 0x3E47D6F3 EQ PUSH2 0x624 JUMPI PUSH1 0x0 DUP1 REVERT JUMPDEST DUP1 PUSH4 0x276B11DA EQ PUSH2 0x519 JUMPI DUP1 PUSH4 0x27927B3E EQ PUSH2 0x52C JUMPI DUP1 PUSH4 0x27CD08A9 EQ PUSH2 0x56D JUMPI DUP1 PUSH4 0x29161A00 EQ PUSH2 0x580 JUMPI DUP1 PUSH4 0x2B996E68 EQ PUSH2 0x5AB JUMPI PUSH1 0x0 DUP1 REVERT JUMPDEST DUP1 PUSH4 0xD8E6E2C GT PUSH2 0x448 JUMPI DUP1 PUSH4 0xD8E6E2C EQ PUSH2 0x4DA JUMPI DUP1 PUSH4 0xE53FECB EQ PUSH2 0x4E2 JUMPI DUP1 PUSH4 0x171E44EA EQ PUSH2 0x4EA JUMPI DUP1 PUSH4 0x19D9CAA9 EQ PUSH2 0x4FD JUMPI DUP1 PUSH4 0x24F45E67 EQ PUSH2 0x506 JUMPI PUSH1 0x0 DUP1 REVERT JUMPDEST DUP1 PUSH4 0x4070B43 EQ PUSH2 0x485 JUMPI DUP1 PUSH4 0x7C54E08 EQ PUSH2 0x4A1 JUMPI DUP1 PUSH4 0x8B7D791 EQ PUSH2 0x4B6 JUMPI DUP1 PUSH4 0x9BC33A7 EQ PUSH2 0x4BF JUMPI DUP1 PUSH4 0xBEA440D EQ PUSH2 0x4C7 JUMPI JUMPDEST PUSH1 0x0 DUP1 REVERT JUMPDEST PUSH2 0x48E PUSH1 0x28 SLOAD DUP2 JUMP JUMPDEST PUSH1 0x40 MLOAD SWAP1 DUP2 MSTORE PUSH1 0x20 ADD JUMPDEST PUSH1 0x40 MLOAD DUP1 SWAP2 SUB SWAP1 RETURN JUMPDEST PUSH2 0x4B4 PUSH2 0x4AF CALLDATASIZE PUSH1 0x4 PUSH2 0x3519 JUMP JUMPDEST PUSH2 0xB10 JUMP JUMPDEST STOP JUMPDEST PUSH2 0x48E PUSH1 0x17 SLOAD DUP2 JUMP JUMPDEST PUSH2 0x48E PUSH2 0xB55 JUMP JUMPDEST PUSH2 0x4B4 PUSH2 0x4D5 CALLDATASIZE PUSH1 0x4 PUSH2 0x3552 JUMP JUMPDEST PUSH2 0xB92 JUMP JUMPDEST PUSH2 0x48E PUSH2 0xD4B JUMP JUMPDEST PUSH2 0x4B4 PUSH2 0xDBE JUMP JUMPDEST PUSH2 0x4B4 PUSH2 0x4F8 CALLDATASIZE PUSH1 0x4 PUSH2 0x357E JUMP JUMPDEST PUSH2 0xEE1 JUMP JUMPDEST PUSH2 0x48E PUSH1 0x13 SLOAD DUP2 JUMP JUMPDEST PUSH2 0x4B4 PUSH2 0x514 CALLDATASIZE PUSH1 0x4 PUSH2 0x35A0 JUMP JUMPDEST PUSH2 0xF5D JUMP JUMPDEST PUSH2 0x48E PUSH2 0x527 CALLDATASIZE PUSH1 0x4 PUSH2 0x35B9 JUMP JUMPDEST PUSH2 0xF8C JUMP JUMPDEST PUSH2 0x555 PUSH2 0x53A CALLDATASIZE PUSH1 0x4 PUSH2 0x357E JUMP JUMPDEST PUSH1 0x8 PUSH1 0x20 MSTORE PUSH1 0x0 SWAP1 DUP2 MSTORE PUSH1 0x40 SWAP1 KECCAK256 SLOAD PUSH1 0x1 PUSH1 0x1 PUSH1 0xA0 SHL SUB AND DUP2 JUMP JUMPDEST PUSH1 0x40 MLOAD PUSH1 0x1 PUSH1 0x1 PUSH1 0xA0 SHL SUB SWAP1 SWAP2 AND DUP2 MSTORE PUSH1 0x20 ADD PUSH2 0x498 JUMP JUMPDEST PUSH2 0x555 PUSH2 0x57B CALLDATASIZE PUSH1 0x4 PUSH2 0x35A0 JUMP JUMPDEST PUSH2 0x1013 JUMP JUMPDEST PUSH2 0x48E PUSH2 0x58E CALLDATASIZE PUSH1 0x4 PUSH2 0x35B9 JUMP JUMPDEST PUSH1 0x2 PUSH1 0x20 SWAP1 DUP2 MSTORE PUSH1 0x0 SWAP3 DUP4 MSTORE PUSH1 0x40 DUP1 DUP5 KECCAK256 SWAP1 SWAP2 MSTORE SWAP1 DUP3 MSTORE SWAP1 KECCAK256 SLOAD DUP2 JUMP JUMPDEST PUSH2 0x48E PUSH2 0x5B9 CALLDATASIZE PUSH1 0x4 PUSH2 0x35A0 JUMP JUMPDEST PUSH1 0x1E PUSH1 0x20 MSTORE PUSH1 0x0 SWAP1 DUP2 MSTORE PUSH1 0x40 SWAP1 KECCAK256 SLOAD DUP2 JUMP JUMPDEST PUSH1 0x1B SLOAD PUSH2 0x555 SWAP1 PUSH1 0x1 PUSH1 0x1 PUSH1 0xA0 SHL SUB AND DUP2 JUMP JUMPDEST PUSH2 0x48E PUSH2 0x5EC CALLDATASIZE PUSH1 0x4 PUSH2 0x357E JUMP JUMPDEST PUSH1 0x23 PUSH1 0x20 MSTORE PUSH1 0x0 SWAP1 DUP2 MSTORE PUSH1 0x40 SWAP1 KECCAK256 SLOAD DUP2 JUMP JUMPDEST PUSH2 0x48E PUSH2 0x60C CALLDATASIZE PUSH1 0x4 PUSH2 0x35B9 JUMP JUMPDEST PUSH2 0x103D JUMP JUMPDEST PUSH2 0x4B4 PUSH2 0x61F CALLDATASIZE PUSH1 0x4 PUSH2 0x357E JUMP JUMPDEST PUSH2 0x10DA JUMP JUMPDEST PUSH2 0x48E PUSH2 0x632 CALLDATASIZE PUSH1 0x4 PUSH2 0x357E JUMP JUMPDEST PUSH1 0x18 PUSH1 0x20 MSTORE PUSH1 0x0 SWAP1 DUP2 MSTORE PUSH1 0x40 SWAP1 KECCAK256 SLOAD DUP2 JUMP JUMPDEST PUSH2 0x4B4 PUSH2 0x652 CALLDATASIZE PUSH1 0x4 PUSH2 0x35A0 JUMP JUMPDEST PUSH2 0x117F JUMP JUMPDEST PUSH2 0x4B4 PUSH2 0x665 CALLDATASIZE PUSH1 0x4 PUSH2 0x35F1 JUMP JUMPDEST PUSH2 0x133D JUMP JUMPDEST PUSH2 0x4B4 PUSH2 0x678 CALLDATASIZE PUSH1 0x4 PUSH2 0x35A0 JUMP JUMPDEST PUSH2 0x1387 JUMP JUMPDEST PUSH2 0x48E PUSH1 0x24 SLOAD DUP2 JUMP JUMPDEST PUSH2 0x4B4 PUSH2 0x694 CALLDATASIZE PUSH1 0x4 PUSH2 0x3552 JUMP JUMPDEST PUSH2 0x13B6 JUMP JUMPDEST PUSH2 0x555 PUSH2 0x6A7 CALLDATASIZE PUSH1 0x4 PUSH2 0x35A0 JUMP JUMPDEST PUSH2 0x1661 JUMP JUMPDEST PUSH1 0xE SLOAD PUSH2 0x555 SWAP1 PUSH1 0x1 PUSH1 0x1 PUSH1 0xA0 SHL SUB AND DUP2 JUMP JUMPDEST PUSH2 0x4B4 PUSH2 0x1671 JUMP JUMPDEST PUSH2 0x4B4 PUSH2 0x6D5 CALLDATASIZE PUSH1 0x4 PUSH2 0x357E JUMP JUMPDEST PUSH2 0x176B JUMP JUMPDEST PUSH2 0x48E PUSH2 0x6E8 CALLDATASIZE PUSH1 0x4 PUSH2 0x35B9 JUMP JUMPDEST PUSH2 0x17E7 JUMP JUMPDEST PUSH2 0x4B4 PUSH2 0x6FB CALLDATASIZE PUSH1 0x4 PUSH2 0x3621 JUMP JUMPDEST PUSH2 0x1841 JUMP JUMPDEST PUSH2 0x4B4 PUSH2 0x70E CALLDATASIZE PUSH1 0x4 PUSH2 0x357E JUMP JUMPDEST PUSH2 0x18E8 JUMP JUMPDEST PUSH2 0x48E PUSH2 0x721 CALLDATASIZE PUSH1 0x4 PUSH2 0x357E JUMP JUMPDEST PUSH1 0x16 PUSH1 0x20 MSTORE PUSH1 0x0 SWAP1 DUP2 MSTORE PUSH1 0x40 SWAP1 KECCAK256 SLOAD DUP2 JUMP JUMPDEST PUSH2 0x48E PUSH2 0x741 CALLDATASIZE PUSH1 0x4 PUSH2 0x35A0 JUMP JUMPDEST PUSH2 0x1934 JUMP JUMPDEST PUSH2 0x48E PUSH2 0x754 CALLDATASIZE PUSH1 0x4 PUSH2 0x357E JUMP JUMPDEST PUSH1 0x12 PUSH1 0x20 MSTORE PUSH1 0x0 SWAP1 DUP2 MSTORE PUSH1 0x40 SWAP1 KECCAK256 SLOAD DUP2 JUMP JUMPDEST PUSH2 0x4B4 PUSH2 0x1968 JUMP JUMPDEST PUSH2 0x4B4 PUSH2 0x77C CALLDATASIZE PUSH1 0x4 PUSH2 0x3552 JUMP JUMPDEST PUSH2 0x199E JUMP JUMPDEST PUSH2 0x48E PUSH2 0x78F CALLDATASIZE PUSH1 0x4 PUSH2 0x35B9 JUMP JUMPDEST PUSH2 0x1A75 JUMP JUMPDEST PUSH2 0x48E PUSH2 0x7A2 CALLDATASIZE PUSH1 0x4 PUSH2 0x35B9 JUMP JUMPDEST PUSH2 0x1AA5 JUMP JUMPDEST PUSH2 0x48E PUSH1 0x26 SLOAD DUP2 JUMP JUMPDEST PUSH2 0x4B4 PUSH2 0x7BE CALLDATASIZE PUSH1 0x4 PUSH2 0x357E JUMP JUMPDEST PUSH2 0x2400 JUMP JUMPDEST PUSH2 0x4B4 PUSH2 0x7D1 CALLDATASIZE PUSH1 0x4 PUSH2 0x3552 JUMP JUMPDEST PUSH2 0x2548 JUMP JUMPDEST PUSH2 0x7F9 PUSH2 0x7E4 CALLDATASIZE PUSH1 0x4 PUSH2 0x357E JUMP JUMPDEST PUSH1 0x22 PUSH1 0x20 MSTORE PUSH1 0x0 SWAP1 DUP2 MSTORE PUSH1 0x40 SWAP1 KECCAK256 SLOAD PUSH1 0xFF AND DUP2 JUMP JUMPDEST PUSH1 0x40 MLOAD SWAP1 ISZERO ISZERO DUP2 MSTORE PUSH1 0x20 ADD PUSH2 0x498 JUMP JUMPDEST PUSH2 0x4B4 PUSH2 0x817 CALLDATASIZE PUSH1 0x4 PUSH2 0x35B9 JUMP JUMPDEST PUSH2 0x28BE JUMP JUMPDEST PUSH2 0x48E PUSH1 0x29 SLOAD DUP2 JUMP JUMPDEST PUSH2 0x4B4 PUSH2 0x833 CALLDATASIZE PUSH1 0x4 PUSH2 0x35A0 JUMP JUMPDEST PUSH2 0x2916 JUMP JUMPDEST PUSH2 0x48E PUSH2 0x846 CALLDATASIZE PUSH1 0x4 PUSH2 0x35A0 JUMP JUMPDEST PUSH1 0x21 PUSH1 0x20 MSTORE PUSH1 0x0 SWAP1 DUP2 MSTORE PUSH1 0x40 SWAP1 KECCAK256 SLOAD DUP2 JUMP JUMPDEST PUSH2 0x48E PUSH2 0x866 CALLDATASIZE PUSH1 0x4 PUSH2 0x357E JUMP JUMPDEST PUSH1 0x14 PUSH1 0x20 MSTORE PUSH1 0x0 SWAP1 DUP2 MSTORE PUSH1 0x40 SWAP1 KECCAK256 SLOAD DUP2 JUMP JUMPDEST PUSH2 0x48E PUSH1 0x27 SLOAD DUP2 JUMP JUMPDEST PUSH1 0x0 SLOAD PUSH1 0x1 PUSH1 0x1 PUSH1 0xA0 SHL SUB AND PUSH2 0x555 JUMP JUMPDEST PUSH2 0x4B4 PUSH2 0x8A0 CALLDATASIZE PUSH1 0x4 PUSH2 0x357E JUMP JUMPDEST PUSH2 0x2945 JUMP JUMPDEST PUSH2 0x48E PUSH2 0x29F5 JUMP JUMPDEST PUSH2 0x48E PUSH2 0x8BB CALLDATASIZE PUSH1 0x4 PUSH2 0x35B9 JUMP JUMPDEST PUSH1 0x10 PUSH1 0x20 SWAP1 DUP2 MSTORE PUSH1 0x0 SWAP3 DUP4 MSTORE PUSH1 0x40 DUP1 DUP5 KECCAK256 SWAP1 SWAP2 MSTORE SWAP1 DUP3 MSTORE SWAP1 KECCAK256 SLOAD DUP2 JUMP JUMPDEST PUSH2 0x48E PUSH1 0x6 SLOAD DUP2 JUMP JUMPDEST PUSH2 0x4B4 PUSH2 0x8EF CALLDATASIZE PUSH1 0x4 PUSH2 0x35A0 JUMP JUMPDEST PUSH2 0x2A8C JUMP JUMPDEST PUSH2 0x4B4 PUSH2 0x902 CALLDATASIZE PUSH1 0x4 PUSH2 0x35F1 JUMP JUMPDEST PUSH2 0x2AF5 JUMP JUMPDEST PUSH2 0x48E PUSH2 0x915 CALLDATASIZE PUSH1 0x4 PUSH2 0x357E JUMP JUMPDEST PUSH2 0x2B3F JUMP JUMPDEST PUSH2 0x48E PUSH1 0xB SLOAD DUP2 JUMP JUMPDEST PUSH2 0x7F9 PUSH2 0x931 CALLDATASIZE PUSH1 0x4 PUSH2 0x357E JUMP JUMPDEST PUSH2 0x2BFD JUMP JUMPDEST PUSH2 0x48E PUSH2 0x944 CALLDATASIZE PUSH1 0x4 PUSH2 0x357E JUMP JUMPDEST PUSH1 0x1C PUSH1 0x20 MSTORE PUSH1 0x0 SWAP1 DUP2 MSTORE PUSH1 0x40 SWAP1 KECCAK256 SLOAD DUP2 JUMP JUMPDEST PUSH2 0x48E PUSH2 0x964 CALLDATASIZE PUSH1 0x4 PUSH2 0x357E JUMP JUMPDEST PUSH1 0x7 PUSH1 0x20 MSTORE PUSH1 0x0 SWAP1 DUP2 MSTORE PUSH1 0x40 SWAP1 KECCAK256 SLOAD DUP2 JUMP JUMPDEST PUSH2 0x48E PUSH1 0x1D SLOAD DUP2 JUMP JUMPDEST PUSH2 0x4B4 PUSH2 0x98D CALLDATASIZE PUSH1 0x4 PUSH2 0x357E JUMP JUMPDEST PUSH2 0x2C67 JUMP JUMPDEST PUSH2 0x48E PUSH1 0xA SLOAD DUP2 JUMP JUMPDEST PUSH2 0x4B4 PUSH2 0x9A9 CALLDATASIZE PUSH1 0x4 PUSH2 0x3621 JUMP JUMPDEST PUSH2 0x2F77 JUMP JUMPDEST PUSH2 0x555 PUSH2 0x9BC CALLDATASIZE PUSH1 0x4 PUSH2 0x35A0 JUMP JUMPDEST PUSH2 0x2FCF JUMP JUMPDEST PUSH2 0x7F9 PUSH2 0x9CF CALLDATASIZE PUSH1 0x4 PUSH2 0x357E JUMP JUMPDEST PUSH2 0x2FDF JUMP JUMPDEST PUSH2 0x48E PUSH2 0x9E2 CALLDATASIZE PUSH1 0x4 PUSH2 0x357E JUMP JUMPDEST PUSH1 0x5 PUSH1 0x20 MSTORE PUSH1 0x0 SWAP1 DUP2 MSTORE PUSH1 0x40 SWAP1 KECCAK256 SLOAD DUP2 JUMP JUMPDEST PUSH2 0x48E PUSH2 0xA02 CALLDATASIZE PUSH1 0x4 PUSH2 0x357E JUMP JUMPDEST PUSH2 0x3040 JUMP JUMPDEST PUSH2 0x48E PUSH2 0xA15 CALLDATASIZE PUSH1 0x4 PUSH2 0x364B JUMP JUMPDEST PUSH2 0x30E0 JUMP JUMPDEST PUSH2 0x7F9 PUSH2 0xA28 CALLDATASIZE PUSH1 0x4 PUSH2 0x35A0 JUMP JUMPDEST PUSH1 0x1F PUSH1 0x20 MSTORE PUSH1 0x0 SWAP1 DUP2 MSTORE PUSH1 0x40 SWAP1 KECCAK256 SLOAD PUSH1 0xFF AND DUP2 JUMP JUMPDEST PUSH2 0x48E PUSH1 0x1 SLOAD DUP2 JUMP JUMPDEST PUSH2 0x555 PUSH2 0xA54 CALLDATASIZE PUSH1 0x4 PUSH2 0x35A0 JUMP JUMPDEST PUSH2 0x31CC JUMP JUMPDEST PUSH2 0xA6C PUSH2 0xA67 CALLDATASIZE PUSH1 0x4 PUSH2 0x357E JUMP JUMPDEST PUSH2 0x31DC JUMP JUMPDEST PUSH1 0x40 DUP1 MLOAD SWAP3 DUP4 MSTORE PUSH1 0x20 DUP4 ADD SWAP2 SWAP1 SWAP2 MSTORE ADD PUSH2 0x498 JUMP JUMPDEST PUSH2 0x4B4 PUSH2 0xA8F CALLDATASIZE PUSH1 0x4 PUSH2 0x357E JUMP JUMPDEST PUSH2 0x32DD JUMP JUMPDEST PUSH2 0x4B4 PUSH2 0xAA2 CALLDATASIZE PUSH1 0x4 PUSH2 0x35A0 JUMP JUMPDEST PUSH2 0x3375 JUMP JUMPDEST PUSH1 0xF SLOAD PUSH2 0x555 SWAP1 PUSH1 0x1 PUSH1 0x1 PUSH1 0xA0 SHL SUB AND DUP2 JUMP JUMPDEST PUSH2 0x7F9 PUSH2 0xAC8 CALLDATASIZE PUSH1 0x4 PUSH2 0x35A0 JUMP JUMPDEST PUSH1 0x25 PUSH1 0x20 MSTORE PUSH1 0x0 SWAP1 DUP2 MSTORE PUSH1 0x40 SWAP1 KECCAK256 SLOAD PUSH1 0xFF AND DUP2 JUMP JUMPDEST PUSH2 0x555 PUSH2 0xAEB CALLDATASIZE PUSH1 0x4 PUSH2 0x35A0 JUMP JUMPDEST PUSH2 0x33A4 JUMP JUMPDEST PUSH2 0x48E PUSH2 0xAFE CALLDATASIZE PUSH1 0x4 PUSH2 0x357E JUMP JUMPDEST PUSH1 0x11 PUSH1 0x20 MSTORE PUSH1 0x0 SWAP1 DUP2 MSTORE PUSH1 0x40 SWAP1 KECCAK256 SLOAD DUP2 JUMP JUMPDEST PUSH1 0x0 SLOAD PUSH1 0x1 PUSH1 0x1 PUSH1 0xA0 SHL SUB AND CALLER EQ PUSH2 0xB43 JUMPI PUSH1 0x40 MLOAD PUSH3 0x461BCD PUSH1 0xE5 SHL DUP2 MSTORE PUSH1 0x4 ADD PUSH2 0xB3A SWAP1 PUSH2 0x3687 JUMP JUMPDEST PUSH1 0x40 MLOAD DUP1 SWAP2 SUB SWAP1 REVERT JUMPDEST PUSH1 0x0 SWAP2 DUP3 MSTORE PUSH1 0x1E PUSH1 0x20 MSTORE PUSH1 0x40 SWAP1 SWAP2 KECCAK256 SSTORE JUMP JUMPDEST PUSH1 0x0 PUSH9 0x2B5E3AF16B1880000 DUP2 PUSH2 0xB6A PUSH2 0x29F5 JUMP JUMPDEST SWAP1 POP PUSH8 0xDE0B6B3A7640000 DUP2 PUSH2 0xB80 DUP3 DUP6 PUSH2 0x36D2 JUMP JUMPDEST PUSH2 0xB8A SWAP2 SWAP1 PUSH2 0x36F1 JUMP JUMPDEST SWAP4 POP POP POP POP SWAP1 JUMP JUMPDEST PUSH1 0x0 DUP3 GT PUSH2 0xBB2 JUMPI PUSH1 0x40 MLOAD PUSH3 0x461BCD PUSH1 0xE5 SHL DUP2 MSTORE PUSH1 0x4 ADD PUSH2 0xB3A SWAP1 PUSH2 0x3713 JUMP JUMPDEST PUSH2 0xBBB DUP2 PUSH2 0x2FDF JUMP JUMPDEST PUSH2 0xBD7 JUMPI PUSH1 0x40 MLOAD PUSH3 0x461BCD PUSH1 0xE5 SHL DUP2 MSTORE PUSH1 0x4 ADD PUSH2 0xB3A SWAP1 PUSH2 0x374A JUMP JUMPDEST PUSH1 0x40 MLOAD PUSH4 0x23B872DD PUSH1 0xE0 SHL DUP2 MSTORE CALLER PUSH1 0x4 DUP3 ADD MSTORE ADDRESS PUSH1 0x24 DUP3 ADD MSTORE PUSH1 0x44 DUP2 ADD DUP4 SWAP1 MSTORE PUSH1 0x1 PUSH1 0x1 PUSH1 0xA0 SHL SUB DUP3 AND SWAP1 PUSH4 0x23B872DD SWAP1 PUSH1 0x64 ADD PUSH1 0x20 PUSH1 0x40 MLOAD DUP1 DUP4 SUB DUP2 PUSH1 0x0 DUP8 GAS CALL ISZERO DUP1 ISZERO PUSH2 0xC2A JUMPI RETURNDATASIZE PUSH1 0x0 DUP1 RETURNDATACOPY RETURNDATASIZE PUSH1 0x0 REVERT JUMPDEST POP POP POP POP PUSH1 0x40 MLOAD RETURNDATASIZE PUSH1 0x1F NOT PUSH1 0x1F DUP3 ADD AND DUP3 ADD DUP1 PUSH1 0x40 MSTORE POP DUP2 ADD SWAP1 PUSH2 0xC4E SWAP2 SWAP1 PUSH2 0x3781 JUMP JUMPDEST POP PUSH2 0xC59 CALLER DUP3 PUSH2 0x33B4 JUMP JUMPDEST PUSH2 0xC63 CALLER DUP3 PUSH2 0x341F JUMP JUMPDEST DUP2 PUSH1 0xB SLOAD PUSH2 0xC71 SWAP2 SWAP1 PUSH2 0x379E JUMP JUMPDEST PUSH1 0xB SSTORE PUSH2 0xC7E CALLER DUP3 PUSH2 0x1A75 JUMP JUMPDEST CALLER PUSH1 0x0 DUP2 DUP2 MSTORE PUSH1 0x4 PUSH1 0x20 SWAP1 DUP2 MSTORE PUSH1 0x40 DUP1 DUP4 KECCAK256 SWAP5 SWAP1 SWAP5 SSTORE PUSH1 0x3 DUP2 MSTORE DUP4 DUP3 KECCAK256 TIMESTAMP SWAP1 DUP2 SWAP1 SSTORE PUSH1 0x5 DUP3 MSTORE DUP5 DUP4 KECCAK256 SSTORE PUSH1 0x1 PUSH1 0x1 PUSH1 0xA0 SHL SUB DUP6 AND DUP3 MSTORE PUSH1 0x2 DUP2 MSTORE DUP4 DUP3 KECCAK256 SWAP3 DUP3 MSTORE SWAP2 SWAP1 SWAP2 MSTORE KECCAK256 SLOAD PUSH2 0xCCF SWAP1 DUP4 SWAP1 PUSH2 0x379E JUMP JUMPDEST PUSH1 0x1 PUSH1 0x1 PUSH1 0xA0 SHL SUB DUP3 AND PUSH1 0x0 SWAP1 DUP2 MSTORE PUSH1 0x2 PUSH1 0x20 SWAP1 DUP2 MSTORE PUSH1 0x40 DUP1 DUP4 KECCAK256 CALLER DUP5 MSTORE DUP3 MSTORE DUP1 DUP4 KECCAK256 SWAP4 SWAP1 SWAP4 SSTORE PUSH1 0x7 SWAP1 MSTORE KECCAK256 SLOAD PUSH1 0x1 EQ ISZERO PUSH2 0xD47 JUMPI PUSH1 0xC DUP1 SLOAD PUSH1 0x1 DUP2 ADD DUP3 SSTORE PUSH1 0x0 SWAP2 SWAP1 SWAP2 MSTORE PUSH32 0xDF6966C971051C3D54EC59162606531493A51404A002842F56009D7E5CF4A8C7 ADD DUP1 SLOAD PUSH1 0x1 PUSH1 0x1 PUSH1 0xA0 SHL SUB NOT AND CALLER OR SWAP1 SSTORE JUMPDEST POP POP JUMP JUMPDEST PUSH1 0x1B SLOAD PUSH1 0x40 DUP1 MLOAD PUSH4 0x54FD4D5 PUSH1 0xE4 SHL DUP2 MSTORE SWAP1 MLOAD PUSH1 0x0 SWAP3 PUSH1 0x1 PUSH1 0x1 PUSH1 0xA0 SHL SUB AND SWAP2 PUSH4 0x54FD4D50 SWAP2 PUSH1 0x4 DUP1 DUP4 ADD SWAP3 PUSH1 0x20 SWAP3 SWAP2 SWAP1 DUP3 SWAP1 SUB ADD DUP2 DUP7 GAS STATICCALL ISZERO DUP1 ISZERO PUSH2 0xD95 JUMPI RETURNDATASIZE PUSH1 0x0 DUP1 RETURNDATACOPY RETURNDATASIZE PUSH1 0x0 REVERT JUMPDEST POP POP POP POP PUSH1 0x40 MLOAD RETURNDATASIZE PUSH1 0x1F NOT PUSH1 0x1F DUP3 ADD AND DUP3 ADD DUP1 PUSH1 0x40 MSTORE POP DUP2 ADD SWAP1 PUSH2 0xDB9 SWAP2 SWAP1 PUSH2 0x37B6 JUMP JUMPDEST SWAP1 POP SWAP1 JUMP JUMPDEST CALLER PUSH1 0x0 SWAP1 DUP2 MSTORE PUSH1 0x14 PUSH1 0x20 SWAP1 DUP2 MSTORE PUSH1 0x40 DUP1 DUP4 KECCAK256 SLOAD PUSH1 0x16 SWAP1 SWAP3 MSTORE DUP3 KECCAK256 SLOAD SWAP1 SWAP2 PUSH2 0xDE5 DUP3 DUP5 PUSH2 0x37CF JUMP JUMPDEST SWAP1 POP PUSH1 0x0 PUSH1 0x64 DUP5 PUSH1 0x17 SLOAD PUSH2 0xDF9 SWAP2 SWAP1 PUSH2 0x36D2 JUMP JUMPDEST PUSH2 0xE03 SWAP2 SWAP1 PUSH2 0x36F1 JUMP JUMPDEST SWAP1 POP PUSH1 0x0 PUSH2 0xE11 DUP5 DUP4 PUSH2 0x37CF JUMP JUMPDEST SWAP1 POP PUSH1 0x0 DUP6 GT PUSH2 0xE20 JUMPI PUSH1 0x0 DUP1 REVERT JUMPDEST PUSH1 0x0 DUP2 GT PUSH2 0xE2D JUMPI PUSH1 0x0 DUP1 REVERT JUMPDEST DUP5 DUP5 LT PUSH2 0xE39 JUMPI PUSH1 0x0 DUP1 REVERT JUMPDEST PUSH1 0xF SLOAD PUSH1 0x40 MLOAD PUSH4 0xA9059CBB PUSH1 0xE0 SHL DUP2 MSTORE PUSH1 0x1 PUSH1 0x1 PUSH1 0xA0 SHL SUB SWAP1 SWAP2 AND SWAP1 PUSH4 0xA9059CBB SWAP1 PUSH2 0xE6B SWAP1 CALLER SWAP1 DUP6 SWAP1 PUSH1 0x4 ADD PUSH2 0x37E6 JUMP JUMPDEST PUSH1 0x20 PUSH1 0x40 MLOAD DUP1 DUP4 SUB DUP2 PUSH1 0x0 DUP8 GAS CALL ISZERO DUP1 ISZERO PUSH2 0xE8A JUMPI RETURNDATASIZE PUSH1 0x0 DUP1 RETURNDATACOPY RETURNDATASIZE PUSH1 0x0 REVERT JUMPDEST POP POP POP POP PUSH1 0x40 MLOAD RETURNDATASIZE PUSH1 0x1F NOT PUSH1 0x1F DUP3 ADD AND DUP3 ADD DUP1 PUSH1 0x40 MSTORE POP DUP2 ADD SWAP1 PUSH2 0xEAE SWAP2 SWAP1 PUSH2 0x3781 JUMP JUMPDEST POP CALLER PUSH1 0x0 SWAP1 DUP2 MSTORE PUSH1 0x16 PUSH1 0x20 MSTORE PUSH1 0x40 SWAP1 KECCAK256 SLOAD PUSH2 0xECA SWAP1 DUP3 SWAP1 PUSH2 0x379E JUMP JUMPDEST CALLER PUSH1 0x0 SWAP1 DUP2 MSTORE PUSH1 0x16 PUSH1 0x20 MSTORE PUSH1 0x40 SWAP1 KECCAK256 SSTORE POP POP POP POP POP JUMP JUMPDEST PUSH1 0x0 SLOAD PUSH1 0x1 PUSH1 0x1 PUSH1 0xA0 SHL SUB AND CALLER EQ PUSH2 0xF0B JUMPI PUSH1 0x40 MLOAD PUSH3 0x461BCD PUSH1 0xE5 SHL DUP2 MSTORE PUSH1 0x4 ADD PUSH2 0xB3A SWAP1 PUSH2 0x3687 JUMP JUMPDEST PUSH1 0xD DUP1 SLOAD PUSH1 0x1 DUP2 ADD DUP3 SSTORE PUSH1 0x0 SWAP2 SWAP1 SWAP2 MSTORE PUSH32 0xD7B6990105719101DABEB77144F2A3385C8033ACD3AF97E9423A695E81AD1EB5 ADD DUP1 SLOAD PUSH1 0x1 PUSH1 0x1 PUSH1 0xA0 SHL SUB NOT AND PUSH1 0x1 PUSH1 0x1 PUSH1 0xA0 SHL SUB SWAP3 SWAP1 SWAP3 AND SWAP2 SWAP1 SWAP2 OR SWAP1 SSTORE JUMP JUMPDEST PUSH1 0x0 SLOAD PUSH1 0x1 PUSH1 0x1 PUSH1 0xA0 SHL SUB AND CALLER EQ PUSH2 0xF87 JUMPI PUSH1 0x40 MLOAD PUSH3 0x461BCD PUSH1 0xE5 SHL DUP2 MSTORE PUSH1 0x4 ADD PUSH2 0xB3A SWAP1 PUSH2 0x3687 JUMP JUMPDEST PUSH1 0x1 SSTORE JUMP JUMPDEST PUSH1 0x1 PUSH1 0x1 PUSH1 0xA0 SHL SUB DUP3 AND PUSH1 0x0 SWAP1 DUP2 MSTORE PUSH1 0x7 PUSH1 0x20 MSTORE PUSH1 0x40 DUP2 KECCAK256 SLOAD PUSH2 0xFB1 JUMPI POP PUSH1 0x0 PUSH2 0x100D JUMP JUMPDEST PUSH1 0x0 DUP1 PUSH2 0xFBD DUP5 PUSH2 0x31DC JUMP JUMPDEST SWAP1 SWAP3 POP SWAP1 POP PUSH2 0xFCD DUP2 PUSH1 0xA PUSH2 0x38E3 JUMP JUMPDEST PUSH1 0x1 PUSH1 0x1 PUSH1 0xA0 SHL SUB DUP1 DUP7 AND PUSH1 0x0 SWAP1 DUP2 MSTORE PUSH1 0x2 PUSH1 0x20 SWAP1 DUP2 MSTORE PUSH1 0x40 DUP1 DUP4 KECCAK256 SWAP4 DUP11 AND DUP4 MSTORE SWAP3 SWAP1 MSTORE KECCAK256 SLOAD PUSH2 0xFFE SWAP1 DUP5 SWAP1 PUSH2 0x36D2 JUMP JUMPDEST PUSH2 0x1008 SWAP2 SWAP1 PUSH2 0x36F1 JUMP JUMPDEST SWAP3 POP POP POP JUMPDEST SWAP3 SWAP2 POP POP JUMP JUMPDEST PUSH1 0x1A DUP2 DUP2 SLOAD DUP2 LT PUSH2 0x1023 JUMPI PUSH1 0x0 DUP1 REVERT JUMPDEST PUSH1 0x0 SWAP2 DUP3 MSTORE PUSH1 0x20 SWAP1 SWAP2 KECCAK256 ADD SLOAD PUSH1 0x1 PUSH1 0x1 PUSH1 0xA0 SHL SUB AND SWAP1 POP DUP2 JUMP JUMPDEST PUSH1 0x1 PUSH1 0x1 PUSH1 0xA0 SHL SUB DUP1 DUP4 AND PUSH1 0x0 DUP2 DUP2 MSTORE PUSH1 0x3 PUSH1 0x20 SWAP1 DUP2 MSTORE PUSH1 0x40 DUP1 DUP4 KECCAK256 SLOAD SWAP5 DUP7 AND DUP4 MSTORE PUSH1 0x2 DUP3 MSTORE DUP1 DUP4 KECCAK256 SWAP4 DUP4 MSTORE SWAP3 SWAP1 MSTORE SWAP1 DUP2 KECCAK256 SLOAD PUSH1 0x1 SLOAD SWAP2 SWAP3 SWAP2 TIMESTAMP SWAP2 SWAP1 DUP5 SWAP1 PUSH1 0x64 SWAP1 PUSH2 0x1089 SWAP1 DUP5 SWAP1 PUSH2 0x36D2 JUMP JUMPDEST PUSH2 0x1093 SWAP2 SWAP1 PUSH2 0x36F1 JUMP JUMPDEST SWAP1 POP PUSH1 0x0 PUSH2 0x10A4 PUSH3 0x80520 DUP4 PUSH2 0x36F1 JUMP JUMPDEST SWAP1 POP PUSH1 0x0 PUSH1 0x3C PUSH2 0x10B4 DUP8 DUP8 PUSH2 0x37CF JUMP JUMPDEST PUSH2 0x10BE SWAP2 SWAP1 PUSH2 0x36F1 JUMP JUMPDEST SWAP1 POP PUSH1 0x0 PUSH2 0x10CC DUP4 DUP4 PUSH2 0x36D2 JUMP JUMPDEST SWAP11 SWAP10 POP POP POP POP POP POP POP POP POP POP JUMP JUMPDEST PUSH1 0x0 SLOAD PUSH1 0x1 PUSH1 0x1 PUSH1 0xA0 SHL SUB AND CALLER EQ PUSH2 0x1104 JUMPI PUSH1 0x40 MLOAD PUSH3 0x461BCD PUSH1 0xE5 SHL DUP2 MSTORE PUSH1 0x4 ADD PUSH2 0xB3A SWAP1 PUSH2 0x3687 JUMP JUMPDEST PUSH1 0x6 SLOAD PUSH1 0x40 MLOAD PUSH4 0xA9059CBB PUSH1 0xE0 SHL DUP2 MSTORE PUSH1 0x1 PUSH1 0x1 PUSH1 0xA0 SHL SUB DUP4 AND SWAP2 PUSH4 0xA9059CBB SWAP2 PUSH2 0x1133 SWAP2 CALLER SWAP2 PUSH1 0x4 ADD PUSH2 0x37E6 JUMP JUMPDEST PUSH1 0x20 PUSH1 0x40 MLOAD DUP1 DUP4 SUB DUP2 PUSH1 0x0 DUP8 GAS CALL ISZERO DUP1 ISZERO PUSH2 0x1152 JUMPI RETURNDATASIZE PUSH1 0x0 DUP1 RETURNDATACOPY RETURNDATASIZE PUSH1 0x0 REVERT JUMPDEST POP POP POP POP PUSH1 0x40 MLOAD RETURNDATASIZE PUSH1 0x1F NOT PUSH1 0x1F DUP3 ADD AND DUP3 ADD DUP1 PUSH1 0x40 MSTORE POP DUP2 ADD SWAP1 PUSH2 0x1176 SWAP2 SWAP1 PUSH2 0x3781 JUMP JUMPDEST POP POP PUSH1 0x0 PUSH1 0x6 SSTORE JUMP JUMPDEST CALLER PUSH1 0x0 SWAP1 DUP2 MSTORE PUSH1 0x14 PUSH1 0x20 SWAP1 DUP2 MSTORE PUSH1 0x40 DUP1 DUP4 KECCAK256 SLOAD PUSH1 0x16 SWAP1 SWAP3 MSTORE DUP3 KECCAK256 SLOAD SWAP1 SWAP2 PUSH2 0x11A6 DUP3 DUP5 PUSH2 0x37CF JUMP JUMPDEST SWAP1 POP PUSH1 0x0 PUSH1 0x64 DUP5 PUSH1 0x17 SLOAD PUSH2 0x11BA SWAP2 SWAP1 PUSH2 0x36D2 JUMP JUMPDEST PUSH2 0x11C4 SWAP2 SWAP1 PUSH2 0x36F1 JUMP JUMPDEST SWAP1 POP PUSH1 0x0 PUSH2 0x11D2 DUP5 DUP4 PUSH2 0x37CF JUMP JUMPDEST SWAP1 POP PUSH1 0x0 DUP2 GT PUSH2 0x11E1 JUMPI PUSH1 0x0 DUP1 REVERT JUMPDEST DUP1 DUP7 GT ISZERO PUSH2 0x11EE JUMPI PUSH1 0x0 DUP1 REVERT JUMPDEST DUP5 DUP5 LT PUSH2 0x11FA JUMPI PUSH1 0x0 DUP1 REVERT JUMPDEST PUSH1 0x0 DUP7 GT PUSH2 0x121A JUMPI PUSH1 0x40 MLOAD PUSH3 0x461BCD PUSH1 0xE5 SHL DUP2 MSTORE PUSH1 0x4 ADD PUSH2 0xB3A SWAP1 PUSH2 0x3713 JUMP JUMPDEST DUP6 DUP4 LT ISZERO PUSH2 0x127F JUMPI PUSH1 0x40 MLOAD PUSH3 0x461BCD PUSH1 0xE5 SHL DUP2 MSTORE PUSH1 0x20 PUSH1 0x4 DUP3 ADD MSTORE PUSH1 0x2C PUSH1 0x24 DUP3 ADD MSTORE PUSH32 0x596F7520646F6E2774206861766520656E6F7567682070757263686173656420 PUSH1 0x44 DUP3 ADD MSTORE PUSH12 0x746F6B656E73206C65667421 PUSH1 0xA0 SHL PUSH1 0x64 DUP3 ADD MSTORE PUSH1 0x84 ADD PUSH2 0xB3A JUMP JUMPDEST DUP5 PUSH2 0x128A DUP8 DUP7 PUSH2 0x379E JUMP JUMPDEST LT PUSH2 0x1294 JUMPI PUSH1 0x0 DUP1 REVERT JUMPDEST PUSH1 0xF SLOAD PUSH1 0x40 MLOAD PUSH4 0xA9059CBB PUSH1 0xE0 SHL DUP2 MSTORE PUSH1 0x1 PUSH1 0x1 PUSH1 0xA0 SHL SUB SWAP1 SWAP2 AND SWAP1 PUSH4 0xA9059CBB SWAP1 PUSH2 0x12C6 SWAP1 CALLER SWAP1 DUP11 SWAP1 PUSH1 0x4 ADD PUSH2 0x37E6 JUMP JUMPDEST PUSH1 0x20 PUSH1 0x40 MLOAD DUP1 DUP4 SUB DUP2 PUSH1 0x0 DUP8 GAS CALL ISZERO DUP1 ISZERO PUSH2 0x12E5 JUMPI RETURNDATASIZE PUSH1 0x0 DUP1 RETURNDATACOPY RETURNDATASIZE PUSH1 0x0 REVERT JUMPDEST POP POP POP POP PUSH1 0x40 MLOAD RETURNDATASIZE PUSH1 0x1F NOT PUSH1 0x1F DUP3 ADD AND DUP3 ADD DUP1 PUSH1 0x40 MSTORE POP DUP2 ADD SWAP1 PUSH2 0x1309 SWAP2 SWAP1 PUSH2 0x3781 JUMP JUMPDEST POP CALLER PUSH1 0x0 SWAP1 DUP2 MSTORE PUSH1 0x16 PUSH1 0x20 MSTORE PUSH1 0x40 SWAP1 KECCAK256 SLOAD PUSH2 0x1325 SWAP1 DUP8 SWAP1 PUSH2 0x379E JUMP JUMPDEST CALLER PUSH1 0x0 SWAP1 DUP2 MSTORE PUSH1 0x16 PUSH1 0x20 MSTORE PUSH1 0x40 SWAP1 KECCAK256 SSTORE POP POP POP POP POP POP JUMP JUMPDEST PUSH1 0x0 SLOAD PUSH1 0x1 PUSH1 0x1 PUSH1 0xA0 SHL SUB AND CALLER EQ PUSH2 0x1367 JUMPI PUSH1 0x40 MLOAD PUSH3 0x461BCD PUSH1 0xE5 SHL DUP2 MSTORE PUSH1 0x4 ADD PUSH2 0xB3A SWAP1 PUSH2 0x3687 JUMP JUMPDEST PUSH1 0x0 SWAP2 DUP3 MSTORE PUSH1 0x25 PUSH1 0x20 MSTORE PUSH1 0x40 SWAP1 SWAP2 KECCAK256 DUP1 SLOAD PUSH1 0xFF NOT AND SWAP2 ISZERO ISZERO SWAP2 SWAP1 SWAP2 OR SWAP1 SSTORE JUMP JUMPDEST PUSH1 0x0 SLOAD PUSH1 0x1 PUSH1 0x1 PUSH1 0xA0 SHL SUB AND CALLER EQ PUSH2 0x13B1 JUMPI PUSH1 0x40 MLOAD PUSH3 0x461BCD PUSH1 0xE5 SHL DUP2 MSTORE PUSH1 0x4 ADD PUSH2 0xB3A SWAP1 PUSH2 0x3687 JUMP JUMPDEST PUSH1 0x15 SSTORE JUMP JUMPDEST PUSH1 0x0 DUP3 GT PUSH2 0x13D6 JUMPI PUSH1 0x40 MLOAD PUSH3 0x461BCD PUSH1 0xE5 SHL DUP2 MSTORE PUSH1 0x4 ADD PUSH2 0xB3A SWAP1 PUSH2 0x3713 JUMP JUMPDEST PUSH2 0x13DF DUP2 PUSH2 0x2BFD JUMP JUMPDEST PUSH2 0x13FB JUMPI PUSH1 0x40 MLOAD PUSH3 0x461BCD PUSH1 0xE5 SHL DUP2 MSTORE PUSH1 0x4 ADD PUSH2 0xB3A SWAP1 PUSH2 0x374A JUMP JUMPDEST PUSH1 0x40 MLOAD PUSH4 0x23B872DD PUSH1 0xE0 SHL DUP2 MSTORE CALLER PUSH1 0x4 DUP3 ADD MSTORE ADDRESS PUSH1 0x24 DUP3 ADD MSTORE PUSH1 0x44 DUP2 ADD DUP4 SWAP1 MSTORE PUSH1 0x1 PUSH1 0x1 PUSH1 0xA0 SHL SUB DUP3 AND SWAP1 PUSH4 0x23B872DD SWAP1 PUSH1 0x64 ADD PUSH1 0x20 PUSH1 0x40 MLOAD DUP1 DUP4 SUB DUP2 PUSH1 0x0 DUP8 GAS CALL ISZERO DUP1 ISZERO PUSH2 0x144E JUMPI RETURNDATASIZE PUSH1 0x0 DUP1 RETURNDATACOPY RETURNDATASIZE PUSH1 0x0 REVERT JUMPDEST POP POP POP POP PUSH1 0x40 MLOAD RETURNDATASIZE PUSH1 0x1F NOT PUSH1 0x1F DUP3 ADD AND DUP3 ADD DUP1 PUSH1 0x40 MSTORE POP DUP2 ADD SWAP1 PUSH2 0x1472 SWAP2 SWAP1 PUSH2 0x3781 JUMP JUMPDEST POP PUSH1 0x40 MLOAD PUSH4 0x70A08231 PUSH1 0xE0 SHL DUP2 MSTORE ADDRESS PUSH1 0x4 DUP3 ADD MSTORE PUSH8 0xDE0B6B3A7640000 SWAP1 PUSH1 0x1 PUSH1 0x1 PUSH1 0xA0 SHL SUB DUP4 AND SWAP1 PUSH4 0x70A08231 SWAP1 PUSH1 0x24 ADD PUSH1 0x20 PUSH1 0x40 MLOAD DUP1 DUP4 SUB DUP2 DUP7 GAS STATICCALL ISZERO DUP1 ISZERO PUSH2 0x14C1 JUMPI RETURNDATASIZE PUSH1 0x0 DUP1 RETURNDATACOPY RETURNDATASIZE PUSH1 0x0 REVERT JUMPDEST POP POP POP POP PUSH1 0x40 MLOAD RETURNDATASIZE PUSH1 0x1F NOT PUSH1 0x1F DUP3 ADD AND DUP3 ADD DUP1 PUSH1 0x40 MSTORE POP DUP2 ADD SWAP1 PUSH2 0x14E5 SWAP2 SWAP1 PUSH2 0x37B6 JUMP JUMPDEST PUSH2 0x14EF SWAP2 SWAP1 PUSH2 0x36F1 JUMP JUMPDEST PUSH1 0x1D SSTORE PUSH2 0x14FC CALLER DUP3 PUSH2 0x345E JUMP JUMPDEST PUSH1 0x1 PUSH1 0x1 PUSH1 0xA0 SHL SUB DUP2 AND PUSH1 0x0 SWAP1 DUP2 MSTORE PUSH1 0x10 PUSH1 0x20 SWAP1 DUP2 MSTORE PUSH1 0x40 DUP1 DUP4 KECCAK256 CALLER DUP5 MSTORE SWAP1 SWAP2 MSTORE SWAP1 KECCAK256 SLOAD PUSH2 0x152B SWAP1 DUP4 SWAP1 PUSH2 0x379E JUMP JUMPDEST PUSH1 0x1 PUSH1 0x1 PUSH1 0xA0 SHL SUB DUP3 AND PUSH1 0x0 SWAP1 DUP2 MSTORE PUSH1 0x10 PUSH1 0x20 SWAP1 DUP2 MSTORE PUSH1 0x40 DUP1 DUP4 KECCAK256 CALLER DUP5 MSTORE SWAP1 SWAP2 MSTORE SWAP1 KECCAK256 SSTORE PUSH1 0x15 SLOAD PUSH2 0x155C SWAP1 DUP4 PUSH2 0x36D2 JUMP JUMPDEST CALLER PUSH1 0x0 SWAP1 DUP2 MSTORE PUSH1 0x14 PUSH1 0x20 MSTORE PUSH1 0x40 SWAP1 KECCAK256 SLOAD PUSH2 0x1576 SWAP2 SWAP1 PUSH2 0x379E JUMP JUMPDEST CALLER PUSH1 0x0 SWAP1 DUP2 MSTORE PUSH1 0x14 PUSH1 0x20 SWAP1 DUP2 MSTORE PUSH1 0x40 DUP1 DUP4 KECCAK256 SWAP4 SWAP1 SWAP4 SSTORE PUSH1 0x1 PUSH1 0x1 PUSH1 0xA0 SHL SUB DUP5 AND DUP3 MSTORE PUSH1 0x11 SWAP1 MSTORE KECCAK256 SLOAD PUSH2 0x15A9 SWAP1 DUP4 SWAP1 PUSH2 0x379E JUMP JUMPDEST PUSH1 0x1 PUSH1 0x1 PUSH1 0xA0 SHL SUB DUP3 AND PUSH1 0x0 SWAP1 DUP2 MSTORE PUSH1 0x11 PUSH1 0x20 SWAP1 DUP2 MSTORE PUSH1 0x40 DUP1 DUP4 KECCAK256 SWAP4 SWAP1 SWAP4 SSTORE PUSH1 0x12 SWAP1 MSTORE KECCAK256 SLOAD PUSH2 0x15D9 SWAP1 DUP4 SWAP1 PUSH2 0x379E JUMP JUMPDEST PUSH1 0x1 PUSH1 0x1 PUSH1 0xA0 SHL SUB DUP3 AND PUSH1 0x0 SWAP1 DUP2 MSTORE PUSH1 0x12 PUSH1 0x20 MSTORE PUSH1 0x40 SWAP1 KECCAK256 SSTORE PUSH1 0x13 SLOAD PUSH2 0x1600 SWAP1 DUP4 SWAP1 PUSH2 0x379E JUMP JUMPDEST PUSH1 0x13 SSTORE CALLER PUSH1 0x0 SWAP1 DUP2 MSTORE PUSH1 0x1C PUSH1 0x20 MSTORE PUSH1 0x40 SWAP1 KECCAK256 SLOAD PUSH1 0x1 EQ ISZERO PUSH2 0xD47 JUMPI PUSH1 0x19 DUP1 SLOAD PUSH1 0x1 DUP2 ADD DUP3 SSTORE PUSH1 0x0 SWAP2 SWAP1 SWAP2 MSTORE PUSH32 0x944998273E477B495144FB8794C914197F3CCB46BE2900F4698FD0EF743C9695 ADD DUP1 SLOAD PUSH1 0x1 PUSH1 0x1 PUSH1 0xA0 SHL SUB NOT AND CALLER OR SWAP1 SSTORE POP POP JUMP JUMPDEST PUSH1 0xD DUP2 DUP2 SLOAD DUP2 LT PUSH2 0x1023 JUMPI PUSH1 0x0 DUP1 REVERT JUMPDEST PUSH1 0x0 SLOAD PUSH1 0x1 PUSH1 0x1 PUSH1 0xA0 SHL SUB AND CALLER EQ PUSH2 0x169B JUMPI PUSH1 0x40 MLOAD PUSH3 0x461BCD PUSH1 0xE5 SHL DUP2 MSTORE PUSH1 0x4 ADD PUSH2 0xB3A SWAP1 PUSH2 0x3687 JUMP JUMPDEST PUSH1 0x0 JUMPDEST PUSH1 0xC SLOAD DUP2 LT ISZERO PUSH2 0x1768 JUMPI PUSH1 0x0 PUSH1 0xC DUP3 DUP2 SLOAD DUP2 LT PUSH2 0x16BD JUMPI PUSH2 0x16BD PUSH2 0x38EF JUMP JUMPDEST PUSH1 0x0 SWAP2 DUP3 MSTORE PUSH1 0x20 DUP3 KECCAK256 ADD SLOAD PUSH1 0x1 PUSH1 0x1 PUSH1 0xA0 SHL SUB AND SWAP2 POP PUSH2 0x16DC DUP3 PUSH2 0x2B3F JUMP JUMPDEST PUSH1 0xE SLOAD PUSH1 0x40 MLOAD PUSH4 0xA9059CBB PUSH1 0xE0 SHL DUP2 MSTORE SWAP2 SWAP3 POP PUSH1 0x1 PUSH1 0x1 PUSH1 0xA0 SHL SUB AND SWAP1 PUSH4 0xA9059CBB SWAP1 PUSH2 0x170F SWAP1 DUP6 SWAP1 DUP6 SWAP1 PUSH1 0x4 ADD PUSH2 0x37E6 JUMP JUMPDEST PUSH1 0x20 PUSH1 0x40 MLOAD DUP1 DUP4 SUB DUP2 PUSH1 0x0 DUP8 GAS CALL ISZERO DUP1 ISZERO PUSH2 0x172E JUMPI RETURNDATASIZE PUSH1 0x0 DUP1 RETURNDATACOPY RETURNDATASIZE PUSH1 0x0 REVERT JUMPDEST POP POP POP POP PUSH1 0x40 MLOAD RETURNDATASIZE PUSH1 0x1F NOT PUSH1 0x1F DUP3 ADD AND DUP3 ADD DUP1 PUSH1 0x40 MSTORE POP DUP2 ADD SWAP1 PUSH2 0x1752 SWAP2 SWAP1 PUSH2 0x3781 JUMP JUMPDEST POP POP POP DUP1 DUP1 PUSH2 0x1760 SWAP1 PUSH2 0x3905 JUMP JUMPDEST SWAP2 POP POP PUSH2 0x169E JUMP JUMPDEST POP JUMP JUMPDEST PUSH1 0x0 SLOAD PUSH1 0x1 PUSH1 0x1 PUSH1 0xA0 SHL SUB AND CALLER EQ PUSH2 0x1795 JUMPI PUSH1 0x40 MLOAD PUSH3 0x461BCD PUSH1 0xE5 SHL DUP2 MSTORE PUSH1 0x4 ADD PUSH2 0xB3A SWAP1 PUSH2 0x3687 JUMP JUMPDEST PUSH1 0x1A DUP1 SLOAD PUSH1 0x1 DUP2 ADD DUP3 SSTORE PUSH1 0x0 SWAP2 SWAP1 SWAP2 MSTORE PUSH32 0x57C384A7D1C54F3A1B2E5E67B2617B8224FDFD1EA7234EEA573A6FF665FF63E ADD DUP1 SLOAD PUSH1 0x1 PUSH1 0x1 PUSH1 0xA0 SHL SUB NOT AND PUSH1 0x1 PUSH1 0x1 PUSH1 0xA0 SHL SUB SWAP3 SWAP1 SWAP3 AND SWAP2 SWAP1 SWAP2 OR SWAP1 SSTORE JUMP JUMPDEST PUSH1 0x1 PUSH1 0x1 PUSH1 0xA0 SHL SUB DUP2 AND PUSH1 0x0 SWAP1 DUP2 MSTORE PUSH1 0x14 PUSH1 0x20 SWAP1 DUP2 MSTORE PUSH1 0x40 DUP1 DUP4 KECCAK256 SLOAD PUSH1 0x16 SWAP1 SWAP3 MSTORE DUP3 KECCAK256 SLOAD PUSH1 0x17 SLOAD DUP4 SWAP1 PUSH1 0x64 SWAP1 PUSH2 0x181E SWAP1 DUP6 SWAP1 PUSH2 0x36D2 JUMP JUMPDEST PUSH2 0x1828 SWAP2 SWAP1 PUSH2 0x36F1 JUMP JUMPDEST SWAP1 POP PUSH1 0x0 PUSH2 0x1836 DUP4 DUP4 PUSH2 0x37CF JUMP JUMPDEST SWAP8 SWAP7 POP POP POP POP POP POP POP JUMP JUMPDEST PUSH1 0x0 SLOAD PUSH1 0x1 PUSH1 0x1 PUSH1 0xA0 SHL SUB AND CALLER EQ PUSH2 0x186B JUMPI PUSH1 0x40 MLOAD PUSH3 0x461BCD PUSH1 0xE5 SHL DUP2 MSTORE PUSH1 0x4 ADD PUSH2 0xB3A SWAP1 PUSH2 0x3687 JUMP JUMPDEST PUSH1 0x40 MLOAD PUSH4 0x23B872DD PUSH1 0xE0 SHL DUP2 MSTORE CALLER PUSH1 0x4 DUP3 ADD MSTORE ADDRESS PUSH1 0x24 DUP3 ADD MSTORE PUSH1 0x44 DUP2 ADD DUP3 SWAP1 MSTORE PUSH1 0x1 PUSH1 0x1 PUSH1 0xA0 SHL SUB DUP4 AND SWAP1 PUSH4 0x23B872DD SWAP1 PUSH1 0x64 ADD JUMPDEST PUSH1 0x20 PUSH1 0x40 MLOAD DUP1 DUP4 SUB DUP2 PUSH1 0x0 DUP8 GAS CALL ISZERO DUP1 ISZERO PUSH2 0x18BF JUMPI RETURNDATASIZE PUSH1 0x0 DUP1 RETURNDATACOPY RETURNDATASIZE PUSH1 0x0 REVERT JUMPDEST POP POP POP POP PUSH1 0x40 MLOAD RETURNDATASIZE PUSH1 0x1F NOT PUSH1 0x1F DUP3 ADD AND DUP3 ADD DUP1 PUSH1 0x40 MSTORE POP DUP2 ADD SWAP1 PUSH2 0x18E3 SWAP2 SWAP1 PUSH2 0x3781 JUMP JUMPDEST POP POP POP JUMP JUMPDEST PUSH1 0x0 SLOAD PUSH1 0x1 PUSH1 0x1 PUSH1 0xA0 SHL SUB AND CALLER EQ PUSH2 0x1912 JUMPI PUSH1 0x40 MLOAD PUSH3 0x461BCD PUSH1 0xE5 SHL DUP2 MSTORE PUSH1 0x4 ADD PUSH2 0xB3A SWAP1 PUSH2 0x3687 JUMP JUMPDEST PUSH1 0xF DUP1 SLOAD PUSH1 0x1 PUSH1 0x1 PUSH1 0xA0 SHL SUB NOT AND PUSH1 0x1 PUSH1 0x1 PUSH1 0xA0 SHL SUB SWAP3 SWAP1 SWAP3 AND SWAP2 SWAP1 SWAP2 OR SWAP1 SSTORE JUMP JUMPDEST PUSH1 0x0 DUP1 PUSH2 0x193F PUSH2 0x29F5 JUMP JUMPDEST SWAP1 POP PUSH1 0x0 PUSH8 0xDE0B6B3A7640000 PUSH2 0x1956 DUP6 DUP5 PUSH2 0x36D2 JUMP JUMPDEST PUSH2 0x1960 SWAP2 SWAP1 PUSH2 0x36F1 JUMP JUMPDEST SWAP5 SWAP4 POP POP POP POP JUMP JUMPDEST PUSH1 0x0 SLOAD PUSH1 0x1 PUSH1 0x1 PUSH1 0xA0 SHL SUB AND CALLER EQ PUSH2 0x1992 JUMPI PUSH1 0x40 MLOAD PUSH3 0x461BCD PUSH1 0xE5 SHL DUP2 MSTORE PUSH1 0x4 ADD PUSH2 0xB3A SWAP1 PUSH2 0x3687 JUMP JUMPDEST PUSH2 0x199C PUSH1 0x0 PUSH2 0x34C9 JUMP JUMPDEST JUMP JUMPDEST PUSH1 0x0 DUP3 DUP2 MSTORE PUSH1 0x1F PUSH1 0x20 MSTORE PUSH1 0x40 SWAP1 KECCAK256 SLOAD PUSH1 0xFF AND ISZERO ISZERO PUSH1 0x1 EQ PUSH2 0x19BE JUMPI PUSH1 0x0 DUP1 REVERT JUMPDEST PUSH1 0x1 PUSH1 0x1 PUSH1 0xA0 SHL SUB DUP2 AND PUSH1 0x0 SWAP1 DUP2 MSTORE PUSH1 0x2 PUSH1 0x20 SWAP1 DUP2 MSTORE PUSH1 0x40 DUP1 DUP4 KECCAK256 CALLER DUP5 MSTORE SWAP1 SWAP2 MSTORE SWAP1 KECCAK256 SLOAD PUSH9 0x5150AE84A8CDF00000 GT ISZERO PUSH2 0x19F7 JUMPI PUSH1 0x0 DUP1 REVERT JUMPDEST PUSH1 0x0 PUSH2 0x1A03 CALLER DUP4 PUSH2 0x1AA5 JUMP JUMPDEST GT PUSH2 0x1A0D JUMPI PUSH1 0x0 DUP1 REVERT JUMPDEST CALLER PUSH1 0x0 SWAP1 DUP2 MSTORE PUSH1 0x22 PUSH1 0x20 MSTORE PUSH1 0x40 SWAP1 KECCAK256 SLOAD PUSH1 0xFF AND ISZERO PUSH2 0x1A2A JUMPI PUSH1 0x0 DUP1 REVERT JUMPDEST PUSH1 0x0 PUSH2 0x1A36 CALLER DUP4 PUSH2 0x1AA5 JUMP JUMPDEST PUSH1 0x0 DUP2 DUP2 MSTORE PUSH1 0x21 PUSH1 0x20 MSTORE PUSH1 0x40 SWAP1 KECCAK256 SLOAD SWAP1 SWAP2 POP PUSH2 0x1A53 SWAP1 PUSH1 0x1 PUSH2 0x379E JUMP JUMPDEST PUSH1 0x0 DUP3 DUP2 MSTORE PUSH1 0x21 PUSH1 0x20 SWAP1 DUP2 MSTORE PUSH1 0x40 DUP1 DUP4 KECCAK256 SWAP4 SWAP1 SWAP4 SSTORE CALLER DUP3 MSTORE PUSH1 0x23 SWAP1 MSTORE KECCAK256 SSTORE POP POP JUMP JUMPDEST PUSH1 0x0 DUP1 PUSH2 0x1A82 DUP5 DUP5 PUSH2 0x103D JUMP JUMPDEST PUSH1 0x1 PUSH1 0x1 PUSH1 0xA0 SHL SUB DUP6 AND PUSH1 0x0 SWAP1 DUP2 MSTORE PUSH1 0x4 PUSH1 0x20 MSTORE PUSH1 0x40 SWAP1 KECCAK256 SLOAD PUSH2 0x1960 SWAP2 SWAP1 PUSH2 0x379E JUMP JUMPDEST PUSH1 0x20 SLOAD PUSH1 0x0 SWAP1 DUP2 SWAP1 PUSH2 0x1AB8 SWAP1 PUSH1 0x96 PUSH2 0x36D2 JUMP JUMPDEST PUSH2 0x1ACA SWAP1 PUSH8 0xDE0B6B3A7640000 PUSH2 0x36D2 JUMP JUMPDEST PUSH1 0x1 PUSH1 0x1 PUSH1 0xA0 SHL SUB DUP1 DUP6 AND PUSH1 0x0 SWAP1 DUP2 MSTORE PUSH1 0x2 PUSH1 0x20 SWAP1 DUP2 MSTORE PUSH1 0x40 DUP1 DUP4 KECCAK256 SWAP4 DUP10 AND DUP4 MSTORE SWAP3 SWAP1 MSTORE KECCAK256 SLOAD LT PUSH2 0x1AFF JUMPI POP PUSH1 0x1C SWAP1 POP PUSH2 0x100D JUMP JUMPDEST PUSH1 0x20 SLOAD PUSH2 0x1B0D SWAP1 PUSH1 0x8C PUSH2 0x36D2 JUMP JUMPDEST PUSH2 0x1B1F SWAP1 PUSH8 0xDE0B6B3A7640000 PUSH2 0x36D2 JUMP JUMPDEST PUSH1 0x1 PUSH1 0x1 PUSH1 0xA0 SHL SUB DUP1 DUP6 AND PUSH1 0x0 SWAP1 DUP2 MSTORE PUSH1 0x2 PUSH1 0x20 SWAP1 DUP2 MSTORE PUSH1 0x40 DUP1 DUP4 KECCAK256 SWAP4 DUP10 AND DUP4 MSTORE SWAP3 SWAP1 MSTORE KECCAK256 SLOAD LT PUSH2 0x1B54 JUMPI POP PUSH1 0x1B SWAP1 POP PUSH2 0x100D JUMP JUMPDEST PUSH1 0x20 SLOAD PUSH2 0x1B62 SWAP1 PUSH1 0x82 PUSH2 0x36D2 JUMP JUMPDEST PUSH2 0x1B74 SWAP1 PUSH8 0xDE0B6B3A7640000 PUSH2 0x36D2 JUMP JUMPDEST PUSH1 0x1 PUSH1 0x1 PUSH1 0xA0 SHL SUB DUP1 DUP6 AND PUSH1 0x0 SWAP1 DUP2 MSTORE PUSH1 0x2 PUSH1 0x20 SWAP1 DUP2 MSTORE PUSH1 0x40 DUP1 DUP4 KECCAK256 SWAP4 DUP10 AND DUP4 MSTORE SWAP3 SWAP1 MSTORE KECCAK256 SLOAD LT PUSH2 0x1BA9 JUMPI POP PUSH1 0x1A SWAP1 POP PUSH2 0x100D JUMP JUMPDEST PUSH1 0x20 SLOAD PUSH2 0x1BB7 SWAP1 PUSH1 0x78 PUSH2 0x36D2 JUMP JUMPDEST PUSH2 0x1BC9 SWAP1 PUSH8 0xDE0B6B3A7640000 PUSH2 0x36D2 JUMP JUMPDEST PUSH1 0x1 PUSH1 0x1 PUSH1 0xA0 SHL SUB DUP1 DUP6 AND PUSH1 0x0 SWAP1 DUP2 MSTORE PUSH1 0x2 PUSH1 0x20 SWAP1 DUP2 MSTORE PUSH1 0x40 DUP1 DUP4 KECCAK256 SWAP4 DUP10 AND DUP4 MSTORE SWAP3 SWAP1 MSTORE KECCAK256 SLOAD LT PUSH2 0x1BFE JUMPI POP PUSH1 0x19 SWAP1 POP PUSH2 0x100D JUMP JUMPDEST PUSH1 0x20 SLOAD PUSH2 0x1C0C SWAP1 PUSH1 0x6E PUSH2 0x36D2 JUMP JUMPDEST PUSH2 0x1C1E SWAP1 PUSH8 0xDE0B6B3A7640000 PUSH2 0x36D2 JUMP JUMPDEST PUSH1 0x1 PUSH1 0x1 PUSH1 0xA0 SHL SUB DUP1 DUP6 AND PUSH1 0x0 SWAP1 DUP2 MSTORE PUSH1 0x2 PUSH1 0x20 SWAP1 DUP2 MSTORE PUSH1 0x40 DUP1 DUP4 KECCAK256 SWAP4 DUP10 AND DUP4 MSTORE SWAP3 SWAP1 MSTORE KECCAK256 SLOAD LT PUSH2 0x1C53 JUMPI POP PUSH1 0x18 SWAP1 POP PUSH2 0x100D JUMP JUMPDEST PUSH1 0x20 SLOAD PUSH2 0x1C61 SWAP1 PUSH1 0x64 PUSH2 0x36D2 JUMP JUMPDEST PUSH2 0x1C73 SWAP1 PUSH8 0xDE0B6B3A7640000 PUSH2 0x36D2 JUMP JUMPDEST PUSH1 0x1 PUSH1 0x1 PUSH1 0xA0 SHL SUB DUP1 DUP6 AND PUSH1 0x0 SWAP1 DUP2 MSTORE PUSH1 0x2 PUSH1 0x20 SWAP1 DUP2 MSTORE PUSH1 0x40 DUP1 DUP4 KECCAK256 SWAP4 DUP10 AND DUP4 MSTORE SWAP3 SWAP1 MSTORE KECCAK256 SLOAD LT PUSH2 0x1CA8 JUMPI POP PUSH1 0x17 SWAP1 POP PUSH2 0x100D JUMP JUMPDEST PUSH1 0x20 SLOAD PUSH2 0x1CB6 SWAP1 PUSH1 0x5A PUSH2 0x36D2 JUMP JUMPDEST PUSH2 0x1CC8 SWAP1 PUSH8 0xDE0B6B3A7640000 PUSH2 0x36D2 JUMP JUMPDEST PUSH1 0x1 PUSH1 0x1 PUSH1 0xA0 SHL SUB DUP1 DUP6 AND PUSH1 0x0 SWAP1 DUP2 MSTORE PUSH1 0x2 PUSH1 0x20 SWAP1 DUP2 MSTORE PUSH1 0x40 DUP1 DUP4 KECCAK256 SWAP4 DUP10 AND DUP4 MSTORE SWAP3 SWAP1 MSTORE KECCAK256 SLOAD LT PUSH2 0x1CFD JUMPI POP PUSH1 0x16 SWAP1 POP PUSH2 0x100D JUMP JUMPDEST PUSH1 0x20 SLOAD PUSH2 0x1D0B SWAP1 PUSH1 0x50 PUSH2 0x36D2 JUMP JUMPDEST PUSH2 0x1D1D SWAP1 PUSH8 0xDE0B6B3A7640000 PUSH2 0x36D2 JUMP JUMPDEST PUSH1 0x1 PUSH1 0x1 PUSH1 0xA0 SHL SUB DUP1 DUP6 AND PUSH1 0x0 SWAP1 DUP2 MSTORE PUSH1 0x2 PUSH1 0x20 SWAP1 DUP2 MSTORE PUSH1 0x40 DUP1 DUP4 KECCAK256 SWAP4 DUP10 AND DUP4 MSTORE SWAP3 SWAP1 MSTORE KECCAK256 SLOAD LT PUSH2 0x1D52 JUMPI POP PUSH1 0x15 SWAP1 POP PUSH2 0x100D JUMP JUMPDEST PUSH1 0x20 SLOAD PUSH2 0x1D60 SWAP1 PUSH1 0x46 PUSH2 0x36D2 JUMP JUMPDEST PUSH2 0x1D72 SWAP1 PUSH8 0xDE0B6B3A7640000 PUSH2 0x36D2 JUMP JUMPDEST PUSH1 0x1 PUSH1 0x1 PUSH1 0xA0 SHL SUB DUP1 DUP6 AND PUSH1 0x0 SWAP1 DUP2 MSTORE PUSH1 0x2 PUSH1 0x20 SWAP1 DUP2 MSTORE PUSH1 0x40 DUP1 DUP4 KECCAK256 SWAP4 DUP10 AND DUP4 MSTORE SWAP3 SWAP1 MSTORE KECCAK256 SLOAD LT PUSH2 0x1DA7 JUMPI POP PUSH1 0x14 SWAP1 POP PUSH2 0x100D JUMP JUMPDEST PUSH1 0x20 SLOAD PUSH2 0x1DB5 SWAP1 PUSH1 0x3C PUSH2 0x36D2 JUMP JUMPDEST PUSH2 0x1DC7 SWAP1 PUSH8 0xDE0B6B3A7640000 PUSH2 0x36D2 JUMP JUMPDEST PUSH1 0x1 PUSH1 0x1 PUSH1 0xA0 SHL SUB DUP1 DUP6 AND PUSH1 0x0 SWAP1 DUP2 MSTORE PUSH1 0x2 PUSH1 0x20 SWAP1 DUP2 MSTORE PUSH1 0x40 DUP1 DUP4 KECCAK256 SWAP4 DUP10 AND DUP4 MSTORE SWAP3 SWAP1 MSTORE KECCAK256 SLOAD LT PUSH2 0x1DFC JUMPI POP PUSH1 0x13 SWAP1 POP PUSH2 0x100D JUMP JUMPDEST PUSH1 0x20 SLOAD PUSH2 0x1E0A SWAP1 PUSH1 0x32 PUSH2 0x36D2 JUMP JUMPDEST PUSH2 0x1E1C SWAP1 PUSH8 0xDE0B6B3A7640000 PUSH2 0x36D2 JUMP JUMPDEST PUSH1 0x1 PUSH1 0x1 PUSH1 0xA0 SHL SUB DUP1 DUP6 AND PUSH1 0x0 SWAP1 DUP2 MSTORE PUSH1 0x2 PUSH1 0x20 SWAP1 DUP2 MSTORE PUSH1 0x40 DUP1 DUP4 KECCAK256 SWAP4 DUP10 AND DUP4 MSTORE SWAP3 SWAP1 MSTORE KECCAK256 SLOAD LT PUSH2 0x1E51 JUMPI POP PUSH1 0x12 SWAP1 POP PUSH2 0x100D JUMP JUMPDEST PUSH1 0x20 SLOAD PUSH2 0x1E5F SWAP1 PUSH1 0x2D PUSH2 0x36D2 JUMP JUMPDEST PUSH2 0x1E71 SWAP1 PUSH8 0xDE0B6B3A7640000 PUSH2 0x36D2 JUMP JUMPDEST PUSH1 0x1 PUSH1 0x1 PUSH1 0xA0 SHL SUB DUP1 DUP6 AND PUSH1 0x0 SWAP1 DUP2 MSTORE PUSH1 0x2 PUSH1 0x20 SWAP1 DUP2 MSTORE PUSH1 0x40 DUP1 DUP4 KECCAK256 SWAP4 DUP10 AND DUP4 MSTORE SWAP3 SWAP1 MSTORE KECCAK256 SLOAD LT PUSH2 0x1EA6 JUMPI POP PUSH1 0x11 SWAP1 POP PUSH2 0x100D JUMP JUMPDEST PUSH1 0x20 SLOAD PUSH2 0x1EB4 SWAP1 PUSH1 0x28 PUSH2 0x36D2 JUMP JUMPDEST PUSH2 0x1EC6 SWAP1 PUSH8 0xDE0B6B3A7640000 PUSH2 0x36D2 JUMP JUMPDEST PUSH1 0x1 PUSH1 0x1 PUSH1 0xA0 SHL SUB DUP1 DUP6 AND PUSH1 0x0 SWAP1 DUP2 MSTORE PUSH1 0x2 PUSH1 0x20 SWAP1 DUP2 MSTORE PUSH1 0x40 DUP1 DUP4 KECCAK256 SWAP4 DUP10 AND DUP4 MSTORE SWAP3 SWAP1 MSTORE KECCAK256 SLOAD LT PUSH2 0x1EFB JUMPI POP PUSH1 0x10 SWAP1 POP PUSH2 0x100D JUMP JUMPDEST PUSH1 0x20 SLOAD PUSH2 0x1F09 SWAP1 PUSH1 0x23 PUSH2 0x36D2 JUMP JUMPDEST PUSH2 0x1F1B SWAP1 PUSH8 0xDE0B6B3A7640000 PUSH2 0x36D2 JUMP JUMPDEST PUSH1 0x1 PUSH1 0x1 PUSH1 0xA0 SHL SUB DUP1 DUP6 AND PUSH1 0x0 SWAP1 DUP2 MSTORE PUSH1 0x2 PUSH1 0x20 SWAP1 DUP2 MSTORE PUSH1 0x40 DUP1 DUP4 KECCAK256 SWAP4 DUP10 AND DUP4 MSTORE SWAP3 SWAP1 MSTORE KECCAK256 SLOAD LT PUSH2 0x1F50 JUMPI POP PUSH1 0xF SWAP1 POP PUSH2 0x100D JUMP JUMPDEST PUSH1 0x20 SLOAD PUSH2 0x1F5E SWAP1 PUSH1 0x1E PUSH2 0x36D2 JUMP JUMPDEST PUSH2 0x1F70 SWAP1 PUSH8 0xDE0B6B3A7640000 PUSH2 0x36D2 JUMP JUMPDEST PUSH1 0x1 PUSH1 0x1 PUSH1 0xA0 SHL SUB DUP1 DUP6 AND PUSH1 0x0 SWAP1 DUP2 MSTORE PUSH1 0x2 PUSH1 0x20 SWAP1 DUP2 MSTORE PUSH1 0x40 DUP1 DUP4 KECCAK256 SWAP4 DUP10 AND DUP4 MSTORE SWAP3 SWAP1 MSTORE KECCAK256 SLOAD LT PUSH2 0x1FA5 JUMPI POP PUSH1 0xE SWAP1 POP PUSH2 0x100D JUMP JUMPDEST PUSH1 0x20 SLOAD PUSH2 0x1FB3 SWAP1 PUSH1 0x19 PUSH2 0x36D2 JUMP JUMPDEST PUSH2 0x1FC5 SWAP1 PUSH8 0xDE0B6B3A7640000 PUSH2 0x36D2 JUMP JUMPDEST PUSH1 0x1 PUSH1 0x1 PUSH1 0xA0 SHL SUB DUP1 DUP6 AND PUSH1 0x0 SWAP1 DUP2 MSTORE PUSH1 0x2 PUSH1 0x20 SWAP1 DUP2 MSTORE PUSH1 0x40 DUP1 DUP4 KECCAK256 SWAP4 DUP10 AND DUP4 MSTORE SWAP3 SWAP1 MSTORE KECCAK256 SLOAD LT PUSH2 0x1FFA JUMPI POP PUSH1 0xD SWAP1 POP PUSH2 0x100D JUMP JUMPDEST PUSH1 0x20 SLOAD PUSH2 0x2008 SWAP1 PUSH1 0x14 PUSH2 0x36D2 JUMP JUMPDEST PUSH2 0x201A SWAP1 PUSH8 0xDE0B6B3A7640000 PUSH2 0x36D2 JUMP JUMPDEST PUSH1 0x1 PUSH1 0x1 PUSH1 0xA0 SHL SUB DUP1 DUP6 AND PUSH1 0x0 SWAP1 DUP2 MSTORE PUSH1 0x2 PUSH1 0x20 SWAP1 DUP2 MSTORE PUSH1 0x40 DUP1 DUP4 KECCAK256 SWAP4 DUP10 AND DUP4 MSTORE SWAP3 SWAP1 MSTORE KECCAK256 SLOAD LT PUSH2 0x204F JUMPI POP PUSH1 0xC SWAP1 POP PUSH2 0x100D JUMP JUMPDEST PUSH1 0x20 SLOAD PUSH2 0x205D SWAP1 PUSH1 0xF PUSH2 0x36D2 JUMP JUMPDEST PUSH2 0x206F SWAP1 PUSH8 0xDE0B6B3A7640000 PUSH2 0x36D2 JUMP JUMPDEST PUSH1 0x1 PUSH1 0x1 PUSH1 0xA0 SHL SUB DUP1 DUP6 AND PUSH1 0x0 SWAP1 DUP2 MSTORE PUSH1 0x2 PUSH1 0x20 SWAP1 DUP2 MSTORE PUSH1 0x40 DUP1 DUP4 KECCAK256 SWAP4 DUP10 AND DUP4 MSTORE SWAP3 SWAP1 MSTORE KECCAK256 SLOAD LT PUSH2 0x20A4 JUMPI POP PUSH1 0xB SWAP1 POP PUSH2 0x100D JUMP JUMPDEST PUSH1 0x20 SLOAD PUSH2 0x20B2 SWAP1 PUSH1 0xA PUSH2 0x36D2 JUMP JUMPDEST PUSH2 0x20C4 SWAP1 PUSH8 0xDE0B6B3A7640000 PUSH2 0x36D2 JUMP JUMPDEST PUSH1 0x1 PUSH1 0x1 PUSH1 0xA0 SHL SUB DUP1 DUP6 AND PUSH1 0x0 SWAP1 DUP2 MSTORE PUSH1 0x2 PUSH1 0x20 SWAP1 DUP2 MSTORE PUSH1 0x40 DUP1 DUP4 KECCAK256 SWAP4 DUP10 AND DUP4 MSTORE SWAP3 SWAP1 MSTORE KECCAK256 SLOAD LT PUSH2 0x20F9 JUMPI POP PUSH1 0xA SWAP1 POP PUSH2 0x100D JUMP JUMPDEST PUSH1 0x20 SLOAD PUSH2 0x2107 SWAP1 PUSH1 0x9 PUSH2 0x36D2 JUMP JUMPDEST PUSH2 0x2119 SWAP1 PUSH8 0xDE0B6B3A7640000 PUSH2 0x36D2 JUMP JUMPDEST PUSH1 0x1 PUSH1 0x1 PUSH1 0xA0 SHL SUB DUP1 DUP6 AND PUSH1 0x0 SWAP1 DUP2 MSTORE PUSH1 0x2 PUSH1 0x20 SWAP1 DUP2 MSTORE PUSH1 0x40 DUP1 DUP4 KECCAK256 SWAP4 DUP10 AND DUP4 MSTORE SWAP3 SWAP1 MSTORE KECCAK256 SLOAD LT PUSH2 0x214E JUMPI POP PUSH1 0x9 SWAP1 POP PUSH2 0x100D JUMP JUMPDEST PUSH1 0x20 SLOAD PUSH2 0x215C SWAP1 PUSH1 0x8 PUSH2 0x36D2 JUMP JUMPDEST PUSH2 0x216E SWAP1 PUSH8 0xDE0B6B3A7640000 PUSH2 0x36D2 JUMP JUMPDEST PUSH1 0x1 PUSH1 0x1 PUSH1 0xA0 SHL SUB DUP1 DUP6 AND PUSH1 0x0 SWAP1 DUP2 MSTORE PUSH1 0x2 PUSH1 0x20 SWAP1 DUP2 MSTORE PUSH1 0x40 DUP1 DUP4 KECCAK256 SWAP4 DUP10 AND DUP4 MSTORE SWAP3 SWAP1 MSTORE KECCAK256 SLOAD LT PUSH2 0x21A3 JUMPI POP PUSH1 0x8 SWAP1 POP PUSH2 0x100D JUMP JUMPDEST PUSH1 0x20 SLOAD PUSH2 0x21B1 SWAP1 PUSH1 0x7 PUSH2 0x36D2 JUMP JUMPDEST PUSH2 0x21C3 SWAP1 PUSH8 0xDE0B6B3A7640000 PUSH2 0x36D2 JUMP JUMPDEST PUSH1 0x1 PUSH1 0x1 PUSH1 0xA0 SHL SUB DUP1 DUP6 AND PUSH1 0x0 SWAP1 DUP2 MSTORE PUSH1 0x2 PUSH1 0x20 SWAP1 DUP2 MSTORE PUSH1 0x40 DUP1 DUP4 KECCAK256 SWAP4 DUP10 AND DUP4 MSTORE SWAP3 SWAP1 MSTORE KECCAK256 SLOAD LT PUSH2 0x21F8 JUMPI POP PUSH1 0x7 SWAP1 POP PUSH2 0x100D JUMP JUMPDEST PUSH1 0x20 SLOAD PUSH2 0x2206 SWAP1 PUSH1 0x6 PUSH2 0x36D2 JUMP JUMPDEST PUSH2 0x2218 SWAP1 PUSH8 0xDE0B6B3A7640000 PUSH2 0x36D2 JUMP JUMPDEST PUSH1 0x1 PUSH1 0x1 PUSH1 0xA0 SHL SUB DUP1 DUP6 AND PUSH1 0x0 SWAP1 DUP2 MSTORE PUSH1 0x2 PUSH1 0x20 SWAP1 DUP2 MSTORE PUSH1 0x40 DUP1 DUP4 KECCAK256 SWAP4 DUP10 AND DUP4 MSTORE SWAP3 SWAP1 MSTORE KECCAK256 SLOAD LT PUSH2 0x224D JUMPI POP PUSH1 0x6 SWAP1 POP PUSH2 0x100D JUMP JUMPDEST PUSH1 0x20 SLOAD PUSH2 0x225B SWAP1 PUSH1 0x5 PUSH2 0x36D2 JUMP JUMPDEST PUSH2 0x226D SWAP1 PUSH8 0xDE0B6B3A7640000 PUSH2 0x36D2 JUMP JUMPDEST PUSH1 0x1 PUSH1 0x1 PUSH1 0xA0 SHL SUB DUP1 DUP6 AND PUSH1 0x0 SWAP1 DUP2 MSTORE PUSH1 0x2 PUSH1 0x20 SWAP1 DUP2 MSTORE PUSH1 0x40 DUP1 DUP4 KECCAK256 SWAP4 DUP10 AND DUP4 MSTORE SWAP3 SWAP1 MSTORE KECCAK256 SLOAD LT PUSH2 0x22A2 JUMPI POP PUSH1 0x5 SWAP1 POP PUSH2 0x100D JUMP JUMPDEST PUSH1 0x20 SLOAD PUSH2 0x22B0 SWAP1 PUSH1 0x4 PUSH2 0x36D2 JUMP JUMPDEST PUSH2 0x22C2 SWAP1 PUSH8 0xDE0B6B3A7640000 PUSH2 0x36D2 JUMP JUMPDEST PUSH1 0x1 PUSH1 0x1 PUSH1 0xA0 SHL SUB DUP1 DUP6 AND PUSH1 0x0 SWAP1 DUP2 MSTORE PUSH1 0x2 PUSH1 0x20 SWAP1 DUP2 MSTORE PUSH1 0x40 DUP1 DUP4 KECCAK256 SWAP4 DUP10 AND DUP4 MSTORE SWAP3 SWAP1 MSTORE KECCAK256 SLOAD LT PUSH2 0x22F7 JUMPI POP PUSH1 0x4 SWAP1 POP PUSH2 0x100D JUMP JUMPDEST PUSH1 0x20 SLOAD PUSH2 0x2305 SWAP1 PUSH1 0x3 PUSH2 0x36D2 JUMP JUMPDEST PUSH2 0x2317 SWAP1 PUSH8 0xDE0B6B3A7640000 PUSH2 0x36D2 JUMP JUMPDEST PUSH1 0x1 PUSH1 0x1 PUSH1 0xA0 SHL SUB DUP1 DUP6 AND PUSH1 0x0 SWAP1 DUP2 MSTORE PUSH1 0x2 PUSH1 0x20 SWAP1 DUP2 MSTORE PUSH1 0x40 DUP1 DUP4 KECCAK256 SWAP4 DUP10 AND DUP4 MSTORE SWAP3 SWAP1 MSTORE KECCAK256 SLOAD LT PUSH2 0x234C JUMPI POP PUSH1 0x3 SWAP1 POP PUSH2 0x100D JUMP JUMPDEST PUSH1 0x20 SLOAD PUSH2 0x235A SWAP1 PUSH1 0x2 PUSH2 0x36D2 JUMP JUMPDEST PUSH2 0x236C SWAP1 PUSH8 0xDE0B6B3A7640000 PUSH2 0x36D2 JUMP JUMPDEST PUSH1 0x1 PUSH1 0x1 PUSH1 0xA0 SHL SUB DUP1 DUP6 AND PUSH1 0x0 SWAP1 DUP2 MSTORE PUSH1 0x2 PUSH1 0x20 SWAP1 DUP2 MSTORE PUSH1 0x40 DUP1 DUP4 KECCAK256 SWAP4 DUP10 AND DUP4 MSTORE SWAP3 SWAP1 MSTORE KECCAK256 SLOAD LT PUSH2 0x23A1 JUMPI POP PUSH1 0x2 SWAP1 POP PUSH2 0x100D JUMP JUMPDEST PUSH1 0x20 SLOAD PUSH2 0x23AF SWAP1 PUSH1 0x1 PUSH2 0x36D2 JUMP JUMPDEST PUSH2 0x23C1 SWAP1 PUSH8 0xDE0B6B3A7640000 PUSH2 0x36D2 JUMP JUMPDEST PUSH1 0x1 PUSH1 0x1 PUSH1 0xA0 SHL SUB DUP1 DUP6 AND PUSH1 0x0 SWAP1 DUP2 MSTORE PUSH1 0x2 PUSH1 0x20 SWAP1 DUP2 MSTORE PUSH1 0x40 DUP1 DUP4 KECCAK256 SWAP4 DUP10 AND DUP4 MSTORE SWAP3 SWAP1 MSTORE KECCAK256 SLOAD LT PUSH2 0x23F6 JUMPI POP PUSH1 0x1 SWAP1 POP PUSH2 0x100D JUMP JUMPDEST POP PUSH1 0x0 SWAP1 POP PUSH2 0x100D JUMP JUMPDEST PUSH1 0x0 SLOAD PUSH1 0x1 PUSH1 0x1 PUSH1 0xA0 SHL SUB AND CALLER EQ PUSH2 0x242A JUMPI PUSH1 0x40 MLOAD PUSH3 0x461BCD PUSH1 0xE5 SHL DUP2 MSTORE PUSH1 0x4 ADD PUSH2 0xB3A SWAP1 PUSH2 0x3687 JUMP JUMPDEST PUSH1 0x1 PUSH1 0x1 PUSH1 0xA0 SHL SUB DUP2 AND PUSH1 0x0 DUP2 DUP2 MSTORE PUSH1 0x11 PUSH1 0x20 MSTORE PUSH1 0x40 SWAP1 DUP2 SWAP1 KECCAK256 SLOAD SWAP1 MLOAD PUSH4 0xA9059CBB PUSH1 0xE0 SHL DUP2 MSTORE SWAP1 SWAP2 SWAP1 PUSH4 0xA9059CBB SWAP1 PUSH2 0x246A SWAP1 CALLER SWAP1 DUP6 SWAP1 PUSH1 0x4 ADD PUSH2 0x37E6 JUMP JUMPDEST PUSH1 0x20 PUSH1 0x40 MLOAD DUP1 DUP4 SUB DUP2 PUSH1 0x0 DUP8 GAS CALL ISZERO DUP1 ISZERO PUSH2 0x2489 JUMPI RETURNDATASIZE PUSH1 0x0 DUP1 RETURNDATACOPY RETURNDATASIZE PUSH1 0x0 REVERT JUMPDEST POP POP POP POP PUSH1 0x40 MLOAD RETURNDATASIZE PUSH1 0x1F NOT PUSH1 0x1F DUP3 ADD AND DUP3 ADD DUP1 PUSH1 0x40 MSTORE POP DUP2 ADD SWAP1 PUSH2 0x24AD SWAP2 SWAP1 PUSH2 0x3781 JUMP JUMPDEST POP PUSH1 0x40 MLOAD PUSH4 0x70A08231 PUSH1 0xE0 SHL DUP2 MSTORE ADDRESS PUSH1 0x4 DUP3 ADD MSTORE PUSH8 0xDE0B6B3A7640000 SWAP1 PUSH1 0x1 PUSH1 0x1 PUSH1 0xA0 SHL SUB DUP5 AND SWAP1 PUSH4 0x70A08231 SWAP1 PUSH1 0x24 ADD PUSH1 0x20 PUSH1 0x40 MLOAD DUP1 DUP4 SUB DUP2 DUP7 GAS STATICCALL ISZERO DUP1 ISZERO PUSH2 0x24FC JUMPI RETURNDATASIZE PUSH1 0x0 DUP1 RETURNDATACOPY RETURNDATASIZE PUSH1 0x0 REVERT JUMPDEST POP POP POP POP PUSH1 0x40 MLOAD RETURNDATASIZE PUSH1 0x1F NOT PUSH1 0x1F DUP3 ADD AND DUP3 ADD DUP1 PUSH1 0x40 MSTORE POP DUP2 ADD SWAP1 PUSH2 0x2520 SWAP2 SWAP1 PUSH2 0x37B6 JUMP JUMPDEST PUSH2 0x252A SWAP2 SWAP1 PUSH2 0x36F1 JUMP JUMPDEST PUSH1 0x1D SSTORE POP PUSH1 0x1 PUSH1 0x1 PUSH1 0xA0 SHL SUB AND PUSH1 0x0 SWAP1 DUP2 MSTORE PUSH1 0x11 PUSH1 0x20 MSTORE PUSH1 0x40 DUP2 KECCAK256 SSTORE JUMP JUMPDEST PUSH1 0x1 PUSH1 0x1 PUSH1 0xA0 SHL SUB DUP2 AND PUSH1 0x0 SWAP1 DUP2 MSTORE PUSH1 0x2 PUSH1 0x20 SWAP1 DUP2 MSTORE PUSH1 0x40 DUP1 DUP4 KECCAK256 CALLER DUP5 MSTORE SWAP1 SWAP2 MSTORE SWAP1 KECCAK256 SLOAD DUP3 PUSH2 0x2589 JUMPI PUSH1 0x40 MLOAD PUSH3 0x461BCD PUSH1 0xE5 SHL DUP2 MSTORE PUSH1 0x4 ADD PUSH2 0xB3A SWAP1 PUSH2 0x3713 JUMP JUMPDEST DUP3 DUP2 LT ISZERO PUSH2 0x25E5 JUMPI PUSH1 0x40 MLOAD PUSH3 0x461BCD PUSH1 0xE5 SHL DUP2 MSTORE PUSH1 0x20 PUSH1 0x4 DUP3 ADD MSTORE PUSH1 0x23 PUSH1 0x24 DUP3 ADD MSTORE PUSH32 0x596F7520646F6E2774206861766520656E6F756768207374616B656420746F6B PUSH1 0x44 DUP3 ADD MSTORE PUSH3 0x656E73 PUSH1 0xE8 SHL PUSH1 0x64 DUP3 ADD MSTORE PUSH1 0x84 ADD PUSH2 0xB3A JUMP JUMPDEST PUSH2 0x25EE DUP3 PUSH2 0x2FDF JUMP JUMPDEST PUSH2 0x260A JUMPI PUSH1 0x40 MLOAD PUSH3 0x461BCD PUSH1 0xE5 SHL DUP2 MSTORE PUSH1 0x4 ADD PUSH2 0xB3A SWAP1 PUSH2 0x374A JUMP JUMPDEST CALLER PUSH1 0x0 SWAP1 DUP2 MSTORE PUSH1 0x5 PUSH1 0x20 MSTORE PUSH1 0x40 SWAP1 KECCAK256 SLOAD TIMESTAMP SWAP1 PUSH2 0x2629 SWAP1 PUSH3 0x49D400 PUSH2 0x379E JUMP JUMPDEST DUP2 LT ISZERO PUSH2 0x2777 JUMPI CALLER PUSH1 0x0 SWAP1 DUP2 MSTORE PUSH1 0x5 PUSH1 0x20 MSTORE PUSH1 0x40 SWAP1 KECCAK256 SLOAD PUSH2 0x264D SWAP1 PUSH3 0x375F00 PUSH2 0x379E JUMP JUMPDEST DUP2 LT ISZERO PUSH2 0x2768 JUMPI CALLER PUSH1 0x0 SWAP1 DUP2 MSTORE PUSH1 0x5 PUSH1 0x20 MSTORE PUSH1 0x40 SWAP1 KECCAK256 SLOAD PUSH2 0x2671 SWAP1 PUSH3 0x24EA00 PUSH2 0x379E JUMP JUMPDEST DUP2 LT ISZERO PUSH2 0x2759 JUMPI CALLER PUSH1 0x0 SWAP1 DUP2 MSTORE PUSH1 0x5 PUSH1 0x20 MSTORE PUSH1 0x40 SWAP1 KECCAK256 SLOAD PUSH2 0x2695 SWAP1 PUSH3 0x127500 PUSH2 0x379E JUMP JUMPDEST DUP2 LT ISZERO PUSH2 0x274A JUMPI PUSH1 0x0 PUSH1 0x64 PUSH2 0x26AB DUP7 PUSH1 0x4B PUSH2 0x36D2 JUMP JUMPDEST PUSH2 0x26B5 SWAP2 SWAP1 PUSH2 0x36F1 JUMP JUMPDEST PUSH1 0x40 MLOAD PUSH4 0xA9059CBB PUSH1 0xE0 SHL DUP2 MSTORE SWAP1 SWAP2 POP PUSH1 0x1 PUSH1 0x1 PUSH1 0xA0 SHL SUB DUP6 AND SWAP1 PUSH4 0xA9059CBB SWAP1 PUSH2 0x26E6 SWAP1 CALLER SWAP1 DUP6 SWAP1 PUSH1 0x4 ADD PUSH2 0x37E6 JUMP JUMPDEST PUSH1 0x20 PUSH1 0x40 MLOAD DUP1 DUP4 SUB DUP2 PUSH1 0x0 DUP8 GAS CALL ISZERO DUP1 ISZERO PUSH2 0x2705 JUMPI RETURNDATASIZE PUSH1 0x0 DUP1 RETURNDATACOPY RETURNDATASIZE PUSH1 0x0 REVERT JUMPDEST POP POP POP POP PUSH1 0x40 MLOAD RETURNDATASIZE PUSH1 0x1F NOT PUSH1 0x1F DUP3 ADD AND DUP3 ADD DUP1 PUSH1 0x40 MSTORE POP DUP2 ADD SWAP1 PUSH2 0x2729 SWAP2 SWAP1 PUSH2 0x3781 JUMP JUMPDEST POP PUSH2 0x2734 DUP2 DUP7 PUSH2 0x37CF JUMP JUMPDEST PUSH1 0x6 SLOAD PUSH2 0x2741 SWAP2 SWAP1 PUSH2 0x379E JUMP JUMPDEST PUSH1 0x6 SSTORE POP PUSH2 0x27EA JUMP JUMPDEST PUSH1 0x0 PUSH1 0x64 PUSH2 0x26AB DUP7 PUSH1 0x55 PUSH2 0x36D2 JUMP JUMPDEST PUSH1 0x0 PUSH1 0x64 PUSH2 0x26AB DUP7 PUSH1 0x5A PUSH2 0x36D2 JUMP JUMPDEST PUSH1 0x0 PUSH1 0x64 PUSH2 0x26AB DUP7 PUSH1 0x5F PUSH2 0x36D2 JUMP JUMPDEST PUSH1 0x40 MLOAD PUSH4 0xA9059CBB PUSH1 0xE0 SHL DUP2 MSTORE PUSH1 0x1 PUSH1 0x1 PUSH1 0xA0 SHL SUB DUP5 AND SWAP1 PUSH4 0xA9059CBB SWAP1 PUSH2 0x27A5 SWAP1 CALLER SWAP1 DUP9 SWAP1 PUSH1 0x4 ADD PUSH2 0x37E6 JUMP JUMPDEST PUSH1 0x20 PUSH1 0x40 MLOAD DUP1 DUP4 SUB DUP2 PUSH1 0x0 DUP8 GAS CALL ISZERO DUP1 ISZERO PUSH2 0x27C4 JUMPI RETURNDATASIZE PUSH1 0x0 DUP1 RETURNDATACOPY RETURNDATASIZE PUSH1 0x0 REVERT JUMPDEST POP POP POP POP PUSH1 0x40 MLOAD RETURNDATASIZE PUSH1 0x1F NOT PUSH1 0x1F DUP3 ADD AND DUP3 ADD DUP1 PUSH1 0x40 MSTORE POP DUP2 ADD SWAP1 PUSH2 0x27E8 SWAP2 SWAP1 PUSH2 0x3781 JUMP JUMPDEST POP JUMPDEST PUSH2 0x27F4 CALLER DUP5 PUSH2 0x1A75 JUMP JUMPDEST CALLER PUSH1 0x0 SWAP1 DUP2 MSTORE PUSH1 0x4 PUSH1 0x20 SWAP1 DUP2 MSTORE PUSH1 0x40 DUP1 DUP4 KECCAK256 SWAP4 SWAP1 SWAP4 SSTORE PUSH1 0x3 SWAP1 MSTORE KECCAK256 TIMESTAMP SWAP1 SSTORE PUSH2 0x281C DUP5 DUP4 PUSH2 0x37CF JUMP JUMPDEST PUSH1 0x1 PUSH1 0x1 PUSH1 0xA0 SHL SUB DUP5 AND PUSH1 0x0 SWAP1 DUP2 MSTORE PUSH1 0x2 PUSH1 0x20 SWAP1 DUP2 MSTORE PUSH1 0x40 DUP1 DUP4 KECCAK256 CALLER DUP5 MSTORE SWAP1 SWAP2 MSTORE SWAP1 KECCAK256 SSTORE PUSH1 0xB SLOAD PUSH2 0x284E SWAP1 DUP6 SWAP1 PUSH2 0x37CF JUMP JUMPDEST PUSH1 0xB SSTORE PUSH1 0x1 PUSH1 0x1 PUSH1 0xA0 SHL SUB DUP4 AND PUSH1 0x0 SWAP1 DUP2 MSTORE PUSH1 0x2 PUSH1 0x20 SWAP1 DUP2 MSTORE PUSH1 0x40 DUP1 DUP4 KECCAK256 CALLER DUP5 MSTORE SWAP1 SWAP2 MSTORE SWAP1 KECCAK256 SLOAD PUSH2 0x28B8 JUMPI PUSH1 0x1 PUSH1 0xA SLOAD PUSH2 0x2888 SWAP2 SWAP1 PUSH2 0x37CF JUMP JUMPDEST PUSH1 0xA SSTORE CALLER PUSH1 0x0 SWAP1 DUP2 MSTORE PUSH1 0x7 PUSH1 0x20 MSTORE PUSH1 0x40 SWAP1 KECCAK256 SLOAD PUSH2 0x28A7 SWAP1 PUSH1 0x1 SWAP1 PUSH2 0x37CF JUMP JUMPDEST CALLER PUSH1 0x0 SWAP1 DUP2 MSTORE PUSH1 0x7 PUSH1 0x20 MSTORE PUSH1 0x40 SWAP1 KECCAK256 SSTORE JUMPDEST POP POP POP POP JUMP JUMPDEST PUSH1 0x0 SLOAD PUSH1 0x1 PUSH1 0x1 PUSH1 0xA0 SHL SUB AND CALLER EQ PUSH2 0x28E8 JUMPI PUSH1 0x40 MLOAD PUSH3 0x461BCD PUSH1 0xE5 SHL DUP2 MSTORE PUSH1 0x4 ADD PUSH2 0xB3A SWAP1 PUSH2 0x3687 JUMP JUMPDEST PUSH1 0x1 PUSH1 0x1 PUSH1 0xA0 SHL SUB SWAP2 DUP3 AND PUSH1 0x0 SWAP1 DUP2 MSTORE PUSH1 0x8 PUSH1 0x20 MSTORE PUSH1 0x40 SWAP1 KECCAK256 DUP1 SLOAD PUSH1 0x1 PUSH1 0x1 PUSH1 0xA0 SHL SUB NOT AND SWAP2 SWAP1 SWAP3 AND OR SWAP1 SSTORE JUMP JUMPDEST PUSH1 0x0 SLOAD PUSH1 0x1 PUSH1 0x1 PUSH1 0xA0 SHL SUB AND CALLER EQ PUSH2 0x2940 JUMPI PUSH1 0x40 MLOAD PUSH3 0x461BCD PUSH1 0xE5 SHL DUP2 MSTORE PUSH1 0x4 ADD PUSH2 0xB3A SWAP1 PUSH2 0x3687 JUMP JUMPDEST PUSH1 0x20 SSTORE JUMP JUMPDEST PUSH1 0x0 PUSH2 0x2951 CALLER DUP4 PUSH2 0x1A75 JUMP JUMPDEST SWAP1 POP PUSH1 0x0 DUP2 GT PUSH2 0x2960 JUMPI PUSH1 0x0 DUP1 REVERT JUMPDEST PUSH1 0x40 MLOAD PUSH4 0xA9059CBB PUSH1 0xE0 SHL DUP2 MSTORE PUSH1 0x1 PUSH1 0x1 PUSH1 0xA0 SHL SUB DUP4 AND SWAP1 PUSH4 0xA9059CBB SWAP1 PUSH2 0x298E SWAP1 CALLER SWAP1 DUP6 SWAP1 PUSH1 0x4 ADD PUSH2 0x37E6 JUMP JUMPDEST PUSH1 0x20 PUSH1 0x40 MLOAD DUP1 DUP4 SUB DUP2 PUSH1 0x0 DUP8 GAS CALL ISZERO DUP1 ISZERO PUSH2 0x29AD JUMPI RETURNDATASIZE PUSH1 0x0 DUP1 RETURNDATACOPY RETURNDATASIZE PUSH1 0x0 REVERT JUMPDEST POP POP POP POP PUSH1 0x40 MLOAD RETURNDATASIZE PUSH1 0x1F NOT PUSH1 0x1F DUP3 ADD AND DUP3 ADD DUP1 PUSH1 0x40 MSTORE POP DUP2 ADD SWAP1 PUSH2 0x29D1 SWAP2 SWAP1 PUSH2 0x3781 JUMP JUMPDEST POP POP CALLER PUSH1 0x0 SWAP1 DUP2 MSTORE PUSH1 0x4 PUSH1 0x20 SWAP1 DUP2 MSTORE PUSH1 0x40 DUP1 DUP4 KECCAK256 DUP4 SWAP1 SSTORE PUSH1 0x3 SWAP1 SWAP2 MSTORE SWAP1 KECCAK256 TIMESTAMP SWAP1 SSTORE POP JUMP JUMPDEST PUSH1 0x0 DUP1 PUSH1 0x1B PUSH1 0x0 SWAP1 SLOAD SWAP1 PUSH2 0x100 EXP SWAP1 DIV PUSH1 0x1 PUSH1 0x1 PUSH1 0xA0 SHL SUB AND PUSH1 0x1 PUSH1 0x1 PUSH1 0xA0 SHL SUB AND PUSH4 0xFEAF968C PUSH1 0x40 MLOAD DUP2 PUSH4 0xFFFFFFFF AND PUSH1 0xE0 SHL DUP2 MSTORE PUSH1 0x4 ADD PUSH1 0xA0 PUSH1 0x40 MLOAD DUP1 DUP4 SUB DUP2 DUP7 GAS STATICCALL ISZERO DUP1 ISZERO PUSH2 0x2A4B JUMPI RETURNDATASIZE PUSH1 0x0 DUP1 RETURNDATACOPY RETURNDATASIZE PUSH1 0x0 REVERT JUMPDEST POP POP POP POP PUSH1 0x40 MLOAD RETURNDATASIZE PUSH1 0x1F NOT PUSH1 0x1F DUP3 ADD AND DUP3 ADD DUP1 PUSH1 0x40 MSTORE POP DUP2 ADD SWAP1 PUSH2 0x2A6F SWAP2 SWAP1 PUSH2 0x393A JUMP JUMPDEST POP POP POP SWAP2 POP POP DUP1 PUSH5 0x2540BE400 PUSH2 0x2A86 SWAP2 SWAP1 PUSH2 0x398A JUMP JUMPDEST SWAP2 POP POP SWAP1 JUMP JUMPDEST PUSH1 0x0 SLOAD PUSH1 0x1 PUSH1 0x1 PUSH1 0xA0 SHL SUB AND CALLER EQ PUSH2 0x2AB6 JUMPI PUSH1 0x40 MLOAD PUSH3 0x461BCD PUSH1 0xE5 SHL DUP2 MSTORE PUSH1 0x4 ADD PUSH2 0xB3A SWAP1 PUSH2 0x3687 JUMP JUMPDEST PUSH1 0x65 PUSH1 0x17 SLOAD GT ISZERO PUSH2 0x2AC6 JUMPI PUSH1 0x0 DUP1 REVERT JUMPDEST PUSH1 0x65 DUP2 PUSH1 0x17 SLOAD PUSH2 0x2AD6 SWAP2 SWAP1 PUSH2 0x379E JUMP JUMPDEST GT ISZERO PUSH2 0x2AE1 JUMPI PUSH1 0x0 DUP1 REVERT JUMPDEST DUP1 PUSH1 0x17 SLOAD PUSH2 0x2AEF SWAP2 SWAP1 PUSH2 0x379E JUMP JUMPDEST PUSH1 0x17 SSTORE POP JUMP JUMPDEST PUSH1 0x0 SLOAD PUSH1 0x1 PUSH1 0x1 PUSH1 0xA0 SHL SUB AND CALLER EQ PUSH2 0x2B1F JUMPI PUSH1 0x40 MLOAD PUSH3 0x461BCD PUSH1 0xE5 SHL DUP2 MSTORE PUSH1 0x4 ADD PUSH2 0xB3A SWAP1 PUSH2 0x3687 JUMP JUMPDEST PUSH1 0x0 SWAP2 DUP3 MSTORE PUSH1 0x1F PUSH1 0x20 MSTORE PUSH1 0x40 SWAP1 SWAP2 KECCAK256 DUP1 SLOAD PUSH1 0xFF NOT AND SWAP2 ISZERO ISZERO SWAP2 SWAP1 SWAP2 OR SWAP1 SSTORE JUMP JUMPDEST PUSH1 0x1 PUSH1 0x1 PUSH1 0xA0 SHL SUB DUP2 AND PUSH1 0x0 SWAP1 DUP2 MSTORE PUSH1 0x7 PUSH1 0x20 MSTORE PUSH1 0x40 DUP2 KECCAK256 SLOAD DUP2 SWAP1 PUSH2 0x2B9A JUMPI PUSH1 0x40 MLOAD PUSH3 0x461BCD PUSH1 0xE5 SHL DUP2 MSTORE PUSH1 0x20 PUSH1 0x4 DUP3 ADD MSTORE PUSH1 0x11 PUSH1 0x24 DUP3 ADD MSTORE PUSH17 0x4E6F20746F6B656E73207374616B656421 PUSH1 0x78 SHL PUSH1 0x44 DUP3 ADD MSTORE PUSH1 0x64 ADD PUSH2 0xB3A JUMP JUMPDEST PUSH1 0x0 JUMPDEST PUSH1 0xD SLOAD DUP2 LT ISZERO PUSH2 0x2BF6 JUMPI PUSH2 0x2BD8 DUP5 PUSH1 0xD DUP4 DUP2 SLOAD DUP2 LT PUSH2 0x2BBE JUMPI PUSH2 0x2BBE PUSH2 0x38EF JUMP JUMPDEST PUSH1 0x0 SWAP2 DUP3 MSTORE PUSH1 0x20 SWAP1 SWAP2 KECCAK256 ADD SLOAD PUSH1 0x1 PUSH1 0x1 PUSH1 0xA0 SHL SUB AND PUSH2 0xF8C JUMP JUMPDEST PUSH2 0x2BE2 SWAP1 DUP4 PUSH2 0x379E JUMP JUMPDEST SWAP2 POP DUP1 PUSH2 0x2BEE DUP2 PUSH2 0x3905 JUMP JUMPDEST SWAP2 POP POP PUSH2 0x2B9D JUMP JUMPDEST POP SWAP3 SWAP2 POP POP JUMP JUMPDEST PUSH1 0x0 DUP1 JUMPDEST PUSH1 0x1A SLOAD DUP2 LT ISZERO PUSH2 0x2C5E JUMPI DUP3 PUSH1 0x1 PUSH1 0x1 PUSH1 0xA0 SHL SUB AND PUSH1 0x1A DUP3 DUP2 SLOAD DUP2 LT PUSH2 0x2C28 JUMPI PUSH2 0x2C28 PUSH2 0x38EF JUMP JUMPDEST PUSH1 0x0 SWAP2 DUP3 MSTORE PUSH1 0x20 SWAP1 SWAP2 KECCAK256 ADD SLOAD PUSH1 0x1 PUSH1 0x1 PUSH1 0xA0 SHL SUB AND EQ ISZERO PUSH2 0x2C4C JUMPI POP PUSH1 0x1 SWAP3 SWAP2 POP POP JUMP JUMPDEST DUP1 PUSH2 0x2C56 DUP2 PUSH2 0x3905 JUMP JUMPDEST SWAP2 POP POP PUSH2 0x2C01 JUMP JUMPDEST POP PUSH1 0x0 SWAP3 SWAP2 POP POP JUMP JUMPDEST PUSH1 0x1 PUSH1 0x1 PUSH1 0xA0 SHL SUB DUP2 AND PUSH1 0x0 SWAP1 DUP2 MSTORE PUSH1 0x2 PUSH1 0x20 SWAP1 DUP2 MSTORE PUSH1 0x40 DUP1 DUP4 KECCAK256 CALLER DUP5 MSTORE SWAP1 SWAP2 MSTORE SWAP1 KECCAK256 SLOAD DUP1 PUSH2 0x2CD8 JUMPI PUSH1 0x40 MLOAD PUSH3 0x461BCD PUSH1 0xE5 SHL DUP2 MSTORE PUSH1 0x20 PUSH1 0x4 DUP3 ADD MSTORE PUSH1 0x1B PUSH1 0x24 DUP3 ADD MSTORE PUSH32 0x5374616B696E672062616C616E63652063616E6E6F7420626520300000000000 PUSH1 0x44 DUP3 ADD MSTORE PUSH1 0x64 ADD PUSH2 0xB3A JUMP JUMPDEST PUSH2 0x2CE1 DUP3 PUSH2 0x2FDF JUMP JUMPDEST PUSH2 0x2CFD JUMPI PUSH1 0x40 MLOAD PUSH3 0x461BCD PUSH1 0xE5 SHL DUP2 MSTORE PUSH1 0x4 ADD PUSH2 0xB3A SWAP1 PUSH2 0x374A JUMP JUMPDEST CALLER PUSH1 0x0 SWAP1 DUP2 MSTORE PUSH1 0x5 PUSH1 0x20 MSTORE PUSH1 0x40 SWAP1 KECCAK256 SLOAD TIMESTAMP SWAP1 PUSH2 0x2D1C SWAP1 PUSH3 0x49D400 PUSH2 0x379E JUMP JUMPDEST DUP2 LT ISZERO PUSH2 0x2E6A JUMPI CALLER PUSH1 0x0 SWAP1 DUP2 MSTORE PUSH1 0x5 PUSH1 0x20 MSTORE PUSH1 0x40 SWAP1 KECCAK256 SLOAD PUSH2 0x2D40 SWAP1 PUSH3 0x375F00 PUSH2 0x379E JUMP JUMPDEST DUP2 LT ISZERO PUSH2 0x2E5B JUMPI CALLER PUSH1 0x0 SWAP1 DUP2 MSTORE PUSH1 0x5 PUSH1 0x20 MSTORE PUSH1 0x40 SWAP1 KECCAK256 SLOAD PUSH2 0x2D64 SWAP1 PUSH3 0x24EA00 PUSH2 0x379E JUMP JUMPDEST DUP2 LT ISZERO PUSH2 0x2E4C JUMPI CALLER PUSH1 0x0 SWAP1 DUP2 MSTORE PUSH1 0x5 PUSH1 0x20 MSTORE PUSH1 0x40 SWAP1 KECCAK256 SLOAD PUSH2 0x2D88 SWAP1 PUSH3 0x127500 PUSH2 0x379E JUMP JUMPDEST DUP2 LT ISZERO PUSH2 0x2E3D JUMPI PUSH1 0x0 PUSH1 0x64 PUSH2 0x2D9E DUP5 PUSH1 0x4B PUSH2 0x36D2 JUMP JUMPDEST PUSH2 0x2DA8 SWAP2 SWAP1 PUSH2 0x36F1 JUMP JUMPDEST PUSH1 0x40 MLOAD PUSH4 0xA9059CBB PUSH1 0xE0 SHL DUP2 MSTORE SWAP1 SWAP2 POP PUSH1 0x1 PUSH1 0x1 PUSH1 0xA0 SHL SUB DUP6 AND SWAP1 PUSH4 0xA9059CBB SWAP1 PUSH2 0x2DD9 SWAP1 CALLER SWAP1 DUP6 SWAP1 PUSH1 0x4 ADD PUSH2 0x37E6 JUMP JUMPDEST PUSH1 0x20 PUSH1 0x40 MLOAD DUP1 DUP4 SUB DUP2 PUSH1 0x0 DUP8 GAS CALL ISZERO DUP1 ISZERO PUSH2 0x2DF8 JUMPI RETURNDATASIZE PUSH1 0x0 DUP1 RETURNDATACOPY RETURNDATASIZE PUSH1 0x0 REVERT JUMPDEST POP POP POP POP PUSH1 0x40 MLOAD RETURNDATASIZE PUSH1 0x1F NOT PUSH1 0x1F DUP3 ADD AND DUP3 ADD DUP1 PUSH1 0x40 MSTORE POP DUP2 ADD SWAP1 PUSH2 0x2E1C SWAP2 SWAP1 PUSH2 0x3781 JUMP JUMPDEST POP PUSH2 0x2E27 DUP2 DUP5 PUSH2 0x37CF JUMP JUMPDEST PUSH1 0x6 SLOAD PUSH2 0x2E34 SWAP2 SWAP1 PUSH2 0x379E JUMP JUMPDEST PUSH1 0x6 SSTORE POP PUSH2 0x2EDD JUMP JUMPDEST PUSH1 0x0 PUSH1 0x64 PUSH2 0x2D9E DUP5 PUSH1 0x55 PUSH2 0x36D2 JUMP JUMPDEST PUSH1 0x0 PUSH1 0x64 PUSH2 0x2D9E DUP5 PUSH1 0x5A PUSH2 0x36D2 JUMP JUMPDEST PUSH1 0x0 PUSH1 0x64 PUSH2 0x2D9E DUP5 PUSH1 0x5F PUSH2 0x36D2 JUMP JUMPDEST PUSH1 0x40 MLOAD PUSH4 0xA9059CBB PUSH1 0xE0 SHL DUP2 MSTORE PUSH1 0x1 PUSH1 0x1 PUSH1 0xA0 SHL SUB DUP5 AND SWAP1 PUSH4 0xA9059CBB SWAP1 PUSH2 0x2E98 SWAP1 CALLER SWAP1 DUP7 SWAP1 PUSH1 0x4 ADD PUSH2 0x37E6 JUMP JUMPDEST PUSH1 0x20 PUSH1 0x40 MLOAD DUP1 DUP4 SUB DUP2 PUSH1 0x0 DUP8 GAS CALL ISZERO DUP1 ISZERO PUSH2 0x2EB7 JUMPI RETURNDATASIZE PUSH1 0x0 DUP1 RETURNDATACOPY RETURNDATASIZE PUSH1 0x0 REVERT JUMPDEST POP POP POP POP PUSH1 0x40 MLOAD RETURNDATASIZE PUSH1 0x1F NOT PUSH1 0x1F DUP3 ADD AND DUP3 ADD DUP1 PUSH1 0x40 MSTORE POP DUP2 ADD SWAP1 PUSH2 0x2EDB SWAP2 SWAP1 PUSH2 0x3781 JUMP JUMPDEST POP JUMPDEST PUSH2 0x2EE7 CALLER DUP5 PUSH2 0x1A75 JUMP JUMPDEST CALLER PUSH1 0x0 SWAP1 DUP2 MSTORE PUSH1 0x4 PUSH1 0x20 SWAP1 DUP2 MSTORE PUSH1 0x40 DUP1 DUP4 KECCAK256 SWAP4 SWAP1 SWAP4 SSTORE PUSH1 0x3 SWAP1 MSTORE KECCAK256 TIMESTAMP SWAP1 SSTORE PUSH1 0xB SLOAD PUSH2 0x2F13 SWAP1 DUP4 SWAP1 PUSH2 0x37CF JUMP JUMPDEST PUSH1 0xB SSTORE PUSH1 0x1 PUSH1 0x1 PUSH1 0xA0 SHL SUB DUP4 AND PUSH1 0x0 SWAP1 DUP2 MSTORE PUSH1 0x2 PUSH1 0x20 SWAP1 DUP2 MSTORE PUSH1 0x40 DUP1 DUP4 KECCAK256 CALLER DUP5 MSTORE DUP3 MSTORE DUP1 DUP4 KECCAK256 DUP4 SWAP1 SSTORE PUSH1 0x7 SWAP1 SWAP2 MSTORE SWAP1 KECCAK256 SLOAD PUSH2 0x2F50 SWAP1 PUSH1 0x1 SWAP1 PUSH2 0x37CF JUMP JUMPDEST CALLER PUSH1 0x0 SWAP1 DUP2 MSTORE PUSH1 0x7 PUSH1 0x20 MSTORE PUSH1 0x40 SWAP1 KECCAK256 SSTORE PUSH1 0xA SLOAD PUSH2 0x2F6F SWAP1 PUSH1 0x1 SWAP1 PUSH2 0x37CF JUMP JUMPDEST PUSH1 0xA SSTORE POP POP POP JUMP JUMPDEST PUSH1 0x0 SLOAD PUSH1 0x1 PUSH1 0x1 PUSH1 0xA0 SHL SUB AND CALLER EQ PUSH2 0x2FA1 JUMPI PUSH1 0x40 MLOAD PUSH3 0x461BCD PUSH1 0xE5 SHL DUP2 MSTORE PUSH1 0x4 ADD PUSH2 0xB3A SWAP1 PUSH2 0x3687 JUMP JUMPDEST PUSH1 0x40 MLOAD PUSH4 0xA9059CBB PUSH1 0xE0 SHL DUP2 MSTORE PUSH1 0x1 PUSH1 0x1 PUSH1 0xA0 SHL SUB DUP4 AND SWAP1 PUSH4 0xA9059CBB SWAP1 PUSH2 0x18A0 SWAP1 CALLER SWAP1 DUP6 SWAP1 PUSH1 0x4 ADD PUSH2 0x37E6 JUMP JUMPDEST PUSH1 0x9 DUP2 DUP2 SLOAD DUP2 LT PUSH2 0x1023 JUMPI PUSH1 0x0 DUP1 REVERT JUMPDEST PUSH1 0x0 DUP1 JUMPDEST PUSH1 0xD SLOAD DUP2 LT ISZERO PUSH2 0x2C5E JUMPI DUP3 PUSH1 0x1 PUSH1 0x1 PUSH1 0xA0 SHL SUB AND PUSH1 0xD DUP3 DUP2 SLOAD DUP2 LT PUSH2 0x300A JUMPI PUSH2 0x300A PUSH2 0x38EF JUMP JUMPDEST PUSH1 0x0 SWAP2 DUP3 MSTORE PUSH1 0x20 SWAP1 SWAP2 KECCAK256 ADD SLOAD PUSH1 0x1 PUSH1 0x1 PUSH1 0xA0 SHL SUB AND EQ ISZERO PUSH2 0x302E JUMPI POP PUSH1 0x1 SWAP3 SWAP2 POP POP JUMP JUMPDEST DUP1 PUSH2 0x3038 DUP2 PUSH2 0x3905 JUMP JUMPDEST SWAP2 POP POP PUSH2 0x2FE3 JUMP JUMPDEST PUSH1 0x0 DUP1 SLOAD PUSH1 0x1 PUSH1 0x1 PUSH1 0xA0 SHL SUB AND CALLER EQ PUSH2 0x306B JUMPI PUSH1 0x40 MLOAD PUSH3 0x461BCD PUSH1 0xE5 SHL DUP2 MSTORE PUSH1 0x4 ADD PUSH2 0xB3A SWAP1 PUSH2 0x3687 JUMP JUMPDEST PUSH1 0x40 MLOAD PUSH4 0x70A08231 PUSH1 0xE0 SHL DUP2 MSTORE ADDRESS PUSH1 0x4 DUP3 ADD MSTORE PUSH1 0x1 PUSH1 0x1 PUSH1 0xA0 SHL SUB DUP4 AND SWAP1 PUSH4 0x70A08231 SWAP1 PUSH1 0x24 ADD PUSH1 0x20 PUSH1 0x40 MLOAD DUP1 DUP4 SUB DUP2 DUP7 GAS STATICCALL ISZERO DUP1 ISZERO PUSH2 0x30AF JUMPI RETURNDATASIZE PUSH1 0x0 DUP1 RETURNDATACOPY RETURNDATASIZE PUSH1 0x0 REVERT JUMPDEST POP POP POP POP PUSH1 0x40 MLOAD RETURNDATASIZE PUSH1 0x1F NOT PUSH1 0x1F DUP3 ADD AND DUP3 ADD DUP1 PUSH1 0x40 MSTORE POP DUP2 ADD SWAP1 PUSH2 0x30D3 SWAP2 SWAP1 PUSH2 0x37B6 JUMP JUMPDEST PUSH1 0x1D DUP2 SWAP1 SSTORE SWAP1 POP JUMPDEST SWAP2 SWAP1 POP JUMP JUMPDEST PUSH1 0x0 DUP2 DUP2 MSTORE PUSH1 0x25 PUSH1 0x20 MSTORE PUSH1 0x40 DUP2 KECCAK256 SLOAD PUSH1 0xFF AND ISZERO ISZERO PUSH1 0x1 EQ PUSH2 0x3100 JUMPI PUSH1 0x0 DUP1 REVERT JUMPDEST PUSH1 0x0 PUSH1 0x24 SLOAD GT PUSH2 0x310F JUMPI PUSH1 0x0 DUP1 REVERT JUMPDEST PUSH1 0x1 JUMPDEST PUSH1 0x1D DUP2 LT ISZERO PUSH2 0x3165 JUMPI PUSH1 0x0 DUP2 DUP2 MSTORE PUSH1 0x21 PUSH1 0x20 SWAP1 DUP2 MSTORE PUSH1 0x40 DUP1 DUP4 KECCAK256 SLOAD PUSH1 0x1E SWAP1 SWAP3 MSTORE DUP3 KECCAK256 SLOAD PUSH2 0x313F SWAP2 SWAP1 PUSH2 0x36D2 JUMP JUMPDEST SWAP1 POP DUP1 PUSH1 0x26 SLOAD PUSH2 0x314F SWAP2 SWAP1 PUSH2 0x379E JUMP JUMPDEST PUSH1 0x26 SSTORE POP DUP1 PUSH2 0x315D DUP2 PUSH2 0x3905 JUMP JUMPDEST SWAP2 POP POP PUSH2 0x3112 JUMP JUMPDEST POP PUSH1 0x26 SLOAD PUSH1 0x24 SLOAD PUSH2 0x3176 SWAP2 SWAP1 PUSH2 0x36F1 JUMP JUMPDEST PUSH1 0x27 SSTORE PUSH1 0x0 PUSH2 0x3185 DUP6 DUP6 PUSH2 0x1AA5 JUMP JUMPDEST PUSH1 0x0 DUP2 DUP2 MSTORE PUSH1 0x21 PUSH1 0x20 MSTORE PUSH1 0x40 SWAP1 KECCAK256 SLOAD PUSH1 0x29 DUP2 SWAP1 SSTORE PUSH1 0x27 SLOAD SWAP2 SWAP3 POP SWAP1 PUSH2 0x31AA DUP3 DUP5 PUSH2 0x36D2 JUMP JUMPDEST PUSH2 0x31B4 SWAP2 SWAP1 PUSH2 0x36D2 JUMP JUMPDEST PUSH2 0x31BE SWAP2 SWAP1 PUSH2 0x36F1 JUMP JUMPDEST PUSH1 0x28 DUP2 SWAP1 SSTORE SWAP6 SWAP5 POP POP POP POP POP JUMP JUMPDEST PUSH1 0x19 DUP2 DUP2 SLOAD DUP2 LT PUSH2 0x1023 JUMPI PUSH1 0x0 DUP1 REVERT JUMPDEST PUSH1 0x1 PUSH1 0x1 PUSH1 0xA0 SHL SUB DUP1 DUP3 AND PUSH1 0x0 SWAP1 DUP2 MSTORE PUSH1 0x8 PUSH1 0x20 MSTORE PUSH1 0x40 DUP1 DUP3 KECCAK256 SLOAD DUP2 MLOAD PUSH4 0x3FABE5A3 PUSH1 0xE2 SHL DUP2 MSTORE SWAP2 MLOAD SWAP3 SWAP4 DUP5 SWAP4 SWAP2 AND SWAP2 DUP3 SWAP2 DUP5 SWAP2 DUP4 SWAP2 PUSH4 0xFEAF968C SWAP2 PUSH1 0x4 DUP1 DUP3 ADD SWAP3 PUSH1 0xA0 SWAP3 SWAP1 SWAP2 SWAP1 DUP3 SWAP1 SUB ADD DUP2 DUP7 GAS STATICCALL ISZERO DUP1 ISZERO PUSH2 0x323D JUMPI RETURNDATASIZE PUSH1 0x0 DUP1 RETURNDATACOPY RETURNDATASIZE PUSH1 0x0 REVERT JUMPDEST POP POP POP POP PUSH1 0x40 MLOAD RETURNDATASIZE PUSH1 0x1F NOT PUSH1 0x1F DUP3 ADD AND DUP3 ADD DUP1 PUSH1 0x40 MSTORE POP DUP2 ADD SWAP1 PUSH2 0x3261 SWAP2 SWAP1 PUSH2 0x393A JUMP JUMPDEST POP POP POP SWAP2 POP POP PUSH1 0x0 DUP3 PUSH1 0x1 PUSH1 0x1 PUSH1 0xA0 SHL SUB AND PUSH4 0x313CE567 PUSH1 0x40 MLOAD DUP2 PUSH4 0xFFFFFFFF AND PUSH1 0xE0 SHL DUP2 MSTORE PUSH1 0x4 ADD PUSH1 0x20 PUSH1 0x40 MLOAD DUP1 DUP4 SUB DUP2 DUP7 GAS STATICCALL ISZERO DUP1 ISZERO PUSH2 0x32A7 JUMPI RETURNDATASIZE PUSH1 0x0 DUP1 RETURNDATACOPY RETURNDATASIZE PUSH1 0x0 REVERT JUMPDEST POP POP POP POP PUSH1 0x40 MLOAD RETURNDATASIZE PUSH1 0x1F NOT PUSH1 0x1F DUP3 ADD AND DUP3 ADD DUP1 PUSH1 0x40 MSTORE POP DUP2 ADD SWAP1 PUSH2 0x32CB SWAP2 SWAP1 PUSH2 0x3A0F JUMP JUMPDEST SWAP2 SWAP8 PUSH1 0xFF SWAP1 SWAP3 AND SWAP7 POP SWAP1 SWAP5 POP POP POP POP POP JUMP JUMPDEST PUSH1 0x0 SLOAD PUSH1 0x1 PUSH1 0x1 PUSH1 0xA0 SHL SUB AND CALLER EQ PUSH2 0x3307 JUMPI PUSH1 0x40 MLOAD PUSH3 0x461BCD PUSH1 0xE5 SHL DUP2 MSTORE PUSH1 0x4 ADD PUSH2 0xB3A SWAP1 PUSH2 0x3687 JUMP JUMPDEST PUSH1 0x1 PUSH1 0x1 PUSH1 0xA0 SHL SUB DUP2 AND PUSH2 0x336C JUMPI PUSH1 0x40 MLOAD PUSH3 0x461BCD PUSH1 0xE5 SHL DUP2 MSTORE PUSH1 0x20 PUSH1 0x4 DUP3 ADD MSTORE PUSH1 0x26 PUSH1 0x24 DUP3 ADD MSTORE PUSH32 0x4F776E61626C653A206E6577206F776E657220697320746865207A65726F2061 PUSH1 0x44 DUP3 ADD MSTORE PUSH6 0x646472657373 PUSH1 0xD0 SHL PUSH1 0x64 DUP3 ADD MSTORE PUSH1 0x84 ADD PUSH2 0xB3A JUMP JUMPDEST PUSH2 0x1768 DUP2 PUSH2 0x34C9 JUMP JUMPDEST PUSH1 0x0 SLOAD PUSH1 0x1 PUSH1 0x1 PUSH1 0xA0 SHL SUB AND CALLER EQ PUSH2 0x339F JUMPI PUSH1 0x40 MLOAD PUSH3 0x461BCD PUSH1 0xE5 SHL DUP2 MSTORE PUSH1 0x4 ADD PUSH2 0xB3A SWAP1 PUSH2 0x3687 JUMP JUMPDEST PUSH1 0x24 SSTORE JUMP JUMPDEST PUSH1 0xC DUP2 DUP2 SLOAD DUP2 LT PUSH2 0x1023 JUMPI PUSH1 0x0 DUP1 REVERT JUMPDEST PUSH1 0x1 PUSH1 0x1 PUSH1 0xA0 SHL SUB DUP1 DUP3 AND PUSH1 0x0 SWAP1 DUP2 MSTORE PUSH1 0x2 PUSH1 0x20 SWAP1 DUP2 MSTORE PUSH1 0x40 DUP1 DUP4 KECCAK256 SWAP4 DUP7 AND DUP4 MSTORE SWAP3 SWAP1 MSTORE KECCAK256 SLOAD PUSH2 0xD47 JUMPI PUSH1 0x1 PUSH1 0x1 PUSH1 0xA0 SHL SUB DUP3 AND PUSH1 0x0 SWAP1 DUP2 MSTORE PUSH1 0x7 PUSH1 0x20 MSTORE PUSH1 0x40 SWAP1 KECCAK256 SLOAD PUSH2 0x3402 SWAP1 PUSH1 0x1 PUSH2 0x379E JUMP JUMPDEST PUSH1 0x1 PUSH1 0x1 PUSH1 0xA0 SHL SUB DUP4 AND PUSH1 0x0 SWAP1 DUP2 MSTORE PUSH1 0x7 PUSH1 0x20 MSTORE PUSH1 0x40 SWAP1 KECCAK256 SSTORE POP POP JUMP JUMPDEST PUSH1 0x1 PUSH1 0x1 PUSH1 0xA0 SHL SUB DUP1 DUP3 AND PUSH1 0x0 SWAP1 DUP2 MSTORE PUSH1 0x2 PUSH1 0x20 SWAP1 DUP2 MSTORE PUSH1 0x40 DUP1 DUP4 KECCAK256 SWAP4 DUP7 AND DUP4 MSTORE SWAP3 SWAP1 MSTORE KECCAK256 SLOAD PUSH2 0xD47 JUMPI PUSH1 0xA SLOAD PUSH2 0x3457 SWAP1 PUSH1 0x1 PUSH2 0x379E JUMP JUMPDEST PUSH1 0xA SSTORE POP POP JUMP JUMPDEST PUSH1 0x1 PUSH1 0x1 PUSH1 0xA0 SHL SUB DUP1 DUP3 AND PUSH1 0x0 SWAP1 DUP2 MSTORE PUSH1 0x10 PUSH1 0x20 SWAP1 DUP2 MSTORE PUSH1 0x40 DUP1 DUP4 KECCAK256 SWAP4 DUP7 AND DUP4 MSTORE SWAP3 SWAP1 MSTORE KECCAK256 SLOAD PUSH2 0xD47 JUMPI PUSH1 0x1 PUSH1 0x1 PUSH1 0xA0 SHL SUB DUP3 AND PUSH1 0x0 SWAP1 DUP2 MSTORE PUSH1 0x1C PUSH1 0x20 MSTORE PUSH1 0x40 SWAP1 KECCAK256 SLOAD PUSH2 0x34AC SWAP1 PUSH1 0x1 PUSH2 0x379E JUMP JUMPDEST PUSH1 0x1 PUSH1 0x1 PUSH1 0xA0 SHL SUB DUP4 AND PUSH1 0x0 SWAP1 DUP2 MSTORE PUSH1 0x1C PUSH1 0x20 MSTORE PUSH1 0x40 SWAP1 KECCAK256 SSTORE POP POP JUMP JUMPDEST PUSH1 0x0 DUP1 SLOAD PUSH1 0x1 PUSH1 0x1 PUSH1 0xA0 SHL SUB DUP4 DUP2 AND PUSH1 0x1 PUSH1 0x1 PUSH1 0xA0 SHL SUB NOT DUP4 AND DUP2 OR DUP5 SSTORE PUSH1 0x40 MLOAD SWAP2 SWAP1 SWAP3 AND SWAP3 DUP4 SWAP2 PUSH32 0x8BE0079C531659141344CD1FD0A4F28419497F9722A3DAAFE3B4186F6B6457E0 SWAP2 SWAP1 LOG3 POP POP JUMP JUMPDEST PUSH1 0x0 DUP1 PUSH1 0x40 DUP4 DUP6 SUB SLT ISZERO PUSH2 0x352C JUMPI PUSH1 0x0 DUP1 REVERT JUMPDEST POP POP DUP1 CALLDATALOAD SWAP3 PUSH1 0x20 SWAP1 SWAP2 ADD CALLDATALOAD SWAP2 POP JUMP JUMPDEST DUP1 CALLDATALOAD PUSH1 0x1 PUSH1 0x1 PUSH1 0xA0 SHL SUB DUP2 AND DUP2 EQ PUSH2 0x30DB JUMPI PUSH1 0x0 DUP1 REVERT JUMPDEST PUSH1 0x0 DUP1 PUSH1 0x40 DUP4 DUP6 SUB SLT ISZERO PUSH2 0x3565 JUMPI PUSH1 0x0 DUP1 REVERT JUMPDEST DUP3 CALLDATALOAD SWAP2 POP PUSH2 0x3575 PUSH1 0x20 DUP5 ADD PUSH2 0x353B JUMP JUMPDEST SWAP1 POP SWAP3 POP SWAP3 SWAP1 POP JUMP JUMPDEST PUSH1 0x0 PUSH1 0x20 DUP3 DUP5 SUB SLT ISZERO PUSH2 0x3590 JUMPI PUSH1 0x0 DUP1 REVERT JUMPDEST PUSH2 0x3599 DUP3 PUSH2 0x353B JUMP JUMPDEST SWAP4 SWAP3 POP POP POP JUMP JUMPDEST PUSH1 0x0 PUSH1 0x20 DUP3 DUP5 SUB SLT ISZERO PUSH2 0x35B2 JUMPI PUSH1 0x0 DUP1 REVERT JUMPDEST POP CALLDATALOAD SWAP2 SWAP1 POP JUMP JUMPDEST PUSH1 0x0 DUP1 PUSH1 0x40 DUP4 DUP6 SUB SLT ISZERO PUSH2 0x35CC JUMPI PUSH1 0x0 DUP1 REVERT JUMPDEST PUSH2 0x35D5 DUP4 PUSH2 0x353B JUMP JUMPDEST SWAP2 POP PUSH2 0x3575 PUSH1 0x20 DUP5 ADD PUSH2 0x353B JUMP JUMPDEST DUP1 ISZERO ISZERO DUP2 EQ PUSH2 0x1768 JUMPI PUSH1 0x0 DUP1 REVERT JUMPDEST PUSH1 0x0 DUP1 PUSH1 0x40 DUP4 DUP6 SUB SLT ISZERO PUSH2 0x3604 JUMPI PUSH1 0x0 DUP1 REVERT JUMPDEST DUP3 CALLDATALOAD SWAP2 POP PUSH1 0x20 DUP4 ADD CALLDATALOAD PUSH2 0x3616 DUP2 PUSH2 0x35E3 JUMP JUMPDEST DUP1 SWAP2 POP POP SWAP3 POP SWAP3 SWAP1 POP JUMP JUMPDEST PUSH1 0x0 DUP1 PUSH1 0x40 DUP4 DUP6 SUB SLT ISZERO PUSH2 0x3634 JUMPI PUSH1 0x0 DUP1 REVERT JUMPDEST PUSH2 0x363D DUP4 PUSH2 0x353B JUMP JUMPDEST SWAP5 PUSH1 0x20 SWAP4 SWAP1 SWAP4 ADD CALLDATALOAD SWAP4 POP POP POP JUMP JUMPDEST PUSH1 0x0 DUP1 PUSH1 0x0 PUSH1 0x60 DUP5 DUP7 SUB SLT ISZERO PUSH2 0x3660 JUMPI PUSH1 0x0 DUP1 REVERT JUMPDEST PUSH2 0x3669 DUP5 PUSH2 0x353B JUMP JUMPDEST SWAP3 POP PUSH2 0x3677 PUSH1 0x20 DUP6 ADD PUSH2 0x353B JUMP JUMPDEST SWAP2 POP PUSH1 0x40 DUP5 ADD CALLDATALOAD SWAP1 POP SWAP3 POP SWAP3 POP SWAP3 JUMP JUMPDEST PUSH1 0x20 DUP1 DUP3 MSTORE DUP2 DUP2 ADD MSTORE PUSH32 0x4F776E61626C653A2063616C6C6572206973206E6F7420746865206F776E6572 PUSH1 0x40 DUP3 ADD MSTORE PUSH1 0x60 ADD SWAP1 JUMP JUMPDEST PUSH4 0x4E487B71 PUSH1 0xE0 SHL PUSH1 0x0 MSTORE PUSH1 0x11 PUSH1 0x4 MSTORE PUSH1 0x24 PUSH1 0x0 REVERT JUMPDEST PUSH1 0x0 DUP2 PUSH1 0x0 NOT DIV DUP4 GT DUP3 ISZERO ISZERO AND ISZERO PUSH2 0x36EC JUMPI PUSH2 0x36EC PUSH2 0x36BC JUMP JUMPDEST POP MUL SWAP1 JUMP JUMPDEST PUSH1 0x0 DUP3 PUSH2 0x370E JUMPI PUSH4 0x4E487B71 PUSH1 0xE0 SHL PUSH1 0x0 MSTORE PUSH1 0x12 PUSH1 0x4 MSTORE PUSH1 0x24 PUSH1 0x0 REVERT JUMPDEST POP DIV SWAP1 JUMP JUMPDEST PUSH1 0x20 DUP1 DUP3 MSTORE PUSH1 0x1A SWAP1 DUP3 ADD MSTORE PUSH32 0x416D6F756E74206D757374206265206D6F7265207468616E2030000000000000 PUSH1 0x40 DUP3 ADD MSTORE PUSH1 0x60 ADD SWAP1 JUMP JUMPDEST PUSH1 0x20 DUP1 DUP3 MSTORE PUSH1 0x1E SWAP1 DUP3 ADD MSTORE PUSH32 0x546F6B656E2069732063757272656E746C79206E6F7420616C6C6F7765640000 PUSH1 0x40 DUP3 ADD MSTORE PUSH1 0x60 ADD SWAP1 JUMP JUMPDEST PUSH1 0x0 PUSH1 0x20 DUP3 DUP5 SUB SLT ISZERO PUSH2 0x3793 JUMPI PUSH1 0x0 DUP1 REVERT JUMPDEST DUP2 MLOAD PUSH2 0x3599 DUP2 PUSH2 0x35E3 JUMP JUMPDEST PUSH1 0x0 DUP3 NOT DUP3 GT ISZERO PUSH2 0x37B1 JUMPI PUSH2 0x37B1 PUSH2 0x36BC JUMP JUMPDEST POP ADD SWAP1 JUMP JUMPDEST PUSH1 0x0 PUSH1 0x20 DUP3 DUP5 SUB SLT ISZERO PUSH2 0x37C8 JUMPI PUSH1 0x0 DUP1 REVERT JUMPDEST POP MLOAD SWAP2 SWAP1 POP JUMP JUMPDEST PUSH1 0x0 DUP3 DUP3 LT ISZERO PUSH2 0x37E1 JUMPI PUSH2 0x37E1 PUSH2 0x36BC JUMP JUMPDEST POP SUB SWAP1 JUMP JUMPDEST PUSH1 0x1 PUSH1 0x1 PUSH1 0xA0 SHL SUB SWAP3 SWAP1 SWAP3 AND DUP3 MSTORE PUSH1 0x20 DUP3 ADD MSTORE PUSH1 0x40 ADD SWAP1 JUMP JUMPDEST PUSH1 0x1 DUP2 DUP2 JUMPDEST DUP1 DUP6 GT ISZERO PUSH2 0x383A JUMPI DUP2 PUSH1 0x0 NOT DIV DUP3 GT ISZERO PUSH2 0x3820 JUMPI PUSH2 0x3820 PUSH2 0x36BC JUMP JUMPDEST DUP1 DUP6 AND ISZERO PUSH2 0x382D JUMPI SWAP2 DUP2 MUL SWAP2 JUMPDEST SWAP4 DUP5 SHR SWAP4 SWAP1 DUP1 MUL SWAP1 PUSH2 0x3804 JUMP JUMPDEST POP SWAP3 POP SWAP3 SWAP1 POP JUMP JUMPDEST PUSH1 0x0 DUP3 PUSH2 0x3851 JUMPI POP PUSH1 0x1 PUSH2 0x100D JUMP JUMPDEST DUP2 PUSH2 0x385E JUMPI POP PUSH1 0x0 PUSH2 0x100D JUMP JUMPDEST DUP2 PUSH1 0x1 DUP2 EQ PUSH2 0x3874 JUMPI PUSH1 0x2 DUP2 EQ PUSH2 0x387E JUMPI PUSH2 0x389A JUMP JUMPDEST PUSH1 0x1 SWAP2 POP POP PUSH2 0x100D JUMP JUMPDEST PUSH1 0xFF DUP5 GT ISZERO PUSH2 0x388F JUMPI PUSH2 0x388F PUSH2 0x36BC JUMP JUMPDEST POP POP PUSH1 0x1 DUP3 SHL PUSH2 0x100D JUMP JUMPDEST POP PUSH1 0x20 DUP4 LT PUSH2 0x133 DUP4 LT AND PUSH1 0x4E DUP5 LT PUSH1 0xB DUP5 LT AND OR ISZERO PUSH2 0x38BD JUMPI POP DUP2 DUP2 EXP PUSH2 0x100D JUMP JUMPDEST PUSH2 0x38C7 DUP4 DUP4 PUSH2 0x37FF JUMP JUMPDEST DUP1 PUSH1 0x0 NOT DIV DUP3 GT ISZERO PUSH2 0x38DB JUMPI PUSH2 0x38DB PUSH2 0x36BC JUMP JUMPDEST MUL SWAP4 SWAP3 POP POP POP JUMP JUMPDEST PUSH1 0x0 PUSH2 0x3599 DUP4 DUP4 PUSH2 0x3842 JUMP JUMPDEST PUSH4 0x4E487B71 PUSH1 0xE0 SHL PUSH1 0x0 MSTORE PUSH1 0x32 PUSH1 0x4 MSTORE PUSH1 0x24 PUSH1 0x0 REVERT JUMPDEST PUSH1 0x0 PUSH1 0x0 NOT DUP3 EQ ISZERO PUSH2 0x3919 JUMPI PUSH2 0x3919 PUSH2 0x36BC JUMP JUMPDEST POP PUSH1 0x1 ADD SWAP1 JUMP JUMPDEST DUP1 MLOAD PUSH10 0xFFFFFFFFFFFFFFFFFFFF DUP2 AND DUP2 EQ PUSH2 0x30DB JUMPI PUSH1 0x0 DUP1 REVERT JUMPDEST PUSH1 0x0 DUP1 PUSH1 0x0 DUP1 PUSH1 0x0 PUSH1 0xA0 DUP7 DUP9 SUB SLT ISZERO PUSH2 0x3952 JUMPI PUSH1 0x0 DUP1 REVERT JUMPDEST PUSH2 0x395B DUP7 PUSH2 0x3920 JUMP JUMPDEST SWAP5 POP PUSH1 0x20 DUP7 ADD MLOAD SWAP4 POP PUSH1 0x40 DUP7 ADD MLOAD SWAP3 POP PUSH1 0x60 DUP7 ADD MLOAD SWAP2 POP PUSH2 0x397E PUSH1 0x80 DUP8 ADD PUSH2 0x3920 JUMP JUMPDEST SWAP1 POP SWAP3 SWAP6 POP SWAP3 SWAP6 SWAP1 SWAP4 POP JUMP JUMPDEST PUSH1 0x0 PUSH1 0x1 PUSH1 0x1 PUSH1 0xFF SHL SUB DUP2 DUP5 SGT DUP3 DUP5 SGT DUP1 DUP3 AND DUP7 DUP5 DIV DUP7 GT AND ISZERO PUSH2 0x39B0 JUMPI PUSH2 0x39B0 PUSH2 0x36BC JUMP JUMPDEST PUSH1 0x1 PUSH1 0xFF SHL PUSH1 0x0 DUP8 SLT DUP3 DUP2 AND DUP8 DUP4 SDIV DUP10 SLT AND ISZERO PUSH2 0x39CF JUMPI PUSH2 0x39CF PUSH2 0x36BC JUMP JUMPDEST PUSH1 0x0 DUP8 SLT SWAP3 POP DUP8 DUP3 SDIV DUP8 SLT DUP5 DUP5 AND AND ISZERO PUSH2 0x39EB JUMPI PUSH2 0x39EB PUSH2 0x36BC JUMP JUMPDEST DUP8 DUP6 SDIV DUP8 SLT DUP2 DUP5 AND AND ISZERO PUSH2 0x3A01 JUMPI PUSH2 0x3A01 PUSH2 0x36BC JUMP JUMPDEST POP POP POP SWAP3 SWAP1 SWAP4 MUL SWAP4 SWAP3 POP POP POP JUMP JUMPDEST PUSH1 0x0 PUSH1 0x20 DUP3 DUP5 SUB SLT ISZERO PUSH2 0x3A21 JUMPI PUSH1 0x0 DUP1 REVERT JUMPDEST DUP2 MLOAD PUSH1 0xFF DUP2 AND DUP2 EQ PUSH2 0x3599 JUMPI PUSH1 0x0 DUP1 REVERT INVALID LOG2 PUSH5 0x6970667358 0x22 SLT KECCAK256 ADD 0xB6 SSTORE RETURNDATACOPY MSTORE PUSH22 0x8E71F60AA617D6755981125E7CB17CB9F79893DE19CD 0x5D GAS SWAP13 0xE8 PUSH5 0x736F6C6343 STOP ADDMOD SIGNEXTEND STOP CALLER ","sha1":"3e10c957818ca1a64510f59f60854ee5ddc99166","source":"// SPDX-License-Identifier: MIT\npragma solidity ^0.8.0;\n\nimport \"@openzeppelin/contracts/access/Ownable.sol\";\nimport \"@openzeppelin/contracts/token/ERC20/IERC20.sol\";\nimport \"@openzeppelin/contracts/utils/math/SafeMath.sol\";\nimport \"@chainlink/contracts/src/v0.8/interfaces/AggregatorV3Interface.sol\";\n\ncontract TokenFarm is Ownable {\n    using SafeMath for uint256;\n\n    // mapping token address -> staker address -> amount\n    uint256 public APY = 10;\n\n    mapping(address => mapping(address => uint256)) public stakingBalance;\n    mapping(address => uint256) stakingTimeStamp;\n    mapping(address => uint256) stakingRewards;\n    mapping(address => uint256) public stakingTimeToWithdraw;\n    uint256 public amountPeopleLeftInWithdrawFees;\n\n    mapping(address => uint256) public uniqueTokensStaked;\n    mapping(address => address) public tokenPriceFeedMapping;\n    address[] public funders;\n    uint256 public uniqueTokenStakers;\n    uint256 public totalTokensStaked;\n\n    address[] public stakers;\n    address[] public allowedTokens;\n    IERC20 public dappToken;\n    IERC20 public preSaleTokenAddress;\n\n    // --------------------------------\n    // pre-sale amount Balance\n    // address public owner;\n    mapping(address => mapping(address => uint256)) public purchasedBalance;\n    mapping(address => uint256) public collectedPreSaleFunds;\n    mapping(address => uint256) public totalCollectionOfPreSaleFunds;\n    uint256 public totalCollectionOfPreSaleFundsAllTokens;\n\n    mapping(address => uint256) public totalPurchasedPreSaleTokens;\n    uint256 private TIMES;\n    // mapping(address => mapping(address => uint256))\n    //     public preSaleTokensAvailableToWithdraw;\n\n    mapping(address => uint256) public totalWithdrawnPreSaleTokens;\n\n    uint256 public percentageWithdrawAllowed;\n\n    // mapping(address => mapping(address => uint256))\n    //     public preSaleTokensLeftToWithdraw;\n\n    mapping(address => uint256) public addressToAmountFunded;\n    address[] public preSaleFunders;\n    address[] public preSaleAllowedTokens;\n    AggregatorV3Interface public priceFeedA;\n    mapping(address => uint256) public uniquePreSaleTokensStaked;\n    uint256 public singleTokenAllPreSaleBalance;\n\n    // Pre Sale Status and Allocation Round Variables\n\n    mapping(uint256 => uint256) public stakingLevelToWeight;\n    mapping(uint256 => bool) public preSaleNumberStatus;\n    uint256 baseNumberStakingLevel = 1500;\n    mapping(uint256 => uint256) public stakingLevelUserCounter;\n    mapping(address => bool) public preSaleParticipantsStatus;\n    mapping(address => uint256) public whenParticipatedThatLevel;\n    uint256 public totalAmountToCollectForThisPreSale;\n    mapping(uint256 => bool) public preSaleAllocationStatus;\n\n    constructor(address _dappTokenAddress, address _priceFeed) public {\n        dappToken = IERC20(_dappTokenAddress);\n        // owner = msg.sender;\n        priceFeedA = AggregatorV3Interface(_priceFeed);\n\n        stakingLevelToWeight[0] = 0;\n        stakingLevelToWeight[1] = 1;\n        stakingLevelToWeight[2] = 2;\n        stakingLevelToWeight[3] = 3;\n        stakingLevelToWeight[4] = 4;\n        stakingLevelToWeight[5] = 5;\n        stakingLevelToWeight[6] = 6;\n        stakingLevelToWeight[7] = 7;\n        stakingLevelToWeight[8] = 8;\n        stakingLevelToWeight[9] = 9;\n        stakingLevelToWeight[10] = 10;\n        stakingLevelToWeight[11] = 15;\n        stakingLevelToWeight[12] = 20;\n        stakingLevelToWeight[13] = 25;\n        stakingLevelToWeight[14] = 30;\n        stakingLevelToWeight[15] = 35;\n        stakingLevelToWeight[16] = 40;\n        stakingLevelToWeight[17] = 45;\n        stakingLevelToWeight[18] = 50;\n        stakingLevelToWeight[19] = 60;\n        stakingLevelToWeight[20] = 70;\n        stakingLevelToWeight[21] = 80;\n        stakingLevelToWeight[22] = 90;\n        stakingLevelToWeight[23] = 100;\n        stakingLevelToWeight[24] = 110;\n        stakingLevelToWeight[25] = 120;\n        stakingLevelToWeight[26] = 130;\n        stakingLevelToWeight[27] = 140;\n        stakingLevelToWeight[28] = 150;\n    }\n\n    //\n    // Pre Sale numbers and allocation per user\n    // -------------------------------\n    // Once the participant enters they wont be able to re-enter\n\n    function setTotalAmountToCollectForThisPreSale(uint256 _amount)\n        public\n        onlyOwner\n    {\n        totalAmountToCollectForThisPreSale = _amount;\n    }\n\n    function participateInPreSaleAllocation(\n        uint256 _preSaleNumber,\n        address _token\n    ) public {\n        require(preSaleNumberStatus[_preSaleNumber] == true);\n        require(stakingBalance[_token][msg.sender] >= (1500 * (10**18)));\n        require(getStakingLevel(msg.sender, _token) > 0);\n        require(preSaleParticipantsStatus[msg.sender] == false);\n\n        uint256 stakingLevel = getStakingLevel(msg.sender, _token);\n        stakingLevelUserCounter[stakingLevel] =\n            stakingLevelUserCounter[stakingLevel] +\n            1;\n        whenParticipatedThatLevel[msg.sender] = stakingLevel;\n    }\n\n    uint256 public allPoolsTotalWeight;\n    uint256 public amountAllocatedToEachShare;\n    uint256 public allocatedAmountToEachUser;\n    uint256 public staking_level_users_counter;\n\n    function getAllocatedPreSaleAmount(\n        address _sender,\n        address _token,\n        uint256 _preSaleNumber\n    ) public returns (uint256) {\n        require(preSaleAllocationStatus[_preSaleNumber] == true);\n        require(totalAmountToCollectForThisPreSale > 0);\n\n        // uint256 allPoolsTotalWeight;\n        for (uint256 i = 1; i < 29; i++) {\n            uint256 eachPoolTotalWeight;\n            eachPoolTotalWeight = (stakingLevelToWeight[i] *\n                stakingLevelUserCounter[i]);\n            allPoolsTotalWeight = allPoolsTotalWeight + eachPoolTotalWeight;\n        }\n        // uint256 amountAllocatedToEachShare;\n        amountAllocatedToEachShare = (totalAmountToCollectForThisPreSale /\n            allPoolsTotalWeight);\n\n        uint256 staking_level_of_sender = getStakingLevel(_sender, _token);\n        // uint256 staking_level_users_counter =\n        staking_level_users_counter = stakingLevelUserCounter[\n            staking_level_of_sender\n        ];\n\n        // uint256 allocatedAmountToEachUser;\n        allocatedAmountToEachUser = ((staking_level_of_sender *\n            staking_level_users_counter *\n            amountAllocatedToEachShare) / staking_level_users_counter);\n\n        return (allocatedAmountToEachUser);\n    }\n\n    function changeStakingLevelToWeight(uint256 _level, uint256 _weight)\n        public\n        onlyOwner\n    {\n        stakingLevelToWeight[_level] = _weight;\n    }\n\n    function changeBaseNumberStakingLevel(uint256 _number) public onlyOwner {\n        baseNumberStakingLevel = _number;\n    }\n\n    function setPreSaleAllocationStatus(uint256 _number, bool _status)\n        public\n        onlyOwner\n    {\n        preSaleAllocationStatus[_number] = _status;\n    }\n\n    function changePreSaleNumberStatus(uint256 _number, bool _status)\n        public\n        onlyOwner\n    {\n        preSaleNumberStatus[_number] = _status;\n    }\n\n    function getStakingLevel(address _sender, address _token)\n        public\n        view\n        returns (uint256)\n    {\n        uint256 stakingLevel = 0;\n        if (\n            stakingBalance[_token][_sender] >=\n            ((baseNumberStakingLevel * 150) * (10**18))\n        ) {\n            return stakingLevel = 28;\n        } else if (\n            stakingBalance[_token][_sender] >=\n            ((baseNumberStakingLevel * 140) * (10**18))\n        ) {\n            return stakingLevel = 27;\n        } else if (\n            stakingBalance[_token][_sender] >=\n            ((baseNumberStakingLevel * 130) * (10**18))\n        ) {\n            return stakingLevel = 26;\n        } else if (\n            stakingBalance[_token][_sender] >=\n            ((baseNumberStakingLevel * 120) * (10**18))\n        ) {\n            return stakingLevel = 25;\n        } else if (\n            stakingBalance[_token][_sender] >=\n            ((baseNumberStakingLevel * 110) * (10**18))\n        ) {\n            return stakingLevel = 24;\n        } else if (\n            stakingBalance[_token][_sender] >=\n            ((baseNumberStakingLevel * 100) * (10**18))\n        ) {\n            return stakingLevel = 23;\n        } else if (\n            stakingBalance[_token][_sender] >=\n            ((baseNumberStakingLevel * 90) * (10**18))\n        ) {\n            return stakingLevel = 22;\n        } else if (\n            stakingBalance[_token][_sender] >=\n            ((baseNumberStakingLevel * 80) * (10**18))\n        ) {\n            return stakingLevel = 21;\n        } else if (\n            stakingBalance[_token][_sender] >=\n            ((baseNumberStakingLevel * 70) * (10**18))\n        ) {\n            return stakingLevel = 20;\n        } else if (\n            stakingBalance[_token][_sender] >=\n            ((baseNumberStakingLevel * 60) * (10**18))\n        ) {\n            return stakingLevel = 19;\n        } else if (\n            stakingBalance[_token][_sender] >=\n            ((baseNumberStakingLevel * 50) * (10**18))\n        ) {\n            return stakingLevel = 18;\n        } else if (\n            stakingBalance[_token][_sender] >=\n            ((baseNumberStakingLevel * 45) * (10**18))\n        ) {\n            return stakingLevel = 17;\n        } else if (\n            stakingBalance[_token][_sender] >=\n            ((baseNumberStakingLevel * 40) * (10**18))\n        ) {\n            return stakingLevel = 16;\n        } else if (\n            stakingBalance[_token][_sender] >=\n            ((baseNumberStakingLevel * 35) * (10**18))\n        ) {\n            return stakingLevel = 15;\n        } else if (\n            stakingBalance[_token][_sender] >=\n            ((baseNumberStakingLevel * 30) * (10**18))\n        ) {\n            return stakingLevel = 14;\n        } else if (\n            stakingBalance[_token][_sender] >=\n            ((baseNumberStakingLevel * 25) * (10**18))\n        ) {\n            return stakingLevel = 13;\n        } else if (\n            stakingBalance[_token][_sender] >=\n            ((baseNumberStakingLevel * 20) * (10**18))\n        ) {\n            return stakingLevel = 12;\n        } else if (\n            stakingBalance[_token][_sender] >=\n            ((baseNumberStakingLevel * 15) * (10**18))\n        ) {\n            return stakingLevel = 11;\n        } else if (\n            stakingBalance[_token][_sender] >=\n            ((baseNumberStakingLevel * 10) * (10**18))\n        ) {\n            return stakingLevel = 10;\n        } else if (\n            stakingBalance[_token][_sender] >=\n            ((baseNumberStakingLevel * 9) * (10**18))\n        ) {\n            return stakingLevel = 9;\n        } else if (\n            stakingBalance[_token][_sender] >=\n            ((baseNumberStakingLevel * 8) * (10**18))\n        ) {\n            return stakingLevel = 8;\n        } else if (\n            stakingBalance[_token][_sender] >=\n            ((baseNumberStakingLevel * 7) * (10**18))\n        ) {\n            return stakingLevel = 7;\n        } else if (\n            stakingBalance[_token][_sender] >=\n            ((baseNumberStakingLevel * 6) * (10**18))\n        ) {\n            return stakingLevel = 6;\n        } else if (\n            stakingBalance[_token][_sender] >=\n            ((baseNumberStakingLevel * 5) * (10**18))\n        ) {\n            return stakingLevel = 5;\n        } else if (\n            stakingBalance[_token][_sender] >=\n            ((baseNumberStakingLevel * 4) * (10**18))\n        ) {\n            return stakingLevel = 4;\n        } else if (\n            stakingBalance[_token][_sender] >=\n            ((baseNumberStakingLevel * 3) * (10**18))\n        ) {\n            return stakingLevel = 3;\n        } else if (\n            stakingBalance[_token][_sender] >=\n            ((baseNumberStakingLevel * 2) * (10**18))\n        ) {\n            return stakingLevel = 2;\n        } else if (\n            stakingBalance[_token][_sender] >=\n            ((baseNumberStakingLevel * 1) * (10**18))\n        ) {\n            return stakingLevel = 1;\n        } else {\n            return stakingLevel = 0;\n        }\n    }\n\n    // ---------------------------------------\n\n    // -------------------------------\n    //    address[] public receivingAllowedTokens;\n\n    // stakeTokens - DONE!\n    // unStakeTokens - DONE\n    // issueTokens - DONE!\n    // addAllowedTokens - DONE!\n    // getEthValue - DONE!\n\n    // 100 ETH 1:1 for every 1 ETH, we give 1 DappToken\n    // 50 ETH and 50 DAI staked, and we want to give a reward of 1 DAPP / 1 DAI\n\n    function getVersion() public view returns (uint256) {\n        return priceFeedA.version();\n    }\n\n    function addPreSaleAllowedTokens(address _token) public onlyOwner {\n        preSaleAllowedTokens.push(_token);\n    }\n\n    function updateTimes(uint256 _times) public onlyOwner {\n        TIMES = _times;\n    }\n\n    function updatePreSaleTokenAddress(address _preSaleTokenAddress)\n        public\n        onlyOwner\n    {\n        preSaleTokenAddress = IERC20(_preSaleTokenAddress);\n    }\n\n    function preSaleFund(uint256 _amount, address _token) public {\n        // uint256 minimumUSD = 1 * (10**18);\n        // require(\n        //     getConversionRate(_amount) >= minimumUSD,\n        //     \"You need to spend more Eth!\"\n        // );\n        require(_amount > 0, \"Amount must be more than 0\");\n        require(\n            preSaleTokenIsAllowed(_token),\n            \"Token is currently not allowed\"\n        );\n        IERC20(_token).transferFrom(msg.sender, address(this), _amount);\n        singleTokenAllPreSaleBalance =\n            (IERC20(_token).balanceOf(address(this))) /\n            1000000000000000000;\n\n        updateUniquePreSaleTokensStaked(msg.sender, _token);\n        purchasedBalance[_token][msg.sender] =\n            purchasedBalance[_token][msg.sender] +\n            _amount;\n        totalPurchasedPreSaleTokens[msg.sender] =\n            totalPurchasedPreSaleTokens[msg.sender] +\n            (_amount * TIMES);\n\n        collectedPreSaleFunds[_token] = collectedPreSaleFunds[_token] + _amount;\n        totalCollectionOfPreSaleFunds[_token] =\n            totalCollectionOfPreSaleFunds[_token] +\n            _amount;\n        totalCollectionOfPreSaleFundsAllTokens =\n            totalCollectionOfPreSaleFundsAllTokens +\n            _amount;\n\n        if (uniquePreSaleTokensStaked[msg.sender] == 1) {\n            preSaleFunders.push(msg.sender);\n        }\n\n        // addressToAmountFunded[msg.sender] += msg.value;\n        // preSaleFunders.push(msg.sender);\n    }\n\n    function getSingleTokenAllPreSaleBalance(address _token)\n        public\n        onlyOwner\n        returns (uint256)\n    {\n        singleTokenAllPreSaleBalance = IERC20(_token).balanceOf(address(this));\n        return singleTokenAllPreSaleBalance;\n    }\n\n    function claimAllPreSaletokens() public {\n        uint256 totalPurchased = totalPurchasedPreSaleTokens[msg.sender];\n        uint256 totalWithdrawn = totalWithdrawnPreSaleTokens[msg.sender];\n        uint256 balance = (totalPurchased - totalWithdrawn);\n        uint256 allowedToWithdraw = (percentageWithdrawAllowed *\n            totalPurchased) / 100;\n        uint256 availableToWithdraw = (allowedToWithdraw - totalWithdrawn);\n\n        require(totalPurchased > 0);\n        require(availableToWithdraw > 0);\n        require(totalWithdrawn < totalPurchased);\n\n        IERC20(preSaleTokenAddress).transfer(msg.sender, availableToWithdraw);\n        totalWithdrawnPreSaleTokens[msg.sender] =\n            totalWithdrawnPreSaleTokens[msg.sender] +\n            availableToWithdraw;\n    }\n\n    function claimPreSaleTokens(uint256 _amount) public {\n        uint256 totalPurchased = totalPurchasedPreSaleTokens[msg.sender];\n        uint256 totalWithdrawn = totalWithdrawnPreSaleTokens[msg.sender];\n        uint256 balance = (totalPurchased - totalWithdrawn);\n        uint256 allowedToWithdraw = (percentageWithdrawAllowed *\n            totalPurchased) / 100;\n        uint256 availableToWithdraw = (allowedToWithdraw - totalWithdrawn);\n\n        require(availableToWithdraw > 0);\n        require(_amount <= availableToWithdraw);\n        require(totalWithdrawn < totalPurchased);\n        require(_amount > 0, \"Amount must be more than 0\");\n        require(\n            balance >= _amount,\n            \"You don't have enough purchased tokens left!\"\n        );\n        require((totalWithdrawn + _amount) < totalPurchased);\n\n        IERC20(preSaleTokenAddress).transfer(msg.sender, _amount);\n        totalWithdrawnPreSaleTokens[msg.sender] =\n            totalWithdrawnPreSaleTokens[msg.sender] +\n            _amount;\n\n        // Removing: preSaleTokensAvailableToWithdraw is a changing value when\n        // we update the percentageWithdrawAllowed it will change\n\n        // preSaleTokensAvailableToWithdraw[_token][msg.sender] =\n        //     availableToWithdraw -\n        //     _amount;\n    }\n\n    function issuePreSaleTokensToWithdrawPercentage(uint256 _percentageAmount)\n        public\n        onlyOwner\n    {\n        require(percentageWithdrawAllowed <= 101);\n        require((percentageWithdrawAllowed + _percentageAmount) <= 101);\n        percentageWithdrawAllowed =\n            percentageWithdrawAllowed +\n            _percentageAmount;\n    }\n\n    function getAvailablePreSaleTokensToWithdraw(\n        address _token,\n        address _sender\n    ) public view returns (uint256) {\n        uint256 totalPurchased = totalPurchasedPreSaleTokens[_sender];\n        uint256 totalWithdrawn = totalWithdrawnPreSaleTokens[_sender];\n        // uint256 balance = (totalPurchased - totalWithdrawn);\n        uint256 allowedToWithdraw = (percentageWithdrawAllowed *\n            totalPurchased) / 100;\n        uint256 availableToWithdraw = (allowedToWithdraw - totalWithdrawn);\n\n        // preSaleTokensLeftToWithdraw[_token][msg.sender] = availableToWithdraw;\n        return availableToWithdraw;\n    }\n\n    function withdrawPreSaleCollectedFund(address _token) public onlyOwner {\n        // uint256 balance = purchasedBalance[_token][msg.sender];\n        // uint256 balance = (IERC20(_token).balanceOf(address(this)));\n        uint256 collectedFunds = collectedPreSaleFunds[_token];\n        // require(balance > 0, \"Staking balance cannot be 0\");\n        IERC20(_token).transfer(msg.sender, collectedFunds);\n        singleTokenAllPreSaleBalance =\n            (IERC20(_token).balanceOf(address(this))) /\n            1000000000000000000;\n\n        collectedPreSaleFunds[_token] = 0;\n    }\n\n    function manageWithdrawOwnerFunds(address _token, uint256 _amount)\n        public\n        onlyOwner\n    {\n        IERC20(_token).transfer(msg.sender, _amount);\n    }\n\n    function manageDepositOwnerFunds(address _token, uint256 _amount)\n        public\n        onlyOwner\n    {\n        IERC20(_token).transferFrom(msg.sender, address(this), _amount);\n    }\n\n    // function stakeTokens(uint256 _amount, address _token) public {\n    //     // what tokens can they stake?\n    //     // how much can they stake?\n    //     require(_amount > 0, \"Amount must be more than 0\");\n    //     require(tokenIsAllowed(_token), \"Token is currently not allowed\");\n    //     // transferFrom\n    //     IERC20(_token).transferFrom(msg.sender, address(this), _amount);\n    //     updateUniqueTokensStaked(msg.sender, _token);\n    //     stakingBalance[_token][msg.sender] =\n    //         stakingBalance[_token][msg.sender] +\n    //         _amount;\n    //     if (uniqueTokensStaked[msg.sender] == 1) {\n    //         stakers.push(msg.sender);\n    //     }\n    // }\n\n    function preSaleTokenIsAllowed(address _token) public returns (bool) {\n        for (\n            uint256 preSaleAllowedTokensIndex = 0;\n            preSaleAllowedTokensIndex < preSaleAllowedTokens.length;\n            preSaleAllowedTokensIndex++\n        ) {\n            if (preSaleAllowedTokens[preSaleAllowedTokensIndex] == _token) {\n                return true;\n            }\n        }\n        return false;\n    }\n\n    function getConversionRate(uint256 ethAmount)\n        public\n        view\n        returns (uint256)\n    {\n        // use function \"getTokenValue()\" instead of \"getPrice()\"\n\n        uint256 ethPrice = getPrice();\n        uint256 ethAmountInUsd = (ethPrice * ethAmount) / 1000000000000000000;\n        return ethAmountInUsd;\n    }\n\n    function getPrice() public view returns (uint256) {\n        (, int256 answer, , , ) = priceFeedA.latestRoundData();\n        return uint256(answer * 10000000000);\n    }\n\n    function getEntranceFee() public view returns (uint256) {\n        //minimumUSD\n        uint256 minimumUSD = 50 * 10**18;\n        uint256 price = getPrice();\n        uint256 precision = 1 * 10**18;\n        return (minimumUSD * precision) / price;\n    }\n\n    function updateUniquePreSaleTokensStaked(address _user, address _token)\n        internal\n    {\n        if (purchasedBalance[_token][_user] <= 0) {\n            uniquePreSaleTokensStaked[_user] =\n                uniquePreSaleTokensStaked[_user] +\n                1;\n        }\n    }\n\n    // --------------------------------------------\n\n    function setPriceFeedContract(address _token, address _priceFeed)\n        public\n        onlyOwner\n    {\n        tokenPriceFeedMapping[_token] = _priceFeed;\n    }\n\n    function issueTokens() public onlyOwner {\n        // Issue tokens to all stakers\n        for (\n            uint256 stakersIndex = 0;\n            stakersIndex < stakers.length;\n            stakersIndex++\n        ) {\n            address recipient = stakers[stakersIndex];\n            uint256 userTotalValue = getUserTotalValue(recipient);\n            // send them a token reward\n            // based on their total value locked\n            // dappToken.transfer(recipient, )\n            dappToken.transfer(recipient, userTotalValue);\n        }\n    }\n\n    function getUserTotalValue(address _user) public view returns (uint256) {\n        uint256 totalValue = 0;\n        require(uniqueTokensStaked[_user] > 0, \"No tokens staked!\");\n        for (\n            uint256 allowedTokensIndex = 0;\n            allowedTokensIndex < allowedTokens.length;\n            allowedTokensIndex++\n        ) {\n            totalValue =\n                totalValue +\n                getUserSingleTokenValue(\n                    _user,\n                    allowedTokens[allowedTokensIndex]\n                );\n        }\n        return totalValue;\n    }\n\n    function getUserSingleTokenValue(address _user, address _token)\n        public\n        view\n        returns (uint256)\n    {\n        // if staked 1 ETH -> $2000\n        // 2000 dapp token\n        // if staked 200 DAI -> $200\n        // 200 dapp token\n        if (uniqueTokensStaked[_user] <= 0) {\n            return 0;\n        }\n        // price of the  token * stakingBalance[_token][_user]\n        (uint256 price, uint256 decimals) = getTokenValue(_token);\n        return // 10 ETH\n        // ETH/USD\n        ((stakingBalance[_token][_user] * price) / (10**decimals));\n    }\n\n    function getTokenValue(address _token)\n        public\n        view\n        returns (uint256, uint256)\n    {\n        // priceFeedAddress\n        address priceFeedAddress = tokenPriceFeedMapping[_token];\n        AggregatorV3Interface priceFeed = AggregatorV3Interface(\n            priceFeedAddress\n        );\n        (, int256 price, , , ) = priceFeed.latestRoundData();\n        uint256 decimals = uint256(priceFeed.decimals());\n        return (uint256(price), decimals);\n    }\n\n    function setAPY(uint256 _APY) public onlyOwner {\n        APY = _APY;\n    }\n\n    function calculateStakingRewards(address _user, address _token)\n        public\n        view\n        returns (uint256)\n    {\n        uint256 userTimeStamp = stakingTimeStamp[_user];\n        uint256 currentTime = block.timestamp;\n        uint256 userStakingBalance = stakingBalance[_token][_user];\n\n        uint256 totalRewardsPerYear = (APY * userStakingBalance) / 100;\n        uint256 totalRewardsPerMinute = totalRewardsPerYear / 525600;\n\n        uint256 stakedTimeInMinutes = ((currentTime - userTimeStamp) / 60);\n        uint256 rewards = stakedTimeInMinutes * totalRewardsPerMinute;\n\n        return rewards;\n    }\n\n    function getAvailableStakingRewards(address _sender, address _token)\n        public\n        view\n        returns (uint256)\n    {\n        uint256 totalRewards = (stakingRewards[_sender] +\n            calculateStakingRewards(_sender, _token));\n\n        return totalRewards;\n    }\n\n    function claimStakingRewards(address _token) public {\n        uint256 userTotalRewards = getAvailableStakingRewards(\n            msg.sender,\n            _token\n        );\n        require(userTotalRewards > 0);\n        IERC20(_token).transfer(msg.sender, userTotalRewards);\n        stakingRewards[msg.sender] = 0;\n        stakingTimeStamp[msg.sender] = block.timestamp;\n    }\n\n    function stakeTokens(uint256 _amount, address _token) public {\n        // what tokens can they stake?\n        // how much can they stake?\n        require(_amount > 0, \"Amount must be more than 0\");\n        require(tokenIsAllowed(_token), \"Token is currently not allowed\");\n        // transferFrom\n        IERC20(_token).transferFrom(msg.sender, address(this), _amount);\n        updateUniqueTokensStaked(msg.sender, _token);\n        updateUniqueTokenStakers(msg.sender, _token);\n        totalTokensStaked = totalTokensStaked + _amount;\n\n        stakingRewards[msg.sender] = getAvailableStakingRewards(\n            msg.sender,\n            _token\n        );\n\n        stakingTimeStamp[msg.sender] = block.timestamp;\n        stakingTimeToWithdraw[msg.sender] = block.timestamp;\n\n        stakingBalance[_token][msg.sender] =\n            stakingBalance[_token][msg.sender] +\n            _amount;\n\n        // stakingRewards[msg.sender] = (stakingRewards[msg.sender] +\n        //     calculateStakingRewards(msg.sender, _token));\n\n        if (uniqueTokensStaked[msg.sender] == 1) {\n            stakers.push(msg.sender);\n        }\n    }\n\n    function withdrawAmountPeopleLeftInWithdrawFees(address _token)\n        public\n        onlyOwner\n    {\n        IERC20(_token).transfer(msg.sender, amountPeopleLeftInWithdrawFees);\n        amountPeopleLeftInWithdrawFees = 0;\n    }\n\n    function unstakeTokens(uint256 _amount, address _token) public {\n        uint256 balance = stakingBalance[_token][msg.sender];\n        require(_amount > 0, \"Amount must be more than 0\");\n        require(balance >= _amount, \"You don't have enough staked tokens\");\n        require(tokenIsAllowed(_token), \"Token is currently not allowed\");\n\n        uint256 timeNow = block.timestamp;\n        if (timeNow < (stakingTimeToWithdraw[msg.sender] + 4838400)) {\n            if (timeNow < (stakingTimeToWithdraw[msg.sender] + 3628800)) {\n                if (timeNow < (stakingTimeToWithdraw[msg.sender] + 2419200)) {\n                    if (\n                        timeNow < (stakingTimeToWithdraw[msg.sender] + 1209600)\n                    ) {\n                        uint256 withdrawAmount = ((75 * _amount) / 100);\n                        IERC20(_token).transfer(msg.sender, withdrawAmount);\n\n                        amountPeopleLeftInWithdrawFees =\n                            amountPeopleLeftInWithdrawFees +\n                            (_amount - withdrawAmount);\n                    } else {\n                        uint256 withdrawAmount = ((85 * _amount) / 100);\n                        IERC20(_token).transfer(msg.sender, withdrawAmount);\n\n                        amountPeopleLeftInWithdrawFees =\n                            amountPeopleLeftInWithdrawFees +\n                            (_amount - withdrawAmount);\n                    }\n                } else {\n                    uint256 withdrawAmount = ((90 * _amount) / 100);\n                    IERC20(_token).transfer(msg.sender, withdrawAmount);\n\n                    amountPeopleLeftInWithdrawFees =\n                        amountPeopleLeftInWithdrawFees +\n                        (_amount - withdrawAmount);\n                }\n            } else {\n                uint256 withdrawAmount = ((95 * _amount) / 100);\n                IERC20(_token).transfer(msg.sender, withdrawAmount);\n\n                amountPeopleLeftInWithdrawFees =\n                    amountPeopleLeftInWithdrawFees +\n                    (_amount - withdrawAmount);\n            }\n        } else {\n            IERC20(_token).transfer(msg.sender, _amount);\n        }\n\n        stakingRewards[msg.sender] = getAvailableStakingRewards(\n            msg.sender,\n            _token\n        );\n\n        stakingTimeStamp[msg.sender] = block.timestamp;\n\n        stakingBalance[_token][msg.sender] = balance - _amount;\n\n        totalTokensStaked = totalTokensStaked - _amount;\n        if (stakingBalance[_token][msg.sender] <= 0) {\n            uniqueTokenStakers = uniqueTokenStakers - 1;\n            uniqueTokensStaked[msg.sender] = uniqueTokensStaked[msg.sender] - 1;\n        }\n        // if (uniqueTokensStaked[msg.sender] == 0) {\n        //     for (\n        //         uint256 stakersIndex = 0;\n        //         stakersIndex < stakers.length;\n        //         stakersIndex++\n        //     ) {\n        //         address recipient = stakers[stakersIndex];\n        //         if (msg.sender == recipient) {\n        //             // stakers.splice(stakersIndex, 1); this part is not working\n        //         }\n        //     }\n        // }\n    }\n\n    function unstakeAllTokens(address _token) public {\n        uint256 balance = stakingBalance[_token][msg.sender];\n        require(balance > 0, \"Staking balance cannot be 0\");\n        require(tokenIsAllowed(_token), \"Token is currently not allowed\");\n\n        // IERC20(_token).transfer(msg.sender, balance);\n\n        uint256 timeNow = block.timestamp;\n        if (timeNow < (stakingTimeToWithdraw[msg.sender] + 4838400)) {\n            if (timeNow < (stakingTimeToWithdraw[msg.sender] + 3628800)) {\n                if (timeNow < (stakingTimeToWithdraw[msg.sender] + 2419200)) {\n                    if (\n                        timeNow < (stakingTimeToWithdraw[msg.sender] + 1209600)\n                    ) {\n                        uint256 withdrawAmount = ((75 * balance) / 100);\n                        IERC20(_token).transfer(msg.sender, withdrawAmount);\n\n                        amountPeopleLeftInWithdrawFees =\n                            amountPeopleLeftInWithdrawFees +\n                            (balance - withdrawAmount);\n                    } else {\n                        uint256 withdrawAmount = ((85 * balance) / 100);\n                        IERC20(_token).transfer(msg.sender, withdrawAmount);\n\n                        amountPeopleLeftInWithdrawFees =\n                            amountPeopleLeftInWithdrawFees +\n                            (balance - withdrawAmount);\n                    }\n                } else {\n                    uint256 withdrawAmount = ((90 * balance) / 100);\n                    IERC20(_token).transfer(msg.sender, withdrawAmount);\n\n                    amountPeopleLeftInWithdrawFees =\n                        amountPeopleLeftInWithdrawFees +\n                        (balance - withdrawAmount);\n                }\n            } else {\n                uint256 withdrawAmount = ((95 * balance) / 100);\n                IERC20(_token).transfer(msg.sender, withdrawAmount);\n\n                amountPeopleLeftInWithdrawFees =\n                    amountPeopleLeftInWithdrawFees +\n                    (balance - withdrawAmount);\n            }\n        } else {\n            IERC20(_token).transfer(msg.sender, balance);\n        }\n        stakingRewards[msg.sender] = getAvailableStakingRewards(\n            msg.sender,\n            _token\n        );\n\n        stakingTimeStamp[msg.sender] = block.timestamp;\n\n        totalTokensStaked = totalTokensStaked - balance;\n        stakingBalance[_token][msg.sender] = 0;\n        uniqueTokensStaked[msg.sender] = uniqueTokensStaked[msg.sender] - 1;\n        uniqueTokenStakers = uniqueTokenStakers - 1;\n    }\n\n    function updateUniqueTokensStaked(address _user, address _token) internal {\n        if (stakingBalance[_token][_user] <= 0) {\n            uniqueTokensStaked[_user] = uniqueTokensStaked[_user] + 1;\n        }\n    }\n\n    function updateUniqueTokenStakers(address _user, address _token) internal {\n        if (stakingBalance[_token][_user] <= 0) {\n            uniqueTokenStakers = uniqueTokenStakers + 1;\n        }\n    }\n\n    function addAllowedTokens(address _token) public onlyOwner {\n        allowedTokens.push(_token);\n    }\n\n    function tokenIsAllowed(address _token) public returns (bool) {\n        for (\n            uint256 allowedTokensIndex = 0;\n            allowedTokensIndex < allowedTokens.length;\n            allowedTokensIndex++\n        ) {\n            if (allowedTokens[allowedTokensIndex] == _token) {\n                return true;\n            }\n        }\n        return false;\n    }\n}\n","sourcePath":"contracts/TokenFarm.sol","type":"contract","deployment":{"address":"0x93F3937A577d2324986a14B5C0C90Df186E23249","chainid":"97","blockHeight":17519611}}