{"abi":[{"inputs":[{"internalType":"address","name":"_dappTokenAddress","type":"address"},{"internalType":"address","name":"_priceFeed","type":"address"}],"stateMutability":"nonpayable","type":"constructor","name":"constructor"},{"anonymous":false,"inputs":[{"indexed":true,"internalType":"address","name":"previousOwner","type":"address"},{"indexed":true,"internalType":"address","name":"newOwner","type":"address"}],"name":"OwnershipTransferred","type":"event"},{"inputs":[],"name":"APY","outputs":[{"internalType":"uint256","name":"","type":"uint256"}],"stateMutability":"view","type":"function"},{"inputs":[{"internalType":"address","name":"_token","type":"address"}],"name":"addAllowedTokens","outputs":[],"stateMutability":"nonpayable","type":"function"},{"inputs":[{"internalType":"address","name":"_token","type":"address"}],"name":"addPreSaleAllowedTokens","outputs":[],"stateMutability":"nonpayable","type":"function"},{"inputs":[{"internalType":"address","name":"","type":"address"}],"name":"addressToAmountFunded","outputs":[{"internalType":"uint256","name":"","type":"uint256"}],"stateMutability":"view","type":"function"},{"inputs":[{"internalType":"uint256","name":"","type":"uint256"}],"name":"allowedTokens","outputs":[{"internalType":"address","name":"","type":"address"}],"stateMutability":"view","type":"function"},{"inputs":[],"name":"amountPeopleLeftInWithdrawFees","outputs":[{"internalType":"uint256","name":"","type":"uint256"}],"stateMutability":"view","type":"function"},{"inputs":[{"internalType":"address","name":"_user","type":"address"},{"internalType":"address","name":"_token","type":"address"}],"name":"calculateStakingRewards","outputs":[{"internalType":"uint256","name":"","type":"uint256"}],"stateMutability":"view","type":"function"},{"inputs":[{"internalType":"uint256","name":"_number","type":"uint256"}],"name":"changeBaseNumberStakingLevel","outputs":[],"stateMutability":"nonpayable","type":"function"},{"inputs":[{"internalType":"uint256","name":"_number","type":"uint256"},{"internalType":"bool","name":"_status","type":"bool"}],"name":"changePreSaleNumberStatus","outputs":[],"stateMutability":"nonpayable","type":"function"},{"inputs":[{"internalType":"uint256","name":"_level","type":"uint256"},{"internalType":"uint256","name":"_weight","type":"uint256"}],"name":"changeStakingLevelToWeight","outputs":[],"stateMutability":"nonpayable","type":"function"},{"inputs":[],"name":"claimAllPreSaletokens","outputs":[],"stateMutability":"nonpayable","type":"function"},{"inputs":[{"internalType":"uint256","name":"_amount","type":"uint256"}],"name":"claimPreSaleTokens","outputs":[],"stateMutability":"nonpayable","type":"function"},{"inputs":[{"internalType":"address","name":"_token","type":"address"}],"name":"claimStakingRewards","outputs":[],"stateMutability":"nonpayable","type":"function"},{"inputs":[{"internalType":"address","name":"","type":"address"}],"name":"collectedPreSaleFunds","outputs":[{"internalType":"uint256","name":"","type":"uint256"}],"stateMutability":"view","type":"function"},{"inputs":[],"name":"dappToken","outputs":[{"internalType":"contract IERC20","name":"","type":"address"}],"stateMutability":"view","type":"function"},{"inputs":[{"internalType":"uint256","name":"","type":"uint256"}],"name":"funders","outputs":[{"internalType":"address","name":"","type":"address"}],"stateMutability":"view","type":"function"},{"inputs":[{"internalType":"address","name":"_sender","type":"address"},{"internalType":"address","name":"_token","type":"address"},{"internalType":"uint256","name":"_preSaleNumber","type":"uint256"}],"name":"getAllocatedPreSaleAmount","outputs":[{"internalType":"uint256","name":"","type":"uint256"}],"stateMutability":"nonpayable","type":"function"},{"inputs":[{"internalType":"address","name":"_token","type":"address"},{"internalType":"address","name":"_sender","type":"address"}],"name":"getAvailablePreSaleTokensToWithdraw","outputs":[{"internalType":"uint256","name":"","type":"uint256"}],"stateMutability":"view","type":"function"},{"inputs":[{"internalType":"address","name":"_sender","type":"address"},{"internalType":"address","name":"_token","type":"address"}],"name":"getAvailableStakingRewards","outputs":[{"internalType":"uint256","name":"","type":"uint256"}],"stateMutability":"view","type":"function"},{"inputs":[{"internalType":"uint256","name":"ethAmount","type":"uint256"}],"name":"getConversionRate","outputs":[{"internalType":"uint256","name":"","type":"uint256"}],"stateMutability":"view","type":"function"},{"inputs":[],"name":"getEntranceFee","outputs":[{"internalType":"uint256","name":"","type":"uint256"}],"stateMutability":"view","type":"function"},{"inputs":[],"name":"getPrice","outputs":[{"internalType":"uint256","name":"","type":"uint256"}],"stateMutability":"view","type":"function"},{"inputs":[{"internalType":"address","name":"_token","type":"address"}],"name":"getSingleTokenAllPreSaleBalance","outputs":[{"internalType":"uint256","name":"","type":"uint256"}],"stateMutability":"nonpayable","type":"function"},{"inputs":[{"internalType":"address","name":"_sender","type":"address"},{"internalType":"address","name":"_token","type":"address"}],"name":"getStakingLevel","outputs":[{"internalType":"uint256","name":"","type":"uint256"}],"stateMutability":"view","type":"function"},{"inputs":[{"internalType":"address","name":"_token","type":"address"}],"name":"getTokenValue","outputs":[{"internalType":"uint256","name":"","type":"uint256"},{"internalType":"uint256","name":"","type":"uint256"}],"stateMutability":"view","type":"function"},{"inputs":[{"internalType":"address","name":"_user","type":"address"},{"internalType":"address","name":"_token","type":"address"}],"name":"getUserSingleTokenValue","outputs":[{"internalType":"uint256","name":"","type":"uint256"}],"stateMutability":"view","type":"function"},{"inputs":[{"internalType":"address","name":"_user","type":"address"}],"name":"getUserTotalValue","outputs":[{"internalType":"uint256","name":"","type":"uint256"}],"stateMutability":"view","type":"function"},{"inputs":[],"name":"getVersion","outputs":[{"internalType":"uint256","name":"","type":"uint256"}],"stateMutability":"view","type":"function"},{"inputs":[{"internalType":"uint256","name":"_percentageAmount","type":"uint256"}],"name":"issuePreSaleTokensToWithdrawPercentage","outputs":[],"stateMutability":"nonpayable","type":"function"},{"inputs":[],"name":"issueTokens","outputs":[],"stateMutability":"nonpayable","type":"function"},{"inputs":[{"internalType":"address","name":"_token","type":"address"},{"internalType":"uint256","name":"_amount","type":"uint256"}],"name":"manageDepositOwnerFunds","outputs":[],"stateMutability":"nonpayable","type":"function"},{"inputs":[{"internalType":"address","name":"_token","type":"address"},{"internalType":"uint256","name":"_amount","type":"uint256"}],"name":"manageWithdrawOwnerFunds","outputs":[],"stateMutability":"nonpayable","type":"function"},{"inputs":[],"name":"owner","outputs":[{"internalType":"address","name":"","type":"address"}],"stateMutability":"view","type":"function"},{"inputs":[{"internalType":"uint256","name":"_preSaleNumber","type":"uint256"},{"internalType":"address","name":"_token","type":"address"}],"name":"participateInPreSaleAllocation","outputs":[],"stateMutability":"nonpayable","type":"function"},{"inputs":[],"name":"percentageWithdrawAllowed","outputs":[{"internalType":"uint256","name":"","type":"uint256"}],"stateMutability":"view","type":"function"},{"inputs":[{"internalType":"uint256","name":"","type":"uint256"}],"name":"preSaleAllocationStatus","outputs":[{"internalType":"bool","name":"","type":"bool"}],"stateMutability":"view","type":"function"},{"inputs":[{"internalType":"uint256","name":"","type":"uint256"}],"name":"preSaleAllowedTokens","outputs":[{"internalType":"address","name":"","type":"address"}],"stateMutability":"view","type":"function"},{"inputs":[{"internalType":"uint256","name":"_amount","type":"uint256"},{"internalType":"address","name":"_token","type":"address"}],"name":"preSaleFund","outputs":[],"stateMutability":"nonpayable","type":"function"},{"inputs":[{"internalType":"uint256","name":"","type":"uint256"}],"name":"preSaleFunders","outputs":[{"internalType":"address","name":"","type":"address"}],"stateMutability":"view","type":"function"},{"inputs":[{"internalType":"uint256","name":"","type":"uint256"}],"name":"preSaleNumberStatus","outputs":[{"internalType":"bool","name":"","type":"bool"}],"stateMutability":"view","type":"function"},{"inputs":[{"internalType":"address","name":"","type":"address"}],"name":"preSaleParticipantsStatus","outputs":[{"internalType":"bool","name":"","type":"bool"}],"stateMutability":"view","type":"function"},{"inputs":[],"name":"preSaleTokenAddress","outputs":[{"internalType":"contract IERC20","name":"","type":"address"}],"stateMutability":"view","type":"function"},{"inputs":[{"internalType":"address","name":"_token","type":"address"}],"name":"preSaleTokenIsAllowed","outputs":[{"internalType":"bool","name":"","type":"bool"}],"stateMutability":"nonpayable","type":"function"},{"inputs":[],"name":"priceFeedA","outputs":[{"internalType":"contract AggregatorV3Interface","name":"","type":"address"}],"stateMutability":"view","type":"function"},{"inputs":[{"internalType":"address","name":"","type":"address"},{"internalType":"address","name":"","type":"address"}],"name":"purchasedBalance","outputs":[{"internalType":"uint256","name":"","type":"uint256"}],"stateMutability":"view","type":"function"},{"inputs":[],"name":"renounceOwnership","outputs":[],"stateMutability":"nonpayable","type":"function"},{"inputs":[{"internalType":"uint256","name":"_APY","type":"uint256"}],"name":"setAPY","outputs":[],"stateMutability":"nonpayable","type":"function"},{"inputs":[{"internalType":"uint256","name":"_number","type":"uint256"},{"internalType":"bool","name":"_status","type":"bool"}],"name":"setPreSaleAllocationStatus","outputs":[],"stateMutability":"nonpayable","type":"function"},{"inputs":[{"internalType":"address","name":"_token","type":"address"},{"internalType":"address","name":"_priceFeed","type":"address"}],"name":"setPriceFeedContract","outputs":[],"stateMutability":"nonpayable","type":"function"},{"inputs":[{"internalType":"uint256","name":"_amount","type":"uint256"}],"name":"setTotalAmountToCollectForThisPreSale","outputs":[],"stateMutability":"nonpayable","type":"function"},{"inputs":[],"name":"singleTokenAllPreSaleBalance","outputs":[{"internalType":"uint256","name":"","type":"uint256"}],"stateMutability":"view","type":"function"},{"inputs":[{"internalType":"uint256","name":"_amount","type":"uint256"},{"internalType":"address","name":"_token","type":"address"}],"name":"stakeTokens","outputs":[],"stateMutability":"nonpayable","type":"function"},{"inputs":[{"internalType":"uint256","name":"","type":"uint256"}],"name":"stakers","outputs":[{"internalType":"address","name":"","type":"address"}],"stateMutability":"view","type":"function"},{"inputs":[{"internalType":"address","name":"","type":"address"},{"internalType":"address","name":"","type":"address"}],"name":"stakingBalance","outputs":[{"internalType":"uint256","name":"","type":"uint256"}],"stateMutability":"view","type":"function"},{"inputs":[{"internalType":"uint256","name":"","type":"uint256"}],"name":"stakingLevelToWeight","outputs":[{"internalType":"uint256","name":"","type":"uint256"}],"stateMutability":"view","type":"function"},{"inputs":[{"internalType":"uint256","name":"","type":"uint256"}],"name":"stakingLevelUserCounter","outputs":[{"internalType":"uint256","name":"","type":"uint256"}],"stateMutability":"view","type":"function"},{"inputs":[{"internalType":"address","name":"","type":"address"}],"name":"stakingTimeToWithdraw","outputs":[{"internalType":"uint256","name":"","type":"uint256"}],"stateMutability":"view","type":"function"},{"inputs":[{"internalType":"address","name":"_token","type":"address"}],"name":"tokenIsAllowed","outputs":[{"internalType":"bool","name":"","type":"bool"}],"stateMutability":"nonpayable","type":"function"},{"inputs":[{"internalType":"address","name":"","type":"address"}],"name":"tokenPriceFeedMapping","outputs":[{"internalType":"address","name":"","type":"address"}],"stateMutability":"view","type":"function"},{"inputs":[],"name":"totalAmountToCollectForThisPreSale","outputs":[{"internalType":"uint256","name":"","type":"uint256"}],"stateMutability":"view","type":"function"},{"inputs":[{"internalType":"address","name":"","type":"address"}],"name":"totalCollectionOfPreSaleFunds","outputs":[{"internalType":"uint256","name":"","type":"uint256"}],"stateMutability":"view","type":"function"},{"inputs":[],"name":"totalCollectionOfPreSaleFundsAllTokens","outputs":[{"internalType":"uint256","name":"","type":"uint256"}],"stateMutability":"view","type":"function"},{"inputs":[{"internalType":"address","name":"","type":"address"}],"name":"totalPurchasedPreSaleTokens","outputs":[{"internalType":"uint256","name":"","type":"uint256"}],"stateMutability":"view","type":"function"},{"inputs":[],"name":"totalTokensStaked","outputs":[{"internalType":"uint256","name":"","type":"uint256"}],"stateMutability":"view","type":"function"},{"inputs":[{"internalType":"address","name":"","type":"address"}],"name":"totalWithdrawnPreSaleTokens","outputs":[{"internalType":"uint256","name":"","type":"uint256"}],"stateMutability":"view","type":"function"},{"inputs":[{"internalType":"address","name":"newOwner","type":"address"}],"name":"transferOwnership","outputs":[],"stateMutability":"nonpayable","type":"function"},{"inputs":[{"internalType":"address","name":"","type":"address"}],"name":"uniquePreSaleTokensStaked","outputs":[{"internalType":"uint256","name":"","type":"uint256"}],"stateMutability":"view","type":"function"},{"inputs":[],"name":"uniqueTokenStakers","outputs":[{"internalType":"uint256","name":"","type":"uint256"}],"stateMutability":"view","type":"function"},{"inputs":[{"internalType":"address","name":"","type":"address"}],"name":"uniqueTokensStaked","outputs":[{"internalType":"uint256","name":"","type":"uint256"}],"stateMutability":"view","type":"function"},{"inputs":[{"internalType":"address","name":"_token","type":"address"}],"name":"unstakeAllTokens","outputs":[],"stateMutability":"nonpayable","type":"function"},{"inputs":[{"internalType":"uint256","name":"_amount","type":"uint256"},{"internalType":"address","name":"_token","type":"address"}],"name":"unstakeTokens","outputs":[],"stateMutability":"nonpayable","type":"function"},{"inputs":[{"internalType":"address","name":"_preSaleTokenAddress","type":"address"}],"name":"updatePreSaleTokenAddress","outputs":[],"stateMutability":"nonpayable","type":"function"},{"inputs":[{"internalType":"uint256","name":"_times","type":"uint256"}],"name":"updateTimes","outputs":[],"stateMutability":"nonpayable","type":"function"},{"inputs":[{"internalType":"address","name":"","type":"address"}],"name":"whenParticipatedThatLevel","outputs":[{"internalType":"uint256","name":"","type":"uint256"}],"stateMutability":"view","type":"function"},{"inputs":[{"internalType":"address","name":"_token","type":"address"}],"name":"withdrawAmountPeopleLeftInWithdrawFees","outputs":[],"stateMutability":"nonpayable","type":"function"},{"inputs":[{"internalType":"address","name":"_token","type":"address"}],"name":"withdrawPreSaleCollectedFund","outputs":[],"stateMutability":"nonpayable","type":"function"}],"bytecode":"6080604052600a6001556105dc6020553480156200001c57600080fd5b5060405162003f6038038062003f608339810160408190526200003f916200050b565b6200004a336200049e565b600e80546001600160a01b039384166001600160a01b031991821617909155601b8054929093169116179055601e602081905260007f65ce8396b736f5da9d881cc6fbcb11ef9721292dc41ec8c40879fd9edea5744d81905560017f873299c6a6c39b8b92f01922bb622df4a3236ea2876aac2da76f6c092cf7e98f5560027f8a1ea6ccfdf9f988bdc16303c81231f9b192785454b34880c28e5c30362354c55560037f4bbb14a9b8bdd7baf7e45936eef68b1d3b69ec665e4d3d9f22d086627a2b08805560047f2eca6469c5988648711d819e241e59ec9e94a879e5d491ce337260f9e75414125560057f86d72ecda2f02015d839a182675ed983893a479e8f4279fb5498fd7244fa5dfe5560067f3b995de482df97a2c9d456eaddef4a2d8e37e8b7ceaa84df3200ae34890448f35560077f07e07990268d552e861c3b3b30762ae1d401e128d88dcdc061f5fba57e7ac9f85560087f8dd77d38164a78ad615ed6f87db5c81e75803d1677bf75ecfbbe3c73b83871415560097f2fcdb860d99ada637bba31889280ce2d4217586b5da61641dd5742bcbb7aa46a55600a7f4150be2f2e4ca26ea4353f7f6543634639cb7af12002f06e7614303d57e128f955600f7fe065eaad7f40a2cd4bc1efc6f4344c19df9fe636b15760bd5961fc0e3be3cc285560147fc2cdcac6815e8dba5c073d2c4a622d2de1453a902e3ebd096b6c8686d03a6e515560197f4dfc35b27a2a15eb38750f68a286ed8b8346956ebe7227ceb2dd7dd5c373ac26557fb967cce98cabd8d1f7aeda98d36c0158d6775cfe7c62f16953241eb7720ce15b9190915560237f32abc6767b4a526ba081342d89c77eb5e415f12f68af45f1f8433a1280ad46885560287fdbd8d1ccee8c6d7be969746c1fe539d14d7943a9f704f7aeaac79295156a980055602d7f218a762fb5580fc51401a5fc690f183f97f4e4b89e9cfcd822ba18577f9210fc5560327f1a1586bd60010e5250bec70a13f10b57a516d531e2e13f8e06bc6444e08990d555603c7f17f6e9bae84339b87dec02358cd3c31ef1652c5c381cc3e5ccf667ac2322cd235560467f57f7e17d109c663c1b21f4419ef762bc64baea1b8a757f23e8ca6984e62d52d25560507ffce0de9d50a3d1acf6fc25d06cc116ec2bfb69af108c962cc29b045e83164d0d55605a7f1a4cc25510354c589bd7946b3dc2275b971564533a277044a7363966a283b0dc5560647fa4ec8c329519c7dcf531f6496ed5d60fa1ccb9710ce24cab0ef13e1ee263334f55606e7f5f90b9a2fb0d3c15f43274ee5caf6dd9bd9f976b15cf11617fde6e8e8fe15c9b5560787f45768a1322d624d68f3a4861f29d212d4f45fa493b346276b7199d716f4cb86f5560827fe958f81d8b8dd448a0753719ffaa76d7252ff37e1c61af328234250c9c7863ae55608c7fa735894fb4ad4eed679d05ff9f9934abb52e44e0cb86a50d1e8ff15c308aba0e55601c905260967ff1de1e01c421a3570903cc3ce14bc5911c7c246bd5b6523c814df713c8f04b9b5562000543565b600080546001600160a01b038381166001600160a01b0319831681178455604051919092169283917f8be0079c531659141344cd1fd0a4f28419497f9722a3daafe3b4186f6b6457e09190a35050565b80516001600160a01b03811681146200050657600080fd5b919050565b600080604083850312156200051f57600080fd5b6200052a83620004ee565b91506200053a60208401620004ee565b90509250929050565b613a0d80620005536000396000f3fe608060405234801561001057600080fd5b50600436106104545760003560e01c806379f27c9e11610241578063c071cf831161013b578063ee68c5a6116100c3578063f3c3222b11610087578063f3c3222b14610a44578063fb27b0ed14610a57578063fb4854aa14610a6a578063fd5e6dd114610a8d578063fe83383114610aa057600080fd5b8063ee68c5a6146109ca578063ef8bd305146109ed578063f08aae81146109f6578063f1c5d6c214610a09578063f2fde38b14610a3157600080fd5b8063dc0d3dff1161010a578063dc0d3dff1461095e578063dd5b846714610971578063e245339614610984578063e4c78422146109a4578063eace7e23146109b757600080fd5b8063c071cf8314610926578063c98a6c491461092f578063ca97fc2914610942578063cd32e7921461094b57600080fd5b806398d5fdca116101c9578063af3f5e221161018d578063af3f5e22146108b7578063b0e31b2d146108ca578063b195558c146108d3578063b379bc6a146108e6578063b83e02341461090657600080fd5b806398d5fdca146108555780639f20f62d1461085d578063a307bb0c14610888578063a4abf26114610891578063a7ef85a2146108a457600080fd5b80638a757ec2116102105780638a757ec2146107de5780638b1d8cfd146107f15780638b20c4c2146108115780638da5cb5b1461083157806396bb1fef1461084257600080fd5b806379f27c9e1461077257806384d269ad14610785578063850fb31114610798578063877dd39d146107cb57600080fd5b8063409ed87e116103525780636323085c116102da5780636f4a2a2f1161029e5780636f4a2a2f14610711578063715018a6146107315780637290b3ad146107395780637737721b1461074c57806377a4cfe81461075f57600080fd5b80636323085c146106a5578063635ab2f7146106b857806366b98718146106cb5780636b3dd9e2146106de5780636e5b6b28146106fe57600080fd5b80635d990250116103215780635d990250146106515780635e5f2e26146106645780635eb186f81461067757806360ab58521461068a578063630b8a8a1461069257600080fd5b8063409ed87e1461060f57806341a7a45e146106225780635084be37146106355780635bb394d11461064857600080fd5b8063276b11da116103e0578063383cae1d116103a4578063383cae1d146105965780633d6217a6146105a95780633d8c3cdd146105c95780633dbee808146105dc5780633e47d6f3146105ef57600080fd5b8063276b11da146104e457806327927b3e146104f757806327cd08a91461053857806329161a001461054b5780632b996e681461057657600080fd5b80630d8e6e2c116104275780630d8e6e2c146104a55780630e53fecb146104ad578063171e44ea146104b557806319d9caa9146104c857806324f45e67146104d157600080fd5b806307c54e081461045957806308b7d7911461046e57806309bc33a71461048a5780630bea440d14610492575b600080fd5b61046c6104673660046134be565b610ac0565b005b61047760175481565b6040519081526020015b60405180910390f35b610477610b05565b61046c6104a03660046134f7565b610b42565b610477610cfb565b61046c610d6e565b61046c6104c3366004613523565b610e91565b61047760135481565b61046c6104df366004613545565b610f0d565b6104776104f236600461355e565b610f3c565b610520610505366004613523565b6008602052600090815260409020546001600160a01b031681565b6040516001600160a01b039091168152602001610481565b610520610546366004613545565b610fc3565b61047761055936600461355e565b600260209081526000928352604080842090915290825290205481565b610477610584366004613545565b601e6020526000908152604090205481565b601b54610520906001600160a01b031681565b6104776105b7366004613523565b60236020526000908152604090205481565b6104776105d736600461355e565b610fed565b61046c6105ea366004613523565b61108a565b6104776105fd366004613523565b60186020526000908152604090205481565b61046c61061d366004613545565b61112f565b61046c610630366004613596565b6112ed565b61046c610643366004613545565b611337565b61047760245481565b61046c61065f3660046134f7565b611366565b610520610672366004613545565b611611565b600e54610520906001600160a01b031681565b61046c611621565b61046c6106a0366004613523565b61171b565b6104776106b336600461355e565b611797565b61046c6106c63660046135c6565b6117f1565b61046c6106d9366004613523565b611898565b6104776106ec366004613523565b60166020526000908152604090205481565b61047761070c366004613545565b6118e4565b61047761071f366004613523565b60126020526000908152604090205481565b61046c611918565b61046c6107473660046134f7565b61194e565b61047761075a36600461355e565b611a25565b61047761076d36600461355e565b611a55565b61046c610780366004613523565b6123b0565b61046c6107933660046134f7565b6124f8565b6107bb6107a6366004613523565b60226020526000908152604090205460ff1681565b6040519015158152602001610481565b61046c6107d936600461355e565b61286e565b61046c6107ec366004613545565b6128c6565b6104776107ff366004613545565b60216020526000908152604090205481565b61047761081f366004613523565b60146020526000908152604090205481565b6000546001600160a01b0316610520565b61046c610850366004613523565b6128f5565b6104776129a5565b61047761086b36600461355e565b601060209081526000928352604080842090915290825290205481565b61047760065481565b61046c61089f366004613545565b612a3c565b61046c6108b2366004613596565b612aa5565b6104776108c5366004613523565b612aef565b610477600b5481565b6107bb6108e1366004613523565b612bad565b6104776108f4366004613523565b601c6020526000908152604090205481565b610477610914366004613523565b60076020526000908152604090205481565b610477601d5481565b61046c61093d366004613523565b612c17565b610477600a5481565b61046c6109593660046135c6565b612f27565b61052061096c366004613545565b612f7f565b6107bb61097f366004613523565b612f8f565b610477610992366004613523565b60056020526000908152604090205481565b6104776109b2366004613523565b612ff0565b6104776109c53660046135f0565b613090565b6107bb6109d8366004613545565b601f6020526000908152604090205460ff1681565b61047760015481565b610520610a04366004613545565b613171565b610a1c610a17366004613523565b613181565b60408051928352602083019190915201610481565b61046c610a3f366004613523565b613282565b61046c610a52366004613545565b61331a565b600f54610520906001600160a01b031681565b6107bb610a78366004613545565b60256020526000908152604090205460ff1681565b610520610a9b366004613545565b613349565b610477610aae366004613523565b60116020526000908152604090205481565b6000546001600160a01b03163314610af35760405162461bcd60e51b8152600401610aea9061362c565b60405180910390fd5b6000918252601e602052604090912055565b60006802b5e3af16b188000081610b1a6129a5565b9050670de0b6b3a764000081610b308285613677565b610b3a9190613696565b935050505090565b60008211610b625760405162461bcd60e51b8152600401610aea906136b8565b610b6b81612f8f565b610b875760405162461bcd60e51b8152600401610aea906136ef565b6040516323b872dd60e01b8152336004820152306024820152604481018390526001600160a01b038216906323b872dd906064016020604051808303816000875af1158015610bda573d6000803e3d6000fd5b505050506040513d601f19601f82011682018060405250810190610bfe9190613726565b50610c093382613359565b610c1333826133c4565b81600b54610c219190613743565b600b55610c2e3382611a25565b3360008181526004602090815260408083209490945560038152838220429081905560058252848320556001600160a01b038516825260028152838220928252919091522054610c7f908390613743565b6001600160a01b038216600090815260026020908152604080832033845282528083209390935560079052205460011415610cf757600c80546001810182556000919091527fdf6966c971051c3d54ec59162606531493a51404a002842f56009d7e5cf4a8c70180546001600160a01b031916331790555b5050565b601b546040805163054fd4d560e41b815290516000926001600160a01b0316916354fd4d509160048083019260209291908290030181865afa158015610d45573d6000803e3d6000fd5b505050506040513d601f19601f82011682018060405250810190610d69919061375b565b905090565b3360009081526014602090815260408083205460169092528220549091610d958284613774565b90506000606484601754610da99190613677565b610db39190613696565b90506000610dc18483613774565b905060008511610dd057600080fd5b60008111610ddd57600080fd5b848410610de957600080fd5b600f5460405163a9059cbb60e01b81526001600160a01b039091169063a9059cbb90610e1b903390859060040161378b565b6020604051808303816000875af1158015610e3a573d6000803e3d6000fd5b505050506040513d601f19601f82011682018060405250810190610e5e9190613726565b5033600090815260166020526040902054610e7a908290613743565b336000908152601660205260409020555050505050565b6000546001600160a01b03163314610ebb5760405162461bcd60e51b8152600401610aea9061362c565b600d80546001810182556000919091527fd7b6990105719101dabeb77144f2a3385c8033acd3af97e9423a695e81ad1eb50180546001600160a01b0319166001600160a01b0392909216919091179055565b6000546001600160a01b03163314610f375760405162461bcd60e51b8152600401610aea9061362c565b600155565b6001600160a01b038216600090815260076020526040812054610f6157506000610fbd565b600080610f6d84613181565b9092509050610f7d81600a613888565b6001600160a01b038086166000908152600260209081526040808320938a1683529290522054610fae908490613677565b610fb89190613696565b925050505b92915050565b601a8181548110610fd357600080fd5b6000918252602090912001546001600160a01b0316905081565b6001600160a01b03808316600081815260036020908152604080832054948616835260028252808320938352929052908120546001549192914291908490606490611039908490613677565b6110439190613696565b905060006110546208052083613696565b90506000603c6110648787613774565b61106e9190613696565b9050600061107c8383613677565b9a9950505050505050505050565b6000546001600160a01b031633146110b45760405162461bcd60e51b8152600401610aea9061362c565b60065460405163a9059cbb60e01b81526001600160a01b0383169163a9059cbb916110e391339160040161378b565b6020604051808303816000875af1158015611102573d6000803e3d6000fd5b505050506040513d601f19601f820116820180604052508101906111269190613726565b50506000600655565b33600090815260146020908152604080832054601690925282205490916111568284613774565b9050600060648460175461116a9190613677565b6111749190613696565b905060006111828483613774565b90506000811161119157600080fd5b8086111561119e57600080fd5b8484106111aa57600080fd5b600086116111ca5760405162461bcd60e51b8152600401610aea906136b8565b8583101561122f5760405162461bcd60e51b815260206004820152602c60248201527f596f7520646f6e2774206861766520656e6f756768207075726368617365642060448201526b746f6b656e73206c6566742160a01b6064820152608401610aea565b8461123a8786613743565b1061124457600080fd5b600f5460405163a9059cbb60e01b81526001600160a01b039091169063a9059cbb906112769033908a9060040161378b565b6020604051808303816000875af1158015611295573d6000803e3d6000fd5b505050506040513d601f19601f820116820180604052508101906112b99190613726565b50336000908152601660205260409020546112d5908790613743565b33600090815260166020526040902055505050505050565b6000546001600160a01b031633146113175760405162461bcd60e51b8152600401610aea9061362c565b600091825260256020526040909120805460ff1916911515919091179055565b6000546001600160a01b031633146113615760405162461bcd60e51b8152600401610aea9061362c565b601555565b600082116113865760405162461bcd60e51b8152600401610aea906136b8565b61138f81612bad565b6113ab5760405162461bcd60e51b8152600401610aea906136ef565b6040516323b872dd60e01b8152336004820152306024820152604481018390526001600160a01b038216906323b872dd906064016020604051808303816000875af11580156113fe573d6000803e3d6000fd5b505050506040513d601f19601f820116820180604052508101906114229190613726565b506040516370a0823160e01b8152306004820152670de0b6b3a7640000906001600160a01b038316906370a0823190602401602060405180830381865afa158015611471573d6000803e3d6000fd5b505050506040513d601f19601f82011682018060405250810190611495919061375b565b61149f9190613696565b601d556114ac3382613403565b6001600160a01b03811660009081526010602090815260408083203384529091529020546114db908390613743565b6001600160a01b038216600090815260106020908152604080832033845290915290205560155461150c9083613677565b336000908152601460205260409020546115269190613743565b336000908152601460209081526040808320939093556001600160a01b0384168252601190522054611559908390613743565b6001600160a01b038216600090815260116020908152604080832093909355601290522054611589908390613743565b6001600160a01b0382166000908152601260205260409020556013546115b0908390613743565b601355336000908152601c602052604090205460011415610cf757601980546001810182556000919091527f944998273e477b495144fb8794c914197f3ccb46be2900f4698fd0ef743c96950180546001600160a01b031916331790555050565b600d8181548110610fd357600080fd5b6000546001600160a01b0316331461164b5760405162461bcd60e51b8152600401610aea9061362c565b60005b600c54811015611718576000600c828154811061166d5761166d613894565b60009182526020822001546001600160a01b0316915061168c82612aef565b600e5460405163a9059cbb60e01b81529192506001600160a01b03169063a9059cbb906116bf908590859060040161378b565b6020604051808303816000875af11580156116de573d6000803e3d6000fd5b505050506040513d601f19601f820116820180604052508101906117029190613726565b5050508080611710906138aa565b91505061164e565b50565b6000546001600160a01b031633146117455760405162461bcd60e51b8152600401610aea9061362c565b601a80546001810182556000919091527f057c384a7d1c54f3a1b2e5e67b2617b8224fdfd1ea7234eea573a6ff665ff63e0180546001600160a01b0319166001600160a01b0392909216919091179055565b6001600160a01b038116600090815260146020908152604080832054601690925282205460175483906064906117ce908590613677565b6117d89190613696565b905060006117e68383613774565b979650505050505050565b6000546001600160a01b0316331461181b5760405162461bcd60e51b8152600401610aea9061362c565b6040516323b872dd60e01b8152336004820152306024820152604481018290526001600160a01b038316906323b872dd906064015b6020604051808303816000875af115801561186f573d6000803e3d6000fd5b505050506040513d601f19601f820116820180604052508101906118939190613726565b505050565b6000546001600160a01b031633146118c25760405162461bcd60e51b8152600401610aea9061362c565b600f80546001600160a01b0319166001600160a01b0392909216919091179055565b6000806118ef6129a5565b90506000670de0b6b3a76400006119068584613677565b6119109190613696565b949350505050565b6000546001600160a01b031633146119425760405162461bcd60e51b8152600401610aea9061362c565b61194c600061346e565b565b6000828152601f602052604090205460ff16151560011461196e57600080fd5b6001600160a01b0381166000908152600260209081526040808320338452909152902054685150ae84a8cdf0000011156119a757600080fd5b60006119b33383611a55565b116119bd57600080fd5b3360009081526022602052604090205460ff16156119da57600080fd5b60006119e63383611a55565b600081815260216020526040902054909150611a03906001613743565b6000828152602160209081526040808320939093553382526023905220555050565b600080611a328484610fed565b6001600160a01b0385166000908152600460205260409020546119109190613743565b6020546000908190611a68906096613677565b611a7a90670de0b6b3a7640000613677565b6001600160a01b0380851660009081526002602090815260408083209389168352929052205410611aaf5750601c9050610fbd565b602054611abd90608c613677565b611acf90670de0b6b3a7640000613677565b6001600160a01b0380851660009081526002602090815260408083209389168352929052205410611b045750601b9050610fbd565b602054611b12906082613677565b611b2490670de0b6b3a7640000613677565b6001600160a01b0380851660009081526002602090815260408083209389168352929052205410611b595750601a9050610fbd565b602054611b67906078613677565b611b7990670de0b6b3a7640000613677565b6001600160a01b0380851660009081526002602090815260408083209389168352929052205410611bae575060199050610fbd565b602054611bbc90606e613677565b611bce90670de0b6b3a7640000613677565b6001600160a01b0380851660009081526002602090815260408083209389168352929052205410611c03575060189050610fbd565b602054611c11906064613677565b611c2390670de0b6b3a7640000613677565b6001600160a01b0380851660009081526002602090815260408083209389168352929052205410611c58575060179050610fbd565b602054611c6690605a613677565b611c7890670de0b6b3a7640000613677565b6001600160a01b0380851660009081526002602090815260408083209389168352929052205410611cad575060169050610fbd565b602054611cbb906050613677565b611ccd90670de0b6b3a7640000613677565b6001600160a01b0380851660009081526002602090815260408083209389168352929052205410611d02575060159050610fbd565b602054611d10906046613677565b611d2290670de0b6b3a7640000613677565b6001600160a01b0380851660009081526002602090815260408083209389168352929052205410611d57575060149050610fbd565b602054611d6590603c613677565b611d7790670de0b6b3a7640000613677565b6001600160a01b0380851660009081526002602090815260408083209389168352929052205410611dac575060139050610fbd565b602054611dba906032613677565b611dcc90670de0b6b3a7640000613677565b6001600160a01b0380851660009081526002602090815260408083209389168352929052205410611e01575060129050610fbd565b602054611e0f90602d613677565b611e2190670de0b6b3a7640000613677565b6001600160a01b0380851660009081526002602090815260408083209389168352929052205410611e56575060119050610fbd565b602054611e64906028613677565b611e7690670de0b6b3a7640000613677565b6001600160a01b0380851660009081526002602090815260408083209389168352929052205410611eab575060109050610fbd565b602054611eb9906023613677565b611ecb90670de0b6b3a7640000613677565b6001600160a01b0380851660009081526002602090815260408083209389168352929052205410611f005750600f9050610fbd565b602054611f0e90601e613677565b611f2090670de0b6b3a7640000613677565b6001600160a01b0380851660009081526002602090815260408083209389168352929052205410611f555750600e9050610fbd565b602054611f63906019613677565b611f7590670de0b6b3a7640000613677565b6001600160a01b0380851660009081526002602090815260408083209389168352929052205410611faa5750600d9050610fbd565b602054611fb8906014613677565b611fca90670de0b6b3a7640000613677565b6001600160a01b0380851660009081526002602090815260408083209389168352929052205410611fff5750600c9050610fbd565b60205461200d90600f613677565b61201f90670de0b6b3a7640000613677565b6001600160a01b03808516600090815260026020908152604080832093891683529290522054106120545750600b9050610fbd565b60205461206290600a613677565b61207490670de0b6b3a7640000613677565b6001600160a01b03808516600090815260026020908152604080832093891683529290522054106120a95750600a9050610fbd565b6020546120b7906009613677565b6120c990670de0b6b3a7640000613677565b6001600160a01b03808516600090815260026020908152604080832093891683529290522054106120fe575060099050610fbd565b60205461210c906008613677565b61211e90670de0b6b3a7640000613677565b6001600160a01b0380851660009081526002602090815260408083209389168352929052205410612153575060089050610fbd565b602054612161906007613677565b61217390670de0b6b3a7640000613677565b6001600160a01b03808516600090815260026020908152604080832093891683529290522054106121a8575060079050610fbd565b6020546121b6906006613677565b6121c890670de0b6b3a7640000613677565b6001600160a01b03808516600090815260026020908152604080832093891683529290522054106121fd575060069050610fbd565b60205461220b906005613677565b61221d90670de0b6b3a7640000613677565b6001600160a01b0380851660009081526002602090815260408083209389168352929052205410612252575060059050610fbd565b602054612260906004613677565b61227290670de0b6b3a7640000613677565b6001600160a01b03808516600090815260026020908152604080832093891683529290522054106122a7575060049050610fbd565b6020546122b5906003613677565b6122c790670de0b6b3a7640000613677565b6001600160a01b03808516600090815260026020908152604080832093891683529290522054106122fc575060039050610fbd565b60205461230a906002613677565b61231c90670de0b6b3a7640000613677565b6001600160a01b0380851660009081526002602090815260408083209389168352929052205410612351575060029050610fbd565b60205461235f906001613677565b61237190670de0b6b3a7640000613677565b6001600160a01b03808516600090815260026020908152604080832093891683529290522054106123a6575060019050610fbd565b5060009050610fbd565b6000546001600160a01b031633146123da5760405162461bcd60e51b8152600401610aea9061362c565b6001600160a01b0381166000818152601160205260409081902054905163a9059cbb60e01b815290919063a9059cbb9061241a903390859060040161378b565b6020604051808303816000875af1158015612439573d6000803e3d6000fd5b505050506040513d601f19601f8201168201806040525081019061245d9190613726565b506040516370a0823160e01b8152306004820152670de0b6b3a7640000906001600160a01b038416906370a0823190602401602060405180830381865afa1580156124ac573d6000803e3d6000fd5b505050506040513d601f19601f820116820180604052508101906124d0919061375b565b6124da9190613696565b601d55506001600160a01b0316600090815260116020526040812055565b6001600160a01b0381166000908152600260209081526040808320338452909152902054826125395760405162461bcd60e51b8152600401610aea906136b8565b828110156125955760405162461bcd60e51b815260206004820152602360248201527f596f7520646f6e2774206861766520656e6f756768207374616b656420746f6b604482015262656e7360e81b6064820152608401610aea565b61259e82612f8f565b6125ba5760405162461bcd60e51b8152600401610aea906136ef565b3360009081526005602052604090205442906125d9906249d400613743565b81101561272757336000908152600560205260409020546125fd9062375f00613743565b8110156127185733600090815260056020526040902054612621906224ea00613743565b81101561270957336000908152600560205260409020546126459062127500613743565b8110156126fa576000606461265b86604b613677565b6126659190613696565b60405163a9059cbb60e01b81529091506001600160a01b0385169063a9059cbb90612696903390859060040161378b565b6020604051808303816000875af11580156126b5573d6000803e3d6000fd5b505050506040513d601f19601f820116820180604052508101906126d99190613726565b506126e48186613774565b6006546126f19190613743565b6006555061279a565b6000606461265b866055613677565b6000606461265b86605a613677565b6000606461265b86605f613677565b60405163a9059cbb60e01b81526001600160a01b0384169063a9059cbb90612755903390889060040161378b565b6020604051808303816000875af1158015612774573d6000803e3d6000fd5b505050506040513d601f19601f820116820180604052508101906127989190613726565b505b6127a43384611a25565b3360009081526004602090815260408083209390935560039052204290556127cc8483613774565b6001600160a01b0384166000908152600260209081526040808320338452909152902055600b546127fe908590613774565b600b556001600160a01b0383166000908152600260209081526040808320338452909152902054612868576001600a546128389190613774565b600a553360009081526007602052604090205461285790600190613774565b336000908152600760205260409020555b50505050565b6000546001600160a01b031633146128985760405162461bcd60e51b8152600401610aea9061362c565b6001600160a01b03918216600090815260086020526040902080546001600160a01b03191691909216179055565b6000546001600160a01b031633146128f05760405162461bcd60e51b8152600401610aea9061362c565b602055565b60006129013383611a25565b90506000811161291057600080fd5b60405163a9059cbb60e01b81526001600160a01b0383169063a9059cbb9061293e903390859060040161378b565b6020604051808303816000875af115801561295d573d6000803e3d6000fd5b505050506040513d601f19601f820116820180604052508101906129819190613726565b50503360009081526004602090815260408083208390556003909152902042905550565b600080601b60009054906101000a90046001600160a01b03166001600160a01b031663feaf968c6040518163ffffffff1660e01b815260040160a060405180830381865afa1580156129fb573d6000803e3d6000fd5b505050506040513d601f19601f82011682018060405250810190612a1f91906138df565b505050915050806402540be400612a36919061392f565b91505090565b6000546001600160a01b03163314612a665760405162461bcd60e51b8152600401610aea9061362c565b60656017541115612a7657600080fd5b606581601754612a869190613743565b1115612a9157600080fd5b80601754612a9f9190613743565b60175550565b6000546001600160a01b03163314612acf5760405162461bcd60e51b8152600401610aea9061362c565b6000918252601f6020526040909120805460ff1916911515919091179055565b6001600160a01b0381166000908152600760205260408120548190612b4a5760405162461bcd60e51b81526020600482015260116024820152704e6f20746f6b656e73207374616b65642160781b6044820152606401610aea565b60005b600d54811015612ba657612b8884600d8381548110612b6e57612b6e613894565b6000918252602090912001546001600160a01b0316610f3c565b612b929083613743565b915080612b9e816138aa565b915050612b4d565b5092915050565b6000805b601a54811015612c0e57826001600160a01b0316601a8281548110612bd857612bd8613894565b6000918252602090912001546001600160a01b03161415612bfc5750600192915050565b80612c06816138aa565b915050612bb1565b50600092915050565b6001600160a01b038116600090815260026020908152604080832033845290915290205480612c885760405162461bcd60e51b815260206004820152601b60248201527f5374616b696e672062616c616e63652063616e6e6f74206265203000000000006044820152606401610aea565b612c9182612f8f565b612cad5760405162461bcd60e51b8152600401610aea906136ef565b336000908152600560205260409020544290612ccc906249d400613743565b811015612e1a5733600090815260056020526040902054612cf09062375f00613743565b811015612e0b5733600090815260056020526040902054612d14906224ea00613743565b811015612dfc5733600090815260056020526040902054612d389062127500613743565b811015612ded5760006064612d4e84604b613677565b612d589190613696565b60405163a9059cbb60e01b81529091506001600160a01b0385169063a9059cbb90612d89903390859060040161378b565b6020604051808303816000875af1158015612da8573d6000803e3d6000fd5b505050506040513d601f19601f82011682018060405250810190612dcc9190613726565b50612dd78184613774565b600654612de49190613743565b60065550612e8d565b60006064612d4e846055613677565b60006064612d4e84605a613677565b60006064612d4e84605f613677565b60405163a9059cbb60e01b81526001600160a01b0384169063a9059cbb90612e48903390869060040161378b565b6020604051808303816000875af1158015612e67573d6000803e3d6000fd5b505050506040513d601f19601f82011682018060405250810190612e8b9190613726565b505b612e973384611a25565b336000908152600460209081526040808320939093556003905220429055600b54612ec3908390613774565b600b556001600160a01b038316600090815260026020908152604080832033845282528083208390556007909152902054612f0090600190613774565b33600090815260076020526040902055600a54612f1f90600190613774565b600a55505050565b6000546001600160a01b03163314612f515760405162461bcd60e51b8152600401610aea9061362c565b60405163a9059cbb60e01b81526001600160a01b0383169063a9059cbb90611850903390859060040161378b565b60098181548110610fd357600080fd5b6000805b600d54811015612c0e57826001600160a01b0316600d8281548110612fba57612fba613894565b6000918252602090912001546001600160a01b03161415612fde5750600192915050565b80612fe8816138aa565b915050612f93565b600080546001600160a01b0316331461301b5760405162461bcd60e51b8152600401610aea9061362c565b6040516370a0823160e01b81523060048201526001600160a01b038316906370a0823190602401602060405180830381865afa15801561305f573d6000803e3d6000fd5b505050506040513d601f19601f82011682018060405250810190613083919061375b565b601d81905590505b919050565b60008181526025602052604081205460ff1615156001146130b057600080fd5b6000602454116130bf57600080fd5b600060015b601d81101561311357600081815260216020908152604080832054601e9092528220546130f19190613677565b90506130fd8184613743565b925050808061310b906138aa565b9150506130c4565b506000816024546131249190613696565b905060006131328787611a55565b600081815260216020908152604080832054601e9092528220549293509190828561315d8285613677565b6131679190613677565b61107c9190613696565b60198181548110610fd357600080fd5b6001600160a01b03808216600090815260086020526040808220548151633fabe5a360e21b815291519293849391169182918491839163feaf968c9160048082019260a0929091908290030181865afa1580156131e2573d6000803e3d6000fd5b505050506040513d601f19601f8201168201806040525081019061320691906138df565b5050509150506000826001600160a01b031663313ce5676040518163ffffffff1660e01b8152600401602060405180830381865afa15801561324c573d6000803e3d6000fd5b505050506040513d601f19601f8201168201806040525081019061327091906139b4565b919760ff909216965090945050505050565b6000546001600160a01b031633146132ac5760405162461bcd60e51b8152600401610aea9061362c565b6001600160a01b0381166133115760405162461bcd60e51b815260206004820152602660248201527f4f776e61626c653a206e6577206f776e657220697320746865207a65726f206160448201526564647265737360d01b6064820152608401610aea565b6117188161346e565b6000546001600160a01b031633146133445760405162461bcd60e51b8152600401610aea9061362c565b602455565b600c8181548110610fd357600080fd5b6001600160a01b03808216600090815260026020908152604080832093861683529290522054610cf7576001600160a01b0382166000908152600760205260409020546133a7906001613743565b6001600160a01b0383166000908152600760205260409020555050565b6001600160a01b03808216600090815260026020908152604080832093861683529290522054610cf757600a546133fc906001613743565b600a555050565b6001600160a01b03808216600090815260106020908152604080832093861683529290522054610cf7576001600160a01b0382166000908152601c6020526040902054613451906001613743565b6001600160a01b0383166000908152601c60205260409020555050565b600080546001600160a01b038381166001600160a01b0319831681178455604051919092169283917f8be0079c531659141344cd1fd0a4f28419497f9722a3daafe3b4186f6b6457e09190a35050565b600080604083850312156134d157600080fd5b50508035926020909101359150565b80356001600160a01b038116811461308b57600080fd5b6000806040838503121561350a57600080fd5b8235915061351a602084016134e0565b90509250929050565b60006020828403121561353557600080fd5b61353e826134e0565b9392505050565b60006020828403121561355757600080fd5b5035919050565b6000806040838503121561357157600080fd5b61357a836134e0565b915061351a602084016134e0565b801515811461171857600080fd5b600080604083850312156135a957600080fd5b8235915060208301356135bb81613588565b809150509250929050565b600080604083850312156135d957600080fd5b6135e2836134e0565b946020939093013593505050565b60008060006060848603121561360557600080fd5b61360e846134e0565b925061361c602085016134e0565b9150604084013590509250925092565b6020808252818101527f4f776e61626c653a2063616c6c6572206973206e6f7420746865206f776e6572604082015260600190565b634e487b7160e01b600052601160045260246000fd5b600081600019048311821515161561369157613691613661565b500290565b6000826136b357634e487b7160e01b600052601260045260246000fd5b500490565b6020808252601a908201527f416d6f756e74206d757374206265206d6f7265207468616e2030000000000000604082015260600190565b6020808252601e908201527f546f6b656e2069732063757272656e746c79206e6f7420616c6c6f7765640000604082015260600190565b60006020828403121561373857600080fd5b815161353e81613588565b6000821982111561375657613756613661565b500190565b60006020828403121561376d57600080fd5b5051919050565b60008282101561378657613786613661565b500390565b6001600160a01b03929092168252602082015260400190565b600181815b808511156137df5781600019048211156137c5576137c5613661565b808516156137d257918102915b93841c93908002906137a9565b509250929050565b6000826137f657506001610fbd565b8161380357506000610fbd565b816001811461381957600281146138235761383f565b6001915050610fbd565b60ff84111561383457613834613661565b50506001821b610fbd565b5060208310610133831016604e8410600b8410161715613862575081810a610fbd565b61386c83836137a4565b806000190482111561388057613880613661565b029392505050565b600061353e83836137e7565b634e487b7160e01b600052603260045260246000fd5b60006000198214156138be576138be613661565b5060010190565b805169ffffffffffffffffffff8116811461308b57600080fd5b600080600080600060a086880312156138f757600080fd5b613900866138c5565b9450602086015193506040860151925060608601519150613923608087016138c5565b90509295509295909350565b60006001600160ff1b038184138284138082168684048611161561395557613955613661565b600160ff1b600087128281168783058912161561397457613974613661565b6000871292508782058712848416161561399057613990613661565b878505871281841616156139a6576139a6613661565b505050929093029392505050565b6000602082840312156139c657600080fd5b815160ff8116811461353e57600080fdfea2646970667358221220627a540caa03ff55d0e883bc36451e83f37e7beb8680e173a3d0ca12303e8cbd64736f6c634300080b0033","bytecodeSha1":"16eee5751cfc546b927eb600ad84e81b59b427ee","compiler":{"evm_version":"istanbul","optimizer":{"enabled":true,"runs":200},"version":"0.8.11+commit.d7f03943"},"contractName":"TokenFarm","language":"Solidity","natspec":{"kind":"dev","methods":{"owner()":{"details":"Returns the address of the current owner."},"renounceOwnership()":{"details":"Leaves the contract without owner. It will not be possible to call `onlyOwner` functions anymore. Can only be called by the current owner. NOTE: Renouncing ownership will leave the contract without an owner, thereby removing any functionality that is only available to the owner."},"transferOwnership(address)":{"details":"Transfers ownership of the contract to a new account (`newOwner`). Can only be called by the current owner."}},"version":1},"opcodes":"PUSH1 0x80 PUSH1 0x40 MSTORE CALLVALUE DUP1 ISZERO PUSH2 0x10 JUMPI PUSH1 0x0 DUP1 REVERT JUMPDEST POP PUSH1 0x4 CALLDATASIZE LT PUSH2 0x454 JUMPI PUSH1 0x0 CALLDATALOAD PUSH1 0xE0 SHR DUP1 PUSH4 0x79F27C9E GT PUSH2 0x241 JUMPI DUP1 PUSH4 0xC071CF83 GT PUSH2 0x13B JUMPI DUP1 PUSH4 0xEE68C5A6 GT PUSH2 0xC3 JUMPI DUP1 PUSH4 0xF3C3222B GT PUSH2 0x87 JUMPI DUP1 PUSH4 0xF3C3222B EQ PUSH2 0xA44 JUMPI DUP1 PUSH4 0xFB27B0ED EQ PUSH2 0xA57 JUMPI DUP1 PUSH4 0xFB4854AA EQ PUSH2 0xA6A JUMPI DUP1 PUSH4 0xFD5E6DD1 EQ PUSH2 0xA8D JUMPI DUP1 PUSH4 0xFE833831 EQ PUSH2 0xAA0 JUMPI PUSH1 0x0 DUP1 REVERT JUMPDEST DUP1 PUSH4 0xEE68C5A6 EQ PUSH2 0x9CA JUMPI DUP1 PUSH4 0xEF8BD305 EQ PUSH2 0x9ED JUMPI DUP1 PUSH4 0xF08AAE81 EQ PUSH2 0x9F6 JUMPI DUP1 PUSH4 0xF1C5D6C2 EQ PUSH2 0xA09 JUMPI DUP1 PUSH4 0xF2FDE38B EQ PUSH2 0xA31 JUMPI PUSH1 0x0 DUP1 REVERT JUMPDEST DUP1 PUSH4 0xDC0D3DFF GT PUSH2 0x10A JUMPI DUP1 PUSH4 0xDC0D3DFF EQ PUSH2 0x95E JUMPI DUP1 PUSH4 0xDD5B8467 EQ PUSH2 0x971 JUMPI DUP1 PUSH4 0xE2453396 EQ PUSH2 0x984 JUMPI DUP1 PUSH4 0xE4C78422 EQ PUSH2 0x9A4 JUMPI DUP1 PUSH4 0xEACE7E23 EQ PUSH2 0x9B7 JUMPI PUSH1 0x0 DUP1 REVERT JUMPDEST DUP1 PUSH4 0xC071CF83 EQ PUSH2 0x926 JUMPI DUP1 PUSH4 0xC98A6C49 EQ PUSH2 0x92F JUMPI DUP1 PUSH4 0xCA97FC29 EQ PUSH2 0x942 JUMPI DUP1 PUSH4 0xCD32E792 EQ PUSH2 0x94B JUMPI PUSH1 0x0 DUP1 REVERT JUMPDEST DUP1 PUSH4 0x98D5FDCA GT PUSH2 0x1C9 JUMPI DUP1 PUSH4 0xAF3F5E22 GT PUSH2 0x18D JUMPI DUP1 PUSH4 0xAF3F5E22 EQ PUSH2 0x8B7 JUMPI DUP1 PUSH4 0xB0E31B2D EQ PUSH2 0x8CA JUMPI DUP1 PUSH4 0xB195558C EQ PUSH2 0x8D3 JUMPI DUP1 PUSH4 0xB379BC6A EQ PUSH2 0x8E6 JUMPI DUP1 PUSH4 0xB83E0234 EQ PUSH2 0x906 JUMPI PUSH1 0x0 DUP1 REVERT JUMPDEST DUP1 PUSH4 0x98D5FDCA EQ PUSH2 0x855 JUMPI DUP1 PUSH4 0x9F20F62D EQ PUSH2 0x85D JUMPI DUP1 PUSH4 0xA307BB0C EQ PUSH2 0x888 JUMPI DUP1 PUSH4 0xA4ABF261 EQ PUSH2 0x891 JUMPI DUP1 PUSH4 0xA7EF85A2 EQ PUSH2 0x8A4 JUMPI PUSH1 0x0 DUP1 REVERT JUMPDEST DUP1 PUSH4 0x8A757EC2 GT PUSH2 0x210 JUMPI DUP1 PUSH4 0x8A757EC2 EQ PUSH2 0x7DE JUMPI DUP1 PUSH4 0x8B1D8CFD EQ PUSH2 0x7F1 JUMPI DUP1 PUSH4 0x8B20C4C2 EQ PUSH2 0x811 JUMPI DUP1 PUSH4 0x8DA5CB5B EQ PUSH2 0x831 JUMPI DUP1 PUSH4 0x96BB1FEF EQ PUSH2 0x842 JUMPI PUSH1 0x0 DUP1 REVERT JUMPDEST DUP1 PUSH4 0x79F27C9E EQ PUSH2 0x772 JUMPI DUP1 PUSH4 0x84D269AD EQ PUSH2 0x785 JUMPI DUP1 PUSH4 0x850FB311 EQ PUSH2 0x798 JUMPI DUP1 PUSH4 0x877DD39D EQ PUSH2 0x7CB JUMPI PUSH1 0x0 DUP1 REVERT JUMPDEST DUP1 PUSH4 0x409ED87E GT PUSH2 0x352 JUMPI DUP1 PUSH4 0x6323085C GT PUSH2 0x2DA JUMPI DUP1 PUSH4 0x6F4A2A2F GT PUSH2 0x29E JUMPI DUP1 PUSH4 0x6F4A2A2F EQ PUSH2 0x711 JUMPI DUP1 PUSH4 0x715018A6 EQ PUSH2 0x731 JUMPI DUP1 PUSH4 0x7290B3AD EQ PUSH2 0x739 JUMPI DUP1 PUSH4 0x7737721B EQ PUSH2 0x74C JUMPI DUP1 PUSH4 0x77A4CFE8 EQ PUSH2 0x75F JUMPI PUSH1 0x0 DUP1 REVERT JUMPDEST DUP1 PUSH4 0x6323085C EQ PUSH2 0x6A5 JUMPI DUP1 PUSH4 0x635AB2F7 EQ PUSH2 0x6B8 JUMPI DUP1 PUSH4 0x66B98718 EQ PUSH2 0x6CB JUMPI DUP1 PUSH4 0x6B3DD9E2 EQ PUSH2 0x6DE JUMPI DUP1 PUSH4 0x6E5B6B28 EQ PUSH2 0x6FE JUMPI PUSH1 0x0 DUP1 REVERT JUMPDEST DUP1 PUSH4 0x5D990250 GT PUSH2 0x321 JUMPI DUP1 PUSH4 0x5D990250 EQ PUSH2 0x651 JUMPI DUP1 PUSH4 0x5E5F2E26 EQ PUSH2 0x664 JUMPI DUP1 PUSH4 0x5EB186F8 EQ PUSH2 0x677 JUMPI DUP1 PUSH4 0x60AB5852 EQ PUSH2 0x68A JUMPI DUP1 PUSH4 0x630B8A8A EQ PUSH2 0x692 JUMPI PUSH1 0x0 DUP1 REVERT JUMPDEST DUP1 PUSH4 0x409ED87E EQ PUSH2 0x60F JUMPI DUP1 PUSH4 0x41A7A45E EQ PUSH2 0x622 JUMPI DUP1 PUSH4 0x5084BE37 EQ PUSH2 0x635 JUMPI DUP1 PUSH4 0x5BB394D1 EQ PUSH2 0x648 JUMPI PUSH1 0x0 DUP1 REVERT JUMPDEST DUP1 PUSH4 0x276B11DA GT PUSH2 0x3E0 JUMPI DUP1 PUSH4 0x383CAE1D GT PUSH2 0x3A4 JUMPI DUP1 PUSH4 0x383CAE1D EQ PUSH2 0x596 JUMPI DUP1 PUSH4 0x3D6217A6 EQ PUSH2 0x5A9 JUMPI DUP1 PUSH4 0x3D8C3CDD EQ PUSH2 0x5C9 JUMPI DUP1 PUSH4 0x3DBEE808 EQ PUSH2 0x5DC JUMPI DUP1 PUSH4 0x3E47D6F3 EQ PUSH2 0x5EF JUMPI PUSH1 0x0 DUP1 REVERT JUMPDEST DUP1 PUSH4 0x276B11DA EQ PUSH2 0x4E4 JUMPI DUP1 PUSH4 0x27927B3E EQ PUSH2 0x4F7 JUMPI DUP1 PUSH4 0x27CD08A9 EQ PUSH2 0x538 JUMPI DUP1 PUSH4 0x29161A00 EQ PUSH2 0x54B JUMPI DUP1 PUSH4 0x2B996E68 EQ PUSH2 0x576 JUMPI PUSH1 0x0 DUP1 REVERT JUMPDEST DUP1 PUSH4 0xD8E6E2C GT PUSH2 0x427 JUMPI DUP1 PUSH4 0xD8E6E2C EQ PUSH2 0x4A5 JUMPI DUP1 PUSH4 0xE53FECB EQ PUSH2 0x4AD JUMPI DUP1 PUSH4 0x171E44EA EQ PUSH2 0x4B5 JUMPI DUP1 PUSH4 0x19D9CAA9 EQ PUSH2 0x4C8 JUMPI DUP1 PUSH4 0x24F45E67 EQ PUSH2 0x4D1 JUMPI PUSH1 0x0 DUP1 REVERT JUMPDEST DUP1 PUSH4 0x7C54E08 EQ PUSH2 0x459 JUMPI DUP1 PUSH4 0x8B7D791 EQ PUSH2 0x46E JUMPI DUP1 PUSH4 0x9BC33A7 EQ PUSH2 0x48A JUMPI DUP1 PUSH4 0xBEA440D EQ PUSH2 0x492 JUMPI JUMPDEST PUSH1 0x0 DUP1 REVERT JUMPDEST PUSH2 0x46C PUSH2 0x467 CALLDATASIZE PUSH1 0x4 PUSH2 0x34BE JUMP JUMPDEST PUSH2 0xAC0 JUMP JUMPDEST STOP JUMPDEST PUSH2 0x477 PUSH1 0x17 SLOAD DUP2 JUMP JUMPDEST PUSH1 0x40 MLOAD SWAP1 DUP2 MSTORE PUSH1 0x20 ADD JUMPDEST PUSH1 0x40 MLOAD DUP1 SWAP2 SUB SWAP1 RETURN JUMPDEST PUSH2 0x477 PUSH2 0xB05 JUMP JUMPDEST PUSH2 0x46C PUSH2 0x4A0 CALLDATASIZE PUSH1 0x4 PUSH2 0x34F7 JUMP JUMPDEST PUSH2 0xB42 JUMP JUMPDEST PUSH2 0x477 PUSH2 0xCFB JUMP JUMPDEST PUSH2 0x46C PUSH2 0xD6E JUMP JUMPDEST PUSH2 0x46C PUSH2 0x4C3 CALLDATASIZE PUSH1 0x4 PUSH2 0x3523 JUMP JUMPDEST PUSH2 0xE91 JUMP JUMPDEST PUSH2 0x477 PUSH1 0x13 SLOAD DUP2 JUMP JUMPDEST PUSH2 0x46C PUSH2 0x4DF CALLDATASIZE PUSH1 0x4 PUSH2 0x3545 JUMP JUMPDEST PUSH2 0xF0D JUMP JUMPDEST PUSH2 0x477 PUSH2 0x4F2 CALLDATASIZE PUSH1 0x4 PUSH2 0x355E JUMP JUMPDEST PUSH2 0xF3C JUMP JUMPDEST PUSH2 0x520 PUSH2 0x505 CALLDATASIZE PUSH1 0x4 PUSH2 0x3523 JUMP JUMPDEST PUSH1 0x8 PUSH1 0x20 MSTORE PUSH1 0x0 SWAP1 DUP2 MSTORE PUSH1 0x40 SWAP1 KECCAK256 SLOAD PUSH1 0x1 PUSH1 0x1 PUSH1 0xA0 SHL SUB AND DUP2 JUMP JUMPDEST PUSH1 0x40 MLOAD PUSH1 0x1 PUSH1 0x1 PUSH1 0xA0 SHL SUB SWAP1 SWAP2 AND DUP2 MSTORE PUSH1 0x20 ADD PUSH2 0x481 JUMP JUMPDEST PUSH2 0x520 PUSH2 0x546 CALLDATASIZE PUSH1 0x4 PUSH2 0x3545 JUMP JUMPDEST PUSH2 0xFC3 JUMP JUMPDEST PUSH2 0x477 PUSH2 0x559 CALLDATASIZE PUSH1 0x4 PUSH2 0x355E JUMP JUMPDEST PUSH1 0x2 PUSH1 0x20 SWAP1 DUP2 MSTORE PUSH1 0x0 SWAP3 DUP4 MSTORE PUSH1 0x40 DUP1 DUP5 KECCAK256 SWAP1 SWAP2 MSTORE SWAP1 DUP3 MSTORE SWAP1 KECCAK256 SLOAD DUP2 JUMP JUMPDEST PUSH2 0x477 PUSH2 0x584 CALLDATASIZE PUSH1 0x4 PUSH2 0x3545 JUMP JUMPDEST PUSH1 0x1E PUSH1 0x20 MSTORE PUSH1 0x0 SWAP1 DUP2 MSTORE PUSH1 0x40 SWAP1 KECCAK256 SLOAD DUP2 JUMP JUMPDEST PUSH1 0x1B SLOAD PUSH2 0x520 SWAP1 PUSH1 0x1 PUSH1 0x1 PUSH1 0xA0 SHL SUB AND DUP2 JUMP JUMPDEST PUSH2 0x477 PUSH2 0x5B7 CALLDATASIZE PUSH1 0x4 PUSH2 0x3523 JUMP JUMPDEST PUSH1 0x23 PUSH1 0x20 MSTORE PUSH1 0x0 SWAP1 DUP2 MSTORE PUSH1 0x40 SWAP1 KECCAK256 SLOAD DUP2 JUMP JUMPDEST PUSH2 0x477 PUSH2 0x5D7 CALLDATASIZE PUSH1 0x4 PUSH2 0x355E JUMP JUMPDEST PUSH2 0xFED JUMP JUMPDEST PUSH2 0x46C PUSH2 0x5EA CALLDATASIZE PUSH1 0x4 PUSH2 0x3523 JUMP JUMPDEST PUSH2 0x108A JUMP JUMPDEST PUSH2 0x477 PUSH2 0x5FD CALLDATASIZE PUSH1 0x4 PUSH2 0x3523 JUMP JUMPDEST PUSH1 0x18 PUSH1 0x20 MSTORE PUSH1 0x0 SWAP1 DUP2 MSTORE PUSH1 0x40 SWAP1 KECCAK256 SLOAD DUP2 JUMP JUMPDEST PUSH2 0x46C PUSH2 0x61D CALLDATASIZE PUSH1 0x4 PUSH2 0x3545 JUMP JUMPDEST PUSH2 0x112F JUMP JUMPDEST PUSH2 0x46C PUSH2 0x630 CALLDATASIZE PUSH1 0x4 PUSH2 0x3596 JUMP JUMPDEST PUSH2 0x12ED JUMP JUMPDEST PUSH2 0x46C PUSH2 0x643 CALLDATASIZE PUSH1 0x4 PUSH2 0x3545 JUMP JUMPDEST PUSH2 0x1337 JUMP JUMPDEST PUSH2 0x477 PUSH1 0x24 SLOAD DUP2 JUMP JUMPDEST PUSH2 0x46C PUSH2 0x65F CALLDATASIZE PUSH1 0x4 PUSH2 0x34F7 JUMP JUMPDEST PUSH2 0x1366 JUMP JUMPDEST PUSH2 0x520 PUSH2 0x672 CALLDATASIZE PUSH1 0x4 PUSH2 0x3545 JUMP JUMPDEST PUSH2 0x1611 JUMP JUMPDEST PUSH1 0xE SLOAD PUSH2 0x520 SWAP1 PUSH1 0x1 PUSH1 0x1 PUSH1 0xA0 SHL SUB AND DUP2 JUMP JUMPDEST PUSH2 0x46C PUSH2 0x1621 JUMP JUMPDEST PUSH2 0x46C PUSH2 0x6A0 CALLDATASIZE PUSH1 0x4 PUSH2 0x3523 JUMP JUMPDEST PUSH2 0x171B JUMP JUMPDEST PUSH2 0x477 PUSH2 0x6B3 CALLDATASIZE PUSH1 0x4 PUSH2 0x355E JUMP JUMPDEST PUSH2 0x1797 JUMP JUMPDEST PUSH2 0x46C PUSH2 0x6C6 CALLDATASIZE PUSH1 0x4 PUSH2 0x35C6 JUMP JUMPDEST PUSH2 0x17F1 JUMP JUMPDEST PUSH2 0x46C PUSH2 0x6D9 CALLDATASIZE PUSH1 0x4 PUSH2 0x3523 JUMP JUMPDEST PUSH2 0x1898 JUMP JUMPDEST PUSH2 0x477 PUSH2 0x6EC CALLDATASIZE PUSH1 0x4 PUSH2 0x3523 JUMP JUMPDEST PUSH1 0x16 PUSH1 0x20 MSTORE PUSH1 0x0 SWAP1 DUP2 MSTORE PUSH1 0x40 SWAP1 KECCAK256 SLOAD DUP2 JUMP JUMPDEST PUSH2 0x477 PUSH2 0x70C CALLDATASIZE PUSH1 0x4 PUSH2 0x3545 JUMP JUMPDEST PUSH2 0x18E4 JUMP JUMPDEST PUSH2 0x477 PUSH2 0x71F CALLDATASIZE PUSH1 0x4 PUSH2 0x3523 JUMP JUMPDEST PUSH1 0x12 PUSH1 0x20 MSTORE PUSH1 0x0 SWAP1 DUP2 MSTORE PUSH1 0x40 SWAP1 KECCAK256 SLOAD DUP2 JUMP JUMPDEST PUSH2 0x46C PUSH2 0x1918 JUMP JUMPDEST PUSH2 0x46C PUSH2 0x747 CALLDATASIZE PUSH1 0x4 PUSH2 0x34F7 JUMP JUMPDEST PUSH2 0x194E JUMP JUMPDEST PUSH2 0x477 PUSH2 0x75A CALLDATASIZE PUSH1 0x4 PUSH2 0x355E JUMP JUMPDEST PUSH2 0x1A25 JUMP JUMPDEST PUSH2 0x477 PUSH2 0x76D CALLDATASIZE PUSH1 0x4 PUSH2 0x355E JUMP JUMPDEST PUSH2 0x1A55 JUMP JUMPDEST PUSH2 0x46C PUSH2 0x780 CALLDATASIZE PUSH1 0x4 PUSH2 0x3523 JUMP JUMPDEST PUSH2 0x23B0 JUMP JUMPDEST PUSH2 0x46C PUSH2 0x793 CALLDATASIZE PUSH1 0x4 PUSH2 0x34F7 JUMP JUMPDEST PUSH2 0x24F8 JUMP JUMPDEST PUSH2 0x7BB PUSH2 0x7A6 CALLDATASIZE PUSH1 0x4 PUSH2 0x3523 JUMP JUMPDEST PUSH1 0x22 PUSH1 0x20 MSTORE PUSH1 0x0 SWAP1 DUP2 MSTORE PUSH1 0x40 SWAP1 KECCAK256 SLOAD PUSH1 0xFF AND DUP2 JUMP JUMPDEST PUSH1 0x40 MLOAD SWAP1 ISZERO ISZERO DUP2 MSTORE PUSH1 0x20 ADD PUSH2 0x481 JUMP JUMPDEST PUSH2 0x46C PUSH2 0x7D9 CALLDATASIZE PUSH1 0x4 PUSH2 0x355E JUMP JUMPDEST PUSH2 0x286E JUMP JUMPDEST PUSH2 0x46C PUSH2 0x7EC CALLDATASIZE PUSH1 0x4 PUSH2 0x3545 JUMP JUMPDEST PUSH2 0x28C6 JUMP JUMPDEST PUSH2 0x477 PUSH2 0x7FF CALLDATASIZE PUSH1 0x4 PUSH2 0x3545 JUMP JUMPDEST PUSH1 0x21 PUSH1 0x20 MSTORE PUSH1 0x0 SWAP1 DUP2 MSTORE PUSH1 0x40 SWAP1 KECCAK256 SLOAD DUP2 JUMP JUMPDEST PUSH2 0x477 PUSH2 0x81F CALLDATASIZE PUSH1 0x4 PUSH2 0x3523 JUMP JUMPDEST PUSH1 0x14 PUSH1 0x20 MSTORE PUSH1 0x0 SWAP1 DUP2 MSTORE PUSH1 0x40 SWAP1 KECCAK256 SLOAD DUP2 JUMP JUMPDEST PUSH1 0x0 SLOAD PUSH1 0x1 PUSH1 0x1 PUSH1 0xA0 SHL SUB AND PUSH2 0x520 JUMP JUMPDEST PUSH2 0x46C PUSH2 0x850 CALLDATASIZE PUSH1 0x4 PUSH2 0x3523 JUMP JUMPDEST PUSH2 0x28F5 JUMP JUMPDEST PUSH2 0x477 PUSH2 0x29A5 JUMP JUMPDEST PUSH2 0x477 PUSH2 0x86B CALLDATASIZE PUSH1 0x4 PUSH2 0x355E JUMP JUMPDEST PUSH1 0x10 PUSH1 0x20 SWAP1 DUP2 MSTORE PUSH1 0x0 SWAP3 DUP4 MSTORE PUSH1 0x40 DUP1 DUP5 KECCAK256 SWAP1 SWAP2 MSTORE SWAP1 DUP3 MSTORE SWAP1 KECCAK256 SLOAD DUP2 JUMP JUMPDEST PUSH2 0x477 PUSH1 0x6 SLOAD DUP2 JUMP JUMPDEST PUSH2 0x46C PUSH2 0x89F CALLDATASIZE PUSH1 0x4 PUSH2 0x3545 JUMP JUMPDEST PUSH2 0x2A3C JUMP JUMPDEST PUSH2 0x46C PUSH2 0x8B2 CALLDATASIZE PUSH1 0x4 PUSH2 0x3596 JUMP JUMPDEST PUSH2 0x2AA5 JUMP JUMPDEST PUSH2 0x477 PUSH2 0x8C5 CALLDATASIZE PUSH1 0x4 PUSH2 0x3523 JUMP JUMPDEST PUSH2 0x2AEF JUMP JUMPDEST PUSH2 0x477 PUSH1 0xB SLOAD DUP2 JUMP JUMPDEST PUSH2 0x7BB PUSH2 0x8E1 CALLDATASIZE PUSH1 0x4 PUSH2 0x3523 JUMP JUMPDEST PUSH2 0x2BAD JUMP JUMPDEST PUSH2 0x477 PUSH2 0x8F4 CALLDATASIZE PUSH1 0x4 PUSH2 0x3523 JUMP JUMPDEST PUSH1 0x1C PUSH1 0x20 MSTORE PUSH1 0x0 SWAP1 DUP2 MSTORE PUSH1 0x40 SWAP1 KECCAK256 SLOAD DUP2 JUMP JUMPDEST PUSH2 0x477 PUSH2 0x914 CALLDATASIZE PUSH1 0x4 PUSH2 0x3523 JUMP JUMPDEST PUSH1 0x7 PUSH1 0x20 MSTORE PUSH1 0x0 SWAP1 DUP2 MSTORE PUSH1 0x40 SWAP1 KECCAK256 SLOAD DUP2 JUMP JUMPDEST PUSH2 0x477 PUSH1 0x1D SLOAD DUP2 JUMP JUMPDEST PUSH2 0x46C PUSH2 0x93D CALLDATASIZE PUSH1 0x4 PUSH2 0x3523 JUMP JUMPDEST PUSH2 0x2C17 JUMP JUMPDEST PUSH2 0x477 PUSH1 0xA SLOAD DUP2 JUMP JUMPDEST PUSH2 0x46C PUSH2 0x959 CALLDATASIZE PUSH1 0x4 PUSH2 0x35C6 JUMP JUMPDEST PUSH2 0x2F27 JUMP JUMPDEST PUSH2 0x520 PUSH2 0x96C CALLDATASIZE PUSH1 0x4 PUSH2 0x3545 JUMP JUMPDEST PUSH2 0x2F7F JUMP JUMPDEST PUSH2 0x7BB PUSH2 0x97F CALLDATASIZE PUSH1 0x4 PUSH2 0x3523 JUMP JUMPDEST PUSH2 0x2F8F JUMP JUMPDEST PUSH2 0x477 PUSH2 0x992 CALLDATASIZE PUSH1 0x4 PUSH2 0x3523 JUMP JUMPDEST PUSH1 0x5 PUSH1 0x20 MSTORE PUSH1 0x0 SWAP1 DUP2 MSTORE PUSH1 0x40 SWAP1 KECCAK256 SLOAD DUP2 JUMP JUMPDEST PUSH2 0x477 PUSH2 0x9B2 CALLDATASIZE PUSH1 0x4 PUSH2 0x3523 JUMP JUMPDEST PUSH2 0x2FF0 JUMP JUMPDEST PUSH2 0x477 PUSH2 0x9C5 CALLDATASIZE PUSH1 0x4 PUSH2 0x35F0 JUMP JUMPDEST PUSH2 0x3090 JUMP JUMPDEST PUSH2 0x7BB PUSH2 0x9D8 CALLDATASIZE PUSH1 0x4 PUSH2 0x3545 JUMP JUMPDEST PUSH1 0x1F PUSH1 0x20 MSTORE PUSH1 0x0 SWAP1 DUP2 MSTORE PUSH1 0x40 SWAP1 KECCAK256 SLOAD PUSH1 0xFF AND DUP2 JUMP JUMPDEST PUSH2 0x477 PUSH1 0x1 SLOAD DUP2 JUMP JUMPDEST PUSH2 0x520 PUSH2 0xA04 CALLDATASIZE PUSH1 0x4 PUSH2 0x3545 JUMP JUMPDEST PUSH2 0x3171 JUMP JUMPDEST PUSH2 0xA1C PUSH2 0xA17 CALLDATASIZE PUSH1 0x4 PUSH2 0x3523 JUMP JUMPDEST PUSH2 0x3181 JUMP JUMPDEST PUSH1 0x40 DUP1 MLOAD SWAP3 DUP4 MSTORE PUSH1 0x20 DUP4 ADD SWAP2 SWAP1 SWAP2 MSTORE ADD PUSH2 0x481 JUMP JUMPDEST PUSH2 0x46C PUSH2 0xA3F CALLDATASIZE PUSH1 0x4 PUSH2 0x3523 JUMP JUMPDEST PUSH2 0x3282 JUMP JUMPDEST PUSH2 0x46C PUSH2 0xA52 CALLDATASIZE PUSH1 0x4 PUSH2 0x3545 JUMP JUMPDEST PUSH2 0x331A JUMP JUMPDEST PUSH1 0xF SLOAD PUSH2 0x520 SWAP1 PUSH1 0x1 PUSH1 0x1 PUSH1 0xA0 SHL SUB AND DUP2 JUMP JUMPDEST PUSH2 0x7BB PUSH2 0xA78 CALLDATASIZE PUSH1 0x4 PUSH2 0x3545 JUMP JUMPDEST PUSH1 0x25 PUSH1 0x20 MSTORE PUSH1 0x0 SWAP1 DUP2 MSTORE PUSH1 0x40 SWAP1 KECCAK256 SLOAD PUSH1 0xFF AND DUP2 JUMP JUMPDEST PUSH2 0x520 PUSH2 0xA9B CALLDATASIZE PUSH1 0x4 PUSH2 0x3545 JUMP JUMPDEST PUSH2 0x3349 JUMP JUMPDEST PUSH2 0x477 PUSH2 0xAAE CALLDATASIZE PUSH1 0x4 PUSH2 0x3523 JUMP JUMPDEST PUSH1 0x11 PUSH1 0x20 MSTORE PUSH1 0x0 SWAP1 DUP2 MSTORE PUSH1 0x40 SWAP1 KECCAK256 SLOAD DUP2 JUMP JUMPDEST PUSH1 0x0 SLOAD PUSH1 0x1 PUSH1 0x1 PUSH1 0xA0 SHL SUB AND CALLER EQ PUSH2 0xAF3 JUMPI PUSH1 0x40 MLOAD PUSH3 0x461BCD PUSH1 0xE5 SHL DUP2 MSTORE PUSH1 0x4 ADD PUSH2 0xAEA SWAP1 PUSH2 0x362C JUMP JUMPDEST PUSH1 0x40 MLOAD DUP1 SWAP2 SUB SWAP1 REVERT JUMPDEST PUSH1 0x0 SWAP2 DUP3 MSTORE PUSH1 0x1E PUSH1 0x20 MSTORE PUSH1 0x40 SWAP1 SWAP2 KECCAK256 SSTORE JUMP JUMPDEST PUSH1 0x0 PUSH9 0x2B5E3AF16B1880000 DUP2 PUSH2 0xB1A PUSH2 0x29A5 JUMP JUMPDEST SWAP1 POP PUSH8 0xDE0B6B3A7640000 DUP2 PUSH2 0xB30 DUP3 DUP6 PUSH2 0x3677 JUMP JUMPDEST PUSH2 0xB3A SWAP2 SWAP1 PUSH2 0x3696 JUMP JUMPDEST SWAP4 POP POP POP POP SWAP1 JUMP JUMPDEST PUSH1 0x0 DUP3 GT PUSH2 0xB62 JUMPI PUSH1 0x40 MLOAD PUSH3 0x461BCD PUSH1 0xE5 SHL DUP2 MSTORE PUSH1 0x4 ADD PUSH2 0xAEA SWAP1 PUSH2 0x36B8 JUMP JUMPDEST PUSH2 0xB6B DUP2 PUSH2 0x2F8F JUMP JUMPDEST PUSH2 0xB87 JUMPI PUSH1 0x40 MLOAD PUSH3 0x461BCD PUSH1 0xE5 SHL DUP2 MSTORE PUSH1 0x4 ADD PUSH2 0xAEA SWAP1 PUSH2 0x36EF JUMP JUMPDEST PUSH1 0x40 MLOAD PUSH4 0x23B872DD PUSH1 0xE0 SHL DUP2 MSTORE CALLER PUSH1 0x4 DUP3 ADD MSTORE ADDRESS PUSH1 0x24 DUP3 ADD MSTORE PUSH1 0x44 DUP2 ADD DUP4 SWAP1 MSTORE PUSH1 0x1 PUSH1 0x1 PUSH1 0xA0 SHL SUB DUP3 AND SWAP1 PUSH4 0x23B872DD SWAP1 PUSH1 0x64 ADD PUSH1 0x20 PUSH1 0x40 MLOAD DUP1 DUP4 SUB DUP2 PUSH1 0x0 DUP8 GAS CALL ISZERO DUP1 ISZERO PUSH2 0xBDA JUMPI RETURNDATASIZE PUSH1 0x0 DUP1 RETURNDATACOPY RETURNDATASIZE PUSH1 0x0 REVERT JUMPDEST POP POP POP POP PUSH1 0x40 MLOAD RETURNDATASIZE PUSH1 0x1F NOT PUSH1 0x1F DUP3 ADD AND DUP3 ADD DUP1 PUSH1 0x40 MSTORE POP DUP2 ADD SWAP1 PUSH2 0xBFE SWAP2 SWAP1 PUSH2 0x3726 JUMP JUMPDEST POP PUSH2 0xC09 CALLER DUP3 PUSH2 0x3359 JUMP JUMPDEST PUSH2 0xC13 CALLER DUP3 PUSH2 0x33C4 JUMP JUMPDEST DUP2 PUSH1 0xB SLOAD PUSH2 0xC21 SWAP2 SWAP1 PUSH2 0x3743 JUMP JUMPDEST PUSH1 0xB SSTORE PUSH2 0xC2E CALLER DUP3 PUSH2 0x1A25 JUMP JUMPDEST CALLER PUSH1 0x0 DUP2 DUP2 MSTORE PUSH1 0x4 PUSH1 0x20 SWAP1 DUP2 MSTORE PUSH1 0x40 DUP1 DUP4 KECCAK256 SWAP5 SWAP1 SWAP5 SSTORE PUSH1 0x3 DUP2 MSTORE DUP4 DUP3 KECCAK256 TIMESTAMP SWAP1 DUP2 SWAP1 SSTORE PUSH1 0x5 DUP3 MSTORE DUP5 DUP4 KECCAK256 SSTORE PUSH1 0x1 PUSH1 0x1 PUSH1 0xA0 SHL SUB DUP6 AND DUP3 MSTORE PUSH1 0x2 DUP2 MSTORE DUP4 DUP3 KECCAK256 SWAP3 DUP3 MSTORE SWAP2 SWAP1 SWAP2 MSTORE KECCAK256 SLOAD PUSH2 0xC7F SWAP1 DUP4 SWAP1 PUSH2 0x3743 JUMP JUMPDEST PUSH1 0x1 PUSH1 0x1 PUSH1 0xA0 SHL SUB DUP3 AND PUSH1 0x0 SWAP1 DUP2 MSTORE PUSH1 0x2 PUSH1 0x20 SWAP1 DUP2 MSTORE PUSH1 0x40 DUP1 DUP4 KECCAK256 CALLER DUP5 MSTORE DUP3 MSTORE DUP1 DUP4 KECCAK256 SWAP4 SWAP1 SWAP4 SSTORE PUSH1 0x7 SWAP1 MSTORE KECCAK256 SLOAD PUSH1 0x1 EQ ISZERO PUSH2 0xCF7 JUMPI PUSH1 0xC DUP1 SLOAD PUSH1 0x1 DUP2 ADD DUP3 SSTORE PUSH1 0x0 SWAP2 SWAP1 SWAP2 MSTORE PUSH32 0xDF6966C971051C3D54EC59162606531493A51404A002842F56009D7E5CF4A8C7 ADD DUP1 SLOAD PUSH1 0x1 PUSH1 0x1 PUSH1 0xA0 SHL SUB NOT AND CALLER OR SWAP1 SSTORE JUMPDEST POP POP JUMP JUMPDEST PUSH1 0x1B SLOAD PUSH1 0x40 DUP1 MLOAD PUSH4 0x54FD4D5 PUSH1 0xE4 SHL DUP2 MSTORE SWAP1 MLOAD PUSH1 0x0 SWAP3 PUSH1 0x1 PUSH1 0x1 PUSH1 0xA0 SHL SUB AND SWAP2 PUSH4 0x54FD4D50 SWAP2 PUSH1 0x4 DUP1 DUP4 ADD SWAP3 PUSH1 0x20 SWAP3 SWAP2 SWAP1 DUP3 SWAP1 SUB ADD DUP2 DUP7 GAS STATICCALL ISZERO DUP1 ISZERO PUSH2 0xD45 JUMPI RETURNDATASIZE PUSH1 0x0 DUP1 RETURNDATACOPY RETURNDATASIZE PUSH1 0x0 REVERT JUMPDEST POP POP POP POP PUSH1 0x40 MLOAD RETURNDATASIZE PUSH1 0x1F NOT PUSH1 0x1F DUP3 ADD AND DUP3 ADD DUP1 PUSH1 0x40 MSTORE POP DUP2 ADD SWAP1 PUSH2 0xD69 SWAP2 SWAP1 PUSH2 0x375B JUMP JUMPDEST SWAP1 POP SWAP1 JUMP JUMPDEST CALLER PUSH1 0x0 SWAP1 DUP2 MSTORE PUSH1 0x14 PUSH1 0x20 SWAP1 DUP2 MSTORE PUSH1 0x40 DUP1 DUP4 KECCAK256 SLOAD PUSH1 0x16 SWAP1 SWAP3 MSTORE DUP3 KECCAK256 SLOAD SWAP1 SWAP2 PUSH2 0xD95 DUP3 DUP5 PUSH2 0x3774 JUMP JUMPDEST SWAP1 POP PUSH1 0x0 PUSH1 0x64 DUP5 PUSH1 0x17 SLOAD PUSH2 0xDA9 SWAP2 SWAP1 PUSH2 0x3677 JUMP JUMPDEST PUSH2 0xDB3 SWAP2 SWAP1 PUSH2 0x3696 JUMP JUMPDEST SWAP1 POP PUSH1 0x0 PUSH2 0xDC1 DUP5 DUP4 PUSH2 0x3774 JUMP JUMPDEST SWAP1 POP PUSH1 0x0 DUP6 GT PUSH2 0xDD0 JUMPI PUSH1 0x0 DUP1 REVERT JUMPDEST PUSH1 0x0 DUP2 GT PUSH2 0xDDD JUMPI PUSH1 0x0 DUP1 REVERT JUMPDEST DUP5 DUP5 LT PUSH2 0xDE9 JUMPI PUSH1 0x0 DUP1 REVERT JUMPDEST PUSH1 0xF SLOAD PUSH1 0x40 MLOAD PUSH4 0xA9059CBB PUSH1 0xE0 SHL DUP2 MSTORE PUSH1 0x1 PUSH1 0x1 PUSH1 0xA0 SHL SUB SWAP1 SWAP2 AND SWAP1 PUSH4 0xA9059CBB SWAP1 PUSH2 0xE1B SWAP1 CALLER SWAP1 DUP6 SWAP1 PUSH1 0x4 ADD PUSH2 0x378B JUMP JUMPDEST PUSH1 0x20 PUSH1 0x40 MLOAD DUP1 DUP4 SUB DUP2 PUSH1 0x0 DUP8 GAS CALL ISZERO DUP1 ISZERO PUSH2 0xE3A JUMPI RETURNDATASIZE PUSH1 0x0 DUP1 RETURNDATACOPY RETURNDATASIZE PUSH1 0x0 REVERT JUMPDEST POP POP POP POP PUSH1 0x40 MLOAD RETURNDATASIZE PUSH1 0x1F NOT PUSH1 0x1F DUP3 ADD AND DUP3 ADD DUP1 PUSH1 0x40 MSTORE POP DUP2 ADD SWAP1 PUSH2 0xE5E SWAP2 SWAP1 PUSH2 0x3726 JUMP JUMPDEST POP CALLER PUSH1 0x0 SWAP1 DUP2 MSTORE PUSH1 0x16 PUSH1 0x20 MSTORE PUSH1 0x40 SWAP1 KECCAK256 SLOAD PUSH2 0xE7A SWAP1 DUP3 SWAP1 PUSH2 0x3743 JUMP JUMPDEST CALLER PUSH1 0x0 SWAP1 DUP2 MSTORE PUSH1 0x16 PUSH1 0x20 MSTORE PUSH1 0x40 SWAP1 KECCAK256 SSTORE POP POP POP POP POP JUMP JUMPDEST PUSH1 0x0 SLOAD PUSH1 0x1 PUSH1 0x1 PUSH1 0xA0 SHL SUB AND CALLER EQ PUSH2 0xEBB JUMPI PUSH1 0x40 MLOAD PUSH3 0x461BCD PUSH1 0xE5 SHL DUP2 MSTORE PUSH1 0x4 ADD PUSH2 0xAEA SWAP1 PUSH2 0x362C JUMP JUMPDEST PUSH1 0xD DUP1 SLOAD PUSH1 0x1 DUP2 ADD DUP3 SSTORE PUSH1 0x0 SWAP2 SWAP1 SWAP2 MSTORE PUSH32 0xD7B6990105719101DABEB77144F2A3385C8033ACD3AF97E9423A695E81AD1EB5 ADD DUP1 SLOAD PUSH1 0x1 PUSH1 0x1 PUSH1 0xA0 SHL SUB NOT AND PUSH1 0x1 PUSH1 0x1 PUSH1 0xA0 SHL SUB SWAP3 SWAP1 SWAP3 AND SWAP2 SWAP1 SWAP2 OR SWAP1 SSTORE JUMP JUMPDEST PUSH1 0x0 SLOAD PUSH1 0x1 PUSH1 0x1 PUSH1 0xA0 SHL SUB AND CALLER EQ PUSH2 0xF37 JUMPI PUSH1 0x40 MLOAD PUSH3 0x461BCD PUSH1 0xE5 SHL DUP2 MSTORE PUSH1 0x4 ADD PUSH2 0xAEA SWAP1 PUSH2 0x362C JUMP JUMPDEST PUSH1 0x1 SSTORE JUMP JUMPDEST PUSH1 0x1 PUSH1 0x1 PUSH1 0xA0 SHL SUB DUP3 AND PUSH1 0x0 SWAP1 DUP2 MSTORE PUSH1 0x7 PUSH1 0x20 MSTORE PUSH1 0x40 DUP2 KECCAK256 SLOAD PUSH2 0xF61 JUMPI POP PUSH1 0x0 PUSH2 0xFBD JUMP JUMPDEST PUSH1 0x0 DUP1 PUSH2 0xF6D DUP5 PUSH2 0x3181 JUMP JUMPDEST SWAP1 SWAP3 POP SWAP1 POP PUSH2 0xF7D DUP2 PUSH1 0xA PUSH2 0x3888 JUMP JUMPDEST PUSH1 0x1 PUSH1 0x1 PUSH1 0xA0 SHL SUB DUP1 DUP7 AND PUSH1 0x0 SWAP1 DUP2 MSTORE PUSH1 0x2 PUSH1 0x20 SWAP1 DUP2 MSTORE PUSH1 0x40 DUP1 DUP4 KECCAK256 SWAP4 DUP11 AND DUP4 MSTORE SWAP3 SWAP1 MSTORE KECCAK256 SLOAD PUSH2 0xFAE SWAP1 DUP5 SWAP1 PUSH2 0x3677 JUMP JUMPDEST PUSH2 0xFB8 SWAP2 SWAP1 PUSH2 0x3696 JUMP JUMPDEST SWAP3 POP POP POP JUMPDEST SWAP3 SWAP2 POP POP JUMP JUMPDEST PUSH1 0x1A DUP2 DUP2 SLOAD DUP2 LT PUSH2 0xFD3 JUMPI PUSH1 0x0 DUP1 REVERT JUMPDEST PUSH1 0x0 SWAP2 DUP3 MSTORE PUSH1 0x20 SWAP1 SWAP2 KECCAK256 ADD SLOAD PUSH1 0x1 PUSH1 0x1 PUSH1 0xA0 SHL SUB AND SWAP1 POP DUP2 JUMP JUMPDEST PUSH1 0x1 PUSH1 0x1 PUSH1 0xA0 SHL SUB DUP1 DUP4 AND PUSH1 0x0 DUP2 DUP2 MSTORE PUSH1 0x3 PUSH1 0x20 SWAP1 DUP2 MSTORE PUSH1 0x40 DUP1 DUP4 KECCAK256 SLOAD SWAP5 DUP7 AND DUP4 MSTORE PUSH1 0x2 DUP3 MSTORE DUP1 DUP4 KECCAK256 SWAP4 DUP4 MSTORE SWAP3 SWAP1 MSTORE SWAP1 DUP2 KECCAK256 SLOAD PUSH1 0x1 SLOAD SWAP2 SWAP3 SWAP2 TIMESTAMP SWAP2 SWAP1 DUP5 SWAP1 PUSH1 0x64 SWAP1 PUSH2 0x1039 SWAP1 DUP5 SWAP1 PUSH2 0x3677 JUMP JUMPDEST PUSH2 0x1043 SWAP2 SWAP1 PUSH2 0x3696 JUMP JUMPDEST SWAP1 POP PUSH1 0x0 PUSH2 0x1054 PUSH3 0x80520 DUP4 PUSH2 0x3696 JUMP JUMPDEST SWAP1 POP PUSH1 0x0 PUSH1 0x3C PUSH2 0x1064 DUP8 DUP8 PUSH2 0x3774 JUMP JUMPDEST PUSH2 0x106E SWAP2 SWAP1 PUSH2 0x3696 JUMP JUMPDEST SWAP1 POP PUSH1 0x0 PUSH2 0x107C DUP4 DUP4 PUSH2 0x3677 JUMP JUMPDEST SWAP11 SWAP10 POP POP POP POP POP POP POP POP POP POP JUMP JUMPDEST PUSH1 0x0 SLOAD PUSH1 0x1 PUSH1 0x1 PUSH1 0xA0 SHL SUB AND CALLER EQ PUSH2 0x10B4 JUMPI PUSH1 0x40 MLOAD PUSH3 0x461BCD PUSH1 0xE5 SHL DUP2 MSTORE PUSH1 0x4 ADD PUSH2 0xAEA SWAP1 PUSH2 0x362C JUMP JUMPDEST PUSH1 0x6 SLOAD PUSH1 0x40 MLOAD PUSH4 0xA9059CBB PUSH1 0xE0 SHL DUP2 MSTORE PUSH1 0x1 PUSH1 0x1 PUSH1 0xA0 SHL SUB DUP4 AND SWAP2 PUSH4 0xA9059CBB SWAP2 PUSH2 0x10E3 SWAP2 CALLER SWAP2 PUSH1 0x4 ADD PUSH2 0x378B JUMP JUMPDEST PUSH1 0x20 PUSH1 0x40 MLOAD DUP1 DUP4 SUB DUP2 PUSH1 0x0 DUP8 GAS CALL ISZERO DUP1 ISZERO PUSH2 0x1102 JUMPI RETURNDATASIZE PUSH1 0x0 DUP1 RETURNDATACOPY RETURNDATASIZE PUSH1 0x0 REVERT JUMPDEST POP POP POP POP PUSH1 0x40 MLOAD RETURNDATASIZE PUSH1 0x1F NOT PUSH1 0x1F DUP3 ADD AND DUP3 ADD DUP1 PUSH1 0x40 MSTORE POP DUP2 ADD SWAP1 PUSH2 0x1126 SWAP2 SWAP1 PUSH2 0x3726 JUMP JUMPDEST POP POP PUSH1 0x0 PUSH1 0x6 SSTORE JUMP JUMPDEST CALLER PUSH1 0x0 SWAP1 DUP2 MSTORE PUSH1 0x14 PUSH1 0x20 SWAP1 DUP2 MSTORE PUSH1 0x40 DUP1 DUP4 KECCAK256 SLOAD PUSH1 0x16 SWAP1 SWAP3 MSTORE DUP3 KECCAK256 SLOAD SWAP1 SWAP2 PUSH2 0x1156 DUP3 DUP5 PUSH2 0x3774 JUMP JUMPDEST SWAP1 POP PUSH1 0x0 PUSH1 0x64 DUP5 PUSH1 0x17 SLOAD PUSH2 0x116A SWAP2 SWAP1 PUSH2 0x3677 JUMP JUMPDEST PUSH2 0x1174 SWAP2 SWAP1 PUSH2 0x3696 JUMP JUMPDEST SWAP1 POP PUSH1 0x0 PUSH2 0x1182 DUP5 DUP4 PUSH2 0x3774 JUMP JUMPDEST SWAP1 POP PUSH1 0x0 DUP2 GT PUSH2 0x1191 JUMPI PUSH1 0x0 DUP1 REVERT JUMPDEST DUP1 DUP7 GT ISZERO PUSH2 0x119E JUMPI PUSH1 0x0 DUP1 REVERT JUMPDEST DUP5 DUP5 LT PUSH2 0x11AA JUMPI PUSH1 0x0 DUP1 REVERT JUMPDEST PUSH1 0x0 DUP7 GT PUSH2 0x11CA JUMPI PUSH1 0x40 MLOAD PUSH3 0x461BCD PUSH1 0xE5 SHL DUP2 MSTORE PUSH1 0x4 ADD PUSH2 0xAEA SWAP1 PUSH2 0x36B8 JUMP JUMPDEST DUP6 DUP4 LT ISZERO PUSH2 0x122F JUMPI PUSH1 0x40 MLOAD PUSH3 0x461BCD PUSH1 0xE5 SHL DUP2 MSTORE PUSH1 0x20 PUSH1 0x4 DUP3 ADD MSTORE PUSH1 0x2C PUSH1 0x24 DUP3 ADD MSTORE PUSH32 0x596F7520646F6E2774206861766520656E6F7567682070757263686173656420 PUSH1 0x44 DUP3 ADD MSTORE PUSH12 0x746F6B656E73206C65667421 PUSH1 0xA0 SHL PUSH1 0x64 DUP3 ADD MSTORE PUSH1 0x84 ADD PUSH2 0xAEA JUMP JUMPDEST DUP5 PUSH2 0x123A DUP8 DUP7 PUSH2 0x3743 JUMP JUMPDEST LT PUSH2 0x1244 JUMPI PUSH1 0x0 DUP1 REVERT JUMPDEST PUSH1 0xF SLOAD PUSH1 0x40 MLOAD PUSH4 0xA9059CBB PUSH1 0xE0 SHL DUP2 MSTORE PUSH1 0x1 PUSH1 0x1 PUSH1 0xA0 SHL SUB SWAP1 SWAP2 AND SWAP1 PUSH4 0xA9059CBB SWAP1 PUSH2 0x1276 SWAP1 CALLER SWAP1 DUP11 SWAP1 PUSH1 0x4 ADD PUSH2 0x378B JUMP JUMPDEST PUSH1 0x20 PUSH1 0x40 MLOAD DUP1 DUP4 SUB DUP2 PUSH1 0x0 DUP8 GAS CALL ISZERO DUP1 ISZERO PUSH2 0x1295 JUMPI RETURNDATASIZE PUSH1 0x0 DUP1 RETURNDATACOPY RETURNDATASIZE PUSH1 0x0 REVERT JUMPDEST POP POP POP POP PUSH1 0x40 MLOAD RETURNDATASIZE PUSH1 0x1F NOT PUSH1 0x1F DUP3 ADD AND DUP3 ADD DUP1 PUSH1 0x40 MSTORE POP DUP2 ADD SWAP1 PUSH2 0x12B9 SWAP2 SWAP1 PUSH2 0x3726 JUMP JUMPDEST POP CALLER PUSH1 0x0 SWAP1 DUP2 MSTORE PUSH1 0x16 PUSH1 0x20 MSTORE PUSH1 0x40 SWAP1 KECCAK256 SLOAD PUSH2 0x12D5 SWAP1 DUP8 SWAP1 PUSH2 0x3743 JUMP JUMPDEST CALLER PUSH1 0x0 SWAP1 DUP2 MSTORE PUSH1 0x16 PUSH1 0x20 MSTORE PUSH1 0x40 SWAP1 KECCAK256 SSTORE POP POP POP POP POP POP JUMP JUMPDEST PUSH1 0x0 SLOAD PUSH1 0x1 PUSH1 0x1 PUSH1 0xA0 SHL SUB AND CALLER EQ PUSH2 0x1317 JUMPI PUSH1 0x40 MLOAD PUSH3 0x461BCD PUSH1 0xE5 SHL DUP2 MSTORE PUSH1 0x4 ADD PUSH2 0xAEA SWAP1 PUSH2 0x362C JUMP JUMPDEST PUSH1 0x0 SWAP2 DUP3 MSTORE PUSH1 0x25 PUSH1 0x20 MSTORE PUSH1 0x40 SWAP1 SWAP2 KECCAK256 DUP1 SLOAD PUSH1 0xFF NOT AND SWAP2 ISZERO ISZERO SWAP2 SWAP1 SWAP2 OR SWAP1 SSTORE JUMP JUMPDEST PUSH1 0x0 SLOAD PUSH1 0x1 PUSH1 0x1 PUSH1 0xA0 SHL SUB AND CALLER EQ PUSH2 0x1361 JUMPI PUSH1 0x40 MLOAD PUSH3 0x461BCD PUSH1 0xE5 SHL DUP2 MSTORE PUSH1 0x4 ADD PUSH2 0xAEA SWAP1 PUSH2 0x362C JUMP JUMPDEST PUSH1 0x15 SSTORE JUMP JUMPDEST PUSH1 0x0 DUP3 GT PUSH2 0x1386 JUMPI PUSH1 0x40 MLOAD PUSH3 0x461BCD PUSH1 0xE5 SHL DUP2 MSTORE PUSH1 0x4 ADD PUSH2 0xAEA SWAP1 PUSH2 0x36B8 JUMP JUMPDEST PUSH2 0x138F DUP2 PUSH2 0x2BAD JUMP JUMPDEST PUSH2 0x13AB JUMPI PUSH1 0x40 MLOAD PUSH3 0x461BCD PUSH1 0xE5 SHL DUP2 MSTORE PUSH1 0x4 ADD PUSH2 0xAEA SWAP1 PUSH2 0x36EF JUMP JUMPDEST PUSH1 0x40 MLOAD PUSH4 0x23B872DD PUSH1 0xE0 SHL DUP2 MSTORE CALLER PUSH1 0x4 DUP3 ADD MSTORE ADDRESS PUSH1 0x24 DUP3 ADD MSTORE PUSH1 0x44 DUP2 ADD DUP4 SWAP1 MSTORE PUSH1 0x1 PUSH1 0x1 PUSH1 0xA0 SHL SUB DUP3 AND SWAP1 PUSH4 0x23B872DD SWAP1 PUSH1 0x64 ADD PUSH1 0x20 PUSH1 0x40 MLOAD DUP1 DUP4 SUB DUP2 PUSH1 0x0 DUP8 GAS CALL ISZERO DUP1 ISZERO PUSH2 0x13FE JUMPI RETURNDATASIZE PUSH1 0x0 DUP1 RETURNDATACOPY RETURNDATASIZE PUSH1 0x0 REVERT JUMPDEST POP POP POP POP PUSH1 0x40 MLOAD RETURNDATASIZE PUSH1 0x1F NOT PUSH1 0x1F DUP3 ADD AND DUP3 ADD DUP1 PUSH1 0x40 MSTORE POP DUP2 ADD SWAP1 PUSH2 0x1422 SWAP2 SWAP1 PUSH2 0x3726 JUMP JUMPDEST POP PUSH1 0x40 MLOAD PUSH4 0x70A08231 PUSH1 0xE0 SHL DUP2 MSTORE ADDRESS PUSH1 0x4 DUP3 ADD MSTORE PUSH8 0xDE0B6B3A7640000 SWAP1 PUSH1 0x1 PUSH1 0x1 PUSH1 0xA0 SHL SUB DUP4 AND SWAP1 PUSH4 0x70A08231 SWAP1 PUSH1 0x24 ADD PUSH1 0x20 PUSH1 0x40 MLOAD DUP1 DUP4 SUB DUP2 DUP7 GAS STATICCALL ISZERO DUP1 ISZERO PUSH2 0x1471 JUMPI RETURNDATASIZE PUSH1 0x0 DUP1 RETURNDATACOPY RETURNDATASIZE PUSH1 0x0 REVERT JUMPDEST POP POP POP POP PUSH1 0x40 MLOAD RETURNDATASIZE PUSH1 0x1F NOT PUSH1 0x1F DUP3 ADD AND DUP3 ADD DUP1 PUSH1 0x40 MSTORE POP DUP2 ADD SWAP1 PUSH2 0x1495 SWAP2 SWAP1 PUSH2 0x375B JUMP JUMPDEST PUSH2 0x149F SWAP2 SWAP1 PUSH2 0x3696 JUMP JUMPDEST PUSH1 0x1D SSTORE PUSH2 0x14AC CALLER DUP3 PUSH2 0x3403 JUMP JUMPDEST PUSH1 0x1 PUSH1 0x1 PUSH1 0xA0 SHL SUB DUP2 AND PUSH1 0x0 SWAP1 DUP2 MSTORE PUSH1 0x10 PUSH1 0x20 SWAP1 DUP2 MSTORE PUSH1 0x40 DUP1 DUP4 KECCAK256 CALLER DUP5 MSTORE SWAP1 SWAP2 MSTORE SWAP1 KECCAK256 SLOAD PUSH2 0x14DB SWAP1 DUP4 SWAP1 PUSH2 0x3743 JUMP JUMPDEST PUSH1 0x1 PUSH1 0x1 PUSH1 0xA0 SHL SUB DUP3 AND PUSH1 0x0 SWAP1 DUP2 MSTORE PUSH1 0x10 PUSH1 0x20 SWAP1 DUP2 MSTORE PUSH1 0x40 DUP1 DUP4 KECCAK256 CALLER DUP5 MSTORE SWAP1 SWAP2 MSTORE SWAP1 KECCAK256 SSTORE PUSH1 0x15 SLOAD PUSH2 0x150C SWAP1 DUP4 PUSH2 0x3677 JUMP JUMPDEST CALLER PUSH1 0x0 SWAP1 DUP2 MSTORE PUSH1 0x14 PUSH1 0x20 MSTORE PUSH1 0x40 SWAP1 KECCAK256 SLOAD PUSH2 0x1526 SWAP2 SWAP1 PUSH2 0x3743 JUMP JUMPDEST CALLER PUSH1 0x0 SWAP1 DUP2 MSTORE PUSH1 0x14 PUSH1 0x20 SWAP1 DUP2 MSTORE PUSH1 0x40 DUP1 DUP4 KECCAK256 SWAP4 SWAP1 SWAP4 SSTORE PUSH1 0x1 PUSH1 0x1 PUSH1 0xA0 SHL SUB DUP5 AND DUP3 MSTORE PUSH1 0x11 SWAP1 MSTORE KECCAK256 SLOAD PUSH2 0x1559 SWAP1 DUP4 SWAP1 PUSH2 0x3743 JUMP JUMPDEST PUSH1 0x1 PUSH1 0x1 PUSH1 0xA0 SHL SUB DUP3 AND PUSH1 0x0 SWAP1 DUP2 MSTORE PUSH1 0x11 PUSH1 0x20 SWAP1 DUP2 MSTORE PUSH1 0x40 DUP1 DUP4 KECCAK256 SWAP4 SWAP1 SWAP4 SSTORE PUSH1 0x12 SWAP1 MSTORE KECCAK256 SLOAD PUSH2 0x1589 SWAP1 DUP4 SWAP1 PUSH2 0x3743 JUMP JUMPDEST PUSH1 0x1 PUSH1 0x1 PUSH1 0xA0 SHL SUB DUP3 AND PUSH1 0x0 SWAP1 DUP2 MSTORE PUSH1 0x12 PUSH1 0x20 MSTORE PUSH1 0x40 SWAP1 KECCAK256 SSTORE PUSH1 0x13 SLOAD PUSH2 0x15B0 SWAP1 DUP4 SWAP1 PUSH2 0x3743 JUMP JUMPDEST PUSH1 0x13 SSTORE CALLER PUSH1 0x0 SWAP1 DUP2 MSTORE PUSH1 0x1C PUSH1 0x20 MSTORE PUSH1 0x40 SWAP1 KECCAK256 SLOAD PUSH1 0x1 EQ ISZERO PUSH2 0xCF7 JUMPI PUSH1 0x19 DUP1 SLOAD PUSH1 0x1 DUP2 ADD DUP3 SSTORE PUSH1 0x0 SWAP2 SWAP1 SWAP2 MSTORE PUSH32 0x944998273E477B495144FB8794C914197F3CCB46BE2900F4698FD0EF743C9695 ADD DUP1 SLOAD PUSH1 0x1 PUSH1 0x1 PUSH1 0xA0 SHL SUB NOT AND CALLER OR SWAP1 SSTORE POP POP JUMP JUMPDEST PUSH1 0xD DUP2 DUP2 SLOAD DUP2 LT PUSH2 0xFD3 JUMPI PUSH1 0x0 DUP1 REVERT JUMPDEST PUSH1 0x0 SLOAD PUSH1 0x1 PUSH1 0x1 PUSH1 0xA0 SHL SUB AND CALLER EQ PUSH2 0x164B JUMPI PUSH1 0x40 MLOAD PUSH3 0x461BCD PUSH1 0xE5 SHL DUP2 MSTORE PUSH1 0x4 ADD PUSH2 0xAEA SWAP1 PUSH2 0x362C JUMP JUMPDEST PUSH1 0x0 JUMPDEST PUSH1 0xC SLOAD DUP2 LT ISZERO PUSH2 0x1718 JUMPI PUSH1 0x0 PUSH1 0xC DUP3 DUP2 SLOAD DUP2 LT PUSH2 0x166D JUMPI PUSH2 0x166D PUSH2 0x3894 JUMP JUMPDEST PUSH1 0x0 SWAP2 DUP3 MSTORE PUSH1 0x20 DUP3 KECCAK256 ADD SLOAD PUSH1 0x1 PUSH1 0x1 PUSH1 0xA0 SHL SUB AND SWAP2 POP PUSH2 0x168C DUP3 PUSH2 0x2AEF JUMP JUMPDEST PUSH1 0xE SLOAD PUSH1 0x40 MLOAD PUSH4 0xA9059CBB PUSH1 0xE0 SHL DUP2 MSTORE SWAP2 SWAP3 POP PUSH1 0x1 PUSH1 0x1 PUSH1 0xA0 SHL SUB AND SWAP1 PUSH4 0xA9059CBB SWAP1 PUSH2 0x16BF SWAP1 DUP6 SWAP1 DUP6 SWAP1 PUSH1 0x4 ADD PUSH2 0x378B JUMP JUMPDEST PUSH1 0x20 PUSH1 0x40 MLOAD DUP1 DUP4 SUB DUP2 PUSH1 0x0 DUP8 GAS CALL ISZERO DUP1 ISZERO PUSH2 0x16DE JUMPI RETURNDATASIZE PUSH1 0x0 DUP1 RETURNDATACOPY RETURNDATASIZE PUSH1 0x0 REVERT JUMPDEST POP POP POP POP PUSH1 0x40 MLOAD RETURNDATASIZE PUSH1 0x1F NOT PUSH1 0x1F DUP3 ADD AND DUP3 ADD DUP1 PUSH1 0x40 MSTORE POP DUP2 ADD SWAP1 PUSH2 0x1702 SWAP2 SWAP1 PUSH2 0x3726 JUMP JUMPDEST POP POP POP DUP1 DUP1 PUSH2 0x1710 SWAP1 PUSH2 0x38AA JUMP JUMPDEST SWAP2 POP POP PUSH2 0x164E JUMP JUMPDEST POP JUMP JUMPDEST PUSH1 0x0 SLOAD PUSH1 0x1 PUSH1 0x1 PUSH1 0xA0 SHL SUB AND CALLER EQ PUSH2 0x1745 JUMPI PUSH1 0x40 MLOAD PUSH3 0x461BCD PUSH1 0xE5 SHL DUP2 MSTORE PUSH1 0x4 ADD PUSH2 0xAEA SWAP1 PUSH2 0x362C JUMP JUMPDEST PUSH1 0x1A DUP1 SLOAD PUSH1 0x1 DUP2 ADD DUP3 SSTORE PUSH1 0x0 SWAP2 SWAP1 SWAP2 MSTORE PUSH32 0x57C384A7D1C54F3A1B2E5E67B2617B8224FDFD1EA7234EEA573A6FF665FF63E ADD DUP1 SLOAD PUSH1 0x1 PUSH1 0x1 PUSH1 0xA0 SHL SUB NOT AND PUSH1 0x1 PUSH1 0x1 PUSH1 0xA0 SHL SUB SWAP3 SWAP1 SWAP3 AND SWAP2 SWAP1 SWAP2 OR SWAP1 SSTORE JUMP JUMPDEST PUSH1 0x1 PUSH1 0x1 PUSH1 0xA0 SHL SUB DUP2 AND PUSH1 0x0 SWAP1 DUP2 MSTORE PUSH1 0x14 PUSH1 0x20 SWAP1 DUP2 MSTORE PUSH1 0x40 DUP1 DUP4 KECCAK256 SLOAD PUSH1 0x16 SWAP1 SWAP3 MSTORE DUP3 KECCAK256 SLOAD PUSH1 0x17 SLOAD DUP4 SWAP1 PUSH1 0x64 SWAP1 PUSH2 0x17CE SWAP1 DUP6 SWAP1 PUSH2 0x3677 JUMP JUMPDEST PUSH2 0x17D8 SWAP2 SWAP1 PUSH2 0x3696 JUMP JUMPDEST SWAP1 POP PUSH1 0x0 PUSH2 0x17E6 DUP4 DUP4 PUSH2 0x3774 JUMP JUMPDEST SWAP8 SWAP7 POP POP POP POP POP POP POP JUMP JUMPDEST PUSH1 0x0 SLOAD PUSH1 0x1 PUSH1 0x1 PUSH1 0xA0 SHL SUB AND CALLER EQ PUSH2 0x181B JUMPI PUSH1 0x40 MLOAD PUSH3 0x461BCD PUSH1 0xE5 SHL DUP2 MSTORE PUSH1 0x4 ADD PUSH2 0xAEA SWAP1 PUSH2 0x362C JUMP JUMPDEST PUSH1 0x40 MLOAD PUSH4 0x23B872DD PUSH1 0xE0 SHL DUP2 MSTORE CALLER PUSH1 0x4 DUP3 ADD MSTORE ADDRESS PUSH1 0x24 DUP3 ADD MSTORE PUSH1 0x44 DUP2 ADD DUP3 SWAP1 MSTORE PUSH1 0x1 PUSH1 0x1 PUSH1 0xA0 SHL SUB DUP4 AND SWAP1 PUSH4 0x23B872DD SWAP1 PUSH1 0x64 ADD JUMPDEST PUSH1 0x20 PUSH1 0x40 MLOAD DUP1 DUP4 SUB DUP2 PUSH1 0x0 DUP8 GAS CALL ISZERO DUP1 ISZERO PUSH2 0x186F JUMPI RETURNDATASIZE PUSH1 0x0 DUP1 RETURNDATACOPY RETURNDATASIZE PUSH1 0x0 REVERT JUMPDEST POP POP POP POP PUSH1 0x40 MLOAD RETURNDATASIZE PUSH1 0x1F NOT PUSH1 0x1F DUP3 ADD AND DUP3 ADD DUP1 PUSH1 0x40 MSTORE POP DUP2 ADD SWAP1 PUSH2 0x1893 SWAP2 SWAP1 PUSH2 0x3726 JUMP JUMPDEST POP POP POP JUMP JUMPDEST PUSH1 0x0 SLOAD PUSH1 0x1 PUSH1 0x1 PUSH1 0xA0 SHL SUB AND CALLER EQ PUSH2 0x18C2 JUMPI PUSH1 0x40 MLOAD PUSH3 0x461BCD PUSH1 0xE5 SHL DUP2 MSTORE PUSH1 0x4 ADD PUSH2 0xAEA SWAP1 PUSH2 0x362C JUMP JUMPDEST PUSH1 0xF DUP1 SLOAD PUSH1 0x1 PUSH1 0x1 PUSH1 0xA0 SHL SUB NOT AND PUSH1 0x1 PUSH1 0x1 PUSH1 0xA0 SHL SUB SWAP3 SWAP1 SWAP3 AND SWAP2 SWAP1 SWAP2 OR SWAP1 SSTORE JUMP JUMPDEST PUSH1 0x0 DUP1 PUSH2 0x18EF PUSH2 0x29A5 JUMP JUMPDEST SWAP1 POP PUSH1 0x0 PUSH8 0xDE0B6B3A7640000 PUSH2 0x1906 DUP6 DUP5 PUSH2 0x3677 JUMP JUMPDEST PUSH2 0x1910 SWAP2 SWAP1 PUSH2 0x3696 JUMP JUMPDEST SWAP5 SWAP4 POP POP POP POP JUMP JUMPDEST PUSH1 0x0 SLOAD PUSH1 0x1 PUSH1 0x1 PUSH1 0xA0 SHL SUB AND CALLER EQ PUSH2 0x1942 JUMPI PUSH1 0x40 MLOAD PUSH3 0x461BCD PUSH1 0xE5 SHL DUP2 MSTORE PUSH1 0x4 ADD PUSH2 0xAEA SWAP1 PUSH2 0x362C JUMP JUMPDEST PUSH2 0x194C PUSH1 0x0 PUSH2 0x346E JUMP JUMPDEST JUMP JUMPDEST PUSH1 0x0 DUP3 DUP2 MSTORE PUSH1 0x1F PUSH1 0x20 MSTORE PUSH1 0x40 SWAP1 KECCAK256 SLOAD PUSH1 0xFF AND ISZERO ISZERO PUSH1 0x1 EQ PUSH2 0x196E JUMPI PUSH1 0x0 DUP1 REVERT JUMPDEST PUSH1 0x1 PUSH1 0x1 PUSH1 0xA0 SHL SUB DUP2 AND PUSH1 0x0 SWAP1 DUP2 MSTORE PUSH1 0x2 PUSH1 0x20 SWAP1 DUP2 MSTORE PUSH1 0x40 DUP1 DUP4 KECCAK256 CALLER DUP5 MSTORE SWAP1 SWAP2 MSTORE SWAP1 KECCAK256 SLOAD PUSH9 0x5150AE84A8CDF00000 GT ISZERO PUSH2 0x19A7 JUMPI PUSH1 0x0 DUP1 REVERT JUMPDEST PUSH1 0x0 PUSH2 0x19B3 CALLER DUP4 PUSH2 0x1A55 JUMP JUMPDEST GT PUSH2 0x19BD JUMPI PUSH1 0x0 DUP1 REVERT JUMPDEST CALLER PUSH1 0x0 SWAP1 DUP2 MSTORE PUSH1 0x22 PUSH1 0x20 MSTORE PUSH1 0x40 SWAP1 KECCAK256 SLOAD PUSH1 0xFF AND ISZERO PUSH2 0x19DA JUMPI PUSH1 0x0 DUP1 REVERT JUMPDEST PUSH1 0x0 PUSH2 0x19E6 CALLER DUP4 PUSH2 0x1A55 JUMP JUMPDEST PUSH1 0x0 DUP2 DUP2 MSTORE PUSH1 0x21 PUSH1 0x20 MSTORE PUSH1 0x40 SWAP1 KECCAK256 SLOAD SWAP1 SWAP2 POP PUSH2 0x1A03 SWAP1 PUSH1 0x1 PUSH2 0x3743 JUMP JUMPDEST PUSH1 0x0 DUP3 DUP2 MSTORE PUSH1 0x21 PUSH1 0x20 SWAP1 DUP2 MSTORE PUSH1 0x40 DUP1 DUP4 KECCAK256 SWAP4 SWAP1 SWAP4 SSTORE CALLER DUP3 MSTORE PUSH1 0x23 SWAP1 MSTORE KECCAK256 SSTORE POP POP JUMP JUMPDEST PUSH1 0x0 DUP1 PUSH2 0x1A32 DUP5 DUP5 PUSH2 0xFED JUMP JUMPDEST PUSH1 0x1 PUSH1 0x1 PUSH1 0xA0 SHL SUB DUP6 AND PUSH1 0x0 SWAP1 DUP2 MSTORE PUSH1 0x4 PUSH1 0x20 MSTORE PUSH1 0x40 SWAP1 KECCAK256 SLOAD PUSH2 0x1910 SWAP2 SWAP1 PUSH2 0x3743 JUMP JUMPDEST PUSH1 0x20 SLOAD PUSH1 0x0 SWAP1 DUP2 SWAP1 PUSH2 0x1A68 SWAP1 PUSH1 0x96 PUSH2 0x3677 JUMP JUMPDEST PUSH2 0x1A7A SWAP1 PUSH8 0xDE0B6B3A7640000 PUSH2 0x3677 JUMP JUMPDEST PUSH1 0x1 PUSH1 0x1 PUSH1 0xA0 SHL SUB DUP1 DUP6 AND PUSH1 0x0 SWAP1 DUP2 MSTORE PUSH1 0x2 PUSH1 0x20 SWAP1 DUP2 MSTORE PUSH1 0x40 DUP1 DUP4 KECCAK256 SWAP4 DUP10 AND DUP4 MSTORE SWAP3 SWAP1 MSTORE KECCAK256 SLOAD LT PUSH2 0x1AAF JUMPI POP PUSH1 0x1C SWAP1 POP PUSH2 0xFBD JUMP JUMPDEST PUSH1 0x20 SLOAD PUSH2 0x1ABD SWAP1 PUSH1 0x8C PUSH2 0x3677 JUMP JUMPDEST PUSH2 0x1ACF SWAP1 PUSH8 0xDE0B6B3A7640000 PUSH2 0x3677 JUMP JUMPDEST PUSH1 0x1 PUSH1 0x1 PUSH1 0xA0 SHL SUB DUP1 DUP6 AND PUSH1 0x0 SWAP1 DUP2 MSTORE PUSH1 0x2 PUSH1 0x20 SWAP1 DUP2 MSTORE PUSH1 0x40 DUP1 DUP4 KECCAK256 SWAP4 DUP10 AND DUP4 MSTORE SWAP3 SWAP1 MSTORE KECCAK256 SLOAD LT PUSH2 0x1B04 JUMPI POP PUSH1 0x1B SWAP1 POP PUSH2 0xFBD JUMP JUMPDEST PUSH1 0x20 SLOAD PUSH2 0x1B12 SWAP1 PUSH1 0x82 PUSH2 0x3677 JUMP JUMPDEST PUSH2 0x1B24 SWAP1 PUSH8 0xDE0B6B3A7640000 PUSH2 0x3677 JUMP JUMPDEST PUSH1 0x1 PUSH1 0x1 PUSH1 0xA0 SHL SUB DUP1 DUP6 AND PUSH1 0x0 SWAP1 DUP2 MSTORE PUSH1 0x2 PUSH1 0x20 SWAP1 DUP2 MSTORE PUSH1 0x40 DUP1 DUP4 KECCAK256 SWAP4 DUP10 AND DUP4 MSTORE SWAP3 SWAP1 MSTORE KECCAK256 SLOAD LT PUSH2 0x1B59 JUMPI POP PUSH1 0x1A SWAP1 POP PUSH2 0xFBD JUMP JUMPDEST PUSH1 0x20 SLOAD PUSH2 0x1B67 SWAP1 PUSH1 0x78 PUSH2 0x3677 JUMP JUMPDEST PUSH2 0x1B79 SWAP1 PUSH8 0xDE0B6B3A7640000 PUSH2 0x3677 JUMP JUMPDEST PUSH1 0x1 PUSH1 0x1 PUSH1 0xA0 SHL SUB DUP1 DUP6 AND PUSH1 0x0 SWAP1 DUP2 MSTORE PUSH1 0x2 PUSH1 0x20 SWAP1 DUP2 MSTORE PUSH1 0x40 DUP1 DUP4 KECCAK256 SWAP4 DUP10 AND DUP4 MSTORE SWAP3 SWAP1 MSTORE KECCAK256 SLOAD LT PUSH2 0x1BAE JUMPI POP PUSH1 0x19 SWAP1 POP PUSH2 0xFBD JUMP JUMPDEST PUSH1 0x20 SLOAD PUSH2 0x1BBC SWAP1 PUSH1 0x6E PUSH2 0x3677 JUMP JUMPDEST PUSH2 0x1BCE SWAP1 PUSH8 0xDE0B6B3A7640000 PUSH2 0x3677 JUMP JUMPDEST PUSH1 0x1 PUSH1 0x1 PUSH1 0xA0 SHL SUB DUP1 DUP6 AND PUSH1 0x0 SWAP1 DUP2 MSTORE PUSH1 0x2 PUSH1 0x20 SWAP1 DUP2 MSTORE PUSH1 0x40 DUP1 DUP4 KECCAK256 SWAP4 DUP10 AND DUP4 MSTORE SWAP3 SWAP1 MSTORE KECCAK256 SLOAD LT PUSH2 0x1C03 JUMPI POP PUSH1 0x18 SWAP1 POP PUSH2 0xFBD JUMP JUMPDEST PUSH1 0x20 SLOAD PUSH2 0x1C11 SWAP1 PUSH1 0x64 PUSH2 0x3677 JUMP JUMPDEST PUSH2 0x1C23 SWAP1 PUSH8 0xDE0B6B3A7640000 PUSH2 0x3677 JUMP JUMPDEST PUSH1 0x1 PUSH1 0x1 PUSH1 0xA0 SHL SUB DUP1 DUP6 AND PUSH1 0x0 SWAP1 DUP2 MSTORE PUSH1 0x2 PUSH1 0x20 SWAP1 DUP2 MSTORE PUSH1 0x40 DUP1 DUP4 KECCAK256 SWAP4 DUP10 AND DUP4 MSTORE SWAP3 SWAP1 MSTORE KECCAK256 SLOAD LT PUSH2 0x1C58 JUMPI POP PUSH1 0x17 SWAP1 POP PUSH2 0xFBD JUMP JUMPDEST PUSH1 0x20 SLOAD PUSH2 0x1C66 SWAP1 PUSH1 0x5A PUSH2 0x3677 JUMP JUMPDEST PUSH2 0x1C78 SWAP1 PUSH8 0xDE0B6B3A7640000 PUSH2 0x3677 JUMP JUMPDEST PUSH1 0x1 PUSH1 0x1 PUSH1 0xA0 SHL SUB DUP1 DUP6 AND PUSH1 0x0 SWAP1 DUP2 MSTORE PUSH1 0x2 PUSH1 0x20 SWAP1 DUP2 MSTORE PUSH1 0x40 DUP1 DUP4 KECCAK256 SWAP4 DUP10 AND DUP4 MSTORE SWAP3 SWAP1 MSTORE KECCAK256 SLOAD LT PUSH2 0x1CAD JUMPI POP PUSH1 0x16 SWAP1 POP PUSH2 0xFBD JUMP JUMPDEST PUSH1 0x20 SLOAD PUSH2 0x1CBB SWAP1 PUSH1 0x50 PUSH2 0x3677 JUMP JUMPDEST PUSH2 0x1CCD SWAP1 PUSH8 0xDE0B6B3A7640000 PUSH2 0x3677 JUMP JUMPDEST PUSH1 0x1 PUSH1 0x1 PUSH1 0xA0 SHL SUB DUP1 DUP6 AND PUSH1 0x0 SWAP1 DUP2 MSTORE PUSH1 0x2 PUSH1 0x20 SWAP1 DUP2 MSTORE PUSH1 0x40 DUP1 DUP4 KECCAK256 SWAP4 DUP10 AND DUP4 MSTORE SWAP3 SWAP1 MSTORE KECCAK256 SLOAD LT PUSH2 0x1D02 JUMPI POP PUSH1 0x15 SWAP1 POP PUSH2 0xFBD JUMP JUMPDEST PUSH1 0x20 SLOAD PUSH2 0x1D10 SWAP1 PUSH1 0x46 PUSH2 0x3677 JUMP JUMPDEST PUSH2 0x1D22 SWAP1 PUSH8 0xDE0B6B3A7640000 PUSH2 0x3677 JUMP JUMPDEST PUSH1 0x1 PUSH1 0x1 PUSH1 0xA0 SHL SUB DUP1 DUP6 AND PUSH1 0x0 SWAP1 DUP2 MSTORE PUSH1 0x2 PUSH1 0x20 SWAP1 DUP2 MSTORE PUSH1 0x40 DUP1 DUP4 KECCAK256 SWAP4 DUP10 AND DUP4 MSTORE SWAP3 SWAP1 MSTORE KECCAK256 SLOAD LT PUSH2 0x1D57 JUMPI POP PUSH1 0x14 SWAP1 POP PUSH2 0xFBD JUMP JUMPDEST PUSH1 0x20 SLOAD PUSH2 0x1D65 SWAP1 PUSH1 0x3C PUSH2 0x3677 JUMP JUMPDEST PUSH2 0x1D77 SWAP1 PUSH8 0xDE0B6B3A7640000 PUSH2 0x3677 JUMP JUMPDEST PUSH1 0x1 PUSH1 0x1 PUSH1 0xA0 SHL SUB DUP1 DUP6 AND PUSH1 0x0 SWAP1 DUP2 MSTORE PUSH1 0x2 PUSH1 0x20 SWAP1 DUP2 MSTORE PUSH1 0x40 DUP1 DUP4 KECCAK256 SWAP4 DUP10 AND DUP4 MSTORE SWAP3 SWAP1 MSTORE KECCAK256 SLOAD LT PUSH2 0x1DAC JUMPI POP PUSH1 0x13 SWAP1 POP PUSH2 0xFBD JUMP JUMPDEST PUSH1 0x20 SLOAD PUSH2 0x1DBA SWAP1 PUSH1 0x32 PUSH2 0x3677 JUMP JUMPDEST PUSH2 0x1DCC SWAP1 PUSH8 0xDE0B6B3A7640000 PUSH2 0x3677 JUMP JUMPDEST PUSH1 0x1 PUSH1 0x1 PUSH1 0xA0 SHL SUB DUP1 DUP6 AND PUSH1 0x0 SWAP1 DUP2 MSTORE PUSH1 0x2 PUSH1 0x20 SWAP1 DUP2 MSTORE PUSH1 0x40 DUP1 DUP4 KECCAK256 SWAP4 DUP10 AND DUP4 MSTORE SWAP3 SWAP1 MSTORE KECCAK256 SLOAD LT PUSH2 0x1E01 JUMPI POP PUSH1 0x12 SWAP1 POP PUSH2 0xFBD JUMP JUMPDEST PUSH1 0x20 SLOAD PUSH2 0x1E0F SWAP1 PUSH1 0x2D PUSH2 0x3677 JUMP JUMPDEST PUSH2 0x1E21 SWAP1 PUSH8 0xDE0B6B3A7640000 PUSH2 0x3677 JUMP JUMPDEST PUSH1 0x1 PUSH1 0x1 PUSH1 0xA0 SHL SUB DUP1 DUP6 AND PUSH1 0x0 SWAP1 DUP2 MSTORE PUSH1 0x2 PUSH1 0x20 SWAP1 DUP2 MSTORE PUSH1 0x40 DUP1 DUP4 KECCAK256 SWAP4 DUP10 AND DUP4 MSTORE SWAP3 SWAP1 MSTORE KECCAK256 SLOAD LT PUSH2 0x1E56 JUMPI POP PUSH1 0x11 SWAP1 POP PUSH2 0xFBD JUMP JUMPDEST PUSH1 0x20 SLOAD PUSH2 0x1E64 SWAP1 PUSH1 0x28 PUSH2 0x3677 JUMP JUMPDEST PUSH2 0x1E76 SWAP1 PUSH8 0xDE0B6B3A7640000 PUSH2 0x3677 JUMP JUMPDEST PUSH1 0x1 PUSH1 0x1 PUSH1 0xA0 SHL SUB DUP1 DUP6 AND PUSH1 0x0 SWAP1 DUP2 MSTORE PUSH1 0x2 PUSH1 0x20 SWAP1 DUP2 MSTORE PUSH1 0x40 DUP1 DUP4 KECCAK256 SWAP4 DUP10 AND DUP4 MSTORE SWAP3 SWAP1 MSTORE KECCAK256 SLOAD LT PUSH2 0x1EAB JUMPI POP PUSH1 0x10 SWAP1 POP PUSH2 0xFBD JUMP JUMPDEST PUSH1 0x20 SLOAD PUSH2 0x1EB9 SWAP1 PUSH1 0x23 PUSH2 0x3677 JUMP JUMPDEST PUSH2 0x1ECB SWAP1 PUSH8 0xDE0B6B3A7640000 PUSH2 0x3677 JUMP JUMPDEST PUSH1 0x1 PUSH1 0x1 PUSH1 0xA0 SHL SUB DUP1 DUP6 AND PUSH1 0x0 SWAP1 DUP2 MSTORE PUSH1 0x2 PUSH1 0x20 SWAP1 DUP2 MSTORE PUSH1 0x40 DUP1 DUP4 KECCAK256 SWAP4 DUP10 AND DUP4 MSTORE SWAP3 SWAP1 MSTORE KECCAK256 SLOAD LT PUSH2 0x1F00 JUMPI POP PUSH1 0xF SWAP1 POP PUSH2 0xFBD JUMP JUMPDEST PUSH1 0x20 SLOAD PUSH2 0x1F0E SWAP1 PUSH1 0x1E PUSH2 0x3677 JUMP JUMPDEST PUSH2 0x1F20 SWAP1 PUSH8 0xDE0B6B3A7640000 PUSH2 0x3677 JUMP JUMPDEST PUSH1 0x1 PUSH1 0x1 PUSH1 0xA0 SHL SUB DUP1 DUP6 AND PUSH1 0x0 SWAP1 DUP2 MSTORE PUSH1 0x2 PUSH1 0x20 SWAP1 DUP2 MSTORE PUSH1 0x40 DUP1 DUP4 KECCAK256 SWAP4 DUP10 AND DUP4 MSTORE SWAP3 SWAP1 MSTORE KECCAK256 SLOAD LT PUSH2 0x1F55 JUMPI POP PUSH1 0xE SWAP1 POP PUSH2 0xFBD JUMP JUMPDEST PUSH1 0x20 SLOAD PUSH2 0x1F63 SWAP1 PUSH1 0x19 PUSH2 0x3677 JUMP JUMPDEST PUSH2 0x1F75 SWAP1 PUSH8 0xDE0B6B3A7640000 PUSH2 0x3677 JUMP JUMPDEST PUSH1 0x1 PUSH1 0x1 PUSH1 0xA0 SHL SUB DUP1 DUP6 AND PUSH1 0x0 SWAP1 DUP2 MSTORE PUSH1 0x2 PUSH1 0x20 SWAP1 DUP2 MSTORE PUSH1 0x40 DUP1 DUP4 KECCAK256 SWAP4 DUP10 AND DUP4 MSTORE SWAP3 SWAP1 MSTORE KECCAK256 SLOAD LT PUSH2 0x1FAA JUMPI POP PUSH1 0xD SWAP1 POP PUSH2 0xFBD JUMP JUMPDEST PUSH1 0x20 SLOAD PUSH2 0x1FB8 SWAP1 PUSH1 0x14 PUSH2 0x3677 JUMP JUMPDEST PUSH2 0x1FCA SWAP1 PUSH8 0xDE0B6B3A7640000 PUSH2 0x3677 JUMP JUMPDEST PUSH1 0x1 PUSH1 0x1 PUSH1 0xA0 SHL SUB DUP1 DUP6 AND PUSH1 0x0 SWAP1 DUP2 MSTORE PUSH1 0x2 PUSH1 0x20 SWAP1 DUP2 MSTORE PUSH1 0x40 DUP1 DUP4 KECCAK256 SWAP4 DUP10 AND DUP4 MSTORE SWAP3 SWAP1 MSTORE KECCAK256 SLOAD LT PUSH2 0x1FFF JUMPI POP PUSH1 0xC SWAP1 POP PUSH2 0xFBD JUMP JUMPDEST PUSH1 0x20 SLOAD PUSH2 0x200D SWAP1 PUSH1 0xF PUSH2 0x3677 JUMP JUMPDEST PUSH2 0x201F SWAP1 PUSH8 0xDE0B6B3A7640000 PUSH2 0x3677 JUMP JUMPDEST PUSH1 0x1 PUSH1 0x1 PUSH1 0xA0 SHL SUB DUP1 DUP6 AND PUSH1 0x0 SWAP1 DUP2 MSTORE PUSH1 0x2 PUSH1 0x20 SWAP1 DUP2 MSTORE PUSH1 0x40 DUP1 DUP4 KECCAK256 SWAP4 DUP10 AND DUP4 MSTORE SWAP3 SWAP1 MSTORE KECCAK256 SLOAD LT PUSH2 0x2054 JUMPI POP PUSH1 0xB SWAP1 POP PUSH2 0xFBD JUMP JUMPDEST PUSH1 0x20 SLOAD PUSH2 0x2062 SWAP1 PUSH1 0xA PUSH2 0x3677 JUMP JUMPDEST PUSH2 0x2074 SWAP1 PUSH8 0xDE0B6B3A7640000 PUSH2 0x3677 JUMP JUMPDEST PUSH1 0x1 PUSH1 0x1 PUSH1 0xA0 SHL SUB DUP1 DUP6 AND PUSH1 0x0 SWAP1 DUP2 MSTORE PUSH1 0x2 PUSH1 0x20 SWAP1 DUP2 MSTORE PUSH1 0x40 DUP1 DUP4 KECCAK256 SWAP4 DUP10 AND DUP4 MSTORE SWAP3 SWAP1 MSTORE KECCAK256 SLOAD LT PUSH2 0x20A9 JUMPI POP PUSH1 0xA SWAP1 POP PUSH2 0xFBD JUMP JUMPDEST PUSH1 0x20 SLOAD PUSH2 0x20B7 SWAP1 PUSH1 0x9 PUSH2 0x3677 JUMP JUMPDEST PUSH2 0x20C9 SWAP1 PUSH8 0xDE0B6B3A7640000 PUSH2 0x3677 JUMP JUMPDEST PUSH1 0x1 PUSH1 0x1 PUSH1 0xA0 SHL SUB DUP1 DUP6 AND PUSH1 0x0 SWAP1 DUP2 MSTORE PUSH1 0x2 PUSH1 0x20 SWAP1 DUP2 MSTORE PUSH1 0x40 DUP1 DUP4 KECCAK256 SWAP4 DUP10 AND DUP4 MSTORE SWAP3 SWAP1 MSTORE KECCAK256 SLOAD LT PUSH2 0x20FE JUMPI POP PUSH1 0x9 SWAP1 POP PUSH2 0xFBD JUMP JUMPDEST PUSH1 0x20 SLOAD PUSH2 0x210C SWAP1 PUSH1 0x8 PUSH2 0x3677 JUMP JUMPDEST PUSH2 0x211E SWAP1 PUSH8 0xDE0B6B3A7640000 PUSH2 0x3677 JUMP JUMPDEST PUSH1 0x1 PUSH1 0x1 PUSH1 0xA0 SHL SUB DUP1 DUP6 AND PUSH1 0x0 SWAP1 DUP2 MSTORE PUSH1 0x2 PUSH1 0x20 SWAP1 DUP2 MSTORE PUSH1 0x40 DUP1 DUP4 KECCAK256 SWAP4 DUP10 AND DUP4 MSTORE SWAP3 SWAP1 MSTORE KECCAK256 SLOAD LT PUSH2 0x2153 JUMPI POP PUSH1 0x8 SWAP1 POP PUSH2 0xFBD JUMP JUMPDEST PUSH1 0x20 SLOAD PUSH2 0x2161 SWAP1 PUSH1 0x7 PUSH2 0x3677 JUMP JUMPDEST PUSH2 0x2173 SWAP1 PUSH8 0xDE0B6B3A7640000 PUSH2 0x3677 JUMP JUMPDEST PUSH1 0x1 PUSH1 0x1 PUSH1 0xA0 SHL SUB DUP1 DUP6 AND PUSH1 0x0 SWAP1 DUP2 MSTORE PUSH1 0x2 PUSH1 0x20 SWAP1 DUP2 MSTORE PUSH1 0x40 DUP1 DUP4 KECCAK256 SWAP4 DUP10 AND DUP4 MSTORE SWAP3 SWAP1 MSTORE KECCAK256 SLOAD LT PUSH2 0x21A8 JUMPI POP PUSH1 0x7 SWAP1 POP PUSH2 0xFBD JUMP JUMPDEST PUSH1 0x20 SLOAD PUSH2 0x21B6 SWAP1 PUSH1 0x6 PUSH2 0x3677 JUMP JUMPDEST PUSH2 0x21C8 SWAP1 PUSH8 0xDE0B6B3A7640000 PUSH2 0x3677 JUMP JUMPDEST PUSH1 0x1 PUSH1 0x1 PUSH1 0xA0 SHL SUB DUP1 DUP6 AND PUSH1 0x0 SWAP1 DUP2 MSTORE PUSH1 0x2 PUSH1 0x20 SWAP1 DUP2 MSTORE PUSH1 0x40 DUP1 DUP4 KECCAK256 SWAP4 DUP10 AND DUP4 MSTORE SWAP3 SWAP1 MSTORE KECCAK256 SLOAD LT PUSH2 0x21FD JUMPI POP PUSH1 0x6 SWAP1 POP PUSH2 0xFBD JUMP JUMPDEST PUSH1 0x20 SLOAD PUSH2 0x220B SWAP1 PUSH1 0x5 PUSH2 0x3677 JUMP JUMPDEST PUSH2 0x221D SWAP1 PUSH8 0xDE0B6B3A7640000 PUSH2 0x3677 JUMP JUMPDEST PUSH1 0x1 PUSH1 0x1 PUSH1 0xA0 SHL SUB DUP1 DUP6 AND PUSH1 0x0 SWAP1 DUP2 MSTORE PUSH1 0x2 PUSH1 0x20 SWAP1 DUP2 MSTORE PUSH1 0x40 DUP1 DUP4 KECCAK256 SWAP4 DUP10 AND DUP4 MSTORE SWAP3 SWAP1 MSTORE KECCAK256 SLOAD LT PUSH2 0x2252 JUMPI POP PUSH1 0x5 SWAP1 POP PUSH2 0xFBD JUMP JUMPDEST PUSH1 0x20 SLOAD PUSH2 0x2260 SWAP1 PUSH1 0x4 PUSH2 0x3677 JUMP JUMPDEST PUSH2 0x2272 SWAP1 PUSH8 0xDE0B6B3A7640000 PUSH2 0x3677 JUMP JUMPDEST PUSH1 0x1 PUSH1 0x1 PUSH1 0xA0 SHL SUB DUP1 DUP6 AND PUSH1 0x0 SWAP1 DUP2 MSTORE PUSH1 0x2 PUSH1 0x20 SWAP1 DUP2 MSTORE PUSH1 0x40 DUP1 DUP4 KECCAK256 SWAP4 DUP10 AND DUP4 MSTORE SWAP3 SWAP1 MSTORE KECCAK256 SLOAD LT PUSH2 0x22A7 JUMPI POP PUSH1 0x4 SWAP1 POP PUSH2 0xFBD JUMP JUMPDEST PUSH1 0x20 SLOAD PUSH2 0x22B5 SWAP1 PUSH1 0x3 PUSH2 0x3677 JUMP JUMPDEST PUSH2 0x22C7 SWAP1 PUSH8 0xDE0B6B3A7640000 PUSH2 0x3677 JUMP JUMPDEST PUSH1 0x1 PUSH1 0x1 PUSH1 0xA0 SHL SUB DUP1 DUP6 AND PUSH1 0x0 SWAP1 DUP2 MSTORE PUSH1 0x2 PUSH1 0x20 SWAP1 DUP2 MSTORE PUSH1 0x40 DUP1 DUP4 KECCAK256 SWAP4 DUP10 AND DUP4 MSTORE SWAP3 SWAP1 MSTORE KECCAK256 SLOAD LT PUSH2 0x22FC JUMPI POP PUSH1 0x3 SWAP1 POP PUSH2 0xFBD JUMP JUMPDEST PUSH1 0x20 SLOAD PUSH2 0x230A SWAP1 PUSH1 0x2 PUSH2 0x3677 JUMP JUMPDEST PUSH2 0x231C SWAP1 PUSH8 0xDE0B6B3A7640000 PUSH2 0x3677 JUMP JUMPDEST PUSH1 0x1 PUSH1 0x1 PUSH1 0xA0 SHL SUB DUP1 DUP6 AND PUSH1 0x0 SWAP1 DUP2 MSTORE PUSH1 0x2 PUSH1 0x20 SWAP1 DUP2 MSTORE PUSH1 0x40 DUP1 DUP4 KECCAK256 SWAP4 DUP10 AND DUP4 MSTORE SWAP3 SWAP1 MSTORE KECCAK256 SLOAD LT PUSH2 0x2351 JUMPI POP PUSH1 0x2 SWAP1 POP PUSH2 0xFBD JUMP JUMPDEST PUSH1 0x20 SLOAD PUSH2 0x235F SWAP1 PUSH1 0x1 PUSH2 0x3677 JUMP JUMPDEST PUSH2 0x2371 SWAP1 PUSH8 0xDE0B6B3A7640000 PUSH2 0x3677 JUMP JUMPDEST PUSH1 0x1 PUSH1 0x1 PUSH1 0xA0 SHL SUB DUP1 DUP6 AND PUSH1 0x0 SWAP1 DUP2 MSTORE PUSH1 0x2 PUSH1 0x20 SWAP1 DUP2 MSTORE PUSH1 0x40 DUP1 DUP4 KECCAK256 SWAP4 DUP10 AND DUP4 MSTORE SWAP3 SWAP1 MSTORE KECCAK256 SLOAD LT PUSH2 0x23A6 JUMPI POP PUSH1 0x1 SWAP1 POP PUSH2 0xFBD JUMP JUMPDEST POP PUSH1 0x0 SWAP1 POP PUSH2 0xFBD JUMP JUMPDEST PUSH1 0x0 SLOAD PUSH1 0x1 PUSH1 0x1 PUSH1 0xA0 SHL SUB AND CALLER EQ PUSH2 0x23DA JUMPI PUSH1 0x40 MLOAD PUSH3 0x461BCD PUSH1 0xE5 SHL DUP2 MSTORE PUSH1 0x4 ADD PUSH2 0xAEA SWAP1 PUSH2 0x362C JUMP JUMPDEST PUSH1 0x1 PUSH1 0x1 PUSH1 0xA0 SHL SUB DUP2 AND PUSH1 0x0 DUP2 DUP2 MSTORE PUSH1 0x11 PUSH1 0x20 MSTORE PUSH1 0x40 SWAP1 DUP2 SWAP1 KECCAK256 SLOAD SWAP1 MLOAD PUSH4 0xA9059CBB PUSH1 0xE0 SHL DUP2 MSTORE SWAP1 SWAP2 SWAP1 PUSH4 0xA9059CBB SWAP1 PUSH2 0x241A SWAP1 CALLER SWAP1 DUP6 SWAP1 PUSH1 0x4 ADD PUSH2 0x378B JUMP JUMPDEST PUSH1 0x20 PUSH1 0x40 MLOAD DUP1 DUP4 SUB DUP2 PUSH1 0x0 DUP8 GAS CALL ISZERO DUP1 ISZERO PUSH2 0x2439 JUMPI RETURNDATASIZE PUSH1 0x0 DUP1 RETURNDATACOPY RETURNDATASIZE PUSH1 0x0 REVERT JUMPDEST POP POP POP POP PUSH1 0x40 MLOAD RETURNDATASIZE PUSH1 0x1F NOT PUSH1 0x1F DUP3 ADD AND DUP3 ADD DUP1 PUSH1 0x40 MSTORE POP DUP2 ADD SWAP1 PUSH2 0x245D SWAP2 SWAP1 PUSH2 0x3726 JUMP JUMPDEST POP PUSH1 0x40 MLOAD PUSH4 0x70A08231 PUSH1 0xE0 SHL DUP2 MSTORE ADDRESS PUSH1 0x4 DUP3 ADD MSTORE PUSH8 0xDE0B6B3A7640000 SWAP1 PUSH1 0x1 PUSH1 0x1 PUSH1 0xA0 SHL SUB DUP5 AND SWAP1 PUSH4 0x70A08231 SWAP1 PUSH1 0x24 ADD PUSH1 0x20 PUSH1 0x40 MLOAD DUP1 DUP4 SUB DUP2 DUP7 GAS STATICCALL ISZERO DUP1 ISZERO PUSH2 0x24AC JUMPI RETURNDATASIZE PUSH1 0x0 DUP1 RETURNDATACOPY RETURNDATASIZE PUSH1 0x0 REVERT JUMPDEST POP POP POP POP PUSH1 0x40 MLOAD RETURNDATASIZE PUSH1 0x1F NOT PUSH1 0x1F DUP3 ADD AND DUP3 ADD DUP1 PUSH1 0x40 MSTORE POP DUP2 ADD SWAP1 PUSH2 0x24D0 SWAP2 SWAP1 PUSH2 0x375B JUMP JUMPDEST PUSH2 0x24DA SWAP2 SWAP1 PUSH2 0x3696 JUMP JUMPDEST PUSH1 0x1D SSTORE POP PUSH1 0x1 PUSH1 0x1 PUSH1 0xA0 SHL SUB AND PUSH1 0x0 SWAP1 DUP2 MSTORE PUSH1 0x11 PUSH1 0x20 MSTORE PUSH1 0x40 DUP2 KECCAK256 SSTORE JUMP JUMPDEST PUSH1 0x1 PUSH1 0x1 PUSH1 0xA0 SHL SUB DUP2 AND PUSH1 0x0 SWAP1 DUP2 MSTORE PUSH1 0x2 PUSH1 0x20 SWAP1 DUP2 MSTORE PUSH1 0x40 DUP1 DUP4 KECCAK256 CALLER DUP5 MSTORE SWAP1 SWAP2 MSTORE SWAP1 KECCAK256 SLOAD DUP3 PUSH2 0x2539 JUMPI PUSH1 0x40 MLOAD PUSH3 0x461BCD PUSH1 0xE5 SHL DUP2 MSTORE PUSH1 0x4 ADD PUSH2 0xAEA SWAP1 PUSH2 0x36B8 JUMP JUMPDEST DUP3 DUP2 LT ISZERO PUSH2 0x2595 JUMPI PUSH1 0x40 MLOAD PUSH3 0x461BCD PUSH1 0xE5 SHL DUP2 MSTORE PUSH1 0x20 PUSH1 0x4 DUP3 ADD MSTORE PUSH1 0x23 PUSH1 0x24 DUP3 ADD MSTORE PUSH32 0x596F7520646F6E2774206861766520656E6F756768207374616B656420746F6B PUSH1 0x44 DUP3 ADD MSTORE PUSH3 0x656E73 PUSH1 0xE8 SHL PUSH1 0x64 DUP3 ADD MSTORE PUSH1 0x84 ADD PUSH2 0xAEA JUMP JUMPDEST PUSH2 0x259E DUP3 PUSH2 0x2F8F JUMP JUMPDEST PUSH2 0x25BA JUMPI PUSH1 0x40 MLOAD PUSH3 0x461BCD PUSH1 0xE5 SHL DUP2 MSTORE PUSH1 0x4 ADD PUSH2 0xAEA SWAP1 PUSH2 0x36EF JUMP JUMPDEST CALLER PUSH1 0x0 SWAP1 DUP2 MSTORE PUSH1 0x5 PUSH1 0x20 MSTORE PUSH1 0x40 SWAP1 KECCAK256 SLOAD TIMESTAMP SWAP1 PUSH2 0x25D9 SWAP1 PUSH3 0x49D400 PUSH2 0x3743 JUMP JUMPDEST DUP2 LT ISZERO PUSH2 0x2727 JUMPI CALLER PUSH1 0x0 SWAP1 DUP2 MSTORE PUSH1 0x5 PUSH1 0x20 MSTORE PUSH1 0x40 SWAP1 KECCAK256 SLOAD PUSH2 0x25FD SWAP1 PUSH3 0x375F00 PUSH2 0x3743 JUMP JUMPDEST DUP2 LT ISZERO PUSH2 0x2718 JUMPI CALLER PUSH1 0x0 SWAP1 DUP2 MSTORE PUSH1 0x5 PUSH1 0x20 MSTORE PUSH1 0x40 SWAP1 KECCAK256 SLOAD PUSH2 0x2621 SWAP1 PUSH3 0x24EA00 PUSH2 0x3743 JUMP JUMPDEST DUP2 LT ISZERO PUSH2 0x2709 JUMPI CALLER PUSH1 0x0 SWAP1 DUP2 MSTORE PUSH1 0x5 PUSH1 0x20 MSTORE PUSH1 0x40 SWAP1 KECCAK256 SLOAD PUSH2 0x2645 SWAP1 PUSH3 0x127500 PUSH2 0x3743 JUMP JUMPDEST DUP2 LT ISZERO PUSH2 0x26FA JUMPI PUSH1 0x0 PUSH1 0x64 PUSH2 0x265B DUP7 PUSH1 0x4B PUSH2 0x3677 JUMP JUMPDEST PUSH2 0x2665 SWAP2 SWAP1 PUSH2 0x3696 JUMP JUMPDEST PUSH1 0x40 MLOAD PUSH4 0xA9059CBB PUSH1 0xE0 SHL DUP2 MSTORE SWAP1 SWAP2 POP PUSH1 0x1 PUSH1 0x1 PUSH1 0xA0 SHL SUB DUP6 AND SWAP1 PUSH4 0xA9059CBB SWAP1 PUSH2 0x2696 SWAP1 CALLER SWAP1 DUP6 SWAP1 PUSH1 0x4 ADD PUSH2 0x378B JUMP JUMPDEST PUSH1 0x20 PUSH1 0x40 MLOAD DUP1 DUP4 SUB DUP2 PUSH1 0x0 DUP8 GAS CALL ISZERO DUP1 ISZERO PUSH2 0x26B5 JUMPI RETURNDATASIZE PUSH1 0x0 DUP1 RETURNDATACOPY RETURNDATASIZE PUSH1 0x0 REVERT JUMPDEST POP POP POP POP PUSH1 0x40 MLOAD RETURNDATASIZE PUSH1 0x1F NOT PUSH1 0x1F DUP3 ADD AND DUP3 ADD DUP1 PUSH1 0x40 MSTORE POP DUP2 ADD SWAP1 PUSH2 0x26D9 SWAP2 SWAP1 PUSH2 0x3726 JUMP JUMPDEST POP PUSH2 0x26E4 DUP2 DUP7 PUSH2 0x3774 JUMP JUMPDEST PUSH1 0x6 SLOAD PUSH2 0x26F1 SWAP2 SWAP1 PUSH2 0x3743 JUMP JUMPDEST PUSH1 0x6 SSTORE POP PUSH2 0x279A JUMP JUMPDEST PUSH1 0x0 PUSH1 0x64 PUSH2 0x265B DUP7 PUSH1 0x55 PUSH2 0x3677 JUMP JUMPDEST PUSH1 0x0 PUSH1 0x64 PUSH2 0x265B DUP7 PUSH1 0x5A PUSH2 0x3677 JUMP JUMPDEST PUSH1 0x0 PUSH1 0x64 PUSH2 0x265B DUP7 PUSH1 0x5F PUSH2 0x3677 JUMP JUMPDEST PUSH1 0x40 MLOAD PUSH4 0xA9059CBB PUSH1 0xE0 SHL DUP2 MSTORE PUSH1 0x1 PUSH1 0x1 PUSH1 0xA0 SHL SUB DUP5 AND SWAP1 PUSH4 0xA9059CBB SWAP1 PUSH2 0x2755 SWAP1 CALLER SWAP1 DUP9 SWAP1 PUSH1 0x4 ADD PUSH2 0x378B JUMP JUMPDEST PUSH1 0x20 PUSH1 0x40 MLOAD DUP1 DUP4 SUB DUP2 PUSH1 0x0 DUP8 GAS CALL ISZERO DUP1 ISZERO PUSH2 0x2774 JUMPI RETURNDATASIZE PUSH1 0x0 DUP1 RETURNDATACOPY RETURNDATASIZE PUSH1 0x0 REVERT JUMPDEST POP POP POP POP PUSH1 0x40 MLOAD RETURNDATASIZE PUSH1 0x1F NOT PUSH1 0x1F DUP3 ADD AND DUP3 ADD DUP1 PUSH1 0x40 MSTORE POP DUP2 ADD SWAP1 PUSH2 0x2798 SWAP2 SWAP1 PUSH2 0x3726 JUMP JUMPDEST POP JUMPDEST PUSH2 0x27A4 CALLER DUP5 PUSH2 0x1A25 JUMP JUMPDEST CALLER PUSH1 0x0 SWAP1 DUP2 MSTORE PUSH1 0x4 PUSH1 0x20 SWAP1 DUP2 MSTORE PUSH1 0x40 DUP1 DUP4 KECCAK256 SWAP4 SWAP1 SWAP4 SSTORE PUSH1 0x3 SWAP1 MSTORE KECCAK256 TIMESTAMP SWAP1 SSTORE PUSH2 0x27CC DUP5 DUP4 PUSH2 0x3774 JUMP JUMPDEST PUSH1 0x1 PUSH1 0x1 PUSH1 0xA0 SHL SUB DUP5 AND PUSH1 0x0 SWAP1 DUP2 MSTORE PUSH1 0x2 PUSH1 0x20 SWAP1 DUP2 MSTORE PUSH1 0x40 DUP1 DUP4 KECCAK256 CALLER DUP5 MSTORE SWAP1 SWAP2 MSTORE SWAP1 KECCAK256 SSTORE PUSH1 0xB SLOAD PUSH2 0x27FE SWAP1 DUP6 SWAP1 PUSH2 0x3774 JUMP JUMPDEST PUSH1 0xB SSTORE PUSH1 0x1 PUSH1 0x1 PUSH1 0xA0 SHL SUB DUP4 AND PUSH1 0x0 SWAP1 DUP2 MSTORE PUSH1 0x2 PUSH1 0x20 SWAP1 DUP2 MSTORE PUSH1 0x40 DUP1 DUP4 KECCAK256 CALLER DUP5 MSTORE SWAP1 SWAP2 MSTORE SWAP1 KECCAK256 SLOAD PUSH2 0x2868 JUMPI PUSH1 0x1 PUSH1 0xA SLOAD PUSH2 0x2838 SWAP2 SWAP1 PUSH2 0x3774 JUMP JUMPDEST PUSH1 0xA SSTORE CALLER PUSH1 0x0 SWAP1 DUP2 MSTORE PUSH1 0x7 PUSH1 0x20 MSTORE PUSH1 0x40 SWAP1 KECCAK256 SLOAD PUSH2 0x2857 SWAP1 PUSH1 0x1 SWAP1 PUSH2 0x3774 JUMP JUMPDEST CALLER PUSH1 0x0 SWAP1 DUP2 MSTORE PUSH1 0x7 PUSH1 0x20 MSTORE PUSH1 0x40 SWAP1 KECCAK256 SSTORE JUMPDEST POP POP POP POP JUMP JUMPDEST PUSH1 0x0 SLOAD PUSH1 0x1 PUSH1 0x1 PUSH1 0xA0 SHL SUB AND CALLER EQ PUSH2 0x2898 JUMPI PUSH1 0x40 MLOAD PUSH3 0x461BCD PUSH1 0xE5 SHL DUP2 MSTORE PUSH1 0x4 ADD PUSH2 0xAEA SWAP1 PUSH2 0x362C JUMP JUMPDEST PUSH1 0x1 PUSH1 0x1 PUSH1 0xA0 SHL SUB SWAP2 DUP3 AND PUSH1 0x0 SWAP1 DUP2 MSTORE PUSH1 0x8 PUSH1 0x20 MSTORE PUSH1 0x40 SWAP1 KECCAK256 DUP1 SLOAD PUSH1 0x1 PUSH1 0x1 PUSH1 0xA0 SHL SUB NOT AND SWAP2 SWAP1 SWAP3 AND OR SWAP1 SSTORE JUMP JUMPDEST PUSH1 0x0 SLOAD PUSH1 0x1 PUSH1 0x1 PUSH1 0xA0 SHL SUB AND CALLER EQ PUSH2 0x28F0 JUMPI PUSH1 0x40 MLOAD PUSH3 0x461BCD PUSH1 0xE5 SHL DUP2 MSTORE PUSH1 0x4 ADD PUSH2 0xAEA SWAP1 PUSH2 0x362C JUMP JUMPDEST PUSH1 0x20 SSTORE JUMP JUMPDEST PUSH1 0x0 PUSH2 0x2901 CALLER DUP4 PUSH2 0x1A25 JUMP JUMPDEST SWAP1 POP PUSH1 0x0 DUP2 GT PUSH2 0x2910 JUMPI PUSH1 0x0 DUP1 REVERT JUMPDEST PUSH1 0x40 MLOAD PUSH4 0xA9059CBB PUSH1 0xE0 SHL DUP2 MSTORE PUSH1 0x1 PUSH1 0x1 PUSH1 0xA0 SHL SUB DUP4 AND SWAP1 PUSH4 0xA9059CBB SWAP1 PUSH2 0x293E SWAP1 CALLER SWAP1 DUP6 SWAP1 PUSH1 0x4 ADD PUSH2 0x378B JUMP JUMPDEST PUSH1 0x20 PUSH1 0x40 MLOAD DUP1 DUP4 SUB DUP2 PUSH1 0x0 DUP8 GAS CALL ISZERO DUP1 ISZERO PUSH2 0x295D JUMPI RETURNDATASIZE PUSH1 0x0 DUP1 RETURNDATACOPY RETURNDATASIZE PUSH1 0x0 REVERT JUMPDEST POP POP POP POP PUSH1 0x40 MLOAD RETURNDATASIZE PUSH1 0x1F NOT PUSH1 0x1F DUP3 ADD AND DUP3 ADD DUP1 PUSH1 0x40 MSTORE POP DUP2 ADD SWAP1 PUSH2 0x2981 SWAP2 SWAP1 PUSH2 0x3726 JUMP JUMPDEST POP POP CALLER PUSH1 0x0 SWAP1 DUP2 MSTORE PUSH1 0x4 PUSH1 0x20 SWAP1 DUP2 MSTORE PUSH1 0x40 DUP1 DUP4 KECCAK256 DUP4 SWAP1 SSTORE PUSH1 0x3 SWAP1 SWAP2 MSTORE SWAP1 KECCAK256 TIMESTAMP SWAP1 SSTORE POP JUMP JUMPDEST PUSH1 0x0 DUP1 PUSH1 0x1B PUSH1 0x0 SWAP1 SLOAD SWAP1 PUSH2 0x100 EXP SWAP1 DIV PUSH1 0x1 PUSH1 0x1 PUSH1 0xA0 SHL SUB AND PUSH1 0x1 PUSH1 0x1 PUSH1 0xA0 SHL SUB AND PUSH4 0xFEAF968C PUSH1 0x40 MLOAD DUP2 PUSH4 0xFFFFFFFF AND PUSH1 0xE0 SHL DUP2 MSTORE PUSH1 0x4 ADD PUSH1 0xA0 PUSH1 0x40 MLOAD DUP1 DUP4 SUB DUP2 DUP7 GAS STATICCALL ISZERO DUP1 ISZERO PUSH2 0x29FB JUMPI RETURNDATASIZE PUSH1 0x0 DUP1 RETURNDATACOPY RETURNDATASIZE PUSH1 0x0 REVERT JUMPDEST POP POP POP POP PUSH1 0x40 MLOAD RETURNDATASIZE PUSH1 0x1F NOT PUSH1 0x1F DUP3 ADD AND DUP3 ADD DUP1 PUSH1 0x40 MSTORE POP DUP2 ADD SWAP1 PUSH2 0x2A1F SWAP2 SWAP1 PUSH2 0x38DF JUMP JUMPDEST POP POP POP SWAP2 POP POP DUP1 PUSH5 0x2540BE400 PUSH2 0x2A36 SWAP2 SWAP1 PUSH2 0x392F JUMP JUMPDEST SWAP2 POP POP SWAP1 JUMP JUMPDEST PUSH1 0x0 SLOAD PUSH1 0x1 PUSH1 0x1 PUSH1 0xA0 SHL SUB AND CALLER EQ PUSH2 0x2A66 JUMPI PUSH1 0x40 MLOAD PUSH3 0x461BCD PUSH1 0xE5 SHL DUP2 MSTORE PUSH1 0x4 ADD PUSH2 0xAEA SWAP1 PUSH2 0x362C JUMP JUMPDEST PUSH1 0x65 PUSH1 0x17 SLOAD GT ISZERO PUSH2 0x2A76 JUMPI PUSH1 0x0 DUP1 REVERT JUMPDEST PUSH1 0x65 DUP2 PUSH1 0x17 SLOAD PUSH2 0x2A86 SWAP2 SWAP1 PUSH2 0x3743 JUMP JUMPDEST GT ISZERO PUSH2 0x2A91 JUMPI PUSH1 0x0 DUP1 REVERT JUMPDEST DUP1 PUSH1 0x17 SLOAD PUSH2 0x2A9F SWAP2 SWAP1 PUSH2 0x3743 JUMP JUMPDEST PUSH1 0x17 SSTORE POP JUMP JUMPDEST PUSH1 0x0 SLOAD PUSH1 0x1 PUSH1 0x1 PUSH1 0xA0 SHL SUB AND CALLER EQ PUSH2 0x2ACF JUMPI PUSH1 0x40 MLOAD PUSH3 0x461BCD PUSH1 0xE5 SHL DUP2 MSTORE PUSH1 0x4 ADD PUSH2 0xAEA SWAP1 PUSH2 0x362C JUMP JUMPDEST PUSH1 0x0 SWAP2 DUP3 MSTORE PUSH1 0x1F PUSH1 0x20 MSTORE PUSH1 0x40 SWAP1 SWAP2 KECCAK256 DUP1 SLOAD PUSH1 0xFF NOT AND SWAP2 ISZERO ISZERO SWAP2 SWAP1 SWAP2 OR SWAP1 SSTORE JUMP JUMPDEST PUSH1 0x1 PUSH1 0x1 PUSH1 0xA0 SHL SUB DUP2 AND PUSH1 0x0 SWAP1 DUP2 MSTORE PUSH1 0x7 PUSH1 0x20 MSTORE PUSH1 0x40 DUP2 KECCAK256 SLOAD DUP2 SWAP1 PUSH2 0x2B4A JUMPI PUSH1 0x40 MLOAD PUSH3 0x461BCD PUSH1 0xE5 SHL DUP2 MSTORE PUSH1 0x20 PUSH1 0x4 DUP3 ADD MSTORE PUSH1 0x11 PUSH1 0x24 DUP3 ADD MSTORE PUSH17 0x4E6F20746F6B656E73207374616B656421 PUSH1 0x78 SHL PUSH1 0x44 DUP3 ADD MSTORE PUSH1 0x64 ADD PUSH2 0xAEA JUMP JUMPDEST PUSH1 0x0 JUMPDEST PUSH1 0xD SLOAD DUP2 LT ISZERO PUSH2 0x2BA6 JUMPI PUSH2 0x2B88 DUP5 PUSH1 0xD DUP4 DUP2 SLOAD DUP2 LT PUSH2 0x2B6E JUMPI PUSH2 0x2B6E PUSH2 0x3894 JUMP JUMPDEST PUSH1 0x0 SWAP2 DUP3 MSTORE PUSH1 0x20 SWAP1 SWAP2 KECCAK256 ADD SLOAD PUSH1 0x1 PUSH1 0x1 PUSH1 0xA0 SHL SUB AND PUSH2 0xF3C JUMP JUMPDEST PUSH2 0x2B92 SWAP1 DUP4 PUSH2 0x3743 JUMP JUMPDEST SWAP2 POP DUP1 PUSH2 0x2B9E DUP2 PUSH2 0x38AA JUMP JUMPDEST SWAP2 POP POP PUSH2 0x2B4D JUMP JUMPDEST POP SWAP3 SWAP2 POP POP JUMP JUMPDEST PUSH1 0x0 DUP1 JUMPDEST PUSH1 0x1A SLOAD DUP2 LT ISZERO PUSH2 0x2C0E JUMPI DUP3 PUSH1 0x1 PUSH1 0x1 PUSH1 0xA0 SHL SUB AND PUSH1 0x1A DUP3 DUP2 SLOAD DUP2 LT PUSH2 0x2BD8 JUMPI PUSH2 0x2BD8 PUSH2 0x3894 JUMP JUMPDEST PUSH1 0x0 SWAP2 DUP3 MSTORE PUSH1 0x20 SWAP1 SWAP2 KECCAK256 ADD SLOAD PUSH1 0x1 PUSH1 0x1 PUSH1 0xA0 SHL SUB AND EQ ISZERO PUSH2 0x2BFC JUMPI POP PUSH1 0x1 SWAP3 SWAP2 POP POP JUMP JUMPDEST DUP1 PUSH2 0x2C06 DUP2 PUSH2 0x38AA JUMP JUMPDEST SWAP2 POP POP PUSH2 0x2BB1 JUMP JUMPDEST POP PUSH1 0x0 SWAP3 SWAP2 POP POP JUMP JUMPDEST PUSH1 0x1 PUSH1 0x1 PUSH1 0xA0 SHL SUB DUP2 AND PUSH1 0x0 SWAP1 DUP2 MSTORE PUSH1 0x2 PUSH1 0x20 SWAP1 DUP2 MSTORE PUSH1 0x40 DUP1 DUP4 KECCAK256 CALLER DUP5 MSTORE SWAP1 SWAP2 MSTORE SWAP1 KECCAK256 SLOAD DUP1 PUSH2 0x2C88 JUMPI PUSH1 0x40 MLOAD PUSH3 0x461BCD PUSH1 0xE5 SHL DUP2 MSTORE PUSH1 0x20 PUSH1 0x4 DUP3 ADD MSTORE PUSH1 0x1B PUSH1 0x24 DUP3 ADD MSTORE PUSH32 0x5374616B696E672062616C616E63652063616E6E6F7420626520300000000000 PUSH1 0x44 DUP3 ADD MSTORE PUSH1 0x64 ADD PUSH2 0xAEA JUMP JUMPDEST PUSH2 0x2C91 DUP3 PUSH2 0x2F8F JUMP JUMPDEST PUSH2 0x2CAD JUMPI PUSH1 0x40 MLOAD PUSH3 0x461BCD PUSH1 0xE5 SHL DUP2 MSTORE PUSH1 0x4 ADD PUSH2 0xAEA SWAP1 PUSH2 0x36EF JUMP JUMPDEST CALLER PUSH1 0x0 SWAP1 DUP2 MSTORE PUSH1 0x5 PUSH1 0x20 MSTORE PUSH1 0x40 SWAP1 KECCAK256 SLOAD TIMESTAMP SWAP1 PUSH2 0x2CCC SWAP1 PUSH3 0x49D400 PUSH2 0x3743 JUMP JUMPDEST DUP2 LT ISZERO PUSH2 0x2E1A JUMPI CALLER PUSH1 0x0 SWAP1 DUP2 MSTORE PUSH1 0x5 PUSH1 0x20 MSTORE PUSH1 0x40 SWAP1 KECCAK256 SLOAD PUSH2 0x2CF0 SWAP1 PUSH3 0x375F00 PUSH2 0x3743 JUMP JUMPDEST DUP2 LT ISZERO PUSH2 0x2E0B JUMPI CALLER PUSH1 0x0 SWAP1 DUP2 MSTORE PUSH1 0x5 PUSH1 0x20 MSTORE PUSH1 0x40 SWAP1 KECCAK256 SLOAD PUSH2 0x2D14 SWAP1 PUSH3 0x24EA00 PUSH2 0x3743 JUMP JUMPDEST DUP2 LT ISZERO PUSH2 0x2DFC JUMPI CALLER PUSH1 0x0 SWAP1 DUP2 MSTORE PUSH1 0x5 PUSH1 0x20 MSTORE PUSH1 0x40 SWAP1 KECCAK256 SLOAD PUSH2 0x2D38 SWAP1 PUSH3 0x127500 PUSH2 0x3743 JUMP JUMPDEST DUP2 LT ISZERO PUSH2 0x2DED JUMPI PUSH1 0x0 PUSH1 0x64 PUSH2 0x2D4E DUP5 PUSH1 0x4B PUSH2 0x3677 JUMP JUMPDEST PUSH2 0x2D58 SWAP2 SWAP1 PUSH2 0x3696 JUMP JUMPDEST PUSH1 0x40 MLOAD PUSH4 0xA9059CBB PUSH1 0xE0 SHL DUP2 MSTORE SWAP1 SWAP2 POP PUSH1 0x1 PUSH1 0x1 PUSH1 0xA0 SHL SUB DUP6 AND SWAP1 PUSH4 0xA9059CBB SWAP1 PUSH2 0x2D89 SWAP1 CALLER SWAP1 DUP6 SWAP1 PUSH1 0x4 ADD PUSH2 0x378B JUMP JUMPDEST PUSH1 0x20 PUSH1 0x40 MLOAD DUP1 DUP4 SUB DUP2 PUSH1 0x0 DUP8 GAS CALL ISZERO DUP1 ISZERO PUSH2 0x2DA8 JUMPI RETURNDATASIZE PUSH1 0x0 DUP1 RETURNDATACOPY RETURNDATASIZE PUSH1 0x0 REVERT JUMPDEST POP POP POP POP PUSH1 0x40 MLOAD RETURNDATASIZE PUSH1 0x1F NOT PUSH1 0x1F DUP3 ADD AND DUP3 ADD DUP1 PUSH1 0x40 MSTORE POP DUP2 ADD SWAP1 PUSH2 0x2DCC SWAP2 SWAP1 PUSH2 0x3726 JUMP JUMPDEST POP PUSH2 0x2DD7 DUP2 DUP5 PUSH2 0x3774 JUMP JUMPDEST PUSH1 0x6 SLOAD PUSH2 0x2DE4 SWAP2 SWAP1 PUSH2 0x3743 JUMP JUMPDEST PUSH1 0x6 SSTORE POP PUSH2 0x2E8D JUMP JUMPDEST PUSH1 0x0 PUSH1 0x64 PUSH2 0x2D4E DUP5 PUSH1 0x55 PUSH2 0x3677 JUMP JUMPDEST PUSH1 0x0 PUSH1 0x64 PUSH2 0x2D4E DUP5 PUSH1 0x5A PUSH2 0x3677 JUMP JUMPDEST PUSH1 0x0 PUSH1 0x64 PUSH2 0x2D4E DUP5 PUSH1 0x5F PUSH2 0x3677 JUMP JUMPDEST PUSH1 0x40 MLOAD PUSH4 0xA9059CBB PUSH1 0xE0 SHL DUP2 MSTORE PUSH1 0x1 PUSH1 0x1 PUSH1 0xA0 SHL SUB DUP5 AND SWAP1 PUSH4 0xA9059CBB SWAP1 PUSH2 0x2E48 SWAP1 CALLER SWAP1 DUP7 SWAP1 PUSH1 0x4 ADD PUSH2 0x378B JUMP JUMPDEST PUSH1 0x20 PUSH1 0x40 MLOAD DUP1 DUP4 SUB DUP2 PUSH1 0x0 DUP8 GAS CALL ISZERO DUP1 ISZERO PUSH2 0x2E67 JUMPI RETURNDATASIZE PUSH1 0x0 DUP1 RETURNDATACOPY RETURNDATASIZE PUSH1 0x0 REVERT JUMPDEST POP POP POP POP PUSH1 0x40 MLOAD RETURNDATASIZE PUSH1 0x1F NOT PUSH1 0x1F DUP3 ADD AND DUP3 ADD DUP1 PUSH1 0x40 MSTORE POP DUP2 ADD SWAP1 PUSH2 0x2E8B SWAP2 SWAP1 PUSH2 0x3726 JUMP JUMPDEST POP JUMPDEST PUSH2 0x2E97 CALLER DUP5 PUSH2 0x1A25 JUMP JUMPDEST CALLER PUSH1 0x0 SWAP1 DUP2 MSTORE PUSH1 0x4 PUSH1 0x20 SWAP1 DUP2 MSTORE PUSH1 0x40 DUP1 DUP4 KECCAK256 SWAP4 SWAP1 SWAP4 SSTORE PUSH1 0x3 SWAP1 MSTORE KECCAK256 TIMESTAMP SWAP1 SSTORE PUSH1 0xB SLOAD PUSH2 0x2EC3 SWAP1 DUP4 SWAP1 PUSH2 0x3774 JUMP JUMPDEST PUSH1 0xB SSTORE PUSH1 0x1 PUSH1 0x1 PUSH1 0xA0 SHL SUB DUP4 AND PUSH1 0x0 SWAP1 DUP2 MSTORE PUSH1 0x2 PUSH1 0x20 SWAP1 DUP2 MSTORE PUSH1 0x40 DUP1 DUP4 KECCAK256 CALLER DUP5 MSTORE DUP3 MSTORE DUP1 DUP4 KECCAK256 DUP4 SWAP1 SSTORE PUSH1 0x7 SWAP1 SWAP2 MSTORE SWAP1 KECCAK256 SLOAD PUSH2 0x2F00 SWAP1 PUSH1 0x1 SWAP1 PUSH2 0x3774 JUMP JUMPDEST CALLER PUSH1 0x0 SWAP1 DUP2 MSTORE PUSH1 0x7 PUSH1 0x20 MSTORE PUSH1 0x40 SWAP1 KECCAK256 SSTORE PUSH1 0xA SLOAD PUSH2 0x2F1F SWAP1 PUSH1 0x1 SWAP1 PUSH2 0x3774 JUMP JUMPDEST PUSH1 0xA SSTORE POP POP POP JUMP JUMPDEST PUSH1 0x0 SLOAD PUSH1 0x1 PUSH1 0x1 PUSH1 0xA0 SHL SUB AND CALLER EQ PUSH2 0x2F51 JUMPI PUSH1 0x40 MLOAD PUSH3 0x461BCD PUSH1 0xE5 SHL DUP2 MSTORE PUSH1 0x4 ADD PUSH2 0xAEA SWAP1 PUSH2 0x362C JUMP JUMPDEST PUSH1 0x40 MLOAD PUSH4 0xA9059CBB PUSH1 0xE0 SHL DUP2 MSTORE PUSH1 0x1 PUSH1 0x1 PUSH1 0xA0 SHL SUB DUP4 AND SWAP1 PUSH4 0xA9059CBB SWAP1 PUSH2 0x1850 SWAP1 CALLER SWAP1 DUP6 SWAP1 PUSH1 0x4 ADD PUSH2 0x378B JUMP JUMPDEST PUSH1 0x9 DUP2 DUP2 SLOAD DUP2 LT PUSH2 0xFD3 JUMPI PUSH1 0x0 DUP1 REVERT JUMPDEST PUSH1 0x0 DUP1 JUMPDEST PUSH1 0xD SLOAD DUP2 LT ISZERO PUSH2 0x2C0E JUMPI DUP3 PUSH1 0x1 PUSH1 0x1 PUSH1 0xA0 SHL SUB AND PUSH1 0xD DUP3 DUP2 SLOAD DUP2 LT PUSH2 0x2FBA JUMPI PUSH2 0x2FBA PUSH2 0x3894 JUMP JUMPDEST PUSH1 0x0 SWAP2 DUP3 MSTORE PUSH1 0x20 SWAP1 SWAP2 KECCAK256 ADD SLOAD PUSH1 0x1 PUSH1 0x1 PUSH1 0xA0 SHL SUB AND EQ ISZERO PUSH2 0x2FDE JUMPI POP PUSH1 0x1 SWAP3 SWAP2 POP POP JUMP JUMPDEST DUP1 PUSH2 0x2FE8 DUP2 PUSH2 0x38AA JUMP JUMPDEST SWAP2 POP POP PUSH2 0x2F93 JUMP JUMPDEST PUSH1 0x0 DUP1 SLOAD PUSH1 0x1 PUSH1 0x1 PUSH1 0xA0 SHL SUB AND CALLER EQ PUSH2 0x301B JUMPI PUSH1 0x40 MLOAD PUSH3 0x461BCD PUSH1 0xE5 SHL DUP2 MSTORE PUSH1 0x4 ADD PUSH2 0xAEA SWAP1 PUSH2 0x362C JUMP JUMPDEST PUSH1 0x40 MLOAD PUSH4 0x70A08231 PUSH1 0xE0 SHL DUP2 MSTORE ADDRESS PUSH1 0x4 DUP3 ADD MSTORE PUSH1 0x1 PUSH1 0x1 PUSH1 0xA0 SHL SUB DUP4 AND SWAP1 PUSH4 0x70A08231 SWAP1 PUSH1 0x24 ADD PUSH1 0x20 PUSH1 0x40 MLOAD DUP1 DUP4 SUB DUP2 DUP7 GAS STATICCALL ISZERO DUP1 ISZERO PUSH2 0x305F JUMPI RETURNDATASIZE PUSH1 0x0 DUP1 RETURNDATACOPY RETURNDATASIZE PUSH1 0x0 REVERT JUMPDEST POP POP POP POP PUSH1 0x40 MLOAD RETURNDATASIZE PUSH1 0x1F NOT PUSH1 0x1F DUP3 ADD AND DUP3 ADD DUP1 PUSH1 0x40 MSTORE POP DUP2 ADD SWAP1 PUSH2 0x3083 SWAP2 SWAP1 PUSH2 0x375B JUMP JUMPDEST PUSH1 0x1D DUP2 SWAP1 SSTORE SWAP1 POP JUMPDEST SWAP2 SWAP1 POP JUMP JUMPDEST PUSH1 0x0 DUP2 DUP2 MSTORE PUSH1 0x25 PUSH1 0x20 MSTORE PUSH1 0x40 DUP2 KECCAK256 SLOAD PUSH1 0xFF AND ISZERO ISZERO PUSH1 0x1 EQ PUSH2 0x30B0 JUMPI PUSH1 0x0 DUP1 REVERT JUMPDEST PUSH1 0x0 PUSH1 0x24 SLOAD GT PUSH2 0x30BF JUMPI PUSH1 0x0 DUP1 REVERT JUMPDEST PUSH1 0x0 PUSH1 0x1 JUMPDEST PUSH1 0x1D DUP2 LT ISZERO PUSH2 0x3113 JUMPI PUSH1 0x0 DUP2 DUP2 MSTORE PUSH1 0x21 PUSH1 0x20 SWAP1 DUP2 MSTORE PUSH1 0x40 DUP1 DUP4 KECCAK256 SLOAD PUSH1 0x1E SWAP1 SWAP3 MSTORE DUP3 KECCAK256 SLOAD PUSH2 0x30F1 SWAP2 SWAP1 PUSH2 0x3677 JUMP JUMPDEST SWAP1 POP PUSH2 0x30FD DUP2 DUP5 PUSH2 0x3743 JUMP JUMPDEST SWAP3 POP POP DUP1 DUP1 PUSH2 0x310B SWAP1 PUSH2 0x38AA JUMP JUMPDEST SWAP2 POP POP PUSH2 0x30C4 JUMP JUMPDEST POP PUSH1 0x0 DUP2 PUSH1 0x24 SLOAD PUSH2 0x3124 SWAP2 SWAP1 PUSH2 0x3696 JUMP JUMPDEST SWAP1 POP PUSH1 0x0 PUSH2 0x3132 DUP8 DUP8 PUSH2 0x1A55 JUMP JUMPDEST PUSH1 0x0 DUP2 DUP2 MSTORE PUSH1 0x21 PUSH1 0x20 SWAP1 DUP2 MSTORE PUSH1 0x40 DUP1 DUP4 KECCAK256 SLOAD PUSH1 0x1E SWAP1 SWAP3 MSTORE DUP3 KECCAK256 SLOAD SWAP3 SWAP4 POP SWAP2 SWAP1 DUP3 DUP6 PUSH2 0x315D DUP3 DUP6 PUSH2 0x3677 JUMP JUMPDEST PUSH2 0x3167 SWAP2 SWAP1 PUSH2 0x3677 JUMP JUMPDEST PUSH2 0x107C SWAP2 SWAP1 PUSH2 0x3696 JUMP JUMPDEST PUSH1 0x19 DUP2 DUP2 SLOAD DUP2 LT PUSH2 0xFD3 JUMPI PUSH1 0x0 DUP1 REVERT JUMPDEST PUSH1 0x1 PUSH1 0x1 PUSH1 0xA0 SHL SUB DUP1 DUP3 AND PUSH1 0x0 SWAP1 DUP2 MSTORE PUSH1 0x8 PUSH1 0x20 MSTORE PUSH1 0x40 DUP1 DUP3 KECCAK256 SLOAD DUP2 MLOAD PUSH4 0x3FABE5A3 PUSH1 0xE2 SHL DUP2 MSTORE SWAP2 MLOAD SWAP3 SWAP4 DUP5 SWAP4 SWAP2 AND SWAP2 DUP3 SWAP2 DUP5 SWAP2 DUP4 SWAP2 PUSH4 0xFEAF968C SWAP2 PUSH1 0x4 DUP1 DUP3 ADD SWAP3 PUSH1 0xA0 SWAP3 SWAP1 SWAP2 SWAP1 DUP3 SWAP1 SUB ADD DUP2 DUP7 GAS STATICCALL ISZERO DUP1 ISZERO PUSH2 0x31E2 JUMPI RETURNDATASIZE PUSH1 0x0 DUP1 RETURNDATACOPY RETURNDATASIZE PUSH1 0x0 REVERT JUMPDEST POP POP POP POP PUSH1 0x40 MLOAD RETURNDATASIZE PUSH1 0x1F NOT PUSH1 0x1F DUP3 ADD AND DUP3 ADD DUP1 PUSH1 0x40 MSTORE POP DUP2 ADD SWAP1 PUSH2 0x3206 SWAP2 SWAP1 PUSH2 0x38DF JUMP JUMPDEST POP POP POP SWAP2 POP POP PUSH1 0x0 DUP3 PUSH1 0x1 PUSH1 0x1 PUSH1 0xA0 SHL SUB AND PUSH4 0x313CE567 PUSH1 0x40 MLOAD DUP2 PUSH4 0xFFFFFFFF AND PUSH1 0xE0 SHL DUP2 MSTORE PUSH1 0x4 ADD PUSH1 0x20 PUSH1 0x40 MLOAD DUP1 DUP4 SUB DUP2 DUP7 GAS STATICCALL ISZERO DUP1 ISZERO PUSH2 0x324C JUMPI RETURNDATASIZE PUSH1 0x0 DUP1 RETURNDATACOPY RETURNDATASIZE PUSH1 0x0 REVERT JUMPDEST POP POP POP POP PUSH1 0x40 MLOAD RETURNDATASIZE PUSH1 0x1F NOT PUSH1 0x1F DUP3 ADD AND DUP3 ADD DUP1 PUSH1 0x40 MSTORE POP DUP2 ADD SWAP1 PUSH2 0x3270 SWAP2 SWAP1 PUSH2 0x39B4 JUMP JUMPDEST SWAP2 SWAP8 PUSH1 0xFF SWAP1 SWAP3 AND SWAP7 POP SWAP1 SWAP5 POP POP POP POP POP JUMP JUMPDEST PUSH1 0x0 SLOAD PUSH1 0x1 PUSH1 0x1 PUSH1 0xA0 SHL SUB AND CALLER EQ PUSH2 0x32AC JUMPI PUSH1 0x40 MLOAD PUSH3 0x461BCD PUSH1 0xE5 SHL DUP2 MSTORE PUSH1 0x4 ADD PUSH2 0xAEA SWAP1 PUSH2 0x362C JUMP JUMPDEST PUSH1 0x1 PUSH1 0x1 PUSH1 0xA0 SHL SUB DUP2 AND PUSH2 0x3311 JUMPI PUSH1 0x40 MLOAD PUSH3 0x461BCD PUSH1 0xE5 SHL DUP2 MSTORE PUSH1 0x20 PUSH1 0x4 DUP3 ADD MSTORE PUSH1 0x26 PUSH1 0x24 DUP3 ADD MSTORE PUSH32 0x4F776E61626C653A206E6577206F776E657220697320746865207A65726F2061 PUSH1 0x44 DUP3 ADD MSTORE PUSH6 0x646472657373 PUSH1 0xD0 SHL PUSH1 0x64 DUP3 ADD MSTORE PUSH1 0x84 ADD PUSH2 0xAEA JUMP JUMPDEST PUSH2 0x1718 DUP2 PUSH2 0x346E JUMP JUMPDEST PUSH1 0x0 SLOAD PUSH1 0x1 PUSH1 0x1 PUSH1 0xA0 SHL SUB AND CALLER EQ PUSH2 0x3344 JUMPI PUSH1 0x40 MLOAD PUSH3 0x461BCD PUSH1 0xE5 SHL DUP2 MSTORE PUSH1 0x4 ADD PUSH2 0xAEA SWAP1 PUSH2 0x362C JUMP JUMPDEST PUSH1 0x24 SSTORE JUMP JUMPDEST PUSH1 0xC DUP2 DUP2 SLOAD DUP2 LT PUSH2 0xFD3 JUMPI PUSH1 0x0 DUP1 REVERT JUMPDEST PUSH1 0x1 PUSH1 0x1 PUSH1 0xA0 SHL SUB DUP1 DUP3 AND PUSH1 0x0 SWAP1 DUP2 MSTORE PUSH1 0x2 PUSH1 0x20 SWAP1 DUP2 MSTORE PUSH1 0x40 DUP1 DUP4 KECCAK256 SWAP4 DUP7 AND DUP4 MSTORE SWAP3 SWAP1 MSTORE KECCAK256 SLOAD PUSH2 0xCF7 JUMPI PUSH1 0x1 PUSH1 0x1 PUSH1 0xA0 SHL SUB DUP3 AND PUSH1 0x0 SWAP1 DUP2 MSTORE PUSH1 0x7 PUSH1 0x20 MSTORE PUSH1 0x40 SWAP1 KECCAK256 SLOAD PUSH2 0x33A7 SWAP1 PUSH1 0x1 PUSH2 0x3743 JUMP JUMPDEST PUSH1 0x1 PUSH1 0x1 PUSH1 0xA0 SHL SUB DUP4 AND PUSH1 0x0 SWAP1 DUP2 MSTORE PUSH1 0x7 PUSH1 0x20 MSTORE PUSH1 0x40 SWAP1 KECCAK256 SSTORE POP POP JUMP JUMPDEST PUSH1 0x1 PUSH1 0x1 PUSH1 0xA0 SHL SUB DUP1 DUP3 AND PUSH1 0x0 SWAP1 DUP2 MSTORE PUSH1 0x2 PUSH1 0x20 SWAP1 DUP2 MSTORE PUSH1 0x40 DUP1 DUP4 KECCAK256 SWAP4 DUP7 AND DUP4 MSTORE SWAP3 SWAP1 MSTORE KECCAK256 SLOAD PUSH2 0xCF7 JUMPI PUSH1 0xA SLOAD PUSH2 0x33FC SWAP1 PUSH1 0x1 PUSH2 0x3743 JUMP JUMPDEST PUSH1 0xA SSTORE POP POP JUMP JUMPDEST PUSH1 0x1 PUSH1 0x1 PUSH1 0xA0 SHL SUB DUP1 DUP3 AND PUSH1 0x0 SWAP1 DUP2 MSTORE PUSH1 0x10 PUSH1 0x20 SWAP1 DUP2 MSTORE PUSH1 0x40 DUP1 DUP4 KECCAK256 SWAP4 DUP7 AND DUP4 MSTORE SWAP3 SWAP1 MSTORE KECCAK256 SLOAD PUSH2 0xCF7 JUMPI PUSH1 0x1 PUSH1 0x1 PUSH1 0xA0 SHL SUB DUP3 AND PUSH1 0x0 SWAP1 DUP2 MSTORE PUSH1 0x1C PUSH1 0x20 MSTORE PUSH1 0x40 SWAP1 KECCAK256 SLOAD PUSH2 0x3451 SWAP1 PUSH1 0x1 PUSH2 0x3743 JUMP JUMPDEST PUSH1 0x1 PUSH1 0x1 PUSH1 0xA0 SHL SUB DUP4 AND PUSH1 0x0 SWAP1 DUP2 MSTORE PUSH1 0x1C PUSH1 0x20 MSTORE PUSH1 0x40 SWAP1 KECCAK256 SSTORE POP POP JUMP JUMPDEST PUSH1 0x0 DUP1 SLOAD PUSH1 0x1 PUSH1 0x1 PUSH1 0xA0 SHL SUB DUP4 DUP2 AND PUSH1 0x1 PUSH1 0x1 PUSH1 0xA0 SHL SUB NOT DUP4 AND DUP2 OR DUP5 SSTORE PUSH1 0x40 MLOAD SWAP2 SWAP1 SWAP3 AND SWAP3 DUP4 SWAP2 PUSH32 0x8BE0079C531659141344CD1FD0A4F28419497F9722A3DAAFE3B4186F6B6457E0 SWAP2 SWAP1 LOG3 POP POP JUMP JUMPDEST PUSH1 0x0 DUP1 PUSH1 0x40 DUP4 DUP6 SUB SLT ISZERO PUSH2 0x34D1 JUMPI PUSH1 0x0 DUP1 REVERT JUMPDEST POP POP DUP1 CALLDATALOAD SWAP3 PUSH1 0x20 SWAP1 SWAP2 ADD CALLDATALOAD SWAP2 POP JUMP JUMPDEST DUP1 CALLDATALOAD PUSH1 0x1 PUSH1 0x1 PUSH1 0xA0 SHL SUB DUP2 AND DUP2 EQ PUSH2 0x308B JUMPI PUSH1 0x0 DUP1 REVERT JUMPDEST PUSH1 0x0 DUP1 PUSH1 0x40 DUP4 DUP6 SUB SLT ISZERO PUSH2 0x350A JUMPI PUSH1 0x0 DUP1 REVERT JUMPDEST DUP3 CALLDATALOAD SWAP2 POP PUSH2 0x351A PUSH1 0x20 DUP5 ADD PUSH2 0x34E0 JUMP JUMPDEST SWAP1 POP SWAP3 POP SWAP3 SWAP1 POP JUMP JUMPDEST PUSH1 0x0 PUSH1 0x20 DUP3 DUP5 SUB SLT ISZERO PUSH2 0x3535 JUMPI PUSH1 0x0 DUP1 REVERT JUMPDEST PUSH2 0x353E DUP3 PUSH2 0x34E0 JUMP JUMPDEST SWAP4 SWAP3 POP POP POP JUMP JUMPDEST PUSH1 0x0 PUSH1 0x20 DUP3 DUP5 SUB SLT ISZERO PUSH2 0x3557 JUMPI PUSH1 0x0 DUP1 REVERT JUMPDEST POP CALLDATALOAD SWAP2 SWAP1 POP JUMP JUMPDEST PUSH1 0x0 DUP1 PUSH1 0x40 DUP4 DUP6 SUB SLT ISZERO PUSH2 0x3571 JUMPI PUSH1 0x0 DUP1 REVERT JUMPDEST PUSH2 0x357A DUP4 PUSH2 0x34E0 JUMP JUMPDEST SWAP2 POP PUSH2 0x351A PUSH1 0x20 DUP5 ADD PUSH2 0x34E0 JUMP JUMPDEST DUP1 ISZERO ISZERO DUP2 EQ PUSH2 0x1718 JUMPI PUSH1 0x0 DUP1 REVERT JUMPDEST PUSH1 0x0 DUP1 PUSH1 0x40 DUP4 DUP6 SUB SLT ISZERO PUSH2 0x35A9 JUMPI PUSH1 0x0 DUP1 REVERT JUMPDEST DUP3 CALLDATALOAD SWAP2 POP PUSH1 0x20 DUP4 ADD CALLDATALOAD PUSH2 0x35BB DUP2 PUSH2 0x3588 JUMP JUMPDEST DUP1 SWAP2 POP POP SWAP3 POP SWAP3 SWAP1 POP JUMP JUMPDEST PUSH1 0x0 DUP1 PUSH1 0x40 DUP4 DUP6 SUB SLT ISZERO PUSH2 0x35D9 JUMPI PUSH1 0x0 DUP1 REVERT JUMPDEST PUSH2 0x35E2 DUP4 PUSH2 0x34E0 JUMP JUMPDEST SWAP5 PUSH1 0x20 SWAP4 SWAP1 SWAP4 ADD CALLDATALOAD SWAP4 POP POP POP JUMP JUMPDEST PUSH1 0x0 DUP1 PUSH1 0x0 PUSH1 0x60 DUP5 DUP7 SUB SLT ISZERO PUSH2 0x3605 JUMPI PUSH1 0x0 DUP1 REVERT JUMPDEST PUSH2 0x360E DUP5 PUSH2 0x34E0 JUMP JUMPDEST SWAP3 POP PUSH2 0x361C PUSH1 0x20 DUP6 ADD PUSH2 0x34E0 JUMP JUMPDEST SWAP2 POP PUSH1 0x40 DUP5 ADD CALLDATALOAD SWAP1 POP SWAP3 POP SWAP3 POP SWAP3 JUMP JUMPDEST PUSH1 0x20 DUP1 DUP3 MSTORE DUP2 DUP2 ADD MSTORE PUSH32 0x4F776E61626C653A2063616C6C6572206973206E6F7420746865206F776E6572 PUSH1 0x40 DUP3 ADD MSTORE PUSH1 0x60 ADD SWAP1 JUMP JUMPDEST PUSH4 0x4E487B71 PUSH1 0xE0 SHL PUSH1 0x0 MSTORE PUSH1 0x11 PUSH1 0x4 MSTORE PUSH1 0x24 PUSH1 0x0 REVERT JUMPDEST PUSH1 0x0 DUP2 PUSH1 0x0 NOT DIV DUP4 GT DUP3 ISZERO ISZERO AND ISZERO PUSH2 0x3691 JUMPI PUSH2 0x3691 PUSH2 0x3661 JUMP JUMPDEST POP MUL SWAP1 JUMP JUMPDEST PUSH1 0x0 DUP3 PUSH2 0x36B3 JUMPI PUSH4 0x4E487B71 PUSH1 0xE0 SHL PUSH1 0x0 MSTORE PUSH1 0x12 PUSH1 0x4 MSTORE PUSH1 0x24 PUSH1 0x0 REVERT JUMPDEST POP DIV SWAP1 JUMP JUMPDEST PUSH1 0x20 DUP1 DUP3 MSTORE PUSH1 0x1A SWAP1 DUP3 ADD MSTORE PUSH32 0x416D6F756E74206D757374206265206D6F7265207468616E2030000000000000 PUSH1 0x40 DUP3 ADD MSTORE PUSH1 0x60 ADD SWAP1 JUMP JUMPDEST PUSH1 0x20 DUP1 DUP3 MSTORE PUSH1 0x1E SWAP1 DUP3 ADD MSTORE PUSH32 0x546F6B656E2069732063757272656E746C79206E6F7420616C6C6F7765640000 PUSH1 0x40 DUP3 ADD MSTORE PUSH1 0x60 ADD SWAP1 JUMP JUMPDEST PUSH1 0x0 PUSH1 0x20 DUP3 DUP5 SUB SLT ISZERO PUSH2 0x3738 JUMPI PUSH1 0x0 DUP1 REVERT JUMPDEST DUP2 MLOAD PUSH2 0x353E DUP2 PUSH2 0x3588 JUMP JUMPDEST PUSH1 0x0 DUP3 NOT DUP3 GT ISZERO PUSH2 0x3756 JUMPI PUSH2 0x3756 PUSH2 0x3661 JUMP JUMPDEST POP ADD SWAP1 JUMP JUMPDEST PUSH1 0x0 PUSH1 0x20 DUP3 DUP5 SUB SLT ISZERO PUSH2 0x376D JUMPI PUSH1 0x0 DUP1 REVERT JUMPDEST POP MLOAD SWAP2 SWAP1 POP JUMP JUMPDEST PUSH1 0x0 DUP3 DUP3 LT ISZERO PUSH2 0x3786 JUMPI PUSH2 0x3786 PUSH2 0x3661 JUMP JUMPDEST POP SUB SWAP1 JUMP JUMPDEST PUSH1 0x1 PUSH1 0x1 PUSH1 0xA0 SHL SUB SWAP3 SWAP1 SWAP3 AND DUP3 MSTORE PUSH1 0x20 DUP3 ADD MSTORE PUSH1 0x40 ADD SWAP1 JUMP JUMPDEST PUSH1 0x1 DUP2 DUP2 JUMPDEST DUP1 DUP6 GT ISZERO PUSH2 0x37DF JUMPI DUP2 PUSH1 0x0 NOT DIV DUP3 GT ISZERO PUSH2 0x37C5 JUMPI PUSH2 0x37C5 PUSH2 0x3661 JUMP JUMPDEST DUP1 DUP6 AND ISZERO PUSH2 0x37D2 JUMPI SWAP2 DUP2 MUL SWAP2 JUMPDEST SWAP4 DUP5 SHR SWAP4 SWAP1 DUP1 MUL SWAP1 PUSH2 0x37A9 JUMP JUMPDEST POP SWAP3 POP SWAP3 SWAP1 POP JUMP JUMPDEST PUSH1 0x0 DUP3 PUSH2 0x37F6 JUMPI POP PUSH1 0x1 PUSH2 0xFBD JUMP JUMPDEST DUP2 PUSH2 0x3803 JUMPI POP PUSH1 0x0 PUSH2 0xFBD JUMP JUMPDEST DUP2 PUSH1 0x1 DUP2 EQ PUSH2 0x3819 JUMPI PUSH1 0x2 DUP2 EQ PUSH2 0x3823 JUMPI PUSH2 0x383F JUMP JUMPDEST PUSH1 0x1 SWAP2 POP POP PUSH2 0xFBD JUMP JUMPDEST PUSH1 0xFF DUP5 GT ISZERO PUSH2 0x3834 JUMPI PUSH2 0x3834 PUSH2 0x3661 JUMP JUMPDEST POP POP PUSH1 0x1 DUP3 SHL PUSH2 0xFBD JUMP JUMPDEST POP PUSH1 0x20 DUP4 LT PUSH2 0x133 DUP4 LT AND PUSH1 0x4E DUP5 LT PUSH1 0xB DUP5 LT AND OR ISZERO PUSH2 0x3862 JUMPI POP DUP2 DUP2 EXP PUSH2 0xFBD JUMP JUMPDEST PUSH2 0x386C DUP4 DUP4 PUSH2 0x37A4 JUMP JUMPDEST DUP1 PUSH1 0x0 NOT DIV DUP3 GT ISZERO PUSH2 0x3880 JUMPI PUSH2 0x3880 PUSH2 0x3661 JUMP JUMPDEST MUL SWAP4 SWAP3 POP POP POP JUMP JUMPDEST PUSH1 0x0 PUSH2 0x353E DUP4 DUP4 PUSH2 0x37E7 JUMP JUMPDEST PUSH4 0x4E487B71 PUSH1 0xE0 SHL PUSH1 0x0 MSTORE PUSH1 0x32 PUSH1 0x4 MSTORE PUSH1 0x24 PUSH1 0x0 REVERT JUMPDEST PUSH1 0x0 PUSH1 0x0 NOT DUP3 EQ ISZERO PUSH2 0x38BE JUMPI PUSH2 0x38BE PUSH2 0x3661 JUMP JUMPDEST POP PUSH1 0x1 ADD SWAP1 JUMP JUMPDEST DUP1 MLOAD PUSH10 0xFFFFFFFFFFFFFFFFFFFF DUP2 AND DUP2 EQ PUSH2 0x308B JUMPI PUSH1 0x0 DUP1 REVERT JUMPDEST PUSH1 0x0 DUP1 PUSH1 0x0 DUP1 PUSH1 0x0 PUSH1 0xA0 DUP7 DUP9 SUB SLT ISZERO PUSH2 0x38F7 JUMPI PUSH1 0x0 DUP1 REVERT JUMPDEST PUSH2 0x3900 DUP7 PUSH2 0x38C5 JUMP JUMPDEST SWAP5 POP PUSH1 0x20 DUP7 ADD MLOAD SWAP4 POP PUSH1 0x40 DUP7 ADD MLOAD SWAP3 POP PUSH1 0x60 DUP7 ADD MLOAD SWAP2 POP PUSH2 0x3923 PUSH1 0x80 DUP8 ADD PUSH2 0x38C5 JUMP JUMPDEST SWAP1 POP SWAP3 SWAP6 POP SWAP3 SWAP6 SWAP1 SWAP4 POP JUMP JUMPDEST PUSH1 0x0 PUSH1 0x1 PUSH1 0x1 PUSH1 0xFF SHL SUB DUP2 DUP5 SGT DUP3 DUP5 SGT DUP1 DUP3 AND DUP7 DUP5 DIV DUP7 GT AND ISZERO PUSH2 0x3955 JUMPI PUSH2 0x3955 PUSH2 0x3661 JUMP JUMPDEST PUSH1 0x1 PUSH1 0xFF SHL PUSH1 0x0 DUP8 SLT DUP3 DUP2 AND DUP8 DUP4 SDIV DUP10 SLT AND ISZERO PUSH2 0x3974 JUMPI PUSH2 0x3974 PUSH2 0x3661 JUMP JUMPDEST PUSH1 0x0 DUP8 SLT SWAP3 POP DUP8 DUP3 SDIV DUP8 SLT DUP5 DUP5 AND AND ISZERO PUSH2 0x3990 JUMPI PUSH2 0x3990 PUSH2 0x3661 JUMP JUMPDEST DUP8 DUP6 SDIV DUP8 SLT DUP2 DUP5 AND AND ISZERO PUSH2 0x39A6 JUMPI PUSH2 0x39A6 PUSH2 0x3661 JUMP JUMPDEST POP POP POP SWAP3 SWAP1 SWAP4 MUL SWAP4 SWAP3 POP POP POP JUMP JUMPDEST PUSH1 0x0 PUSH1 0x20 DUP3 DUP5 SUB SLT ISZERO PUSH2 0x39C6 JUMPI PUSH1 0x0 DUP1 REVERT JUMPDEST DUP2 MLOAD PUSH1 0xFF DUP2 AND DUP2 EQ PUSH2 0x353E JUMPI PUSH1 0x0 DUP1 REVERT INVALID LOG2 PUSH5 0x6970667358 0x22 SLT KECCAK256 PUSH3 0x7A540C 0xAA SUB SELFDESTRUCT SSTORE 0xD0 0xE8 DUP4 0xBC CALLDATASIZE GASLIMIT 0x1E DUP4 RETURN PUSH31 0x7BEB8680E173A3D0CA12303E8CBD64736F6C634300080B0033000000000000 ","sha1":"46fef2db0fab29a214c1b42e916cbd23e4111fbf","source":"// SPDX-License-Identifier: MIT\npragma solidity ^0.8.0;\n\nimport \"@openzeppelin/contracts/access/Ownable.sol\";\nimport \"@openzeppelin/contracts/token/ERC20/IERC20.sol\";\nimport \"@openzeppelin/contracts/utils/math/SafeMath.sol\";\nimport \"@chainlink/contracts/src/v0.8/interfaces/AggregatorV3Interface.sol\";\n\ncontract TokenFarm is Ownable {\n    using SafeMath for uint256;\n\n    // mapping token address -> staker address -> amount\n    uint256 public APY = 10;\n\n    mapping(address => mapping(address => uint256)) public stakingBalance;\n    mapping(address => uint256) stakingTimeStamp;\n    mapping(address => uint256) stakingRewards;\n    mapping(address => uint256) public stakingTimeToWithdraw;\n    uint256 public amountPeopleLeftInWithdrawFees;\n\n    mapping(address => uint256) public uniqueTokensStaked;\n    mapping(address => address) public tokenPriceFeedMapping;\n    address[] public funders;\n    uint256 public uniqueTokenStakers;\n    uint256 public totalTokensStaked;\n\n    address[] public stakers;\n    address[] public allowedTokens;\n    IERC20 public dappToken;\n    IERC20 public preSaleTokenAddress;\n\n    // --------------------------------\n    // pre-sale amount Balance\n    // address public owner;\n    mapping(address => mapping(address => uint256)) public purchasedBalance;\n    mapping(address => uint256) public collectedPreSaleFunds;\n    mapping(address => uint256) public totalCollectionOfPreSaleFunds;\n    uint256 public totalCollectionOfPreSaleFundsAllTokens;\n\n    mapping(address => uint256) public totalPurchasedPreSaleTokens;\n    uint256 private TIMES;\n    // mapping(address => mapping(address => uint256))\n    //     public preSaleTokensAvailableToWithdraw;\n\n    mapping(address => uint256) public totalWithdrawnPreSaleTokens;\n\n    uint256 public percentageWithdrawAllowed;\n\n    // mapping(address => mapping(address => uint256))\n    //     public preSaleTokensLeftToWithdraw;\n\n    mapping(address => uint256) public addressToAmountFunded;\n    address[] public preSaleFunders;\n    address[] public preSaleAllowedTokens;\n    AggregatorV3Interface public priceFeedA;\n    mapping(address => uint256) public uniquePreSaleTokensStaked;\n    uint256 public singleTokenAllPreSaleBalance;\n\n    // Pre Sale Status and Allocation Round Variables\n\n    mapping(uint256 => uint256) public stakingLevelToWeight;\n    mapping(uint256 => bool) public preSaleNumberStatus;\n    uint256 baseNumberStakingLevel = 1500;\n    mapping(uint256 => uint256) public stakingLevelUserCounter;\n    mapping(address => bool) public preSaleParticipantsStatus;\n    mapping(address => uint256) public whenParticipatedThatLevel;\n    uint256 public totalAmountToCollectForThisPreSale;\n    mapping(uint256 => bool) public preSaleAllocationStatus;\n\n    constructor(address _dappTokenAddress, address _priceFeed) public {\n        dappToken = IERC20(_dappTokenAddress);\n        // owner = msg.sender;\n        priceFeedA = AggregatorV3Interface(_priceFeed);\n\n        stakingLevelToWeight[0] = 0;\n        stakingLevelToWeight[1] = 1;\n        stakingLevelToWeight[2] = 2;\n        stakingLevelToWeight[3] = 3;\n        stakingLevelToWeight[4] = 4;\n        stakingLevelToWeight[5] = 5;\n        stakingLevelToWeight[6] = 6;\n        stakingLevelToWeight[7] = 7;\n        stakingLevelToWeight[8] = 8;\n        stakingLevelToWeight[9] = 9;\n        stakingLevelToWeight[10] = 10;\n        stakingLevelToWeight[11] = 15;\n        stakingLevelToWeight[12] = 20;\n        stakingLevelToWeight[13] = 25;\n        stakingLevelToWeight[14] = 30;\n        stakingLevelToWeight[15] = 35;\n        stakingLevelToWeight[16] = 40;\n        stakingLevelToWeight[17] = 45;\n        stakingLevelToWeight[18] = 50;\n        stakingLevelToWeight[19] = 60;\n        stakingLevelToWeight[20] = 70;\n        stakingLevelToWeight[21] = 80;\n        stakingLevelToWeight[22] = 90;\n        stakingLevelToWeight[23] = 100;\n        stakingLevelToWeight[24] = 110;\n        stakingLevelToWeight[25] = 120;\n        stakingLevelToWeight[26] = 130;\n        stakingLevelToWeight[27] = 140;\n        stakingLevelToWeight[28] = 150;\n    }\n\n    //\n    // Pre Sale numbers and allocation per user\n    // -------------------------------\n    // Once the participant enters they wont be able to re-enter\n\n    function setTotalAmountToCollectForThisPreSale(uint256 _amount)\n        public\n        onlyOwner\n    {\n        totalAmountToCollectForThisPreSale = _amount;\n    }\n\n    function participateInPreSaleAllocation(\n        uint256 _preSaleNumber,\n        address _token\n    ) public {\n        require(preSaleNumberStatus[_preSaleNumber] == true);\n        require(stakingBalance[_token][msg.sender] >= (1500 * (10**18)));\n        require(getStakingLevel(msg.sender, _token) > 0);\n        require(preSaleParticipantsStatus[msg.sender] == false);\n\n        uint256 stakingLevel = getStakingLevel(msg.sender, _token);\n        stakingLevelUserCounter[stakingLevel] =\n            stakingLevelUserCounter[stakingLevel] +\n            1;\n        whenParticipatedThatLevel[msg.sender] = stakingLevel;\n    }\n\n    // uint256 public allPoolsTotalWeight;\n    // uint256 public amountAllocatedToEachShare;\n    // uint256 public allocatedAmountToEachUser;\n    // uint256 public staking_level_users_counter;\n\n    function getAllocatedPreSaleAmount(\n        address _sender,\n        address _token,\n        uint256 _preSaleNumber\n    ) public returns (uint256) {\n        require(preSaleAllocationStatus[_preSaleNumber] == true);\n        require(totalAmountToCollectForThisPreSale > 0);\n\n        uint256 allPoolsTotalWeight;\n        for (uint256 i = 1; i < 29; i++) {\n            uint256 eachPoolTotalWeight;\n            eachPoolTotalWeight = (stakingLevelToWeight[i] *\n                stakingLevelUserCounter[i]);\n            allPoolsTotalWeight = allPoolsTotalWeight + eachPoolTotalWeight;\n        }\n        uint256 amountAllocatedToEachShare = (totalAmountToCollectForThisPreSale /\n                allPoolsTotalWeight);\n\n        uint256 staking_level_of_sender = getStakingLevel(_sender, _token);\n        uint256 staking_level_users_counter = stakingLevelUserCounter[\n            staking_level_of_sender\n        ];\n\n        uint256 staking_level_weight = stakingLevelToWeight[\n            staking_level_of_sender\n        ];\n\n        uint256 allocatedAmountToEachUser = ((staking_level_weight *\n            staking_level_users_counter *\n            amountAllocatedToEachShare) / staking_level_users_counter);\n\n        return (allocatedAmountToEachUser);\n    }\n\n    function changeStakingLevelToWeight(uint256 _level, uint256 _weight)\n        public\n        onlyOwner\n    {\n        stakingLevelToWeight[_level] = _weight;\n    }\n\n    function changeBaseNumberStakingLevel(uint256 _number) public onlyOwner {\n        baseNumberStakingLevel = _number;\n    }\n\n    function setPreSaleAllocationStatus(uint256 _number, bool _status)\n        public\n        onlyOwner\n    {\n        preSaleAllocationStatus[_number] = _status;\n    }\n\n    function changePreSaleNumberStatus(uint256 _number, bool _status)\n        public\n        onlyOwner\n    {\n        preSaleNumberStatus[_number] = _status;\n    }\n\n    function getStakingLevel(address _sender, address _token)\n        public\n        view\n        returns (uint256)\n    {\n        uint256 stakingLevel = 0;\n        if (\n            stakingBalance[_token][_sender] >=\n            ((baseNumberStakingLevel * 150) * (10**18))\n        ) {\n            return stakingLevel = 28;\n        } else if (\n            stakingBalance[_token][_sender] >=\n            ((baseNumberStakingLevel * 140) * (10**18))\n        ) {\n            return stakingLevel = 27;\n        } else if (\n            stakingBalance[_token][_sender] >=\n            ((baseNumberStakingLevel * 130) * (10**18))\n        ) {\n            return stakingLevel = 26;\n        } else if (\n            stakingBalance[_token][_sender] >=\n            ((baseNumberStakingLevel * 120) * (10**18))\n        ) {\n            return stakingLevel = 25;\n        } else if (\n            stakingBalance[_token][_sender] >=\n            ((baseNumberStakingLevel * 110) * (10**18))\n        ) {\n            return stakingLevel = 24;\n        } else if (\n            stakingBalance[_token][_sender] >=\n            ((baseNumberStakingLevel * 100) * (10**18))\n        ) {\n            return stakingLevel = 23;\n        } else if (\n            stakingBalance[_token][_sender] >=\n            ((baseNumberStakingLevel * 90) * (10**18))\n        ) {\n            return stakingLevel = 22;\n        } else if (\n            stakingBalance[_token][_sender] >=\n            ((baseNumberStakingLevel * 80) * (10**18))\n        ) {\n            return stakingLevel = 21;\n        } else if (\n            stakingBalance[_token][_sender] >=\n            ((baseNumberStakingLevel * 70) * (10**18))\n        ) {\n            return stakingLevel = 20;\n        } else if (\n            stakingBalance[_token][_sender] >=\n            ((baseNumberStakingLevel * 60) * (10**18))\n        ) {\n            return stakingLevel = 19;\n        } else if (\n            stakingBalance[_token][_sender] >=\n            ((baseNumberStakingLevel * 50) * (10**18))\n        ) {\n            return stakingLevel = 18;\n        } else if (\n            stakingBalance[_token][_sender] >=\n            ((baseNumberStakingLevel * 45) * (10**18))\n        ) {\n            return stakingLevel = 17;\n        } else if (\n            stakingBalance[_token][_sender] >=\n            ((baseNumberStakingLevel * 40) * (10**18))\n        ) {\n            return stakingLevel = 16;\n        } else if (\n            stakingBalance[_token][_sender] >=\n            ((baseNumberStakingLevel * 35) * (10**18))\n        ) {\n            return stakingLevel = 15;\n        } else if (\n            stakingBalance[_token][_sender] >=\n            ((baseNumberStakingLevel * 30) * (10**18))\n        ) {\n            return stakingLevel = 14;\n        } else if (\n            stakingBalance[_token][_sender] >=\n            ((baseNumberStakingLevel * 25) * (10**18))\n        ) {\n            return stakingLevel = 13;\n        } else if (\n            stakingBalance[_token][_sender] >=\n            ((baseNumberStakingLevel * 20) * (10**18))\n        ) {\n            return stakingLevel = 12;\n        } else if (\n            stakingBalance[_token][_sender] >=\n            ((baseNumberStakingLevel * 15) * (10**18))\n        ) {\n            return stakingLevel = 11;\n        } else if (\n            stakingBalance[_token][_sender] >=\n            ((baseNumberStakingLevel * 10) * (10**18))\n        ) {\n            return stakingLevel = 10;\n        } else if (\n            stakingBalance[_token][_sender] >=\n            ((baseNumberStakingLevel * 9) * (10**18))\n        ) {\n            return stakingLevel = 9;\n        } else if (\n            stakingBalance[_token][_sender] >=\n            ((baseNumberStakingLevel * 8) * (10**18))\n        ) {\n            return stakingLevel = 8;\n        } else if (\n            stakingBalance[_token][_sender] >=\n            ((baseNumberStakingLevel * 7) * (10**18))\n        ) {\n            return stakingLevel = 7;\n        } else if (\n            stakingBalance[_token][_sender] >=\n            ((baseNumberStakingLevel * 6) * (10**18))\n        ) {\n            return stakingLevel = 6;\n        } else if (\n            stakingBalance[_token][_sender] >=\n            ((baseNumberStakingLevel * 5) * (10**18))\n        ) {\n            return stakingLevel = 5;\n        } else if (\n            stakingBalance[_token][_sender] >=\n            ((baseNumberStakingLevel * 4) * (10**18))\n        ) {\n            return stakingLevel = 4;\n        } else if (\n            stakingBalance[_token][_sender] >=\n            ((baseNumberStakingLevel * 3) * (10**18))\n        ) {\n            return stakingLevel = 3;\n        } else if (\n            stakingBalance[_token][_sender] >=\n            ((baseNumberStakingLevel * 2) * (10**18))\n        ) {\n            return stakingLevel = 2;\n        } else if (\n            stakingBalance[_token][_sender] >=\n            ((baseNumberStakingLevel * 1) * (10**18))\n        ) {\n            return stakingLevel = 1;\n        } else {\n            return stakingLevel = 0;\n        }\n    }\n\n    // ---------------------------------------\n\n    // -------------------------------\n    //    address[] public receivingAllowedTokens;\n\n    // stakeTokens - DONE!\n    // unStakeTokens - DONE\n    // issueTokens - DONE!\n    // addAllowedTokens - DONE!\n    // getEthValue - DONE!\n\n    // 100 ETH 1:1 for every 1 ETH, we give 1 DappToken\n    // 50 ETH and 50 DAI staked, and we want to give a reward of 1 DAPP / 1 DAI\n\n    function getVersion() public view returns (uint256) {\n        return priceFeedA.version();\n    }\n\n    function addPreSaleAllowedTokens(address _token) public onlyOwner {\n        preSaleAllowedTokens.push(_token);\n    }\n\n    function updateTimes(uint256 _times) public onlyOwner {\n        TIMES = _times;\n    }\n\n    function updatePreSaleTokenAddress(address _preSaleTokenAddress)\n        public\n        onlyOwner\n    {\n        preSaleTokenAddress = IERC20(_preSaleTokenAddress);\n    }\n\n    function preSaleFund(uint256 _amount, address _token) public {\n        // uint256 minimumUSD = 1 * (10**18);\n        // require(\n        //     getConversionRate(_amount) >= minimumUSD,\n        //     \"You need to spend more Eth!\"\n        // );\n        require(_amount > 0, \"Amount must be more than 0\");\n        require(\n            preSaleTokenIsAllowed(_token),\n            \"Token is currently not allowed\"\n        );\n        IERC20(_token).transferFrom(msg.sender, address(this), _amount);\n        singleTokenAllPreSaleBalance =\n            (IERC20(_token).balanceOf(address(this))) /\n            1000000000000000000;\n\n        updateUniquePreSaleTokensStaked(msg.sender, _token);\n        purchasedBalance[_token][msg.sender] =\n            purchasedBalance[_token][msg.sender] +\n            _amount;\n        totalPurchasedPreSaleTokens[msg.sender] =\n            totalPurchasedPreSaleTokens[msg.sender] +\n            (_amount * TIMES);\n\n        collectedPreSaleFunds[_token] = collectedPreSaleFunds[_token] + _amount;\n        totalCollectionOfPreSaleFunds[_token] =\n            totalCollectionOfPreSaleFunds[_token] +\n            _amount;\n        totalCollectionOfPreSaleFundsAllTokens =\n            totalCollectionOfPreSaleFundsAllTokens +\n            _amount;\n\n        if (uniquePreSaleTokensStaked[msg.sender] == 1) {\n            preSaleFunders.push(msg.sender);\n        }\n\n        // addressToAmountFunded[msg.sender] += msg.value;\n        // preSaleFunders.push(msg.sender);\n    }\n\n    function getSingleTokenAllPreSaleBalance(address _token)\n        public\n        onlyOwner\n        returns (uint256)\n    {\n        singleTokenAllPreSaleBalance = IERC20(_token).balanceOf(address(this));\n        return singleTokenAllPreSaleBalance;\n    }\n\n    function claimAllPreSaletokens() public {\n        uint256 totalPurchased = totalPurchasedPreSaleTokens[msg.sender];\n        uint256 totalWithdrawn = totalWithdrawnPreSaleTokens[msg.sender];\n        uint256 balance = (totalPurchased - totalWithdrawn);\n        uint256 allowedToWithdraw = (percentageWithdrawAllowed *\n            totalPurchased) / 100;\n        uint256 availableToWithdraw = (allowedToWithdraw - totalWithdrawn);\n\n        require(totalPurchased > 0);\n        require(availableToWithdraw > 0);\n        require(totalWithdrawn < totalPurchased);\n\n        IERC20(preSaleTokenAddress).transfer(msg.sender, availableToWithdraw);\n        totalWithdrawnPreSaleTokens[msg.sender] =\n            totalWithdrawnPreSaleTokens[msg.sender] +\n            availableToWithdraw;\n    }\n\n    function claimPreSaleTokens(uint256 _amount) public {\n        uint256 totalPurchased = totalPurchasedPreSaleTokens[msg.sender];\n        uint256 totalWithdrawn = totalWithdrawnPreSaleTokens[msg.sender];\n        uint256 balance = (totalPurchased - totalWithdrawn);\n        uint256 allowedToWithdraw = (percentageWithdrawAllowed *\n            totalPurchased) / 100;\n        uint256 availableToWithdraw = (allowedToWithdraw - totalWithdrawn);\n\n        require(availableToWithdraw > 0);\n        require(_amount <= availableToWithdraw);\n        require(totalWithdrawn < totalPurchased);\n        require(_amount > 0, \"Amount must be more than 0\");\n        require(\n            balance >= _amount,\n            \"You don't have enough purchased tokens left!\"\n        );\n        require((totalWithdrawn + _amount) < totalPurchased);\n\n        IERC20(preSaleTokenAddress).transfer(msg.sender, _amount);\n        totalWithdrawnPreSaleTokens[msg.sender] =\n            totalWithdrawnPreSaleTokens[msg.sender] +\n            _amount;\n\n        // Removing: preSaleTokensAvailableToWithdraw is a changing value when\n        // we update the percentageWithdrawAllowed it will change\n\n        // preSaleTokensAvailableToWithdraw[_token][msg.sender] =\n        //     availableToWithdraw -\n        //     _amount;\n    }\n\n    function issuePreSaleTokensToWithdrawPercentage(uint256 _percentageAmount)\n        public\n        onlyOwner\n    {\n        require(percentageWithdrawAllowed <= 101);\n        require((percentageWithdrawAllowed + _percentageAmount) <= 101);\n        percentageWithdrawAllowed =\n            percentageWithdrawAllowed +\n            _percentageAmount;\n    }\n\n    function getAvailablePreSaleTokensToWithdraw(\n        address _token,\n        address _sender\n    ) public view returns (uint256) {\n        uint256 totalPurchased = totalPurchasedPreSaleTokens[_sender];\n        uint256 totalWithdrawn = totalWithdrawnPreSaleTokens[_sender];\n        // uint256 balance = (totalPurchased - totalWithdrawn);\n        uint256 allowedToWithdraw = (percentageWithdrawAllowed *\n            totalPurchased) / 100;\n        uint256 availableToWithdraw = (allowedToWithdraw - totalWithdrawn);\n\n        // preSaleTokensLeftToWithdraw[_token][msg.sender] = availableToWithdraw;\n        return availableToWithdraw;\n    }\n\n    function withdrawPreSaleCollectedFund(address _token) public onlyOwner {\n        // uint256 balance = purchasedBalance[_token][msg.sender];\n        // uint256 balance = (IERC20(_token).balanceOf(address(this)));\n        uint256 collectedFunds = collectedPreSaleFunds[_token];\n        // require(balance > 0, \"Staking balance cannot be 0\");\n        IERC20(_token).transfer(msg.sender, collectedFunds);\n        singleTokenAllPreSaleBalance =\n            (IERC20(_token).balanceOf(address(this))) /\n            1000000000000000000;\n\n        collectedPreSaleFunds[_token] = 0;\n    }\n\n    function manageWithdrawOwnerFunds(address _token, uint256 _amount)\n        public\n        onlyOwner\n    {\n        IERC20(_token).transfer(msg.sender, _amount);\n    }\n\n    function manageDepositOwnerFunds(address _token, uint256 _amount)\n        public\n        onlyOwner\n    {\n        IERC20(_token).transferFrom(msg.sender, address(this), _amount);\n    }\n\n    // function stakeTokens(uint256 _amount, address _token) public {\n    //     // what tokens can they stake?\n    //     // how much can they stake?\n    //     require(_amount > 0, \"Amount must be more than 0\");\n    //     require(tokenIsAllowed(_token), \"Token is currently not allowed\");\n    //     // transferFrom\n    //     IERC20(_token).transferFrom(msg.sender, address(this), _amount);\n    //     updateUniqueTokensStaked(msg.sender, _token);\n    //     stakingBalance[_token][msg.sender] =\n    //         stakingBalance[_token][msg.sender] +\n    //         _amount;\n    //     if (uniqueTokensStaked[msg.sender] == 1) {\n    //         stakers.push(msg.sender);\n    //     }\n    // }\n\n    function preSaleTokenIsAllowed(address _token) public returns (bool) {\n        for (\n            uint256 preSaleAllowedTokensIndex = 0;\n            preSaleAllowedTokensIndex < preSaleAllowedTokens.length;\n            preSaleAllowedTokensIndex++\n        ) {\n            if (preSaleAllowedTokens[preSaleAllowedTokensIndex] == _token) {\n                return true;\n            }\n        }\n        return false;\n    }\n\n    function getConversionRate(uint256 ethAmount)\n        public\n        view\n        returns (uint256)\n    {\n        // use function \"getTokenValue()\" instead of \"getPrice()\"\n\n        uint256 ethPrice = getPrice();\n        uint256 ethAmountInUsd = (ethPrice * ethAmount) / 1000000000000000000;\n        return ethAmountInUsd;\n    }\n\n    function getPrice() public view returns (uint256) {\n        (, int256 answer, , , ) = priceFeedA.latestRoundData();\n        return uint256(answer * 10000000000);\n    }\n\n    function getEntranceFee() public view returns (uint256) {\n        //minimumUSD\n        uint256 minimumUSD = 50 * 10**18;\n        uint256 price = getPrice();\n        uint256 precision = 1 * 10**18;\n        return (minimumUSD * precision) / price;\n    }\n\n    function updateUniquePreSaleTokensStaked(address _user, address _token)\n        internal\n    {\n        if (purchasedBalance[_token][_user] <= 0) {\n            uniquePreSaleTokensStaked[_user] =\n                uniquePreSaleTokensStaked[_user] +\n                1;\n        }\n    }\n\n    // --------------------------------------------\n\n    function setPriceFeedContract(address _token, address _priceFeed)\n        public\n        onlyOwner\n    {\n        tokenPriceFeedMapping[_token] = _priceFeed;\n    }\n\n    function issueTokens() public onlyOwner {\n        // Issue tokens to all stakers\n        for (\n            uint256 stakersIndex = 0;\n            stakersIndex < stakers.length;\n            stakersIndex++\n        ) {\n            address recipient = stakers[stakersIndex];\n            uint256 userTotalValue = getUserTotalValue(recipient);\n            // send them a token reward\n            // based on their total value locked\n            // dappToken.transfer(recipient, )\n            dappToken.transfer(recipient, userTotalValue);\n        }\n    }\n\n    function getUserTotalValue(address _user) public view returns (uint256) {\n        uint256 totalValue = 0;\n        require(uniqueTokensStaked[_user] > 0, \"No tokens staked!\");\n        for (\n            uint256 allowedTokensIndex = 0;\n            allowedTokensIndex < allowedTokens.length;\n            allowedTokensIndex++\n        ) {\n            totalValue =\n                totalValue +\n                getUserSingleTokenValue(\n                    _user,\n                    allowedTokens[allowedTokensIndex]\n                );\n        }\n        return totalValue;\n    }\n\n    function getUserSingleTokenValue(address _user, address _token)\n        public\n        view\n        returns (uint256)\n    {\n        // if staked 1 ETH -> $2000\n        // 2000 dapp token\n        // if staked 200 DAI -> $200\n        // 200 dapp token\n        if (uniqueTokensStaked[_user] <= 0) {\n            return 0;\n        }\n        // price of the  token * stakingBalance[_token][_user]\n        (uint256 price, uint256 decimals) = getTokenValue(_token);\n        return // 10 ETH\n        // ETH/USD\n        ((stakingBalance[_token][_user] * price) / (10**decimals));\n    }\n\n    function getTokenValue(address _token)\n        public\n        view\n        returns (uint256, uint256)\n    {\n        // priceFeedAddress\n        address priceFeedAddress = tokenPriceFeedMapping[_token];\n        AggregatorV3Interface priceFeed = AggregatorV3Interface(\n            priceFeedAddress\n        );\n        (, int256 price, , , ) = priceFeed.latestRoundData();\n        uint256 decimals = uint256(priceFeed.decimals());\n        return (uint256(price), decimals);\n    }\n\n    function setAPY(uint256 _APY) public onlyOwner {\n        APY = _APY;\n    }\n\n    function calculateStakingRewards(address _user, address _token)\n        public\n        view\n        returns (uint256)\n    {\n        uint256 userTimeStamp = stakingTimeStamp[_user];\n        uint256 currentTime = block.timestamp;\n        uint256 userStakingBalance = stakingBalance[_token][_user];\n\n        uint256 totalRewardsPerYear = (APY * userStakingBalance) / 100;\n        uint256 totalRewardsPerMinute = totalRewardsPerYear / 525600;\n\n        uint256 stakedTimeInMinutes = ((currentTime - userTimeStamp) / 60);\n        uint256 rewards = stakedTimeInMinutes * totalRewardsPerMinute;\n\n        return rewards;\n    }\n\n    function getAvailableStakingRewards(address _sender, address _token)\n        public\n        view\n        returns (uint256)\n    {\n        uint256 totalRewards = (stakingRewards[_sender] +\n            calculateStakingRewards(_sender, _token));\n\n        return totalRewards;\n    }\n\n    function claimStakingRewards(address _token) public {\n        uint256 userTotalRewards = getAvailableStakingRewards(\n            msg.sender,\n            _token\n        );\n        require(userTotalRewards > 0);\n        IERC20(_token).transfer(msg.sender, userTotalRewards);\n        stakingRewards[msg.sender] = 0;\n        stakingTimeStamp[msg.sender] = block.timestamp;\n    }\n\n    function stakeTokens(uint256 _amount, address _token) public {\n        // what tokens can they stake?\n        // how much can they stake?\n        require(_amount > 0, \"Amount must be more than 0\");\n        require(tokenIsAllowed(_token), \"Token is currently not allowed\");\n        // transferFrom\n        IERC20(_token).transferFrom(msg.sender, address(this), _amount);\n        updateUniqueTokensStaked(msg.sender, _token);\n        updateUniqueTokenStakers(msg.sender, _token);\n        totalTokensStaked = totalTokensStaked + _amount;\n\n        stakingRewards[msg.sender] = getAvailableStakingRewards(\n            msg.sender,\n            _token\n        );\n\n        stakingTimeStamp[msg.sender] = block.timestamp;\n        stakingTimeToWithdraw[msg.sender] = block.timestamp;\n\n        stakingBalance[_token][msg.sender] =\n            stakingBalance[_token][msg.sender] +\n            _amount;\n\n        // stakingRewards[msg.sender] = (stakingRewards[msg.sender] +\n        //     calculateStakingRewards(msg.sender, _token));\n\n        if (uniqueTokensStaked[msg.sender] == 1) {\n            stakers.push(msg.sender);\n        }\n    }\n\n    function withdrawAmountPeopleLeftInWithdrawFees(address _token)\n        public\n        onlyOwner\n    {\n        IERC20(_token).transfer(msg.sender, amountPeopleLeftInWithdrawFees);\n        amountPeopleLeftInWithdrawFees = 0;\n    }\n\n    function unstakeTokens(uint256 _amount, address _token) public {\n        uint256 balance = stakingBalance[_token][msg.sender];\n        require(_amount > 0, \"Amount must be more than 0\");\n        require(balance >= _amount, \"You don't have enough staked tokens\");\n        require(tokenIsAllowed(_token), \"Token is currently not allowed\");\n\n        uint256 timeNow = block.timestamp;\n        if (timeNow < (stakingTimeToWithdraw[msg.sender] + 4838400)) {\n            if (timeNow < (stakingTimeToWithdraw[msg.sender] + 3628800)) {\n                if (timeNow < (stakingTimeToWithdraw[msg.sender] + 2419200)) {\n                    if (\n                        timeNow < (stakingTimeToWithdraw[msg.sender] + 1209600)\n                    ) {\n                        uint256 withdrawAmount = ((75 * _amount) / 100);\n                        IERC20(_token).transfer(msg.sender, withdrawAmount);\n\n                        amountPeopleLeftInWithdrawFees =\n                            amountPeopleLeftInWithdrawFees +\n                            (_amount - withdrawAmount);\n                    } else {\n                        uint256 withdrawAmount = ((85 * _amount) / 100);\n                        IERC20(_token).transfer(msg.sender, withdrawAmount);\n\n                        amountPeopleLeftInWithdrawFees =\n                            amountPeopleLeftInWithdrawFees +\n                            (_amount - withdrawAmount);\n                    }\n                } else {\n                    uint256 withdrawAmount = ((90 * _amount) / 100);\n                    IERC20(_token).transfer(msg.sender, withdrawAmount);\n\n                    amountPeopleLeftInWithdrawFees =\n                        amountPeopleLeftInWithdrawFees +\n                        (_amount - withdrawAmount);\n                }\n            } else {\n                uint256 withdrawAmount = ((95 * _amount) / 100);\n                IERC20(_token).transfer(msg.sender, withdrawAmount);\n\n                amountPeopleLeftInWithdrawFees =\n                    amountPeopleLeftInWithdrawFees +\n                    (_amount - withdrawAmount);\n            }\n        } else {\n            IERC20(_token).transfer(msg.sender, _amount);\n        }\n\n        stakingRewards[msg.sender] = getAvailableStakingRewards(\n            msg.sender,\n            _token\n        );\n\n        stakingTimeStamp[msg.sender] = block.timestamp;\n\n        stakingBalance[_token][msg.sender] = balance - _amount;\n\n        totalTokensStaked = totalTokensStaked - _amount;\n        if (stakingBalance[_token][msg.sender] <= 0) {\n            uniqueTokenStakers = uniqueTokenStakers - 1;\n            uniqueTokensStaked[msg.sender] = uniqueTokensStaked[msg.sender] - 1;\n        }\n        // if (uniqueTokensStaked[msg.sender] == 0) {\n        //     for (\n        //         uint256 stakersIndex = 0;\n        //         stakersIndex < stakers.length;\n        //         stakersIndex++\n        //     ) {\n        //         address recipient = stakers[stakersIndex];\n        //         if (msg.sender == recipient) {\n        //             // stakers.splice(stakersIndex, 1); this part is not working\n        //         }\n        //     }\n        // }\n    }\n\n    function unstakeAllTokens(address _token) public {\n        uint256 balance = stakingBalance[_token][msg.sender];\n        require(balance > 0, \"Staking balance cannot be 0\");\n        require(tokenIsAllowed(_token), \"Token is currently not allowed\");\n\n        // IERC20(_token).transfer(msg.sender, balance);\n\n        uint256 timeNow = block.timestamp;\n        if (timeNow < (stakingTimeToWithdraw[msg.sender] + 4838400)) {\n            if (timeNow < (stakingTimeToWithdraw[msg.sender] + 3628800)) {\n                if (timeNow < (stakingTimeToWithdraw[msg.sender] + 2419200)) {\n                    if (\n                        timeNow < (stakingTimeToWithdraw[msg.sender] + 1209600)\n                    ) {\n                        uint256 withdrawAmount = ((75 * balance) / 100);\n                        IERC20(_token).transfer(msg.sender, withdrawAmount);\n\n                        amountPeopleLeftInWithdrawFees =\n                            amountPeopleLeftInWithdrawFees +\n                            (balance - withdrawAmount);\n                    } else {\n                        uint256 withdrawAmount = ((85 * balance) / 100);\n                        IERC20(_token).transfer(msg.sender, withdrawAmount);\n\n                        amountPeopleLeftInWithdrawFees =\n                            amountPeopleLeftInWithdrawFees +\n                            (balance - withdrawAmount);\n                    }\n                } else {\n                    uint256 withdrawAmount = ((90 * balance) / 100);\n                    IERC20(_token).transfer(msg.sender, withdrawAmount);\n\n                    amountPeopleLeftInWithdrawFees =\n                        amountPeopleLeftInWithdrawFees +\n                        (balance - withdrawAmount);\n                }\n            } else {\n                uint256 withdrawAmount = ((95 * balance) / 100);\n                IERC20(_token).transfer(msg.sender, withdrawAmount);\n\n                amountPeopleLeftInWithdrawFees =\n                    amountPeopleLeftInWithdrawFees +\n                    (balance - withdrawAmount);\n            }\n        } else {\n            IERC20(_token).transfer(msg.sender, balance);\n        }\n        stakingRewards[msg.sender] = getAvailableStakingRewards(\n            msg.sender,\n            _token\n        );\n\n        stakingTimeStamp[msg.sender] = block.timestamp;\n\n        totalTokensStaked = totalTokensStaked - balance;\n        stakingBalance[_token][msg.sender] = 0;\n        uniqueTokensStaked[msg.sender] = uniqueTokensStaked[msg.sender] - 1;\n        uniqueTokenStakers = uniqueTokenStakers - 1;\n    }\n\n    function updateUniqueTokensStaked(address _user, address _token) internal {\n        if (stakingBalance[_token][_user] <= 0) {\n            uniqueTokensStaked[_user] = uniqueTokensStaked[_user] + 1;\n        }\n    }\n\n    function updateUniqueTokenStakers(address _user, address _token) internal {\n        if (stakingBalance[_token][_user] <= 0) {\n            uniqueTokenStakers = uniqueTokenStakers + 1;\n        }\n    }\n\n    function addAllowedTokens(address _token) public onlyOwner {\n        allowedTokens.push(_token);\n    }\n\n    function tokenIsAllowed(address _token) public returns (bool) {\n        for (\n            uint256 allowedTokensIndex = 0;\n            allowedTokensIndex < allowedTokens.length;\n            allowedTokensIndex++\n        ) {\n            if (allowedTokens[allowedTokensIndex] == _token) {\n                return true;\n            }\n        }\n        return false;\n    }\n}\n","sourcePath":"contracts/TokenFarm.sol","type":"contract","deployment":{"address":"0xf3D5502B6Cc75b86153a6D3B0225d0e7f93A7A24","chainid":"97","blockHeight":17520150}}